{
  "contractName": "BeaconOracleMock",
  "abi": [
    {
      "inputs": [
        {
          "internalType": "address",
          "name": "_finderAddress",
          "type": "address"
        },
        {
          "internalType": "uint8",
          "name": "_chainID",
          "type": "uint8"
        }
      ],
      "stateMutability": "nonpayable",
      "type": "constructor"
    },
    {
      "anonymous": false,
      "inputs": [
        {
          "indexed": true,
          "internalType": "address",
          "name": "requester",
          "type": "address"
        },
        {
          "indexed": true,
          "internalType": "uint8",
          "name": "chainID",
          "type": "uint8"
        },
        {
          "indexed": true,
          "internalType": "bytes32",
          "name": "identifier",
          "type": "bytes32"
        },
        {
          "indexed": false,
          "internalType": "uint256",
          "name": "time",
          "type": "uint256"
        },
        {
          "indexed": false,
          "internalType": "bytes",
          "name": "ancillaryData",
          "type": "bytes"
        }
      ],
      "name": "PriceRequestAdded",
      "type": "event"
    },
    {
      "anonymous": false,
      "inputs": [
        {
          "indexed": true,
          "internalType": "address",
          "name": "pusher",
          "type": "address"
        },
        {
          "indexed": true,
          "internalType": "uint8",
          "name": "chainID",
          "type": "uint8"
        },
        {
          "indexed": true,
          "internalType": "bytes32",
          "name": "identifier",
          "type": "bytes32"
        },
        {
          "indexed": false,
          "internalType": "uint256",
          "name": "time",
          "type": "uint256"
        },
        {
          "indexed": false,
          "internalType": "bytes",
          "name": "ancillaryData",
          "type": "bytes"
        },
        {
          "indexed": false,
          "internalType": "int256",
          "name": "price",
          "type": "int256"
        }
      ],
      "name": "PushedPrice",
      "type": "event"
    },
    {
      "inputs": [],
      "name": "currentChainID",
      "outputs": [
        {
          "internalType": "uint8",
          "name": "",
          "type": "uint8"
        }
      ],
      "stateMutability": "view",
      "type": "function"
    },
    {
      "inputs": [],
      "name": "finder",
      "outputs": [
        {
          "internalType": "contract FinderInterface",
          "name": "",
          "type": "address"
        }
      ],
      "stateMutability": "view",
      "type": "function"
    },
    {
      "inputs": [
        {
          "internalType": "bytes32",
          "name": "identifier",
          "type": "bytes32"
        },
        {
          "internalType": "uint256",
          "name": "time",
          "type": "uint256"
        },
        {
          "internalType": "bytes",
          "name": "ancillaryData",
          "type": "bytes"
        }
      ],
      "name": "requestPrice",
      "outputs": [],
      "stateMutability": "nonpayable",
      "type": "function"
    },
    {
      "inputs": [
        {
          "internalType": "bytes32",
          "name": "identifier",
          "type": "bytes32"
        },
        {
          "internalType": "uint256",
          "name": "time",
          "type": "uint256"
        },
        {
          "internalType": "bytes",
          "name": "ancillaryData",
          "type": "bytes"
        }
      ],
      "name": "encodePriceRequest",
      "outputs": [
        {
          "internalType": "bytes32",
          "name": "",
          "type": "bytes32"
        }
      ],
      "stateMutability": "view",
      "type": "function"
    },
    {
      "inputs": [
        {
          "internalType": "bytes32",
          "name": "identifier",
          "type": "bytes32"
        },
        {
          "internalType": "uint256",
          "name": "time",
          "type": "uint256"
        },
        {
          "internalType": "bytes",
          "name": "ancillaryData",
          "type": "bytes"
        },
        {
          "internalType": "int256",
          "name": "price",
          "type": "int256"
        }
      ],
      "name": "publishPrice",
      "outputs": [],
      "stateMutability": "nonpayable",
      "type": "function"
    },
    {
      "inputs": [],
      "name": "getBridge",
      "outputs": [
        {
          "internalType": "contract IBridge",
          "name": "",
          "type": "address"
        }
      ],
      "stateMutability": "view",
      "type": "function"
    }
  ],
  "bytecode": "0x608060405234801561001057600080fd5b506040516106e93803806106e983398101604081905261002f91610068565b600280546001600160a01b0319166001600160a01b0393909316929092179091556000805460ff191660ff9092169190911790556100b1565b6000806040838503121561007a578182fd5b82516001600160a01b0381168114610090578283fd5b602084015190925060ff811681146100a6578182fd5b809150509250929050565b610629806100c06000396000f3fe608060405234801561001057600080fd5b50600436106100625760003560e01c80630fffbaf314610067578063216666a41461008c57806370a6c197146100a15780637dc59b46146100c2578063b179e1e7146100d5578063b9a3c84c146100f4575b600080fd5b61006f610107565b6040516001600160a01b0390911681526020015b60405180910390f35b61009f61009a36600461047a565b610116565b005b6100b46100af36600461047a565b61012d565b604051908152602001610083565b61009f6100d03660046104c8565b610148565b6000546100e29060ff1681565b60405160ff9091168152602001610083565b60025461006f906001600160a01b031681565b6000610111610161565b905090565b6000546101289060ff168484846101e6565b505050565b600080546101409060ff16858585610286565b949350505050565b60005461015b9060ff16858585856102bf565b50505050565b6002546040516302abf57960e61b81526542726964676560d01b60048201526000916001600160a01b03169063aafd5e409060240160206040518083038186803b1580156101ae57600080fd5b505afa1580156101c2573d6000803e3d6000fd5b505050506040513d601f19601f82011682018060405250810190610111919061044c565b60006101f485858585610286565b6000818152600160205260408120919250815460ff16600281111561022957634e487b7160e01b600052602160045260246000fd5b141561027e57805460ff19166001178155604051859060ff88169033907fa03847f95776367eadb647c2616b06a8c30da972a64abe9fbe0ad1e54e1b1ead906102759089908990610569565b60405180910390a45b505050505050565b60008484848460405160200161029f94939291906105ab565b604051602081830303815290604052805190602001209050949350505050565b60006102cd86868686610286565b6000818152600160208190526040909120919250815460ff16600281111561030557634e487b7160e01b600052602160045260246000fd5b146103655760405162461bcd60e51b815260206004820152602660248201527f50726963652072657175657374206973206e6f742063757272656e746c792070604482015265656e64696e6760d01b606482015260840160405180910390fd5b60018101839055805460ff19166002178155604051869060ff89169033907fa044919dd7388dc90883c27251dd419685261eb5c0810da1084addc60fc20d27906103b4908a908a908a90610582565b60405180910390a450505050505050565b600082601f8301126103d5578081fd5b813567ffffffffffffffff808211156103f0576103f06105dd565b604051601f8301601f19908116603f01168101908282118183101715610418576104186105dd565b81604052838152866020858801011115610430578485fd5b8360208701602083013792830160200193909352509392505050565b60006020828403121561045d578081fd5b81516001600160a01b0381168114610473578182fd5b9392505050565b60008060006060848603121561048e578182fd5b8335925060208401359150604084013567ffffffffffffffff8111156104b2578182fd5b6104be868287016103c5565b9150509250925092565b600080600080608085870312156104dd578081fd5b8435935060208501359250604085013567ffffffffffffffff811115610501578182fd5b61050d878288016103c5565b949793965093946060013593505050565b60008151808452815b8181101561054357602081850181015186830182015201610527565b818111156105545782602083870101525b50601f01601f19169290920160200192915050565b828152604060208201526000610140604083018461051e565b83815260606020820152600061059b606083018561051e565b9050826040830152949350505050565b60ff851681528360208201528260408201526080606082015260006105d3608083018461051e565b9695505050505050565b634e487b7160e01b600052604160045260246000fdfea264697066735822122030123d9fc7ea506e926fc584e617ed1ba0bd909ca1680a0798742229236eb0d864736f6c63430008040033",
  "immutableReferences": {},
  "source": "// SPDX-License-Identifier: AGPL-3.0-only\npragma solidity ^0.8.0;\n\nimport \"./BeaconOracle.sol\";\n\n/**\n * @title Test implementation of BeaconOracle enabling unit tests on internal methods.\n */\ncontract BeaconOracleMock is BeaconOracle {\n    constructor(address _finderAddress, uint8 _chainID) public BeaconOracle(_finderAddress, _chainID) {}\n\n    function requestPrice(\n        bytes32 identifier,\n        uint256 time,\n        bytes memory ancillaryData\n    ) public {\n        _requestPrice(currentChainID, identifier, time, ancillaryData);\n    }\n\n    function encodePriceRequest(\n        bytes32 identifier,\n        uint256 time,\n        bytes memory ancillaryData\n    ) public view returns (bytes32) {\n        return _encodePriceRequest(currentChainID, identifier, time, ancillaryData);\n    }\n\n    function publishPrice(\n        bytes32 identifier,\n        uint256 time,\n        bytes memory ancillaryData,\n        int256 price\n    ) public {\n        _publishPrice(currentChainID, identifier, time, ancillaryData, price);\n    }\n\n    function getBridge() public view returns (IBridge) {\n        return _getBridge();\n    }\n}\n",
  "sourcePath": "/home/kamto/code/protocol/packages/core/contracts/chainbridge/BeaconOracleMock.sol",
  "compiler": {
    "name": "solc",
    "version": "0.8.4+commit.c7e474f2.Emscripten.clang"
  },
  "schemaVersion": "3.3.4",
  "updatedAt": "2021-05-07T15:46:50.016Z",
  "devdoc": {
    "kind": "dev",
    "methods": {},
    "title": "Test implementation of BeaconOracle enabling unit tests on internal methods.",
    "version": 1
  },
  "userdoc": {
    "kind": "user",
    "methods": {},
    "version": 1
  }
}