{
  "contractName": "DSAuth",
  "abi": [
    {
      "inputs": [],
      "stateMutability": "nonpayable",
      "type": "constructor"
    },
    {
      "anonymous": false,
      "inputs": [
        {
          "indexed": true,
          "internalType": "address",
          "name": "authority",
          "type": "address"
        }
      ],
      "name": "LogSetAuthority",
      "type": "event"
    },
    {
      "anonymous": false,
      "inputs": [
        {
          "indexed": true,
          "internalType": "address",
          "name": "owner",
          "type": "address"
        }
      ],
      "name": "LogSetOwner",
      "type": "event"
    },
    {
      "inputs": [],
      "name": "authority",
      "outputs": [
        {
          "internalType": "contract DSAuthority",
          "name": "",
          "type": "address"
        }
      ],
      "stateMutability": "view",
      "type": "function"
    },
    {
      "inputs": [],
      "name": "owner",
      "outputs": [
        {
          "internalType": "address",
          "name": "",
          "type": "address"
        }
      ],
      "stateMutability": "view",
      "type": "function"
    },
    {
      "inputs": [
        {
          "internalType": "address",
          "name": "owner_",
          "type": "address"
        }
      ],
      "name": "setOwner",
      "outputs": [],
      "stateMutability": "nonpayable",
      "type": "function"
    },
    {
      "inputs": [
        {
          "internalType": "contract DSAuthority",
          "name": "authority_",
          "type": "address"
        }
      ],
      "name": "setAuthority",
      "outputs": [],
      "stateMutability": "nonpayable",
      "type": "function"
    }
  ],
  "bytecode": "0x608060405234801561001057600080fd5b50600180546001600160a01b031916339081179091556040517fce241d7ca1f669fee44b6fc00b8eba2df3bb514eed0f6f668f8f89096e81ed9490600090a26103098061005e6000396000f3fe608060405234801561001057600080fd5b506004361061004c5760003560e01c806313af4035146100515780637a9e5e4b146100665780638da5cb5b14610079578063bf7e214f146100a8575b600080fd5b61006461005f366004610278565b6100bb565b005b610064610074366004610278565b610124565b60015461008c906001600160a01b031681565b6040516001600160a01b03909116815260200160405180910390f35b60005461008c906001600160a01b031681565b6100d1336000356001600160e01b03191661018b565b6100da57600080fd5b600180546001600160a01b0319166001600160a01b0383169081179091556040517fce241d7ca1f669fee44b6fc00b8eba2df3bb514eed0f6f668f8f89096e81ed9490600090a250565b61013a336000356001600160e01b03191661018b565b61014357600080fd5b600080546001600160a01b0319166001600160a01b038316908117825560405190917f1abebea81bfa2637f28358c371278fb15ede7ea8dd28d2e03b112ff6d936ada491a250565b60006001600160a01b0383163014156101a657506001610272565b6001546001600160a01b03848116911614156101c457506001610272565b6000546001600160a01b03166101dc57506000610272565b60005460405163b700961360e01b81526001600160a01b0385811660048301523060248301526001600160e01b0319851660448301529091169063b70096139060640160206040518083038186803b15801561023757600080fd5b505afa15801561024b573d6000803e3d6000fd5b505050506040513d601f19601f8201168201806040525081019061026f919061029b565b90505b92915050565b600060208284031215610289578081fd5b8135610294816102bb565b9392505050565b6000602082840312156102ac578081fd5b81518015158114610294578182fd5b6001600160a01b03811681146102d057600080fd5b5056fea264697066735822122041252dddc694ab3c15e18d3f8cea74d5193a4569de4d4976d05e493d427fdde864736f6c63430008040033",
  "immutableReferences": {},
  "source": "// This file was originally take from from Maker: DS Proxy Factory and modified. The original source code can be found\n// here: https://etherscan.io/address/0xa26e15c895efc0616177b7c1e7270a4c7d51c997#code\n// Changes are limited to updating the Solidity version and some stylistic modifications.\n\n/**\n *Submitted for verification at Etherscan.io on 2018-06-22\n */\n\n// proxy.sol - execute actions atomically through the proxy's identity\n\n// Copyright (C) 2017  DappHub, LLC\n\n// This program is free software: you can redistribute it and/or modify\n// it under the terms of the GNU General Public License as published by\n// the Free Software Foundation, either version 3 of the License, or\n// (at your option) any later version.\n\n// This program is distributed in the hope that it will be useful,\n// but WITHOUT ANY WARRANTY; without even the implied warranty of\n// MERCHANTABILITY or FITNESS FOR A PARTICULAR PURPOSE.  See the\n// GNU General Public License for more details.\n\n// You should have received a copy of the GNU General Public License\n// along with this program.  If not, see <http://www.gnu.org/licenses/>.\n\npragma solidity ^0.8.0;\n\nabstract contract DSAuthority {\n    function canCall(\n        address src,\n        address dst,\n        bytes4 sig\n    ) public view virtual returns (bool);\n}\n\ncontract DSAuthEvents {\n    event LogSetAuthority(address indexed authority);\n    event LogSetOwner(address indexed owner);\n}\n\ncontract DSAuth is DSAuthEvents {\n    DSAuthority public authority;\n    address public owner;\n\n    constructor() {\n        owner = msg.sender;\n        emit LogSetOwner(msg.sender);\n    }\n\n    function setOwner(address owner_) public auth {\n        owner = owner_;\n        emit LogSetOwner(owner);\n    }\n\n    function setAuthority(DSAuthority authority_) public auth {\n        authority = authority_;\n        emit LogSetAuthority(address(authority));\n    }\n\n    modifier auth {\n        require(isAuthorized(msg.sender, msg.sig));\n        _;\n    }\n\n    function isAuthorized(address src, bytes4 sig) internal view returns (bool) {\n        if (src == address(this)) {\n            return true;\n        } else if (src == owner) {\n            return true;\n        } else if (authority == DSAuthority(address(0))) {\n            return false;\n        } else {\n            return authority.canCall(src, address(this), sig);\n        }\n    }\n}\n\ncontract DSNote {\n    event LogNote(\n        bytes4 indexed sig,\n        address indexed guy,\n        bytes32 indexed foo,\n        bytes32 indexed bar,\n        bytes fax\n    ) anonymous;\n\n    modifier note {\n        bytes32 foo;\n        bytes32 bar;\n\n        assembly {\n            foo := calldataload(4)\n            bar := calldataload(36)\n        }\n\n        emit LogNote(msg.sig, msg.sender, foo, bar, msg.data);\n\n        _;\n    }\n}\n\n// DSProxy\n// Allows code execution using a persistant identity This can be very\n// useful to execute a sequence of atomic actions. Since the owner of\n// the proxy can be changed, this allows for dynamic ownership models\n// i.e. a multisig\ncontract DSProxy is DSAuth, DSNote {\n    DSProxyCache public cache; // global cache for contracts\n\n    constructor(address _cacheAddr) public {\n        require(setCache(_cacheAddr));\n    }\n\n    fallback() external payable {}\n\n    // use the proxy to execute calldata _data on contract _code\n    function execute(bytes memory _code, bytes memory _data) public payable returns (address target, bytes32 response) {\n        target = cache.read(_code);\n        if (target == address(0x0)) {\n            // deploy contract & store its address in cache\n            target = cache.write(_code);\n        }\n\n        response = execute(target, _data);\n    }\n\n    function execute(address _target, bytes memory _data) public payable auth note returns (bytes32 response) {\n        require(_target != address(0x0), \"Target cant be 0x address\");\n\n        // call contract in current context\n        assembly {\n            let succeeded := delegatecall(sub(gas(), 5000), _target, add(_data, 0x20), mload(_data), 0, 32)\n            response := mload(0) // load delegatecall output\n            switch iszero(succeeded)\n                case 1 {\n                    // throw if delegatecall failed\n                    revert(0, 0)\n                }\n        }\n    }\n\n    //set new cache\n    function setCache(address _cacheAddr) public payable auth note returns (bool) {\n        require(_cacheAddr != address(0x0)); // invalid cache address\n        cache = DSProxyCache(_cacheAddr); // overwrite cache\n        return true;\n    }\n}\n\n// DSProxyFactory\n// This factory deploys new proxy instances through build()\n// Deployed proxy addresses are logged\ncontract DSProxyFactory {\n    event Created(address indexed sender, address indexed owner, address proxy, address cache);\n    mapping(address => bool) public isProxy;\n    DSProxyCache public cache = new DSProxyCache();\n\n    // deploys a new proxy instance\n    // sets owner of proxy to caller\n    function build() public returns (DSProxy proxy) {\n        proxy = build(msg.sender);\n    }\n\n    // deploys a new proxy instance\n    // sets custom owner of proxy\n    function build(address owner) public returns (DSProxy proxy) {\n        proxy = new DSProxy(address(cache));\n        emit Created(msg.sender, owner, address(proxy), address(cache));\n        proxy.setOwner(owner);\n        isProxy[address(proxy)] = true;\n    }\n}\n\n// DSProxyCache\n// This global cache stores addresses of contracts previously deployed\n// by a proxy. This saves gas from repeat deployment of the same\n// contracts and eliminates blockchain bloat.\n\n// By default, all proxies deployed from the same factory store\n// contracts in the same cache. The cache a proxy instance uses can be\n// changed.  The cache uses the sha3 hash of a contract's bytecode to\n// lookup the address\ncontract DSProxyCache {\n    mapping(bytes32 => address) cache;\n\n    function read(bytes memory _code) public view returns (address) {\n        bytes32 hash = keccak256(_code);\n        return cache[hash];\n    }\n\n    function write(bytes memory _code) public returns (address target) {\n        assembly {\n            target := create(0, add(_code, 0x20), mload(_code))\n            switch iszero(extcodesize(target))\n                case 1 {\n                    // throw if contract failed to deploy\n                    revert(0, 0)\n                }\n        }\n        bytes32 hash = keccak256(_code);\n        cache[hash] = target;\n    }\n}\n",
  "sourcePath": "/home/kamto/code/protocol/packages/core/contracts/common/implementation/DSProxyFactory.sol",
  "compiler": {
    "name": "solc",
    "version": "0.8.4+commit.c7e474f2.Emscripten.clang"
  },
  "schemaVersion": "3.3.4",
  "updatedAt": "2021-05-07T15:46:50.057Z",
  "devdoc": {
    "kind": "dev",
    "methods": {},
    "version": 1
  },
  "userdoc": {
    "kind": "user",
    "methods": {},
    "version": 1
  }
}