{
  "contractName": "ExpiringMultiParty",
  "abi": [
    {
      "inputs": [
        {
          "components": [
            {
              "internalType": "uint256",
              "name": "expirationTimestamp",
              "type": "uint256"
            },
            {
              "internalType": "uint256",
              "name": "withdrawalLiveness",
              "type": "uint256"
            },
            {
              "internalType": "address",
              "name": "collateralAddress",
              "type": "address"
            },
            {
              "internalType": "address",
              "name": "tokenAddress",
              "type": "address"
            },
            {
              "internalType": "address",
              "name": "finderAddress",
              "type": "address"
            },
            {
              "internalType": "address",
              "name": "timerAddress",
              "type": "address"
            },
            {
              "internalType": "address",
              "name": "financialProductLibraryAddress",
              "type": "address"
            },
            {
              "internalType": "bytes32",
              "name": "priceFeedIdentifier",
              "type": "bytes32"
            },
            {
              "components": [
                {
                  "internalType": "uint256",
                  "name": "rawValue",
                  "type": "uint256"
                }
              ],
              "internalType": "struct FixedPoint.Unsigned",
              "name": "minSponsorTokens",
              "type": "tuple"
            },
            {
              "internalType": "uint256",
              "name": "liquidationLiveness",
              "type": "uint256"
            },
            {
              "components": [
                {
                  "internalType": "uint256",
                  "name": "rawValue",
                  "type": "uint256"
                }
              ],
              "internalType": "struct FixedPoint.Unsigned",
              "name": "collateralRequirement",
              "type": "tuple"
            },
            {
              "components": [
                {
                  "internalType": "uint256",
                  "name": "rawValue",
                  "type": "uint256"
                }
              ],
              "internalType": "struct FixedPoint.Unsigned",
              "name": "disputeBondPercentage",
              "type": "tuple"
            },
            {
              "components": [
                {
                  "internalType": "uint256",
                  "name": "rawValue",
                  "type": "uint256"
                }
              ],
              "internalType": "struct FixedPoint.Unsigned",
              "name": "sponsorDisputeRewardPercentage",
              "type": "tuple"
            },
            {
              "components": [
                {
                  "internalType": "uint256",
                  "name": "rawValue",
                  "type": "uint256"
                }
              ],
              "internalType": "struct FixedPoint.Unsigned",
              "name": "disputerDisputeRewardPercentage",
              "type": "tuple"
            }
          ],
          "internalType": "struct Liquidatable.ConstructorParams",
          "name": "params",
          "type": "tuple"
        }
      ],
      "stateMutability": "nonpayable",
      "type": "constructor"
    },
    {
      "anonymous": false,
      "inputs": [
        {
          "indexed": true,
          "internalType": "address",
          "name": "caller",
          "type": "address"
        }
      ],
      "name": "ContractExpired",
      "type": "event"
    },
    {
      "anonymous": false,
      "inputs": [
        {
          "indexed": true,
          "internalType": "address",
          "name": "sponsor",
          "type": "address"
        },
        {
          "indexed": true,
          "internalType": "uint256",
          "name": "collateralAmount",
          "type": "uint256"
        }
      ],
      "name": "Deposit",
      "type": "event"
    },
    {
      "anonymous": false,
      "inputs": [
        {
          "indexed": true,
          "internalType": "address",
          "name": "caller",
          "type": "address"
        },
        {
          "indexed": true,
          "internalType": "address",
          "name": "sponsor",
          "type": "address"
        },
        {
          "indexed": true,
          "internalType": "address",
          "name": "liquidator",
          "type": "address"
        },
        {
          "indexed": false,
          "internalType": "address",
          "name": "disputer",
          "type": "address"
        },
        {
          "indexed": false,
          "internalType": "uint256",
          "name": "liquidationId",
          "type": "uint256"
        },
        {
          "indexed": false,
          "internalType": "bool",
          "name": "disputeSucceeded",
          "type": "bool"
        }
      ],
      "name": "DisputeSettled",
      "type": "event"
    },
    {
      "anonymous": false,
      "inputs": [
        {
          "indexed": true,
          "internalType": "address",
          "name": "caller",
          "type": "address"
        },
        {
          "indexed": false,
          "internalType": "uint256",
          "name": "originalExpirationTimestamp",
          "type": "uint256"
        },
        {
          "indexed": false,
          "internalType": "uint256",
          "name": "shutdownTimestamp",
          "type": "uint256"
        }
      ],
      "name": "EmergencyShutdown",
      "type": "event"
    },
    {
      "anonymous": false,
      "inputs": [
        {
          "indexed": true,
          "internalType": "address",
          "name": "sponsor",
          "type": "address"
        }
      ],
      "name": "EndedSponsorPosition",
      "type": "event"
    },
    {
      "anonymous": false,
      "inputs": [
        {
          "indexed": true,
          "internalType": "uint256",
          "name": "amount",
          "type": "uint256"
        }
      ],
      "name": "FinalFeesPaid",
      "type": "event"
    },
    {
      "anonymous": false,
      "inputs": [
        {
          "indexed": true,
          "internalType": "address",
          "name": "sponsor",
          "type": "address"
        },
        {
          "indexed": true,
          "internalType": "address",
          "name": "liquidator",
          "type": "address"
        },
        {
          "indexed": true,
          "internalType": "uint256",
          "name": "liquidationId",
          "type": "uint256"
        },
        {
          "indexed": false,
          "internalType": "uint256",
          "name": "tokensOutstanding",
          "type": "uint256"
        },
        {
          "indexed": false,
          "internalType": "uint256",
          "name": "lockedCollateral",
          "type": "uint256"
        },
        {
          "indexed": false,
          "internalType": "uint256",
          "name": "liquidatedCollateral",
          "type": "uint256"
        },
        {
          "indexed": false,
          "internalType": "uint256",
          "name": "liquidationTime",
          "type": "uint256"
        }
      ],
      "name": "LiquidationCreated",
      "type": "event"
    },
    {
      "anonymous": false,
      "inputs": [
        {
          "indexed": true,
          "internalType": "address",
          "name": "sponsor",
          "type": "address"
        },
        {
          "indexed": true,
          "internalType": "address",
          "name": "liquidator",
          "type": "address"
        },
        {
          "indexed": true,
          "internalType": "address",
          "name": "disputer",
          "type": "address"
        },
        {
          "indexed": false,
          "internalType": "uint256",
          "name": "liquidationId",
          "type": "uint256"
        },
        {
          "indexed": false,
          "internalType": "uint256",
          "name": "disputeBondAmount",
          "type": "uint256"
        }
      ],
      "name": "LiquidationDisputed",
      "type": "event"
    },
    {
      "anonymous": false,
      "inputs": [
        {
          "indexed": true,
          "internalType": "address",
          "name": "caller",
          "type": "address"
        },
        {
          "indexed": false,
          "internalType": "uint256",
          "name": "paidToLiquidator",
          "type": "uint256"
        },
        {
          "indexed": false,
          "internalType": "uint256",
          "name": "paidToDisputer",
          "type": "uint256"
        },
        {
          "indexed": false,
          "internalType": "uint256",
          "name": "paidToSponsor",
          "type": "uint256"
        },
        {
          "indexed": true,
          "internalType": "enum Liquidatable.Status",
          "name": "liquidationStatus",
          "type": "uint8"
        },
        {
          "indexed": false,
          "internalType": "uint256",
          "name": "settlementPrice",
          "type": "uint256"
        }
      ],
      "name": "LiquidationWithdrawn",
      "type": "event"
    },
    {
      "anonymous": false,
      "inputs": [
        {
          "indexed": true,
          "internalType": "address",
          "name": "sponsor",
          "type": "address"
        }
      ],
      "name": "NewSponsor",
      "type": "event"
    },
    {
      "anonymous": false,
      "inputs": [
        {
          "indexed": true,
          "internalType": "address",
          "name": "sponsor",
          "type": "address"
        },
        {
          "indexed": true,
          "internalType": "uint256",
          "name": "collateralAmount",
          "type": "uint256"
        },
        {
          "indexed": true,
          "internalType": "uint256",
          "name": "tokenAmount",
          "type": "uint256"
        }
      ],
      "name": "PositionCreated",
      "type": "event"
    },
    {
      "anonymous": false,
      "inputs": [
        {
          "indexed": true,
          "internalType": "address",
          "name": "sponsor",
          "type": "address"
        },
        {
          "indexed": true,
          "internalType": "uint256",
          "name": "collateralAmount",
          "type": "uint256"
        },
        {
          "indexed": true,
          "internalType": "uint256",
          "name": "tokenAmount",
          "type": "uint256"
        }
      ],
      "name": "Redeem",
      "type": "event"
    },
    {
      "anonymous": false,
      "inputs": [
        {
          "indexed": true,
          "internalType": "uint256",
          "name": "regularFee",
          "type": "uint256"
        },
        {
          "indexed": true,
          "internalType": "uint256",
          "name": "lateFee",
          "type": "uint256"
        }
      ],
      "name": "RegularFeesPaid",
      "type": "event"
    },
    {
      "anonymous": false,
      "inputs": [
        {
          "indexed": true,
          "internalType": "address",
          "name": "sponsor",
          "type": "address"
        },
        {
          "indexed": true,
          "internalType": "uint256",
          "name": "numTokensRepaid",
          "type": "uint256"
        },
        {
          "indexed": true,
          "internalType": "uint256",
          "name": "newTokenCount",
          "type": "uint256"
        }
      ],
      "name": "Repay",
      "type": "event"
    },
    {
      "anonymous": false,
      "inputs": [
        {
          "indexed": true,
          "internalType": "address",
          "name": "oldSponsor",
          "type": "address"
        }
      ],
      "name": "RequestTransferPosition",
      "type": "event"
    },
    {
      "anonymous": false,
      "inputs": [
        {
          "indexed": true,
          "internalType": "address",
          "name": "oldSponsor",
          "type": "address"
        }
      ],
      "name": "RequestTransferPositionCanceled",
      "type": "event"
    },
    {
      "anonymous": false,
      "inputs": [
        {
          "indexed": true,
          "internalType": "address",
          "name": "oldSponsor",
          "type": "address"
        },
        {
          "indexed": true,
          "internalType": "address",
          "name": "newSponsor",
          "type": "address"
        }
      ],
      "name": "RequestTransferPositionExecuted",
      "type": "event"
    },
    {
      "anonymous": false,
      "inputs": [
        {
          "indexed": true,
          "internalType": "address",
          "name": "sponsor",
          "type": "address"
        },
        {
          "indexed": true,
          "internalType": "uint256",
          "name": "collateralAmount",
          "type": "uint256"
        }
      ],
      "name": "RequestWithdrawal",
      "type": "event"
    },
    {
      "anonymous": false,
      "inputs": [
        {
          "indexed": true,
          "internalType": "address",
          "name": "sponsor",
          "type": "address"
        },
        {
          "indexed": true,
          "internalType": "uint256",
          "name": "collateralAmount",
          "type": "uint256"
        }
      ],
      "name": "RequestWithdrawalCanceled",
      "type": "event"
    },
    {
      "anonymous": false,
      "inputs": [
        {
          "indexed": true,
          "internalType": "address",
          "name": "sponsor",
          "type": "address"
        },
        {
          "indexed": true,
          "internalType": "uint256",
          "name": "collateralAmount",
          "type": "uint256"
        }
      ],
      "name": "RequestWithdrawalExecuted",
      "type": "event"
    },
    {
      "anonymous": false,
      "inputs": [
        {
          "indexed": true,
          "internalType": "address",
          "name": "caller",
          "type": "address"
        },
        {
          "indexed": true,
          "internalType": "uint256",
          "name": "collateralReturned",
          "type": "uint256"
        },
        {
          "indexed": true,
          "internalType": "uint256",
          "name": "tokensBurned",
          "type": "uint256"
        }
      ],
      "name": "SettleExpiredPosition",
      "type": "event"
    },
    {
      "anonymous": false,
      "inputs": [
        {
          "indexed": true,
          "internalType": "address",
          "name": "sponsor",
          "type": "address"
        },
        {
          "indexed": true,
          "internalType": "uint256",
          "name": "collateralAmount",
          "type": "uint256"
        }
      ],
      "name": "Withdrawal",
      "type": "event"
    },
    {
      "inputs": [
        {
          "internalType": "address",
          "name": "_collateralAddress",
          "type": "address"
        }
      ],
      "name": "_getSyntheticDecimals",
      "outputs": [
        {
          "internalType": "uint8",
          "name": "decimals",
          "type": "uint8"
        }
      ],
      "stateMutability": "view",
      "type": "function"
    },
    {
      "inputs": [],
      "name": "cancelTransferPosition",
      "outputs": [],
      "stateMutability": "nonpayable",
      "type": "function"
    },
    {
      "inputs": [],
      "name": "cancelWithdrawal",
      "outputs": [],
      "stateMutability": "nonpayable",
      "type": "function"
    },
    {
      "inputs": [],
      "name": "collateralCurrency",
      "outputs": [
        {
          "internalType": "contract IERC20",
          "name": "",
          "type": "address"
        }
      ],
      "stateMutability": "view",
      "type": "function"
    },
    {
      "inputs": [],
      "name": "collateralRequirement",
      "outputs": [
        {
          "internalType": "uint256",
          "name": "rawValue",
          "type": "uint256"
        }
      ],
      "stateMutability": "view",
      "type": "function"
    },
    {
      "inputs": [],
      "name": "contractState",
      "outputs": [
        {
          "internalType": "enum PricelessPositionManager.ContractState",
          "name": "",
          "type": "uint8"
        }
      ],
      "stateMutability": "view",
      "type": "function"
    },
    {
      "inputs": [
        {
          "components": [
            {
              "internalType": "uint256",
              "name": "rawValue",
              "type": "uint256"
            }
          ],
          "internalType": "struct FixedPoint.Unsigned",
          "name": "collateralAmount",
          "type": "tuple"
        },
        {
          "components": [
            {
              "internalType": "uint256",
              "name": "rawValue",
              "type": "uint256"
            }
          ],
          "internalType": "struct FixedPoint.Unsigned",
          "name": "numTokens",
          "type": "tuple"
        }
      ],
      "name": "create",
      "outputs": [],
      "stateMutability": "nonpayable",
      "type": "function"
    },
    {
      "inputs": [
        {
          "internalType": "address",
          "name": "sponsor",
          "type": "address"
        },
        {
          "components": [
            {
              "internalType": "uint256",
              "name": "rawValue",
              "type": "uint256"
            }
          ],
          "internalType": "struct FixedPoint.Unsigned",
          "name": "minCollateralPerToken",
          "type": "tuple"
        },
        {
          "components": [
            {
              "internalType": "uint256",
              "name": "rawValue",
              "type": "uint256"
            }
          ],
          "internalType": "struct FixedPoint.Unsigned",
          "name": "maxCollateralPerToken",
          "type": "tuple"
        },
        {
          "components": [
            {
              "internalType": "uint256",
              "name": "rawValue",
              "type": "uint256"
            }
          ],
          "internalType": "struct FixedPoint.Unsigned",
          "name": "maxTokensToLiquidate",
          "type": "tuple"
        },
        {
          "internalType": "uint256",
          "name": "deadline",
          "type": "uint256"
        }
      ],
      "name": "createLiquidation",
      "outputs": [
        {
          "internalType": "uint256",
          "name": "liquidationId",
          "type": "uint256"
        },
        {
          "components": [
            {
              "internalType": "uint256",
              "name": "rawValue",
              "type": "uint256"
            }
          ],
          "internalType": "struct FixedPoint.Unsigned",
          "name": "tokensLiquidated",
          "type": "tuple"
        },
        {
          "components": [
            {
              "internalType": "uint256",
              "name": "rawValue",
              "type": "uint256"
            }
          ],
          "internalType": "struct FixedPoint.Unsigned",
          "name": "finalFeeBond",
          "type": "tuple"
        }
      ],
      "stateMutability": "nonpayable",
      "type": "function"
    },
    {
      "inputs": [],
      "name": "cumulativeFeeMultiplier",
      "outputs": [
        {
          "internalType": "uint256",
          "name": "rawValue",
          "type": "uint256"
        }
      ],
      "stateMutability": "view",
      "type": "function"
    },
    {
      "inputs": [
        {
          "components": [
            {
              "internalType": "uint256",
              "name": "rawValue",
              "type": "uint256"
            }
          ],
          "internalType": "struct FixedPoint.Unsigned",
          "name": "collateralAmount",
          "type": "tuple"
        }
      ],
      "name": "deposit",
      "outputs": [],
      "stateMutability": "nonpayable",
      "type": "function"
    },
    {
      "inputs": [
        {
          "internalType": "address",
          "name": "sponsor",
          "type": "address"
        },
        {
          "components": [
            {
              "internalType": "uint256",
              "name": "rawValue",
              "type": "uint256"
            }
          ],
          "internalType": "struct FixedPoint.Unsigned",
          "name": "collateralAmount",
          "type": "tuple"
        }
      ],
      "name": "depositTo",
      "outputs": [],
      "stateMutability": "nonpayable",
      "type": "function"
    },
    {
      "inputs": [
        {
          "internalType": "uint256",
          "name": "liquidationId",
          "type": "uint256"
        },
        {
          "internalType": "address",
          "name": "sponsor",
          "type": "address"
        }
      ],
      "name": "dispute",
      "outputs": [
        {
          "components": [
            {
              "internalType": "uint256",
              "name": "rawValue",
              "type": "uint256"
            }
          ],
          "internalType": "struct FixedPoint.Unsigned",
          "name": "totalPaid",
          "type": "tuple"
        }
      ],
      "stateMutability": "nonpayable",
      "type": "function"
    },
    {
      "inputs": [],
      "name": "disputeBondPercentage",
      "outputs": [
        {
          "internalType": "uint256",
          "name": "rawValue",
          "type": "uint256"
        }
      ],
      "stateMutability": "view",
      "type": "function"
    },
    {
      "inputs": [],
      "name": "disputerDisputeRewardPercentage",
      "outputs": [
        {
          "internalType": "uint256",
          "name": "rawValue",
          "type": "uint256"
        }
      ],
      "stateMutability": "view",
      "type": "function"
    },
    {
      "inputs": [],
      "name": "emergencyShutdown",
      "outputs": [],
      "stateMutability": "nonpayable",
      "type": "function"
    },
    {
      "inputs": [],
      "name": "expirationTimestamp",
      "outputs": [
        {
          "internalType": "uint256",
          "name": "",
          "type": "uint256"
        }
      ],
      "stateMutability": "view",
      "type": "function"
    },
    {
      "inputs": [],
      "name": "expire",
      "outputs": [],
      "stateMutability": "nonpayable",
      "type": "function"
    },
    {
      "inputs": [],
      "name": "expiryPrice",
      "outputs": [
        {
          "internalType": "uint256",
          "name": "rawValue",
          "type": "uint256"
        }
      ],
      "stateMutability": "view",
      "type": "function"
    },
    {
      "inputs": [],
      "name": "financialProductLibrary",
      "outputs": [
        {
          "internalType": "contract FinancialProductLibrary",
          "name": "",
          "type": "address"
        }
      ],
      "stateMutability": "view",
      "type": "function"
    },
    {
      "inputs": [],
      "name": "finder",
      "outputs": [
        {
          "internalType": "contract FinderInterface",
          "name": "",
          "type": "address"
        }
      ],
      "stateMutability": "view",
      "type": "function"
    },
    {
      "inputs": [
        {
          "internalType": "address",
          "name": "sponsor",
          "type": "address"
        }
      ],
      "name": "getCollateral",
      "outputs": [
        {
          "components": [
            {
              "internalType": "uint256",
              "name": "rawValue",
              "type": "uint256"
            }
          ],
          "internalType": "struct FixedPoint.Unsigned",
          "name": "",
          "type": "tuple"
        }
      ],
      "stateMutability": "view",
      "type": "function"
    },
    {
      "inputs": [],
      "name": "getCurrentTime",
      "outputs": [
        {
          "internalType": "uint256",
          "name": "",
          "type": "uint256"
        }
      ],
      "stateMutability": "view",
      "type": "function"
    },
    {
      "inputs": [
        {
          "internalType": "address",
          "name": "sponsor",
          "type": "address"
        }
      ],
      "name": "getLiquidations",
      "outputs": [
        {
          "components": [
            {
              "internalType": "address",
              "name": "sponsor",
              "type": "address"
            },
            {
              "internalType": "address",
              "name": "liquidator",
              "type": "address"
            },
            {
              "internalType": "enum Liquidatable.Status",
              "name": "state",
              "type": "uint8"
            },
            {
              "internalType": "uint256",
              "name": "liquidationTime",
              "type": "uint256"
            },
            {
              "components": [
                {
                  "internalType": "uint256",
                  "name": "rawValue",
                  "type": "uint256"
                }
              ],
              "internalType": "struct FixedPoint.Unsigned",
              "name": "tokensOutstanding",
              "type": "tuple"
            },
            {
              "components": [
                {
                  "internalType": "uint256",
                  "name": "rawValue",
                  "type": "uint256"
                }
              ],
              "internalType": "struct FixedPoint.Unsigned",
              "name": "lockedCollateral",
              "type": "tuple"
            },
            {
              "components": [
                {
                  "internalType": "uint256",
                  "name": "rawValue",
                  "type": "uint256"
                }
              ],
              "internalType": "struct FixedPoint.Unsigned",
              "name": "liquidatedCollateral",
              "type": "tuple"
            },
            {
              "components": [
                {
                  "internalType": "uint256",
                  "name": "rawValue",
                  "type": "uint256"
                }
              ],
              "internalType": "struct FixedPoint.Unsigned",
              "name": "rawUnitCollateral",
              "type": "tuple"
            },
            {
              "internalType": "address",
              "name": "disputer",
              "type": "address"
            },
            {
              "components": [
                {
                  "internalType": "uint256",
                  "name": "rawValue",
                  "type": "uint256"
                }
              ],
              "internalType": "struct FixedPoint.Unsigned",
              "name": "settlementPrice",
              "type": "tuple"
            },
            {
              "components": [
                {
                  "internalType": "uint256",
                  "name": "rawValue",
                  "type": "uint256"
                }
              ],
              "internalType": "struct FixedPoint.Unsigned",
              "name": "finalFee",
              "type": "tuple"
            }
          ],
          "internalType": "struct Liquidatable.LiquidationData[]",
          "name": "liquidationData",
          "type": "tuple[]"
        }
      ],
      "stateMutability": "view",
      "type": "function"
    },
    {
      "inputs": [
        {
          "internalType": "uint256",
          "name": "time",
          "type": "uint256"
        }
      ],
      "name": "getOutstandingRegularFees",
      "outputs": [
        {
          "components": [
            {
              "internalType": "uint256",
              "name": "rawValue",
              "type": "uint256"
            }
          ],
          "internalType": "struct FixedPoint.Unsigned",
          "name": "regularFee",
          "type": "tuple"
        },
        {
          "components": [
            {
              "internalType": "uint256",
              "name": "rawValue",
              "type": "uint256"
            }
          ],
          "internalType": "struct FixedPoint.Unsigned",
          "name": "latePenalty",
          "type": "tuple"
        },
        {
          "components": [
            {
              "internalType": "uint256",
              "name": "rawValue",
              "type": "uint256"
            }
          ],
          "internalType": "struct FixedPoint.Unsigned",
          "name": "totalPaid",
          "type": "tuple"
        }
      ],
      "stateMutability": "view",
      "type": "function"
    },
    {
      "inputs": [],
      "name": "gulp",
      "outputs": [],
      "stateMutability": "nonpayable",
      "type": "function"
    },
    {
      "inputs": [],
      "name": "liquidationLiveness",
      "outputs": [
        {
          "internalType": "uint256",
          "name": "",
          "type": "uint256"
        }
      ],
      "stateMutability": "view",
      "type": "function"
    },
    {
      "inputs": [
        {
          "internalType": "address",
          "name": "",
          "type": "address"
        },
        {
          "internalType": "uint256",
          "name": "",
          "type": "uint256"
        }
      ],
      "name": "liquidations",
      "outputs": [
        {
          "internalType": "address",
          "name": "sponsor",
          "type": "address"
        },
        {
          "internalType": "address",
          "name": "liquidator",
          "type": "address"
        },
        {
          "internalType": "enum Liquidatable.Status",
          "name": "state",
          "type": "uint8"
        },
        {
          "internalType": "uint256",
          "name": "liquidationTime",
          "type": "uint256"
        },
        {
          "components": [
            {
              "internalType": "uint256",
              "name": "rawValue",
              "type": "uint256"
            }
          ],
          "internalType": "struct FixedPoint.Unsigned",
          "name": "tokensOutstanding",
          "type": "tuple"
        },
        {
          "components": [
            {
              "internalType": "uint256",
              "name": "rawValue",
              "type": "uint256"
            }
          ],
          "internalType": "struct FixedPoint.Unsigned",
          "name": "lockedCollateral",
          "type": "tuple"
        },
        {
          "components": [
            {
              "internalType": "uint256",
              "name": "rawValue",
              "type": "uint256"
            }
          ],
          "internalType": "struct FixedPoint.Unsigned",
          "name": "liquidatedCollateral",
          "type": "tuple"
        },
        {
          "components": [
            {
              "internalType": "uint256",
              "name": "rawValue",
              "type": "uint256"
            }
          ],
          "internalType": "struct FixedPoint.Unsigned",
          "name": "rawUnitCollateral",
          "type": "tuple"
        },
        {
          "internalType": "address",
          "name": "disputer",
          "type": "address"
        },
        {
          "components": [
            {
              "internalType": "uint256",
              "name": "rawValue",
              "type": "uint256"
            }
          ],
          "internalType": "struct FixedPoint.Unsigned",
          "name": "settlementPrice",
          "type": "tuple"
        },
        {
          "components": [
            {
              "internalType": "uint256",
              "name": "rawValue",
              "type": "uint256"
            }
          ],
          "internalType": "struct FixedPoint.Unsigned",
          "name": "finalFee",
          "type": "tuple"
        }
      ],
      "stateMutability": "view",
      "type": "function"
    },
    {
      "inputs": [],
      "name": "minSponsorTokens",
      "outputs": [
        {
          "internalType": "uint256",
          "name": "rawValue",
          "type": "uint256"
        }
      ],
      "stateMutability": "view",
      "type": "function"
    },
    {
      "inputs": [],
      "name": "payRegularFees",
      "outputs": [
        {
          "components": [
            {
              "internalType": "uint256",
              "name": "rawValue",
              "type": "uint256"
            }
          ],
          "internalType": "struct FixedPoint.Unsigned",
          "name": "",
          "type": "tuple"
        }
      ],
      "stateMutability": "nonpayable",
      "type": "function"
    },
    {
      "inputs": [],
      "name": "pfc",
      "outputs": [
        {
          "components": [
            {
              "internalType": "uint256",
              "name": "rawValue",
              "type": "uint256"
            }
          ],
          "internalType": "struct FixedPoint.Unsigned",
          "name": "",
          "type": "tuple"
        }
      ],
      "stateMutability": "view",
      "type": "function"
    },
    {
      "inputs": [
        {
          "internalType": "address",
          "name": "",
          "type": "address"
        }
      ],
      "name": "positions",
      "outputs": [
        {
          "components": [
            {
              "internalType": "uint256",
              "name": "rawValue",
              "type": "uint256"
            }
          ],
          "internalType": "struct FixedPoint.Unsigned",
          "name": "tokensOutstanding",
          "type": "tuple"
        },
        {
          "internalType": "uint256",
          "name": "withdrawalRequestPassTimestamp",
          "type": "uint256"
        },
        {
          "components": [
            {
              "internalType": "uint256",
              "name": "rawValue",
              "type": "uint256"
            }
          ],
          "internalType": "struct FixedPoint.Unsigned",
          "name": "withdrawalRequestAmount",
          "type": "tuple"
        },
        {
          "components": [
            {
              "internalType": "uint256",
              "name": "rawValue",
              "type": "uint256"
            }
          ],
          "internalType": "struct FixedPoint.Unsigned",
          "name": "rawCollateral",
          "type": "tuple"
        },
        {
          "internalType": "uint256",
          "name": "transferPositionRequestPassTimestamp",
          "type": "uint256"
        }
      ],
      "stateMutability": "view",
      "type": "function"
    },
    {
      "inputs": [],
      "name": "priceIdentifier",
      "outputs": [
        {
          "internalType": "bytes32",
          "name": "",
          "type": "bytes32"
        }
      ],
      "stateMutability": "view",
      "type": "function"
    },
    {
      "inputs": [],
      "name": "rawLiquidationCollateral",
      "outputs": [
        {
          "internalType": "uint256",
          "name": "rawValue",
          "type": "uint256"
        }
      ],
      "stateMutability": "view",
      "type": "function"
    },
    {
      "inputs": [],
      "name": "rawTotalPositionCollateral",
      "outputs": [
        {
          "internalType": "uint256",
          "name": "rawValue",
          "type": "uint256"
        }
      ],
      "stateMutability": "view",
      "type": "function"
    },
    {
      "inputs": [
        {
          "components": [
            {
              "internalType": "uint256",
              "name": "rawValue",
              "type": "uint256"
            }
          ],
          "internalType": "struct FixedPoint.Unsigned",
          "name": "numTokens",
          "type": "tuple"
        }
      ],
      "name": "redeem",
      "outputs": [
        {
          "components": [
            {
              "internalType": "uint256",
              "name": "rawValue",
              "type": "uint256"
            }
          ],
          "internalType": "struct FixedPoint.Unsigned",
          "name": "amountWithdrawn",
          "type": "tuple"
        }
      ],
      "stateMutability": "nonpayable",
      "type": "function"
    },
    {
      "inputs": [],
      "name": "remargin",
      "outputs": [],
      "stateMutability": "nonpayable",
      "type": "function"
    },
    {
      "inputs": [
        {
          "components": [
            {
              "internalType": "uint256",
              "name": "rawValue",
              "type": "uint256"
            }
          ],
          "internalType": "struct FixedPoint.Unsigned",
          "name": "numTokens",
          "type": "tuple"
        }
      ],
      "name": "repay",
      "outputs": [],
      "stateMutability": "nonpayable",
      "type": "function"
    },
    {
      "inputs": [],
      "name": "requestTransferPosition",
      "outputs": [],
      "stateMutability": "nonpayable",
      "type": "function"
    },
    {
      "inputs": [
        {
          "components": [
            {
              "internalType": "uint256",
              "name": "rawValue",
              "type": "uint256"
            }
          ],
          "internalType": "struct FixedPoint.Unsigned",
          "name": "collateralAmount",
          "type": "tuple"
        }
      ],
      "name": "requestWithdrawal",
      "outputs": [],
      "stateMutability": "nonpayable",
      "type": "function"
    },
    {
      "inputs": [
        {
          "internalType": "uint256",
          "name": "time",
          "type": "uint256"
        }
      ],
      "name": "setCurrentTime",
      "outputs": [],
      "stateMutability": "nonpayable",
      "type": "function"
    },
    {
      "inputs": [],
      "name": "settleExpired",
      "outputs": [
        {
          "components": [
            {
              "internalType": "uint256",
              "name": "rawValue",
              "type": "uint256"
            }
          ],
          "internalType": "struct FixedPoint.Unsigned",
          "name": "amountWithdrawn",
          "type": "tuple"
        }
      ],
      "stateMutability": "nonpayable",
      "type": "function"
    },
    {
      "inputs": [],
      "name": "sponsorDisputeRewardPercentage",
      "outputs": [
        {
          "internalType": "uint256",
          "name": "rawValue",
          "type": "uint256"
        }
      ],
      "stateMutability": "view",
      "type": "function"
    },
    {
      "inputs": [],
      "name": "timerAddress",
      "outputs": [
        {
          "internalType": "address",
          "name": "",
          "type": "address"
        }
      ],
      "stateMutability": "view",
      "type": "function"
    },
    {
      "inputs": [],
      "name": "tokenCurrency",
      "outputs": [
        {
          "internalType": "contract ExpandedIERC20",
          "name": "",
          "type": "address"
        }
      ],
      "stateMutability": "view",
      "type": "function"
    },
    {
      "inputs": [],
      "name": "totalPositionCollateral",
      "outputs": [
        {
          "components": [
            {
              "internalType": "uint256",
              "name": "rawValue",
              "type": "uint256"
            }
          ],
          "internalType": "struct FixedPoint.Unsigned",
          "name": "",
          "type": "tuple"
        }
      ],
      "stateMutability": "view",
      "type": "function"
    },
    {
      "inputs": [],
      "name": "totalTokensOutstanding",
      "outputs": [
        {
          "internalType": "uint256",
          "name": "rawValue",
          "type": "uint256"
        }
      ],
      "stateMutability": "view",
      "type": "function"
    },
    {
      "inputs": [
        {
          "internalType": "address",
          "name": "newSponsorAddress",
          "type": "address"
        }
      ],
      "name": "transferPositionPassedRequest",
      "outputs": [],
      "stateMutability": "nonpayable",
      "type": "function"
    },
    {
      "inputs": [
        {
          "components": [
            {
              "internalType": "uint256",
              "name": "rawValue",
              "type": "uint256"
            }
          ],
          "internalType": "struct FixedPoint.Unsigned",
          "name": "price",
          "type": "tuple"
        }
      ],
      "name": "transformCollateralRequirement",
      "outputs": [
        {
          "components": [
            {
              "internalType": "uint256",
              "name": "rawValue",
              "type": "uint256"
            }
          ],
          "internalType": "struct FixedPoint.Unsigned",
          "name": "",
          "type": "tuple"
        }
      ],
      "stateMutability": "view",
      "type": "function"
    },
    {
      "inputs": [
        {
          "components": [
            {
              "internalType": "uint256",
              "name": "rawValue",
              "type": "uint256"
            }
          ],
          "internalType": "struct FixedPoint.Unsigned",
          "name": "price",
          "type": "tuple"
        },
        {
          "internalType": "uint256",
          "name": "requestTime",
          "type": "uint256"
        }
      ],
      "name": "transformPrice",
      "outputs": [
        {
          "components": [
            {
              "internalType": "uint256",
              "name": "rawValue",
              "type": "uint256"
            }
          ],
          "internalType": "struct FixedPoint.Unsigned",
          "name": "",
          "type": "tuple"
        }
      ],
      "stateMutability": "view",
      "type": "function"
    },
    {
      "inputs": [
        {
          "internalType": "uint256",
          "name": "requestTime",
          "type": "uint256"
        }
      ],
      "name": "transformPriceIdentifier",
      "outputs": [
        {
          "internalType": "bytes32",
          "name": "",
          "type": "bytes32"
        }
      ],
      "stateMutability": "view",
      "type": "function"
    },
    {
      "inputs": [
        {
          "components": [
            {
              "internalType": "uint256",
              "name": "rawValue",
              "type": "uint256"
            }
          ],
          "internalType": "struct FixedPoint.Unsigned",
          "name": "collateralAmount",
          "type": "tuple"
        }
      ],
      "name": "withdraw",
      "outputs": [
        {
          "components": [
            {
              "internalType": "uint256",
              "name": "rawValue",
              "type": "uint256"
            }
          ],
          "internalType": "struct FixedPoint.Unsigned",
          "name": "amountWithdrawn",
          "type": "tuple"
        }
      ],
      "stateMutability": "nonpayable",
      "type": "function"
    },
    {
      "inputs": [
        {
          "internalType": "uint256",
          "name": "liquidationId",
          "type": "uint256"
        },
        {
          "internalType": "address",
          "name": "sponsor",
          "type": "address"
        }
      ],
      "name": "withdrawLiquidation",
      "outputs": [
        {
          "components": [
            {
              "components": [
                {
                  "internalType": "uint256",
                  "name": "rawValue",
                  "type": "uint256"
                }
              ],
              "internalType": "struct FixedPoint.Unsigned",
              "name": "payToSponsor",
              "type": "tuple"
            },
            {
              "components": [
                {
                  "internalType": "uint256",
                  "name": "rawValue",
                  "type": "uint256"
                }
              ],
              "internalType": "struct FixedPoint.Unsigned",
              "name": "payToLiquidator",
              "type": "tuple"
            },
            {
              "components": [
                {
                  "internalType": "uint256",
                  "name": "rawValue",
                  "type": "uint256"
                }
              ],
              "internalType": "struct FixedPoint.Unsigned",
              "name": "payToDisputer",
              "type": "tuple"
            },
            {
              "components": [
                {
                  "internalType": "uint256",
                  "name": "rawValue",
                  "type": "uint256"
                }
              ],
              "internalType": "struct FixedPoint.Unsigned",
              "name": "paidToSponsor",
              "type": "tuple"
            },
            {
              "components": [
                {
                  "internalType": "uint256",
                  "name": "rawValue",
                  "type": "uint256"
                }
              ],
              "internalType": "struct FixedPoint.Unsigned",
              "name": "paidToLiquidator",
              "type": "tuple"
            },
            {
              "components": [
                {
                  "internalType": "uint256",
                  "name": "rawValue",
                  "type": "uint256"
                }
              ],
              "internalType": "struct FixedPoint.Unsigned",
              "name": "paidToDisputer",
              "type": "tuple"
            }
          ],
          "internalType": "struct Liquidatable.RewardsData",
          "name": "",
          "type": "tuple"
        }
      ],
      "stateMutability": "nonpayable",
      "type": "function"
    },
    {
      "inputs": [],
      "name": "withdrawPassedRequest",
      "outputs": [
        {
          "components": [
            {
              "internalType": "uint256",
              "name": "rawValue",
              "type": "uint256"
            }
          ],
          "internalType": "struct FixedPoint.Unsigned",
          "name": "amountWithdrawn",
          "type": "tuple"
        }
      ],
      "stateMutability": "nonpayable",
      "type": "function"
    },
    {
      "inputs": [],
      "name": "withdrawalLiveness",
      "outputs": [
        {
          "internalType": "uint256",
          "name": "",
          "type": "uint256"
        }
      ],
      "stateMutability": "view",
      "type": "function"
    }
  ],
  "bytecode": "0x60806040523480156200001157600080fd5b5060405162005a2138038062005a2183398101604081905262000034916200062c565b8051602082015160408301516060840151608085015160e086015161010087015160a088015160c0890151600080546001600160a81b0319166001600160a01b0380851691909117600160a01b1790915560018054828a166001600160a01b031991821617909155600280549288169290911691909117905589989796959493929190868583620000c4620002ff565b600381905550620000e16001620003a460201b62002e3d1760201c565b5160045550620000f3915050620003e8565b620001066000805460ff60a01b19169055565b62000110620002ff565b89116200011c57600080fd5b6200012662000448565b6001600160a01b03166390978d1b856040518263ffffffff1660e01b81526004016200015491815260200190565b60206040518083038186803b1580156200016d57600080fd5b505afa15801562000182573d6000803e3d6000fd5b505050506040513d601f19601f82011682018060405250810190620001a891906200060a565b620001b257600080fd5b600b899055600c889055600980546001600160a01b038089166001600160a01b0319928316179092558451600d55600a869055600f8054928416929091169190911790556200020f6000805460ff60a01b1916600160a01b179055565b50505050505050505062000228620003e860201b60201c565b6200023b6000805460ff60a01b19169055565b6200025b6001826101400151620004e860201b62002e721790919060201c565b6200026557600080fd5b620002a360016200028f836101a001518461018001516200050160201b62002e891790919060201c565b6200054660201b62002ebc1790919060201c565b620002ad57600080fd5b6101208101516012556101408101515160135561016081015151601455610180810151516015556101a081015151601655620002f76000805460ff60a01b1916600160a01b179055565b5050620007df565b600080546001600160a01b0316156200039f5760008054906101000a90046001600160a01b03166001600160a01b03166329cb924d6040518163ffffffff1660e01b815260040160206040518083038186803b1580156200035f57600080fd5b505afa15801562000374573d6000803e3d6000fd5b505050506040513d601f19601f820116820180604052508101906200039a91906200073b565b905090565b504290565b6040805160208101909152600081526040518060200160405280620003e0670de0b6b3a7640000856200055f60201b62002ed31790919060201c565b905292915050565b600054600160a01b900460ff16620004465760405162461bcd60e51b815260206004820152601f60248201527f5265656e7472616e637947756172643a207265656e7472616e742063616c6c00604482015260640160405180910390fd5b565b6002546040516302abf57960e61b81527f4964656e74696669657257686974656c6973740000000000000000000000000060048201526000916001600160a01b03169063aafd5e409060240160206040518083038186803b158015620004ad57600080fd5b505afa158015620004c2573d6000803e3d6000fd5b505050506040513d601f19601f820116820180604052508101906200039a9190620005ed565b6000620004f582620003a4565b51835111905092915050565b60408051602081019091526000815260405180602001604052806200053d846000015186600001516200057460201b62002edf1790919060201c565b90529392505050565b60006200055382620003a4565b51835110905092915050565b60006200056d8284620007a7565b9392505050565b60006200056d82846200078c565b80516001600160a01b03811681146200059a57600080fd5b919050565b600060208284031215620005b1578081fd5b604051602081016001600160401b0381118282101715620005e057634e487b7160e01b83526041600452602483fd5b6040529151825250919050565b600060208284031215620005ff578081fd5b6200056d8262000582565b6000602082840312156200061c578081fd5b815180151581146200056d578182fd5b60006101c082840312156200063f578081fd5b6200064962000754565b8251815260208301516020820152620006656040840162000582565b6040820152620006786060840162000582565b60608201526200068b6080840162000582565b60808201526200069e60a0840162000582565b60a0820152620006b160c0840162000582565b60c082015260e083015160e0820152610100620006d1858286016200059f565b908201526101208381015190820152610140620006f1858286016200059f565b9082015261016062000706858583016200059f565b908201526101806200071b858583016200059f565b908201526101a062000730858583016200059f565b908201529392505050565b6000602082840312156200074d578081fd5b5051919050565b6040516101c081016001600160401b03811182821017156200078657634e487b7160e01b600052604160045260246000fd5b60405290565b60008219821115620007a257620007a2620007c9565b500190565b6000816000190483118215151615620007c457620007c4620007c9565b500290565b634e487b7160e01b600052601160045260246000fd5b61523280620007ef6000396000f3fe608060405234801561001057600080fd5b50600436106103425760003560e01c80635f1af1ca116101b85780639b56d6c911610104578063b9a3c84c116100a2578063d1e92c111161007c578063d1e92c1114610780578063dd0eef3d14610793578063edfa9a9b1461079d578063fcccedc7146107a757600080fd5b8063b9a3c84c14610752578063bc12163014610765578063bda02e771461077857600080fd5b80639ff4dea8116100de5780639ff4dea81461070e578063a1c4d1e714610717578063a765fbea14610737578063b795f0d41461074a57600080fd5b80639b56d6c9146106c35780639e4efaa0146106d65780639f43ddd21461070557600080fd5b806381a10ae11161017157806392120aec1161014b57806392120aec146106955780639375f0e91461069f57806394909e62146106b257806397523661146106ba57600080fd5b806381a10ae11461066957806385209ee0146106715780638c382eb21461068b57600080fd5b80635f1af1ca1461060b57806362b5f7f51461061e5780636ba2f992146106315780637048594b1461064457806379599f96146106575780637e398c221461065f57600080fd5b806333a46ca21161029257806348e30c3f1161023057806350f498461161020a57806350f498461461055357806355f575101461055d5780635617151c146105e55780635aa266c9146105f857600080fd5b806348e30c3f146104fa5780634ead6e51146105045780634f8c48471461052957600080fd5b806336980f581161026c57806336980f58146104cf5780633cb6ce83146104d75780633ee7a5ce146104df57806343e4771b146104f257600080fd5b806333a46ca21461045a5780633403c2fc14610462578063360598e11461046a57600080fd5b80631c39c38d116102ff57806325ed4dd8116102d957806325ed4dd81461041157806329cb924d1461043f5780632d5436cf146104475780632e154f2e1461045057600080fd5b80631c39c38d146103e357806322611280146103f657806322f8e566146103fe57600080fd5b8063081b314e146103475780630c9229ca146103645780630de15fd91461036e5780630ff49b901461039957806318928a0c146103bb578063197f7848146103d0575b600080fd5b6015546103519081565b6040519081526020015b60405180910390f35b6007546103519081565b600154610381906001600160a01b031681565b6040516001600160a01b03909116815260200161035b565b6103ac6103a7366004614db4565b6107af565b6040519051815260200161035b565b6103ce6103c9366004614c9f565b6107d9565b005b6103ac6103de366004614d37565b610892565b600054610381906001600160a01b031681565b6103ce6108b2565b6103ce61040c366004614dd0565b610925565b61042461041f366004614c3f565b61099b565b6040805193845291516020840152519082015260600161035b565b610351610fa3565b61035160125481565b6014546103519081565b6103ac611046565b6103ce611180565b61047d610478366004614de8565b611238565b60405161035b9190600060c0820190508251518252602083015151602083015260408301515160408301526060830151516060830152608083015151608083015260a08301515160a083015292915050565b6103ce6116fa565b6103ac61178c565b6103ac6104ed366004614d37565b61190a565b6103ac6119cb565b6013546103519081565b610517610512366004614c07565b611a04565b60405160ff909116815260200161035b565b61053c610537366004614cd4565b611a7b565b60405161035b9b9a99989796959493929190614e94565b6011546103519081565b6105b861056b366004614c07565b600660209081526000918252604091829020825180830184528154815260018201548451808501865260028401548152855194850190955260038301548452600490920154909391929085565b6040805195518652602086019490945291519284019290925290516060830152608082015260a00161035b565b6103ce6105f3366004614c07565b611b42565b6103ce610606366004614d37565b611cf2565b6103ac610619366004614d37565b611e66565b61035161062c366004614dd0565b612095565b6103ce61063f366004614d6d565b6120a8565b600954610381906001600160a01b031681565b6103ce612361565b6016546103519081565b6103ac6123d6565b60055461067e9060ff1681565b60405161035b9190615068565b6008546103519081565b600d546103519081565b600f54610381906001600160a01b031681565b6103ce6123f5565b610351600a5481565b6103ac6106d1366004614c07565b612415565b6106e96106e4366004614dd0565b612465565b604080519351845291516020840152519082015260600161035b565b610351600b5481565b610351600c5481565b61072a610725366004614c07565b6125e2565b60405161035b9190614f3b565b6103ac610745366004614de8565b612768565b6103ce6128f3565b600254610381906001600160a01b031681565b6103ce610773366004614d37565b612965565b6103ce612a3b565b6103ce61078e366004614d37565b612a53565b6004546103519081565b600e546103519081565b6103ac612a60565b6040805160208101909152600081526107c6612eeb565b6107d08383612f44565b90505b92915050565b6107e1612ff7565b816107eb8161304f565b6107f361178c565b506107fc612eeb565b61080461309e565b61080f826000612e72565b61081857600080fd5b6000610823846130ad565b905061082f81846130d5565b5082516040516001600160a01b038616907fe1fffcc4923d04b559f4d29a8bfc6cda04eb5b0d3c460751c2402c5c5cc9109c90600090a38251600154610884916001600160a01b0390911690339030906130fd565b5061088d61316e565b505050565b6040805160208101909152600081526108a9612eeb565b6107d382613183565b6108ba612eeb565b6108c261309e565b60006108cd336130ad565b90508060010154600014156108e157600080fd5b600281015460405133907f74d8a3658feb89d1a5c335229bbbfc3bbcfaf492769feb7aa4cd2d92efeaf69190600090a361091a8161324d565b5061092361316e565b565b6000546001600160a01b031661093a57600080fd5b60005460405163117c72b360e11b8152600481018390526001600160a01b03909116906322f8e56690602401600060405180830381600087803b15801561098057600080fd5b505af1158015610994573d6000803e3d6000fd5b5050505050565b60006109b36040518060200160405280600081525090565b6040805160208101909152600081526109ca61178c565b506109d3612ff7565b6109db612eeb565b6109e361309e565b836109ec610fa3565b1115610a365760405162461bcd60e51b81526020600482015260146024820152734d696e656420616674657220646561646c696e6560601b60448201526064015b60405180910390fd5b6000610a41896130ad565b9050610a69610a5536889003880188614d37565b604080516020810190915283548152613267565b9250610a76836000612e72565b610a7f57600080fd5b604080516020810190915260038201548152600090610a9d9061328c565b90506000610aab6000612e3d565b6040805160208101909152600285015490819052835191925011610ae957604080516020810190915260028401548152610ae69083906132b6565b90505b604080516020810190915283548152610b1e82610b1583610b0f368f90038f018f614d37565b906132e0565b90519051101590565b610b6a5760405162461bcd60e51b815260206004820152601e60248201527f4352206973206d6f7265207468616e206d6178206c69712e20707269636500006044820152606401610a2d565b610b8c82610b83838e803603810190610b0f9190614d37565b90519051111590565b610bd85760405162461bcd60e51b815260206004820152601e60248201527f4352206973206c657373207468616e206d696e206c69712e20707269636500006044820152606401610a2d565b50610be161331d565b9350610bf96040518060200160405280600081525090565b604080516020810190915260008152604080516020810190915285548152600090610c259089906133bb565b9050610c3185826132e0565b9250610c3d84826132e0565b604080516020810190915260028801548152909250600090610c5f90836132e0565b9050610c6d8f8a86846133f7565b50610c8490506011610c7f8489612e89565b6134fe565b506001600160a01b038d1660008181526010602090815260409182902080548351610160810185529485523392850192909252909a509190810160018152602001610ccd610fa3565b8152602001898152602001848152602001838152602001610cf6610cf16001612e3d565b61357b565b815260200160006001600160a01b03168152602001610d156000612e3d565b815260209081018990528254600180820185556000948552938290208351600a9092020180546001600160a01b03199081166001600160a01b03938416178255928401519481018054938416959092169485178255604084015193949093926001600160a81b03191617600160a01b836004811115610da457634e487b7160e01b600052602160045260246000fd5b021790555060608201516002820155608082015151600382015560a082015151600482015560c082015151600582015560e08201515160068201556101008201516007820180546001600160a01b0319166001600160a01b0390921691909117905561012082015151600882015561014090910151516009909101556040805160208101909152600d548152600186015415801590610e4d5750610e46610fa3565b8660010154115b8015610e5b57508051885110155b15610e7a57610e74600c54610e6e610fa3565b90612edf565b60018701555b88336001600160a01b03168f6001600160a01b03167f39b4371645b4132767fd76a1aad3108ff95c20d7b687b24d171555f5459a75978b6000015187600001518760000151610ec7610fa3565b60408051948552602085019390935291830152606082015260800160405180910390a48751600954610f08916001600160a01b0390911690339030906130fd565b6009548851604051630852cd8d60e31b81526001600160a01b03909216916342966c6891610f3c9160040190815260200190565b600060405180830381600087803b158015610f5657600080fd5b505af1158015610f6a573d6000803e3d6000fd5b50508851600154610f8a93506001600160a01b03169150339030906130fd565b505050505050610f9861316e565b955095509592505050565b600080546001600160a01b03161561103e5760008054906101000a90046001600160a01b03166001600160a01b03166329cb924d6040518163ffffffff1660e01b815260040160206040518083038186803b15801561100157600080fd5b505afa158015611015573d6000803e3d6000fd5b505050506040513d601f19601f820116820180604052508101906110399190614d1f565b905090565b504290565b90565b60408051602081019091526000815261105d612ff7565b61106561178c565b5061106e612eeb565b61107661309e565b6000611081336130ad565b905080600101546000141580156110a3575061109b610fa3565b816001015411155b6110ac57600080fd5b604080516020808201835260028401548252825190810190925260038301548252906110f5906110db9061328c565b604080516020810190915260028501548152905190511190565b15611118576040805160208101909152600383015481526111159061328c565b90505b61112282826135a5565b925061112d8261324d565b8251600154611149916001600160a01b039091169033906135cd565b825160405133907fc86c3298cb79f486674dca87d9247e88b76146160e7d412cc59b26b14c358a6890600090a3505061104361316e565b611188612ff7565b6111906135fd565b611198612eeb565b6111a061309e565b6111a8613671565b6001600160a01b0316336001600160a01b0316146111c557600080fd5b6005805460ff19166001179055600b546111dd610fa3565b600b8190556111eb90613708565b600b5460405133917fd39eeb7157d9c446579a0893ecf9ecd87d1f466cdb270c6a189cf38ca1e30f489161122791858252602082015260400190565b60405180910390a25061092361316e565b611240614b49565b828261124c82826137f3565b61125461178c565b5061125d612eeb565b61126561309e565b600061127185876138c5565b905061127d86866139c7565b60408051602081019091526006820154815260009061129b9061328c565b6040805160208082018352600886015482528251908101909252600385015482529192506000906112d2908490610b0f90856132e0565b6040805160208101909152600486015481529091506000906112f490856132e0565b6040805160208101909152601654815290915060009061131490846132e0565b6040805160208101909152601554815290915060009061133490856132e0565b604080516020810190915260145481529091506000906113559085906132e0565b604080516020810190915260098a0154815290915060009061137790896132e0565b9050611381614b49565b600360018b0154600160a01b900460ff1660048111156113b157634e487b7160e01b600052602160045260246000fd5b14156114af576113cb826113c58786612e89565b90612e89565b60408201526113e46113dd87896132b6565b8590612e89565b81526113fa856113f489876132b6565b906132b6565b6020820181905261140d90601190613b3b565b6080820152805161142090601190613b3b565b6060820152604081015161143690601190613b3b565b60a0820181905260078b0154905160015461145f926001600160a01b03918216929116906135cd565b6001808b01546080830151519154611487926001600160a01b039182169291909116906135cd565b89546060820151516001546114aa926001600160a01b03918216929116906135cd565b6115aa565b600460018b0154600160a01b900460ff1660048111156114df57634e487b7160e01b600052602160045260246000fd5b141561152f576114f3826113c58886612e89565b6020820181905261150690601190613b3b565b608082018190526001808c0154915190546114aa926001600160a01b03918216929116906135cd565b6001808b0154600160a01b900460ff16600481111561155e57634e487b7160e01b600052602160045260246000fd5b14156115aa5761156e8683612e89565b6020820181905261158190601190613b3b565b608082018190526001808c0154915190546115aa926001600160a01b03918216929116906135cd565b60018a0154600160a01b900460ff1660048111156115d857634e487b7160e01b600052602160045260246000fd5b6080828101515160a084015151606080860151518d516040805195865260208601949094529284015282015233917fb479588a37dc7f6bac1c91587fcfc539cac4949cf26bb536ad9c8d061f00f50d910160405180910390a3601060008f6001600160a01b03166001600160a01b031681526020019081526020016000208f8154811061167557634e487b7160e01b600052603260045260246000fd5b600091825260208220600a9091020180546001600160a01b031990811682556001820180546001600160a81b03191690556002820183905560038201839055600482018390556005820183905560068201839055600782018054909116905560088101829055600901559b505050505050505050506116f261316e565b505092915050565b611702612ff7565b61170a612eeb565b61171261309e565b600061171d336130ad565b9050806004015460001461173057600080fd5b6000611740600c54610e6e610fa3565b9050600b54811061175057600080fd5b6004820181905560405133907fbf457c80c8bf299d5c48272c4c1168bf87b33d83b13f0ab9aac332ce1161ed1e90600090a2505061092361316e565b6040805160208101909152600081526117a3612eeb565b6117ab61309e565b60006117b5610fa3565b905060006117c1613bb4565b905060008060006117d185612465565b6003889055919450925090506117e8816000613be8565b156117f95794506119029350505050565b815183516040517f19b92e73d08d517d71ec46136266e4f5d526a8cd4f8501d73713cebfe4f335ef90600090a36118308185613bff565b61183b836000612e72565b156118cf57600061184a613c3d565b8451600154919250611867916001600160a01b0316908390613c76565b60015460405163432ce91960e11b81526001600160a01b0391821660048201528551602482015290821690638659d23290604401600060405180830381600087803b1580156118b557600080fd5b505af11580156118c9573d6000803e3d6000fd5b50505050505b6118da826000612e72565b156118fb5781516001546118fb916001600160a01b039091169033906135cd565b9450505050505b61104361316e565b604080516020810190915260008152611921612ff7565b3361192b8161304f565b61193361178c565b5061193c612eeb565b61194461309e565b61194f836000612e72565b61195857600080fd5b6000611963336130ad565b905061196f8185613d37565b80516040519194509033907f7fcf532c15f0a6db0bd6d0e038bea71d30d808c7d98cb3bf7268a95bf5081b6590600090a382516001546119bc916001600160a01b039091169033906135cd565b506119c561316e565b50919050565b6040805160208101909152600081526119e2612eeb565b60408051602081019091526008548152611039906119ff9061328c565b613da3565b6000816001600160a01b031663313ce5676040518163ffffffff1660e01b815260040160206040518083038186803b158015611a3f57600080fd5b505afa925050508015611a6f575060408051601f3d908101601f19168201909252611a6c91810190614e17565b60015b6107d357506012919050565b60106020528160005260406000208181548110611a9757600080fd5b6000918252602091829020600a919091020180546001820154600283015460408051808701825260038601548152815180880183526004870154815282518089018452600588015481528351808a0185526006890154815260078901548551808c01875260088b0154815286519b8c019096526009909901548a526001600160a01b039788169b508787169a50600160a01b90960460ff16989497929691959094909391909216918b565b611b4a612ff7565b33611b548161304f565b611b5c612eeb565b611b6461309e565b611bae611b716000612e3d565b6001600160a01b03841660009081526006602090815260409182902082519182019092526003909101548152611ba69061328c565b905190511490565b611bb757600080fd5b6000611bc2336130ad565b90508060040154600014158015611be45750611bdc610fa3565b816004015411155b611bed57600080fd5b600060048083018281556001600160a01b038616808452600660205260408085208654815560018088015481830155600280890154818401556003808a01548185015595549287019290925533808852838820888155918201889055918101879055938401869055929093018490559151919290917ff1a2dcf23621f1a96185c79d39a5776b5ba3dadbea70c5aa86d84c17c7e9418e9190a36040516001600160a01b038416907ff60993fa76f94c9e0a803526ee6e1314814ed4d2b0d223febf1436b36897fb3790600090a260405133907fcad20625296d189a6fc6e5b39d0d544e5bd99dbda0c8f2f0ecffef3e0fbcc28290600090a250611cee61316e565b5050565b611cfa612ff7565b33611d048161304f565b611d0c61178c565b50611d15612eeb565b611d1d61309e565b6000611d28336130ad565b604080516020810190915281549081905284519192501015611d4957600080fd5b604080516020810190915281548152600090611d6590856132b6565b6040805160208101909152600d549081905281519192501115611d8757600080fd5b8051825560408051602081019091526007548152611da590856132b6565b516007558051845160405133907f77c6871227e5d2dec8dadd5354f78453203e22e669cd0ec4c19d9a8c5edb31d090600090a48351600954611df6916001600160a01b0390911690339030906130fd565b6009548451604051630852cd8d60e31b81526001600160a01b03909216916342966c6891611e2a9160040190815260200190565b600060405180830381600087803b158015611e4457600080fd5b505af1158015611e58573d6000803e3d6000fd5b505050505050611cee61316e565b60408051602081019091526000815233611e7f8161304f565b611e8761178c565b50611e90612eeb565b611e9861309e565b6000611ea3336130ad565b604080516020810190915281549081905285519192501015611ec457600080fd5b604080516020810190915281548152600090611ee19086906133bb565b604080516020810190915260038401548152909150600090611f0d90611f069061328c565b83906132e0565b604080516020810190915284549081905287519192501415611f3957611f3233613e19565b9450611fbb565b611f4383826135a5565b604080516020810190915284548152909550600090611f6290886132b6565b6040805160208101909152600d549081905281519192501115611f975760405162461bcd60e51b8152600401610a2d90615095565b8051845560408051602081019091526007548152611fb590886132b6565b51600755505b8551855160405133907fe5b754fb1abb7f01b499791d0b820ae3b6af3424ac1c59768edb53f4ec31a92990600090a48451600154612006916001600160a01b039091169033906135cd565b8551600954612024916001600160a01b0390911690339030906130fd565b6009548651604051630852cd8d60e31b81526001600160a01b03909216916342966c68916120589160040190815260200190565b600060405180830381600087803b15801561207257600080fd5b505af1158015612086573d6000803e3d6000fd5b505050505050506119c561316e565b600061209f612eeb565b6107d382613f25565b6120b0612ff7565b6120b861178c565b506120c1612eeb565b6120c961309e565b3360009081526006602090815260409182902082519182019092526003820154815261211c906120fe9085906113c59061328c565b6040805160208101909152835481526121179085612e89565b613fd1565b8061212c575061212c8383613fd1565b6121725760405162461bcd60e51b8152602060048201526017602482015276125b9cdd59999a58da595b9d0818dbdb1b185d195c985b604a1b6044820152606401610a2d565b6001810154156121b95760405162461bcd60e51b815260206004820152601260248201527114195b991a5b99c81dda5d1a191c985dd85b60721b6044820152606401610a2d565b6040805160208101909152815481526121d3906000613be8565b15612236576040805160208101909152600d54908190528251101561220a5760405162461bcd60e51b8152600401610a2d90615095565b60405133907ff60993fa76f94c9e0a803526ee6e1314814ed4d2b0d223febf1436b36897fb3790600090a25b61224081846130d5565b5060408051602081019091528154815261225a9083612e89565b518155604080516020810190915260075481526122779083612e89565b516007558151835160405133907f4b82aa16e071a61de1a6b9aeec9edab0356331f8122c78683b469ac8e685dabc90600090a482516001546122c8916001600160a01b0390911690339030906130fd565b60095482516040516340c10f1960e01b815233600482015260248101919091526001600160a01b03909116906340c10f1990604401602060405180830381600087803b15801561231757600080fd5b505af115801561232b573d6000803e3d6000fd5b505050506040513d601f19601f8201168201806040525081019061234f9190614cff565b61235857600080fd5b50611cee61316e565b61236961402e565b6123716135fd565b61237961178c565b50612382612eeb565b61238a61309e565b6005805460ff19166001179055600b546123a390613708565b60405133907f18600820405d6cf356e3556301762ca32395e72d8c81494fa344835c9da3633d90600090a261092361316e565b6040805160208101909152600081526123ed612eeb565b611039613bb4565b6123fd612eeb565b61240561309e565b61240d614087565b61092361316e565b60408051602081019091526000815261242c612eeb565b6001600160a01b038216600090815260066020908152604091829020825191820190925260039091015481526107d3906119ff9061328c565b604080516020810190915260008152604080516020810190915260008152604080516020810190915260008152600061249c613c3d565b905060006124a8613bb4565b90506124b5816000613be8565b806124c1575085600354145b156124cd5750506125db565b6003546040516374201feb60e01b8152600481019190915260248101879052815160448201526001600160a01b038316906374201feb90606401604080518083038186803b15801561251e57600080fd5b505afa158015612532573d6000803e3d6000fd5b505050506040513d601f19601f820116820180604052508101906125569190614d89565b90955093506125658585612e89565b9250612572836000613be8565b1561257e5750506125db565b8051835111156125d857600061259484836132b6565b905060006125a28683613267565b90506125ae86826132b6565b95506125ba82826132b6565b91506125d06125c98884613267565b88906132b6565b965082945050505b50505b9193909250565b60606125ec612eeb565b6001600160a01b038216600090815260106020908152604080832080548251818502810185019093528083529193909284015b8282101561275d5760008481526020908190206040805161016081018252600a860290920180546001600160a01b039081168452600182015490811694840194909452919290830190600160a01b900460ff16600481111561269157634e487b7160e01b600052602160045260246000fd5b60048111156126b057634e487b7160e01b600052602160045260246000fd5b8152600282015460208083019190915260408051808301825260038501548152818401528051808301825260048501548152606084015280518083018252600585015481526080840152805180830182526006850154815260a084015260078401546001600160a01b031660c0840152805180830182526008850154815260e08401528051808301909152600990930154835261010090910191909152908252600192909201910161261f565b505050509050919050565b60408051602081019091526000815282826127838282614146565b61278b61178c565b50612794612eeb565b61279c61309e565b60006127a885876138c5565b6040805160208101909152600682015481529091506000906127f6906127cd9061328c565b60408051602080820183526014548252825190810190925260048601548252610b0f91906132e0565b90506128036011826134fe565b5060018201805460ff60a01b1916600160a11b1790556007820180546001600160a01b03191633179055600282015461283b906141ea565b60018201548151604080518a8152602081019290925233926001600160a01b0390811692908a16917fcaca181ccad7979cf36ed4fc921e496001ab5264608f0fac7007ae1b43d36102910160405180910390a46040805160208101909152600983015481526128ab908290612e89565b6040805160208101909152600984015481529095506128cb90339061426b565b80516001546128e9916001600160a01b0390911690339030906130fd565b50506116f261316e565b6128fb612ff7565b612903612eeb565b61290b61309e565b6000612916336130ad565b905080600401546000141561292a57600080fd5b60405133907f2e5702420c76e041698ad7ba57a9ff5cadccf647ea8d96e6007a40b5b2662f5690600090a2600060049091015561092361316e565b61296d612ff7565b336129778161304f565b61297f612eeb565b61298761309e565b6000612992336130ad565b905061299f836000612e72565b80156129cd57506040805160208101909152600382015481526129cd906129c59061328c565b518451111590565b6129d657600080fd5b60006129e6600c54610e6e610fa3565b9050600b5481106129f657600080fd5b6001820181905583516002830181905560405133907fd33b726e11d2c5d38e6702b16613df0160a07f7ba5185455ee3c45d0494fab1190600090a35050611cee61316e565b612a43612ff7565b612a4b612eeb565b61240d61309e565b612a5d33826107d9565b50565b604080516020810190915260008152612a7761402e565b612a7f61178c565b50612a88612eeb565b612a9061309e565b600060055460ff166002811115612ab757634e487b7160e01b600052602160045260246000fd5b1415612afa5760405162461bcd60e51b81526020600482015260126024820152712ab732bc3834b932b2103837b9b4ba34b7b760711b6044820152606401610a2d565b600260055460ff166002811115612b2157634e487b7160e01b600052602160045260246000fd5b14612b4357612b31600b5461439c565b51600e556005805460ff191660021790555b6040805160208101918290526009546370a0823160e01b90925233602482015260009181906001600160a01b03166370a082316044830160206040518083038186803b158015612b9257600080fd5b505afa158015612ba6573d6000803e3d6000fd5b505050506040513d601f19601f82011682018060405250810190612bca9190614d1f565b90526040805160208101909152600e548152909150600090612bed9083906132e0565b336000908152600660209081526040808320815192830190915260038101548252929350612c259190612c1f9061328c565b90612e72565b15612d0e576040805160208082018352600e548252825190810190925282548252600091612c52916132e0565b604080516020810190915260038401548152909150600090612c739061328c565b90506000612c8383835190511090565b612c9c5760405180602001604052806000815250612ca6565b612ca682846132b6565b9050612cb28582612e89565b336000818152600660205260408082208281556001810183905560028101839055600381018390556004018290555192975090917fcad20625296d189a6fc6e5b39d0d544e5bd99dbda0c8f2f0ecffef3e0fbcc2829190a25050505b60408051602081019091526008548152600090612d3490612d2e9061328c565b84613267565b9050612d41600882613b3b565b60408051602081019091526007548152909550612d5e90856132b6565b516007558351855160405133907f9d349c102bec959fb7f20f9a3621e015819d3ae4ed6e9afd1f56a69d5845600690600090a48451600154612dad916001600160a01b039091169033906135cd565b8351600954612dcb916001600160a01b0390911690339030906130fd565b6009548451604051630852cd8d60e31b81526001600160a01b03909216916342966c6891612dff9160040190815260200190565b600060405180830381600087803b158015612e1957600080fd5b505af1158015612e2d573d6000803e3d6000fd5b505050505050505061104361316e565b604080516020810190915260008152604080516020810190915280612e6a84670de0b6b3a7640000612ed3565b905292915050565b6000612e7d82612e3d565b51835111905092915050565b6040805160208101909152600081526040805160208101909152825184518291612eb39190612edf565b90529392505050565b6000612ec782612e3d565b51835110905092915050565b60006107d0828461512f565b60006107d08284615103565b600054600160a01b900460ff166109235760405162461bcd60e51b815260206004820152601f60248201527f5265656e7472616e637947756172643a207265656e7472616e742063616c6c006044820152606401610a2d565b604080516020810190915260008152600f546001600160a01b03163b612f6b5750816107d3565b600f5460405162ff49b960e41b815284516004820152602481018490526001600160a01b0390911690630ff49b909060440160206040518083038186803b158015612fb557600080fd5b505afa925050508015612fe5575060408051601f3d908101601f19168201909252612fe291810190614d52565b60015b612ff05750816107d3565b90506107d3565b600b54613002610fa3565b106109235760405162461bcd60e51b815260206004820152601860248201527f4f6e6c792063616c6c61626c65207072652d65787069727900000000000000006044820152606401610a2d565b613058816130ad565b6001015415612a5d5760405162461bcd60e51b815260206004820152601260248201527114195b991a5b99c81dda5d1a191c985dd85b60721b6044820152606401610a2d565b6000805460ff60a01b19169055565b6000816130b98161450b565b50506001600160a01b0316600090815260066020526040902090565b6040805160208101909152600081526130f183600301836134fe565b506107d06008836134fe565b6040516001600160a01b03808516602483015283166044820152606481018290526131689085906323b872dd60e01b906084015b60408051601f198184030181529190526020810180516001600160e01b03166001600160e01b03199093169290921790915261458e565b50505050565b6000805460ff60a01b1916600160a01b179055565b604080516020810190915260008152600f546001600160a01b03163b6131b85750506040805160208101909152601354815290565b600f54604051632a31263760e01b81528351600482015260135460248201526001600160a01b0390911690632a3126379060440160206040518083038186803b15801561320457600080fd5b505afa925050508015613234575060408051601f3d908101601f1916820190925261323191810190614d52565b60015b6107d35750506040805160208101909152601354815290565b6132576000612e3d565b5160028201556000600190910155565b604080516020810190915260008152815183511061328557816107d0565b5090919050565b604080516020810190915260008152604080516020810190915260045481526107d39083906132e0565b6040805160208101909152600081526040805160208101909152825184518291612eb39190614660565b6040805160208101909152600081526040805160208101909152825184518291670de0b6b3a76400009161331391612ed3565b612eb3919061511b565b6040805160208101909152600081526000613336613c3d565b600154604051635b97aadd60e01b81526001600160a01b039182166004820152919250821690635b97aadd9060240160206040518083038186803b15801561337d57600080fd5b505afa158015613391573d6000803e3d6000fd5b505050506040513d601f19601f820116820180604052508101906133b59190614d52565b91505090565b6040805160208101909152600081526040805160208101909152825184518291612eb3916133f190670de0b6b3a7640000612ed3565b9061466c565b6000613402856130ad565b604080516020810190915281549081905285519192501480156134415750604080516020810190915260038201548152613441908490611ba69061328c565b156134565761344f85613e19565b5050613168565b61346081846135a5565b5060408051602081019091528154815260009061347d90866132b6565b6040805160208101909152600d5490819052815191925011156134b25760405162461bcd60e51b8152600401610a2d90615095565b805182556040805160208101909152600283015481526134d290846132b6565b516002830155604080516020810190915260075481526134f290866132b6565b51600755505050505050565b6040805160208101909152600081526040805160208101909152835481526000906135289061328c565b905060006135358461357b565b6040805160208101909152865481529091506135519082612e89565b5180865560408051602081019091529081526135729083906113f49061328c565b95945050505050565b604080516020810190915260008152604080516020810190915260045481526107d39083906133bb565b6040805160208101909152600081526135c18360030183613b3b565b506107d0600883613b3b565b6040516001600160a01b03831660248201526044810182905261088d90849063a9059cbb60e01b90606401613131565b600060055460ff16600281111561362457634e487b7160e01b600052602160045260246000fd5b146109235760405162461bcd60e51b815260206004820152601a60248201527f436f6e7472616374207374617465206973206e6f74204f50454e0000000000006044820152606401610a2d565b6002546040516302abf57960e61b8152762334b730b731b4b0b621b7b73a3930b1ba39a0b236b4b760491b60048201526000916001600160a01b03169063aafd5e40906024015b60206040518083038186803b1580156136d057600080fd5b505afa1580156136e4573d6000803e3d6000fd5b505050506040513d601f19601f820116820180604052508101906110399190614c23565b6000613712614678565b9050600061371e61331d565b805160015491925061373b916001600160a01b0316908490613c76565b816001600160a01b03166311df92f161375385613f25565b8561375c6146bc565b60015486516040516001600160e01b031960e088901b16815261378f959493926001600160a01b0316919060040161502c565b602060405180830381600087803b1580156137a957600080fd5b505af11580156137bd573d6000803e3d6000fd5b505050506040513d601f19601f820116820180604052508101906137e19190614d1f565b5061088d816137ee613bb4565b613bff565b60006137ff82846138c5565b600181810154919250600160a01b90910460ff169081600481111561383457634e487b7160e01b600052602160045260246000fd5b11806138795750613843610fa3565b61384c836146f2565b111580156138795750600181600481111561387757634e487b7160e01b600052602160045260246000fd5b145b6131685760405162461bcd60e51b815260206004820152601c60248201527f4c69717569646174696f6e206e6f7420776974686472617761626c65000000006044820152606401610a2d565b6001600160a01b038216600090815260106020526040812080548310801561394b5750600081848154811061390a57634e487b7160e01b600052603260045260246000fd5b90600052602060002090600a020160010160149054906101000a900460ff16600481111561394857634e487b7160e01b600052602160045260246000fd5b14155b6139905760405162461bcd60e51b8152602060048201526016602482015275125b9d985b1a59081b1a5c5d5a59185d1a5bdb88125160521b6044820152606401610a2d565b8083815481106139b057634e487b7160e01b600052603260045260246000fd5b90600052602060002090600a020191505092915050565b60006139d382846138c5565b905060026001820154600160a01b900460ff166004811115613a0557634e487b7160e01b600052602160045260246000fd5b14613a0f57505050565b613a1c816002015461470d565b51600882018190556040805160208082018352928152815192830190915260038301548252600091613a4d916132e0565b604080516020810190915260088401548152909150600090613a7290611f0690613183565b60408051602081019091526005850154908190528151919250101580613a99576004613a9c565b60035b60018501805460ff60a01b1916600160a01b836004811115613ace57634e487b7160e01b600052602160045260246000fd5b021790555060018401546007850154604080516001600160a01b039283168152602081018a9052841515818301529051928216929188169133917f6c5582199868fabbe697f9ea10abe481bacf53ac78c02a965b34dff82fd20e3b919081900360600190a4505050505050565b604080516020810190915260008152604080516020810190915283548152600090613b659061328c565b90506000613b728461357b565b604080516020810190915286548152909150613b8e90826132b6565b51808655604080516020810190915290815261357290613bad9061328c565b83906132b6565b6040805160208101909152600081526040805160208101909152601154815261103990613be09061328c565b6113c561486a565b6000613bf382612e3d565b51835114905092915050565b6000613c0b8383614892565b9050613c34613c1e826113f46001612e3d565b60408051602081019091526004548152906132e0565b51600455505050565b6002546040516302abf57960e61b81526453746f726560d81b60048201526000916001600160a01b03169063aafd5e40906024016136b8565b604051636eb1769f60e11b81523060048201526001600160a01b038381166024830152600091839186169063dd62ed3e9060440160206040518083038186803b158015613cc257600080fd5b505afa158015613cd6573d6000803e3d6000fd5b505050506040513d601f19601f82011682018060405250810190613cfa9190614d1f565b613d049190615103565b6040516001600160a01b03851660248201526044810182905290915061316890859063095ea7b360e01b90606401613131565b604080516020810190915260008152613d538360030183613b3b565b50613d5d83614921565b613d985760405162461bcd60e51b815260206004820152600c60248201526b21a9103132b637bb9023a1a960a11b6044820152606401610a2d565b6107d0600883613b3b565b6040805160208101909152600081526000613dbf6106e4610fa3565b92505050613dd7613dd06000612e3d565b5182511490565b15613de3575090919050565b6000613df7613df0613bb4565b8390614892565b9050613e11613e0a826113f46001612e3d565b85906132e0565b949350505050565b6040805160208101909152600081526000613e33836130ad565b60408051602081019091526008548152909150600090613e529061328c565b60408051602080820183526003860154825282519081019092526008548252919250613e7e90826132b6565b5160085560408051602080820183528554825282519081019092526007548252613ea891906132b6565b516007556001600160a01b038516600081815260066020526040808220828155600181018390556002810183905560038101839055600401829055517fcad20625296d189a6fc6e5b39d0d544e5bd99dbda0c8f2f0ecffef3e0fbcc2829190a26040805160208101909152600854815261357290613bad9061328c565b600f546000906001600160a01b03163b613f41575050600a5490565b600f54600a5460405163f19371b760e01b81526001600160a01b039092169163f19371b791613f7d918690600401918252602082015260400190565b60206040518083038186803b158015613f9557600080fd5b505afa925050508015613fc5575060408051601f3d908101601f19168201909252613fc291810190614d1f565b60015b6107d3575050600a5490565b60408051602081019091526008548152600090819061400890613ff39061328c565b60408051602081019091526007548152614957565b905060006140168585614957565b905061402482825190511190565b1595945050505050565b600b54614039610fa3565b10156109235760405162461bcd60e51b815260206004820152601960248201527f4f6e6c792063616c6c61626c6520706f73742d657870697279000000000000006044820152606401610a2d565b6000614091613bb4565b6040805160208101918290526001546370a0823160e01b9092523060248201529192506000919081906001600160a01b03166370a082316044830160206040518083038186803b1580156140e457600080fd5b505afa1580156140f8573d6000803e3d6000fd5b505050506040513d601f19601f8201168201806040525081019061411c9190614d1f565b9052905061412c82825190511090565b15611cee5761413e613c1e82846133bb565b516004555050565b600061415282846138c5565b905061415d816146f2565b614165610fa3565b10801561419e5750600180820154600160a01b900460ff16600481111561419c57634e487b7160e01b600052602160045260246000fd5b145b61088d5760405162461bcd60e51b815260206004820152601a60248201527f4c69717569646174696f6e206e6f742064697370757461626c650000000000006044820152606401610a2d565b60006141f4614989565b9050806001600160a01b03166368ad8ae361420e84613f25565b846040518363ffffffff1660e01b8152600401614235929190918252602082015260400190565b600060405180830381600087803b15801561424f57600080fd5b505af1158015614263573d6000803e3d6000fd5b505050505050565b614276816000613be8565b1561427f575050565b6001600160a01b03821630146142b25780516001546142ad916001600160a01b0390911690849030906130fd565b6142df565b60006142bc613bb4565b90506142ca81835190511190565b6142d357600080fd5b6142dd8282613bff565b505b80516040517f4f9bf7e8cd0f2456f9c43d2597bedcf1446c9c64544053f1ece6423ae9a07e5290600090a26000614314613c3d565b8251600154919250614331916001600160a01b0316908390613c76565b60015460405163432ce91960e11b81526001600160a01b0391821660048201528351602482015290821690638659d23290604401600060405180830381600087803b15801561437f57600080fd5b505af1158015614393573d6000803e3d6000fd5b50505050505050565b60408051602081019091526000815260006143b5614678565b9050806001600160a01b031663bc58ccaa306143d086613f25565b866143d96146bc565b6040518563ffffffff1660e01b81526004016143f89493929190614f04565b60206040518083038186803b15801561441057600080fd5b505afa158015614424573d6000803e3d6000fd5b505050506040513d601f19601f820116820180604052508101906144489190614cff565b61445157600080fd5b6000816001600160a01b03166353b5923961446b86613f25565b866144746146bc565b6040518463ffffffff1660e01b81526004016144929392919061500d565b602060405180830381600087803b1580156144ac57600080fd5b505af11580156144c0573d6000803e3d6000fd5b505050506040513d601f19601f820116820180604052508101906144e49190614d1f565b905060008112156144f3575060005b613e1160405180602001604052808381525085612f44565b6001600160a01b038116600090815260066020908152604080832081519283019091526003015481526145429190612c1f9061328c565b612a5d5760405162461bcd60e51b815260206004820152601a60248201527f506f736974696f6e20686173206e6f20636f6c6c61746572616c0000000000006044820152606401610a2d565b60006145e3826040518060400160405280602081526020017f5361666545524332303a206c6f772d6c6576656c2063616c6c206661696c6564815250856001600160a01b03166149c39092919063ffffffff16565b80519091501561088d57808060200190518101906146019190614cff565b61088d5760405162461bcd60e51b815260206004820152602a60248201527f5361666545524332303a204552433230206f7065726174696f6e20646964206e6044820152691bdd081cdd58d8d9595960b21b6064820152608401610a2d565b60006107d0828461514e565b60006107d0828461511b565b6002546040516302abf57960e61b81526f4f7074696d69737469634f7261636c6560801b60048201526000916001600160a01b03169063aafd5e40906024016136b8565b6009546040516bffffffffffffffffffffffff19606092831b166020820152603401604051602081830303815290604052905090565b60006107d36012548360020154612edf90919063ffffffff16565b6040805160208101909152600081526000614726614989565b9050806001600160a01b031663a03e881a61474085613f25565b856040518363ffffffff1660e01b8152600401614767929190918252602082015260400190565b60206040518083038186803b15801561477f57600080fd5b505afa158015614793573d6000803e3d6000fd5b505050506040513d601f19601f820116820180604052508101906147b79190614cff565b6147fd5760405162461bcd60e51b8152602060048201526017602482015276556e7265736f6c766564206f7261636c6520707269636560481b6044820152606401610a2d565b6000816001600160a01b031663c9280f0661481786613f25565b866040518363ffffffff1660e01b815260040161483e929190918252602082015260400190565b60206040518083038186803b15801561485657600080fd5b505afa1580156144c0573d6000803e3d6000fd5b604080516020810190915260008152604080516020810190915260085481526110399061328c565b6040805160208101909152600080825283516148b690670de0b6b3a7640000612ed3565b83519091506000906148c990839061466c565b84519091506000906148dc9084906149dc565b90508015614908576040805160208101909152806148fb846001612edf565b81525093505050506107d3565b60405180602001604052808381525093505050506107d3565b6040805160208101909152600382015481526000906107d3906149439061328c565b604080516020810190915284548152613fd1565b604080516020810190915260008152614971826000612e72565b61497f57612ff06000612e3d565b612ff083836133bb565b6002546040516302abf57960e61b8152654f7261636c6560d01b60048201526000916001600160a01b03169063aafd5e40906024016136b8565b60606149d284846000856149e8565b90505b9392505050565b60006107d08284615191565b606082471015614a495760405162461bcd60e51b815260206004820152602660248201527f416464726573733a20696e73756666696369656e742062616c616e636520666f6044820152651c8818d85b1b60d21b6064820152608401610a2d565b843b614a975760405162461bcd60e51b815260206004820152601d60248201527f416464726573733a2063616c6c20746f206e6f6e2d636f6e74726163740000006044820152606401610a2d565b600080866001600160a01b03168587604051614ab39190614e78565b60006040518083038185875af1925050503d8060008114614af0576040519150601f19603f3d011682016040523d82523d6000602084013e614af5565b606091505b5091509150614b05828286614b10565b979650505050505050565b60608315614b1f5750816149d5565b825115614b2f5782518084602001fd5b8160405162461bcd60e51b8152600401610a2d9190615082565b6040805160e081018252600060c082018181528252825160208082018552828252808401919091528351808201855282815283850152835180820185528281526060840152835180820185528281526080840152835190810190935282529060a082015290565b6000602082840312156119c5578081fd5b600060208284031215614bd2578081fd5b614bda6150cc565b9135825250919050565b600060208284031215614bf5578081fd5b614bfd6150cc565b9151825250919050565b600060208284031215614c18578081fd5b81356149d5816151e7565b600060208284031215614c34578081fd5b81516149d5816151e7565b600080600080600060a08688031215614c56578081fd5b8535614c61816151e7565b9450614c708760208801614bb0565b9350614c7f8760408801614bb0565b9250614c8e8760608801614bb0565b949793965091946080013592915050565b60008060408385031215614cb1578182fd5b8235614cbc816151e7565b9150614ccb8460208501614bc1565b90509250929050565b60008060408385031215614ce6578182fd5b8235614cf1816151e7565b946020939093013593505050565b600060208284031215614d10578081fd5b815180151581146149d5578182fd5b600060208284031215614d30578081fd5b5051919050565b600060208284031215614d48578081fd5b6107d08383614bc1565b600060208284031215614d63578081fd5b6107d08383614be4565b60008060408385031215614d7f578182fd5b614cbc8484614bc1565b60008060408385031215614d9b578182fd5b614da58484614be4565b9150614ccb8460208501614be4565b60008060408385031215614dc6578182fd5b614cf18484614bc1565b600060208284031215614de1578081fd5b5035919050565b60008060408385031215614dfa578182fd5b823591506020830135614e0c816151e7565b809150509250929050565b600060208284031215614e28578081fd5b815160ff811681146149d5578182fd5b60008151808452614e50816020860160208601615165565b601f01601f19169290920160200192915050565b60058110614e7457614e746151d1565b9052565b60008251614e8a818460208701615165565b9190910192915050565b6001600160a01b038c811682528b81166020830152610160820190614ebc604084018d614e64565b606083019a909a5297516080820152955160a0870152935160c0860152915160e085015290941661010083015292516101208201529151610140909201919091529392505050565b60018060a01b0385168152836020820152826040820152608060608201526000614f316080830184614e38565b9695505050505050565b602080825282518282018190526000919060409081850190868401855b8281101561500057815180516001600160a01b03908116865287820151168786015285810151614f8a87870182614e64565b5060608181015190860152608080820151519086015260a080820151519086015260c080820151519086015260e0808201515190860152610100808201516001600160a01b0316908601526101208082015151908601526101409081015151908501526101609093019290850190600101614f58565b5091979650505050505050565b8381528260208201526060604082015260006135726060830184614e38565b85815284602082015260a06040820152600061504b60a0830186614e38565b6001600160a01b0394909416606083015250608001529392505050565b602081016003831061507c5761507c6151d1565b91905290565b6020815260006107d06020830184614e38565b6020808252601e908201527f42656c6f77206d696e696d756d2073706f6e736f7220706f736974696f6e0000604082015260600190565b6040516020810167ffffffffffffffff811182821017156150fd57634e487b7160e01b600052604160045260246000fd5b60405290565b60008219821115615116576151166151a5565b500190565b60008261512a5761512a6151bb565b500490565b6000816000190483118215151615615149576151496151a5565b500290565b600082821015615160576151606151a5565b500390565b60005b83811015615180578181015183820152602001615168565b838111156131685750506000910152565b6000826151a0576151a06151bb565b500690565b634e487b7160e01b600052601160045260246000fd5b634e487b7160e01b600052601260045260246000fd5b634e487b7160e01b600052602160045260246000fd5b6001600160a01b0381168114612a5d57600080fdfea26469706673582212206bb1f5cd274c36019de540a19884c61de4f0fab8cc6fa44f764dd7a79aa40dcb64736f6c63430008040033",
  "immutableReferences": {},
  "source": "// SPDX-License-Identifier: AGPL-3.0-only\npragma solidity ^0.8.0;\n\nimport \"./Liquidatable.sol\";\n\n/**\n * @title Expiring Multi Party.\n * @notice Convenient wrapper for Liquidatable.\n */\ncontract ExpiringMultiParty is Liquidatable {\n    /**\n     * @notice Constructs the ExpiringMultiParty contract.\n     * @param params struct to define input parameters for construction of Liquidatable. Some params\n     * are fed directly into the PricelessPositionManager's constructor within the inheritance tree.\n     */\n    constructor(ConstructorParams memory params)\n        Liquidatable(params)\n    // Note: since there is no logic here, there is no need to add a re-entrancy guard.\n    {\n\n    }\n}\n",
  "sourcePath": "/home/circleci/protocol/packages/core/contracts/financial-templates/expiring-multiparty/ExpiringMultiParty.sol",
  "compiler": {
    "name": "solc",
    "version": "0.8.4+commit.c7e474f2.Emscripten.clang"
  },
  "schemaVersion": "3.3.4",
  "updatedAt": "2021-06-21T21:43:39.001Z",
  "devdoc": {
    "kind": "dev",
    "methods": {
      "constructor": {
        "params": {
          "params": "struct to define input parameters for construction of Liquidatable. Some params are fed directly into the PricelessPositionManager's constructor within the inheritance tree."
        }
      },
      "create((uint256),(uint256))": {
        "details": "Reverts if minting these tokens would put the position's collateralization ratio below the global collateralization ratio. This contract must be approved to spend at least `collateralAmount` of `collateralCurrency`.This contract must have the Minter role for the `tokenCurrency`.",
        "params": {
          "collateralAmount": "is the number of collateral tokens to collateralize the position with",
          "numTokens": "is the number of tokens to mint from the position."
        }
      },
      "createLiquidation(address,(uint256),(uint256),(uint256),uint256)": {
        "details": "This method generates an ID that will uniquely identify liquidation for the sponsor. This contract must be approved to spend at least `tokensLiquidated` of `tokenCurrency` and at least `finalFeeBond` of `collateralCurrency`.This contract must have the Burner role for the `tokenCurrency`.",
        "params": {
          "deadline": "abort the liquidation if the transaction is mined after this timestamp.",
          "maxCollateralPerToken": "abort the liquidation if the position's collateral per token exceeds this value.",
          "maxTokensToLiquidate": "max number of tokens to liquidate.",
          "minCollateralPerToken": "abort the liquidation if the position's collateral per token is below this value.",
          "sponsor": "address of the sponsor to liquidate."
        },
        "returns": {
          "finalFeeBond": "amount of collateral to be posted by liquidator and returned if not disputed successfully.",
          "liquidationId": "ID of the newly created liquidation.",
          "tokensLiquidated": "amount of synthetic tokens removed and liquidated from the `sponsor`'s position."
        }
      },
      "deposit((uint256))": {
        "details": "Increases the collateralization level of a position after creation. This contract must be approved to spend at least `collateralAmount` of `collateralCurrency`.",
        "params": {
          "collateralAmount": "total amount of collateral tokens to be sent to the sponsor's position."
        }
      },
      "depositTo(address,(uint256))": {
        "details": "Increases the collateralization level of a position after creation. This contract must be approved to spend at least `collateralAmount` of `collateralCurrency`.",
        "params": {
          "collateralAmount": "total amount of collateral tokens to be sent to the sponsor's position.",
          "sponsor": "the sponsor to credit the deposit to."
        }
      },
      "dispute(uint256,address)": {
        "details": "Can only dispute a liquidation before the liquidation expires and if there are no other pending disputes. This contract must be approved to spend at least the dispute bond amount of `collateralCurrency`. This dispute bond amount is calculated from `disputeBondPercentage` times the collateral in the liquidation.",
        "params": {
          "liquidationId": "of the disputed liquidation.",
          "sponsor": "the address of the sponsor whose liquidation is being disputed."
        },
        "returns": {
          "totalPaid": "amount of collateral charged to disputer (i.e. final fee bond + dispute bond)."
        }
      },
      "emergencyShutdown()": {
        "details": "Only the governor can call this function as they are permissioned within the `FinancialContractAdmin`. Upon emergency shutdown, the contract settlement time is set to the shutdown time. This enables withdrawal to occur via the standard `settleExpired` function. Contract state is set to `ExpiredPriceRequested` which prevents re-entry into this function or the `expire` function. No fees are paid when calling `emergencyShutdown` as the governor who would call the function would also receive the fees."
      },
      "expire()": {
        "details": "this function can only be called once the contract is expired and can't be re-called."
      },
      "getCollateral(address)": {
        "details": "This is necessary because the struct returned by the positions() method shows rawCollateral, which isn't a user-readable value.This method accounts for pending regular fees that have not yet been withdrawn from this contract, for example if the `lastPaymentTime != currentTime`.",
        "params": {
          "sponsor": "address whose collateral amount is retrieved."
        },
        "returns": {
          "_0": "collateralAmount amount of collateral within a sponsors position."
        }
      },
      "getCurrentTime()": {
        "returns": {
          "_0": "uint for the current Testable timestamp."
        }
      },
      "getLiquidations(address)": {
        "params": {
          "sponsor": "address of the position sponsor."
        },
        "returns": {
          "liquidationData": "array of all liquidation information for the given sponsor address."
        }
      },
      "getOutstandingRegularFees(uint256)": {
        "details": "This returns 0 and exit early if there is no pfc, fees were already paid during the current block, or the fee rate is 0.",
        "returns": {
          "latePenalty": "outstanding unpaid late fee for being late in previous fee payments.",
          "regularFee": "outstanding unpaid regular fee.",
          "totalPaid": "Amount of collateral that the contract paid (sum of the amount paid to the Store and caller)."
        }
      },
      "gulp()": {
        "details": "Multiplying the `cumulativeFeeMultiplier` by the ratio of non-PfC-collateral :: PfC-collateral effectively pays all sponsors a pro-rata portion of the excess collateral.This will revert if PfC is 0 and this contract's collateral balance > 0."
      },
      "payRegularFees()": {
        "details": "These must be paid periodically for the life of the contract. If the contract has not paid its regular fee in a week or more then a late penalty is applied which is sent to the caller. If the amount of fees owed are greater than the pfc, then this will pay as much as possible from the available collateral. An event is only fired if the fees charged are greater than 0.",
        "returns": {
          "_0": "totalPaid Amount of collateral that the contract paid (sum of the amount paid to the Store and caller). This returns 0 and exit early if there is no pfc, fees were already paid during the current block, or the fee rate is 0."
        }
      },
      "pfc()": {
        "details": "This is equivalent to the collateral pool available from which to pay fees. Therefore, derived contracts are expected to implement this so that pay-fee methods can correctly compute the owed fees as a % of PfC.",
        "returns": {
          "_0": "pfc value for equal to the current profit from corruption denominated in collateral currency."
        }
      },
      "redeem((uint256))": {
        "details": "Can only be called by a token sponsor. Might not redeem the full proportional amount of collateral in order to account for precision loss. This contract must be approved to spend at least `numTokens` of `tokenCurrency`.This contract must have the Burner role for the `tokenCurrency`.",
        "params": {
          "numTokens": "is the number of tokens to be burnt for a commensurate amount of collateral."
        },
        "returns": {
          "amountWithdrawn": "The actual amount of collateral withdrawn."
        }
      },
      "remargin()": {
        "details": "This is supposed to be implemented by any contract that inherits `AdministrateeInterface` and callable only by the Governor contract. This method is therefore minimally implemented in this contract and does nothing."
      },
      "repay((uint256))": {
        "details": "Can only be called by token sponsor. This contract must be approved to spend `numTokens` of `tokenCurrency`.This contract must have the Burner role for the `tokenCurrency`.",
        "params": {
          "numTokens": "is the number of tokens to be burnt from the sponsor's debt position."
        }
      },
      "requestTransferPosition()": {
        "details": "The liveness length is the same as the withdrawal liveness."
      },
      "requestWithdrawal((uint256))": {
        "details": "The request will be pending for `withdrawalLiveness`, during which the position can be liquidated.",
        "params": {
          "collateralAmount": "the amount of collateral requested to withdraw"
        }
      },
      "setCurrentTime(uint256)": {
        "details": "Will revert if not running in test mode.",
        "params": {
          "time": "timestamp to set current Testable time to."
        }
      },
      "settleExpired()": {
        "details": "This burns all tokens from the caller of `tokenCurrency` and sends back the proportional amount of `collateralCurrency`. Might not redeem the full proportional amount of collateral in order to account for precision loss. This contract must be approved to spend `tokenCurrency` at least up to the caller's full balance.This contract must have the Burner role for the `tokenCurrency`.",
        "returns": {
          "amountWithdrawn": "The actual amount of collateral withdrawn."
        }
      },
      "totalPositionCollateral()": {
        "details": "This method accounts for pending regular fees that have not yet been withdrawn from this contract, for example if the `lastPaymentTime != currentTime`.",
        "returns": {
          "_0": "totalCollateral amount of all collateral within the Expiring Multi Party Contract."
        }
      },
      "transferPositionPassedRequest(address)": {
        "details": "Transferring positions can only occur if the recipient does not already have a position.",
        "params": {
          "newSponsorAddress": "is the address to which the position will be transferred."
        }
      },
      "transformCollateralRequirement((uint256))": {
        "details": "This method should never revert.",
        "params": {
          "price": "input price used as an input to transform the collateral requirement."
        },
        "returns": {
          "_0": "transformedCollateralRequirement collateral requirement with transformation applied to it."
        }
      },
      "transformPrice((uint256),uint256)": {
        "details": "This method should never revert.",
        "params": {
          "price": "input price to be transformed.",
          "requestTime": "timestamp the oraclePrice was requested at."
        },
        "returns": {
          "_0": "transformedPrice price with the transformation function applied to it."
        }
      },
      "transformPriceIdentifier(uint256)": {
        "details": "This method should never revert.",
        "params": {
          "requestTime": "timestamp the identifier is to be used at."
        },
        "returns": {
          "_0": "transformedPrice price with the transformation function applied to it."
        }
      },
      "withdraw((uint256))": {
        "details": "Reverts if the withdrawal puts this position's collateralization ratio below the global collateralization ratio. In that case, use `requestWithdrawal`. Might not withdraw the full requested amount to account for precision loss.",
        "params": {
          "collateralAmount": "is the amount of collateral to withdraw."
        },
        "returns": {
          "amountWithdrawn": "The actual amount of collateral withdrawn."
        }
      },
      "withdrawLiquidation(uint256,address)": {
        "details": "If the dispute SUCCEEDED: the sponsor, liquidator, and disputer are eligible for payment. If the dispute FAILED: only the liquidator can receive payment. This method will revert if rewards have already been dispersed.",
        "params": {
          "liquidationId": "uniquely identifies the sponsor's liquidation.",
          "sponsor": "address of the sponsor associated with the liquidation."
        },
        "returns": {
          "_0": "data about rewards paid out."
        }
      },
      "withdrawPassedRequest()": {
        "details": "Might not withdraw the full requested amount in order to account for precision loss or if the full requested amount exceeds the collateral in the position (due to paying fees).",
        "returns": {
          "amountWithdrawn": "The actual amount of collateral withdrawn."
        }
      }
    },
    "title": "Expiring Multi Party.",
    "version": 1
  },
  "userdoc": {
    "kind": "user",
    "methods": {
      "cancelTransferPosition()": {
        "notice": "Cancels a pending transfer position request."
      },
      "cancelWithdrawal()": {
        "notice": "Cancels a pending withdrawal request."
      },
      "constructor": {
        "notice": "Constructs the ExpiringMultiParty contract."
      },
      "create((uint256),(uint256))": {
        "notice": "Creates tokens by creating a new position or by augmenting an existing position. Pulls `collateralAmount` into the sponsor's position and mints `numTokens` of `tokenCurrency`."
      },
      "createLiquidation(address,(uint256),(uint256),(uint256),uint256)": {
        "notice": "Liquidates the sponsor's position if the caller has enough synthetic tokens to retire the position's outstanding tokens. Liquidations above a minimum size also reset an ongoing \"slow withdrawal\"'s liveness."
      },
      "deposit((uint256))": {
        "notice": "Transfers `collateralAmount` of `collateralCurrency` into the caller's position."
      },
      "depositTo(address,(uint256))": {
        "notice": "Transfers `collateralAmount` of `collateralCurrency` into the specified sponsor's position."
      },
      "dispute(uint256,address)": {
        "notice": "Disputes a liquidation, if the caller has enough collateral to post a dispute bond and pay a fixed final fee charged on each price request."
      },
      "emergencyShutdown()": {
        "notice": "Premature contract settlement under emergency circumstances."
      },
      "expire()": {
        "notice": "Locks contract state in expired and requests oracle price."
      },
      "getCollateral(address)": {
        "notice": "Accessor method for a sponsor's collateral."
      },
      "getCurrentTime()": {
        "notice": "Gets the current time. Will return the last time set in `setCurrentTime` if running in test mode. Otherwise, it will return the block timestamp."
      },
      "getLiquidations(address)": {
        "notice": "Gets all liquidation information for a given sponsor address."
      },
      "getOutstandingRegularFees(uint256)": {
        "notice": "Fetch any regular fees that the contract has pending but has not yet paid. If the fees to be paid are more than the total collateral within the contract then the totalPaid returned is full contract collateral amount."
      },
      "gulp()": {
        "notice": "Removes excess collateral balance not counted in the PfC by distributing it out pro-rata to all sponsors."
      },
      "payRegularFees()": {
        "notice": "Pays UMA DVM regular fees (as a % of the collateral pool) to the Store contract."
      },
      "pfc()": {
        "notice": "Gets the current profit from corruption for this contract in terms of the collateral currency."
      },
      "redeem((uint256))": {
        "notice": "Burns `numTokens` of `tokenCurrency` and sends back the proportional amount of `collateralCurrency`."
      },
      "remargin()": {
        "notice": "Theoretically supposed to pay fees and move money between margin accounts to make sure they reflect the NAV of the contract. However, this functionality doesn't apply to this contract."
      },
      "repay((uint256))": {
        "notice": "Burns `numTokens` of `tokenCurrency` to decrease sponsors position size, without sending back `collateralCurrency`. This is done by a sponsor to increase position CR. Resulting size is bounded by minSponsorTokens."
      },
      "requestTransferPosition()": {
        "notice": "Requests to transfer ownership of the caller's current position to a new sponsor address. Once the request liveness is passed, the sponsor can execute the transfer and specify the new sponsor."
      },
      "requestWithdrawal((uint256))": {
        "notice": "Starts a withdrawal request that, if passed, allows the sponsor to withdraw` from their position."
      },
      "setCurrentTime(uint256)": {
        "notice": "Sets the current time."
      },
      "settleExpired()": {
        "notice": "After a contract has passed expiry all token holders can redeem their tokens for underlying at the prevailing price defined by the DVM from the `expire` function."
      },
      "totalPositionCollateral()": {
        "notice": "Accessor method for the total collateral stored within the PricelessPositionManager."
      },
      "transferPositionPassedRequest(address)": {
        "notice": "After a passed transfer position request (i.e., by a call to `requestTransferPosition` and waiting `withdrawalLiveness`), transfers ownership of the caller's current position to `newSponsorAddress`."
      },
      "transformCollateralRequirement((uint256))": {
        "notice": "Accessor method to calculate a transformed collateral requirement using the finanical product library specified during contract deployment. If no library was provided then no modification to the collateral requirement is done."
      },
      "transformPrice((uint256),uint256)": {
        "notice": "Accessor method to compute a transformed price using the finanicalProductLibrary specified at contract deployment. If no library was provided then no modification to the price is done."
      },
      "transformPriceIdentifier(uint256)": {
        "notice": "Accessor method to compute a transformed price identifier using the finanicalProductLibrary specified at contract deployment. If no library was provided then no modification to the identifier is done."
      },
      "withdraw((uint256))": {
        "notice": "Transfers `collateralAmount` of `collateralCurrency` from the sponsor's position to the sponsor."
      },
      "withdrawLiquidation(uint256,address)": {
        "notice": "After a dispute has settled or after a non-disputed liquidation has expired, anyone can call this method to disperse payments to the sponsor, liquidator, and disdputer."
      },
      "withdrawPassedRequest()": {
        "notice": "After a passed withdrawal request (i.e., by a call to `requestWithdrawal` and waiting `withdrawalLiveness`), withdraws `positionData.withdrawalRequestAmount` of collateral currency."
      }
    },
    "notice": "Convenient wrapper for Liquidatable.",
    "version": 1
  }
}