{
  "contractName": "FinancialProductLibraryTest",
  "abi": [
    {
      "inputs": [
        {
          "components": [
            {
              "internalType": "uint256",
              "name": "rawValue",
              "type": "uint256"
            }
          ],
          "internalType": "struct FixedPoint.Unsigned",
          "name": "_priceTransformationScalar",
          "type": "tuple"
        },
        {
          "components": [
            {
              "internalType": "uint256",
              "name": "rawValue",
              "type": "uint256"
            }
          ],
          "internalType": "struct FixedPoint.Unsigned",
          "name": "_collateralRequirementTransformationScalar",
          "type": "tuple"
        },
        {
          "internalType": "bytes32",
          "name": "_transformedPriceIdentifier",
          "type": "bytes32"
        }
      ],
      "stateMutability": "nonpayable",
      "type": "constructor"
    },
    {
      "inputs": [],
      "name": "collateralRequirementTransformationScalar",
      "outputs": [
        {
          "internalType": "uint256",
          "name": "rawValue",
          "type": "uint256"
        }
      ],
      "stateMutability": "view",
      "type": "function"
    },
    {
      "inputs": [],
      "name": "priceTransformationScalar",
      "outputs": [
        {
          "internalType": "uint256",
          "name": "rawValue",
          "type": "uint256"
        }
      ],
      "stateMutability": "view",
      "type": "function"
    },
    {
      "inputs": [],
      "name": "shouldRevert",
      "outputs": [
        {
          "internalType": "bool",
          "name": "",
          "type": "bool"
        }
      ],
      "stateMutability": "view",
      "type": "function"
    },
    {
      "inputs": [],
      "name": "transformedPriceIdentifier",
      "outputs": [
        {
          "internalType": "bytes32",
          "name": "",
          "type": "bytes32"
        }
      ],
      "stateMutability": "view",
      "type": "function"
    },
    {
      "inputs": [
        {
          "internalType": "bool",
          "name": "_shouldRevert",
          "type": "bool"
        }
      ],
      "name": "setShouldRevert",
      "outputs": [],
      "stateMutability": "nonpayable",
      "type": "function"
    },
    {
      "inputs": [
        {
          "components": [
            {
              "internalType": "uint256",
              "name": "rawValue",
              "type": "uint256"
            }
          ],
          "internalType": "struct FixedPoint.Unsigned",
          "name": "oraclePrice",
          "type": "tuple"
        },
        {
          "internalType": "uint256",
          "name": "requestTime",
          "type": "uint256"
        }
      ],
      "name": "transformPrice",
      "outputs": [
        {
          "components": [
            {
              "internalType": "uint256",
              "name": "rawValue",
              "type": "uint256"
            }
          ],
          "internalType": "struct FixedPoint.Unsigned",
          "name": "",
          "type": "tuple"
        }
      ],
      "stateMutability": "view",
      "type": "function"
    },
    {
      "inputs": [
        {
          "components": [
            {
              "internalType": "uint256",
              "name": "rawValue",
              "type": "uint256"
            }
          ],
          "internalType": "struct FixedPoint.Unsigned",
          "name": "price",
          "type": "tuple"
        },
        {
          "components": [
            {
              "internalType": "uint256",
              "name": "rawValue",
              "type": "uint256"
            }
          ],
          "internalType": "struct FixedPoint.Unsigned",
          "name": "collateralRequirement",
          "type": "tuple"
        }
      ],
      "name": "transformCollateralRequirement",
      "outputs": [
        {
          "components": [
            {
              "internalType": "uint256",
              "name": "rawValue",
              "type": "uint256"
            }
          ],
          "internalType": "struct FixedPoint.Unsigned",
          "name": "",
          "type": "tuple"
        }
      ],
      "stateMutability": "view",
      "type": "function"
    },
    {
      "inputs": [
        {
          "internalType": "bytes32",
          "name": "priceIdentifier",
          "type": "bytes32"
        },
        {
          "internalType": "uint256",
          "name": "requestTime",
          "type": "uint256"
        }
      ],
      "name": "transformPriceIdentifier",
      "outputs": [
        {
          "internalType": "bytes32",
          "name": "",
          "type": "bytes32"
        }
      ],
      "stateMutability": "view",
      "type": "function"
    }
  ],
  "bytecode": "0x608060405234801561001057600080fd5b506040516104e53803806104e583398101604081905261002f9161008c565b9151600055516001556002556100c9565b600060208284031215610051578081fd5b604051602081016001600160401b038111828210171561007f57634e487b7160e01b83526041600452602483fd5b6040529151825250919050565b6000806000606084860312156100a0578283fd5b6100aa8585610040565b92506100b98560208601610040565b9150604084015190509250925092565b61040d806100d86000396000f3fe608060405234801561001057600080fd5b50600436106100885760003560e01c8063d3072d821161005b578063d3072d8214610102578063e1a088471461011f578063ed42f02714610129578063f19371b71461013257600080fd5b80630ff49b901461008d5780632a312637146100b4578063397a44b1146100c75780636813d787146100df575b600080fd5b6100a061009b366004610333565b610145565b604051905181526020015b60405180910390f35b6100a06100c23660046102ff565b6101a2565b6001546100d19081565b6040519081526020016100ab565b6101006100ed3660046102be565b6003805460ff1916911515919091179055565b005b60035461010f9060ff1681565b60405190151581526020016100ab565b6000546100d19081565b6100d160025481565b6100d16101403660046102de565b6101ef565b60408051602081019091526000815260035460ff16156101805760405162461bcd60e51b81526004016101779061035d565b60405180910390fd5b6040805160208101909152600054815261019b90849061021f565b9392505050565b60408051602081019091526000815260035460ff16156101d45760405162461bcd60e51b81526004016101779061035d565b6040805160208101909152600154815261019b90839061021f565b60035460009060ff16156102155760405162461bcd60e51b81526004016101779061035d565b5060025492915050565b6040805160208101909152600081526040805160208101909152825184518291670de0b6b3a76400009161025291610265565b61025c919061038c565b90529392505050565b600061019b82846103ac565b600060208284031215610282578081fd5b6040516020810181811067ffffffffffffffff821117156102b157634e487b7160e01b83526041600452602483fd5b6040529135825250919050565b6000602082840312156102cf578081fd5b8135801515811461019b578182fd5b600080604083850312156102f0578081fd5b50508035926020909101359150565b60008060408385031215610311578182fd5b61031b8484610271565b915061032a8460208501610271565b90509250929050565b60008060408385031215610345578182fd5b61034f8484610271565b946020939093013593505050565b60208082526015908201527473657420746f20616c77617973207265766572747360581b604082015260600190565b6000826103a757634e487b7160e01b81526012600452602481fd5b500490565b60008160001904831182151516156103d257634e487b7160e01b81526011600452602481fd5b50029056fea264697066735822122008790ff904b55f4c25164e12d1454abaa66ce71cd1a1aa7093551c040fd1261c64736f6c63430008040033",
  "immutableReferences": {},
  "source": "// SPDX-License-Identifier: AGPL-3.0-only\npragma solidity ^0.8.0;\npragma abicoder v2;\nimport \"../common/financial-product-libraries/FinancialProductLibrary.sol\";\n\n// Implements a simple FinancialProductLibrary to test price and collateral requirement transoformations.\ncontract FinancialProductLibraryTest is FinancialProductLibrary {\n    using FixedPoint for FixedPoint.Unsigned;\n\n    FixedPoint.Unsigned public priceTransformationScalar;\n    FixedPoint.Unsigned public collateralRequirementTransformationScalar;\n    bytes32 public transformedPriceIdentifier;\n    bool public shouldRevert;\n\n    constructor(\n        FixedPoint.Unsigned memory _priceTransformationScalar,\n        FixedPoint.Unsigned memory _collateralRequirementTransformationScalar,\n        bytes32 _transformedPriceIdentifier\n    ) {\n        priceTransformationScalar = _priceTransformationScalar;\n        collateralRequirementTransformationScalar = _collateralRequirementTransformationScalar;\n        transformedPriceIdentifier = _transformedPriceIdentifier;\n    }\n\n    // Set the mocked methods to revert to test failed library computation.\n    function setShouldRevert(bool _shouldRevert) public {\n        shouldRevert = _shouldRevert;\n    }\n\n    // Create a simple price transformation function that scales the input price by the scalar for testing.\n    function transformPrice(FixedPoint.Unsigned memory oraclePrice, uint256 requestTime)\n        public\n        view\n        override\n        returns (FixedPoint.Unsigned memory)\n    {\n        require(!shouldRevert, \"set to always reverts\");\n        return oraclePrice.mul(priceTransformationScalar);\n    }\n\n    // Create a simple collateral requirement transformation that doubles the input collateralRequirement.\n    function transformCollateralRequirement(\n        FixedPoint.Unsigned memory price,\n        FixedPoint.Unsigned memory collateralRequirement\n    ) public view override returns (FixedPoint.Unsigned memory) {\n        require(!shouldRevert, \"set to always reverts\");\n        return collateralRequirement.mul(collateralRequirementTransformationScalar);\n    }\n\n    // Create a simple transformPriceIdentifier function that returns the transformed price identifier.\n    function transformPriceIdentifier(bytes32 priceIdentifier, uint256 requestTime)\n        public\n        view\n        override\n        returns (bytes32)\n    {\n        require(!shouldRevert, \"set to always reverts\");\n        return transformedPriceIdentifier;\n    }\n}\n",
  "sourcePath": "/home/kamto/code/protocol/packages/core/contracts/financial-templates/test/FinancialProductLibraryTest.sol",
  "compiler": {
    "name": "solc",
    "version": "0.8.4+commit.c7e474f2.Emscripten.clang"
  },
  "schemaVersion": "3.3.4",
  "updatedAt": "2021-05-07T15:46:50.346Z",
  "devdoc": {
    "kind": "dev",
    "methods": {
      "transformPrice((uint256),uint256)": {
        "params": {
          "oraclePrice": "input price returned by the DVM to be transformed.",
          "requestTime": "timestamp the oraclePrice was requested at."
        },
        "returns": {
          "_0": "transformedOraclePrice input oraclePrice with the transformation function applied."
        }
      },
      "transformPriceIdentifier(bytes32,uint256)": {
        "params": {
          "priceIdentifier": "input price identifier defined for the financial contract.",
          "requestTime": "timestamp the identifier is to be used at. EG the time that a price request would be sent using this identifier."
        },
        "returns": {
          "_0": "transformedPriceIdentifier input price identifier with the transformation function applied."
        }
      }
    },
    "version": 1
  },
  "userdoc": {
    "kind": "user",
    "methods": {
      "transformPrice((uint256),uint256)": {
        "notice": "Transforms a given oracle price using the financial product libraries transformation logic."
      },
      "transformPriceIdentifier(bytes32,uint256)": {
        "notice": "Transforms a given price identifier using the financial product libraries transformation logic."
      }
    },
    "version": 1
  }
}