{
  "contractName": "GovernorTest",
  "abi": [
    {
      "inputs": [
        {
          "internalType": "address",
          "name": "_timerAddress",
          "type": "address"
        }
      ],
      "stateMutability": "nonpayable",
      "type": "constructor"
    },
    {
      "anonymous": false,
      "inputs": [
        {
          "indexed": true,
          "internalType": "uint256",
          "name": "roleId",
          "type": "uint256"
        },
        {
          "indexed": true,
          "internalType": "address",
          "name": "newMember",
          "type": "address"
        },
        {
          "indexed": true,
          "internalType": "address",
          "name": "manager",
          "type": "address"
        }
      ],
      "name": "AddedSharedMember",
      "type": "event"
    },
    {
      "anonymous": false,
      "inputs": [
        {
          "indexed": true,
          "internalType": "uint256",
          "name": "id",
          "type": "uint256"
        },
        {
          "components": [
            {
              "internalType": "address",
              "name": "to",
              "type": "address"
            },
            {
              "internalType": "uint256",
              "name": "value",
              "type": "uint256"
            },
            {
              "internalType": "bytes",
              "name": "data",
              "type": "bytes"
            }
          ],
          "indexed": false,
          "internalType": "struct Governor.Transaction[]",
          "name": "transactions",
          "type": "tuple[]"
        }
      ],
      "name": "NewProposal",
      "type": "event"
    },
    {
      "anonymous": false,
      "inputs": [
        {
          "indexed": true,
          "internalType": "uint256",
          "name": "id",
          "type": "uint256"
        },
        {
          "indexed": false,
          "internalType": "uint256",
          "name": "transactionIndex",
          "type": "uint256"
        }
      ],
      "name": "ProposalExecuted",
      "type": "event"
    },
    {
      "anonymous": false,
      "inputs": [
        {
          "indexed": true,
          "internalType": "uint256",
          "name": "roleId",
          "type": "uint256"
        },
        {
          "indexed": true,
          "internalType": "address",
          "name": "oldMember",
          "type": "address"
        },
        {
          "indexed": true,
          "internalType": "address",
          "name": "manager",
          "type": "address"
        }
      ],
      "name": "RemovedSharedMember",
      "type": "event"
    },
    {
      "anonymous": false,
      "inputs": [
        {
          "indexed": true,
          "internalType": "uint256",
          "name": "roleId",
          "type": "uint256"
        },
        {
          "indexed": true,
          "internalType": "address",
          "name": "newMember",
          "type": "address"
        },
        {
          "indexed": true,
          "internalType": "address",
          "name": "manager",
          "type": "address"
        }
      ],
      "name": "ResetExclusiveMember",
      "type": "event"
    },
    {
      "inputs": [
        {
          "internalType": "uint256",
          "name": "roleId",
          "type": "uint256"
        },
        {
          "internalType": "address",
          "name": "newMember",
          "type": "address"
        }
      ],
      "name": "addMember",
      "outputs": [],
      "stateMutability": "nonpayable",
      "type": "function"
    },
    {
      "inputs": [
        {
          "internalType": "uint256",
          "name": "id",
          "type": "uint256"
        },
        {
          "internalType": "uint256",
          "name": "transactionIndex",
          "type": "uint256"
        }
      ],
      "name": "executeProposal",
      "outputs": [],
      "stateMutability": "payable",
      "type": "function"
    },
    {
      "inputs": [],
      "name": "getCurrentTime",
      "outputs": [
        {
          "internalType": "uint256",
          "name": "",
          "type": "uint256"
        }
      ],
      "stateMutability": "view",
      "type": "function"
    },
    {
      "inputs": [
        {
          "internalType": "uint256",
          "name": "roleId",
          "type": "uint256"
        }
      ],
      "name": "getMember",
      "outputs": [
        {
          "internalType": "address",
          "name": "",
          "type": "address"
        }
      ],
      "stateMutability": "view",
      "type": "function"
    },
    {
      "inputs": [
        {
          "internalType": "uint256",
          "name": "id",
          "type": "uint256"
        }
      ],
      "name": "getProposal",
      "outputs": [
        {
          "components": [
            {
              "components": [
                {
                  "internalType": "address",
                  "name": "to",
                  "type": "address"
                },
                {
                  "internalType": "uint256",
                  "name": "value",
                  "type": "uint256"
                },
                {
                  "internalType": "bytes",
                  "name": "data",
                  "type": "bytes"
                }
              ],
              "internalType": "struct Governor.Transaction[]",
              "name": "transactions",
              "type": "tuple[]"
            },
            {
              "internalType": "uint256",
              "name": "requestTime",
              "type": "uint256"
            }
          ],
          "internalType": "struct Governor.Proposal",
          "name": "",
          "type": "tuple"
        }
      ],
      "stateMutability": "view",
      "type": "function"
    },
    {
      "inputs": [
        {
          "internalType": "uint256",
          "name": "roleId",
          "type": "uint256"
        },
        {
          "internalType": "address",
          "name": "memberToCheck",
          "type": "address"
        }
      ],
      "name": "holdsRole",
      "outputs": [
        {
          "internalType": "bool",
          "name": "",
          "type": "bool"
        }
      ],
      "stateMutability": "view",
      "type": "function"
    },
    {
      "inputs": [],
      "name": "numProposals",
      "outputs": [
        {
          "internalType": "uint256",
          "name": "",
          "type": "uint256"
        }
      ],
      "stateMutability": "view",
      "type": "function"
    },
    {
      "inputs": [
        {
          "internalType": "uint256",
          "name": "",
          "type": "uint256"
        }
      ],
      "name": "proposals",
      "outputs": [
        {
          "internalType": "uint256",
          "name": "requestTime",
          "type": "uint256"
        }
      ],
      "stateMutability": "view",
      "type": "function"
    },
    {
      "inputs": [
        {
          "components": [
            {
              "internalType": "address",
              "name": "to",
              "type": "address"
            },
            {
              "internalType": "uint256",
              "name": "value",
              "type": "uint256"
            },
            {
              "internalType": "bytes",
              "name": "data",
              "type": "bytes"
            }
          ],
          "internalType": "struct Governor.Transaction[]",
          "name": "transactions",
          "type": "tuple[]"
        }
      ],
      "name": "propose",
      "outputs": [],
      "stateMutability": "nonpayable",
      "type": "function"
    },
    {
      "inputs": [
        {
          "internalType": "uint256",
          "name": "roleId",
          "type": "uint256"
        },
        {
          "internalType": "address",
          "name": "memberToRemove",
          "type": "address"
        }
      ],
      "name": "removeMember",
      "outputs": [],
      "stateMutability": "nonpayable",
      "type": "function"
    },
    {
      "inputs": [
        {
          "internalType": "uint256",
          "name": "roleId",
          "type": "uint256"
        }
      ],
      "name": "renounceMembership",
      "outputs": [],
      "stateMutability": "nonpayable",
      "type": "function"
    },
    {
      "inputs": [
        {
          "internalType": "uint256",
          "name": "roleId",
          "type": "uint256"
        },
        {
          "internalType": "address",
          "name": "newMember",
          "type": "address"
        }
      ],
      "name": "resetMember",
      "outputs": [],
      "stateMutability": "nonpayable",
      "type": "function"
    },
    {
      "inputs": [
        {
          "internalType": "uint256",
          "name": "time",
          "type": "uint256"
        }
      ],
      "name": "setCurrentTime",
      "outputs": [],
      "stateMutability": "nonpayable",
      "type": "function"
    },
    {
      "inputs": [],
      "name": "timerAddress",
      "outputs": [
        {
          "internalType": "address",
          "name": "",
          "type": "address"
        }
      ],
      "stateMutability": "view",
      "type": "function"
    },
    {
      "inputs": [
        {
          "internalType": "bytes32",
          "name": "input",
          "type": "bytes32"
        },
        {
          "internalType": "bytes32",
          "name": "prefix",
          "type": "bytes32"
        },
        {
          "internalType": "uint256",
          "name": "prefixLength",
          "type": "uint256"
        }
      ],
      "name": "addPrefix",
      "outputs": [
        {
          "internalType": "bytes32",
          "name": "",
          "type": "bytes32"
        }
      ],
      "stateMutability": "pure",
      "type": "function"
    },
    {
      "inputs": [
        {
          "internalType": "uint256",
          "name": "v",
          "type": "uint256"
        }
      ],
      "name": "uintToUtf8",
      "outputs": [
        {
          "internalType": "bytes32",
          "name": "ret",
          "type": "bytes32"
        }
      ],
      "stateMutability": "pure",
      "type": "function"
    },
    {
      "inputs": [
        {
          "internalType": "uint256",
          "name": "id",
          "type": "uint256"
        }
      ],
      "name": "constructIdentifier",
      "outputs": [
        {
          "internalType": "bytes32",
          "name": "identifier",
          "type": "bytes32"
        }
      ],
      "stateMutability": "pure",
      "type": "function"
    }
  ],
  "bytecode": "0x60806040523480156200001157600080fd5b50604051620020dc380380620020dc8339810160408190526200003491620002fe565b600180546001600160a01b0383166001600160a01b031991821617909155600280549091169055600080826200006e825b600033620000f7565b6200007a600162000065565b670de0b6b3a764000080831115620000e95760405162461bcd60e51b815260206004820152602760248201527f43616e6e6f7420736574207374617274696e674964206c6172676572207468616044820152660dc406260bc62760cb1b60648201526084015b60405180910390fd5b5050600355506200032e9050565b826000808281526020819052604090206001015460ff1660028111156200012e57634e487b7160e01b600052602160045260246000fd5b146200017d5760405162461bcd60e51b815260206004820152601e60248201527f43616e6e6f74207573652061207072652d6578697374696e6720726f6c6500006044820152606401620000e0565b60008481526020819052604090206001808201805460ff191682800217905550838155620001bb60028201846200026d602090811b6200134f17901c565b60008481526020819052604081206001015460ff166002811115620001f057634e487b7160e01b600052602160045260246000fd5b1415620002665760405162461bcd60e51b815260206004820152603c60248201527f417474656d7074656420746f2075736520616e20696e76616c696420726f6c6560448201527f20746f206d616e61676520616e206578636c757369766520726f6c65000000006064820152608401620000e0565b5050505050565b6200027982826200027d565b5050565b6001600160a01b038116620002e15760405162461bcd60e51b815260206004820152602360248201527f43616e6e6f742073657420616e206578636c757369766520726f6c6520746f2060448201526203078360ec1b6064820152608401620000e0565b81546001600160a01b0319166001600160a01b0391909116179055565b60006020828403121562000310578081fd5b81516001600160a01b038116811462000327578182fd5b9392505050565b611d9e806200033e6000396000f3fe6080604052600436106100fe5760003560e01c806374d0a67611610095578063aaa14ca311610064578063aaa14ca31461029d578063ab3545e5146102bd578063c62fdef7146102dd578063c7f758a8146102fd578063d97c05be1461032a57600080fd5b806374d0a6761461020d5780637bc1f2061461022d5780637cdc1cb91461024d57806380b8ae8e1461027d57600080fd5b806329cb924d116100d157806329cb924d146101a3578063400e3949146101b85780636a33cabe146101cd5780636be7658b146101ed57600080fd5b8063013cf08b146101035780631ab76712146101365780631c39c38d1461014b57806322f8e56614610183575b600080fd5b34801561010f57600080fd5b5061012361011e3660046118d7565b61034a565b6040519081526020015b60405180910390f35b61014961014436600461191e565b610373565b005b34801561015757600080fd5b5060015461016b906001600160a01b031681565b6040516001600160a01b03909116815260200161012d565b34801561018f57600080fd5b5061014961019e3660046118d7565b6107c6565b3480156101af57600080fd5b5061012361083c565b3480156101c457600080fd5b50600354610123565b3480156101d957600080fd5b506101236101e83660046118d7565b6108e0565b3480156101f957600080fd5b506101496102083660046118ef565b6108f1565b34801561021957600080fd5b506101496102283660046118ef565b6109d5565b34801561023957600080fd5b50610123610248366004611894565b610ab9565b34801561025957600080fd5b5061026d6102683660046118ef565b610ace565b604051901515815260200161012d565b34801561028957600080fd5b506101236102983660046118d7565b610bb1565b3480156102a957600080fd5b506101496102b83660046118d7565b610bbc565b3480156102c957600080fd5b5061016b6102d83660046118d7565b610c86565b3480156102e957600080fd5b506101496102f83660046117d2565b610d01565b34801561030957600080fd5b5061031d6103183660046118d7565b6110fa565b60405161012d9190611b22565b34801561033657600080fd5b506101496103453660046118ef565b61126b565b6003818154811061035a57600080fd5b6000918252602090912060016002909202010154905081565b60006003838154811061039657634e487b7160e01b600052603260045260246000fd5b9060005260206000209060020201905060006103b061135d565b6001600160a01b031663c9280f066103c7866113e3565b60018501546040516001600160e01b031960e085901b1681526004810192909252602482015260440160206040518083038186803b15801561040857600080fd5b505afa15801561041c573d6000803e3d6000fd5b505050506040513d601f19601f8201168201806040525081019061044091906118bf565b9050600082600001848154811061046757634e487b7160e01b600052603260045260246000fd5b90600052602060002090600302016040518060600160405290816000820160009054906101000a90046001600160a01b03166001600160a01b03166001600160a01b03168152602001600182015481526020016002820180546104c990611cad565b80601f01602080910402602001604051908101604052809291908181526020018280546104f590611cad565b80156105425780601f1061051757610100808354040283529160200191610542565b820191906000526020600020905b81548152906001019060200180831161052557829003601f168201915b5050505050815250509050836000148061059f5750600083610565866001611406565b8154811061058357634e487b7160e01b600052603260045260246000fd5b60009182526020909120600390910201546001600160a01b0316145b6105f05760405162461bcd60e51b815260206004820152601c60248201527f50726576696f7573207478206e6f74207965742065786563757465640000000060448201526064015b60405180910390fd5b80516001600160a01b031661063d5760405162461bcd60e51b8152602060048201526013602482015272151e08185b1c9958591e48195e1958dd5d1959606a1b60448201526064016105e7565b816106825760405162461bcd60e51b8152602060048201526015602482015274141c9bdc1bdcd85b081dd85cc81c995a9958dd1959605a1b60448201526064016105e7565b806020015134146106d55760405162461bcd60e51b815260206004820152601d60248201527f4d7573742073656e6420657861637420616d6f756e74206f662045544800000060448201526064016105e7565b8260000184815481106106f857634e487b7160e01b600052603260045260246000fd5b60009182526020822060039091020180546001600160a01b0319168155600181018290559061072a6002830182611625565b5050610743816000015182602001518360400151611419565b6107855760405162461bcd60e51b8152602060048201526013602482015272151e08195e1958dd5d1a5bdb8819985a5b1959606a1b60448201526064016105e7565b847ff758fc91e01b00ea6b4a6138756f7f28e021f9bf21db6dbf8c36c88eb737257a856040516107b791815260200190565b60405180910390a25050505050565b6001546001600160a01b03166107db57600080fd5b60015460405163117c72b360e11b8152600481018390526001600160a01b03909116906322f8e56690602401600060405180830381600087803b15801561082157600080fd5b505af1158015610835573d6000803e3d6000fd5b5050505050565b6001546000906001600160a01b0316156108db57600160009054906101000a90046001600160a01b03166001600160a01b03166329cb924d6040518163ffffffff1660e01b815260040160206040518083038186803b15801561089e57600080fd5b505afa1580156108b2573d6000803e3d6000fd5b505050506040513d601f19601f820116820180604052508101906108d691906118bf565b905090565b504290565b60006108eb82611436565b92915050565b81600260008281526020819052604090206001015460ff16600281111561092857634e487b7160e01b600052602160045260246000fd5b146109455760405162461bcd60e51b81526004016105e790611a50565b60008381526020819052604090205483906109609033610ace565b61097c5760405162461bcd60e51b81526004016105e790611ade565b600084815260208190526040902061099790600301846114a5565b60405133906001600160a01b0385169086907feb3e33034c392e69263b04ec0fa376dc12784a41b6676c7f31b936cbc0fbb5af90600090a450505050565b81600260008281526020819052604090206001015460ff166002811115610a0c57634e487b7160e01b600052602160045260246000fd5b14610a295760405162461bcd60e51b81526004016105e790611a50565b6000838152602081905260409020548390610a449033610ace565b610a605760405162461bcd60e51b81526004016105e790611ade565b6000848152602081905260409020610a7b90600301846114c7565b60405133906001600160a01b0385169086907f63502af7324ff6db91ab38f8236a648727d9385ea6c782073dd4882d8a61a48f90600090a450505050565b6000610ac6848484611542565b949350505050565b600082815260208190526040812060018082015460ff166002811115610b0457634e487b7160e01b600052602160045260246000fd5b1415610b265760028101546001600160a01b038481169116145b9150506108eb565b6002600182015460ff166002811115610b4f57634e487b7160e01b600052602160045260246000fd5b1415610b78576001600160a01b038316600090815260038201602052604090205460ff16610b1e565b60405162461bcd60e51b815260206004820152600e60248201526d125b9d985b1a59081c9bdb19525960921b60448201526064016105e7565b60006108eb826113e3565b80600260008281526020819052604090206001015460ff166002811115610bf357634e487b7160e01b600052602160045260246000fd5b14610c105760405162461bcd60e51b81526004016105e790611a50565b81610c1b8133610ace565b610c375760405162461bcd60e51b81526004016105e790611a9c565b6000838152602081905260409020610c5290600301336114a5565b6040513390819085907feb3e33034c392e69263b04ec0fa376dc12784a41b6676c7f31b936cbc0fbb5af90600090a4505050565b600081600160008281526020819052604090206001015460ff166002811115610cbf57634e487b7160e01b600052602160045260246000fd5b14610cdc5760405162461bcd60e51b81526004016105e790611a01565b6000838152602081905260409020600201546001600160a01b03165b91505b50919050565b6001610d0d8133610ace565b610d295760405162461bcd60e51b81526004016105e790611a9c565b6003546000610d3661083c565b60038054600101808255600082815292935084908110610d6657634e487b7160e01b600052603260045260246000fd5b9060005260206000209060020201905081816001018190555060005b8551811015610f7c5760006001600160a01b0316868281518110610db657634e487b7160e01b600052603260045260246000fd5b6020026020010151600001516001600160a01b03161415610e195760405162461bcd60e51b815260206004820152601e60248201527f5468652060746f6020616464726573732063616e6e6f7420626520307830000060448201526064016105e7565b6000868281518110610e3b57634e487b7160e01b600052603260045260246000fd5b602002602001015160400151511115610ed857610e8c868281518110610e7157634e487b7160e01b600052603260045260246000fd5b6020026020010151600001516001600160a01b03163b151590565b610ed85760405162461bcd60e51b815260206004820152601d60248201527f454f412063616e2774206163636570742074782077697468206461746100000060448201526064016105e7565b81600001868281518110610efc57634e487b7160e01b600052603260045260246000fd5b602090810291909101810151825460018082018555600094855293839020825160039092020180546001600160a01b0319166001600160a01b03909216919091178155818301519381019390935560408101518051919392610f6692600285019290910190611662565b5050508080610f7490611ce2565b915050610d82565b506000610f88846113e3565b90506000610f9461135d565b90506000610fa061155f565b6040516310a7e20160e01b8152600481018590529091506001600160a01b038216906310a7e20190602401600060405180830381600087803b158015610fe557600080fd5b505af1158015610ff9573d6000803e3d6000fd5b50506040516368ad8ae360e01b815260048101869052602481018890526001600160a01b03851692506368ad8ae39150604401600060405180830381600087803b15801561104657600080fd5b505af115801561105a573d6000803e3d6000fd5b5050604051638e0d3ca760e01b8152600481018690526001600160a01b0384169250638e0d3ca79150602401600060405180830381600087803b1580156110a057600080fd5b505af11580156110b4573d6000803e3d6000fd5b50505050857f082d2a29e61e3d0508e5617570bed4c7c58ae73d4719b31052d8638812bc4c0c896040516110e8919061193f565b60405180910390a25050505050505050565b6040805180820190915260608152600060208201526003828154811061113057634e487b7160e01b600052603260045260246000fd5b906000526020600020906002020160405180604001604052908160008201805480602002602001604051908101604052809291908181526020016000905b82821015611252576000848152602090819020604080516060810182526003860290920180546001600160a01b03168352600181015493830193909352600283018054929392918401916111c190611cad565b80601f01602080910402602001604051908101604052809291908181526020018280546111ed90611cad565b801561123a5780601f1061120f5761010080835404028352916020019161123a565b820191906000526020600020905b81548152906001019060200180831161121d57829003601f168201915b5050505050815250508152602001906001019061116e565b5050505081526020016001820154815250509050919050565b81600160008281526020819052604090206001015460ff1660028111156112a257634e487b7160e01b600052602160045260246000fd5b146112bf5760405162461bcd60e51b81526004016105e790611a01565b60008381526020819052604090205483906112da9033610ace565b6112f65760405162461bcd60e51b81526004016105e790611ade565b600084815260208190526040902061131190600201846115a6565b60405133906001600160a01b0385169086907f3b855c56b409b671c7112789d022675eb639d0bcb8896f1b6197c132f799e74690600090a450505050565b61135982826115a6565b5050565b6002546040516302abf57960e61b8152654f7261636c6560d01b60048201526000916001600160a01b03169063aafd5e40906024015b60206040518083038186803b1580156113ab57600080fd5b505afa1580156113bf573d6000803e3d6000fd5b505050506040513d601f19601f820116820180604052508101906108d691906117b6565b6000806113ef83611436565b9050610cf88165020b236b4b7160d51b6006611542565b60006114128284611c96565b9392505050565b6000806020830183516000808284898b5af1979650505050505050565b600080826114495750600360fc1b6108eb565b6008600a60305b851561149c5792821c9260006114668388611cfd565b905060006114748383611c4b565b905061148185601f611c77565b81901b95909517946114938489611c63565b97505050611450565b50505092915050565b6001600160a01b0316600090815260209190915260409020805460ff19169055565b6001600160a01b03811661151d5760405162461bcd60e51b815260206004820152601f60248201527f43616e6e6f74206164642030783020746f20612073686172656420726f6c650060448201526064016105e7565b6001600160a01b0316600090815260209190915260409020805460ff19166001179055565b600080611550836008611c77565b85901c84179150509392505050565b6002546040516302abf57960e61b8152721259195b9d1a599a595c95da1a5d195b1a5cdd606a1b60048201526000916001600160a01b03169063aafd5e4090602401611393565b6001600160a01b0381166116085760405162461bcd60e51b815260206004820152602360248201527f43616e6e6f742073657420616e206578636c757369766520726f6c6520746f2060448201526203078360ec1b60648201526084016105e7565b81546001600160a01b0319166001600160a01b0391909116179055565b50805461163190611cad565b6000825580601f10611641575050565b601f01602090049060005260206000209081019061165f91906116e6565b50565b82805461166e90611cad565b90600052602060002090601f01602090048101928261169057600085556116d6565b82601f106116a957805160ff19168380011785556116d6565b828001600101855582156116d6579182015b828111156116d65782518255916020019190600101906116bb565b506116e29291506116e6565b5090565b5b808211156116e257600081556001016116e7565b60006060828403121561170c578081fd5b611714611bf1565b9050813561172181611d53565b815260208281013581830152604083013567ffffffffffffffff8082111561174857600080fd5b818501915085601f83011261175c57600080fd5b81358181111561176e5761176e611d3d565b611780601f8201601f19168501611c1a565b9150808252868482850101111561179657600080fd5b808484018584013760008482840101525080604085015250505092915050565b6000602082840312156117c7578081fd5b815161141281611d53565b600060208083850312156117e4578182fd5b823567ffffffffffffffff808211156117fb578384fd5b818501915085601f83011261180e578384fd5b81358181111561182057611820611d3d565b8060051b61182f858201611c1a565b8281528581019085870183870188018b1015611849578889fd5b8893505b848410156118865780358681111561186357898afd5b6118718c8a838b01016116fb565b8452506001939093019291870191870161184d565b509998505050505050505050565b6000806000606084860312156118a8578182fd5b505081359360208301359350604090920135919050565b6000602082840312156118d0578081fd5b5051919050565b6000602082840312156118e8578081fd5b5035919050565b60008060408385031215611901578182fd5b82359150602083013561191381611d53565b809150509250929050565b60008060408385031215611930578182fd5b50508035926020909101359150565b60006020808301818452808551808352604092508286019150828160051b870101848801865b838110156119f357888303603f19018552815180516001600160a01b0316845287810151888501528601516060878501819052815190850181905289905b808210156119c1578282018a015186830160800152908901906119a3565b808211156119d2578a608082880101525b96890196601f01601f19169490940160800193505090860190600101611965565b509098975050505050505050565b6020808252602f908201527f4d7573742062652063616c6c6564206f6e20616e20696e697469616c697a656460408201526e204578636c757369766520726f6c6560881b606082015260800190565b6020808252602c908201527f4d7573742062652063616c6c6564206f6e20616e20696e697469616c697a656460408201526b2053686172656420726f6c6560a01b606082015260800190565b60208082526022908201527f53656e64657220646f6573206e6f7420686f6c6420726571756972656420726f6040820152616c6560f01b606082015260800190565b60208082526024908201527f43616e206f6e6c792062652063616c6c6564206279206120726f6c65206d616e60408201526330b3b2b960e11b606082015260800190565b600060208083526060808401855160408085880152828251808552608094508489019150848160051b8a01018785019450885b82811015611bdb578a8203607f19018452855180516001600160a01b03168352898101518a84015285015185830189905280518984018190528b5b81811015611bab578281018c01518582018b01528b01611b90565b81811115611bbb578c8a83870101525b50968a0196948a0194601f01601f19169290920187019150600101611b55565b5096909901519190970152509195945050505050565b6040516060810167ffffffffffffffff81118282101715611c1457611c14611d3d565b60405290565b604051601f8201601f1916810167ffffffffffffffff81118282101715611c4357611c43611d3d565b604052919050565b60008219821115611c5e57611c5e611d11565b500190565b600082611c7257611c72611d27565b500490565b6000816000190483118215151615611c9157611c91611d11565b500290565b600082821015611ca857611ca8611d11565b500390565b600181811c90821680611cc157607f821691505b60208210811415610cfb57634e487b7160e01b600052602260045260246000fd5b6000600019821415611cf657611cf6611d11565b5060010190565b600082611d0c57611d0c611d27565b500690565b634e487b7160e01b600052601160045260246000fd5b634e487b7160e01b600052601260045260246000fd5b634e487b7160e01b600052604160045260246000fd5b6001600160a01b038116811461165f57600080fdfea2646970667358221220c368ae1b4224f54d9c31269af97d17f3d8a7f1f04fbce2eca62e1e52ca68c41e64736f6c63430008040033",
  "immutableReferences": {},
  "source": "// SPDX-License-Identifier: AGPL-3.0-only\npragma solidity ^0.8.0;\n\npragma abicoder v2;\n\nimport \"../Governor.sol\";\n\n// GovernorTest exposes internal methods in the Governor for testing.\ncontract GovernorTest is Governor {\n    constructor(address _timerAddress) Governor(address(0), 0, _timerAddress) {}\n\n    function addPrefix(\n        bytes32 input,\n        bytes32 prefix,\n        uint256 prefixLength\n    ) external pure returns (bytes32) {\n        return _addPrefix(input, prefix, prefixLength);\n    }\n\n    function uintToUtf8(uint256 v) external pure returns (bytes32 ret) {\n        return _uintToUtf8(v);\n    }\n\n    function constructIdentifier(uint256 id) external pure returns (bytes32 identifier) {\n        return _constructIdentifier(id);\n    }\n}\n",
  "sourcePath": "/home/kamto/code/protocol/packages/core/contracts/oracle/implementation/test/GovernorTest.sol",
  "compiler": {
    "name": "solc",
    "version": "0.8.4+commit.c7e474f2.Emscripten.clang"
  },
  "schemaVersion": "3.3.4",
  "updatedAt": "2021-05-07T15:46:50.469Z",
  "devdoc": {
    "kind": "dev",
    "methods": {
      "addMember(uint256,address)": {
        "details": "Reverts if `roleId` does not represent an initialized, SharedRole or if the caller is not a member of the managing role for `roleId`.",
        "params": {
          "newMember": "the new SharedRole member.",
          "roleId": "the SharedRole membership to modify."
        }
      },
      "executeProposal(uint256,uint256)": {
        "details": "This can be called by any address. Caller is expected to send enough ETH to execute payable transactions.",
        "params": {
          "id": "unique id for the executed proposal.",
          "transactionIndex": "unique transaction index for the executed proposal."
        }
      },
      "getCurrentTime()": {
        "returns": {
          "_0": "uint for the current Testable timestamp."
        }
      },
      "getMember(uint256)": {
        "details": "Reverts if `roleId` does not represent an initialized, exclusive role.",
        "params": {
          "roleId": "the ExclusiveRole membership to check."
        },
        "returns": {
          "_0": "the address of the current ExclusiveRole member."
        }
      },
      "getProposal(uint256)": {
        "details": "after a proposal is executed, its data will be zeroed out, except for the request time.",
        "params": {
          "id": "uniquely identify the identity of the proposal."
        },
        "returns": {
          "_0": "proposal struct containing transactions[] and requestTime."
        }
      },
      "holdsRole(uint256,address)": {
        "details": "Reverts if roleId does not correspond to an initialized role.",
        "params": {
          "memberToCheck": "the address to check.",
          "roleId": "the Role to check."
        },
        "returns": {
          "_0": "True if `memberToCheck` is a member of `roleId`."
        }
      },
      "numProposals()": {
        "returns": {
          "_0": "uint256 representing the current number of proposals."
        }
      },
      "propose((address,uint256,bytes)[])": {
        "details": "You can create the data portion of each transaction by doing the following: ``` const truffleContractInstance = await TruffleContract.deployed() const data = truffleContractInstance.methods.methodToCall(arg1, arg2).encodeABI() ``` Note: this method must be public because of a solidity limitation that disallows structs arrays to be passed to external functions.",
        "params": {
          "transactions": "list of transactions that are being proposed."
        }
      },
      "removeMember(uint256,address)": {
        "details": "Reverts if `roleId` does not represent an initialized, SharedRole or if the caller is not a member of the managing role for `roleId`.",
        "params": {
          "memberToRemove": "the current SharedRole member to remove.",
          "roleId": "the SharedRole membership to modify."
        }
      },
      "renounceMembership(uint256)": {
        "details": "Reverts if the caller is not a member of the role for `roleId` or if `roleId` is not an initialized, SharedRole.",
        "params": {
          "roleId": "the SharedRole membership to modify."
        }
      },
      "resetMember(uint256,address)": {
        "details": "Reverts if the caller is not a member of the managing role for `roleId` or if `roleId` is not an initialized, ExclusiveRole.",
        "params": {
          "newMember": "the new ExclusiveRole member.",
          "roleId": "the ExclusiveRole membership to modify."
        }
      },
      "setCurrentTime(uint256)": {
        "details": "Will revert if not running in test mode.",
        "params": {
          "time": "timestamp to set current Testable time to."
        }
      }
    },
    "version": 1
  },
  "userdoc": {
    "kind": "user",
    "methods": {
      "addMember(uint256,address)": {
        "notice": "Adds `newMember` to the shared role, `roleId`."
      },
      "executeProposal(uint256,uint256)": {
        "notice": "Executes a proposed governance action that has been approved by voters."
      },
      "getCurrentTime()": {
        "notice": "Gets the current time. Will return the last time set in `setCurrentTime` if running in test mode. Otherwise, it will return the block timestamp."
      },
      "getMember(uint256)": {
        "notice": "Gets the current holder of the exclusive role, `roleId`."
      },
      "getProposal(uint256)": {
        "notice": "Gets the proposal data for a particular id."
      },
      "holdsRole(uint256,address)": {
        "notice": "Whether `memberToCheck` is a member of roleId."
      },
      "numProposals()": {
        "notice": "Gets the total number of proposals (includes executed and non-executed)."
      },
      "propose((address,uint256,bytes)[])": {
        "notice": "Proposes a new governance action. Can only be called by the holder of the Proposer role."
      },
      "removeMember(uint256,address)": {
        "notice": "Removes `memberToRemove` from the shared role, `roleId`."
      },
      "renounceMembership(uint256)": {
        "notice": "Removes caller from the role, `roleId`."
      },
      "resetMember(uint256,address)": {
        "notice": "Changes the exclusive role holder of `roleId` to `newMember`."
      },
      "setCurrentTime(uint256)": {
        "notice": "Sets the current time."
      }
    },
    "version": 1
  }
}