{
  "contractName": "LongShortPair",
  "abi": [
    {
      "inputs": [
        {
          "internalType": "uint64",
          "name": "_expirationTimestamp",
          "type": "uint64"
        },
        {
          "internalType": "uint256",
          "name": "_collateralPerPair",
          "type": "uint256"
        },
        {
          "internalType": "bytes32",
          "name": "_priceIdentifier",
          "type": "bytes32"
        },
        {
          "internalType": "contract ExpandedIERC20",
          "name": "_longToken",
          "type": "address"
        },
        {
          "internalType": "contract ExpandedIERC20",
          "name": "_shortToken",
          "type": "address"
        },
        {
          "internalType": "contract IERC20",
          "name": "_collateralToken",
          "type": "address"
        },
        {
          "internalType": "contract FinderInterface",
          "name": "_finder",
          "type": "address"
        },
        {
          "internalType": "contract LongShortPairFinancialProductLibrary",
          "name": "_financialProductLibrary",
          "type": "address"
        },
        {
          "internalType": "bytes",
          "name": "_customAncillaryData",
          "type": "bytes"
        },
        {
          "internalType": "uint256",
          "name": "_prepaidProposerReward",
          "type": "uint256"
        },
        {
          "internalType": "address",
          "name": "_timerAddress",
          "type": "address"
        }
      ],
      "stateMutability": "nonpayable",
      "type": "constructor"
    },
    {
      "anonymous": false,
      "inputs": [
        {
          "indexed": true,
          "internalType": "address",
          "name": "caller",
          "type": "address"
        }
      ],
      "name": "ContractExpired",
      "type": "event"
    },
    {
      "anonymous": false,
      "inputs": [
        {
          "indexed": true,
          "internalType": "address",
          "name": "sponsor",
          "type": "address"
        },
        {
          "indexed": false,
          "internalType": "uint256",
          "name": "colllateralReturned",
          "type": "uint256"
        },
        {
          "indexed": false,
          "internalType": "uint256",
          "name": "longTokens",
          "type": "uint256"
        },
        {
          "indexed": false,
          "internalType": "uint256",
          "name": "shortTokens",
          "type": "uint256"
        }
      ],
      "name": "PositionSettled",
      "type": "event"
    },
    {
      "anonymous": false,
      "inputs": [
        {
          "indexed": true,
          "internalType": "address",
          "name": "sponsor",
          "type": "address"
        },
        {
          "indexed": true,
          "internalType": "uint256",
          "name": "collateralUsed",
          "type": "uint256"
        },
        {
          "indexed": true,
          "internalType": "uint256",
          "name": "tokensMinted",
          "type": "uint256"
        }
      ],
      "name": "TokensCreated",
      "type": "event"
    },
    {
      "anonymous": false,
      "inputs": [
        {
          "indexed": true,
          "internalType": "address",
          "name": "sponsor",
          "type": "address"
        },
        {
          "indexed": true,
          "internalType": "uint256",
          "name": "collateralReturned",
          "type": "uint256"
        },
        {
          "indexed": true,
          "internalType": "uint256",
          "name": "tokensRedeemed",
          "type": "uint256"
        }
      ],
      "name": "TokensRedeemed",
      "type": "event"
    },
    {
      "inputs": [],
      "name": "collateralPerPair",
      "outputs": [
        {
          "internalType": "uint256",
          "name": "",
          "type": "uint256"
        }
      ],
      "stateMutability": "view",
      "type": "function"
    },
    {
      "inputs": [],
      "name": "collateralToken",
      "outputs": [
        {
          "internalType": "contract IERC20",
          "name": "",
          "type": "address"
        }
      ],
      "stateMutability": "view",
      "type": "function"
    },
    {
      "inputs": [],
      "name": "contractState",
      "outputs": [
        {
          "internalType": "enum LongShortPair.ContractState",
          "name": "",
          "type": "uint8"
        }
      ],
      "stateMutability": "view",
      "type": "function"
    },
    {
      "inputs": [],
      "name": "customAncillaryData",
      "outputs": [
        {
          "internalType": "bytes",
          "name": "",
          "type": "bytes"
        }
      ],
      "stateMutability": "view",
      "type": "function"
    },
    {
      "inputs": [],
      "name": "expirationTimestamp",
      "outputs": [
        {
          "internalType": "uint64",
          "name": "",
          "type": "uint64"
        }
      ],
      "stateMutability": "view",
      "type": "function"
    },
    {
      "inputs": [],
      "name": "expiryPercentLong",
      "outputs": [
        {
          "internalType": "uint256",
          "name": "",
          "type": "uint256"
        }
      ],
      "stateMutability": "view",
      "type": "function"
    },
    {
      "inputs": [],
      "name": "expiryPrice",
      "outputs": [
        {
          "internalType": "int256",
          "name": "",
          "type": "int256"
        }
      ],
      "stateMutability": "view",
      "type": "function"
    },
    {
      "inputs": [],
      "name": "financialProductLibrary",
      "outputs": [
        {
          "internalType": "contract LongShortPairFinancialProductLibrary",
          "name": "",
          "type": "address"
        }
      ],
      "stateMutability": "view",
      "type": "function"
    },
    {
      "inputs": [],
      "name": "finder",
      "outputs": [
        {
          "internalType": "contract FinderInterface",
          "name": "",
          "type": "address"
        }
      ],
      "stateMutability": "view",
      "type": "function"
    },
    {
      "inputs": [],
      "name": "getCurrentTime",
      "outputs": [
        {
          "internalType": "uint256",
          "name": "",
          "type": "uint256"
        }
      ],
      "stateMutability": "view",
      "type": "function"
    },
    {
      "inputs": [],
      "name": "longToken",
      "outputs": [
        {
          "internalType": "contract ExpandedIERC20",
          "name": "",
          "type": "address"
        }
      ],
      "stateMutability": "view",
      "type": "function"
    },
    {
      "inputs": [],
      "name": "prepaidProposerReward",
      "outputs": [
        {
          "internalType": "uint256",
          "name": "",
          "type": "uint256"
        }
      ],
      "stateMutability": "view",
      "type": "function"
    },
    {
      "inputs": [],
      "name": "priceIdentifier",
      "outputs": [
        {
          "internalType": "bytes32",
          "name": "",
          "type": "bytes32"
        }
      ],
      "stateMutability": "view",
      "type": "function"
    },
    {
      "inputs": [
        {
          "internalType": "uint256",
          "name": "time",
          "type": "uint256"
        }
      ],
      "name": "setCurrentTime",
      "outputs": [],
      "stateMutability": "nonpayable",
      "type": "function"
    },
    {
      "inputs": [],
      "name": "shortToken",
      "outputs": [
        {
          "internalType": "contract ExpandedIERC20",
          "name": "",
          "type": "address"
        }
      ],
      "stateMutability": "view",
      "type": "function"
    },
    {
      "inputs": [],
      "name": "timerAddress",
      "outputs": [
        {
          "internalType": "address",
          "name": "",
          "type": "address"
        }
      ],
      "stateMutability": "view",
      "type": "function"
    },
    {
      "inputs": [
        {
          "internalType": "uint256",
          "name": "tokensToCreate",
          "type": "uint256"
        }
      ],
      "name": "create",
      "outputs": [
        {
          "internalType": "uint256",
          "name": "collateralUsed",
          "type": "uint256"
        }
      ],
      "stateMutability": "nonpayable",
      "type": "function"
    },
    {
      "inputs": [
        {
          "internalType": "uint256",
          "name": "tokensToRedeem",
          "type": "uint256"
        }
      ],
      "name": "redeem",
      "outputs": [
        {
          "internalType": "uint256",
          "name": "collateralReturned",
          "type": "uint256"
        }
      ],
      "stateMutability": "nonpayable",
      "type": "function"
    },
    {
      "inputs": [
        {
          "internalType": "uint256",
          "name": "longTokensToRedeem",
          "type": "uint256"
        },
        {
          "internalType": "uint256",
          "name": "shortTokensToRedeem",
          "type": "uint256"
        }
      ],
      "name": "settle",
      "outputs": [
        {
          "internalType": "uint256",
          "name": "collateralReturned",
          "type": "uint256"
        }
      ],
      "stateMutability": "nonpayable",
      "type": "function"
    },
    {
      "inputs": [],
      "name": "expire",
      "outputs": [],
      "stateMutability": "nonpayable",
      "type": "function"
    },
    {
      "inputs": [
        {
          "internalType": "address",
          "name": "sponsor",
          "type": "address"
        }
      ],
      "name": "getPositionTokens",
      "outputs": [
        {
          "internalType": "uint256",
          "name": "",
          "type": "uint256"
        },
        {
          "internalType": "uint256",
          "name": "",
          "type": "uint256"
        }
      ],
      "stateMutability": "view",
      "type": "function"
    }
  ],
  "bytecode": "0x60806040523480156200001157600080fd5b50604051620024ea380380620024ea8339810160408190526200003491620008f9565b60008054600160a01b6001600160a01b038481166001600160a81b03199093169290921717909155600880546001600160a01b0319169187169190911790556200007d62000536565b8b6001600160401b031611620000da5760405162461bcd60e51b815260206004820152601c60248201527f45787069726174696f6e2074696d657374616d7020696e20706173740000000060448201526064015b60405180910390fd5b620000e4620005db565b6001600160a01b03166390978d1b8a6040518263ffffffff1660e01b81526004016200011291815260200190565b60206040518083038186803b1580156200012b57600080fd5b505afa15801562000140573d6000803e3d6000fd5b505050506040513d601f19601f8201168201806040525081019062000166919062000880565b620001b45760405162461bcd60e51b815260206004820152601960248201527f4964656e746966696572206e6f742072656769737465726564000000000000006044820152606401620000d1565b6000620001c06200067c565b6001600160a01b031614156200020a5760405162461bcd60e51b815260206004820152600e60248201526d24b73b30b634b2103334b73232b960911b6044820152606401620000d1565b6001600160a01b038416620002625760405162461bcd60e51b815260206004820152601f60248201527f496e76616c69642046696e616e6369616c50726f647563744c696272617279006044820152606401620000d1565b6200026c620006c1565b604051631d1d5b3960e11b81526001600160a01b0388811660048301529190911690633a3ab6729060240160206040518083038186803b158015620002b057600080fd5b505afa158015620002c5573d6000803e3d6000fd5b505050506040513d601f19601f82011682018060405250810190620002eb919062000880565b620003395760405162461bcd60e51b815260206004820152601a60248201527f436f6c6c61746572616c206e6f742077686974656c69737465640000000000006044820152606401620000d1565b60008054600160b01b600160f01b031916600160b01b6001600160401b038e160217815560018b905560048a9055600680546001600160a01b03199081166001600160a01b038c8116919091179092556007805482168b84161790556005805482168a841617905560098054909116918716919091179055620003bb6200067c565b9050806001600160a01b031663c371dda76040518163ffffffff1660e01b815260040160206040518083038186803b158015620003f757600080fd5b505afa1580156200040c573d6000803e3d6000fd5b505050506040513d601f19601f82011682018060405250810190620004329190620008e0565b60405163af5d2f3960e01b81526001600160a01b0383169063af5d2f3990620004629088903090600401620009e4565b60006040518083038186803b1580156200047b57600080fd5b505afa15801562000490573d6000803e3d6000fd5b505050506040513d6000823e601f3d908101601f19168201604052620004ba9190810190620008a2565b5111156200050b5760405162461bcd60e51b815260206004820152601760248201527f416e63696c6c617279204461746120746f6f206c6f6e670000000000000000006044820152606401620000d1565b83516200052090600a90602087019062000713565b505050600b555062000ac9975050505050505050565b600080546001600160a01b031615620005d65760008054906101000a90046001600160a01b03166001600160a01b03166329cb924d6040518163ffffffff1660e01b815260040160206040518083038186803b1580156200059657600080fd5b505afa158015620005ab573d6000803e3d6000fd5b505050506040513d601f19601f82011682018060405250810190620005d19190620008e0565b905090565b504290565b6008546040516302abf57960e61b81527f4964656e74696669657257686974656c6973740000000000000000000000000060048201526000916001600160a01b03169063aafd5e40906024015b60206040518083038186803b1580156200064157600080fd5b505afa15801562000656573d6000803e3d6000fd5b505050506040513d601f19601f82011682018060405250810190620005d191906200085a565b6008546040516302abf57960e61b81526f4f7074696d69737469634f7261636c6560801b60048201526000916001600160a01b03169063aafd5e409060240162000628565b6008546040516302abf57960e61b81527f436f6c6c61746572616c57686974656c6973740000000000000000000000000060048201526000916001600160a01b03169063aafd5e409060240162000628565b828054620007219062000a5d565b90600052602060002090601f01602090048101928262000745576000855562000790565b82601f106200076057805160ff191683800117855562000790565b8280016001018555821562000790579182015b828111156200079057825182559160200191906001019062000773565b506200079e929150620007a2565b5090565b5b808211156200079e5760008155600101620007a3565b8051620007c68162000ab0565b919050565b600082601f830112620007dc578081fd5b81516001600160401b0380821115620007f957620007f962000a9a565b604051601f8301601f19908116603f0116810190828211818310171562000824576200082462000a9a565b816040528381528660208588010111156200083d578485fd5b6200085084602083016020890162000a2a565b9695505050505050565b6000602082840312156200086c578081fd5b8151620008798162000ab0565b9392505050565b60006020828403121562000892578081fd5b8151801515811462000879578182fd5b600060208284031215620008b4578081fd5b81516001600160401b03811115620008ca578182fd5b620008d884828501620007cb565b949350505050565b600060208284031215620008f2578081fd5b5051919050565b60008060008060008060008060008060006101608c8e0312156200091b578687fd5b8b516001600160401b03808216821462000933578889fd5b819c5060208e01519b5060408e01519a506200095260608f01620007b9565b99506200096260808f01620007b9565b98506200097260a08f01620007b9565b97506200098260c08f01620007b9565b96506200099260e08f01620007b9565b95506101008e0151915080821115620009a9578485fd5b50620009b88e828f01620007cb565b9350506101208c01519150620009d26101408d01620007b9565b90509295989b509295989b9093969950565b604081526000835180604084015262000a0581606085016020880162000a2a565b6001600160a01b0393909316602083015250601f91909101601f191601606001919050565b60005b8381101562000a4757818101518382015260200162000a2d565b8381111562000a57576000848401525b50505050565b600181811c9082168062000a7257607f821691505b6020821081141562000a9457634e487b7160e01b600052602260045260246000fd5b50919050565b634e487b7160e01b600052604160045260246000fd5b6001600160a01b038116811462000ac657600080fd5b50565b611a118062000ad96000396000f3fe608060405234801561001057600080fd5b50600436106101375760003560e01c80639a9c29f6116100b8578063b9a3c84c1161007c578063b9a3c84c146102a2578063b9fd36c8146102b5578063db006a75146102be578063e3065da7146102d1578063e964ae02146102e4578063edfa9a9b146102ed57600080fd5b80639a9c29f61461022c5780639f43ddd21461023f578063a9ae29df14610273578063b2016bd41461027c578063b66333cd1461028f57600080fd5b806379599f96116100ff57806379599f96146101d25780638150fd3d146101da57806385209ee0146101ef5780639375f0e914610210578063975236611461022357600080fd5b80631c39c38d1461013c57806322f8e5661461016c57806329cb924d146101815780634eef4a7314610197578063780900dc146101bf575b600080fd5b60005461014f906001600160a01b031681565b6040516001600160a01b0390911681526020015b60405180910390f35b61017f61017a3660046116d9565b6102f6565b005b61018961036c565b604051908152602001610163565b6101aa6101a5366004611669565b61040c565b60408051928352602083019190915201610163565b6101896101cd3660046116d9565b610513565b61017f6106fc565b6101e2610843565b604051610163919061189d565b60005461020390600160a81b900460ff1681565b60405161016391906118b0565b60095461014f906001600160a01b031681565b61018960045481565b61018961023a3660046116f1565b6108d1565b60005461025a90600160b01b900467ffffffffffffffff1681565b60405167ffffffffffffffff9091168152602001610163565b61018960035481565b60055461014f906001600160a01b031681565b60065461014f906001600160a01b031681565b60085461014f906001600160a01b031681565b610189600b5481565b6101896102cc3660046116d9565b610cd5565b60075461014f906001600160a01b031681565b61018960015481565b61018960025481565b6000546001600160a01b031661030b57600080fd5b60005460405163117c72b360e11b8152600481018390526001600160a01b03909116906322f8e56690602401600060405180830381600087803b15801561035157600080fd5b505af1158015610365573d6000803e3d6000fd5b5050505050565b600080546001600160a01b0316156104075760008054906101000a90046001600160a01b03166001600160a01b03166329cb924d6040518163ffffffff1660e01b815260040160206040518083038186803b1580156103ca57600080fd5b505afa1580156103de573d6000803e3d6000fd5b505050506040513d601f19601f8201168201806040525081019061040291906116c1565b905090565b504290565b6006546040516370a0823160e01b81526001600160a01b03838116600483015260009283929116906370a082319060240160206040518083038186803b15801561045557600080fd5b505afa158015610469573d6000803e3d6000fd5b505050506040513d601f19601f8201168201806040525081019061048d91906116c1565b6007546040516370a0823160e01b81526001600160a01b038681166004830152909116906370a082319060240160206040518083038186803b1580156104d257600080fd5b505afa1580156104e6573d6000803e3d6000fd5b505050506040513d601f19601f8201168201806040525081019061050a91906116c1565b91509150915091565b60008054600160b01b900467ffffffffffffffff1661053061036c565b1061057d5760405162461bcd60e51b81526020600482015260186024820152774f6e6c792063616c6c61626c65207072652d65787069727960401b60448201526064015b60405180910390fd5b6040805160208082018352600154825282519081019092528382526105a29190610eea565b516005549091506105be906001600160a01b0316333084610f30565b6006546040516340c10f1960e01b8152336004820152602481018490526001600160a01b03909116906340c10f1990604401602060405180830381600087803b15801561060a57600080fd5b505af115801561061e573d6000803e3d6000fd5b505050506040513d601f19601f8201168201806040525081019061064291906116a1565b506007546040516340c10f1960e01b8152336004820152602481018490526001600160a01b03909116906340c10f1990604401602060405180830381600087803b15801561068f57600080fd5b505af11580156106a3573d6000803e3d6000fd5b505050506040513d601f19601f820116820180604052508101906106c791906116a1565b506040518290829033907f2b42f4b25222a5d447ca19dfca2afd1b8d32adfed550f7b87bf9569f6da70c0090600090a4919050565b600054600160b01b900467ffffffffffffffff1661071861036c565b10156107625760405162461bcd60e51b81526020600482015260196024820152784f6e6c792063616c6c61626c6520706f73742d65787069727960381b6044820152606401610574565b60008054600160a81b900460ff16600281111561078f57634e487b7160e01b600052602160045260246000fd5b146107dc5760405162461bcd60e51b815260206004820152601a60248201527f436f6e7472616374207374617465206973206e6f74204f70656e0000000000006044820152606401610574565b6107e4610fa1565b6107f66000805460ff60a01b19169055565b6107fe610ffa565b6000805460ff60a81b1916600160a81b17815560405133917f18600820405d6cf356e3556301762ca32395e72d8c81494fa344835c9da3633d91a26108416110d7565b565b600a805461085090611972565b80601f016020809104026020016040519081016040528092919081815260200182805461087c90611972565b80156108c95780601f1061089e576101008083540402835291602001916108c9565b820191906000526020600020905b8154815290600101906020018083116108ac57829003601f168201915b505050505081565b60008054600160b01b900467ffffffffffffffff166108ee61036c565b10156109385760405162461bcd60e51b81526020600482015260196024820152784f6e6c792063616c6c61626c6520706f73742d65787069727960381b6044820152606401610574565b610940610fa1565b6109526000805460ff60a01b19169055565b60008054600160a81b900460ff16600281111561097f57634e487b7160e01b600052602160045260246000fd5b14156109c25760405162461bcd60e51b8152602060048201526012602482015271155b995e1c1a5c99590818dbdb9d1c9858dd60721b6044820152606401610574565b6002600054600160a81b900460ff1660028111156109f057634e487b7160e01b600052602160045260246000fd5b14610abf57600054610a1290600160b01b900467ffffffffffffffff166110ec565b600281905560095460405163d6f4eceb60e01b81526004810192909252610aa8916001600160a01b039091169063d6f4eceb9060240160206040518083038186803b158015610a6057600080fd5b505afa158015610a74573d6000803e3d6000fd5b505050506040513d601f19601f82011682018060405250810190610a9891906116c1565b610aa26001611215565b5161124a565b6003556000805460ff60a81b1916600160a91b1790555b60065460405163079cc67960e41b8152336004820152602481018590526001600160a01b03909116906379cc679090604401602060405180830381600087803b158015610b0b57600080fd5b505af1158015610b1f573d6000803e3d6000fd5b505050506040513d601f19601f82011682018060405250810190610b4391906116a1565b5060075460405163079cc67960e41b8152336004820152602481018490526001600160a01b03909116906379cc679090604401602060405180830381600087803b158015610b9057600080fd5b505af1158015610ba4573d6000803e3d6000fd5b505050506040513d601f19601f82011682018060405250810190610bc891906116a1565b50604080516020808201835260035482528251808201845260015481528351918201909352858152600092610c079291610c0191610eea565b90610eea565b6000015190506000610c5b610c366040518060200160405280600354815250610c306001611215565b90611262565b604080516020808201835260015482528251908101909252878252610c019190610eea565b519050610c6881836118d8565b600554909350610c82906001600160a01b0316338561128c565b604080518481526020810187905290810185905233907fe8fdc264e5a5640d893f125384c4e2c5afe2d9a04aef1129e643caaa72771cff9060600160405180910390a25050610ccf6110d7565b92915050565b60008054600160b01b900467ffffffffffffffff16610cf261036c565b10610d3a5760405162461bcd60e51b81526020600482015260186024820152774f6e6c792063616c6c61626c65207072652d65787069727960401b6044820152606401610574565b610d42610fa1565b610d546000805460ff60a01b19169055565b60065460405163079cc67960e41b8152336004820152602481018490526001600160a01b03909116906379cc679090604401602060405180830381600087803b158015610da057600080fd5b505af1158015610db4573d6000803e3d6000fd5b505050506040513d601f19601f82011682018060405250810190610dd891906116a1565b610de157600080fd5b60075460405163079cc67960e41b8152336004820152602481018490526001600160a01b03909116906379cc679090604401602060405180830381600087803b158015610e2d57600080fd5b505af1158015610e41573d6000803e3d6000fd5b505050506040513d601f19601f82011682018060405250810190610e6591906116a1565b610e6e57600080fd5b604080516020808201835260015482528251908101909252838252610e939190610eea565b51600554909150610eae906001600160a01b0316338361128c565b6040518290829033907fd171fb179b26c49e23fe46eddd44d3048a1ad277b62144ac0725fbcf1dbf6d5290600090a4610ee56110d7565b919050565b6040805160208101909152600081526040805160208101909152825184518291670de0b6b3a764000091610f1d916112c1565b610f2791906118f0565b90529392505050565b6040516001600160a01b0380851660248301528316604482015260648101829052610f9b9085906323b872dd60e01b906084015b60408051601f198184030181529190526020810180516001600160e01b03166001600160e01b0319909316929092179091526112cd565b50505050565b600054600160a01b900460ff166108415760405162461bcd60e51b815260206004820152601f60248201527f5265656e7472616e637947756172643a207265656e7472616e742063616c6c006044820152606401610574565b600061100461139f565b600b549091501561102c57600b5460055461102c916001600160a01b0390911690839061142e565b60048054600054600554600b546040516311df92f160e01b81526001600160a01b03878116966311df92f196611081969095600160b01b90910467ffffffffffffffff1694600a949390911692909101611857565b602060405180830381600087803b15801561109b57600080fd5b505af11580156110af573d6000803e3d6000fd5b505050506040513d601f19601f820116820180604052508101906110d391906116c1565b5050565b6000805460ff60a01b1916600160a01b179055565b6000806110f761139f565b9050806001600160a01b031663bc58ccaa3060045486600a6040518563ffffffff1660e01b815260040161112e94939291906117f8565b60206040518083038186803b15801561114657600080fd5b505afa15801561115a573d6000803e3d6000fd5b505050506040513d601f19601f8201168201806040525081019061117e91906116a1565b61118757600080fd5b600480546040516353b5923960e01b81526000926001600160a01b038516926353b59239926111bb928991600a910161182f565b602060405180830381600087803b1580156111d557600080fd5b505af11580156111e9573d6000803e3d6000fd5b505050506040513d601f19601f8201168201806040525081019061120d91906116c1565b949350505050565b60408051602081019091526000815260408051602081019091528061124284670de0b6b3a76400006112c1565b905292915050565b6000818310611259578161125b565b825b9392505050565b6040805160208101909152600081526040805160208101909152825184518291610f279190611552565b6040516001600160a01b0383166024820152604481018290526112bc90849063a9059cbb60e01b90606401610f64565b505050565b600061125b8284611910565b6000611322826040518060400160405280602081526020017f5361666545524332303a206c6f772d6c6576656c2063616c6c206661696c6564815250856001600160a01b031661155e9092919063ffffffff16565b8051909150156112bc578080602001905181019061134091906116a1565b6112bc5760405162461bcd60e51b815260206004820152602a60248201527f5361666545524332303a204552433230206f7065726174696f6e20646964206e6044820152691bdd081cdd58d8d9595960b21b6064820152608401610574565b6008546040516302abf57960e61b81526f4f7074696d69737469634f7261636c6560801b60048201526000916001600160a01b03169063aafd5e409060240160206040518083038186803b1580156113f657600080fd5b505afa15801561140a573d6000803e3d6000fd5b505050506040513d601f19601f820116820180604052508101906104029190611685565b8015806114b75750604051636eb1769f60e11b81523060048201526001600160a01b03838116602483015284169063dd62ed3e9060440160206040518083038186803b15801561147d57600080fd5b505afa158015611491573d6000803e3d6000fd5b505050506040513d601f19601f820116820180604052508101906114b591906116c1565b155b6115225760405162461bcd60e51b815260206004820152603660248201527f5361666545524332303a20617070726f76652066726f6d206e6f6e2d7a65726f60448201527520746f206e6f6e2d7a65726f20616c6c6f77616e636560501b6064820152608401610574565b6040516001600160a01b0383166024820152604481018290526112bc90849063095ea7b360e01b90606401610f64565b600061125b828461192f565b606061120d848460008585843b6115b75760405162461bcd60e51b815260206004820152601d60248201527f416464726573733a2063616c6c20746f206e6f6e2d636f6e74726163740000006044820152606401610574565b600080866001600160a01b031685876040516115d391906117dc565b60006040518083038185875af1925050503d8060008114611610576040519150601f19603f3d011682016040523d82523d6000602084013e611615565b606091505b5091509150611625828286611630565b979650505050505050565b6060831561163f57508161125b565b82511561164f5782518084602001fd5b8160405162461bcd60e51b8152600401610574919061189d565b60006020828403121561167a578081fd5b813561125b816119c3565b600060208284031215611696578081fd5b815161125b816119c3565b6000602082840312156116b2578081fd5b8151801515811461125b578182fd5b6000602082840312156116d2578081fd5b5051919050565b6000602082840312156116ea578081fd5b5035919050565b60008060408385031215611703578081fd5b50508035926020909101359150565b6000815180845261172a816020860160208601611946565b601f01601f19169290920160200192915050565b8054600090600181811c908083168061175857607f831692505b602080841082141561177857634e487b7160e01b86526022600452602486fd5b8388526020880182801561179357600181146117a4576117cf565b60ff198716825282820197506117cf565b60008981526020902060005b878110156117c9578154848201529086019084016117b0565b83019850505b5050505050505092915050565b600082516117ee818460208701611946565b9190910192915050565b60018060a01b0385168152836020820152826040820152608060608201526000611825608083018461173e565b9695505050505050565b83815282602082015260606040820152600061184e606083018461173e565b95945050505050565b85815267ffffffffffffffff8516602082015260a06040820152600061188060a083018661173e565b6001600160a01b0394909416606083015250608001529392505050565b60208152600061125b6020830184611712565b60208101600383106118d257634e487b7160e01b600052602160045260246000fd5b91905290565b600082198211156118eb576118eb6119ad565b500190565b60008261190b57634e487b7160e01b81526012600452602481fd5b500490565b600081600019048311821515161561192a5761192a6119ad565b500290565b600082821015611941576119416119ad565b500390565b60005b83811015611961578181015183820152602001611949565b83811115610f9b5750506000910152565b600181811c9082168061198657607f821691505b602082108114156119a757634e487b7160e01b600052602260045260246000fd5b50919050565b634e487b7160e01b600052601160045260246000fd5b6001600160a01b03811681146119d857600080fd5b5056fea26469706673582212209d51988f35c7c607d706d54eba6a4d75eb84262b7117d39cec9e91ff6bb11fbe64736f6c63430008040033",
  "immutableReferences": {},
  "source": "// SPDX-License-Identifier: AGPL-3.0-only\npragma solidity ^0.8.0;\n\nimport \"@openzeppelin/contracts/utils/math/SafeMath.sol\";\nimport \"@openzeppelin/contracts/utils/math/Math.sol\";\nimport \"@openzeppelin/contracts/token/ERC20/IERC20.sol\";\nimport \"@openzeppelin/contracts/token/ERC20/utils/SafeERC20.sol\";\n\nimport \"../common/financial-product-libraries/long-short-pair-libraries/LongShortPairFinancialProductLibrary.sol\";\n\nimport \"../../common/implementation/Testable.sol\";\nimport \"../../common/implementation/Lockable.sol\";\nimport \"../../common/implementation/FixedPoint.sol\";\n\nimport \"../../common/interfaces/ExpandedIERC20.sol\";\nimport \"../../common/interfaces/IERC20Standard.sol\";\n\nimport \"../../oracle/interfaces/OracleInterface.sol\";\nimport \"../../common/interfaces/AddressWhitelistInterface.sol\";\nimport \"../../oracle/interfaces/FinderInterface.sol\";\nimport \"../../oracle/interfaces/OptimisticOracleInterface.sol\";\nimport \"../../oracle/interfaces/IdentifierWhitelistInterface.sol\";\n\nimport \"../../oracle/implementation/Constants.sol\";\n\n/**\n * @title Long Short Pair.\n * @notice Uses a combination of long and short tokens to tokenize the bounded price exposure to a given identifier.\n */\n\ncontract LongShortPair is Testable, Lockable {\n    using FixedPoint for FixedPoint.Unsigned;\n    using SafeERC20 for IERC20;\n\n    /*********************************************\n     *  LONG SHORT PAIR DATA STRUCTURES  *\n     *********************************************/\n\n    enum ContractState { Open, ExpiredPriceRequested, ExpiredPriceReceived }\n    ContractState public contractState;\n\n    uint64 public expirationTimestamp;\n\n    // Amount of collateral a pair of tokens is always redeemable for.\n    uint256 public collateralPerPair;\n\n    // Price returned from the Optimistic oracle at settlement time.\n    int256 public expiryPrice;\n\n    // number between 0 and 1e18 representing how much collateral long & short tokens are redeemable for. 0 makes each\n    // short token worth collateralPerPair and long tokens worth 0. 1 makes each long token worth collateralPerPair and short 0.\n    uint256 public expiryPercentLong;\n\n    bytes32 public priceIdentifier;\n\n    IERC20 public collateralToken;\n    ExpandedIERC20 public longToken;\n    ExpandedIERC20 public shortToken;\n\n    FinderInterface public finder;\n\n    LongShortPairFinancialProductLibrary public financialProductLibrary;\n\n    bytes public customAncillaryData;\n\n    uint256 public prepaidProposerReward;\n\n    /****************************************\n     *                EVENTS                *\n     ****************************************/\n\n    event TokensCreated(address indexed sponsor, uint256 indexed collateralUsed, uint256 indexed tokensMinted);\n    event TokensRedeemed(address indexed sponsor, uint256 indexed collateralReturned, uint256 indexed tokensRedeemed);\n    event ContractExpired(address indexed caller);\n    event PositionSettled(\n        address indexed sponsor,\n        uint256 colllateralReturned,\n        uint256 longTokens,\n        uint256 shortTokens\n    );\n\n    /****************************************\n     *               MODIFIERS              *\n     ****************************************/\n\n    modifier preExpiration() {\n        require(getCurrentTime() < expirationTimestamp, \"Only callable pre-expiry\");\n        _;\n    }\n\n    modifier postExpiration() {\n        require(getCurrentTime() >= expirationTimestamp, \"Only callable post-expiry\");\n        _;\n    }\n\n    modifier onlyOpenState() {\n        require(contractState == ContractState.Open, \"Contract state is not Open\");\n        _;\n    }\n\n    /**\n     * @notice Construct the LongShortPair\n     * @param _expirationTimestamp unix timestamp of when the contract will expire.\n     * @param _collateralPerPair how many units of collateral are required to mint one pair of synthetic tokens.\n     * @param _priceIdentifier registered in the DVM for the synthetic.\n     * @param _longToken ERC20 token used as long in the LSP. Requires mint and burn needed by this contract.\n     * @param _shortToken ERC20 token used as short in the LSP. Mint and burn rights needed by this contract.\n     * @param _collateralToken ERC20 token used as collateral in the LSP.\n     * @param _finder UMA protocol Finder used to discover other protocol contracts.\n     * @param _financialProductLibrary Contract providing settlement payout logic.\n     * @param _customAncillaryData Custom ancillary data to be passed along with the price request. If not needed, this\n     *                             should be left as a 0-length bytes array.\n     * @param _prepaidProposerReward Preloaded reward to incentivize settlement price proposals.\n     * @param _timerAddress Contract that stores the current time in a testing environment. Set to 0x0 in production.\n     */\n    constructor(\n        uint64 _expirationTimestamp,\n        uint256 _collateralPerPair,\n        bytes32 _priceIdentifier,\n        ExpandedIERC20 _longToken,\n        ExpandedIERC20 _shortToken,\n        IERC20 _collateralToken,\n        FinderInterface _finder,\n        LongShortPairFinancialProductLibrary _financialProductLibrary,\n        bytes memory _customAncillaryData,\n        uint256 _prepaidProposerReward,\n        address _timerAddress\n    ) Testable(_timerAddress) {\n        finder = _finder;\n        require(_expirationTimestamp > getCurrentTime(), \"Expiration timestamp in past\");\n        require(_getIdentifierWhitelist().isIdentifierSupported(_priceIdentifier), \"Identifier not registered\");\n        require(address(_getOptimisticOracle()) != address(0), \"Invalid finder\");\n        require(address(_financialProductLibrary) != address(0), \"Invalid FinancialProductLibrary\");\n        require(_getAddressWhitelist().isOnWhitelist(address(_collateralToken)), \"Collateral not whitelisted\");\n\n        expirationTimestamp = _expirationTimestamp;\n        collateralPerPair = _collateralPerPair;\n        priceIdentifier = _priceIdentifier;\n\n        longToken = _longToken;\n        shortToken = _shortToken;\n        collateralToken = _collateralToken;\n\n        financialProductLibrary = _financialProductLibrary;\n        OptimisticOracleInterface optimisticOracle = _getOptimisticOracle();\n        require(\n            optimisticOracle.stampAncillaryData(_customAncillaryData, address(this)).length <=\n                optimisticOracle.ancillaryBytesLimit(),\n            \"Ancillary Data too long\"\n        );\n        customAncillaryData = _customAncillaryData;\n        prepaidProposerReward = _prepaidProposerReward;\n    }\n\n    /****************************************\n     *          POSITION FUNCTIONS          *\n     ****************************************/\n\n    /**\n     * @notice Creates a pair of long and short tokens equal in number to tokensToCreate. Pulls the required collateral\n     * amount into this contract, defined by the collateralPerPair value.\n     * @param tokensToCreate number of long and short synthetic tokens to create.\n     * @return collateralUsed total collateral used to mint the synthetics.\n     */\n    function create(uint256 tokensToCreate) public preExpiration() returns (uint256 collateralUsed) {\n        collateralUsed = FixedPoint.Unsigned(tokensToCreate).mul(FixedPoint.Unsigned(collateralPerPair)).rawValue;\n\n        collateralToken.safeTransferFrom(msg.sender, address(this), collateralUsed);\n\n        longToken.mint(msg.sender, tokensToCreate);\n        shortToken.mint(msg.sender, tokensToCreate);\n\n        emit TokensCreated(msg.sender, collateralUsed, tokensToCreate);\n    }\n\n    /**\n     * @notice Return a pair of long and short tokens equal in number to tokensToCreate. Returns the commensurate amount\n     * of collateral to the caller for the pair of tokens, defined by the collateralPerPair value.\n     * @param tokensToRedeem number of long and short synthetic tokens to redeem.\n     * @return collateralReturned total collateral returned in exchange for the pair of synthetics.\n     */\n    function redeem(uint256 tokensToRedeem) public preExpiration() nonReentrant() returns (uint256 collateralReturned) {\n        require(longToken.burnFrom(msg.sender, tokensToRedeem));\n        require(shortToken.burnFrom(msg.sender, tokensToRedeem));\n\n        collateralReturned = FixedPoint.Unsigned(tokensToRedeem).mul(FixedPoint.Unsigned(collateralPerPair)).rawValue;\n\n        collateralToken.safeTransfer(msg.sender, collateralReturned);\n\n        emit TokensRedeemed(msg.sender, collateralReturned, tokensToRedeem);\n    }\n\n    /**\n     * @notice Settle long and/or short tokens in for collateral at a rate informed by the contract settlement.\n     * @dev Uses financialProductLibrary to compute the redemption rate between long and short tokens.\n     * @param longTokensToRedeem number of long tokens to settle.\n     * @param shortTokensToRedeem number of short tokens to settle.\n     * @param collateralReturned number of collateral tokens returned in exchange for long and short tokens.\n     * @return collateralReturned total collateral returned in exchange for the pair of synthetics.\n     */\n    function settle(uint256 longTokensToRedeem, uint256 shortTokensToRedeem)\n        public\n        postExpiration()\n        nonReentrant()\n        returns (uint256 collateralReturned)\n    {\n        // If the contract state is open and postExpiration passed then `expire()` has not yet been called.\n        require(contractState != ContractState.Open, \"Unexpired contract\");\n\n        // Get the current settlement price and store it. If it is not resolved, will revert.\n        if (contractState != ContractState.ExpiredPriceReceived) {\n            expiryPrice = _getOraclePriceExpiration(expirationTimestamp);\n            // Cap the return value at 1.\n            expiryPercentLong = Math.min(\n                financialProductLibrary.computeExpiryTokensForCollateral(expiryPrice),\n                FixedPoint.fromUnscaledUint(1).rawValue\n            );\n            contractState = ContractState.ExpiredPriceReceived;\n        }\n\n        longToken.burnFrom(msg.sender, longTokensToRedeem);\n        shortToken.burnFrom(msg.sender, shortTokensToRedeem);\n\n        // expiryPercentLong is a number between 0 and 1e18. 0 means all collateral goes to short tokens and\n        // 1 means all collateral goes to the long token. Total collateral returned is the sum of payouts.\n        uint256 longCollateralRedeemed =\n            FixedPoint\n                .Unsigned(longTokensToRedeem)\n                .mul(FixedPoint.Unsigned(collateralPerPair))\n                .mul(FixedPoint.Unsigned(expiryPercentLong))\n                .rawValue;\n        uint256 shortCollateralRedeemed =\n            FixedPoint\n                .Unsigned(shortTokensToRedeem)\n                .mul(FixedPoint.Unsigned(collateralPerPair))\n                .mul(FixedPoint.fromUnscaledUint(1).sub(FixedPoint.Unsigned(expiryPercentLong)))\n                .rawValue;\n\n        collateralReturned = longCollateralRedeemed + shortCollateralRedeemed;\n        collateralToken.safeTransfer(msg.sender, collateralReturned);\n\n        emit PositionSettled(msg.sender, collateralReturned, longTokensToRedeem, shortTokensToRedeem);\n    }\n\n    /****************************************\n     *        GLOBAL STATE FUNCTIONS        *\n     ****************************************/\n\n    function expire() public postExpiration() onlyOpenState() nonReentrant() {\n        _requestOraclePriceExpiration();\n        contractState = ContractState.ExpiredPriceRequested;\n\n        emit ContractExpired(msg.sender);\n    }\n\n    /****************************************\n     *      GLOBAL ACCESSORS FUNCTIONS      *\n     ****************************************/\n    /**\n     * @notice Returns the number of long and short tokens a sponsor wallet holds.\n     * @param sponsor address of the sponsor to query.\n     * @return [uint256, uint256]. First is long tokens held by sponsor and second is short tokens held by sponsor.\n     */\n    function getPositionTokens(address sponsor) public view returns (uint256, uint256) {\n        return (longToken.balanceOf(sponsor), shortToken.balanceOf(sponsor));\n    }\n\n    /****************************************\n     *          INTERNAL FUNCTIONS          *\n     ****************************************/\n\n    function _getOraclePriceExpiration(uint256 requestedTime) internal returns (int256) {\n        // Create an instance of the oracle and get the price. If the price is not resolved revert.\n        OptimisticOracleInterface optimisticOracle = _getOptimisticOracle();\n        require(optimisticOracle.hasPrice(address(this), priceIdentifier, requestedTime, customAncillaryData));\n        int256 oraclePrice = optimisticOracle.settleAndGetPrice(priceIdentifier, requestedTime, customAncillaryData);\n\n        return oraclePrice;\n    }\n\n    function _requestOraclePriceExpiration() internal {\n        OptimisticOracleInterface optimisticOracle = _getOptimisticOracle();\n\n        // Use the prepaidProposerReward as the proposer reward.\n        if (prepaidProposerReward > 0) collateralToken.safeApprove(address(optimisticOracle), prepaidProposerReward);\n        optimisticOracle.requestPrice(\n            priceIdentifier,\n            expirationTimestamp,\n            customAncillaryData,\n            collateralToken,\n            prepaidProposerReward\n        );\n    }\n\n    function _getIdentifierWhitelist() internal view returns (IdentifierWhitelistInterface) {\n        return IdentifierWhitelistInterface(finder.getImplementationAddress(OracleInterfaces.IdentifierWhitelist));\n    }\n\n    function _getAddressWhitelist() internal view returns (AddressWhitelistInterface) {\n        return AddressWhitelistInterface(finder.getImplementationAddress(OracleInterfaces.CollateralWhitelist));\n    }\n\n    function _getOptimisticOracle() internal view returns (OptimisticOracleInterface) {\n        return OptimisticOracleInterface(finder.getImplementationAddress(OracleInterfaces.OptimisticOracle));\n    }\n}\n",
  "sourcePath": "/home/circleci/protocol/packages/core/contracts/financial-templates/long-short-pair/LongShortPair.sol",
  "compiler": {
    "name": "solc",
    "version": "0.8.4+commit.c7e474f2.Emscripten.clang"
  },
  "schemaVersion": "3.3.4",
  "updatedAt": "2021-06-21T21:43:39.066Z",
  "devdoc": {
    "kind": "dev",
    "methods": {
      "constructor": {
        "params": {
          "_collateralPerPair": "how many units of collateral are required to mint one pair of synthetic tokens.",
          "_collateralToken": "ERC20 token used as collateral in the LSP.",
          "_customAncillaryData": "Custom ancillary data to be passed along with the price request. If not needed, this                             should be left as a 0-length bytes array.",
          "_expirationTimestamp": "unix timestamp of when the contract will expire.",
          "_financialProductLibrary": "Contract providing settlement payout logic.",
          "_finder": "UMA protocol Finder used to discover other protocol contracts.",
          "_longToken": "ERC20 token used as long in the LSP. Requires mint and burn needed by this contract.",
          "_prepaidProposerReward": "Preloaded reward to incentivize settlement price proposals.",
          "_priceIdentifier": "registered in the DVM for the synthetic.",
          "_shortToken": "ERC20 token used as short in the LSP. Mint and burn rights needed by this contract.",
          "_timerAddress": "Contract that stores the current time in a testing environment. Set to 0x0 in production."
        }
      },
      "create(uint256)": {
        "params": {
          "tokensToCreate": "number of long and short synthetic tokens to create."
        },
        "returns": {
          "collateralUsed": "total collateral used to mint the synthetics."
        }
      },
      "getCurrentTime()": {
        "returns": {
          "_0": "uint for the current Testable timestamp."
        }
      },
      "getPositionTokens(address)": {
        "params": {
          "sponsor": "address of the sponsor to query."
        },
        "returns": {
          "_0": "[uint256, uint256]. First is long tokens held by sponsor and second is short tokens held by sponsor."
        }
      },
      "redeem(uint256)": {
        "params": {
          "tokensToRedeem": "number of long and short synthetic tokens to redeem."
        },
        "returns": {
          "collateralReturned": "total collateral returned in exchange for the pair of synthetics."
        }
      },
      "setCurrentTime(uint256)": {
        "details": "Will revert if not running in test mode.",
        "params": {
          "time": "timestamp to set current Testable time to."
        }
      },
      "settle(uint256,uint256)": {
        "details": "Uses financialProductLibrary to compute the redemption rate between long and short tokens.",
        "params": {
          "collateralReturned": "number of collateral tokens returned in exchange for long and short tokens.",
          "longTokensToRedeem": "number of long tokens to settle.",
          "shortTokensToRedeem": "number of short tokens to settle."
        },
        "returns": {
          "collateralReturned": "total collateral returned in exchange for the pair of synthetics."
        }
      }
    },
    "title": "Long Short Pair.",
    "version": 1
  },
  "userdoc": {
    "kind": "user",
    "methods": {
      "constructor": {
        "notice": "Construct the LongShortPair"
      },
      "create(uint256)": {
        "notice": "Creates a pair of long and short tokens equal in number to tokensToCreate. Pulls the required collateral amount into this contract, defined by the collateralPerPair value."
      },
      "getCurrentTime()": {
        "notice": "Gets the current time. Will return the last time set in `setCurrentTime` if running in test mode. Otherwise, it will return the block timestamp."
      },
      "getPositionTokens(address)": {
        "notice": "Returns the number of long and short tokens a sponsor wallet holds."
      },
      "redeem(uint256)": {
        "notice": "Return a pair of long and short tokens equal in number to tokensToCreate. Returns the commensurate amount of collateral to the caller for the pair of tokens, defined by the collateralPerPair value."
      },
      "setCurrentTime(uint256)": {
        "notice": "Sets the current time."
      },
      "settle(uint256,uint256)": {
        "notice": "Settle long and/or short tokens in for collateral at a rate informed by the contract settlement."
      }
    },
    "notice": "Uses a combination of long and short tokens to tokenize the bounded price exposure to a given identifier.",
    "version": 1
  }
}