{
  "contractName": "MockAdministratee",
  "abi": [
    {
      "inputs": [],
      "name": "timesEmergencyShutdown",
      "outputs": [
        {
          "internalType": "uint256",
          "name": "",
          "type": "uint256"
        }
      ],
      "stateMutability": "view",
      "type": "function"
    },
    {
      "inputs": [],
      "name": "timesRemargined",
      "outputs": [
        {
          "internalType": "uint256",
          "name": "",
          "type": "uint256"
        }
      ],
      "stateMutability": "view",
      "type": "function"
    },
    {
      "inputs": [],
      "name": "remargin",
      "outputs": [],
      "stateMutability": "nonpayable",
      "type": "function"
    },
    {
      "inputs": [],
      "name": "emergencyShutdown",
      "outputs": [],
      "stateMutability": "nonpayable",
      "type": "function"
    },
    {
      "inputs": [],
      "name": "pfc",
      "outputs": [
        {
          "components": [
            {
              "internalType": "uint256",
              "name": "rawValue",
              "type": "uint256"
            }
          ],
          "internalType": "struct FixedPoint.Unsigned",
          "name": "",
          "type": "tuple"
        }
      ],
      "stateMutability": "view",
      "type": "function"
    }
  ],
  "bytecode": "0x608060405234801561001057600080fd5b506101bc806100206000396000f3fe608060405234801561001057600080fd5b50600436106100575760003560e01c80633403c2fc1461005c5780635d21f1531461006657806381a10ae114610082578063bda02e7714610099578063bea002bc146100a1575b600080fd5b6100646100aa565b005b61006f60015481565b6040519081526020015b60405180910390f35b61008a6100c1565b60405190518152602001610079565b6100646100df565b61006f60005481565b600180549060006100ba83610155565b9190505550565b6040805160208101909152600081526100da60006100ee565b905090565b6000805490806100ba83610155565b60408051602081019091526000815260408051602081019091528061011b84670de0b6b3a7640000610123565b905292915050565b600061012f8284610136565b9392505050565b600081600019048311821515161561015057610150610170565b500290565b600060001982141561016957610169610170565b5060010190565b634e487b7160e01b600052601160045260246000fdfea264697066735822122069be0d16fc8a759334b254ea1cfd6e00b0246a2c15ff4e25e55d3c1d46e7fd6564736f6c63430008040033",
  "immutableReferences": {},
  "source": "// SPDX-License-Identifier: AGPL-3.0-only\npragma solidity ^0.8.0;\npragma abicoder v2;\n\nimport \"../../interfaces/AdministrateeInterface.sol\";\n\n// A mock implementation of AdministrateeInterface, taking the place of a financial contract.\ncontract MockAdministratee is AdministrateeInterface {\n    uint256 public timesRemargined;\n    uint256 public timesEmergencyShutdown;\n\n    function remargin() external override {\n        timesRemargined++;\n    }\n\n    function emergencyShutdown() external override {\n        timesEmergencyShutdown++;\n    }\n\n    function pfc() external view override returns (FixedPoint.Unsigned memory) {\n        return FixedPoint.fromUnscaledUint(0);\n    }\n}\n",
  "sourcePath": "/home/kamto/code/protocol/packages/core/contracts/oracle/implementation/test/MockAdministratee.sol",
  "compiler": {
    "name": "solc",
    "version": "0.8.4+commit.c7e474f2.Emscripten.clang"
  },
  "schemaVersion": "3.3.4",
  "updatedAt": "2021-05-07T15:46:50.474Z",
  "devdoc": {
    "kind": "dev",
    "methods": {
      "pfc()": {
        "details": "This is equivalent to the collateral pool available from which to pay fees. Therefore, derived contracts are expected to implement this so that pay-fee methods can correctly compute the owed fees as a % of PfC.",
        "returns": {
          "_0": "pfc value for equal to the current profit from corruption denominated in collateral currency."
        }
      },
      "remargin()": {
        "details": "It pays fees and moves money between margin accounts to make sure they reflect the NAV of the contract."
      }
    },
    "version": 1
  },
  "userdoc": {
    "kind": "user",
    "methods": {
      "emergencyShutdown()": {
        "notice": "Initiates the shutdown process, in case of an emergency."
      },
      "pfc()": {
        "notice": "Gets the current profit from corruption for this contract in terms of the collateral currency."
      },
      "remargin()": {
        "notice": "A core contract method called independently or as a part of other financial contract transactions."
      }
    },
    "version": 1
  }
}