{
  "contractName": "Perpetual",
  "abi": [
    {
      "inputs": [
        {
          "components": [
            {
              "internalType": "uint256",
              "name": "withdrawalLiveness",
              "type": "uint256"
            },
            {
              "internalType": "address",
              "name": "configStoreAddress",
              "type": "address"
            },
            {
              "internalType": "address",
              "name": "collateralAddress",
              "type": "address"
            },
            {
              "internalType": "address",
              "name": "tokenAddress",
              "type": "address"
            },
            {
              "internalType": "address",
              "name": "finderAddress",
              "type": "address"
            },
            {
              "internalType": "address",
              "name": "timerAddress",
              "type": "address"
            },
            {
              "internalType": "bytes32",
              "name": "priceFeedIdentifier",
              "type": "bytes32"
            },
            {
              "internalType": "bytes32",
              "name": "fundingRateIdentifier",
              "type": "bytes32"
            },
            {
              "components": [
                {
                  "internalType": "uint256",
                  "name": "rawValue",
                  "type": "uint256"
                }
              ],
              "internalType": "struct FixedPoint.Unsigned",
              "name": "minSponsorTokens",
              "type": "tuple"
            },
            {
              "components": [
                {
                  "internalType": "uint256",
                  "name": "rawValue",
                  "type": "uint256"
                }
              ],
              "internalType": "struct FixedPoint.Unsigned",
              "name": "tokenScaling",
              "type": "tuple"
            },
            {
              "internalType": "uint256",
              "name": "liquidationLiveness",
              "type": "uint256"
            },
            {
              "components": [
                {
                  "internalType": "uint256",
                  "name": "rawValue",
                  "type": "uint256"
                }
              ],
              "internalType": "struct FixedPoint.Unsigned",
              "name": "collateralRequirement",
              "type": "tuple"
            },
            {
              "components": [
                {
                  "internalType": "uint256",
                  "name": "rawValue",
                  "type": "uint256"
                }
              ],
              "internalType": "struct FixedPoint.Unsigned",
              "name": "disputeBondPercentage",
              "type": "tuple"
            },
            {
              "components": [
                {
                  "internalType": "uint256",
                  "name": "rawValue",
                  "type": "uint256"
                }
              ],
              "internalType": "struct FixedPoint.Unsigned",
              "name": "sponsorDisputeRewardPercentage",
              "type": "tuple"
            },
            {
              "components": [
                {
                  "internalType": "uint256",
                  "name": "rawValue",
                  "type": "uint256"
                }
              ],
              "internalType": "struct FixedPoint.Unsigned",
              "name": "disputerDisputeRewardPercentage",
              "type": "tuple"
            }
          ],
          "internalType": "struct PerpetualLiquidatable.ConstructorParams",
          "name": "params",
          "type": "tuple"
        }
      ],
      "stateMutability": "nonpayable",
      "type": "constructor"
    },
    {
      "anonymous": false,
      "inputs": [
        {
          "indexed": true,
          "internalType": "address",
          "name": "sponsor",
          "type": "address"
        },
        {
          "indexed": true,
          "internalType": "uint256",
          "name": "collateralAmount",
          "type": "uint256"
        }
      ],
      "name": "Deposit",
      "type": "event"
    },
    {
      "anonymous": false,
      "inputs": [
        {
          "indexed": true,
          "internalType": "address",
          "name": "caller",
          "type": "address"
        },
        {
          "indexed": true,
          "internalType": "address",
          "name": "sponsor",
          "type": "address"
        },
        {
          "indexed": true,
          "internalType": "address",
          "name": "liquidator",
          "type": "address"
        },
        {
          "indexed": false,
          "internalType": "address",
          "name": "disputer",
          "type": "address"
        },
        {
          "indexed": false,
          "internalType": "uint256",
          "name": "liquidationId",
          "type": "uint256"
        },
        {
          "indexed": false,
          "internalType": "bool",
          "name": "disputeSucceeded",
          "type": "bool"
        }
      ],
      "name": "DisputeSettled",
      "type": "event"
    },
    {
      "anonymous": false,
      "inputs": [
        {
          "indexed": true,
          "internalType": "address",
          "name": "caller",
          "type": "address"
        },
        {
          "indexed": false,
          "internalType": "uint256",
          "name": "shutdownTimestamp",
          "type": "uint256"
        }
      ],
      "name": "EmergencyShutdown",
      "type": "event"
    },
    {
      "anonymous": false,
      "inputs": [
        {
          "indexed": true,
          "internalType": "address",
          "name": "sponsor",
          "type": "address"
        }
      ],
      "name": "EndedSponsorPosition",
      "type": "event"
    },
    {
      "anonymous": false,
      "inputs": [
        {
          "indexed": true,
          "internalType": "uint256",
          "name": "amount",
          "type": "uint256"
        }
      ],
      "name": "FinalFeesPaid",
      "type": "event"
    },
    {
      "anonymous": false,
      "inputs": [
        {
          "indexed": false,
          "internalType": "int256",
          "name": "newFundingRate",
          "type": "int256"
        },
        {
          "indexed": true,
          "internalType": "uint256",
          "name": "updateTime",
          "type": "uint256"
        },
        {
          "indexed": false,
          "internalType": "uint256",
          "name": "reward",
          "type": "uint256"
        }
      ],
      "name": "FundingRateUpdated",
      "type": "event"
    },
    {
      "anonymous": false,
      "inputs": [
        {
          "indexed": true,
          "internalType": "address",
          "name": "sponsor",
          "type": "address"
        },
        {
          "indexed": true,
          "internalType": "address",
          "name": "liquidator",
          "type": "address"
        },
        {
          "indexed": true,
          "internalType": "uint256",
          "name": "liquidationId",
          "type": "uint256"
        },
        {
          "indexed": false,
          "internalType": "uint256",
          "name": "tokensOutstanding",
          "type": "uint256"
        },
        {
          "indexed": false,
          "internalType": "uint256",
          "name": "lockedCollateral",
          "type": "uint256"
        },
        {
          "indexed": false,
          "internalType": "uint256",
          "name": "liquidatedCollateral",
          "type": "uint256"
        },
        {
          "indexed": false,
          "internalType": "uint256",
          "name": "liquidationTime",
          "type": "uint256"
        }
      ],
      "name": "LiquidationCreated",
      "type": "event"
    },
    {
      "anonymous": false,
      "inputs": [
        {
          "indexed": true,
          "internalType": "address",
          "name": "sponsor",
          "type": "address"
        },
        {
          "indexed": true,
          "internalType": "address",
          "name": "liquidator",
          "type": "address"
        },
        {
          "indexed": true,
          "internalType": "address",
          "name": "disputer",
          "type": "address"
        },
        {
          "indexed": false,
          "internalType": "uint256",
          "name": "liquidationId",
          "type": "uint256"
        },
        {
          "indexed": false,
          "internalType": "uint256",
          "name": "disputeBondAmount",
          "type": "uint256"
        }
      ],
      "name": "LiquidationDisputed",
      "type": "event"
    },
    {
      "anonymous": false,
      "inputs": [
        {
          "indexed": true,
          "internalType": "address",
          "name": "caller",
          "type": "address"
        },
        {
          "indexed": false,
          "internalType": "uint256",
          "name": "paidToLiquidator",
          "type": "uint256"
        },
        {
          "indexed": false,
          "internalType": "uint256",
          "name": "paidToDisputer",
          "type": "uint256"
        },
        {
          "indexed": false,
          "internalType": "uint256",
          "name": "paidToSponsor",
          "type": "uint256"
        },
        {
          "indexed": true,
          "internalType": "enum PerpetualLiquidatable.Status",
          "name": "liquidationStatus",
          "type": "uint8"
        },
        {
          "indexed": false,
          "internalType": "uint256",
          "name": "settlementPrice",
          "type": "uint256"
        }
      ],
      "name": "LiquidationWithdrawn",
      "type": "event"
    },
    {
      "anonymous": false,
      "inputs": [
        {
          "indexed": true,
          "internalType": "address",
          "name": "sponsor",
          "type": "address"
        }
      ],
      "name": "NewSponsor",
      "type": "event"
    },
    {
      "anonymous": false,
      "inputs": [
        {
          "indexed": true,
          "internalType": "address",
          "name": "sponsor",
          "type": "address"
        },
        {
          "indexed": true,
          "internalType": "uint256",
          "name": "collateralAmount",
          "type": "uint256"
        },
        {
          "indexed": true,
          "internalType": "uint256",
          "name": "tokenAmount",
          "type": "uint256"
        }
      ],
      "name": "PositionCreated",
      "type": "event"
    },
    {
      "anonymous": false,
      "inputs": [
        {
          "indexed": true,
          "internalType": "address",
          "name": "sponsor",
          "type": "address"
        },
        {
          "indexed": true,
          "internalType": "uint256",
          "name": "collateralAmount",
          "type": "uint256"
        },
        {
          "indexed": true,
          "internalType": "uint256",
          "name": "tokenAmount",
          "type": "uint256"
        }
      ],
      "name": "Redeem",
      "type": "event"
    },
    {
      "anonymous": false,
      "inputs": [
        {
          "indexed": true,
          "internalType": "uint256",
          "name": "regularFee",
          "type": "uint256"
        },
        {
          "indexed": true,
          "internalType": "uint256",
          "name": "lateFee",
          "type": "uint256"
        }
      ],
      "name": "RegularFeesPaid",
      "type": "event"
    },
    {
      "anonymous": false,
      "inputs": [
        {
          "indexed": true,
          "internalType": "address",
          "name": "sponsor",
          "type": "address"
        },
        {
          "indexed": true,
          "internalType": "uint256",
          "name": "numTokensRepaid",
          "type": "uint256"
        },
        {
          "indexed": true,
          "internalType": "uint256",
          "name": "newTokenCount",
          "type": "uint256"
        }
      ],
      "name": "Repay",
      "type": "event"
    },
    {
      "anonymous": false,
      "inputs": [
        {
          "indexed": true,
          "internalType": "address",
          "name": "sponsor",
          "type": "address"
        },
        {
          "indexed": true,
          "internalType": "uint256",
          "name": "collateralAmount",
          "type": "uint256"
        }
      ],
      "name": "RequestWithdrawal",
      "type": "event"
    },
    {
      "anonymous": false,
      "inputs": [
        {
          "indexed": true,
          "internalType": "address",
          "name": "sponsor",
          "type": "address"
        },
        {
          "indexed": true,
          "internalType": "uint256",
          "name": "collateralAmount",
          "type": "uint256"
        }
      ],
      "name": "RequestWithdrawalCanceled",
      "type": "event"
    },
    {
      "anonymous": false,
      "inputs": [
        {
          "indexed": true,
          "internalType": "address",
          "name": "sponsor",
          "type": "address"
        },
        {
          "indexed": true,
          "internalType": "uint256",
          "name": "collateralAmount",
          "type": "uint256"
        }
      ],
      "name": "RequestWithdrawalExecuted",
      "type": "event"
    },
    {
      "anonymous": false,
      "inputs": [
        {
          "indexed": true,
          "internalType": "address",
          "name": "caller",
          "type": "address"
        },
        {
          "indexed": true,
          "internalType": "uint256",
          "name": "collateralReturned",
          "type": "uint256"
        },
        {
          "indexed": true,
          "internalType": "uint256",
          "name": "tokensBurned",
          "type": "uint256"
        }
      ],
      "name": "SettleEmergencyShutdown",
      "type": "event"
    },
    {
      "anonymous": false,
      "inputs": [
        {
          "indexed": true,
          "internalType": "address",
          "name": "sponsor",
          "type": "address"
        },
        {
          "indexed": true,
          "internalType": "uint256",
          "name": "collateralAmount",
          "type": "uint256"
        }
      ],
      "name": "Withdrawal",
      "type": "event"
    },
    {
      "inputs": [],
      "name": "applyFundingRate",
      "outputs": [],
      "stateMutability": "nonpayable",
      "type": "function"
    },
    {
      "inputs": [],
      "name": "cancelWithdrawal",
      "outputs": [],
      "stateMutability": "nonpayable",
      "type": "function"
    },
    {
      "inputs": [],
      "name": "collateralCurrency",
      "outputs": [
        {
          "internalType": "contract IERC20",
          "name": "",
          "type": "address"
        }
      ],
      "stateMutability": "view",
      "type": "function"
    },
    {
      "inputs": [],
      "name": "collateralRequirement",
      "outputs": [
        {
          "internalType": "uint256",
          "name": "rawValue",
          "type": "uint256"
        }
      ],
      "stateMutability": "view",
      "type": "function"
    },
    {
      "inputs": [],
      "name": "configStore",
      "outputs": [
        {
          "internalType": "contract ConfigStoreInterface",
          "name": "",
          "type": "address"
        }
      ],
      "stateMutability": "view",
      "type": "function"
    },
    {
      "inputs": [
        {
          "components": [
            {
              "internalType": "uint256",
              "name": "rawValue",
              "type": "uint256"
            }
          ],
          "internalType": "struct FixedPoint.Unsigned",
          "name": "collateralAmount",
          "type": "tuple"
        },
        {
          "components": [
            {
              "internalType": "uint256",
              "name": "rawValue",
              "type": "uint256"
            }
          ],
          "internalType": "struct FixedPoint.Unsigned",
          "name": "numTokens",
          "type": "tuple"
        }
      ],
      "name": "create",
      "outputs": [],
      "stateMutability": "nonpayable",
      "type": "function"
    },
    {
      "inputs": [
        {
          "internalType": "address",
          "name": "sponsor",
          "type": "address"
        },
        {
          "components": [
            {
              "internalType": "uint256",
              "name": "rawValue",
              "type": "uint256"
            }
          ],
          "internalType": "struct FixedPoint.Unsigned",
          "name": "minCollateralPerToken",
          "type": "tuple"
        },
        {
          "components": [
            {
              "internalType": "uint256",
              "name": "rawValue",
              "type": "uint256"
            }
          ],
          "internalType": "struct FixedPoint.Unsigned",
          "name": "maxCollateralPerToken",
          "type": "tuple"
        },
        {
          "components": [
            {
              "internalType": "uint256",
              "name": "rawValue",
              "type": "uint256"
            }
          ],
          "internalType": "struct FixedPoint.Unsigned",
          "name": "maxTokensToLiquidate",
          "type": "tuple"
        },
        {
          "internalType": "uint256",
          "name": "deadline",
          "type": "uint256"
        }
      ],
      "name": "createLiquidation",
      "outputs": [
        {
          "internalType": "uint256",
          "name": "liquidationId",
          "type": "uint256"
        },
        {
          "components": [
            {
              "internalType": "uint256",
              "name": "rawValue",
              "type": "uint256"
            }
          ],
          "internalType": "struct FixedPoint.Unsigned",
          "name": "tokensLiquidated",
          "type": "tuple"
        },
        {
          "components": [
            {
              "internalType": "uint256",
              "name": "rawValue",
              "type": "uint256"
            }
          ],
          "internalType": "struct FixedPoint.Unsigned",
          "name": "finalFeeBond",
          "type": "tuple"
        }
      ],
      "stateMutability": "nonpayable",
      "type": "function"
    },
    {
      "inputs": [],
      "name": "cumulativeFeeMultiplier",
      "outputs": [
        {
          "internalType": "uint256",
          "name": "rawValue",
          "type": "uint256"
        }
      ],
      "stateMutability": "view",
      "type": "function"
    },
    {
      "inputs": [
        {
          "components": [
            {
              "internalType": "uint256",
              "name": "rawValue",
              "type": "uint256"
            }
          ],
          "internalType": "struct FixedPoint.Unsigned",
          "name": "collateralAmount",
          "type": "tuple"
        }
      ],
      "name": "deposit",
      "outputs": [],
      "stateMutability": "nonpayable",
      "type": "function"
    },
    {
      "inputs": [
        {
          "internalType": "address",
          "name": "sponsor",
          "type": "address"
        },
        {
          "components": [
            {
              "internalType": "uint256",
              "name": "rawValue",
              "type": "uint256"
            }
          ],
          "internalType": "struct FixedPoint.Unsigned",
          "name": "collateralAmount",
          "type": "tuple"
        }
      ],
      "name": "depositTo",
      "outputs": [],
      "stateMutability": "nonpayable",
      "type": "function"
    },
    {
      "inputs": [
        {
          "internalType": "uint256",
          "name": "liquidationId",
          "type": "uint256"
        },
        {
          "internalType": "address",
          "name": "sponsor",
          "type": "address"
        }
      ],
      "name": "dispute",
      "outputs": [
        {
          "components": [
            {
              "internalType": "uint256",
              "name": "rawValue",
              "type": "uint256"
            }
          ],
          "internalType": "struct FixedPoint.Unsigned",
          "name": "totalPaid",
          "type": "tuple"
        }
      ],
      "stateMutability": "nonpayable",
      "type": "function"
    },
    {
      "inputs": [],
      "name": "disputeBondPercentage",
      "outputs": [
        {
          "internalType": "uint256",
          "name": "rawValue",
          "type": "uint256"
        }
      ],
      "stateMutability": "view",
      "type": "function"
    },
    {
      "inputs": [],
      "name": "disputerDisputeRewardPercentage",
      "outputs": [
        {
          "internalType": "uint256",
          "name": "rawValue",
          "type": "uint256"
        }
      ],
      "stateMutability": "view",
      "type": "function"
    },
    {
      "inputs": [],
      "name": "emergencyShutdown",
      "outputs": [],
      "stateMutability": "nonpayable",
      "type": "function"
    },
    {
      "inputs": [],
      "name": "emergencyShutdownPrice",
      "outputs": [
        {
          "internalType": "uint256",
          "name": "rawValue",
          "type": "uint256"
        }
      ],
      "stateMutability": "view",
      "type": "function"
    },
    {
      "inputs": [],
      "name": "emergencyShutdownTimestamp",
      "outputs": [
        {
          "internalType": "uint256",
          "name": "",
          "type": "uint256"
        }
      ],
      "stateMutability": "view",
      "type": "function"
    },
    {
      "inputs": [],
      "name": "finder",
      "outputs": [
        {
          "internalType": "contract FinderInterface",
          "name": "",
          "type": "address"
        }
      ],
      "stateMutability": "view",
      "type": "function"
    },
    {
      "inputs": [],
      "name": "fundingRate",
      "outputs": [
        {
          "components": [
            {
              "internalType": "int256",
              "name": "rawValue",
              "type": "int256"
            }
          ],
          "internalType": "struct FixedPoint.Signed",
          "name": "rate",
          "type": "tuple"
        },
        {
          "internalType": "bytes32",
          "name": "identifier",
          "type": "bytes32"
        },
        {
          "components": [
            {
              "internalType": "uint256",
              "name": "rawValue",
              "type": "uint256"
            }
          ],
          "internalType": "struct FixedPoint.Unsigned",
          "name": "cumulativeMultiplier",
          "type": "tuple"
        },
        {
          "internalType": "uint256",
          "name": "updateTime",
          "type": "uint256"
        },
        {
          "internalType": "uint256",
          "name": "applicationTime",
          "type": "uint256"
        },
        {
          "internalType": "uint256",
          "name": "proposalTime",
          "type": "uint256"
        }
      ],
      "stateMutability": "view",
      "type": "function"
    },
    {
      "inputs": [
        {
          "internalType": "address",
          "name": "sponsor",
          "type": "address"
        }
      ],
      "name": "getCollateral",
      "outputs": [
        {
          "components": [
            {
              "internalType": "uint256",
              "name": "rawValue",
              "type": "uint256"
            }
          ],
          "internalType": "struct FixedPoint.Unsigned",
          "name": "collateralAmount",
          "type": "tuple"
        }
      ],
      "stateMutability": "view",
      "type": "function"
    },
    {
      "inputs": [],
      "name": "getCurrentTime",
      "outputs": [
        {
          "internalType": "uint256",
          "name": "",
          "type": "uint256"
        }
      ],
      "stateMutability": "view",
      "type": "function"
    },
    {
      "inputs": [
        {
          "components": [
            {
              "internalType": "uint256",
              "name": "rawValue",
              "type": "uint256"
            }
          ],
          "internalType": "struct FixedPoint.Unsigned",
          "name": "rawTokenDebt",
          "type": "tuple"
        }
      ],
      "name": "getFundingRateAppliedTokenDebt",
      "outputs": [
        {
          "components": [
            {
              "internalType": "uint256",
              "name": "rawValue",
              "type": "uint256"
            }
          ],
          "internalType": "struct FixedPoint.Unsigned",
          "name": "totalCollateral",
          "type": "tuple"
        }
      ],
      "stateMutability": "view",
      "type": "function"
    },
    {
      "inputs": [
        {
          "internalType": "address",
          "name": "sponsor",
          "type": "address"
        }
      ],
      "name": "getLiquidations",
      "outputs": [
        {
          "components": [
            {
              "internalType": "address",
              "name": "sponsor",
              "type": "address"
            },
            {
              "internalType": "address",
              "name": "liquidator",
              "type": "address"
            },
            {
              "internalType": "enum PerpetualLiquidatable.Status",
              "name": "state",
              "type": "uint8"
            },
            {
              "internalType": "uint256",
              "name": "liquidationTime",
              "type": "uint256"
            },
            {
              "components": [
                {
                  "internalType": "uint256",
                  "name": "rawValue",
                  "type": "uint256"
                }
              ],
              "internalType": "struct FixedPoint.Unsigned",
              "name": "tokensOutstanding",
              "type": "tuple"
            },
            {
              "components": [
                {
                  "internalType": "uint256",
                  "name": "rawValue",
                  "type": "uint256"
                }
              ],
              "internalType": "struct FixedPoint.Unsigned",
              "name": "lockedCollateral",
              "type": "tuple"
            },
            {
              "components": [
                {
                  "internalType": "uint256",
                  "name": "rawValue",
                  "type": "uint256"
                }
              ],
              "internalType": "struct FixedPoint.Unsigned",
              "name": "liquidatedCollateral",
              "type": "tuple"
            },
            {
              "components": [
                {
                  "internalType": "uint256",
                  "name": "rawValue",
                  "type": "uint256"
                }
              ],
              "internalType": "struct FixedPoint.Unsigned",
              "name": "rawUnitCollateral",
              "type": "tuple"
            },
            {
              "internalType": "address",
              "name": "disputer",
              "type": "address"
            },
            {
              "components": [
                {
                  "internalType": "uint256",
                  "name": "rawValue",
                  "type": "uint256"
                }
              ],
              "internalType": "struct FixedPoint.Unsigned",
              "name": "settlementPrice",
              "type": "tuple"
            },
            {
              "components": [
                {
                  "internalType": "uint256",
                  "name": "rawValue",
                  "type": "uint256"
                }
              ],
              "internalType": "struct FixedPoint.Unsigned",
              "name": "finalFee",
              "type": "tuple"
            }
          ],
          "internalType": "struct PerpetualLiquidatable.LiquidationData[]",
          "name": "liquidationData",
          "type": "tuple[]"
        }
      ],
      "stateMutability": "view",
      "type": "function"
    },
    {
      "inputs": [
        {
          "internalType": "uint256",
          "name": "time",
          "type": "uint256"
        }
      ],
      "name": "getOutstandingRegularFees",
      "outputs": [
        {
          "components": [
            {
              "internalType": "uint256",
              "name": "rawValue",
              "type": "uint256"
            }
          ],
          "internalType": "struct FixedPoint.Unsigned",
          "name": "regularFee",
          "type": "tuple"
        },
        {
          "components": [
            {
              "internalType": "uint256",
              "name": "rawValue",
              "type": "uint256"
            }
          ],
          "internalType": "struct FixedPoint.Unsigned",
          "name": "latePenalty",
          "type": "tuple"
        },
        {
          "components": [
            {
              "internalType": "uint256",
              "name": "rawValue",
              "type": "uint256"
            }
          ],
          "internalType": "struct FixedPoint.Unsigned",
          "name": "totalPaid",
          "type": "tuple"
        }
      ],
      "stateMutability": "view",
      "type": "function"
    },
    {
      "inputs": [],
      "name": "gulp",
      "outputs": [],
      "stateMutability": "nonpayable",
      "type": "function"
    },
    {
      "inputs": [],
      "name": "liquidationLiveness",
      "outputs": [
        {
          "internalType": "uint256",
          "name": "",
          "type": "uint256"
        }
      ],
      "stateMutability": "view",
      "type": "function"
    },
    {
      "inputs": [
        {
          "internalType": "address",
          "name": "",
          "type": "address"
        },
        {
          "internalType": "uint256",
          "name": "",
          "type": "uint256"
        }
      ],
      "name": "liquidations",
      "outputs": [
        {
          "internalType": "address",
          "name": "sponsor",
          "type": "address"
        },
        {
          "internalType": "address",
          "name": "liquidator",
          "type": "address"
        },
        {
          "internalType": "enum PerpetualLiquidatable.Status",
          "name": "state",
          "type": "uint8"
        },
        {
          "internalType": "uint256",
          "name": "liquidationTime",
          "type": "uint256"
        },
        {
          "components": [
            {
              "internalType": "uint256",
              "name": "rawValue",
              "type": "uint256"
            }
          ],
          "internalType": "struct FixedPoint.Unsigned",
          "name": "tokensOutstanding",
          "type": "tuple"
        },
        {
          "components": [
            {
              "internalType": "uint256",
              "name": "rawValue",
              "type": "uint256"
            }
          ],
          "internalType": "struct FixedPoint.Unsigned",
          "name": "lockedCollateral",
          "type": "tuple"
        },
        {
          "components": [
            {
              "internalType": "uint256",
              "name": "rawValue",
              "type": "uint256"
            }
          ],
          "internalType": "struct FixedPoint.Unsigned",
          "name": "liquidatedCollateral",
          "type": "tuple"
        },
        {
          "components": [
            {
              "internalType": "uint256",
              "name": "rawValue",
              "type": "uint256"
            }
          ],
          "internalType": "struct FixedPoint.Unsigned",
          "name": "rawUnitCollateral",
          "type": "tuple"
        },
        {
          "internalType": "address",
          "name": "disputer",
          "type": "address"
        },
        {
          "components": [
            {
              "internalType": "uint256",
              "name": "rawValue",
              "type": "uint256"
            }
          ],
          "internalType": "struct FixedPoint.Unsigned",
          "name": "settlementPrice",
          "type": "tuple"
        },
        {
          "components": [
            {
              "internalType": "uint256",
              "name": "rawValue",
              "type": "uint256"
            }
          ],
          "internalType": "struct FixedPoint.Unsigned",
          "name": "finalFee",
          "type": "tuple"
        }
      ],
      "stateMutability": "view",
      "type": "function"
    },
    {
      "inputs": [],
      "name": "minSponsorTokens",
      "outputs": [
        {
          "internalType": "uint256",
          "name": "rawValue",
          "type": "uint256"
        }
      ],
      "stateMutability": "view",
      "type": "function"
    },
    {
      "inputs": [],
      "name": "payRegularFees",
      "outputs": [
        {
          "components": [
            {
              "internalType": "uint256",
              "name": "rawValue",
              "type": "uint256"
            }
          ],
          "internalType": "struct FixedPoint.Unsigned",
          "name": "",
          "type": "tuple"
        }
      ],
      "stateMutability": "nonpayable",
      "type": "function"
    },
    {
      "inputs": [],
      "name": "pfc",
      "outputs": [
        {
          "components": [
            {
              "internalType": "uint256",
              "name": "rawValue",
              "type": "uint256"
            }
          ],
          "internalType": "struct FixedPoint.Unsigned",
          "name": "",
          "type": "tuple"
        }
      ],
      "stateMutability": "view",
      "type": "function"
    },
    {
      "inputs": [
        {
          "internalType": "address",
          "name": "",
          "type": "address"
        }
      ],
      "name": "positions",
      "outputs": [
        {
          "components": [
            {
              "internalType": "uint256",
              "name": "rawValue",
              "type": "uint256"
            }
          ],
          "internalType": "struct FixedPoint.Unsigned",
          "name": "tokensOutstanding",
          "type": "tuple"
        },
        {
          "internalType": "uint256",
          "name": "withdrawalRequestPassTimestamp",
          "type": "uint256"
        },
        {
          "components": [
            {
              "internalType": "uint256",
              "name": "rawValue",
              "type": "uint256"
            }
          ],
          "internalType": "struct FixedPoint.Unsigned",
          "name": "withdrawalRequestAmount",
          "type": "tuple"
        },
        {
          "components": [
            {
              "internalType": "uint256",
              "name": "rawValue",
              "type": "uint256"
            }
          ],
          "internalType": "struct FixedPoint.Unsigned",
          "name": "rawCollateral",
          "type": "tuple"
        }
      ],
      "stateMutability": "view",
      "type": "function"
    },
    {
      "inputs": [],
      "name": "priceIdentifier",
      "outputs": [
        {
          "internalType": "bytes32",
          "name": "",
          "type": "bytes32"
        }
      ],
      "stateMutability": "view",
      "type": "function"
    },
    {
      "inputs": [
        {
          "components": [
            {
              "internalType": "int256",
              "name": "rawValue",
              "type": "int256"
            }
          ],
          "internalType": "struct FixedPoint.Signed",
          "name": "rate",
          "type": "tuple"
        },
        {
          "internalType": "uint256",
          "name": "timestamp",
          "type": "uint256"
        }
      ],
      "name": "proposeFundingRate",
      "outputs": [
        {
          "components": [
            {
              "internalType": "uint256",
              "name": "rawValue",
              "type": "uint256"
            }
          ],
          "internalType": "struct FixedPoint.Unsigned",
          "name": "totalBond",
          "type": "tuple"
        }
      ],
      "stateMutability": "nonpayable",
      "type": "function"
    },
    {
      "inputs": [],
      "name": "rawLiquidationCollateral",
      "outputs": [
        {
          "internalType": "uint256",
          "name": "rawValue",
          "type": "uint256"
        }
      ],
      "stateMutability": "view",
      "type": "function"
    },
    {
      "inputs": [],
      "name": "rawTotalPositionCollateral",
      "outputs": [
        {
          "internalType": "uint256",
          "name": "rawValue",
          "type": "uint256"
        }
      ],
      "stateMutability": "view",
      "type": "function"
    },
    {
      "inputs": [
        {
          "components": [
            {
              "internalType": "uint256",
              "name": "rawValue",
              "type": "uint256"
            }
          ],
          "internalType": "struct FixedPoint.Unsigned",
          "name": "numTokens",
          "type": "tuple"
        }
      ],
      "name": "redeem",
      "outputs": [
        {
          "components": [
            {
              "internalType": "uint256",
              "name": "rawValue",
              "type": "uint256"
            }
          ],
          "internalType": "struct FixedPoint.Unsigned",
          "name": "amountWithdrawn",
          "type": "tuple"
        }
      ],
      "stateMutability": "nonpayable",
      "type": "function"
    },
    {
      "inputs": [],
      "name": "remargin",
      "outputs": [],
      "stateMutability": "nonpayable",
      "type": "function"
    },
    {
      "inputs": [
        {
          "components": [
            {
              "internalType": "uint256",
              "name": "rawValue",
              "type": "uint256"
            }
          ],
          "internalType": "struct FixedPoint.Unsigned",
          "name": "numTokens",
          "type": "tuple"
        }
      ],
      "name": "repay",
      "outputs": [],
      "stateMutability": "nonpayable",
      "type": "function"
    },
    {
      "inputs": [
        {
          "components": [
            {
              "internalType": "uint256",
              "name": "rawValue",
              "type": "uint256"
            }
          ],
          "internalType": "struct FixedPoint.Unsigned",
          "name": "collateralAmount",
          "type": "tuple"
        }
      ],
      "name": "requestWithdrawal",
      "outputs": [],
      "stateMutability": "nonpayable",
      "type": "function"
    },
    {
      "inputs": [
        {
          "internalType": "uint256",
          "name": "time",
          "type": "uint256"
        }
      ],
      "name": "setCurrentTime",
      "outputs": [],
      "stateMutability": "nonpayable",
      "type": "function"
    },
    {
      "inputs": [],
      "name": "settleEmergencyShutdown",
      "outputs": [
        {
          "components": [
            {
              "internalType": "uint256",
              "name": "rawValue",
              "type": "uint256"
            }
          ],
          "internalType": "struct FixedPoint.Unsigned",
          "name": "amountWithdrawn",
          "type": "tuple"
        }
      ],
      "stateMutability": "nonpayable",
      "type": "function"
    },
    {
      "inputs": [],
      "name": "sponsorDisputeRewardPercentage",
      "outputs": [
        {
          "internalType": "uint256",
          "name": "rawValue",
          "type": "uint256"
        }
      ],
      "stateMutability": "view",
      "type": "function"
    },
    {
      "inputs": [],
      "name": "timerAddress",
      "outputs": [
        {
          "internalType": "address",
          "name": "",
          "type": "address"
        }
      ],
      "stateMutability": "view",
      "type": "function"
    },
    {
      "inputs": [],
      "name": "tokenCurrency",
      "outputs": [
        {
          "internalType": "contract ExpandedIERC20",
          "name": "",
          "type": "address"
        }
      ],
      "stateMutability": "view",
      "type": "function"
    },
    {
      "inputs": [],
      "name": "totalPositionCollateral",
      "outputs": [
        {
          "components": [
            {
              "internalType": "uint256",
              "name": "rawValue",
              "type": "uint256"
            }
          ],
          "internalType": "struct FixedPoint.Unsigned",
          "name": "totalCollateral",
          "type": "tuple"
        }
      ],
      "stateMutability": "view",
      "type": "function"
    },
    {
      "inputs": [],
      "name": "totalTokensOutstanding",
      "outputs": [
        {
          "internalType": "uint256",
          "name": "rawValue",
          "type": "uint256"
        }
      ],
      "stateMutability": "view",
      "type": "function"
    },
    {
      "inputs": [
        {
          "components": [
            {
              "internalType": "uint256",
              "name": "rawValue",
              "type": "uint256"
            }
          ],
          "internalType": "struct FixedPoint.Unsigned",
          "name": "collateralAmount",
          "type": "tuple"
        }
      ],
      "name": "withdraw",
      "outputs": [
        {
          "components": [
            {
              "internalType": "uint256",
              "name": "rawValue",
              "type": "uint256"
            }
          ],
          "internalType": "struct FixedPoint.Unsigned",
          "name": "amountWithdrawn",
          "type": "tuple"
        }
      ],
      "stateMutability": "nonpayable",
      "type": "function"
    },
    {
      "inputs": [
        {
          "internalType": "uint256",
          "name": "liquidationId",
          "type": "uint256"
        },
        {
          "internalType": "address",
          "name": "sponsor",
          "type": "address"
        }
      ],
      "name": "withdrawLiquidation",
      "outputs": [
        {
          "components": [
            {
              "components": [
                {
                  "internalType": "uint256",
                  "name": "rawValue",
                  "type": "uint256"
                }
              ],
              "internalType": "struct FixedPoint.Unsigned",
              "name": "payToSponsor",
              "type": "tuple"
            },
            {
              "components": [
                {
                  "internalType": "uint256",
                  "name": "rawValue",
                  "type": "uint256"
                }
              ],
              "internalType": "struct FixedPoint.Unsigned",
              "name": "payToLiquidator",
              "type": "tuple"
            },
            {
              "components": [
                {
                  "internalType": "uint256",
                  "name": "rawValue",
                  "type": "uint256"
                }
              ],
              "internalType": "struct FixedPoint.Unsigned",
              "name": "payToDisputer",
              "type": "tuple"
            },
            {
              "components": [
                {
                  "internalType": "uint256",
                  "name": "rawValue",
                  "type": "uint256"
                }
              ],
              "internalType": "struct FixedPoint.Unsigned",
              "name": "paidToSponsor",
              "type": "tuple"
            },
            {
              "components": [
                {
                  "internalType": "uint256",
                  "name": "rawValue",
                  "type": "uint256"
                }
              ],
              "internalType": "struct FixedPoint.Unsigned",
              "name": "paidToLiquidator",
              "type": "tuple"
            },
            {
              "components": [
                {
                  "internalType": "uint256",
                  "name": "rawValue",
                  "type": "uint256"
                }
              ],
              "internalType": "struct FixedPoint.Unsigned",
              "name": "paidToDisputer",
              "type": "tuple"
            }
          ],
          "internalType": "struct PerpetualLiquidatable.RewardsData",
          "name": "",
          "type": "tuple"
        }
      ],
      "stateMutability": "nonpayable",
      "type": "function"
    },
    {
      "inputs": [],
      "name": "withdrawPassedRequest",
      "outputs": [
        {
          "components": [
            {
              "internalType": "uint256",
              "name": "rawValue",
              "type": "uint256"
            }
          ],
          "internalType": "struct FixedPoint.Unsigned",
          "name": "amountWithdrawn",
          "type": "tuple"
        }
      ],
      "stateMutability": "nonpayable",
      "type": "function"
    },
    {
      "inputs": [],
      "name": "withdrawalLiveness",
      "outputs": [
        {
          "internalType": "uint256",
          "name": "",
          "type": "uint256"
        }
      ],
      "stateMutability": "view",
      "type": "function"
    }
  ],
  "bytecode": "0x60806040523480156200001157600080fd5b5060405162005c0638038062005c06833981016040819052620000349162000580565b805160408201516060830151608084015160c085015160e0860151610100870151602088015161012089015160a08a015160008055600180546001600160a81b0319166001600160a01b0380841691909117600160a01b1790915560028054828c166001600160a01b03199182161790915560038054928a16929091169190911790558a99989796959493929190848988858585848482620000d5620002af565b600481905550620000f260016200035860201b62002a861760201c565b516005555060009150620001079050620002af565b6009819055600a555050516008556007939093555050600c80546001600160a01b0319166001600160a01b03909216919091179055620001466200039c565b6001600160a01b03166390978d1b876040518263ffffffff1660e01b81526004016200017491815260200190565b60206040518083038186803b1580156200018d57600080fd5b505afa158015620001a2573d6000803e3d6000fd5b505050506040513d601f19601f82011682018060405250810190620001c891906200055e565b620001d257600080fd5b50505060129690965550601080546001600160a01b0319166001600160a01b03949094169390931790925550915160135550601155610160810151620002269060016200043c602090811b62002abb17901c565b6200023057600080fd5b6200026e60016200025a836101c00151846101a001516200045560201b62002ad21790919060201c565b6200049a60201b62002b051790919060201c565b6200027857600080fd5b61014081015160175561016081015151601855610180810151516019556101a081015151601a556101c0015151601b555062000748565b6001546000906001600160a01b0316156200035357600160009054906101000a90046001600160a01b03166001600160a01b03166329cb924d6040518163ffffffff1660e01b815260040160206040518083038186803b1580156200031357600080fd5b505afa15801562000328573d6000803e3d6000fd5b505050506040513d601f19601f820116820180604052508101906200034e9190620006a4565b905090565b504290565b604080516020810190915260008152604051806020016040528062000394670de0b6b3a764000085620004b360201b62002b1c1790919060201c565b905292915050565b6003546040516302abf57960e61b81527f4964656e74696669657257686974656c6973740000000000000000000000000060048201526000916001600160a01b03169063aafd5e409060240160206040518083038186803b1580156200040157600080fd5b505afa15801562000416573d6000803e3d6000fd5b505050506040513d601f19601f820116820180604052508101906200034e919062000541565b6000620004498262000358565b51835111905092915050565b60408051602081019091526000815260405180602001604052806200049184600001518660000151620004c860201b62002b2f1790919060201c565b90529392505050565b6000620004a78262000358565b51835110905092915050565b6000620004c1828462000710565b9392505050565b6000620004c18284620006f5565b80516001600160a01b0381168114620004ee57600080fd5b919050565b60006020828403121562000505578081fd5b604051602081016001600160401b03811182821017156200053457634e487b7160e01b83526041600452602483fd5b6040529151825250919050565b60006020828403121562000553578081fd5b620004c182620004d6565b60006020828403121562000570578081fd5b81518015158114620004c1578182fd5b60006101e0828403121562000593578081fd5b6200059d620006bd565b82518152620005af60208401620004d6565b6020820152620005c260408401620004d6565b6040820152620005d560608401620004d6565b6060820152620005e860808401620004d6565b6080820152620005fb60a08401620004d6565b60a082015260c083015160c082015260e083015160e08201526101006200062585828601620004f3565b908201526101206200063a85858301620004f3565b9082015261014083810151908201526101606200065a85828601620004f3565b908201526101806200066f85858301620004f3565b908201526101a06200068485858301620004f3565b908201526101c06200069985858301620004f3565b908201529392505050565b600060208284031215620006b6578081fd5b5051919050565b6040516101e081016001600160401b0381118282101715620006ef57634e487b7160e01b600052604160045260246000fd5b60405290565b600082198211156200070b576200070b62000732565b500190565b60008160001904831182151516156200072d576200072d62000732565b500290565b634e487b7160e01b600052601160045260246000fd5b6154ae80620007586000396000f3fe608060405234801561001057600080fd5b50600436106102ba5760003560e01c80635aa266c91161018257806394909e62116100e9578063a1c4d1e7116100a2578063bc1216301161007c578063bc121630146106d4578063bda02e771461033b578063d1e92c11146106e7578063dd0eef3d146106fa57600080fd5b8063a1c4d1e71461068e578063a765fbea146106ae578063b9a3c84c146106c157600080fd5b806394909e621461061f57806397523661146106275780639b56d6c9146106305780639d69dc4e146106435780639e4efaa0146106565780639ff4dea81461068557600080fd5b80637b34ee7f1161013b5780637b34ee7f146105dc5780637e398c22146105e657806381a10ae1146105f05780638bbd9fb9146105f85780638c382eb21461060b57806392120aec1461061557600080fd5b80635aa266c91461057f5780635f1af1ca146105925780636ba2f992146105a55780636cf1be29146105b85780637048594b146105c157806371f3c1b7146105d457600080fd5b806333a46ca21161022657806341d3c84c116101df57806341d3c84c1461045757806343e4771b146104be57806348e30c3f146104c65780634f8c4847146104d057806350f49846146104fa57806355f575101461050457600080fd5b806333a46ca2146103b45780633403c2fc146103bc57806334c49556146103c4578063360598e1146103d75780633cb6ce831461043c5780633ee7a5ce1461044457600080fd5b80632261128011610278578063226112801461035057806322f8e5661461035857806325ed4dd81461036b57806329cb924d146103995780632d5436cf146103a15780632e154f2e146103aa57600080fd5b8062b9add7146102bf578063081b314e146102db5780630c9229ca146102f35780630de15fd9146102fd57806318928a0c146103285780631c39c38d1461033d575b600080fd5b6102c7610704565b604051905181526020015b60405180910390f35b601a546102e59081565b6040519081526020016102d2565b600e546102e59081565b600254610310906001600160a01b031681565b6040516001600160a01b0390911681526020016102d2565b61033b610336366004614a7e565b610a6d565b005b600154610310906001600160a01b031681565b61033b610b25565b61033b610366366004614d26565b610ba0565b61037e610379366004614a1e565b610c17565b604080519384529151602084015251908201526060016102d2565b6102e561115a565b6102e560175481565b6019546102e59081565b6102c76111fe565b61033b611337565b6102c76103d2366004614c6f565b6113d2565b6103ea6103e5366004614d3e565b61168f565b6040516102d29190600060c0820190508251518252602083015151602083015260408301515160408301526060830151516060830152608083015151608083015260a08301515160a083015292915050565b6102c7611b4e565b6102c7610452366004614ca9565b611ccc565b6040805160208082018352600654825260075483519182019093526008548152600954600a54600b5461048b959392919086565b604080519651875260208701959095529251938501939093526060840152608083019190915260a082015260c0016102d2565b6102c7611d8c565b6018546102e59081565b6104e36104de366004614ab3565b611dc5565b6040516102d29b9a99989796959493929190614ec0565b6016546102e59081565b6105586105123660046149e6565b600d602090815260009182526040918290208251808301845281548152600182015484518085018652600284015481528551948501909552600390920154835292909184565b604080519451855260208501939093529051918301919091525160608201526080016102d2565b61033b61058d366004614ca9565b611e8c565b6102c76105a0366004614ca9565b612003565b61033b6105b3366004614cdf565b612226565b6102e560005481565b601054610310906001600160a01b031681565b61033b612456565b6014546102e59081565b601b546102e59081565b6102c761247f565b6102c7610606366004614ca9565b61249e565b600f546102e59081565b6013546102e59081565b61033b6124c6565b6102e560115481565b6102c761063e3660046149e6565b6124de565b600c54610310906001600160a01b031681565b610669610664366004614d26565b61252e565b60408051935184529151602084015251908201526060016102d2565b6102e560125481565b6106a161069c3660046149e6565b6126a8565b6040516102d29190614f67565b6102c76106bc366004614d3e565b61282e565b600354610310906001600160a01b031681565b61033b6106e2366004614ca9565b6129b8565b61033b6106f5366004614ca9565b612a79565b6005546102e59081565b60408051602081019091526000815261071b612b3b565b610723612456565b61072b612b47565b610733612ba5565b6107586107406000612a86565b60408051602081019091526014548152905190511490565b1561076a57610765612bb4565b516014555b6040805160208101918290526010546370a0823160e01b90925233602482015260009181906001600160a01b03166370a082316044830160206040518083038186803b1580156107b957600080fd5b505afa1580156107cd573d6000803e3d6000fd5b505050506040513d601f19601f820116820180604052508101906107f19190614af8565b90526040805160208101909152601454815290915060009061081c9061081684612bce565b90612bf4565b336000908152600d60209081526040808320815192830190915260038101548252929350610854919061084e90612c31565b90612abb565b1561093b5760408051602080820183526014548252825190810190925282548252600091610886919061081690612bce565b6040805160208101909152600384015481529091506000906108a790612c31565b905060006108b783835190511090565b6108d057604051806020016040528060008152506108da565b6108da8284612c5b565b90506108e68582612ad2565b336000818152600d602052604080822082815560018101839055600281018390556003018290555192975090917fcad20625296d189a6fc6e5b39d0d544e5bd99dbda0c8f2f0ecffef3e0fbcc2829190a25050505b6040805160208101909152600f5481526000906109619061095b90612c31565b84612c85565b905061096e600f82612caa565b6040805160208101909152600e54815290955061098b9085612c5b565b51600e558351855160405133907f129c54fc6fd4bd937e4a04ede027ac4ad3f9397cd943d6d354649d9d968dacbe90600090a484516002546109da916001600160a01b03909116903390612d2c565b83516010546109f8916001600160a01b039091169033903090612d8f565b6010548451604051630852cd8d60e31b81526001600160a01b03909216916342966c6891610a2c9160040190815260200190565b600060405180830381600087803b158015610a4657600080fd5b505af1158015610a5a573d6000803e3d6000fd5b5050505050505050610a6a612dcd565b90565b610a75612de2565b81610a7f81612def565b610a87612456565b610a8f612b47565b610a97612ba5565b610aa2826000612abb565b610aab57600080fd5b6000610ab684612e06565b9050610ac28184612e2e565b5082516040516001600160a01b038616907fe1fffcc4923d04b559f4d29a8bfc6cda04eb5b0d3c460751c2402c5c5cc9109c90600090a38251600254610b17916001600160a01b039091169033903090612d8f565b50610b20612dcd565b505050565b610b2d612de2565b610b35612b47565b610b3d612ba5565b6000610b4833612e06565b9050806001015460001415610b5c57600080fd5b600281015460405133907f74d8a3658feb89d1a5c335229bbbfc3bbcfaf492769feb7aa4cd2d92efeaf69190600090a3610b9581612e56565b50610b9e612dcd565b565b6001546001600160a01b0316610bb557600080fd5b60015460405163117c72b360e11b8152600481018390526001600160a01b03909116906322f8e566906024015b600060405180830381600087803b158015610bfc57600080fd5b505af1158015610c10573d6000803e3d6000fd5b5050505050565b6000610c2f6040518060200160405280600081525090565b604080516020810190915260008152610c46612de2565b610c4e612456565b610c56612b47565b610c5e612ba5565b83610c6761115a565b1115610c7257600080fd5b6000610c7d89612e06565b9050610ca5610c9136889003880188614ca9565b604080516020810190915283548152612c85565b9250610cb2836000612abb565b610cbb57600080fd5b604080516020810190915260038201548152600090610cd990612c31565b90506000610ce76000612a86565b6040805160208101909152600285015490819052835191925011610d2557604080516020810190915260028401548152610d22908390612c5b565b90505b604080516020810190915283548152610d5482610d4b83610816368f90038f018f614ca9565b90519051101590565b610d5d57600080fd5b610d7f82610d76838e8036038101906108169190614ca9565b90519051111590565b610d8857600080fd5b50610d91612e70565b9350610da96040518060200160405280600081525090565b604080516020810190915260008152604080516020810190915285548152600090610dd5908990612f0e565b9050610de18582612bf4565b9250610ded8482612bf4565b604080516020810190915260028801548152909250600090610e0f9083612bf4565b9050610e1d8f8a8684612f4a565b50610e3490506016610e2f8489612ad2565b613048565b506001600160a01b038d1660008181526015602090815260409182902080548351610160810185529485523392850192909252909a509190810160018152602001610e7d61115a565b8152602001610e8b8a612bce565b8152602001848152602001838152602001610eae610ea96001612a86565b6130bc565b815260200160006001600160a01b03168152602001610ecd6000612a86565b815260209081018990528254600180820185556000948552938290208351600a9092020180546001600160a01b03199081166001600160a01b03938416178255928401519481018054938416959092169485178255604084015193949093926001600160a81b03191617600160a01b836004811115610f5c57634e487b7160e01b600052602160045260246000fd5b021790555060608201516002820155608082015151600382015560a082015151600482015560c082015151600582015560e08201515160068201556101008201516007820180546001600160a01b0319166001600160a01b039092169190911790556101208201515160088201556101409091015151600990910155604080516020810190915260135481526001860154158015906110055750610ffe61115a565b8660010154115b801561101357508051885110155b156110325761102c60125461102661115a565b90612b2f565b60018701555b88336001600160a01b03168f6001600160a01b03167f39b4371645b4132767fd76a1aad3108ff95c20d7b687b24d171555f5459a75976110718c612bce565b518751875161107e61115a565b60408051948552602085019390935291830152606082015260800160405180910390a487516010546110bf916001600160a01b039091169033903090612d8f565b6010548851604051630852cd8d60e31b81526001600160a01b03909216916342966c68916110f39160040190815260200190565b600060405180830381600087803b15801561110d57600080fd5b505af1158015611121573d6000803e3d6000fd5b5050885160025461114193506001600160a01b0316915033903090612d8f565b50505050505061114f612dcd565b955095509592505050565b6001546000906001600160a01b0316156111f957600160009054906101000a90046001600160a01b03166001600160a01b03166329cb924d6040518163ffffffff1660e01b815260040160206040518083038186803b1580156111bc57600080fd5b505afa1580156111d0573d6000803e3d6000fd5b505050506040513d601f19601f820116820180604052508101906111f49190614af8565b905090565b504290565b604080516020810190915260008152611215612de2565b61121d612456565b611225612b47565b61122d612ba5565b600061123833612e06565b9050806001015460001415801561125a575061125261115a565b816001015411155b61126357600080fd5b604080516020808201835260028401548252825190810190925260038301548252906112ac9061129290612c31565b604080516020810190915260028501548152905190511190565b156112cf576040805160208101909152600383015481526112cc90612c31565b90505b6112d982826130e6565b92506112e482612e56565b8251600254611300916001600160a01b03909116903390612d2c565b825160405133907fc86c3298cb79f486674dca87d9247e88b76146160e7d412cc59b26b14c358a6890600090a35050610a6a612dcd565b61133f612de2565b611347612456565b61134f612b47565b611357612ba5565b61135f61310e565b6001600160a01b0316336001600160a01b03161461137c57600080fd5b61138461115a565b6000819055611392906131a5565b60005460405190815233907f077382e0341a6d8666d1f8ed15b8c933a01f5c1a3e6c5229e2db8c5dc1c06ae19060200160405180910390a2610b9e612dcd565b6040805160208101909152600081526113e9612456565b6113f1612b47565b6113f9612ba5565b600b541561140657600080fd5b61140f836131e5565b600061141961115a565b6009549091508084118015611443575061143f611434613223565b60a0015183906132b3565b8410155b61144c57600080fd5b600b849055600061145b6132bf565b600754909150600061146b613303565b6002546040516311df92f160e01b81529192506001600160a01b03808616926311df92f1926114a79287928d9288921690600090600401615058565b602060405180830381600087803b1580156114c157600080fd5b505af11580156114d5573d6000803e3d6000fd5b505050506040513d601f19601f820116820180604052508101906114f99190614af8565b506040518060200160405280846001600160a01b031663ad5a755a858b8661152e611522613223565b60400151610816613354565b516040516001600160e01b031960e087901b1681526115539493929190600401615094565b602060405180830381600087803b15801561156d57600080fd5b505af1158015611581573d6000803e3d6000fd5b505050506040513d601f19601f820116820180604052508101906115a59190614af8565b905295506115b4866000612abb565b156115f35785516002546115d7916001600160a01b039091169033903090612d8f565b85516002546115f3916001600160a01b03909116908590613388565b8751604051637c82288f60e01b81526001600160a01b03851691637c82288f91611629913391309188918e918991600401614e73565b602060405180830381600087803b15801561164357600080fd5b505af1158015611657573d6000803e3d6000fd5b505050506040513d601f19601f8201168201806040525081019061167b9190614af8565b505050505050611689612dcd565b92915050565b611697614887565b82826116a38282613449565b6116ab612456565b6116b3612b47565b6116bb612ba5565b60006116c785876134d8565b90506116d3868661359e565b6040805160208101909152600682015481526000906116f190612c31565b6040805160208082018352600886015482528251908101909252600385015482529192506000906117289084906108169085612bf4565b60408051602081019091526004860154815290915060009061174a9085612bf4565b6040805160208101909152601b54815290915060009061176a9084612bf4565b6040805160208101909152601a54815290915060009061178a9085612bf4565b604080516020810190915260195481529091506000906117ab908590612bf4565b604080516020810190915260098a015481529091506000906117cd9089612bf4565b90506117d7614887565b600360018b0154600160a01b900460ff16600481111561180757634e487b7160e01b600052602160045260246000fd5b1415611903576118218261181b8786612ad2565b90612ad2565b604082015261183a6118338789612c5b565b8590612ad2565b81526118508561184a8987612c5b565b90612c5b565b6020820181905261186390601690612caa565b6080820152805161187690601690612caa565b6060820152604081015161188c90601690612caa565b60a0820181905260078b015490516002546118b5926001600160a01b0391821692911690612d2c565b60018a01546080820151516002546118db926001600160a01b0391821692911690612d2c565b89546060820151516002546118fe926001600160a01b0391821692911690612d2c565b6119fe565b600460018b0154600160a01b900460ff16600481111561193357634e487b7160e01b600052602160045260246000fd5b1415611983576119478261181b8886612ad2565b6020820181905261195a90601690612caa565b6080820181905260018b015490516002546118fe926001600160a01b0391821692911690612d2c565b6001808b0154600160a01b900460ff1660048111156119b257634e487b7160e01b600052602160045260246000fd5b14156119fe576119c28683612ad2565b602082018190526119d590601690612caa565b6080820181905260018b015490516002546119fe926001600160a01b0391821692911690612d2c565b60018a0154600160a01b900460ff166004811115611a2c57634e487b7160e01b600052602160045260246000fd5b6080828101515160a084015151606080860151518d516040805195865260208601949094529284015282015233917fb479588a37dc7f6bac1c91587fcfc539cac4949cf26bb536ad9c8d061f00f50d910160405180910390a3601560008f6001600160a01b03166001600160a01b031681526020019081526020016000208f81548110611ac957634e487b7160e01b600052603260045260246000fd5b600091825260208220600a9091020180546001600160a01b031990811682556001820180546001600160a81b03191690556002820183905560038201839055600482018390556005820183905560068201839055600782018054909116905560088101829055600901559b50505050505050505050611b46612dcd565b505092915050565b604080516020810190915260008152611b65612b47565b611b6d612ba5565b6000611b7761115a565b90506000611b83613354565b90506000806000611b938561252e565b600488905591945092509050611baa81600061370e565b15611bbb579450611cc49350505050565b815183516040517f19b92e73d08d517d71ec46136266e4f5d526a8cd4f8501d73713cebfe4f335ef90600090a3611bf28185613725565b611bfd836000612abb565b15611c91576000611c0c613763565b8451600254919250611c29916001600160a01b0316908390613388565b60025460405163432ce91960e11b81526001600160a01b0391821660048201528551602482015290821690638659d23290604401600060405180830381600087803b158015611c7757600080fd5b505af1158015611c8b573d6000803e3d6000fd5b50505050505b611c9c826000612abb565b15611cbd578151600254611cbd916001600160a01b03909116903390612d2c565b9450505050505b610a6a612dcd565b604080516020810190915260008152611ce3612de2565b33611ced81612def565b611cf5612456565b611cfd612b47565b611d05612ba5565b611d10836000612abb565b611d1957600080fd5b6000611d2433612e06565b9050611d30818561379c565b80516040519194509033907f7fcf532c15f0a6db0bd6d0e038bea71d30d808c7d98cb3bf7268a95bf5081b6590600090a38251600254611d7d916001600160a01b03909116903390612d2c565b50611d86612dcd565b50919050565b604080516020810190915260008152611da3612b47565b6040805160208101909152600f5481526111f490611dc090612c31565b6137d6565b60156020528160005260406000208181548110611de157600080fd5b6000918252602091829020600a919091020180546001820154600283015460408051808701825260038601548152815180880183526004870154815282518089018452600588015481528351808a0185526006890154815260078901548551808c01875260088b0154815286519b8c019096526009909901548a526001600160a01b039788169b508787169a50600160a01b90960460ff16989497929691959094909391909216918b565b611e94612de2565b33611e9e81612def565b611ea6612456565b611eae612b47565b611eb6612ba5565b6000611ec133612e06565b604080516020810190915281549081905284519192501015611ee257600080fd5b604080516020810190915281548152600090611efe9085612c5b565b60408051602081019091526013549081905281519192501115611f2057600080fd5b805182556040805160208101909152600e548152611f3e9085612c5b565b51600e558051845160405133907f77c6871227e5d2dec8dadd5354f78453203e22e669cd0ec4c19d9a8c5edb31d090600090a48351601054611f8f916001600160a01b039091169033903090612d8f565b6010548451604051630852cd8d60e31b81526001600160a01b03909216916342966c6891611fc39160040190815260200190565b600060405180830381600087803b158015611fdd57600080fd5b505af1158015611ff1573d6000803e3d6000fd5b505050505050611fff612dcd565b5050565b60408051602081019091526000815261201a612de2565b3361202481612def565b61202c612456565b612034612b47565b61203c612ba5565b600061204733612e06565b60408051602081019091528154908190528551919250101561206857600080fd5b604080516020810190915281548152600090612085908690612f0e565b6040805160208101909152600384015481529091506000906120b1906120aa90612c31565b8390612bf4565b6040805160208101909152845490819052875191925014156120dd576120d63361384c565b945061214c565b6120e783826130e6565b6040805160208101909152845481529095506000906121069088612c5b565b6040805160208101909152601354908190528151919250111561212857600080fd5b805184556040805160208101909152600e5481526121469088612c5b565b51600e55505b8551855160405133907fe5b754fb1abb7f01b499791d0b820ae3b6af3424ac1c59768edb53f4ec31a92990600090a48451600254612197916001600160a01b03909116903390612d2c565b85516010546121b5916001600160a01b039091169033903090612d8f565b6010548651604051630852cd8d60e31b81526001600160a01b03909216916342966c68916121e99160040190815260200190565b600060405180830381600087803b15801561220357600080fd5b505af1158015612217573d6000803e3d6000fd5b50505050505050611d86612dcd565b61222e612de2565b612236612456565b61223e612b47565b612246612ba5565b336000908152600d60209081526040918290208251918201909252600382015481526122999061227b90859061181b90612c31565b6040805160208101909152835481526122949085612ad2565b613957565b806122a957506122a98383613957565b6122b257600080fd5b6001810154156122c157600080fd5b6040805160208101909152815481526122db90600061370e565b1561232b57604080516020810190915260135490819052825110156122ff57600080fd5b60405133907ff60993fa76f94c9e0a803526ee6e1314814ed4d2b0d223febf1436b36897fb3790600090a25b6123358184612e2e565b5060408051602081019091528154815261234f9083612ad2565b5181556040805160208101909152600e54815261236c9083612ad2565b51600e558151835160405133907f4b82aa16e071a61de1a6b9aeec9edab0356331f8122c78683b469ac8e685dabc90600090a482516002546123bd916001600160a01b039091169033903090612d8f565b60105482516040516340c10f1960e01b815233600482015260248101919091526001600160a01b03909116906340c10f1990604401602060405180830381600087803b15801561240c57600080fd5b505af1158015612420573d6000803e3d6000fd5b505050506040513d601f19601f820116820180604052508101906124449190614ade565b61244d57600080fd5b50611fff612dcd565b61245e611b4e565b50612467612b47565b61246f612ba5565b6124776139b4565b610b9e612dcd565b604080516020810190915260008152612496612b47565b6111f4613354565b6040805160208101909152600081526124b5612b47565b6124be82612bce565b90505b919050565b6124ce612b47565b6124d6612ba5565b612477613a19565b6040805160208101909152600081526124f5612b47565b6001600160a01b0382166000908152600d6020908152604091829020825191820190925260039091015481526124be90611dc090612c31565b6040805160208101909152600081526040805160208101909152600081526040805160208101909152600081526000612565613763565b90506000612571613354565b905061257e81600061370e565b8061258a575085600454145b156125965750506126a1565b600480546040516374201feb60e01b81529182015260248101879052815160448201526001600160a01b038316906374201feb90606401604080518083038186803b1580156125e457600080fd5b505afa1580156125f8573d6000803e3d6000fd5b505050506040513d601f19601f8201168201806040525081019061261c9190614cfb565b909550935061262b8585612ad2565b925061263883600061370e565b156126445750506126a1565b80518351111561269e57600061265a8483612c5b565b905060006126688683612c85565b90506126748682612c5b565b95506126808282612c5b565b915061269661268f8884612c85565b8890612c5b565b965082945050505b50505b9193909250565b60606126b2612b47565b6001600160a01b038216600090815260156020908152604080832080548251818502810185019093528083529193909284015b828210156128235760008481526020908190206040805161016081018252600a860290920180546001600160a01b039081168452600182015490811694840194909452919290830190600160a01b900460ff16600481111561275757634e487b7160e01b600052602160045260246000fd5b600481111561277657634e487b7160e01b600052602160045260246000fd5b8152600282015460208083019190915260408051808301825260038501548152818401528051808301825260048501548152606084015280518083018252600585015481526080840152805180830182526006850154815260a084015260078401546001600160a01b031660c0840152805180830182526008850154815260e0840152805180830190915260099093015483526101009091019190915290825260019290920191016126e5565b505050509050919050565b60408051602081019091526000815282826128498282613ad8565b612851612456565b612859612b47565b612861612ba5565b600061286d85876134d8565b6040805160208101909152600682015481529091506000906128bb9061289290612c31565b604080516020808201835260195482528251908101909252600486015482526108169190612bf4565b90506128c8601682613048565b5060018201805460ff60a01b1916600160a11b1790556007820180546001600160a01b031916331790556002820154612900906131a5565b60018201548151604080518a8152602081019290925233926001600160a01b0390811692908a16917fcaca181ccad7979cf36ed4fc921e496001ab5264608f0fac7007ae1b43d36102910160405180910390a4604080516020810190915260098301548152612970908290612ad2565b604080516020810190915260098401548152909550612990903390613b39565b80516002546129ae916001600160a01b039091169033903090612d8f565b5050611b46612dcd565b6129c0612de2565b336129ca81612def565b6129d2612b47565b6129da612ba5565b60006129e533612e06565b90506129f2836000612abb565b8015612a205750604080516020810190915260038201548152612a2090612a1890612c31565b518451111590565b612a2957600080fd5b612a3760125461102661115a565b600182015582516002820181905560405133907fd33b726e11d2c5d38e6702b16613df0160a07f7ba5185455ee3c45d0494fab1190600090a350611fff612dcd565b612a833382610a6d565b50565b604080516020810190915260008152604080516020810190915280612ab384670de0b6b3a7640000612b1c565b905292915050565b6000612ac682612a86565b51835111905092915050565b6040805160208101909152600081526040805160208101909152825184518291612afc9190612b2f565b90529392505050565b6000612b1082612a86565b51835110905092915050565b6000612b288284615362565b9392505050565b6000612b288284615181565b600054610b9e57600080fd5b600154600160a01b900460ff16610b9e5760405162461bcd60e51b815260206004820152601f60248201527f5265656e7472616e637947756172643a207265656e7472616e742063616c6c0060448201526064015b60405180910390fd5b6001805460ff60a01b19169055565b6040805160208101909152600081526111f4600054613c6a565b604080516020810190915260008152604080516020810190915260085481526124be9083905b6040805160208101909152600081526040805160208101909152825184518291670de0b6b3a764000091612c2791612b1c565b612afc91906151be565b604080516020810190915260008152604080516020810190915260055481526124be908390612bf4565b6040805160208101909152600081526040805160208101909152825184518291612afc91906132b3565b6040805160208101909152600081528151835110612ca35781612b28565b5090919050565b604080516020810190915260008152604080516020810190915283548152600090612cd490612c31565b90506000612ce1846130bc565b604080516020810190915286548152909150612cfd9082612c5b565b518086556040805160208101909152908152612d2390612d1c90612c31565b8390612c5b565b95945050505050565b6040516001600160a01b038316602482015260448101829052610b2090849063a9059cbb60e01b906064015b60408051601f198184030181529190526020810180516001600160e01b03166001600160e01b031990931692909217909152613d2e565b6040516001600160a01b0380851660248301528316604482015260648101829052612dc79085906323b872dd60e01b90608401612d58565b50505050565b6001805460ff60a01b1916600160a01b179055565b60005415610b9e57600080fd5b612df881612e06565b6001015415612a8357600080fd5b600081612e1281613e00565b50506001600160a01b03166000908152600d6020526040902090565b604080516020810190915260008152612e4a8360030183613048565b50612b28600f83613048565b612e606000612a86565b5160028201556000600190910155565b6040805160208101909152600081526000612e89613763565b600254604051635b97aadd60e01b81526001600160a01b039182166004820152919250821690635b97aadd9060240160206040518083038186803b158015612ed057600080fd5b505afa158015612ee4573d6000803e3d6000fd5b505050506040513d601f19601f82011682018060405250810190612f089190614cc4565b91505090565b6040805160208101909152600081526040805160208101909152825184518291612afc91612f4490670de0b6b3a7640000612b1c565b90613e37565b6000612f5585612e06565b60408051602081019091528154908190528551919250148015612f9c5750604080516020810190915260038201548152612f9c908490612f9490612c31565b905190511490565b15612fb157612faa8561384c565b5050612dc7565b612fbb81846130e6565b50604080516020810190915281548152612fd59085612c5b565b518082556040805160208082018352601354825282519081019092529082905251111561300157600080fd5b60408051602081019091526002820154815261301d9083612c5b565b5160028201556040805160208101909152600e54815261303d9085612c5b565b51600e555050505050565b60408051602081019091526000815260408051602081019091528354815260009061307290612c31565b9050600061307f846130bc565b60408051602081019091528654815290915061309b9082612ad2565b518086556040805160208101909152908152612d2390839061184a90612c31565b604080516020810190915260008152604080516020810190915260055481526124be908390612f0e565b6040805160208101909152600081526131028360030183612caa565b50612b28600f83612caa565b6003546040516302abf57960e61b8152762334b730b731b4b0b621b7b73a3930b1ba39a0b236b4b760491b60048201526000916001600160a01b03169063aafd5e40906024015b60206040518083038186803b15801561316d57600080fd5b505afa158015613181573d6000803e3d6000fd5b505050506040513d601f19601f820116820180604052508101906111f49190614a02565b6131ad613e43565b6001600160a01b03166368ad8ae3601154836040518363ffffffff1660e01b8152600401610be2929190918252602082015260400190565b6131fc6131f0613223565b60600151518251131590565b801561321a575061321a61320e613223565b60800151518251121590565b612a8357600080fd5b61322b6148ee565b600c60009054906101000a90046001600160a01b03166001600160a01b031663145701f86040518163ffffffff1660e01b815260040160c060405180830381600087803b15801561327b57600080fd5b505af115801561328f573d6000803e3d6000fd5b505050506040513d601f19601f820116820180604052508101906111f49190614b10565b6000612b2882846153a2565b6003546040516302abf57960e61b81526f4f7074696d69737469634f7261636c6560801b60048201526000916001600160a01b03169063aafd5e4090602401613155565b60606111f4604051806020016040528060008152506040518060400160405280600c81526020016b746f6b656e4164647265737360a01b81525061334f6010546001600160a01b031690565b613e7d565b604080516020810190915260008152604080516020810190915260165481526111f49061338090612c31565b61181b613ec3565b604051636eb1769f60e11b81523060048201526001600160a01b038381166024830152600091839186169063dd62ed3e9060440160206040518083038186803b1580156133d457600080fd5b505afa1580156133e8573d6000803e3d6000fd5b505050506040513d601f19601f8201168201806040525081019061340c9190614af8565b6134169190615181565b6040516001600160a01b038516602482015260448101829052909150612dc790859063095ea7b360e01b90606401612d58565b600061345582846134d8565b600181810154919250600160a01b90910460ff169081600481111561348a57634e487b7160e01b600052602160045260246000fd5b11806134cf575061349961115a565b6134a283613eeb565b111580156134cf575060018160048111156134cd57634e487b7160e01b600052602160045260246000fd5b145b612dc757600080fd5b6001600160a01b038216600090815260156020526040812080548310801561355e5750600081848154811061351d57634e487b7160e01b600052603260045260246000fd5b90600052602060002090600a020160010160149054906101000a900460ff16600481111561355b57634e487b7160e01b600052602160045260246000fd5b14155b61356757600080fd5b80838154811061358757634e487b7160e01b600052603260045260246000fd5b90600052602060002090600a020191505092915050565b60006135aa82846134d8565b905060026001820154600160a01b900460ff1660048111156135dc57634e487b7160e01b600052602160045260246000fd5b146135e657505050565b6135f38160020154613c6a565b5160088201819055604080516020808201835292815281519283019091526003830154825260009161362491612bf4565b60408051602081019091526018548152909150600090613645908390612bf4565b6040805160208101909152600585015490819052815191925010158061366c57600461366f565b60035b60018501805460ff60a01b1916600160a01b8360048111156136a157634e487b7160e01b600052602160045260246000fd5b021790555060018401546007850154604080516001600160a01b039283168152602081018a9052841515818301529051928216929188169133917f6c5582199868fabbe697f9ea10abe481bacf53ac78c02a965b34dff82fd20e3b919081900360600190a4505050505050565b600061371982612a86565b51835114905092915050565b60006137318383613f06565b905061375a6137448261184a6001612a86565b6040805160208101909152600554815290612bf4565b51600555505050565b6003546040516302abf57960e61b81526453746f726560d81b60048201526000916001600160a01b03169063aafd5e4090602401613155565b6040805160208101909152600081526137b88360030183612caa565b506137c283613f95565b6137cb57600080fd5b612b28600f83612caa565b60408051602081019091526000815260006137f261066461115a565b9250505061380a6138036000612a86565b5182511490565b15613816575090919050565b600061382a613823613354565b8390613f06565b905061384461383d8261184a6001612a86565b8590612bf4565b949350505050565b604080516020810190915260008152600061386683612e06565b6040805160208101909152600f54815290915060009061388590612c31565b6040805160208082018352600386015482528251908101909252600f5482529192506138b091612c5b565b51600f556040805160208082018352845482528251908101909252600e5482526138da9190612c5b565b51600e556001600160a01b0384166000818152600d60205260408082208281556001810183905560028101839055600301829055517fcad20625296d189a6fc6e5b39d0d544e5bd99dbda0c8f2f0ecffef3e0fbcc2829190a26040805160208101909152600f5481526138449061395090612c31565b8290612c5b565b6040805160208101909152600f548152600090819061398e9061397990612c31565b6040805160208101909152600e548152613fcb565b9050600061399c8585613fcb565b90506139aa82825190511190565b1595945050505050565b600054156139be57565b60006139c861115a565b600a549091506000906139dc9083906132b3565b90506139e6614002565b6040805160208082018352600654825282519081019092526008548252613a0f918391906142ec565b5160085550600a55565b6000613a23613354565b6040805160208101918290526002546370a0823160e01b9092523060248201529192506000919081906001600160a01b03166370a082316044830160206040518083038186803b158015613a7657600080fd5b505afa158015613a8a573d6000803e3d6000fd5b505050506040513d601f19601f82011682018060405250810190613aae9190614af8565b90529050613abe82825190511090565b15611fff57613ad06137448284612f0e565b516005555050565b6000613ae482846134d8565b9050613aef81613eeb565b613af761115a565b108015613b305750600180820154600160a01b900460ff166004811115613b2e57634e487b7160e01b600052602160045260246000fd5b145b610b2057600080fd5b613b4481600061370e565b15613b4d575050565b6001600160a01b0382163014613b80578051600254613b7b916001600160a01b039091169084903090612d8f565b613bad565b6000613b8a613354565b9050613b9881835190511190565b613ba157600080fd5b613bab8282613725565b505b80516040517f4f9bf7e8cd0f2456f9c43d2597bedcf1446c9c64544053f1ece6423ae9a07e5290600090a26000613be2613763565b8251600254919250613bff916001600160a01b0316908390613388565b60025460405163432ce91960e11b81526001600160a01b0391821660048201528351602482015290821690638659d23290604401600060405180830381600087803b158015613c4d57600080fd5b505af1158015613c61573d6000803e3d6000fd5b50505050505050565b6040805160208101909152600081526000613c83613e43565b6001600160a01b031663c9280f06601154856040518363ffffffff1660e01b8152600401613cbb929190918252602082015260400190565b60206040518083038186803b158015613cd357600080fd5b505afa158015613ce7573d6000803e3d6000fd5b505050506040513d601f19601f82011682018060405250810190613d0b9190614af8565b90506000811215613d1a575060005b604080516020810190915290815292915050565b6000613d83826040518060400160405280602081526020017f5361666545524332303a206c6f772d6c6576656c2063616c6c206661696c6564815250856001600160a01b03166143639092919063ffffffff16565b805190915015610b205780806020019051810190613da19190614ade565b610b205760405162461bcd60e51b815260206004820152602a60248201527f5361666545524332303a204552433230206f7065726174696f6e20646964206e6044820152691bdd081cdd58d8d9595960b21b6064820152608401612b9c565b6001600160a01b0381166000908152600d60209081526040808320815192830190915260030154815261321a919061084e90612c31565b6000612b2882846151be565b6003546040516302abf57960e61b8152654f7261636c6560d01b60048201526000916001600160a01b03169063aafd5e4090602401613155565b60606000613e8b8585614372565b90508481613e98856143b4565b604051602001613eaa93929190614dd7565b6040516020818303038152906040529150509392505050565b6040805160208101909152600081526040805160208101909152600f5481526111f490612c31565b60006124be6017548360020154612b2f90919063ffffffff16565b604080516020810190915260008082528351613f2a90670de0b6b3a7640000612b1c565b8351909150600090613f3d908390613e37565b8451909150600090613f50908490614517565b90508015613f7c57604080516020810190915280613f6f846001612b2f565b8152509350505050611689565b6040518060200160405280838152509350505050611689565b6040805160208101909152600382015481526000906124be90613fb790612c31565b604080516020810190915284548152613957565b604080516020810190915260008152613fe5826000614523565b613ff857613ff38383612f0e565b612b28565b612b286000612a86565b600b548015612a835760006140156132bf565b6007549091506000614025613303565b6040516353b5923960e01b81529091506001600160a01b038416906353b592399061405890859088908690600401615039565b602060405180830381600087803b15801561407257600080fd5b505af19250505080156140a2575060408051601f3d908101601f1916820190925261409f91810190614af8565b60015b6141635760405163a9904f9b60e01b81526000906001600160a01b0385169063a9904f9b906140db90309087908a908890600401614f30565b6101806040518083038186803b1580156140f457600080fd5b505afa158015614108573d6000803e3d6000fd5b505050506040513d601f19601f8201168201806040525081019061412c9190614bb3565b60208101519091506001600160a01b0316151580614152575080516001600160a01b0316155b1561415d576000600b555b50612dc7565b6009548086106142df57604080516020810190915282905260068290556009869055600061419081612a86565b90506000866001600160a01b031663a9904f9b30888b896040518563ffffffff1660e01b81526004016141c69493929190614f30565b6101806040518083038186803b1580156141df57600080fd5b505afa1580156141f3573d6000803e3d6000fd5b505050506040513d601f19601f820116820180604052508101906142179190614bb3565b60208101519091506001600160a01b03166142955761425661423989856132b3565b614250614244613223565b60200151610816613354565b9061453b565b9150614263826000612abb565b156142955761427982614274613354565b613725565b80518251600254614295926001600160a01b0390911691612d2c565b60095460065483516040517fee568d08fdf25d8d2f01948f7ba3dc157176924ef7312d148584409333f0d8cd926142d492908252602082015260400190565b60405180910390a250505b50506000600b5550505050565b60408051602081019091526000815260006143076001614563565b9050600061431e61431787614590565b86906145fa565b9050600061432c8383614622565b9050600061434b614346836143416000614563565b61464c565b61466a565b90506143578682612bf4565b98975050505050505050565b606061384484846000856146d8565b8151606090156143a3578160405160200161438d9190614e3f565b6040516020818303038152906040529050611689565b8160405160200161438d9190614e1a565b60408051602880825260608281019093526000919060208201818036833701905050905060005b60148110156145105760006143f18260136153a2565b6143fc906008615362565b614407906002615237565b61441a906001600160a01b0387166151be565b60f81b9050600060108260f81c61443191906151d2565b60f81b905060008160f81c60106144489190615381565b8360f81c61445691906153b9565b60f81b905061446482614800565b85614470866002615362565b8151811061448e57634e487b7160e01b600052603260045260246000fd5b60200101906001600160f81b031916908160001a9053506144ae81614800565b856144ba866002615362565b6144c5906001615181565b815181106144e357634e487b7160e01b600052603260045260246000fd5b60200101906001600160f81b031916908160001a905350505050808061450890615408565b9150506143db565b5092915050565b6000612b288284615423565b600061452e82612a86565b5183511115905092915050565b604080516020810190915260008152604080516020810190915283518190612afc9085612b1c565b604080516020810190915260008152604080516020810190915280612ab384670de0b6b3a7640000614836565b6000600160ff1b82106145f65760405162461bcd60e51b815260206004820152602860248201527f53616665436173743a2076616c756520646f65736e27742066697420696e2061604482015267371034b73a191a9b60c11b6064820152608401612b9c565b5090565b604080516020810190915260008152604080516020810190915283518190612afc9085614836565b6040805160208101909152600081526040805160208101909152825184518291612afc9190614842565b6040805160208101909152600081528151835113612ca35781612b28565b6040805160208101909152600081528151600013156146c55760405162461bcd60e51b8152602060048201526017602482015276139959d85d1a5d99481d985b1d59481c1c9bdd9a591959604a1b6044820152606401612b9c565b5060408051602081019091529051815290565b6060824710156147395760405162461bcd60e51b815260206004820152602660248201527f416464726573733a20696e73756666696369656e742062616c616e636520666f6044820152651c8818d85b1b60d21b6064820152608401612b9c565b843b6147875760405162461bcd60e51b815260206004820152601d60248201527f416464726573733a2063616c6c20746f206e6f6e2d636f6e74726163740000006044820152606401612b9c565b600080866001600160a01b031685876040516147a39190614dbb565b60006040518083038185875af1925050503d80600081146147e0576040519150601f19603f3d011682016040523d82523d6000602084013e6147e5565b606091505b50915091506147f582828661484e565b979650505050505050565b6000600a60f883901c10156148275761481e60f883901c6030615199565b60f81b92915050565b61481e60f883901c6057615199565b6000612b2882846152df565b6000612b288284615140565b6060831561485d575081612b28565b82511561486d5782518084602001fd5b8160405162461bcd60e51b8152600401612b9c91906150c4565b6040805160e081018252600060c082018181528252825160208082018552828252808401919091528351808201855282815283850152835180820185528281526060840152835180820185528281526080840152835190810190935282529060a082015290565b6040518060c00160405280600081526020016149166040518060200160405280600081525090565b81526020016149316040518060200160405280600081525090565b815260200161494c6040518060200160405280600081525090565b81526020016149676040518060200160405280600081525090565b8152602001600081525090565b80516124c181615463565b805180151581146124c157600080fd5b6000602082840312156149a0578081fd5b6149a86150d7565b9151825250919050565b600060208284031215611d86578081fd5b6000602082840312156149d4578081fd5b6149dc6150d7565b9135825250919050565b6000602082840312156149f7578081fd5b8135612b2881615463565b600060208284031215614a13578081fd5b8151612b2881615463565b600080600080600060a08688031215614a35578081fd5b8535614a4081615463565b9450614a4f87602088016149b2565b9350614a5e87604088016149b2565b9250614a6d87606088016149b2565b949793965091946080013592915050565b60008060408385031215614a90578182fd5b8235614a9b81615463565b9150614aaa84602085016149c3565b90509250929050565b60008060408385031215614ac5578182fd5b8235614ad081615463565b946020939093013593505050565b600060208284031215614aef578081fd5b612b288261497f565b600060208284031215614b09578081fd5b5051919050565b600060c08284031215614b21578081fd5b60405160c0810181811067ffffffffffffffff82111715614b5057634e487b7160e01b83526041600452602483fd5b60405282518152614b64846020850161498f565b6020820152614b76846040850161498f565b6040820152614b88846060850161498f565b6060820152614b9a846080850161498f565b608082015260a083015160a08201528091505092915050565b60006101808284031215614bc5578081fd5b614bcd61510e565b614bd683614974565b8152614be460208401614974565b6020820152614bf560408401614974565b6040820152614c066060840161497f565b6060820152614c176080840161497f565b608082015260a0838101519082015260c0808401519082015260e08084015190820152610100808401519082015261012080840151908201526101408084015190820152610160928301519281019290925250919050565b6000808284036040811215614c82578283fd5b6020811215614c8f578283fd5b50614c986150d7565b833581529460209093013593505050565b600060208284031215614cba578081fd5b612b2883836149c3565b600060208284031215614cd5578081fd5b612b28838361498f565b60008060408385031215614cf1578182fd5b614a9b84846149c3565b60008060408385031215614d0d578182fd5b614d17848461498f565b9150614aaa846020850161498f565b600060208284031215614d37578081fd5b5035919050565b60008060408385031215614d50578182fd5b823591506020830135614d6281615463565b809150509250929050565b60008151808452614d858160208601602086016153dc565b601f01601f19169290920160200192915050565b60058110614db757634e487b7160e01b600052602160045260246000fd5b9052565b60008251614dcd8184602087016153dc565b9190910192915050565b60008451614de98184602089016153dc565b845190830190614dfd8183602089016153dc565b8451910190614e108183602088016153dc565b0195945050505050565b60008251614e2c8184602087016153dc565b601d60f91b920191825250600101919050565b600b60fa1b815260008251614e5b8160018501602087016153dc565b601d60f91b6001939091019283015250600201919050565b6001600160a01b03878116825286166020820152604081018590526060810184905260c060808201819052600090614ead90830185614d6d565b90508260a0830152979650505050505050565b6001600160a01b038c811682528b81166020830152610160820190614ee8604084018d614d99565b606083019a909a5297516080820152955160a0870152935160c0860152915160e085015290941661010083015292516101208201529151610140909201919091529392505050565b60018060a01b0385168152836020820152826040820152608060608201526000614f5d6080830184614d6d565b9695505050505050565b602080825282518282018190526000919060409081850190868401855b8281101561502c57815180516001600160a01b03908116865287820151168786015285810151614fb687870182614d99565b5060608181015190860152608080820151519086015260a080820151519086015260c080820151519086015260e0808201515190860152610100808201516001600160a01b0316908601526101208082015151908601526101409081015151908501526101609093019290850190600101614f84565b5091979650505050505050565b838152826020820152606060408201526000612d236060830184614d6d565b85815284602082015260a06040820152600061507760a0830186614d6d565b6001600160a01b0394909416606083015250608001529392505050565b8481528360208201526080604082015260006150b36080830185614d6d565b905082606083015295945050505050565b602081526000612b286020830184614d6d565b6040516020810167ffffffffffffffff8111828210171561510857634e487b7160e01b600052604160045260246000fd5b60405290565b604051610180810167ffffffffffffffff8111828210171561510857634e487b7160e01b600052604160045260246000fd5b600080821280156001600160ff1b038490038513161561516257615162615437565b600160ff1b839003841281161561517b5761517b615437565b50500190565b6000821982111561519457615194615437565b500190565b600060ff821660ff84168060ff038211156151b6576151b6615437565b019392505050565b6000826151cd576151cd61544d565b500490565b600060ff8316806151e5576151e561544d565b8060ff84160491505092915050565b600181815b8085111561522f57816000190482111561521557615215615437565b8085161561522257918102915b93841c93908002906151f9565b509250929050565b6000612b28838360008261524d57506001611689565b8161525a57506000611689565b8160018114615270576002811461527a57615296565b6001915050611689565b60ff84111561528b5761528b615437565b50506001821b611689565b5060208310610133831016604e8410600b84101617156152b9575081810a611689565b6152c383836151f4565b80600019048211156152d7576152d7615437565b029392505050565b60006001600160ff1b038184138284138082168684048611161561530557615305615437565b600160ff1b8487128281168783058912161561532357615323615437565b85871292508782058712848416161561533e5761533e615437565b8785058712818416161561535457615354615437565b505050929093029392505050565b600081600019048311821515161561537c5761537c615437565b500290565b600060ff821660ff84168160ff04811182151516156152d7576152d7615437565b6000828210156153b4576153b4615437565b500390565b600060ff821660ff8416808210156153d3576153d3615437565b90039392505050565b60005b838110156153f75781810151838201526020016153df565b83811115612dc75750506000910152565b600060001982141561541c5761541c615437565b5060010190565b6000826154325761543261544d565b500690565b634e487b7160e01b600052601160045260246000fd5b634e487b7160e01b600052601260045260246000fd5b6001600160a01b0381168114612a8357600080fdfea264697066735822122072607740e30e32fd6417288d58a54b67ea9a6c60e79e7cf59565285eba4098dc64736f6c63430008040033",
  "immutableReferences": {},
  "source": "// SPDX-License-Identifier: AGPL-3.0-only\npragma solidity ^0.8.0;\n\nimport \"./PerpetualLiquidatable.sol\";\n\n/**\n * @title Perpetual Multiparty Contract.\n * @notice Convenient wrapper for Liquidatable.\n */\ncontract Perpetual is PerpetualLiquidatable {\n    /**\n     * @notice Constructs the Perpetual contract.\n     * @param params struct to define input parameters for construction of Liquidatable. Some params\n     * are fed directly into the PositionManager's constructor within the inheritance tree.\n     */\n    constructor(ConstructorParams memory params)\n        PerpetualLiquidatable(params)\n    // Note: since there is no logic here, there is no need to add a re-entrancy guard.\n    {\n\n    }\n}\n",
  "sourcePath": "/home/circleci/protocol/packages/core/contracts/financial-templates/perpetual-multiparty/Perpetual.sol",
  "compiler": {
    "name": "solc",
    "version": "0.8.4+commit.c7e474f2.Emscripten.clang"
  },
  "schemaVersion": "3.3.4",
  "updatedAt": "2021-06-21T21:43:39.091Z",
  "devdoc": {
    "kind": "dev",
    "methods": {
      "constructor": {
        "params": {
          "params": "struct to define input parameters for construction of Liquidatable. Some params are fed directly into the PositionManager's constructor within the inheritance tree."
        }
      },
      "create((uint256),(uint256))": {
        "details": "This contract must have the Minter role for the `tokenCurrency`.Reverts if minting these tokens would put the position's collateralization ratio below the global collateralization ratio. This contract must be approved to spend at least `collateralAmount` of `collateralCurrency`.",
        "params": {
          "collateralAmount": "is the number of collateral tokens to collateralize the position with",
          "numTokens": "is the number of tokens to mint from the position."
        }
      },
      "createLiquidation(address,(uint256),(uint256),(uint256),uint256)": {
        "details": "This method generates an ID that will uniquely identify liquidation for the sponsor. This contract must be approved to spend at least `tokensLiquidated` of `tokenCurrency` and at least `finalFeeBond` of `collateralCurrency`.This contract must have the Burner role for the `tokenCurrency`.",
        "params": {
          "deadline": "abort the liquidation if the transaction is mined after this timestamp.",
          "maxCollateralPerToken": "abort the liquidation if the position's collateral per token exceeds this value.",
          "maxTokensToLiquidate": "max number of tokens to liquidate.",
          "minCollateralPerToken": "abort the liquidation if the position's collateral per token is below this value.",
          "sponsor": "address of the sponsor to liquidate."
        },
        "returns": {
          "finalFeeBond": "amount of collateral to be posted by liquidator and returned if not disputed successfully.",
          "liquidationId": "ID of the newly created liquidation.",
          "tokensLiquidated": "amount of synthetic tokens removed and liquidated from the `sponsor`'s position."
        }
      },
      "deposit((uint256))": {
        "details": "Increases the collateralization level of a position after creation. This contract must be approved to spend at least `collateralAmount` of `collateralCurrency`.",
        "params": {
          "collateralAmount": "total amount of collateral tokens to be sent to the sponsor's position."
        }
      },
      "depositTo(address,(uint256))": {
        "details": "Increases the collateralization level of a position after creation. This contract must be approved to spend at least `collateralAmount` of `collateralCurrency`.",
        "params": {
          "collateralAmount": "total amount of collateral tokens to be sent to the sponsor's position.",
          "sponsor": "the sponsor to credit the deposit to."
        }
      },
      "dispute(uint256,address)": {
        "details": "Can only dispute a liquidation before the liquidation expires and if there are no other pending disputes. This contract must be approved to spend at least the dispute bond amount of `collateralCurrency`. This dispute bond amount is calculated from `disputeBondPercentage` times the collateral in the liquidation.",
        "params": {
          "liquidationId": "of the disputed liquidation.",
          "sponsor": "the address of the sponsor whose liquidation is being disputed."
        },
        "returns": {
          "totalPaid": "amount of collateral charged to disputer (i.e. final fee bond + dispute bond)."
        }
      },
      "emergencyShutdown()": {
        "details": "Only the governor can call this function as they are permissioned within the `FinancialContractAdmin`. Upon emergency shutdown, the contract settlement time is set to the shutdown time. This enables withdrawal to occur via the `settleEmergencyShutdown` function."
      },
      "getCollateral(address)": {
        "details": "This is necessary because the struct returned by the positions() method shows rawCollateral, which isn't a user-readable value.This method accounts for pending regular fees that have not yet been withdrawn from this contract, for example if the `lastPaymentTime != currentTime`.",
        "params": {
          "sponsor": "address whose collateral amount is retrieved."
        },
        "returns": {
          "collateralAmount": "amount of collateral within a sponsors position."
        }
      },
      "getCurrentTime()": {
        "returns": {
          "_0": "uint for the current Testable timestamp."
        }
      },
      "getLiquidations(address)": {
        "params": {
          "sponsor": "address of the position sponsor."
        },
        "returns": {
          "liquidationData": "array of all liquidation information for the given sponsor address."
        }
      },
      "getOutstandingRegularFees(uint256)": {
        "details": "This returns 0 and exit early if there is no pfc, fees were already paid during the current block, or the fee rate is 0.",
        "returns": {
          "latePenalty": "outstanding unpaid late fee for being late in previous fee payments.",
          "regularFee": "outstanding unpaid regular fee.",
          "totalPaid": "Amount of collateral that the contract paid (sum of the amount paid to the Store and caller)."
        }
      },
      "gulp()": {
        "details": "Multiplying the `cumulativeFeeMultiplier` by the ratio of non-PfC-collateral :: PfC-collateral effectively pays all sponsors a pro-rata portion of the excess collateral.This will revert if PfC is 0 and this contract's collateral balance > 0."
      },
      "payRegularFees()": {
        "details": "These must be paid periodically for the life of the contract. If the contract has not paid its regular fee in a week or more then a late penalty is applied which is sent to the caller. If the amount of fees owed are greater than the pfc, then this will pay as much as possible from the available collateral. An event is only fired if the fees charged are greater than 0.",
        "returns": {
          "_0": "totalPaid Amount of collateral that the contract paid (sum of the amount paid to the Store and caller). This returns 0 and exit early if there is no pfc, fees were already paid during the current block, or the fee rate is 0."
        }
      },
      "pfc()": {
        "details": "This is equivalent to the collateral pool available from which to pay fees. Therefore, derived contracts are expected to implement this so that pay-fee methods can correctly compute the owed fees as a % of PfC.",
        "returns": {
          "_0": "pfc value for equal to the current profit from corruption denominated in collateral currency."
        }
      },
      "proposeFundingRate((int256),uint256)": {
        "params": {
          "rate": "funding rate being proposed.",
          "timestamp": "time at which the funding rate was computed."
        }
      },
      "redeem((uint256))": {
        "details": "Can only be called by a token sponsor. Might not redeem the full proportional amount of collateral in order to account for precision loss. This contract must be approved to spend at least `numTokens` of `tokenCurrency`.This contract must have the Burner role for the `tokenCurrency`.",
        "params": {
          "numTokens": "is the number of tokens to be burnt for a commensurate amount of collateral."
        },
        "returns": {
          "amountWithdrawn": "The actual amount of collateral withdrawn."
        }
      },
      "remargin()": {
        "details": "This is supposed to be implemented by any contract that inherits `AdministrateeInterface` and callable only by the Governor contract. This method is therefore minimally implemented in this contract and does nothing."
      },
      "repay((uint256))": {
        "details": "Can only be called by token sponsor. This contract must be approved to spend `numTokens` of `tokenCurrency`.This contract must have the Burner role for the `tokenCurrency`.",
        "params": {
          "numTokens": "is the number of tokens to be burnt from the sponsor's debt position."
        }
      },
      "requestWithdrawal((uint256))": {
        "details": "The request will be pending for `withdrawalLiveness`, during which the position can be liquidated.",
        "params": {
          "collateralAmount": "the amount of collateral requested to withdraw"
        }
      },
      "setCurrentTime(uint256)": {
        "details": "Will revert if not running in test mode.",
        "params": {
          "time": "timestamp to set current Testable time to."
        }
      },
      "settleEmergencyShutdown()": {
        "details": "This burns all tokens from the caller of `tokenCurrency` and sends back the resolved settlement value of `collateralCurrency`. Might not redeem the full proportional amount of collateral in order to account for precision loss. This contract must be approved to spend `tokenCurrency` at least up to the caller's full balance.This contract must have the Burner role for the `tokenCurrency`.Note that this function does not call the updateFundingRate modifier to update the funding rate as this function is only called after an emergency shutdown & there should be no funding rate updates after the shutdown.",
        "returns": {
          "amountWithdrawn": "The actual amount of collateral withdrawn."
        }
      },
      "totalPositionCollateral()": {
        "returns": {
          "totalCollateral": "amount of all collateral within the position manager."
        }
      },
      "withdraw((uint256))": {
        "details": "Reverts if the withdrawal puts this position's collateralization ratio below the global collateralization ratio. In that case, use `requestWithdrawal`. Might not withdraw the full requested amount to account for precision loss.",
        "params": {
          "collateralAmount": "is the amount of collateral to withdraw."
        },
        "returns": {
          "amountWithdrawn": "The actual amount of collateral withdrawn."
        }
      },
      "withdrawLiquidation(uint256,address)": {
        "details": "If the dispute SUCCEEDED: the sponsor, liquidator, and disputer are eligible for payment. If the dispute FAILED: only the liquidator receives payment. This method deletes the liquidation data. This method will revert if rewards have already been dispersed.",
        "params": {
          "liquidationId": "uniquely identifies the sponsor's liquidation.",
          "sponsor": "address of the sponsor associated with the liquidation."
        },
        "returns": {
          "_0": "data about rewards paid out."
        }
      },
      "withdrawPassedRequest()": {
        "details": "Might not withdraw the full requested amount in order to account for precision loss or if the full requested amount exceeds the collateral in the position (due to paying fees).",
        "returns": {
          "amountWithdrawn": "The actual amount of collateral withdrawn."
        }
      }
    },
    "title": "Perpetual Multiparty Contract.",
    "version": 1
  },
  "userdoc": {
    "kind": "user",
    "methods": {
      "applyFundingRate()": {
        "notice": "This method takes 3 distinct actions: 1. Pays out regular fees. 2. If possible, resolves the outstanding funding rate proposal, pulling the result in and paying out the rewards. 3. Applies the prevailing funding rate over the most recent period."
      },
      "cancelWithdrawal()": {
        "notice": "Cancels a pending withdrawal request."
      },
      "constructor": {
        "notice": "Constructs the Perpetual contract."
      },
      "create((uint256),(uint256))": {
        "notice": "Creates tokens by creating a new position or by augmenting an existing position. Pulls `collateralAmount ` into the sponsor's position and mints `numTokens` of `tokenCurrency`."
      },
      "createLiquidation(address,(uint256),(uint256),(uint256),uint256)": {
        "notice": "Liquidates the sponsor's position if the caller has enough synthetic tokens to retire the position's outstanding tokens. Liquidations above a minimum size also reset an ongoing \"slow withdrawal\"'s liveness."
      },
      "deposit((uint256))": {
        "notice": "Transfers `collateralAmount` of `collateralCurrency` into the caller's position."
      },
      "depositTo(address,(uint256))": {
        "notice": "Transfers `collateralAmount` of `collateralCurrency` into the specified sponsor's position."
      },
      "dispute(uint256,address)": {
        "notice": "Disputes a liquidation, if the caller has enough collateral to post a dispute bond and pay a fixed final fee charged on each price request."
      },
      "emergencyShutdown()": {
        "notice": "Premature contract settlement under emergency circumstances."
      },
      "getCollateral(address)": {
        "notice": "Accessor method for a sponsor's collateral."
      },
      "getCurrentTime()": {
        "notice": "Gets the current time. Will return the last time set in `setCurrentTime` if running in test mode. Otherwise, it will return the block timestamp."
      },
      "getLiquidations(address)": {
        "notice": "Gets all liquidation information for a given sponsor address."
      },
      "getOutstandingRegularFees(uint256)": {
        "notice": "Fetch any regular fees that the contract has pending but has not yet paid. If the fees to be paid are more than the total collateral within the contract then the totalPaid returned is full contract collateral amount."
      },
      "gulp()": {
        "notice": "Removes excess collateral balance not counted in the PfC by distributing it out pro-rata to all sponsors."
      },
      "payRegularFees()": {
        "notice": "Pays UMA DVM regular fees (as a % of the collateral pool) to the Store contract."
      },
      "pfc()": {
        "notice": "Gets the current profit from corruption for this contract in terms of the collateral currency."
      },
      "proposeFundingRate((int256),uint256)": {
        "notice": "Proposes a new funding rate. Proposer receives a reward if correct."
      },
      "redeem((uint256))": {
        "notice": "Burns `numTokens` of `tokenCurrency` and sends back the proportional amount of `collateralCurrency`."
      },
      "remargin()": {
        "notice": "Theoretically supposed to pay fees and move money between margin accounts to make sure they reflect the NAV of the contract. However, this functionality doesn't apply to this contract."
      },
      "repay((uint256))": {
        "notice": "Burns `numTokens` of `tokenCurrency` to decrease sponsors position size, without sending back `collateralCurrency`. This is done by a sponsor to increase position CR. Resulting size is bounded by minSponsorTokens."
      },
      "requestWithdrawal((uint256))": {
        "notice": "Starts a withdrawal request that, if passed, allows the sponsor to withdraw from their position."
      },
      "setCurrentTime(uint256)": {
        "notice": "Sets the current time."
      },
      "settleEmergencyShutdown()": {
        "notice": "If the contract is emergency shutdown then all token holders and sponsors can redeem their tokens or remaining collateral for underlying at the prevailing price defined by a DVM vote."
      },
      "totalPositionCollateral()": {
        "notice": "Accessor method for the total collateral stored within the PerpetualPositionManager."
      },
      "withdraw((uint256))": {
        "notice": "Transfers `collateralAmount` of `collateralCurrency` from the sponsor's position to the sponsor."
      },
      "withdrawLiquidation(uint256,address)": {
        "notice": "After a dispute has settled or after a non-disputed liquidation has expired, anyone can call this method to disperse payments to the sponsor, liquidator, and disputer."
      },
      "withdrawPassedRequest()": {
        "notice": "After a passed withdrawal request (i.e., by a call to `requestWithdrawal` and waiting `withdrawalLiveness`), withdraws `positionData.withdrawalRequestAmount` of collateral currency."
      }
    },
    "notice": "Convenient wrapper for Liquidatable.",
    "version": 1
  }
}