{
  "contractName": "Registry",
  "abi": [
    {
      "inputs": [],
      "stateMutability": "nonpayable",
      "type": "constructor"
    },
    {
      "anonymous": false,
      "inputs": [
        {
          "indexed": true,
          "internalType": "uint256",
          "name": "roleId",
          "type": "uint256"
        },
        {
          "indexed": true,
          "internalType": "address",
          "name": "newMember",
          "type": "address"
        },
        {
          "indexed": true,
          "internalType": "address",
          "name": "manager",
          "type": "address"
        }
      ],
      "name": "AddedSharedMember",
      "type": "event"
    },
    {
      "anonymous": false,
      "inputs": [
        {
          "indexed": true,
          "internalType": "address",
          "name": "contractAddress",
          "type": "address"
        },
        {
          "indexed": true,
          "internalType": "address",
          "name": "creator",
          "type": "address"
        },
        {
          "indexed": false,
          "internalType": "address[]",
          "name": "parties",
          "type": "address[]"
        }
      ],
      "name": "NewContractRegistered",
      "type": "event"
    },
    {
      "anonymous": false,
      "inputs": [
        {
          "indexed": true,
          "internalType": "address",
          "name": "contractAddress",
          "type": "address"
        },
        {
          "indexed": true,
          "internalType": "address",
          "name": "party",
          "type": "address"
        }
      ],
      "name": "PartyAdded",
      "type": "event"
    },
    {
      "anonymous": false,
      "inputs": [
        {
          "indexed": true,
          "internalType": "address",
          "name": "contractAddress",
          "type": "address"
        },
        {
          "indexed": true,
          "internalType": "address",
          "name": "party",
          "type": "address"
        }
      ],
      "name": "PartyRemoved",
      "type": "event"
    },
    {
      "anonymous": false,
      "inputs": [
        {
          "indexed": true,
          "internalType": "uint256",
          "name": "roleId",
          "type": "uint256"
        },
        {
          "indexed": true,
          "internalType": "address",
          "name": "oldMember",
          "type": "address"
        },
        {
          "indexed": true,
          "internalType": "address",
          "name": "manager",
          "type": "address"
        }
      ],
      "name": "RemovedSharedMember",
      "type": "event"
    },
    {
      "anonymous": false,
      "inputs": [
        {
          "indexed": true,
          "internalType": "uint256",
          "name": "roleId",
          "type": "uint256"
        },
        {
          "indexed": true,
          "internalType": "address",
          "name": "newMember",
          "type": "address"
        },
        {
          "indexed": true,
          "internalType": "address",
          "name": "manager",
          "type": "address"
        }
      ],
      "name": "ResetExclusiveMember",
      "type": "event"
    },
    {
      "inputs": [
        {
          "internalType": "uint256",
          "name": "roleId",
          "type": "uint256"
        },
        {
          "internalType": "address",
          "name": "newMember",
          "type": "address"
        }
      ],
      "name": "addMember",
      "outputs": [],
      "stateMutability": "nonpayable",
      "type": "function"
    },
    {
      "inputs": [
        {
          "internalType": "address",
          "name": "",
          "type": "address"
        }
      ],
      "name": "contractMap",
      "outputs": [
        {
          "internalType": "enum Registry.Validity",
          "name": "valid",
          "type": "uint8"
        },
        {
          "internalType": "uint128",
          "name": "index",
          "type": "uint128"
        }
      ],
      "stateMutability": "view",
      "type": "function",
      "constant": true
    },
    {
      "inputs": [
        {
          "internalType": "uint256",
          "name": "roleId",
          "type": "uint256"
        }
      ],
      "name": "getMember",
      "outputs": [
        {
          "internalType": "address",
          "name": "",
          "type": "address"
        }
      ],
      "stateMutability": "view",
      "type": "function",
      "constant": true
    },
    {
      "inputs": [
        {
          "internalType": "uint256",
          "name": "roleId",
          "type": "uint256"
        },
        {
          "internalType": "address",
          "name": "memberToCheck",
          "type": "address"
        }
      ],
      "name": "holdsRole",
      "outputs": [
        {
          "internalType": "bool",
          "name": "",
          "type": "bool"
        }
      ],
      "stateMutability": "view",
      "type": "function",
      "constant": true
    },
    {
      "inputs": [
        {
          "internalType": "uint256",
          "name": "",
          "type": "uint256"
        }
      ],
      "name": "registeredContracts",
      "outputs": [
        {
          "internalType": "address",
          "name": "",
          "type": "address"
        }
      ],
      "stateMutability": "view",
      "type": "function",
      "constant": true
    },
    {
      "inputs": [
        {
          "internalType": "uint256",
          "name": "roleId",
          "type": "uint256"
        },
        {
          "internalType": "address",
          "name": "memberToRemove",
          "type": "address"
        }
      ],
      "name": "removeMember",
      "outputs": [],
      "stateMutability": "nonpayable",
      "type": "function"
    },
    {
      "inputs": [
        {
          "internalType": "uint256",
          "name": "roleId",
          "type": "uint256"
        }
      ],
      "name": "renounceMembership",
      "outputs": [],
      "stateMutability": "nonpayable",
      "type": "function"
    },
    {
      "inputs": [
        {
          "internalType": "uint256",
          "name": "roleId",
          "type": "uint256"
        },
        {
          "internalType": "address",
          "name": "newMember",
          "type": "address"
        }
      ],
      "name": "resetMember",
      "outputs": [],
      "stateMutability": "nonpayable",
      "type": "function"
    },
    {
      "inputs": [
        {
          "internalType": "address[]",
          "name": "parties",
          "type": "address[]"
        },
        {
          "internalType": "address",
          "name": "contractAddress",
          "type": "address"
        }
      ],
      "name": "registerContract",
      "outputs": [],
      "stateMutability": "nonpayable",
      "type": "function"
    },
    {
      "inputs": [
        {
          "internalType": "address",
          "name": "party",
          "type": "address"
        }
      ],
      "name": "addPartyToContract",
      "outputs": [],
      "stateMutability": "nonpayable",
      "type": "function"
    },
    {
      "inputs": [
        {
          "internalType": "address",
          "name": "partyAddress",
          "type": "address"
        }
      ],
      "name": "removePartyFromContract",
      "outputs": [],
      "stateMutability": "nonpayable",
      "type": "function"
    },
    {
      "inputs": [
        {
          "internalType": "address",
          "name": "contractAddress",
          "type": "address"
        }
      ],
      "name": "isContractRegistered",
      "outputs": [
        {
          "internalType": "bool",
          "name": "",
          "type": "bool"
        }
      ],
      "stateMutability": "view",
      "type": "function",
      "constant": true
    },
    {
      "inputs": [
        {
          "internalType": "address",
          "name": "party",
          "type": "address"
        }
      ],
      "name": "getRegisteredContracts",
      "outputs": [
        {
          "internalType": "address[]",
          "name": "",
          "type": "address[]"
        }
      ],
      "stateMutability": "view",
      "type": "function",
      "constant": true
    },
    {
      "inputs": [],
      "name": "getAllRegisteredContracts",
      "outputs": [
        {
          "internalType": "address[]",
          "name": "",
          "type": "address[]"
        }
      ],
      "stateMutability": "view",
      "type": "function",
      "constant": true
    },
    {
      "inputs": [
        {
          "internalType": "address",
          "name": "party",
          "type": "address"
        },
        {
          "internalType": "address",
          "name": "contractAddress",
          "type": "address"
        }
      ],
      "name": "isPartyMemberOfContract",
      "outputs": [
        {
          "internalType": "bool",
          "name": "",
          "type": "bool"
        }
      ],
      "stateMutability": "view",
      "type": "function",
      "constant": true
    }
  ],
  "bytecode": "0x60806040523480156200001157600080fd5b50620000206000803362000044565b604080516000808252602082019092526200003e91600191620001ad565b620004a1565b826000808281526020819052604090206001015460ff1660028111156200007b57634e487b7160e01b600052602160045260246000fd5b14620000ce5760405162461bcd60e51b815260206004820152601e60248201527f43616e6e6f74207573652061207072652d6578697374696e6720726f6c65000060448201526064015b60405180910390fd5b60008481526020819052604090206001808201805460ff1916828002179055508381556200010c60028201846200030a602090811b62000e3717901c565b60008481526020819052604081206001015460ff1660028111156200014157634e487b7160e01b600052602160045260246000fd5b1415620001a65760405162461bcd60e51b815260206004820152603c6024820152600080516020620018f883398151915260448201527f20746f206d616e61676520616e206578636c757369766520726f6c65000000006064820152608401620000c5565b5050505050565b826000808281526020819052604090206001015460ff166002811115620001e457634e487b7160e01b600052602160045260246000fd5b14620002335760405162461bcd60e51b815260206004820152601e60248201527f43616e6e6f74207573652061207072652d6578697374696e6720726f6c6500006044820152606401620000c5565b60008481526020818152604090912060018101805460ff191660021790558481559062000270906003830190859062000e416200031a821b17901c565b60008481526020819052604081206001015460ff166002811115620002a557634e487b7160e01b600052602160045260246000fd5b1415620001a65760405162461bcd60e51b81526020600482015260386024820152600080516020620018f883398151915260448201527f20746f206d616e61676520612073686172656420726f6c6500000000000000006064820152608401620000c5565b6200031682826200037b565b5050565b60005b8151811015620003765762000361838383815181106200034d57634e487b7160e01b600052603260045260246000fd5b6020026020010151620003fc60201b60201c565b806200036d8162000479565b9150506200031d565b505050565b6001600160a01b038116620003df5760405162461bcd60e51b815260206004820152602360248201527f43616e6e6f742073657420616e206578636c757369766520726f6c6520746f2060448201526203078360ec1b6064820152608401620000c5565b81546001600160a01b0319166001600160a01b0391909116179055565b6001600160a01b038116620004545760405162461bcd60e51b815260206004820152601f60248201527f43616e6e6f74206164642030783020746f20612073686172656420726f6c65006044820152606401620000c5565b6001600160a01b0316600090815260209190915260409020805460ff19166001179055565b60006000198214156200049a57634e487b7160e01b81526011600452602481fd5b5060010190565b61144780620004b16000396000f3fe608060405234801561001057600080fd5b50600436106100f55760003560e01c806374d0a67611610097578063ab3545e511610066578063ab3545e514610216578063d97c05be14610241578063e33c4cd214610254578063f9f6b49b1461026757600080fd5b806374d0a676146101ba5780637a3edab0146101cd5780637cdc1cb9146101f0578063aaa14ca31461020357600080fd5b8063303118d0116100d3578063303118d0146101405780633c0af3441461015357806366c8c250146101945780636be7658b146101a757600080fd5b80631676ddc3146100fa578063167cdde714610118578063188c6ff81461012d575b600080fd5b61010261027a565b60405161010f9190611209565b60405180910390f35b61012b6101263660046110b8565b6102dc565b005b61010261013b3660046110b8565b610370565b61012b61014e3660046110b8565b6103e6565b6101866101613660046110b8565b60026020526000908152604090205460ff81169061010090046001600160801b031682565b60405161010f929190611256565b61012b6101a2366004611104565b61067b565b61012b6101b536600461119b565b61085e565b61012b6101c836600461119b565b610942565b6101e06101db3660046110d2565b610a26565b604051901515815260200161010f565b6101e06101fe36600461119b565b610abd565b61012b610211366004611183565b610ba0565b610229610224366004611183565b610c6a565b6040516001600160a01b03909116815260200161010f565b61012b61024f36600461119b565b610ce3565b610229610262366004611183565b610dc7565b6101e06102753660046110b8565b610df1565b606060018054806020026020016040519081016040528092919081815260200182805480156102d257602002820191906000526020600020905b81546001600160a01b031681526001909101906020018083116102b4575b5050505050905090565b3360008181526002602052604090205460019060ff168181111561031057634e487b7160e01b600052602160045260246000fd5b146103625760405162461bcd60e51b815260206004820152601e60248201527f43616e206f6e6c792061646420746f2076616c696420636f6e7472616374000060448201526064015b60405180910390fd5b61036c8282610e95565b5050565b6001600160a01b0381166000908152600360209081526040918290208054835181840281018401909452808452606093928301828280156103da57602002820191906000526020600020905b81546001600160a01b031681526001909101906020018083116103bc575b50505050509050919050565b6001600160a01b03811660009081526003602052604090208054339190806104495760405162461bcd60e51b8152602060048201526016602482015275506172747920686173206e6f20636f6e74726163747360501b6044820152606401610359565b60016001600160a01b03841660009081526002602052604090205460ff16600181111561048657634e487b7160e01b600052602160045260246000fd5b146104d35760405162461bcd60e51b815260206004820152601f60248201527f52656d6f7665206f6e6c792066726f6d2076616c696420636f6e7472616374006044820152606401610359565b6104dd8484610a26565b6105295760405162461bcd60e51b815260206004820152601e60248201527f43616e206f6e6c792072656d6f7665206578697374696e6720706172747900006044820152606401610359565b6001600160a01b0383166000908152600180840160205260408220549190849061055390856113c9565b8154811061057157634e487b7160e01b600052603260045260246000fd5b60009182526020909120015484546001600160a01b03909116915081908590849081106105ae57634e487b7160e01b600052603260045260246000fd5b600091825260208083209190910180546001600160a01b0319166001600160a01b0394851617905591831681526001860190915260409020829055835484908061060857634e487b7160e01b600052603160045260246000fd5b60008281526020808220830160001990810180546001600160a01b03191690559092019092556001600160a01b0387811680845260018801909252604080842084905551908916927f8e0a870c3ff65bd1f2852048eb92d693833891a8c0ab0827347177544464c57091a3505050505050565b60016106878133610abd565b6106a35760405162461bcd60e51b81526004016103599061132b565b6001600160a01b0382166000908152600260205260408120805490919060ff1660018111156106e257634e487b7160e01b600052602160045260246000fd5b146107285760405162461bcd60e51b815260206004820152601660248201527543616e206f6e6c79207265676973746572206f6e636560501b6044820152606401610359565b60018054808201825560008290527fb10e2d527612073b26eecdfd717e6a320cf44b4afac2b0732d9fcbe2b7fa0cf60180546001600160a01b0319166001600160a01b038616179055805461077c91610f68565b815460016001600160801b03929092166101000260ff191670ffffffffffffffffffffffffffffffffff199091161717815560005b84811015610809576107f78686838181106107dc57634e487b7160e01b600052603260045260246000fd5b90506020020160208101906107f191906110b8565b85610e95565b610802816001610f74565b90506107b1565b50336001600160a01b0316836001600160a01b03167f1b0bc775e5162f873356bcc1733155bd2eb9509f1774770f54b4f938287bcf03878760405161084f9291906111bd565b60405180910390a35050505050565b81600260008281526020819052604090206001015460ff16600281111561089557634e487b7160e01b600052602160045260246000fd5b146108b25760405162461bcd60e51b8152600401610359906112df565b60008381526020819052604090205483906108cd9033610abd565b6108e95760405162461bcd60e51b81526004016103599061136d565b60008481526020819052604090206109049060030184610f80565b60405133906001600160a01b0385169086907feb3e33034c392e69263b04ec0fa376dc12784a41b6676c7f31b936cbc0fbb5af90600090a450505050565b81600260008281526020819052604090206001015460ff16600281111561097957634e487b7160e01b600052602160045260246000fd5b146109965760405162461bcd60e51b8152600401610359906112df565b60008381526020819052604090205483906109b19033610abd565b6109cd5760405162461bcd60e51b81526004016103599061136d565b60008481526020819052604090206109e89060030184610fa2565b60405133906001600160a01b0385169086907f63502af7324ff6db91ab38f8236a648727d9385ea6c782073dd4882d8a61a48f90600090a450505050565b6001600160a01b038083166000818152600360208181526040808420958716845260018601825283205493835252915481108015610ab357506001600160a01b03848116600090815260036020526040902080549185169183908110610a9c57634e487b7160e01b600052603260045260246000fd5b6000918252602090912001546001600160a01b0316145b9150505b92915050565b600082815260208190526040812060018082015460ff166002811115610af357634e487b7160e01b600052602160045260246000fd5b1415610b155760028101546001600160a01b038481169116145b915050610ab7565b6002600182015460ff166002811115610b3e57634e487b7160e01b600052602160045260246000fd5b1415610b67576001600160a01b038316600090815260038201602052604090205460ff16610b0d565b60405162461bcd60e51b815260206004820152600e60248201526d125b9d985b1a59081c9bdb19525960921b6044820152606401610359565b80600260008281526020819052604090206001015460ff166002811115610bd757634e487b7160e01b600052602160045260246000fd5b14610bf45760405162461bcd60e51b8152600401610359906112df565b81610bff8133610abd565b610c1b5760405162461bcd60e51b81526004016103599061132b565b6000838152602081905260409020610c369060030133610f80565b6040513390819085907feb3e33034c392e69263b04ec0fa376dc12784a41b6676c7f31b936cbc0fbb5af90600090a4505050565b600081600160008281526020819052604090206001015460ff166002811115610ca357634e487b7160e01b600052602160045260246000fd5b14610cc05760405162461bcd60e51b815260040161035990611290565b6000838152602081905260409020600201546001600160a01b03165b9392505050565b81600160008281526020819052604090206001015460ff166002811115610d1a57634e487b7160e01b600052602160045260246000fd5b14610d375760405162461bcd60e51b815260040161035990611290565b6000838152602081905260409020548390610d529033610abd565b610d6e5760405162461bcd60e51b81526004016103599061136d565b6000848152602081905260409020610d89906002018461101d565b60405133906001600160a01b0385169086907f3b855c56b409b671c7112789d022675eb639d0bcb8896f1b6197c132f799e74690600090a450505050565b60018181548110610dd757600080fd5b6000918252602090912001546001600160a01b0316905081565b600060016001600160a01b03831660009081526002602052604090205460ff166001811115610e3057634e487b7160e01b600052602160045260246000fd5b1492915050565b61036c828261101d565b60005b8151811015610e9057610e7e83838381518110610e7157634e487b7160e01b600052603260045260246000fd5b6020026020010151610fa2565b80610e88816113e0565b915050610e44565b505050565b610e9f8282610a26565b15610eec5760405162461bcd60e51b815260206004820152601e60248201527f43616e206f6e6c792072656769737465722061207061727479206f6e636500006044820152606401610359565b6001600160a01b038281166000818152600360209081526040808320805460018082018355828652848620820180546001600160a01b031916988a169889179055878652909101909252808320829055519093917f4b920dd33e12e37712086438f2afcecb921cefe83b717ca990222f53d7e2845491a3505050565b6000610cdc82846113c9565b6000610cdc82846113b1565b6001600160a01b0316600090815260209190915260409020805460ff19169055565b6001600160a01b038116610ff85760405162461bcd60e51b815260206004820152601f60248201527f43616e6e6f74206164642030783020746f20612073686172656420726f6c65006044820152606401610359565b6001600160a01b0316600090815260209190915260409020805460ff19166001179055565b6001600160a01b03811661107f5760405162461bcd60e51b815260206004820152602360248201527f43616e6e6f742073657420616e206578636c757369766520726f6c6520746f2060448201526203078360ec1b6064820152608401610359565b81546001600160a01b0319166001600160a01b0391909116179055565b80356001600160a01b03811681146110b357600080fd5b919050565b6000602082840312156110c9578081fd5b610cdc8261109c565b600080604083850312156110e4578081fd5b6110ed8361109c565b91506110fb6020840161109c565b90509250929050565b600080600060408486031215611118578081fd5b833567ffffffffffffffff8082111561112f578283fd5b818601915086601f830112611142578283fd5b813581811115611150578384fd5b8760208260051b8501011115611164578384fd5b60209283019550935061117a918601905061109c565b90509250925092565b600060208284031215611194578081fd5b5035919050565b600080604083850312156111ad578182fd5b823591506110fb6020840161109c565b60208082528181018390526000908460408401835b868110156111fe576001600160a01b036111eb8461109c565b16825291830191908301906001016111d2565b509695505050505050565b6020808252825182820181905260009190848201906040850190845b8181101561124a5783516001600160a01b031683529284019291840191600101611225565b50909695505050505050565b604081016002841061127857634e487b7160e01b600052602160045260246000fd5b9281526001600160801b039190911660209091015290565b6020808252602f908201527f4d7573742062652063616c6c6564206f6e20616e20696e697469616c697a656460408201526e204578636c757369766520726f6c6560881b606082015260800190565b6020808252602c908201527f4d7573742062652063616c6c6564206f6e20616e20696e697469616c697a656460408201526b2053686172656420726f6c6560a01b606082015260800190565b60208082526022908201527f53656e64657220646f6573206e6f7420686f6c6420726571756972656420726f6040820152616c6560f01b606082015260800190565b60208082526024908201527f43616e206f6e6c792062652063616c6c6564206279206120726f6c65206d616e60408201526330b3b2b960e11b606082015260800190565b600082198211156113c4576113c46113fb565b500190565b6000828210156113db576113db6113fb565b500390565b60006000198214156113f4576113f46113fb565b5060010190565b634e487b7160e01b600052601160045260246000fdfea26469706673582212202ed6e654537a74d058449b34e1d0d58a019625b42970feb1f8ecd75cf944c4f264736f6c63430008040033417474656d7074656420746f2075736520616e20696e76616c696420726f6c65",
  "immutableReferences": {},
  "source": "// SPDX-License-Identifier: AGPL-3.0-only\npragma solidity ^0.8.0;\npragma abicoder v2;\n\nimport \"../../common/implementation/MultiRole.sol\";\nimport \"../interfaces/RegistryInterface.sol\";\n\nimport \"@openzeppelin/contracts/utils/math/SafeMath.sol\";\n\n/**\n * @title Registry for financial contracts and approved financial contract creators.\n * @dev Maintains a whitelist of financial contract creators that are allowed\n * to register new financial contracts and stores party members of a financial contract.\n */\ncontract Registry is RegistryInterface, MultiRole {\n    using SafeMath for uint256;\n\n    /****************************************\n     *    INTERNAL VARIABLES AND STORAGE    *\n     ****************************************/\n\n    enum Roles {\n        Owner, // The owner manages the set of ContractCreators.\n        ContractCreator // Can register financial contracts.\n    }\n\n    // This enum is required because a `WasValid` state is required\n    // to ensure that financial contracts cannot be re-registered.\n    enum Validity { Invalid, Valid }\n\n    // Local information about a contract.\n    struct FinancialContract {\n        Validity valid;\n        uint128 index;\n    }\n\n    struct Party {\n        address[] contracts; // Each financial contract address is stored in this array.\n        // The address of each financial contract is mapped to its index for constant time look up and deletion.\n        mapping(address => uint256) contractIndex;\n    }\n\n    // Array of all contracts that are approved to use the UMA Oracle.\n    address[] public registeredContracts;\n\n    // Map of financial contract contracts to the associated FinancialContract struct.\n    mapping(address => FinancialContract) public contractMap;\n\n    // Map each party member to their their associated Party struct.\n    mapping(address => Party) private partyMap;\n\n    /****************************************\n     *                EVENTS                *\n     ****************************************/\n\n    event NewContractRegistered(address indexed contractAddress, address indexed creator, address[] parties);\n    event PartyAdded(address indexed contractAddress, address indexed party);\n    event PartyRemoved(address indexed contractAddress, address indexed party);\n\n    /**\n     * @notice Construct the Registry contract.\n     */\n    constructor() {\n        _createExclusiveRole(uint256(Roles.Owner), uint256(Roles.Owner), msg.sender);\n        // Start with no contract creators registered.\n        _createSharedRole(uint256(Roles.ContractCreator), uint256(Roles.Owner), new address[](0));\n    }\n\n    /****************************************\n     *        REGISTRATION FUNCTIONS        *\n     ****************************************/\n\n    /**\n     * @notice Registers a new financial contract.\n     * @dev Only authorized contract creators can call this method.\n     * @param parties array of addresses who become parties in the contract.\n     * @param contractAddress address of the contract against which the parties are registered.\n     */\n    function registerContract(address[] calldata parties, address contractAddress)\n        external\n        override\n        onlyRoleHolder(uint256(Roles.ContractCreator))\n    {\n        FinancialContract storage financialContract = contractMap[contractAddress];\n        require(contractMap[contractAddress].valid == Validity.Invalid, \"Can only register once\");\n\n        // Store contract address as a registered contract.\n        registeredContracts.push(contractAddress);\n\n        // No length check necessary because we should never hit (2^127 - 1) contracts.\n        financialContract.index = uint128(registeredContracts.length.sub(1));\n\n        // For all parties in the array add them to the contract's parties.\n        financialContract.valid = Validity.Valid;\n        for (uint256 i = 0; i < parties.length; i = i.add(1)) {\n            _addPartyToContract(parties[i], contractAddress);\n        }\n\n        emit NewContractRegistered(contractAddress, msg.sender, parties);\n    }\n\n    /**\n     * @notice Adds a party member to the calling contract.\n     * @dev msg.sender will be used to determine the contract that this party is added to.\n     * @param party new party for the calling contract.\n     */\n    function addPartyToContract(address party) external override {\n        address contractAddress = msg.sender;\n        require(contractMap[contractAddress].valid == Validity.Valid, \"Can only add to valid contract\");\n\n        _addPartyToContract(party, contractAddress);\n    }\n\n    /**\n     * @notice Removes a party member from the calling contract.\n     * @dev msg.sender will be used to determine the contract that this party is removed from.\n     * @param partyAddress address to be removed from the calling contract.\n     */\n    function removePartyFromContract(address partyAddress) external override {\n        address contractAddress = msg.sender;\n        Party storage party = partyMap[partyAddress];\n        uint256 numberOfContracts = party.contracts.length;\n\n        require(numberOfContracts != 0, \"Party has no contracts\");\n        require(contractMap[contractAddress].valid == Validity.Valid, \"Remove only from valid contract\");\n        require(isPartyMemberOfContract(partyAddress, contractAddress), \"Can only remove existing party\");\n\n        // Index of the current location of the contract to remove.\n        uint256 deleteIndex = party.contractIndex[contractAddress];\n\n        // Store the last contract's address to update the lookup map.\n        address lastContractAddress = party.contracts[numberOfContracts - 1];\n\n        // Swap the contract to be removed with the last contract.\n        party.contracts[deleteIndex] = lastContractAddress;\n\n        // Update the lookup index with the new location.\n        party.contractIndex[lastContractAddress] = deleteIndex;\n\n        // Pop the last contract from the array and update the lookup map.\n        party.contracts.pop();\n        delete party.contractIndex[contractAddress];\n\n        emit PartyRemoved(contractAddress, partyAddress);\n    }\n\n    /****************************************\n     *         REGISTRY STATE GETTERS       *\n     ****************************************/\n\n    /**\n     * @notice Returns whether the contract has been registered with the registry.\n     * @dev If it is registered, it is an authorized participant in the UMA system.\n     * @param contractAddress address of the financial contract.\n     * @return bool indicates whether the contract is registered.\n     */\n    function isContractRegistered(address contractAddress) external view override returns (bool) {\n        return contractMap[contractAddress].valid == Validity.Valid;\n    }\n\n    /**\n     * @notice Returns a list of all contracts that are associated with a particular party.\n     * @param party address of the party.\n     * @return an array of the contracts the party is registered to.\n     */\n    function getRegisteredContracts(address party) external view override returns (address[] memory) {\n        return partyMap[party].contracts;\n    }\n\n    /**\n     * @notice Returns all registered contracts.\n     * @return all registered contract addresses within the system.\n     */\n    function getAllRegisteredContracts() external view override returns (address[] memory) {\n        return registeredContracts;\n    }\n\n    /**\n     * @notice checks if an address is a party of a contract.\n     * @param party party to check.\n     * @param contractAddress address to check against the party.\n     * @return bool indicating if the address is a party of the contract.\n     */\n    function isPartyMemberOfContract(address party, address contractAddress) public view override returns (bool) {\n        uint256 index = partyMap[party].contractIndex[contractAddress];\n        return partyMap[party].contracts.length > index && partyMap[party].contracts[index] == contractAddress;\n    }\n\n    /****************************************\n     *           INTERNAL FUNCTIONS         *\n     ****************************************/\n\n    function _addPartyToContract(address party, address contractAddress) internal {\n        require(!isPartyMemberOfContract(party, contractAddress), \"Can only register a party once\");\n        uint256 contractIndex = partyMap[party].contracts.length;\n        partyMap[party].contracts.push(contractAddress);\n        partyMap[party].contractIndex[contractAddress] = contractIndex;\n\n        emit PartyAdded(contractAddress, party);\n    }\n}\n",
  "sourcePath": "/home/kamto/code/protocol/packages/core/contracts/oracle/implementation/Registry.sol",
  "compiler": {
    "name": "solc",
    "version": "0.8.4+commit.c7e474f2.Emscripten.clang"
  },
  "schemaVersion": "3.3.4",
  "updatedAt": "2021-05-07T22:22:59.026Z",
  "networkType": "ethereum",
  "devdoc": {
    "details": "Maintains a whitelist of financial contract creators that are allowed to register new financial contracts and stores party members of a financial contract.",
    "kind": "dev",
    "methods": {
      "addMember(uint256,address)": {
        "details": "Reverts if `roleId` does not represent an initialized, SharedRole or if the caller is not a member of the managing role for `roleId`.",
        "params": {
          "newMember": "the new SharedRole member.",
          "roleId": "the SharedRole membership to modify."
        }
      },
      "addPartyToContract(address)": {
        "details": "msg.sender will be used to determine the contract that this party is added to.",
        "params": {
          "party": "new party for the calling contract."
        }
      },
      "getAllRegisteredContracts()": {
        "returns": {
          "_0": "all registered contract addresses within the system."
        }
      },
      "getMember(uint256)": {
        "details": "Reverts if `roleId` does not represent an initialized, exclusive role.",
        "params": {
          "roleId": "the ExclusiveRole membership to check."
        },
        "returns": {
          "_0": "the address of the current ExclusiveRole member."
        }
      },
      "getRegisteredContracts(address)": {
        "params": {
          "party": "address of the party."
        },
        "returns": {
          "_0": "an array of the contracts the party is registered to."
        }
      },
      "holdsRole(uint256,address)": {
        "details": "Reverts if roleId does not correspond to an initialized role.",
        "params": {
          "memberToCheck": "the address to check.",
          "roleId": "the Role to check."
        },
        "returns": {
          "_0": "True if `memberToCheck` is a member of `roleId`."
        }
      },
      "isContractRegistered(address)": {
        "details": "If it is registered, it is an authorized participant in the UMA system.",
        "params": {
          "contractAddress": "address of the financial contract."
        },
        "returns": {
          "_0": "bool indicates whether the contract is registered."
        }
      },
      "isPartyMemberOfContract(address,address)": {
        "params": {
          "contractAddress": "address to check against the party.",
          "party": "party to check."
        },
        "returns": {
          "_0": "bool indicating if the address is a party of the contract."
        }
      },
      "registerContract(address[],address)": {
        "details": "Only authorized contract creators can call this method.",
        "params": {
          "contractAddress": "address of the contract against which the parties are registered.",
          "parties": "array of addresses who become parties in the contract."
        }
      },
      "removeMember(uint256,address)": {
        "details": "Reverts if `roleId` does not represent an initialized, SharedRole or if the caller is not a member of the managing role for `roleId`.",
        "params": {
          "memberToRemove": "the current SharedRole member to remove.",
          "roleId": "the SharedRole membership to modify."
        }
      },
      "removePartyFromContract(address)": {
        "details": "msg.sender will be used to determine the contract that this party is removed from.",
        "params": {
          "partyAddress": "address to be removed from the calling contract."
        }
      },
      "renounceMembership(uint256)": {
        "details": "Reverts if the caller is not a member of the role for `roleId` or if `roleId` is not an initialized, SharedRole.",
        "params": {
          "roleId": "the SharedRole membership to modify."
        }
      },
      "resetMember(uint256,address)": {
        "details": "Reverts if the caller is not a member of the managing role for `roleId` or if `roleId` is not an initialized, ExclusiveRole.",
        "params": {
          "newMember": "the new ExclusiveRole member.",
          "roleId": "the ExclusiveRole membership to modify."
        }
      }
    },
    "title": "Registry for financial contracts and approved financial contract creators.",
    "version": 1
  },
  "userdoc": {
    "kind": "user",
    "methods": {
      "addMember(uint256,address)": {
        "notice": "Adds `newMember` to the shared role, `roleId`."
      },
      "addPartyToContract(address)": {
        "notice": "Adds a party member to the calling contract."
      },
      "constructor": {
        "notice": "Construct the Registry contract."
      },
      "getAllRegisteredContracts()": {
        "notice": "Returns all registered contracts."
      },
      "getMember(uint256)": {
        "notice": "Gets the current holder of the exclusive role, `roleId`."
      },
      "getRegisteredContracts(address)": {
        "notice": "Returns a list of all contracts that are associated with a particular party."
      },
      "holdsRole(uint256,address)": {
        "notice": "Whether `memberToCheck` is a member of roleId."
      },
      "isContractRegistered(address)": {
        "notice": "Returns whether the contract has been registered with the registry."
      },
      "isPartyMemberOfContract(address,address)": {
        "notice": "checks if an address is a party of a contract."
      },
      "registerContract(address[],address)": {
        "notice": "Registers a new financial contract."
      },
      "removeMember(uint256,address)": {
        "notice": "Removes `memberToRemove` from the shared role, `roleId`."
      },
      "removePartyFromContract(address)": {
        "notice": "Removes a party member from the calling contract."
      },
      "renounceMembership(uint256)": {
        "notice": "Removes caller from the role, `roleId`."
      },
      "resetMember(uint256,address)": {
        "notice": "Changes the exclusive role holder of `roleId` to `newMember`."
      }
    },
    "version": 1
  }
}