{
  "contractName": "StakingRewards",
  "abi": [
    {
      "inputs": [
        {
          "internalType": "address",
          "name": "_rewardsToken",
          "type": "address"
        },
        {
          "internalType": "address",
          "name": "_stakingToken",
          "type": "address"
        }
      ],
      "stateMutability": "nonpayable",
      "type": "constructor"
    },
    {
      "anonymous": false,
      "inputs": [
        {
          "indexed": false,
          "internalType": "uint256",
          "name": "reward",
          "type": "uint256"
        },
        {
          "indexed": false,
          "internalType": "uint256",
          "name": "periodFinish",
          "type": "uint256"
        }
      ],
      "name": "RewardAdded",
      "type": "event"
    },
    {
      "anonymous": false,
      "inputs": [
        {
          "indexed": true,
          "internalType": "address",
          "name": "user",
          "type": "address"
        },
        {
          "indexed": false,
          "internalType": "uint256",
          "name": "reward",
          "type": "uint256"
        }
      ],
      "name": "RewardPaid",
      "type": "event"
    },
    {
      "anonymous": false,
      "inputs": [
        {
          "indexed": true,
          "internalType": "address",
          "name": "user",
          "type": "address"
        },
        {
          "indexed": false,
          "internalType": "uint256",
          "name": "amount",
          "type": "uint256"
        }
      ],
      "name": "Staked",
      "type": "event"
    },
    {
      "anonymous": false,
      "inputs": [
        {
          "indexed": true,
          "internalType": "address",
          "name": "user",
          "type": "address"
        },
        {
          "indexed": false,
          "internalType": "uint256",
          "name": "amount",
          "type": "uint256"
        }
      ],
      "name": "Withdrawn",
      "type": "event"
    },
    {
      "inputs": [],
      "name": "lastUpdateTime",
      "outputs": [
        {
          "internalType": "uint256",
          "name": "",
          "type": "uint256"
        }
      ],
      "stateMutability": "view",
      "type": "function"
    },
    {
      "inputs": [],
      "name": "periodFinish",
      "outputs": [
        {
          "internalType": "uint256",
          "name": "",
          "type": "uint256"
        }
      ],
      "stateMutability": "view",
      "type": "function"
    },
    {
      "inputs": [],
      "name": "rewardPerTokenStored",
      "outputs": [
        {
          "internalType": "uint256",
          "name": "",
          "type": "uint256"
        }
      ],
      "stateMutability": "view",
      "type": "function"
    },
    {
      "inputs": [],
      "name": "rewardRate",
      "outputs": [
        {
          "internalType": "uint256",
          "name": "",
          "type": "uint256"
        }
      ],
      "stateMutability": "view",
      "type": "function"
    },
    {
      "inputs": [
        {
          "internalType": "address",
          "name": "",
          "type": "address"
        }
      ],
      "name": "rewards",
      "outputs": [
        {
          "internalType": "uint256",
          "name": "",
          "type": "uint256"
        }
      ],
      "stateMutability": "view",
      "type": "function"
    },
    {
      "inputs": [],
      "name": "rewardsDistribution",
      "outputs": [
        {
          "internalType": "address",
          "name": "",
          "type": "address"
        }
      ],
      "stateMutability": "view",
      "type": "function"
    },
    {
      "inputs": [],
      "name": "rewardsToken",
      "outputs": [
        {
          "internalType": "contract IERC20",
          "name": "",
          "type": "address"
        }
      ],
      "stateMutability": "view",
      "type": "function"
    },
    {
      "inputs": [],
      "name": "stakingToken",
      "outputs": [
        {
          "internalType": "contract IERC20",
          "name": "",
          "type": "address"
        }
      ],
      "stateMutability": "view",
      "type": "function"
    },
    {
      "inputs": [
        {
          "internalType": "address",
          "name": "",
          "type": "address"
        }
      ],
      "name": "userRewardPerTokenPaid",
      "outputs": [
        {
          "internalType": "uint256",
          "name": "",
          "type": "uint256"
        }
      ],
      "stateMutability": "view",
      "type": "function"
    },
    {
      "inputs": [],
      "name": "totalSupply",
      "outputs": [
        {
          "internalType": "uint256",
          "name": "",
          "type": "uint256"
        }
      ],
      "stateMutability": "view",
      "type": "function"
    },
    {
      "inputs": [
        {
          "internalType": "address",
          "name": "account",
          "type": "address"
        }
      ],
      "name": "balanceOf",
      "outputs": [
        {
          "internalType": "uint256",
          "name": "",
          "type": "uint256"
        }
      ],
      "stateMutability": "view",
      "type": "function"
    },
    {
      "inputs": [],
      "name": "lastTimeRewardApplicable",
      "outputs": [
        {
          "internalType": "uint256",
          "name": "",
          "type": "uint256"
        }
      ],
      "stateMutability": "view",
      "type": "function"
    },
    {
      "inputs": [],
      "name": "rewardPerToken",
      "outputs": [
        {
          "internalType": "uint256",
          "name": "",
          "type": "uint256"
        }
      ],
      "stateMutability": "view",
      "type": "function"
    },
    {
      "inputs": [
        {
          "internalType": "address",
          "name": "account",
          "type": "address"
        }
      ],
      "name": "earned",
      "outputs": [
        {
          "internalType": "uint256",
          "name": "",
          "type": "uint256"
        }
      ],
      "stateMutability": "view",
      "type": "function"
    },
    {
      "inputs": [
        {
          "internalType": "uint256",
          "name": "amount",
          "type": "uint256"
        },
        {
          "internalType": "uint256",
          "name": "deadline",
          "type": "uint256"
        },
        {
          "internalType": "uint8",
          "name": "v",
          "type": "uint8"
        },
        {
          "internalType": "bytes32",
          "name": "r",
          "type": "bytes32"
        },
        {
          "internalType": "bytes32",
          "name": "s",
          "type": "bytes32"
        }
      ],
      "name": "stakeWithPermit",
      "outputs": [],
      "stateMutability": "nonpayable",
      "type": "function"
    },
    {
      "inputs": [
        {
          "internalType": "uint256",
          "name": "amount",
          "type": "uint256"
        }
      ],
      "name": "stake",
      "outputs": [],
      "stateMutability": "nonpayable",
      "type": "function"
    },
    {
      "inputs": [
        {
          "internalType": "uint256",
          "name": "amount",
          "type": "uint256"
        }
      ],
      "name": "withdraw",
      "outputs": [],
      "stateMutability": "nonpayable",
      "type": "function"
    },
    {
      "inputs": [],
      "name": "getReward",
      "outputs": [],
      "stateMutability": "nonpayable",
      "type": "function"
    },
    {
      "inputs": [],
      "name": "exit",
      "outputs": [],
      "stateMutability": "nonpayable",
      "type": "function"
    },
    {
      "inputs": [
        {
          "internalType": "uint256",
          "name": "reward",
          "type": "uint256"
        },
        {
          "internalType": "uint256",
          "name": "rewardsDuration",
          "type": "uint256"
        }
      ],
      "name": "notifyRewardAmount",
      "outputs": [],
      "stateMutability": "nonpayable",
      "type": "function"
    }
  ],
  "bytecode": "0x6080604052600060045560006005553480156200001b57600080fd5b50604051620028bd380380620028bd8339818101604052810190620000419190620000e9565b6001808190555081600260006101000a81548173ffffffffffffffffffffffffffffffffffffffff021916908373ffffffffffffffffffffffffffffffffffffffff16021790555080600360006101000a81548173ffffffffffffffffffffffffffffffffffffffff021916908373ffffffffffffffffffffffffffffffffffffffff160217905550505062000183565b600081519050620000e38162000169565b92915050565b6000806040838503121562000103576200010262000164565b5b60006200011385828601620000d2565b92505060206200012685828601620000d2565b9150509250929050565b60006200013d8262000144565b9050919050565b600073ffffffffffffffffffffffffffffffffffffffff82169050919050565b600080fd5b620001748162000130565b81146200018057600080fd5b50565b61272a80620001936000396000f3fe608060405234801561001057600080fd5b506004361061012b5760003560e01c806380faa57d116100ad578063d1af0c7d11610071578063d1af0c7d14610320578063df136d651461033e578063e9fad8ee1461035c578063ebe2b12b14610366578063ecd9ba82146103845761012b565b806380faa57d1461027a5780638b87634714610298578063a694fc3a146102c8578063c8f33c91146102e4578063cd3daf9d146103025761012b565b80633d18b912116100f45780633d18b912146101e65780633fc6df6e146101f057806370a082311461020e57806372f702f31461023e5780637b0a47ee1461025c5761012b565b80628cc262146101305780630700037d1461016057806318160ddd14610190578063246132f9146101ae5780632e1a7d4d146101ca575b600080fd5b61014a60048036038101906101459190611ae1565b6103a0565b604051610157919061214f565b60405180910390f35b61017a60048036038101906101759190611ae1565b6104be565b604051610187919061214f565b60405180910390f35b6101986104d6565b6040516101a5919061214f565b60405180910390f35b6101c860048036038101906101c39190611b95565b6104e0565b005b6101e460048036038101906101df9190611b3b565b610898565b005b6101ee610b73565b005b6101f8610dee565b6040516102059190611eaa565b60405180910390f35b61022860048036038101906102239190611ae1565b610e12565b604051610235919061214f565b60405180910390f35b610246610e5b565b6040516102539190611f94565b60405180910390f35b610264610e81565b604051610271919061214f565b60405180910390f35b610282610e87565b60405161028f919061214f565b60405180910390f35b6102b260048036038101906102ad9190611ae1565b610e9a565b6040516102bf919061214f565b60405180910390f35b6102e260048036038101906102dd9190611b3b565b610eb2565b005b6102ec61118f565b6040516102f9919061214f565b60405180910390f35b61030a611195565b604051610317919061214f565b60405180910390f35b610328611223565b6040516103359190611f94565b60405180910390f35b610346611249565b604051610353919061214f565b60405180910390f35b61036461124f565b005b61036e6112a1565b60405161037b919061214f565b60405180910390f35b61039e60048036038101906103999190611bd5565b6112a7565b005b60006104b7600960008473ffffffffffffffffffffffffffffffffffffffff1673ffffffffffffffffffffffffffffffffffffffff168152602001908152602001600020546104a9670de0b6b3a764000061049b61044d600860008973ffffffffffffffffffffffffffffffffffffffff1673ffffffffffffffffffffffffffffffffffffffff1681526020019081526020016000205461043f611195565b61162190919063ffffffff16565b600b60008973ffffffffffffffffffffffffffffffffffffffff1673ffffffffffffffffffffffffffffffffffffffff1681526020019081526020016000205461168090919063ffffffff16565b6116fb90919063ffffffff16565b61175990919063ffffffff16565b9050919050565b60096020528060005260406000206000915090505481565b6000600a54905090565b60008054906101000a900473ffffffffffffffffffffffffffffffffffffffff1673ffffffffffffffffffffffffffffffffffffffff163373ffffffffffffffffffffffffffffffffffffffff161461056e576040517f08c379a0000000000000000000000000000000000000000000000000000000008152600401610565906120cf565b60405180910390fd5b6000610578611195565b600781905550610586610e87565b600681905550600073ffffffffffffffffffffffffffffffffffffffff168173ffffffffffffffffffffffffffffffffffffffff1614610653576105c9816103a0565b600960008373ffffffffffffffffffffffffffffffffffffffff1673ffffffffffffffffffffffffffffffffffffffff16815260200190815260200160002081905550600754600860008373ffffffffffffffffffffffffffffffffffffffff1673ffffffffffffffffffffffffffffffffffffffff168152602001908152602001600020819055505b600454610669834261175990919063ffffffff16565b10156106aa576040517f08c379a00000000000000000000000000000000000000000000000000000000081526004016106a19061204f565b60405180910390fd5b60045442106106d1576106c682846116fb90919063ffffffff16565b600581905550610731565b60006106e84260045461162190919063ffffffff16565b905060006107016005548361168090919063ffffffff16565b90506107288461071a838861175990919063ffffffff16565b6116fb90919063ffffffff16565b60058190555050505b6000600260009054906101000a900473ffffffffffffffffffffffffffffffffffffffff1673ffffffffffffffffffffffffffffffffffffffff166370a08231306040518263ffffffff1660e01b815260040161078e9190611eaa565b60206040518083038186803b1580156107a657600080fd5b505afa1580156107ba573d6000803e3d6000fd5b505050506040513d601f19601f820116820180604052508101906107de9190611b68565b90506107f383826116fb90919063ffffffff16565b6005541115610837576040517f08c379a000000000000000000000000000000000000000000000000000000000815260040161082e906120af565b60405180910390fd5b42600681905550610851834261175990919063ffffffff16565b6004819055507f6c07ee05dcf262f13abf9d87b846ee789d2f90fe991d495acd7d7fc109ee1f558460045460405161088a92919061216a565b60405180910390a150505050565b60018060008282546108aa91906121ba565b9250508190555060006001549050336108c1611195565b6007819055506108cf610e87565b600681905550600073ffffffffffffffffffffffffffffffffffffffff168173ffffffffffffffffffffffffffffffffffffffff161461099c57610912816103a0565b600960008373ffffffffffffffffffffffffffffffffffffffff1673ffffffffffffffffffffffffffffffffffffffff16815260200190815260200160002081905550600754600860008373ffffffffffffffffffffffffffffffffffffffff1673ffffffffffffffffffffffffffffffffffffffff168152602001908152602001600020819055505b600083116109df576040517f08c379a00000000000000000000000000000000000000000000000000000000081526004016109d69061206f565b60405180910390fd5b6109f483600a5461162190919063ffffffff16565b600a81905550610a4c83600b60003373ffffffffffffffffffffffffffffffffffffffff1673ffffffffffffffffffffffffffffffffffffffff1681526020019081526020016000205461162190919063ffffffff16565b600b60003373ffffffffffffffffffffffffffffffffffffffff1673ffffffffffffffffffffffffffffffffffffffff16815260200190815260200160002081905550610adc3384600360009054906101000a900473ffffffffffffffffffffffffffffffffffffffff1673ffffffffffffffffffffffffffffffffffffffff166117b79092919063ffffffff16565b3373ffffffffffffffffffffffffffffffffffffffff167f7084f5476618d8e60b11ef0d7d3f06914655adb8793e28ff7f018d4c76d505d584604051610b22919061214f565b60405180910390a2506001548114610b6f576040517f08c379a0000000000000000000000000000000000000000000000000000000008152600401610b669061210f565b60405180910390fd5b5050565b6001806000828254610b8591906121ba565b925050819055506000600154905033610b9c611195565b600781905550610baa610e87565b600681905550600073ffffffffffffffffffffffffffffffffffffffff168173ffffffffffffffffffffffffffffffffffffffff1614610c7757610bed816103a0565b600960008373ffffffffffffffffffffffffffffffffffffffff1673ffffffffffffffffffffffffffffffffffffffff16815260200190815260200160002081905550600754600860008373ffffffffffffffffffffffffffffffffffffffff1673ffffffffffffffffffffffffffffffffffffffff168152602001908152602001600020819055505b6000600960003373ffffffffffffffffffffffffffffffffffffffff1673ffffffffffffffffffffffffffffffffffffffff1681526020019081526020016000205490506000811115610da5576000600960003373ffffffffffffffffffffffffffffffffffffffff1673ffffffffffffffffffffffffffffffffffffffff16815260200190815260200160002081905550610d563382600260009054906101000a900473ffffffffffffffffffffffffffffffffffffffff1673ffffffffffffffffffffffffffffffffffffffff166117b79092919063ffffffff16565b3373ffffffffffffffffffffffffffffffffffffffff167fe2403640ba68fed3a2f88b7557551d1993f84b99bb10ff833f0cf8db0c5e048682604051610d9c919061214f565b60405180910390a25b50506001548114610deb576040517f08c379a0000000000000000000000000000000000000000000000000000000008152600401610de29061210f565b60405180910390fd5b50565b60008054906101000a900473ffffffffffffffffffffffffffffffffffffffff1681565b6000600b60008373ffffffffffffffffffffffffffffffffffffffff1673ffffffffffffffffffffffffffffffffffffffff168152602001908152602001600020549050919050565b600360009054906101000a900473ffffffffffffffffffffffffffffffffffffffff1681565b60055481565b6000610e954260045461183d565b905090565b60086020528060005260406000206000915090505481565b6001806000828254610ec491906121ba565b925050819055506000600154905033610edb611195565b600781905550610ee9610e87565b600681905550600073ffffffffffffffffffffffffffffffffffffffff168173ffffffffffffffffffffffffffffffffffffffff1614610fb657610f2c816103a0565b600960008373ffffffffffffffffffffffffffffffffffffffff1673ffffffffffffffffffffffffffffffffffffffff16815260200190815260200160002081905550600754600860008373ffffffffffffffffffffffffffffffffffffffff1673ffffffffffffffffffffffffffffffffffffffff168152602001908152602001600020819055505b60008311610ff9576040517f08c379a0000000000000000000000000000000000000000000000000000000008152600401610ff090611faf565b60405180910390fd5b61100e83600a5461175990919063ffffffff16565b600a8190555061106683600b60003373ffffffffffffffffffffffffffffffffffffffff1673ffffffffffffffffffffffffffffffffffffffff1681526020019081526020016000205461175990919063ffffffff16565b600b60003373ffffffffffffffffffffffffffffffffffffffff1673ffffffffffffffffffffffffffffffffffffffff168152602001908152602001600020819055506110f8333085600360009054906101000a900473ffffffffffffffffffffffffffffffffffffffff1673ffffffffffffffffffffffffffffffffffffffff16611856909392919063ffffffff16565b3373ffffffffffffffffffffffffffffffffffffffff167f9e71bc8eea02a63969f509818f2dafb9254532904319f9dbda79b67bd34a5f3d8460405161113e919061214f565b60405180910390a250600154811461118b576040517f08c379a00000000000000000000000000000000000000000000000000000000081526004016111829061210f565b60405180910390fd5b5050565b60065481565b600080600a5414156111ab576007549050611220565b61121d61120c600a546111fe670de0b6b3a76400006111f06005546111e26006546111d4610e87565b61162190919063ffffffff16565b61168090919063ffffffff16565b61168090919063ffffffff16565b6116fb90919063ffffffff16565b60075461175990919063ffffffff16565b90505b90565b600260009054906101000a900473ffffffffffffffffffffffffffffffffffffffff1681565b60075481565b611297600b60003373ffffffffffffffffffffffffffffffffffffffff1673ffffffffffffffffffffffffffffffffffffffff16815260200190815260200160002054610898565b61129f610b73565b565b60045481565b60018060008282546112b991906121ba565b9250508190555060006001549050336112d0611195565b6007819055506112de610e87565b600681905550600073ffffffffffffffffffffffffffffffffffffffff168173ffffffffffffffffffffffffffffffffffffffff16146113ab57611321816103a0565b600960008373ffffffffffffffffffffffffffffffffffffffff1673ffffffffffffffffffffffffffffffffffffffff16815260200190815260200160002081905550600754600860008373ffffffffffffffffffffffffffffffffffffffff1673ffffffffffffffffffffffffffffffffffffffff168152602001908152602001600020819055505b600087116113ee576040517f08c379a00000000000000000000000000000000000000000000000000000000081526004016113e590611faf565b60405180910390fd5b61140387600a5461175990919063ffffffff16565b600a8190555061145b87600b60003373ffffffffffffffffffffffffffffffffffffffff1673ffffffffffffffffffffffffffffffffffffffff1681526020019081526020016000205461175990919063ffffffff16565b600b60003373ffffffffffffffffffffffffffffffffffffffff1673ffffffffffffffffffffffffffffffffffffffff16815260200190815260200160002081905550600360009054906101000a900473ffffffffffffffffffffffffffffffffffffffff1673ffffffffffffffffffffffffffffffffffffffff1663d505accf33308a8a8a8a8a6040518863ffffffff1660e01b81526004016115059796959493929190611efc565b600060405180830381600087803b15801561151f57600080fd5b505af1158015611533573d6000803e3d6000fd5b50505050611586333089600360009054906101000a900473ffffffffffffffffffffffffffffffffffffffff1673ffffffffffffffffffffffffffffffffffffffff16611856909392919063ffffffff16565b3373ffffffffffffffffffffffffffffffffffffffff167f9e71bc8eea02a63969f509818f2dafb9254532904319f9dbda79b67bd34a5f3d886040516115cc919061214f565b60405180910390a2506001548114611619576040517f08c379a00000000000000000000000000000000000000000000000000000000081526004016116109061210f565b60405180910390fd5b505050505050565b600082821115611666576040517f08c379a000000000000000000000000000000000000000000000000000000000815260040161165d9061200f565b60405180910390fd5b60008284611674919061229b565b90508091505092915050565b60008083141561169357600090506116f5565b600082846116a19190612241565b90508284826116b09190612210565b146116f0576040517f08c379a00000000000000000000000000000000000000000000000000000000081526004016116e79061208f565b60405180910390fd5b809150505b92915050565b600080821161173f576040517f08c379a00000000000000000000000000000000000000000000000000000000081526004016117369061202f565b60405180910390fd5b6000828461174d9190612210565b90508091505092915050565b600080828461176891906121ba565b9050838110156117ad576040517f08c379a00000000000000000000000000000000000000000000000000000000081526004016117a490611fcf565b60405180910390fd5b8091505092915050565b6118388363a9059cbb60e01b84846040516024016117d6929190611f6b565b604051602081830303815290604052907bffffffffffffffffffffffffffffffffffffffffffffffffffffffff19166020820180517bffffffffffffffffffffffffffffffffffffffffffffffffffffffff83818316178352505050506118df565b505050565b600081831061184c578161184e565b825b905092915050565b6118d9846323b872dd60e01b85858560405160240161187793929190611ec5565b604051602081830303815290604052907bffffffffffffffffffffffffffffffffffffffffffffffffffffffff19166020820180517bffffffffffffffffffffffffffffffffffffffffffffffffffffffff83818316178352505050506118df565b50505050565b6118fe8273ffffffffffffffffffffffffffffffffffffffff16611a50565b61193d576040517f08c379a00000000000000000000000000000000000000000000000000000000081526004016119349061212f565b60405180910390fd5b6000808373ffffffffffffffffffffffffffffffffffffffff16836040516119659190611e93565b6000604051808303816000865af19150503d80600081146119a2576040519150601f19603f3d011682016040523d82523d6000602084013e6119a7565b606091505b5091509150816119ec576040517f08c379a00000000000000000000000000000000000000000000000000000000081526004016119e390611fef565b60405180910390fd5b600081511115611a4a5780806020019051810190611a0a9190611b0e565b611a49576040517f08c379a0000000000000000000000000000000000000000000000000000000008152600401611a40906120ef565b60405180910390fd5b5b50505050565b600080823b905060008111915050919050565b600081359050611a7281612681565b92915050565b600081519050611a8781612698565b92915050565b600081359050611a9c816126af565b92915050565b600081359050611ab1816126c6565b92915050565b600081519050611ac6816126c6565b92915050565b600081359050611adb816126dd565b92915050565b600060208284031215611af757611af66123f5565b5b6000611b0584828501611a63565b91505092915050565b600060208284031215611b2457611b236123f5565b5b6000611b3284828501611a78565b91505092915050565b600060208284031215611b5157611b506123f5565b5b6000611b5f84828501611aa2565b91505092915050565b600060208284031215611b7e57611b7d6123f5565b5b6000611b8c84828501611ab7565b91505092915050565b60008060408385031215611bac57611bab6123f5565b5b6000611bba85828601611aa2565b9250506020611bcb85828601611aa2565b9150509250929050565b600080600080600060a08688031215611bf157611bf06123f5565b5b6000611bff88828901611aa2565b9550506020611c1088828901611aa2565b9450506040611c2188828901611acc565b9350506060611c3288828901611a8d565b9250506080611c4388828901611a8d565b9150509295509295909350565b611c59816122cf565b82525050565b611c68816122ed565b82525050565b6000611c7982612193565b611c83818561219e565b9350611c93818560208601612364565b80840191505092915050565b611ca88161232e565b82525050565b6000611cbb600e836121a9565b9150611cc6826123fa565b602082019050919050565b6000611cde601b836121a9565b9150611ce982612423565b602082019050919050565b6000611d016020836121a9565b9150611d0c8261244c565b602082019050919050565b6000611d24601e836121a9565b9150611d2f82612475565b602082019050919050565b6000611d47601a836121a9565b9150611d528261249e565b602082019050919050565b6000611d6a601d836121a9565b9150611d75826124c7565b602082019050919050565b6000611d8d6011836121a9565b9150611d98826124f0565b602082019050919050565b6000611db06021836121a9565b9150611dbb82612519565b604082019050919050565b6000611dd36018836121a9565b9150611dde82612568565b602082019050919050565b6000611df6602a836121a9565b9150611e0182612591565b604082019050919050565b6000611e19602a836121a9565b9150611e24826125e0565b604082019050919050565b6000611e3c601f836121a9565b9150611e478261262f565b602082019050919050565b6000611e5f601f836121a9565b9150611e6a82612658565b602082019050919050565b611e7e81612317565b82525050565b611e8d81612321565b82525050565b6000611e9f8284611c6e565b915081905092915050565b6000602082019050611ebf6000830184611c50565b92915050565b6000606082019050611eda6000830186611c50565b611ee76020830185611c50565b611ef46040830184611e75565b949350505050565b600060e082019050611f11600083018a611c50565b611f1e6020830189611c50565b611f2b6040830188611e75565b611f386060830187611e75565b611f456080830186611e84565b611f5260a0830185611c5f565b611f5f60c0830184611c5f565b98975050505050505050565b6000604082019050611f806000830185611c50565b611f8d6020830184611e75565b9392505050565b6000602082019050611fa96000830184611c9f565b92915050565b60006020820190508181036000830152611fc881611cae565b9050919050565b60006020820190508181036000830152611fe881611cd1565b9050919050565b6000602082019050818103600083015261200881611cf4565b9050919050565b6000602082019050818103600083015261202881611d17565b9050919050565b6000602082019050818103600083015261204881611d3a565b9050919050565b6000602082019050818103600083015261206881611d5d565b9050919050565b6000602082019050818103600083015261208881611d80565b9050919050565b600060208201905081810360008301526120a881611da3565b9050919050565b600060208201905081810360008301526120c881611dc6565b9050919050565b600060208201905081810360008301526120e881611de9565b9050919050565b6000602082019050818103600083015261210881611e0c565b9050919050565b6000602082019050818103600083015261212881611e2f565b9050919050565b6000602082019050818103600083015261214881611e52565b9050919050565b60006020820190506121646000830184611e75565b92915050565b600060408201905061217f6000830185611e75565b61218c6020830184611e75565b9392505050565b600081519050919050565b600081905092915050565b600082825260208201905092915050565b60006121c582612317565b91506121d083612317565b9250827fffffffffffffffffffffffffffffffffffffffffffffffffffffffffffffffff0382111561220557612204612397565b5b828201905092915050565b600061221b82612317565b915061222683612317565b925082612236576122356123c6565b5b828204905092915050565b600061224c82612317565b915061225783612317565b9250817fffffffffffffffffffffffffffffffffffffffffffffffffffffffffffffffff04831182151516156122905761228f612397565b5b828202905092915050565b60006122a682612317565b91506122b183612317565b9250828210156122c4576122c3612397565b5b828203905092915050565b60006122da826122f7565b9050919050565b60008115159050919050565b6000819050919050565b600073ffffffffffffffffffffffffffffffffffffffff82169050919050565b6000819050919050565b600060ff82169050919050565b600061233982612340565b9050919050565b600061234b82612352565b9050919050565b600061235d826122f7565b9050919050565b60005b83811015612382578082015181840152602081019050612367565b83811115612391576000848401525b50505050565b7f4e487b7100000000000000000000000000000000000000000000000000000000600052601160045260246000fd5b7f4e487b7100000000000000000000000000000000000000000000000000000000600052601260045260246000fd5b600080fd5b7f43616e6e6f74207374616b652030000000000000000000000000000000000000600082015250565b7f536166654d6174683a206164646974696f6e206f766572666c6f770000000000600082015250565b7f5361666545524332303a206c6f772d6c6576656c2063616c6c206661696c6564600082015250565b7f536166654d6174683a207375627472616374696f6e206f766572666c6f770000600082015250565b7f536166654d6174683a206469766973696f6e206279207a65726f000000000000600082015250565b7f43616e6e6f7420726564756365206578697374696e6720706572696f64000000600082015250565b7f43616e6e6f742077697468647261772030000000000000000000000000000000600082015250565b7f536166654d6174683a206d756c7469706c69636174696f6e206f766572666c6f60008201527f7700000000000000000000000000000000000000000000000000000000000000602082015250565b7f50726f76696465642072657761726420746f6f20686967680000000000000000600082015250565b7f43616c6c6572206973206e6f742052657761726473446973747269627574696f60008201527f6e20636f6e747261637400000000000000000000000000000000000000000000602082015250565b7f5361666545524332303a204552433230206f7065726174696f6e20646964206e60008201527f6f74207375636365656400000000000000000000000000000000000000000000602082015250565b7f5265656e7472616e637947756172643a207265656e7472616e742063616c6c00600082015250565b7f5361666545524332303a2063616c6c20746f206e6f6e2d636f6e747261637400600082015250565b61268a816122cf565b811461269557600080fd5b50565b6126a1816122e1565b81146126ac57600080fd5b50565b6126b8816122ed565b81146126c357600080fd5b50565b6126cf81612317565b81146126da57600080fd5b50565b6126e681612321565b81146126f157600080fd5b5056fea2646970667358221220692afbdf8662e191e73bcc9854129e2815191728c38c65e28df1335744bab24f64736f6c63430008070033",
  "immutableReferences": {},
  "source": "/**\n *Submitted for verification at Etherscan.io on 2020-09-16\n*/\n\n// SPDX-License-Identifier: MIT\npragma solidity ^0.8.0;\n\nimport \"./libraries/Math.sol\";\nimport \"./libraries/SafeMath.sol\";\nimport \"./interfaces/IERC20.sol\";\nimport \"./interfaces/IStakingRewards.sol\";\nimport \"./libraries/RewardsDistributionRecipient.sol\";\nimport \"./libraries/ReentryGuard.sol\";\nimport \"./libraries/SafeERC20.sol\";\n\n\ncontract StakingRewards is IStakingRewards, RewardsDistributionRecipient, ReentrancyGuard {\n    using SafeMath for uint256;\n    using SafeERC20 for IERC20;\n\n    /* ========== STATE VARIABLES ========== */\n\n    IERC20 public rewardsToken;\n    IERC20 public stakingToken;\n    uint256 public periodFinish = 0;\n    uint256 public rewardRate = 0;\n    uint256 public lastUpdateTime;\n    uint256 public rewardPerTokenStored;\n\n    mapping(address => uint256) public userRewardPerTokenPaid;\n    mapping(address => uint256) public rewards;\n\n    uint256 private _totalSupply;\n    mapping(address => uint256) private _balances;\n\n    /* ========== CONSTRUCTOR ========== */\n\n    constructor(\n        address _rewardsToken,\n        address _stakingToken\n    ) {\n        rewardsToken = IERC20(_rewardsToken);\n        stakingToken = IERC20(_stakingToken);\n    }\n\n    /* ========== VIEWS ========== */\n\n    function totalSupply() external view override returns (uint256) {\n        return _totalSupply;\n    }\n\n    function balanceOf(address account) external view override returns (uint256) {\n        return _balances[account];\n    }\n\n    function lastTimeRewardApplicable() public view override returns (uint256) {\n        return Math.min(block.timestamp, periodFinish);\n    }\n\n    function rewardPerToken() public view override returns (uint256) {\n        if (_totalSupply == 0) {\n            return rewardPerTokenStored;\n        }\n        return\n            rewardPerTokenStored.add(\n                lastTimeRewardApplicable().sub(lastUpdateTime).mul(rewardRate).mul(1e18).div(_totalSupply)\n            );\n    }\n\n    function earned(address account) public view override returns (uint256) {\n        return _balances[account].mul(rewardPerToken().sub(userRewardPerTokenPaid[account])).div(1e18).add(rewards[account]);\n    }\n\n    /* ========== MUTATIVE FUNCTIONS ========== */\n\n    function stakeWithPermit(uint256 amount, uint deadline, uint8 v, bytes32 r, bytes32 s) external nonReentrant updateReward(msg.sender) {\n        require(amount > 0, \"Cannot stake 0\");\n        _totalSupply = _totalSupply.add(amount);\n        _balances[msg.sender] = _balances[msg.sender].add(amount);\n\n        // permit\n        IUniswapV2ERC20(address(stakingToken)).permit(msg.sender, address(this), amount, deadline, v, r, s);\n\n        stakingToken.safeTransferFrom(msg.sender, address(this), amount);\n        emit Staked(msg.sender, amount);\n    }\n\n    function stake(uint256 amount) external override nonReentrant updateReward(msg.sender) {\n        require(amount > 0, \"Cannot stake 0\");\n        _totalSupply = _totalSupply.add(amount);\n        _balances[msg.sender] = _balances[msg.sender].add(amount);\n        stakingToken.safeTransferFrom(msg.sender, address(this), amount);\n        emit Staked(msg.sender, amount);\n    }\n\n    function withdraw(uint256 amount) public override nonReentrant updateReward(msg.sender) {\n        require(amount > 0, \"Cannot withdraw 0\");\n        _totalSupply = _totalSupply.sub(amount);\n        _balances[msg.sender] = _balances[msg.sender].sub(amount);\n        stakingToken.safeTransfer(msg.sender, amount);\n        emit Withdrawn(msg.sender, amount);\n    }\n\n    function getReward() public override nonReentrant updateReward(msg.sender) {\n        uint256 reward = rewards[msg.sender];\n        if (reward > 0) {\n            rewards[msg.sender] = 0;\n            rewardsToken.safeTransfer(msg.sender, reward);\n            emit RewardPaid(msg.sender, reward);\n        }\n    }\n\n    function exit() external override {\n        withdraw(_balances[msg.sender]);\n        getReward();\n    }\n\n    /* ========== RESTRICTED FUNCTIONS ========== */\n\n    function notifyRewardAmount(uint256 reward, uint256 rewardsDuration) external override onlyRewardsDistribution updateReward(address(0)) {\n        require(block.timestamp.add(rewardsDuration) >= periodFinish, \"Cannot reduce existing period\");\n\n        if (block.timestamp >= periodFinish) {\n            rewardRate = reward.div(rewardsDuration);\n        } else {\n            uint256 remaining = periodFinish.sub(block.timestamp);\n            uint256 leftover = remaining.mul(rewardRate);\n            rewardRate = reward.add(leftover).div(rewardsDuration);\n        }\n\n        // Ensure the provided reward amount is not more than the balance in the contract.\n        // This keeps the reward rate in the right range, preventing overflows due to\n        // very high values of rewardRate in the earned and rewardsPerToken functions;\n        // Reward + leftover must be less than 2^256 / 10^18 to avoid overflow.\n        uint balance = rewardsToken.balanceOf(address(this));\n        require(rewardRate <= balance.div(rewardsDuration), \"Provided reward too high\");\n\n        lastUpdateTime = block.timestamp;\n        periodFinish = block.timestamp.add(rewardsDuration);\n        emit RewardAdded(reward, periodFinish);\n    }\n\n    /* ========== MODIFIERS ========== */\n\n    modifier updateReward(address account) {\n        rewardPerTokenStored = rewardPerToken();\n        lastUpdateTime = lastTimeRewardApplicable();\n        if (account != address(0)) {\n            rewards[account] = earned(account);\n            userRewardPerTokenPaid[account] = rewardPerTokenStored;\n        }\n        _;\n    }\n\n    /* ========== EVENTS ========== */\n\n    event RewardAdded(uint256 reward, uint256 periodFinish);\n    event Staked(address indexed user, uint256 amount);\n    event Withdrawn(address indexed user, uint256 amount);\n    event RewardPaid(address indexed user, uint256 reward);\n}\n\ninterface IUniswapV2ERC20 {\n    function permit(address owner, address spender, uint value, uint deadline, uint8 v, bytes32 r, bytes32 s) external;\n}",
  "sourcePath": "/home/kamto/code/contracts/contracts/StakingRewards.sol",
  "compiler": {
    "name": "solc",
    "version": "0.8.7+commit.e28d00a7.Emscripten.clang"
  },
  "schemaVersion": "3.3.4",
  "updatedAt": "2021-08-17T22:44:39.169Z",
  "devdoc": {
    "kind": "dev",
    "methods": {},
    "version": 1
  },
  "userdoc": {
    "kind": "user",
    "methods": {},
    "version": 1
  }
}