{
  "contractName": "StakingRewards",
  "abi": [
    {
      "inputs": [
        {
          "internalType": "address",
          "name": "_owner",
          "type": "address"
        },
        {
          "internalType": "address",
          "name": "_rewardsDistribution",
          "type": "address"
        },
        {
          "internalType": "address",
          "name": "_rewardsToken",
          "type": "address"
        },
        {
          "internalType": "address",
          "name": "_stakingToken",
          "type": "address"
        }
      ],
      "stateMutability": "nonpayable",
      "type": "constructor"
    },
    {
      "anonymous": false,
      "inputs": [
        {
          "indexed": false,
          "internalType": "address",
          "name": "oldOwner",
          "type": "address"
        },
        {
          "indexed": false,
          "internalType": "address",
          "name": "newOwner",
          "type": "address"
        }
      ],
      "name": "OwnerChanged",
      "type": "event"
    },
    {
      "anonymous": false,
      "inputs": [
        {
          "indexed": false,
          "internalType": "address",
          "name": "newOwner",
          "type": "address"
        }
      ],
      "name": "OwnerNominated",
      "type": "event"
    },
    {
      "anonymous": false,
      "inputs": [
        {
          "indexed": false,
          "internalType": "address",
          "name": "token",
          "type": "address"
        },
        {
          "indexed": false,
          "internalType": "uint256",
          "name": "amount",
          "type": "uint256"
        }
      ],
      "name": "Recovered",
      "type": "event"
    },
    {
      "anonymous": false,
      "inputs": [
        {
          "indexed": false,
          "internalType": "uint256",
          "name": "reward",
          "type": "uint256"
        }
      ],
      "name": "RewardAdded",
      "type": "event"
    },
    {
      "anonymous": false,
      "inputs": [
        {
          "indexed": true,
          "internalType": "address",
          "name": "user",
          "type": "address"
        },
        {
          "indexed": false,
          "internalType": "uint256",
          "name": "reward",
          "type": "uint256"
        }
      ],
      "name": "RewardPaid",
      "type": "event"
    },
    {
      "anonymous": false,
      "inputs": [
        {
          "indexed": false,
          "internalType": "uint256",
          "name": "newDuration",
          "type": "uint256"
        }
      ],
      "name": "RewardsDurationUpdated",
      "type": "event"
    },
    {
      "anonymous": false,
      "inputs": [
        {
          "indexed": true,
          "internalType": "address",
          "name": "user",
          "type": "address"
        },
        {
          "indexed": false,
          "internalType": "uint256",
          "name": "amount",
          "type": "uint256"
        }
      ],
      "name": "Staked",
      "type": "event"
    },
    {
      "anonymous": false,
      "inputs": [
        {
          "indexed": true,
          "internalType": "address",
          "name": "user",
          "type": "address"
        },
        {
          "indexed": false,
          "internalType": "uint256",
          "name": "amount",
          "type": "uint256"
        }
      ],
      "name": "Withdrawn",
      "type": "event"
    },
    {
      "inputs": [],
      "name": "acceptOwnership",
      "outputs": [],
      "stateMutability": "nonpayable",
      "type": "function"
    },
    {
      "inputs": [],
      "name": "lastUpdateTime",
      "outputs": [
        {
          "internalType": "uint256",
          "name": "",
          "type": "uint256"
        }
      ],
      "stateMutability": "view",
      "type": "function",
      "constant": true
    },
    {
      "inputs": [
        {
          "internalType": "address",
          "name": "_owner",
          "type": "address"
        }
      ],
      "name": "nominateNewOwner",
      "outputs": [],
      "stateMutability": "nonpayable",
      "type": "function"
    },
    {
      "inputs": [],
      "name": "nominatedOwner",
      "outputs": [
        {
          "internalType": "address",
          "name": "",
          "type": "address"
        }
      ],
      "stateMutability": "view",
      "type": "function",
      "constant": true
    },
    {
      "inputs": [],
      "name": "owner",
      "outputs": [
        {
          "internalType": "address",
          "name": "",
          "type": "address"
        }
      ],
      "stateMutability": "view",
      "type": "function",
      "constant": true
    },
    {
      "inputs": [],
      "name": "periodFinish",
      "outputs": [
        {
          "internalType": "uint256",
          "name": "",
          "type": "uint256"
        }
      ],
      "stateMutability": "view",
      "type": "function",
      "constant": true
    },
    {
      "inputs": [],
      "name": "rewardPerTokenStored",
      "outputs": [
        {
          "internalType": "uint256",
          "name": "",
          "type": "uint256"
        }
      ],
      "stateMutability": "view",
      "type": "function",
      "constant": true
    },
    {
      "inputs": [],
      "name": "rewardRate",
      "outputs": [
        {
          "internalType": "uint256",
          "name": "",
          "type": "uint256"
        }
      ],
      "stateMutability": "view",
      "type": "function",
      "constant": true
    },
    {
      "inputs": [
        {
          "internalType": "address",
          "name": "",
          "type": "address"
        }
      ],
      "name": "rewards",
      "outputs": [
        {
          "internalType": "uint256",
          "name": "",
          "type": "uint256"
        }
      ],
      "stateMutability": "view",
      "type": "function",
      "constant": true
    },
    {
      "inputs": [],
      "name": "rewardsDistribution",
      "outputs": [
        {
          "internalType": "address",
          "name": "",
          "type": "address"
        }
      ],
      "stateMutability": "view",
      "type": "function",
      "constant": true
    },
    {
      "inputs": [],
      "name": "rewardsDuration",
      "outputs": [
        {
          "internalType": "uint256",
          "name": "",
          "type": "uint256"
        }
      ],
      "stateMutability": "view",
      "type": "function",
      "constant": true
    },
    {
      "inputs": [],
      "name": "rewardsToken",
      "outputs": [
        {
          "internalType": "contract IERC20",
          "name": "",
          "type": "address"
        }
      ],
      "stateMutability": "view",
      "type": "function",
      "constant": true
    },
    {
      "inputs": [],
      "name": "stakingToken",
      "outputs": [
        {
          "internalType": "contract IERC20",
          "name": "",
          "type": "address"
        }
      ],
      "stateMutability": "view",
      "type": "function",
      "constant": true
    },
    {
      "inputs": [
        {
          "internalType": "address",
          "name": "",
          "type": "address"
        }
      ],
      "name": "userRewardPerTokenPaid",
      "outputs": [
        {
          "internalType": "uint256",
          "name": "",
          "type": "uint256"
        }
      ],
      "stateMutability": "view",
      "type": "function",
      "constant": true
    },
    {
      "inputs": [],
      "name": "totalSupply",
      "outputs": [
        {
          "internalType": "uint256",
          "name": "",
          "type": "uint256"
        }
      ],
      "stateMutability": "view",
      "type": "function",
      "constant": true
    },
    {
      "inputs": [
        {
          "internalType": "address",
          "name": "account",
          "type": "address"
        }
      ],
      "name": "balanceOf",
      "outputs": [
        {
          "internalType": "uint256",
          "name": "",
          "type": "uint256"
        }
      ],
      "stateMutability": "view",
      "type": "function",
      "constant": true
    },
    {
      "inputs": [],
      "name": "lastTimeRewardApplicable",
      "outputs": [
        {
          "internalType": "uint256",
          "name": "",
          "type": "uint256"
        }
      ],
      "stateMutability": "view",
      "type": "function",
      "constant": true
    },
    {
      "inputs": [],
      "name": "rewardPerToken",
      "outputs": [
        {
          "internalType": "uint256",
          "name": "",
          "type": "uint256"
        }
      ],
      "stateMutability": "view",
      "type": "function",
      "constant": true
    },
    {
      "inputs": [
        {
          "internalType": "address",
          "name": "account",
          "type": "address"
        }
      ],
      "name": "earned",
      "outputs": [
        {
          "internalType": "uint256",
          "name": "",
          "type": "uint256"
        }
      ],
      "stateMutability": "view",
      "type": "function",
      "constant": true
    },
    {
      "inputs": [],
      "name": "getRewardForDuration",
      "outputs": [
        {
          "internalType": "uint256",
          "name": "",
          "type": "uint256"
        }
      ],
      "stateMutability": "view",
      "type": "function",
      "constant": true
    },
    {
      "inputs": [
        {
          "internalType": "uint256",
          "name": "amount",
          "type": "uint256"
        }
      ],
      "name": "stake",
      "outputs": [],
      "stateMutability": "nonpayable",
      "type": "function"
    },
    {
      "inputs": [
        {
          "internalType": "uint256",
          "name": "amount",
          "type": "uint256"
        }
      ],
      "name": "withdraw",
      "outputs": [],
      "stateMutability": "nonpayable",
      "type": "function"
    },
    {
      "inputs": [],
      "name": "getReward",
      "outputs": [],
      "stateMutability": "nonpayable",
      "type": "function"
    },
    {
      "inputs": [],
      "name": "exit",
      "outputs": [],
      "stateMutability": "nonpayable",
      "type": "function"
    },
    {
      "inputs": [
        {
          "internalType": "uint256",
          "name": "reward",
          "type": "uint256"
        },
        {
          "internalType": "uint256",
          "name": "duration",
          "type": "uint256"
        }
      ],
      "name": "notifyRewardAmount",
      "outputs": [],
      "stateMutability": "nonpayable",
      "type": "function"
    },
    {
      "inputs": [
        {
          "internalType": "uint256",
          "name": "timestamp",
          "type": "uint256"
        }
      ],
      "name": "updatePeriodFinish",
      "outputs": [],
      "stateMutability": "nonpayable",
      "type": "function"
    },
    {
      "inputs": [
        {
          "internalType": "address",
          "name": "tokenAddress",
          "type": "address"
        },
        {
          "internalType": "uint256",
          "name": "tokenAmount",
          "type": "uint256"
        }
      ],
      "name": "recoverERC20",
      "outputs": [],
      "stateMutability": "nonpayable",
      "type": "function"
    },
    {
      "inputs": [
        {
          "internalType": "uint256",
          "name": "_rewardsDuration",
          "type": "uint256"
        }
      ],
      "name": "setRewardsDuration",
      "outputs": [],
      "stateMutability": "nonpayable",
      "type": "function"
    }
  ],
  "bytecode": "0x608060405260006006556000600755620d2f006008553480156200002257600080fd5b50604051620030d4380380620030d4833981810160405281019062000048919062000224565b8360018081905550600073ffffffffffffffffffffffffffffffffffffffff168173ffffffffffffffffffffffffffffffffffffffff161415620000c3576040517f08c379a0000000000000000000000000000000000000000000000000000000008152600401620000ba90620002fb565b60405180910390fd5b80600260006101000a81548173ffffffffffffffffffffffffffffffffffffffff021916908373ffffffffffffffffffffffffffffffffffffffff1602179055507fb532073b38c83145e3e5135377a08bf9aab55bc0fd7c1179cd4fb995d2a5159c60008260405162000138929190620002ce565b60405180910390a15081600460006101000a81548173ffffffffffffffffffffffffffffffffffffffff021916908373ffffffffffffffffffffffffffffffffffffffff16021790555080600560006101000a81548173ffffffffffffffffffffffffffffffffffffffff021916908373ffffffffffffffffffffffffffffffffffffffff160217905550826000806101000a81548173ffffffffffffffffffffffffffffffffffffffff021916908373ffffffffffffffffffffffffffffffffffffffff16021790555050505050620003aa565b6000815190506200021e8162000390565b92915050565b6000806000806080858703121562000241576200024062000362565b5b600062000251878288016200020d565b945050602062000264878288016200020d565b935050604062000277878288016200020d565b92505060606200028a878288016200020d565b91505092959194509250565b620002a1816200032e565b82525050565b6000620002b66019836200031d565b9150620002c38262000367565b602082019050919050565b6000604082019050620002e5600083018562000296565b620002f4602083018462000296565b9392505050565b600060208201905081810360008301526200031681620002a7565b9050919050565b600082825260208201905092915050565b60006200033b8262000342565b9050919050565b600073ffffffffffffffffffffffffffffffffffffffff82169050919050565b600080fd5b7f4f776e657220616464726573732063616e6e6f74206265203000000000000000600082015250565b6200039b816200032e565b8114620003a757600080fd5b50565b612d1a80620003ba6000396000f3fe608060405234801561001057600080fd5b50600436106101c35760003560e01c806379ba5097116100f9578063c8f33c9111610097578063d1af0c7d11610071578063d1af0c7d146104aa578063df136d65146104c8578063e9fad8ee146104e6578063ebe2b12b146104f0576101c3565b8063c8f33c9114610452578063cc1a378f14610470578063cd3daf9d1461048c576101c3565b80638980f11f116100d35780638980f11f146103cc5780638b876347146103e85780638da5cb5b14610418578063a694fc3a14610436576101c3565b806379ba5097146103865780637b0a47ee1461039057806380faa57d146103ae576101c3565b8063386a95251161016657806353a47bb71161014057806353a47bb7146102fe578063556f6e6b1461031c57806370a082311461033857806372f702f314610368576101c3565b8063386a9525146102b85780633d18b912146102d65780633fc6df6e146102e0576101c3565b806318160ddd116101a257806318160ddd146102445780631c1f78eb14610262578063246132f9146102805780632e1a7d4d1461029c576101c3565b80628cc262146101c85780630700037d146101f85780631627540c14610228575b600080fd5b6101e260048036038101906101dd9190611fdc565b61050e565b6040516101ef9190612674565b60405180910390f35b610212600480360381019061020d9190611fdc565b61062c565b60405161021f9190612674565b60405180910390f35b610242600480360381019061023d9190611fdc565b610644565b005b61024c6106c7565b6040516102599190612674565b60405180910390f35b61026a6106d1565b6040516102779190612674565b60405180910390f35b61029a600480360381019061029591906120d0565b6106ef565b005b6102b660048036038101906102b19190612076565b610a58565b005b6102c0610e46565b6040516102cd9190612674565b60405180910390f35b6102de610e4c565b005b6102e86110c7565b6040516102f591906123b5565b60405180910390f35b6103066110eb565b60405161031391906123b5565b60405180910390f35b61033660048036038101906103319190612076565b611111565b005b610352600480360381019061034d9190611fdc565b611209565b60405161035f9190612674565b60405180910390f35b610370611252565b60405161037d9190612459565b60405180910390f35b61038e611278565b005b61039861142c565b6040516103a59190612674565b60405180910390f35b6103b6611432565b6040516103c39190612674565b60405180910390f35b6103e660048036038101906103e19190612009565b611445565b005b61040260048036038101906103fd9190611fdc565b611568565b60405161040f9190612674565b60405180910390f35b610420611580565b60405161042d91906123b5565b60405180910390f35b610450600480360381019061044b9190612076565b6115a6565b005b61045a611996565b6040516104679190612674565b60405180910390f35b61048a60048036038101906104859190612076565b61199c565b005b610494611a2b565b6040516104a19190612674565b60405180910390f35b6104b2611ab9565b6040516104bf9190612459565b60405180910390f35b6104d0611adf565b6040516104dd9190612674565b60405180910390f35b6104ee611ae5565b005b6104f8611b37565b6040516105059190612674565b60405180910390f35b6000610625600c60008473ffffffffffffffffffffffffffffffffffffffff1673ffffffffffffffffffffffffffffffffffffffff16815260200190815260200160002054610617670de0b6b3a76400006106096105bb600b60008973ffffffffffffffffffffffffffffffffffffffff1673ffffffffffffffffffffffffffffffffffffffff168152602001908152602001600020546105ad611a2b565b611b3d90919063ffffffff16565b600e60008973ffffffffffffffffffffffffffffffffffffffff1673ffffffffffffffffffffffffffffffffffffffff16815260200190815260200160002054611b9c90919063ffffffff16565b611c1790919063ffffffff16565b611c7590919063ffffffff16565b9050919050565b600c6020528060005260406000206000915090505481565b61064c611cd3565b80600360006101000a81548173ffffffffffffffffffffffffffffffffffffffff021916908373ffffffffffffffffffffffffffffffffffffffff1602179055507f906a1c6bd7e3091ea86693dd029a831c19049ce77f1dce2ce0bab1cacbabce22816040516106bc91906123b5565b60405180910390a150565b6000600d54905090565b60006106ea600854600754611b9c90919063ffffffff16565b905090565b60008054906101000a900473ffffffffffffffffffffffffffffffffffffffff1673ffffffffffffffffffffffffffffffffffffffff163373ffffffffffffffffffffffffffffffffffffffff161461077d576040517f08c379a0000000000000000000000000000000000000000000000000000000008152600401610774906125d4565b60405180910390fd5b6000610787611a2b565b600a81905550610795611432565b600981905550600073ffffffffffffffffffffffffffffffffffffffff168173ffffffffffffffffffffffffffffffffffffffff1614610862576107d88161050e565b600c60008373ffffffffffffffffffffffffffffffffffffffff1673ffffffffffffffffffffffffffffffffffffffff16815260200190815260200160002081905550600a54600b60008373ffffffffffffffffffffffffffffffffffffffff1673ffffffffffffffffffffffffffffffffffffffff168152602001908152602001600020819055505b60009150600654421061088f5761088460085484611c1790919063ffffffff16565b6007819055506108f1565b60006108a642600654611b3d90919063ffffffff16565b905060006108bf60075483611b9c90919063ffffffff16565b90506108e86008546108da8388611c7590919063ffffffff16565b611c1790919063ffffffff16565b60078190555050505b6000600460009054906101000a900473ffffffffffffffffffffffffffffffffffffffff1673ffffffffffffffffffffffffffffffffffffffff166370a08231306040518263ffffffff1660e01b815260040161094e91906123b5565b60206040518083038186803b15801561096657600080fd5b505afa15801561097a573d6000803e3d6000fd5b505050506040513d601f19601f8201168201806040525081019061099e91906120a3565b90506109b560085482611c1790919063ffffffff16565b60075411156109f9576040517f08c379a00000000000000000000000000000000000000000000000000000000081526004016109f0906125b4565b60405180910390fd5b42600981905550610a1560085442611c7590919063ffffffff16565b6006819055507fde88a922e0d3b88b24e9623efeb464919c6bf9f66857a65e2bfcf2ce87a9433d84604051610a4a9190612674565b60405180910390a150505050565b6001806000828254610a6a91906126b6565b925050819055506000600154905033610a81611a2b565b600a81905550610a8f611432565b600981905550600073ffffffffffffffffffffffffffffffffffffffff168173ffffffffffffffffffffffffffffffffffffffff1614610b5c57610ad28161050e565b600c60008373ffffffffffffffffffffffffffffffffffffffff1673ffffffffffffffffffffffffffffffffffffffff16815260200190815260200160002081905550600a54600b60008373ffffffffffffffffffffffffffffffffffffffff1673ffffffffffffffffffffffffffffffffffffffff168152602001908152602001600020819055505b60008311610b9f576040517f08c379a0000000000000000000000000000000000000000000000000000000008152600401610b9690612574565b60405180910390fd5b610bb483600d54611b3d90919063ffffffff16565b600d81905550610c0c83600e60003373ffffffffffffffffffffffffffffffffffffffff1673ffffffffffffffffffffffffffffffffffffffff16815260200190815260200160002054611b3d90919063ffffffff16565b600e60003373ffffffffffffffffffffffffffffffffffffffff1673ffffffffffffffffffffffffffffffffffffffff16815260200190815260200160002081905550600560009054906101000a900473ffffffffffffffffffffffffffffffffffffffff1673ffffffffffffffffffffffffffffffffffffffff1663095ea7b333856040518363ffffffff1660e01b8152600401610cac929190612430565b602060405180830381600087803b158015610cc657600080fd5b505af1158015610cda573d6000803e3d6000fd5b505050506040513d601f19601f82011682018060405250810190610cfe9190612049565b50600560009054906101000a900473ffffffffffffffffffffffffffffffffffffffff1673ffffffffffffffffffffffffffffffffffffffff1663a9059cbb33856040518363ffffffff1660e01b8152600401610d5c929190612430565b602060405180830381600087803b158015610d7657600080fd5b505af1158015610d8a573d6000803e3d6000fd5b505050506040513d601f19601f82011682018060405250810190610dae9190612049565b503373ffffffffffffffffffffffffffffffffffffffff167f7084f5476618d8e60b11ef0d7d3f06914655adb8793e28ff7f018d4c76d505d584604051610df59190612674565b60405180910390a2506001548114610e42576040517f08c379a0000000000000000000000000000000000000000000000000000000008152600401610e3990612614565b60405180910390fd5b5050565b60085481565b6001806000828254610e5e91906126b6565b925050819055506000600154905033610e75611a2b565b600a81905550610e83611432565b600981905550600073ffffffffffffffffffffffffffffffffffffffff168173ffffffffffffffffffffffffffffffffffffffff1614610f5057610ec68161050e565b600c60008373ffffffffffffffffffffffffffffffffffffffff1673ffffffffffffffffffffffffffffffffffffffff16815260200190815260200160002081905550600a54600b60008373ffffffffffffffffffffffffffffffffffffffff1673ffffffffffffffffffffffffffffffffffffffff168152602001908152602001600020819055505b6000600c60003373ffffffffffffffffffffffffffffffffffffffff1673ffffffffffffffffffffffffffffffffffffffff168152602001908152602001600020549050600081111561107e576000600c60003373ffffffffffffffffffffffffffffffffffffffff1673ffffffffffffffffffffffffffffffffffffffff1681526020019081526020016000208190555061102f3382600460009054906101000a900473ffffffffffffffffffffffffffffffffffffffff1673ffffffffffffffffffffffffffffffffffffffff16611d659092919063ffffffff16565b3373ffffffffffffffffffffffffffffffffffffffff167fe2403640ba68fed3a2f88b7557551d1993f84b99bb10ff833f0cf8db0c5e0486826040516110759190612674565b60405180910390a25b505060015481146110c4576040517f08c379a00000000000000000000000000000000000000000000000000000000081526004016110bb90612614565b60405180910390fd5b50565b60008054906101000a900473ffffffffffffffffffffffffffffffffffffffff1681565b600360009054906101000a900473ffffffffffffffffffffffffffffffffffffffff1681565b611119611cd3565b6000611123611a2b565b600a81905550611131611432565b600981905550600073ffffffffffffffffffffffffffffffffffffffff168173ffffffffffffffffffffffffffffffffffffffff16146111fe576111748161050e565b600c60008373ffffffffffffffffffffffffffffffffffffffff1673ffffffffffffffffffffffffffffffffffffffff16815260200190815260200160002081905550600a54600b60008373ffffffffffffffffffffffffffffffffffffffff1673ffffffffffffffffffffffffffffffffffffffff168152602001908152602001600020819055505b816006819055505050565b6000600e60008373ffffffffffffffffffffffffffffffffffffffff1673ffffffffffffffffffffffffffffffffffffffff168152602001908152602001600020549050919050565b600560009054906101000a900473ffffffffffffffffffffffffffffffffffffffff1681565b600360009054906101000a900473ffffffffffffffffffffffffffffffffffffffff1673ffffffffffffffffffffffffffffffffffffffff163373ffffffffffffffffffffffffffffffffffffffff1614611308576040517f08c379a00000000000000000000000000000000000000000000000000000000081526004016112ff90612494565b60405180910390fd5b7fb532073b38c83145e3e5135377a08bf9aab55bc0fd7c1179cd4fb995d2a5159c600260009054906101000a900473ffffffffffffffffffffffffffffffffffffffff16600360009054906101000a900473ffffffffffffffffffffffffffffffffffffffff1660405161137d9291906123d0565b60405180910390a1600360009054906101000a900473ffffffffffffffffffffffffffffffffffffffff16600260006101000a81548173ffffffffffffffffffffffffffffffffffffffff021916908373ffffffffffffffffffffffffffffffffffffffff1602179055506000600360006101000a81548173ffffffffffffffffffffffffffffffffffffffff021916908373ffffffffffffffffffffffffffffffffffffffff160217905550565b60075481565b600061144042600654611deb565b905090565b61144d611cd3565b600560009054906101000a900473ffffffffffffffffffffffffffffffffffffffff1673ffffffffffffffffffffffffffffffffffffffff168273ffffffffffffffffffffffffffffffffffffffff1614156114de576040517f08c379a00000000000000000000000000000000000000000000000000000000081526004016114d590612634565b60405180910390fd5b61152b600260009054906101000a900473ffffffffffffffffffffffffffffffffffffffff16828473ffffffffffffffffffffffffffffffffffffffff16611d659092919063ffffffff16565b7f8c1256b8896378cd5044f80c202f9772b9d77dc85c8a6eb51967210b09bfaa28828260405161155c929190612430565b60405180910390a15050565b600b6020528060005260406000206000915090505481565b600260009054906101000a900473ffffffffffffffffffffffffffffffffffffffff1681565b60018060008282546115b891906126b6565b9250508190555060006001549050336115cf611a2b565b600a819055506115dd611432565b600981905550600073ffffffffffffffffffffffffffffffffffffffff168173ffffffffffffffffffffffffffffffffffffffff16146116aa576116208161050e565b600c60008373ffffffffffffffffffffffffffffffffffffffff1673ffffffffffffffffffffffffffffffffffffffff16815260200190815260200160002081905550600a54600b60008373ffffffffffffffffffffffffffffffffffffffff1673ffffffffffffffffffffffffffffffffffffffff168152602001908152602001600020819055505b600083116116ed576040517f08c379a00000000000000000000000000000000000000000000000000000000081526004016116e4906124b4565b60405180910390fd5b61170283600d54611c7590919063ffffffff16565b600d8190555061175a83600e60003373ffffffffffffffffffffffffffffffffffffffff1673ffffffffffffffffffffffffffffffffffffffff16815260200190815260200160002054611c7590919063ffffffff16565b600e60003373ffffffffffffffffffffffffffffffffffffffff1673ffffffffffffffffffffffffffffffffffffffff16815260200190815260200160002081905550600560009054906101000a900473ffffffffffffffffffffffffffffffffffffffff1673ffffffffffffffffffffffffffffffffffffffff1663095ea7b333856040518363ffffffff1660e01b81526004016117fa929190612430565b602060405180830381600087803b15801561181457600080fd5b505af1158015611828573d6000803e3d6000fd5b505050506040513d601f19601f8201168201806040525081019061184c9190612049565b50600560009054906101000a900473ffffffffffffffffffffffffffffffffffffffff1673ffffffffffffffffffffffffffffffffffffffff166323b872dd3330866040518463ffffffff1660e01b81526004016118ac939291906123f9565b602060405180830381600087803b1580156118c657600080fd5b505af11580156118da573d6000803e3d6000fd5b505050506040513d601f19601f820116820180604052508101906118fe9190612049565b503373ffffffffffffffffffffffffffffffffffffffff167f9e71bc8eea02a63969f509818f2dafb9254532904319f9dbda79b67bd34a5f3d846040516119459190612674565b60405180910390a2506001548114611992576040517f08c379a000000000000000000000000000000000000000000000000000000000815260040161198990612614565b60405180910390fd5b5050565b60095481565b6119a4611cd3565b60065442116119e8576040517f08c379a00000000000000000000000000000000000000000000000000000000081526004016119df90612474565b60405180910390fd5b806008819055507ffb46ca5a5e06d4540d6387b930a7c978bce0db5f449ec6b3f5d07c6e1d44f2d3600854604051611a209190612674565b60405180910390a150565b600080600d541415611a4157600a549050611ab6565b611ab3611aa2600d54611a94670de0b6b3a7640000611a86600754611a78600954611a6a611432565b611b3d90919063ffffffff16565b611b9c90919063ffffffff16565b611b9c90919063ffffffff16565b611c1790919063ffffffff16565b600a54611c7590919063ffffffff16565b90505b90565b600460009054906101000a900473ffffffffffffffffffffffffffffffffffffffff1681565b600a5481565b611b2d600e60003373ffffffffffffffffffffffffffffffffffffffff1673ffffffffffffffffffffffffffffffffffffffff16815260200190815260200160002054610a58565b611b35610e4c565b565b60065481565b600082821115611b82576040517f08c379a0000000000000000000000000000000000000000000000000000000008152600401611b7990612514565b60405180910390fd5b60008284611b909190612797565b90508091505092915050565b600080831415611baf5760009050611c11565b60008284611bbd919061273d565b9050828482611bcc919061270c565b14611c0c576040517f08c379a0000000000000000000000000000000000000000000000000000000008152600401611c0390612594565b60405180910390fd5b809150505b92915050565b6000808211611c5b576040517f08c379a0000000000000000000000000000000000000000000000000000000008152600401611c5290612534565b60405180910390fd5b60008284611c69919061270c565b90508091505092915050565b6000808284611c8491906126b6565b905083811015611cc9576040517f08c379a0000000000000000000000000000000000000000000000000000000008152600401611cc0906124d4565b60405180910390fd5b8091505092915050565b600260009054906101000a900473ffffffffffffffffffffffffffffffffffffffff1673ffffffffffffffffffffffffffffffffffffffff163373ffffffffffffffffffffffffffffffffffffffff1614611d63576040517f08c379a0000000000000000000000000000000000000000000000000000000008152600401611d5a90612554565b60405180910390fd5b565b611de68363a9059cbb60e01b8484604051602401611d84929190612430565b604051602081830303815290604052907bffffffffffffffffffffffffffffffffffffffffffffffffffffffff19166020820180517bffffffffffffffffffffffffffffffffffffffffffffffffffffffff8381831617835250505050611e04565b505050565b6000818310611dfa5781611dfc565b825b905092915050565b611e238273ffffffffffffffffffffffffffffffffffffffff16611f75565b611e62576040517f08c379a0000000000000000000000000000000000000000000000000000000008152600401611e5990612654565b60405180910390fd5b6000808373ffffffffffffffffffffffffffffffffffffffff1683604051611e8a919061239e565b6000604051808303816000865af19150503d8060008114611ec7576040519150601f19603f3d011682016040523d82523d6000602084013e611ecc565b606091505b509150915081611f11576040517f08c379a0000000000000000000000000000000000000000000000000000000008152600401611f08906124f4565b60405180910390fd5b600081511115611f6f5780806020019051810190611f2f9190612049565b611f6e576040517f08c379a0000000000000000000000000000000000000000000000000000000008152600401611f65906125f4565b60405180910390fd5b5b50505050565b600080823b905060008111915050919050565b600081359050611f9781612c9f565b92915050565b600081519050611fac81612cb6565b92915050565b600081359050611fc181612ccd565b92915050565b600081519050611fd681612ccd565b92915050565b600060208284031215611ff257611ff16128da565b5b600061200084828501611f88565b91505092915050565b600080604083850312156120205761201f6128da565b5b600061202e85828601611f88565b925050602061203f85828601611fb2565b9150509250929050565b60006020828403121561205f5761205e6128da565b5b600061206d84828501611f9d565b91505092915050565b60006020828403121561208c5761208b6128da565b5b600061209a84828501611fb2565b91505092915050565b6000602082840312156120b9576120b86128da565b5b60006120c784828501611fc7565b91505092915050565b600080604083850312156120e7576120e66128da565b5b60006120f585828601611fb2565b925050602061210685828601611fb2565b9150509250929050565b612119816127cb565b82525050565b600061212a8261268f565b612134818561269a565b9350612144818560208601612849565b80840191505092915050565b61215981612813565b82525050565b600061216c6058836126a5565b9150612177826128df565b606082019050919050565b600061218f6035836126a5565b915061219a82612954565b604082019050919050565b60006121b2600e836126a5565b91506121bd826129a3565b602082019050919050565b60006121d5601b836126a5565b91506121e0826129cc565b602082019050919050565b60006121f86020836126a5565b9150612203826129f5565b602082019050919050565b600061221b601e836126a5565b915061222682612a1e565b602082019050919050565b600061223e601a836126a5565b915061224982612a47565b602082019050919050565b6000612261602f836126a5565b915061226c82612a70565b604082019050919050565b60006122846011836126a5565b915061228f82612abf565b602082019050919050565b60006122a76021836126a5565b91506122b282612ae8565b604082019050919050565b60006122ca6018836126a5565b91506122d582612b37565b602082019050919050565b60006122ed602a836126a5565b91506122f882612b60565b604082019050919050565b6000612310602a836126a5565b915061231b82612baf565b604082019050919050565b6000612333601f836126a5565b915061233e82612bfe565b602082019050919050565b60006123566021836126a5565b915061236182612c27565b604082019050919050565b6000612379601f836126a5565b915061238482612c76565b602082019050919050565b61239881612809565b82525050565b60006123aa828461211f565b915081905092915050565b60006020820190506123ca6000830184612110565b92915050565b60006040820190506123e56000830185612110565b6123f26020830184612110565b9392505050565b600060608201905061240e6000830186612110565b61241b6020830185612110565b612428604083018461238f565b949350505050565b60006040820190506124456000830185612110565b612452602083018461238f565b9392505050565b600060208201905061246e6000830184612150565b92915050565b6000602082019050818103600083015261248d8161215f565b9050919050565b600060208201905081810360008301526124ad81612182565b9050919050565b600060208201905081810360008301526124cd816121a5565b9050919050565b600060208201905081810360008301526124ed816121c8565b9050919050565b6000602082019050818103600083015261250d816121eb565b9050919050565b6000602082019050818103600083015261252d8161220e565b9050919050565b6000602082019050818103600083015261254d81612231565b9050919050565b6000602082019050818103600083015261256d81612254565b9050919050565b6000602082019050818103600083015261258d81612277565b9050919050565b600060208201905081810360008301526125ad8161229a565b9050919050565b600060208201905081810360008301526125cd816122bd565b9050919050565b600060208201905081810360008301526125ed816122e0565b9050919050565b6000602082019050818103600083015261260d81612303565b9050919050565b6000602082019050818103600083015261262d81612326565b9050919050565b6000602082019050818103600083015261264d81612349565b9050919050565b6000602082019050818103600083015261266d8161236c565b9050919050565b6000602082019050612689600083018461238f565b92915050565b600081519050919050565b600081905092915050565b600082825260208201905092915050565b60006126c182612809565b91506126cc83612809565b9250827fffffffffffffffffffffffffffffffffffffffffffffffffffffffffffffffff038211156127015761270061287c565b5b828201905092915050565b600061271782612809565b915061272283612809565b925082612732576127316128ab565b5b828204905092915050565b600061274882612809565b915061275383612809565b9250817fffffffffffffffffffffffffffffffffffffffffffffffffffffffffffffffff048311821515161561278c5761278b61287c565b5b828202905092915050565b60006127a282612809565b91506127ad83612809565b9250828210156127c0576127bf61287c565b5b828203905092915050565b60006127d6826127e9565b9050919050565b60008115159050919050565b600073ffffffffffffffffffffffffffffffffffffffff82169050919050565b6000819050919050565b600061281e82612825565b9050919050565b600061283082612837565b9050919050565b6000612842826127e9565b9050919050565b60005b8381101561286757808201518184015260208101905061284c565b83811115612876576000848401525b50505050565b7f4e487b7100000000000000000000000000000000000000000000000000000000600052601160045260246000fd5b7f4e487b7100000000000000000000000000000000000000000000000000000000600052601260045260246000fd5b600080fd5b7f50726576696f7573207265776172647320706572696f64206d7573742062652060008201527f636f6d706c657465206265666f7265206368616e67696e67207468652064757260208201527f6174696f6e20666f7220746865206e657720706572696f640000000000000000604082015250565b7f596f75206d757374206265206e6f6d696e61746564206265666f726520796f7560008201527f2063616e20616363657074206f776e6572736869700000000000000000000000602082015250565b7f43616e6e6f74207374616b652030000000000000000000000000000000000000600082015250565b7f536166654d6174683a206164646974696f6e206f766572666c6f770000000000600082015250565b7f5361666545524332303a206c6f772d6c6576656c2063616c6c206661696c6564600082015250565b7f536166654d6174683a207375627472616374696f6e206f766572666c6f770000600082015250565b7f536166654d6174683a206469766973696f6e206279207a65726f000000000000600082015250565b7f4f6e6c792074686520636f6e7472616374206f776e6572206d6179207065726660008201527f6f726d207468697320616374696f6e0000000000000000000000000000000000602082015250565b7f43616e6e6f742077697468647261772030000000000000000000000000000000600082015250565b7f536166654d6174683a206d756c7469706c69636174696f6e206f766572666c6f60008201527f7700000000000000000000000000000000000000000000000000000000000000602082015250565b7f50726f76696465642072657761726420746f6f20686967680000000000000000600082015250565b7f43616c6c6572206973206e6f742052657761726473446973747269627574696f60008201527f6e20636f6e747261637400000000000000000000000000000000000000000000602082015250565b7f5361666545524332303a204552433230206f7065726174696f6e20646964206e60008201527f6f74207375636365656400000000000000000000000000000000000000000000602082015250565b7f5265656e7472616e637947756172643a207265656e7472616e742063616c6c00600082015250565b7f43616e6e6f7420776974686472617720746865207374616b696e6720746f6b6560008201527f6e00000000000000000000000000000000000000000000000000000000000000602082015250565b7f5361666545524332303a2063616c6c20746f206e6f6e2d636f6e747261637400600082015250565b612ca8816127cb565b8114612cb357600080fd5b50565b612cbf816127dd565b8114612cca57600080fd5b50565b612cd681612809565b8114612ce157600080fd5b5056fea264697066735822122018e1d5bee38ca9f24b848e45b4504f8dcc6f72b912863b30dc72ac058803e08864736f6c63430008070033",
  "immutableReferences": {},
  "source": "/**\r\n *Submitted for verification at Etherscan.io on 2020-09-16\r\n*/\r\n\r\n// SPDX-License-Identifier: MIT\r\npragma solidity ^0.8.0;\r\n\r\nimport \"./libraries/Math.sol\";\r\nimport \"./libraries/SafeMath.sol\";\r\nimport \"./interfaces/IERC20.sol\";\r\nimport \"./interfaces/IStakingRewards.sol\";\r\nimport \"./libraries/RewardsDistributionRecipient.sol\";\r\nimport \"./libraries/ReentryGuard.sol\";\r\nimport \"./libraries/SafeERC20.sol\";\r\nimport \"./libraries/Owned.sol\";\r\n\r\ncontract StakingRewards is IStakingRewards, RewardsDistributionRecipient, ReentrancyGuard, Owned {\r\n    using SafeMath for uint256;\r\n    using SafeERC20 for IERC20;\r\n\r\n    /* ========== CONSTRUCTOR ========== */\r\n\r\n    constructor(\r\n        address _owner,\r\n        address _rewardsDistribution,\r\n        address _rewardsToken,\r\n        address _stakingToken\r\n    ) Owned(_owner) {\r\n        rewardsToken = IERC20(_rewardsToken);\r\n        stakingToken = IERC20(_stakingToken);\r\n        rewardsDistribution = _rewardsDistribution;\r\n    }\r\n\r\n    /* ========== STATE VARIABLES ========== */\r\n\r\n    IERC20 public rewardsToken;\r\n    IERC20 public stakingToken;\r\n    uint256 public periodFinish = 0;\r\n    uint256 public rewardRate = 0;\r\n    uint256 public rewardsDuration = 10 days;\r\n    uint256 public lastUpdateTime;\r\n    uint256 public rewardPerTokenStored;\r\n\r\n    mapping(address => uint256) public userRewardPerTokenPaid;\r\n    mapping(address => uint256) public rewards;\r\n\r\n    uint256 private _totalSupply;\r\n    mapping(address => uint256) private _balances;\r\n\r\n    /* ========== VIEWS ========== */\r\n\r\n    function totalSupply() external override view returns (uint256) {\r\n        return _totalSupply;\r\n    }\r\n\r\n    function balanceOf(address account) external override view returns (uint256) {\r\n        return _balances[account];\r\n    }\r\n\r\n    function lastTimeRewardApplicable() public override view returns (uint256) {\r\n        return Math.min(block.timestamp, periodFinish);\r\n    }\r\n\r\n    function rewardPerToken() public override view returns (uint256) {\r\n        if (_totalSupply == 0) {\r\n            return rewardPerTokenStored;\r\n        }\r\n        return\r\n            rewardPerTokenStored.add(\r\n                lastTimeRewardApplicable().sub(lastUpdateTime).mul(rewardRate).mul(1e18).div(_totalSupply)\r\n            );\r\n    }\r\n\r\n    function earned(address account) public override view returns (uint256) {\r\n        return _balances[account].mul(rewardPerToken().sub(userRewardPerTokenPaid[account])).div(1e18).add(rewards[account]);\r\n    }\r\n\r\n    function getRewardForDuration() external view returns (uint256) {\r\n        return rewardRate.mul(rewardsDuration);\r\n    }\r\n\r\n    /* ========== MUTATIVE FUNCTIONS ========== */\r\n\r\n    function stake(uint256 amount) external override nonReentrant updateReward(msg.sender) {\r\n        require(amount > 0, \"Cannot stake 0\");\r\n        _totalSupply = _totalSupply.add(amount);\r\n        _balances[msg.sender] = _balances[msg.sender].add(amount);\r\n        stakingToken.approve(msg.sender, amount);\r\n        stakingToken.transferFrom(msg.sender, address(this), amount);\r\n        emit Staked(msg.sender, amount);\r\n    }\r\n\r\n    function withdraw(uint256 amount) public override nonReentrant updateReward(msg.sender) {\r\n        require(amount > 0, \"Cannot withdraw 0\");\r\n        _totalSupply = _totalSupply.sub(amount);\r\n        _balances[msg.sender] = _balances[msg.sender].sub(amount);\r\n        stakingToken.approve(msg.sender, amount);\r\n        stakingToken.transfer(msg.sender, amount);\r\n        emit Withdrawn(msg.sender, amount);\r\n    }\r\n\r\n    function getReward() public override nonReentrant updateReward(msg.sender) {\r\n        uint256 reward = rewards[msg.sender];\r\n        if (reward > 0) {\r\n            rewards[msg.sender] = 0;\r\n            rewardsToken.safeTransfer(msg.sender, reward);\r\n            emit RewardPaid(msg.sender, reward);\r\n        }\r\n    }\r\n\r\n    function exit() external override {\r\n        withdraw(_balances[msg.sender]);\r\n        getReward();\r\n    }\r\n\r\n    /* ========== RESTRICTED FUNCTIONS ========== */\r\n\r\n    function notifyRewardAmount(uint256 reward, uint256 duration) override external onlyRewardsDistribution updateReward(address(0)) {\r\n        duration = 0;\r\n        if (block.timestamp >= periodFinish) {\r\n            rewardRate = reward.div(rewardsDuration);\r\n        } else {\r\n            uint256 remaining = periodFinish.sub(block.timestamp);\r\n            uint256 leftover = remaining.mul(rewardRate);\r\n            rewardRate = reward.add(leftover).div(rewardsDuration);\r\n        }\r\n\r\n        // Ensure the provided reward amount is not more than the balance in the contract.\r\n        // This keeps the reward rate in the right range, preventing overflows due to\r\n        // very high values of rewardRate in the earned and rewardsPerToken functions;\r\n        // Reward + leftover must be less than 2^256 / 10^18 to avoid overflow.\r\n        uint balance = rewardsToken.balanceOf(address(this));\r\n        require(rewardRate <= balance.div(rewardsDuration), \"Provided reward too high\");\r\n\r\n        lastUpdateTime = block.timestamp;\r\n        periodFinish = block.timestamp.add(rewardsDuration);\r\n        emit RewardAdded(reward);\r\n    }\r\n\r\n    // End rewards emission earlier\r\n    function updatePeriodFinish(uint timestamp) external onlyOwner updateReward(address(0)) {\r\n        periodFinish = timestamp;\r\n    }\r\n\r\n    // Added to support recovering LP Rewards from other systems such as BAL to be distributed to holders\r\n    function recoverERC20(address tokenAddress, uint256 tokenAmount) external onlyOwner {\r\n        require(tokenAddress != address(stakingToken), \"Cannot withdraw the staking token\");\r\n        IERC20(tokenAddress).safeTransfer(owner, tokenAmount);\r\n        emit Recovered(tokenAddress, tokenAmount);\r\n    }\r\n\r\n    function setRewardsDuration(uint256 _rewardsDuration) external onlyOwner {\r\n        require(\r\n            block.timestamp > periodFinish,\r\n            \"Previous rewards period must be complete before changing the duration for the new period\"\r\n        );\r\n        rewardsDuration = _rewardsDuration;\r\n        emit RewardsDurationUpdated(rewardsDuration);\r\n    }\r\n\r\n    /* ========== MODIFIERS ========== */\r\n\r\n    modifier updateReward(address account) {\r\n        rewardPerTokenStored = rewardPerToken();\r\n        lastUpdateTime = lastTimeRewardApplicable();\r\n        if (account != address(0)) {\r\n            rewards[account] = earned(account);\r\n            userRewardPerTokenPaid[account] = rewardPerTokenStored;\r\n        }\r\n        _;\r\n    }\r\n\r\n    /* ========== EVENTS ========== */\r\n\r\n    event RewardAdded(uint256 reward);\r\n    event Staked(address indexed user, uint256 amount);\r\n    event Withdrawn(address indexed user, uint256 amount);\r\n    event RewardPaid(address indexed user, uint256 reward);\r\n    event RewardsDurationUpdated(uint256 newDuration);\r\n    event Recovered(address token, uint256 amount);\r\n}",
  "sourcePath": "C:\\Users\\kamto\\code\\contracts\\contracts\\StakingRewards.sol",
  "compiler": {
    "name": "solc",
    "version": "0.8.7+commit.e28d00a7.Emscripten.clang"
  },
  "schemaVersion": "3.4.3",
  "updatedAt": "2021-09-09T07:03:39.855Z",
  "networkType": "ethereum",
  "devdoc": {
    "kind": "dev",
    "methods": {},
    "version": 1
  },
  "userdoc": {
    "kind": "user",
    "methods": {},
    "version": 1
  }
}