{
  "contractName": "BasicERC20",
  "abi": [
    {
      "inputs": [
        {
          "internalType": "uint256",
          "name": "_initialAmount",
          "type": "uint256"
        }
      ],
      "stateMutability": "nonpayable",
      "type": "constructor"
    },
    {
      "anonymous": false,
      "inputs": [
        {
          "indexed": true,
          "internalType": "address",
          "name": "owner",
          "type": "address"
        },
        {
          "indexed": true,
          "internalType": "address",
          "name": "spender",
          "type": "address"
        },
        {
          "indexed": false,
          "internalType": "uint256",
          "name": "value",
          "type": "uint256"
        }
      ],
      "name": "Approval",
      "type": "event"
    },
    {
      "anonymous": false,
      "inputs": [
        {
          "indexed": true,
          "internalType": "address",
          "name": "from",
          "type": "address"
        },
        {
          "indexed": true,
          "internalType": "address",
          "name": "to",
          "type": "address"
        },
        {
          "indexed": false,
          "internalType": "uint256",
          "name": "value",
          "type": "uint256"
        }
      ],
      "name": "Transfer",
      "type": "event"
    },
    {
      "inputs": [
        {
          "internalType": "address",
          "name": "",
          "type": "address"
        },
        {
          "internalType": "address",
          "name": "",
          "type": "address"
        }
      ],
      "name": "allowed",
      "outputs": [
        {
          "internalType": "uint256",
          "name": "",
          "type": "uint256"
        }
      ],
      "stateMutability": "view",
      "type": "function"
    },
    {
      "inputs": [
        {
          "internalType": "address",
          "name": "",
          "type": "address"
        }
      ],
      "name": "balances",
      "outputs": [
        {
          "internalType": "uint256",
          "name": "",
          "type": "uint256"
        }
      ],
      "stateMutability": "view",
      "type": "function"
    },
    {
      "inputs": [],
      "name": "totalSupply",
      "outputs": [
        {
          "internalType": "uint256",
          "name": "",
          "type": "uint256"
        }
      ],
      "stateMutability": "view",
      "type": "function"
    },
    {
      "inputs": [
        {
          "internalType": "address",
          "name": "_to",
          "type": "address"
        },
        {
          "internalType": "uint256",
          "name": "_value",
          "type": "uint256"
        }
      ],
      "name": "transfer",
      "outputs": [
        {
          "internalType": "bool",
          "name": "success",
          "type": "bool"
        }
      ],
      "stateMutability": "nonpayable",
      "type": "function"
    },
    {
      "inputs": [
        {
          "internalType": "address",
          "name": "_from",
          "type": "address"
        },
        {
          "internalType": "address",
          "name": "_to",
          "type": "address"
        },
        {
          "internalType": "uint256",
          "name": "_value",
          "type": "uint256"
        }
      ],
      "name": "transferFrom",
      "outputs": [
        {
          "internalType": "bool",
          "name": "success",
          "type": "bool"
        }
      ],
      "stateMutability": "nonpayable",
      "type": "function"
    },
    {
      "inputs": [
        {
          "internalType": "address",
          "name": "_owner",
          "type": "address"
        }
      ],
      "name": "balanceOf",
      "outputs": [
        {
          "internalType": "uint256",
          "name": "balance",
          "type": "uint256"
        }
      ],
      "stateMutability": "view",
      "type": "function"
    },
    {
      "inputs": [
        {
          "internalType": "address",
          "name": "_spender",
          "type": "address"
        },
        {
          "internalType": "uint256",
          "name": "_value",
          "type": "uint256"
        }
      ],
      "name": "approve",
      "outputs": [
        {
          "internalType": "bool",
          "name": "success",
          "type": "bool"
        }
      ],
      "stateMutability": "nonpayable",
      "type": "function"
    },
    {
      "inputs": [
        {
          "internalType": "address",
          "name": "_owner",
          "type": "address"
        },
        {
          "internalType": "address",
          "name": "_spender",
          "type": "address"
        }
      ],
      "name": "allowance",
      "outputs": [
        {
          "internalType": "uint256",
          "name": "remaining",
          "type": "uint256"
        }
      ],
      "stateMutability": "view",
      "type": "function"
    }
  ],
  "bytecode": "0x608060405234801561001057600080fd5b506040516105ac3803806105ac83398101604081905261002f91610049565b336000908152602081905260409020819055600255610061565b60006020828403121561005a578081fd5b5051919050565b61053c806100706000396000f3fe608060405234801561001057600080fd5b50600436106100885760003560e01c80635c6581651161005b5780635c658165146100fa57806370a0823114610125578063a9059cbb1461014e578063dd62ed3e1461016157600080fd5b8063095ea7b31461008d57806318160ddd146100b557806323b872dd146100c757806327e235e3146100da575b600080fd5b6100a061009b366004610498565b61019a565b60405190151581526020015b60405180910390f35b6002545b6040519081526020016100ac565b6100a06100d536600461045d565b610206565b6100b96100e836600461040a565b60006020819052908152604090205481565b6100b961010836600461042b565b600160209081526000928352604080842090915290825290205481565b6100b961013336600461040a565b6001600160a01b031660009081526020819052604090205490565b6100a061015c366004610498565b610344565b6100b961016f36600461042b565b6001600160a01b03918216600090815260016020908152604080832093909416825291909152205490565b3360008181526001602090815260408083206001600160a01b038716808552925280832085905551919290917f8c5be1e5ebec7d5bd14f71427d1e84f3dd0314c0f7b2291e5b200ac8c7c3b925906101f59086815260200190565b60405180910390a350600192915050565b6001600160a01b03831660008181526001602090815260408083203384528252808320549383529082905281205490919083118015906102465750828110155b61024f57600080fd5b6001600160a01b038416600090815260208190526040812080548592906102779084906104c1565b90915550506001600160a01b038516600090815260208190526040812080548592906102a49084906104d9565b90915550506000198110156102ec576001600160a01b0385166000908152600160209081526040808320338452909152812080548592906102e69084906104d9565b90915550505b836001600160a01b0316856001600160a01b03167fddf252ad1be2c89b69c2b068fc378daa952ba7f163c4a11628f55a4df523b3ef8560405161033191815260200190565b60405180910390a3506001949350505050565b3360009081526020819052604081205482111561036057600080fd5b336000908152602081905260408120805484929061037f9084906104d9565b90915550506001600160a01b038316600090815260208190526040812080548492906103ac9084906104c1565b90915550506040518281526001600160a01b0384169033907fddf252ad1be2c89b69c2b068fc378daa952ba7f163c4a11628f55a4df523b3ef906020016101f5565b80356001600160a01b038116811461040557600080fd5b919050565b60006020828403121561041b578081fd5b610424826103ee565b9392505050565b6000806040838503121561043d578081fd5b610446836103ee565b9150610454602084016103ee565b90509250929050565b600080600060608486031215610471578081fd5b61047a846103ee565b9250610488602085016103ee565b9150604084013590509250925092565b600080604083850312156104aa578182fd5b6104b3836103ee565b946020939093013593505050565b600082198211156104d4576104d46104f0565b500190565b6000828210156104eb576104eb6104f0565b500390565b634e487b7160e01b600052601160045260246000fdfea26469706673582212200a073e1185ca74542440f9d316a86eea0523b5b0c4204d5a86fbffdb5396a28764736f6c63430008040033",
  "immutableReferences": {},
  "source": "// SPDX-License-Identifier: AGPL-3.0-only\npragma solidity ^0.8.0;\n\nimport \"@openzeppelin/contracts/token/ERC20/IERC20.sol\";\n\n/**\n * @title Implements only the required ERC20 methods. This contract is used\n * test how contracts handle ERC20 contracts that have not implemented `decimals()`\n * @dev Mostly copied from Consensys EIP-20 implementation:\n * https://github.com/ConsenSys/Tokens/blob/fdf687c69d998266a95f15216b1955a4965a0a6d/contracts/eip20/EIP20.sol\n */\ncontract BasicERC20 is IERC20 {\n    uint256 private constant MAX_UINT256 = 2**256 - 1;\n    mapping(address => uint256) public balances;\n    mapping(address => mapping(address => uint256)) public allowed;\n\n    uint256 private _totalSupply;\n\n    constructor(uint256 _initialAmount) {\n        balances[msg.sender] = _initialAmount;\n        _totalSupply = _initialAmount;\n    }\n\n    function totalSupply() public view override returns (uint256) {\n        return _totalSupply;\n    }\n\n    function transfer(address _to, uint256 _value) public override returns (bool success) {\n        require(balances[msg.sender] >= _value);\n        balances[msg.sender] -= _value;\n        balances[_to] += _value;\n        emit Transfer(msg.sender, _to, _value);\n        return true;\n    }\n\n    function transferFrom(\n        address _from,\n        address _to,\n        uint256 _value\n    ) public override returns (bool success) {\n        uint256 allowance = allowed[_from][msg.sender];\n        require(balances[_from] >= _value && allowance >= _value);\n        balances[_to] += _value;\n        balances[_from] -= _value;\n        if (allowance < MAX_UINT256) {\n            allowed[_from][msg.sender] -= _value;\n        }\n        emit Transfer(_from, _to, _value); //solhint-disable-line indent, no-unused-vars\n        return true;\n    }\n\n    function balanceOf(address _owner) public view override returns (uint256 balance) {\n        return balances[_owner];\n    }\n\n    function approve(address _spender, uint256 _value) public override returns (bool success) {\n        allowed[msg.sender][_spender] = _value;\n        emit Approval(msg.sender, _spender, _value); //solhint-disable-line indent, no-unused-vars\n        return true;\n    }\n\n    function allowance(address _owner, address _spender) public view override returns (uint256 remaining) {\n        return allowed[_owner][_spender];\n    }\n}\n",
  "sourcePath": "/home/kamto/code/protocol/packages/core/contracts/common/test/BasicERC20.sol",
  "compiler": {
    "name": "solc",
    "version": "0.8.4+commit.c7e474f2.Emscripten.clang"
  },
  "schemaVersion": "3.3.4",
  "updatedAt": "2021-05-07T15:46:50.137Z",
  "devdoc": {
    "details": "Mostly copied from Consensys EIP-20 implementation: https://github.com/ConsenSys/Tokens/blob/fdf687c69d998266a95f15216b1955a4965a0a6d/contracts/eip20/EIP20.sol",
    "kind": "dev",
    "methods": {
      "totalSupply()": {
        "details": "Returns the amount of tokens in existence."
      }
    },
    "title": "Implements only the required ERC20 methods. This contract is used test how contracts handle ERC20 contracts that have not implemented `decimals()`",
    "version": 1
  },
  "userdoc": {
    "kind": "user",
    "methods": {},
    "version": 1
  }
}