{
  "contractName": "DSProxy",
  "abi": [
    {
      "inputs": [
        {
          "internalType": "address",
          "name": "_cacheAddr",
          "type": "address"
        }
      ],
      "stateMutability": "nonpayable",
      "type": "constructor"
    },
    {
      "anonymous": true,
      "inputs": [
        {
          "indexed": true,
          "internalType": "bytes4",
          "name": "sig",
          "type": "bytes4"
        },
        {
          "indexed": true,
          "internalType": "address",
          "name": "guy",
          "type": "address"
        },
        {
          "indexed": true,
          "internalType": "bytes32",
          "name": "foo",
          "type": "bytes32"
        },
        {
          "indexed": true,
          "internalType": "bytes32",
          "name": "bar",
          "type": "bytes32"
        },
        {
          "indexed": false,
          "internalType": "bytes",
          "name": "fax",
          "type": "bytes"
        }
      ],
      "name": "LogNote",
      "type": "event"
    },
    {
      "anonymous": false,
      "inputs": [
        {
          "indexed": true,
          "internalType": "address",
          "name": "authority",
          "type": "address"
        }
      ],
      "name": "LogSetAuthority",
      "type": "event"
    },
    {
      "anonymous": false,
      "inputs": [
        {
          "indexed": true,
          "internalType": "address",
          "name": "owner",
          "type": "address"
        }
      ],
      "name": "LogSetOwner",
      "type": "event"
    },
    {
      "stateMutability": "payable",
      "type": "fallback"
    },
    {
      "inputs": [],
      "name": "authority",
      "outputs": [
        {
          "internalType": "contract DSAuthority",
          "name": "",
          "type": "address"
        }
      ],
      "stateMutability": "view",
      "type": "function"
    },
    {
      "inputs": [],
      "name": "cache",
      "outputs": [
        {
          "internalType": "contract DSProxyCache",
          "name": "",
          "type": "address"
        }
      ],
      "stateMutability": "view",
      "type": "function"
    },
    {
      "inputs": [],
      "name": "owner",
      "outputs": [
        {
          "internalType": "address",
          "name": "",
          "type": "address"
        }
      ],
      "stateMutability": "view",
      "type": "function"
    },
    {
      "inputs": [
        {
          "internalType": "contract DSAuthority",
          "name": "authority_",
          "type": "address"
        }
      ],
      "name": "setAuthority",
      "outputs": [],
      "stateMutability": "nonpayable",
      "type": "function"
    },
    {
      "inputs": [
        {
          "internalType": "address",
          "name": "owner_",
          "type": "address"
        }
      ],
      "name": "setOwner",
      "outputs": [],
      "stateMutability": "nonpayable",
      "type": "function"
    },
    {
      "inputs": [
        {
          "internalType": "address",
          "name": "_target",
          "type": "address"
        },
        {
          "internalType": "bytes",
          "name": "_data",
          "type": "bytes"
        }
      ],
      "name": "execute",
      "outputs": [
        {
          "internalType": "bytes32",
          "name": "response",
          "type": "bytes32"
        }
      ],
      "stateMutability": "payable",
      "type": "function"
    },
    {
      "inputs": [
        {
          "internalType": "bytes",
          "name": "_code",
          "type": "bytes"
        },
        {
          "internalType": "bytes",
          "name": "_data",
          "type": "bytes"
        }
      ],
      "name": "execute",
      "outputs": [
        {
          "internalType": "address",
          "name": "target",
          "type": "address"
        },
        {
          "internalType": "bytes32",
          "name": "response",
          "type": "bytes32"
        }
      ],
      "stateMutability": "payable",
      "type": "function"
    },
    {
      "inputs": [
        {
          "internalType": "address",
          "name": "_cacheAddr",
          "type": "address"
        }
      ],
      "name": "setCache",
      "outputs": [
        {
          "internalType": "bool",
          "name": "",
          "type": "bool"
        }
      ],
      "stateMutability": "payable",
      "type": "function"
    }
  ],
  "bytecode": "0x608060405234801561001057600080fd5b50604051610b08380380610b0883398101604081905261002f91610201565b600180546001600160a01b031916339081179091556040517fce241d7ca1f669fee44b6fc00b8eba2df3bb514eed0f6f668f8f89096e81ed9490600090a261007681610085565b61007f57600080fd5b5061027e565b600061009c336001600160e01b0319833516610114565b6100a557600080fd5b6040516004359060243590819083903390600080356001600160e01b031916916100d19190369061024f565b60405180910390a46001600160a01b0384166100ec57600080fd5b600280546001600160a01b0386166001600160a01b0319909116179055600192505050919050565b60006001600160a01b03831630141561012f575060016101fb565b6001546001600160a01b038481169116141561014d575060016101fb565b6000546001600160a01b0316610165575060006101fb565b60005460405163b700961360e01b81526001600160a01b0385811660048301523060248301526001600160e01b0319851660448301529091169063b70096139060640160206040518083038186803b1580156101c057600080fd5b505afa1580156101d4573d6000803e3d6000fd5b505050506040513d601f19601f820116820180604052508101906101f8919061022f565b90505b92915050565b600060208284031215610212578081fd5b81516001600160a01b0381168114610228578182fd5b9392505050565b600060208284031215610240578081fd5b81518015158114610228578182fd5b60208152816020820152818360408301376000818301604090810191909152601f909201601f19160101919050565b61087b8061028d6000396000f3fe6080604052600436106100785760003560e01c80637a9e5e4b1161004b5780637a9e5e4b1461012a5780638da5cb5b1461014a578063948f50761461016a578063bf7e214f1461018d57005b806313af40351461007a5780631cff79cd1461009a5780631f6a1eb9146100c057806360c7d295146100f2575b005b34801561008657600080fd5b50610078610095366004610691565b6101ad565b6100ad6100a83660046106d0565b610216565b6040519081526020015b60405180910390f35b6100d36100ce36600461073e565b6102f9565b604080516001600160a01b0390931683526020830191909152016100b7565b3480156100fe57600080fd5b50600254610112906001600160a01b031681565b6040516001600160a01b0390911681526020016100b7565b34801561013657600080fd5b50610078610145366004610691565b610426565b34801561015657600080fd5b50600154610112906001600160a01b031681565b61017d610178366004610691565b61048d565b60405190151581526020016100b7565b34801561019957600080fd5b50600054610112906001600160a01b031681565b6101c3336000356001600160e01b03191661051d565b6101cc57600080fd5b600180546001600160a01b0319166001600160a01b0383169081179091556040517fce241d7ca1f669fee44b6fc00b8eba2df3bb514eed0f6f668f8f89096e81ed9490600090a250565b600061022e336000356001600160e01b03191661051d565b61023757600080fd5b6040516004359060243590819083903390600080356001600160e01b0319169161026391903690610795565b60405180910390a46001600160a01b0385166102c55760405162461bcd60e51b815260206004820152601960248201527f5461726765742063616e74206265203078206164647265737300000000000000604482015260640160405180910390fd5b60206000855160208701886113885a03f460005193508015600181146102ea576102ef565b600080fd5b5050505092915050565b6002546040516322fd145760e21b815260009182916001600160a01b0390911690638bf4515c9061032e9087906004016107c4565b60206040518083038186803b15801561034657600080fd5b505afa15801561035a573d6000803e3d6000fd5b505050506040513d601f19601f8201168201806040525081019061037e91906106b4565b91506001600160a01b03821661041357600254604051633f6861d960e11b81526001600160a01b0390911690637ed0c3b2906103be9087906004016107c4565b602060405180830381600087803b1580156103d857600080fd5b505af11580156103ec573d6000803e3d6000fd5b505050506040513d601f19601f8201168201806040525081019061041091906106b4565b91505b61041d8284610216565b90509250929050565b61043c336000356001600160e01b03191661051d565b61044557600080fd5b600080546001600160a01b0319166001600160a01b038316908117825560405190917f1abebea81bfa2637f28358c371278fb15ede7ea8dd28d2e03b112ff6d936ada491a250565b60006104a5336000356001600160e01b03191661051d565b6104ae57600080fd5b6040516004359060243590819083903390600080356001600160e01b031916916104da91903690610795565b60405180910390a46001600160a01b0384166104f557600080fd5b600280546001600160a01b0386166001600160a01b0319909116179055600192505050919050565b60006001600160a01b03831630141561053857506001610604565b6001546001600160a01b038481169116141561055657506001610604565b6000546001600160a01b031661056e57506000610604565b60005460405163b700961360e01b81526001600160a01b0385811660048301523060248301526001600160e01b0319851660448301529091169063b70096139060640160206040518083038186803b1580156105c957600080fd5b505afa1580156105dd573d6000803e3d6000fd5b505050506040513d601f19601f82011682018060405250810190610601919061071e565b90505b92915050565b600082601f83011261061a578081fd5b813567ffffffffffffffff8082111561063557610635610817565b604051601f8301601f19908116603f0116810190828211818310171561065d5761065d610817565b81604052838152866020858801011115610675578485fd5b8360208701602083013792830160200193909352509392505050565b6000602082840312156106a2578081fd5b81356106ad8161082d565b9392505050565b6000602082840312156106c5578081fd5b81516106ad8161082d565b600080604083850312156106e2578081fd5b82356106ed8161082d565b9150602083013567ffffffffffffffff811115610708578182fd5b6107148582860161060a565b9150509250929050565b60006020828403121561072f578081fd5b815180151581146106ad578182fd5b60008060408385031215610750578182fd5b823567ffffffffffffffff80821115610767578384fd5b6107738683870161060a565b93506020850135915080821115610788578283fd5b506107148582860161060a565b60208152816020820152818360408301376000818301604090810191909152601f909201601f19160101919050565b6000602080835283518082850152825b818110156107f0578581018301518582016040015282016107d4565b818111156108015783604083870101525b50601f01601f1916929092016040019392505050565b634e487b7160e01b600052604160045260246000fd5b6001600160a01b038116811461084257600080fd5b5056fea26469706673582212204825263ae6ee39a5adc200177a749d0d867d551602ffbf39a973412668897cc664736f6c63430008040033",
  "immutableReferences": {},
  "source": "// This file was originally take from from Maker: DS Proxy Factory and modified. The original source code can be found\n// here: https://etherscan.io/address/0xa26e15c895efc0616177b7c1e7270a4c7d51c997#code\n// Changes are limited to updating the Solidity version and some stylistic modifications.\n\n/**\n *Submitted for verification at Etherscan.io on 2018-06-22\n */\n\n// proxy.sol - execute actions atomically through the proxy's identity\n\n// Copyright (C) 2017  DappHub, LLC\n\n// This program is free software: you can redistribute it and/or modify\n// it under the terms of the GNU General Public License as published by\n// the Free Software Foundation, either version 3 of the License, or\n// (at your option) any later version.\n\n// This program is distributed in the hope that it will be useful,\n// but WITHOUT ANY WARRANTY; without even the implied warranty of\n// MERCHANTABILITY or FITNESS FOR A PARTICULAR PURPOSE.  See the\n// GNU General Public License for more details.\n\n// You should have received a copy of the GNU General Public License\n// along with this program.  If not, see <http://www.gnu.org/licenses/>.\n\npragma solidity ^0.8.0;\n\nabstract contract DSAuthority {\n    function canCall(\n        address src,\n        address dst,\n        bytes4 sig\n    ) public view virtual returns (bool);\n}\n\ncontract DSAuthEvents {\n    event LogSetAuthority(address indexed authority);\n    event LogSetOwner(address indexed owner);\n}\n\ncontract DSAuth is DSAuthEvents {\n    DSAuthority public authority;\n    address public owner;\n\n    constructor() {\n        owner = msg.sender;\n        emit LogSetOwner(msg.sender);\n    }\n\n    function setOwner(address owner_) public auth {\n        owner = owner_;\n        emit LogSetOwner(owner);\n    }\n\n    function setAuthority(DSAuthority authority_) public auth {\n        authority = authority_;\n        emit LogSetAuthority(address(authority));\n    }\n\n    modifier auth {\n        require(isAuthorized(msg.sender, msg.sig));\n        _;\n    }\n\n    function isAuthorized(address src, bytes4 sig) internal view returns (bool) {\n        if (src == address(this)) {\n            return true;\n        } else if (src == owner) {\n            return true;\n        } else if (authority == DSAuthority(address(0))) {\n            return false;\n        } else {\n            return authority.canCall(src, address(this), sig);\n        }\n    }\n}\n\ncontract DSNote {\n    event LogNote(\n        bytes4 indexed sig,\n        address indexed guy,\n        bytes32 indexed foo,\n        bytes32 indexed bar,\n        bytes fax\n    ) anonymous;\n\n    modifier note {\n        bytes32 foo;\n        bytes32 bar;\n\n        assembly {\n            foo := calldataload(4)\n            bar := calldataload(36)\n        }\n\n        emit LogNote(msg.sig, msg.sender, foo, bar, msg.data);\n\n        _;\n    }\n}\n\n// DSProxy\n// Allows code execution using a persistant identity This can be very\n// useful to execute a sequence of atomic actions. Since the owner of\n// the proxy can be changed, this allows for dynamic ownership models\n// i.e. a multisig\ncontract DSProxy is DSAuth, DSNote {\n    DSProxyCache public cache; // global cache for contracts\n\n    constructor(address _cacheAddr) public {\n        require(setCache(_cacheAddr));\n    }\n\n    fallback() external payable {}\n\n    // use the proxy to execute calldata _data on contract _code\n    function execute(bytes memory _code, bytes memory _data) public payable returns (address target, bytes32 response) {\n        target = cache.read(_code);\n        if (target == address(0x0)) {\n            // deploy contract & store its address in cache\n            target = cache.write(_code);\n        }\n\n        response = execute(target, _data);\n    }\n\n    function execute(address _target, bytes memory _data) public payable auth note returns (bytes32 response) {\n        require(_target != address(0x0), \"Target cant be 0x address\");\n\n        // call contract in current context\n        assembly {\n            let succeeded := delegatecall(sub(gas(), 5000), _target, add(_data, 0x20), mload(_data), 0, 32)\n            response := mload(0) // load delegatecall output\n            switch iszero(succeeded)\n                case 1 {\n                    // throw if delegatecall failed\n                    revert(0, 0)\n                }\n        }\n    }\n\n    //set new cache\n    function setCache(address _cacheAddr) public payable auth note returns (bool) {\n        require(_cacheAddr != address(0x0)); // invalid cache address\n        cache = DSProxyCache(_cacheAddr); // overwrite cache\n        return true;\n    }\n}\n\n// DSProxyFactory\n// This factory deploys new proxy instances through build()\n// Deployed proxy addresses are logged\ncontract DSProxyFactory {\n    event Created(address indexed sender, address indexed owner, address proxy, address cache);\n    mapping(address => bool) public isProxy;\n    DSProxyCache public cache = new DSProxyCache();\n\n    // deploys a new proxy instance\n    // sets owner of proxy to caller\n    function build() public returns (DSProxy proxy) {\n        proxy = build(msg.sender);\n    }\n\n    // deploys a new proxy instance\n    // sets custom owner of proxy\n    function build(address owner) public returns (DSProxy proxy) {\n        proxy = new DSProxy(address(cache));\n        emit Created(msg.sender, owner, address(proxy), address(cache));\n        proxy.setOwner(owner);\n        isProxy[address(proxy)] = true;\n    }\n}\n\n// DSProxyCache\n// This global cache stores addresses of contracts previously deployed\n// by a proxy. This saves gas from repeat deployment of the same\n// contracts and eliminates blockchain bloat.\n\n// By default, all proxies deployed from the same factory store\n// contracts in the same cache. The cache a proxy instance uses can be\n// changed.  The cache uses the sha3 hash of a contract's bytecode to\n// lookup the address\ncontract DSProxyCache {\n    mapping(bytes32 => address) cache;\n\n    function read(bytes memory _code) public view returns (address) {\n        bytes32 hash = keccak256(_code);\n        return cache[hash];\n    }\n\n    function write(bytes memory _code) public returns (address target) {\n        assembly {\n            target := create(0, add(_code, 0x20), mload(_code))\n            switch iszero(extcodesize(target))\n                case 1 {\n                    // throw if contract failed to deploy\n                    revert(0, 0)\n                }\n        }\n        bytes32 hash = keccak256(_code);\n        cache[hash] = target;\n    }\n}\n",
  "sourcePath": "/home/kamto/code/protocol/packages/core/contracts/common/implementation/DSProxyFactory.sol",
  "compiler": {
    "name": "solc",
    "version": "0.8.4+commit.c7e474f2.Emscripten.clang"
  },
  "schemaVersion": "3.3.4",
  "updatedAt": "2021-05-07T15:46:50.076Z",
  "devdoc": {
    "kind": "dev",
    "methods": {},
    "version": 1
  },
  "userdoc": {
    "kind": "user",
    "methods": {},
    "version": 1
  }
}