{
  "contractName": "ExpandedERC20",
  "abi": [
    {
      "inputs": [
        {
          "internalType": "string",
          "name": "_tokenName",
          "type": "string"
        },
        {
          "internalType": "string",
          "name": "_tokenSymbol",
          "type": "string"
        },
        {
          "internalType": "uint8",
          "name": "_tokenDecimals",
          "type": "uint8"
        }
      ],
      "stateMutability": "nonpayable",
      "type": "constructor"
    },
    {
      "anonymous": false,
      "inputs": [
        {
          "indexed": true,
          "internalType": "uint256",
          "name": "roleId",
          "type": "uint256"
        },
        {
          "indexed": true,
          "internalType": "address",
          "name": "newMember",
          "type": "address"
        },
        {
          "indexed": true,
          "internalType": "address",
          "name": "manager",
          "type": "address"
        }
      ],
      "name": "AddedSharedMember",
      "type": "event"
    },
    {
      "anonymous": false,
      "inputs": [
        {
          "indexed": true,
          "internalType": "address",
          "name": "owner",
          "type": "address"
        },
        {
          "indexed": true,
          "internalType": "address",
          "name": "spender",
          "type": "address"
        },
        {
          "indexed": false,
          "internalType": "uint256",
          "name": "value",
          "type": "uint256"
        }
      ],
      "name": "Approval",
      "type": "event"
    },
    {
      "anonymous": false,
      "inputs": [
        {
          "indexed": true,
          "internalType": "uint256",
          "name": "roleId",
          "type": "uint256"
        },
        {
          "indexed": true,
          "internalType": "address",
          "name": "oldMember",
          "type": "address"
        },
        {
          "indexed": true,
          "internalType": "address",
          "name": "manager",
          "type": "address"
        }
      ],
      "name": "RemovedSharedMember",
      "type": "event"
    },
    {
      "anonymous": false,
      "inputs": [
        {
          "indexed": true,
          "internalType": "uint256",
          "name": "roleId",
          "type": "uint256"
        },
        {
          "indexed": true,
          "internalType": "address",
          "name": "newMember",
          "type": "address"
        },
        {
          "indexed": true,
          "internalType": "address",
          "name": "manager",
          "type": "address"
        }
      ],
      "name": "ResetExclusiveMember",
      "type": "event"
    },
    {
      "anonymous": false,
      "inputs": [
        {
          "indexed": true,
          "internalType": "address",
          "name": "from",
          "type": "address"
        },
        {
          "indexed": true,
          "internalType": "address",
          "name": "to",
          "type": "address"
        },
        {
          "indexed": false,
          "internalType": "uint256",
          "name": "value",
          "type": "uint256"
        }
      ],
      "name": "Transfer",
      "type": "event"
    },
    {
      "inputs": [
        {
          "internalType": "uint256",
          "name": "roleId",
          "type": "uint256"
        },
        {
          "internalType": "address",
          "name": "newMember",
          "type": "address"
        }
      ],
      "name": "addMember",
      "outputs": [],
      "stateMutability": "nonpayable",
      "type": "function"
    },
    {
      "inputs": [
        {
          "internalType": "address",
          "name": "owner",
          "type": "address"
        },
        {
          "internalType": "address",
          "name": "spender",
          "type": "address"
        }
      ],
      "name": "allowance",
      "outputs": [
        {
          "internalType": "uint256",
          "name": "",
          "type": "uint256"
        }
      ],
      "stateMutability": "view",
      "type": "function"
    },
    {
      "inputs": [
        {
          "internalType": "address",
          "name": "spender",
          "type": "address"
        },
        {
          "internalType": "uint256",
          "name": "amount",
          "type": "uint256"
        }
      ],
      "name": "approve",
      "outputs": [
        {
          "internalType": "bool",
          "name": "",
          "type": "bool"
        }
      ],
      "stateMutability": "nonpayable",
      "type": "function"
    },
    {
      "inputs": [
        {
          "internalType": "address",
          "name": "account",
          "type": "address"
        }
      ],
      "name": "balanceOf",
      "outputs": [
        {
          "internalType": "uint256",
          "name": "",
          "type": "uint256"
        }
      ],
      "stateMutability": "view",
      "type": "function"
    },
    {
      "inputs": [
        {
          "internalType": "address",
          "name": "spender",
          "type": "address"
        },
        {
          "internalType": "uint256",
          "name": "subtractedValue",
          "type": "uint256"
        }
      ],
      "name": "decreaseAllowance",
      "outputs": [
        {
          "internalType": "bool",
          "name": "",
          "type": "bool"
        }
      ],
      "stateMutability": "nonpayable",
      "type": "function"
    },
    {
      "inputs": [
        {
          "internalType": "uint256",
          "name": "roleId",
          "type": "uint256"
        }
      ],
      "name": "getMember",
      "outputs": [
        {
          "internalType": "address",
          "name": "",
          "type": "address"
        }
      ],
      "stateMutability": "view",
      "type": "function"
    },
    {
      "inputs": [
        {
          "internalType": "uint256",
          "name": "roleId",
          "type": "uint256"
        },
        {
          "internalType": "address",
          "name": "memberToCheck",
          "type": "address"
        }
      ],
      "name": "holdsRole",
      "outputs": [
        {
          "internalType": "bool",
          "name": "",
          "type": "bool"
        }
      ],
      "stateMutability": "view",
      "type": "function"
    },
    {
      "inputs": [
        {
          "internalType": "address",
          "name": "spender",
          "type": "address"
        },
        {
          "internalType": "uint256",
          "name": "addedValue",
          "type": "uint256"
        }
      ],
      "name": "increaseAllowance",
      "outputs": [
        {
          "internalType": "bool",
          "name": "",
          "type": "bool"
        }
      ],
      "stateMutability": "nonpayable",
      "type": "function"
    },
    {
      "inputs": [],
      "name": "name",
      "outputs": [
        {
          "internalType": "string",
          "name": "",
          "type": "string"
        }
      ],
      "stateMutability": "view",
      "type": "function"
    },
    {
      "inputs": [
        {
          "internalType": "uint256",
          "name": "roleId",
          "type": "uint256"
        },
        {
          "internalType": "address",
          "name": "memberToRemove",
          "type": "address"
        }
      ],
      "name": "removeMember",
      "outputs": [],
      "stateMutability": "nonpayable",
      "type": "function"
    },
    {
      "inputs": [
        {
          "internalType": "uint256",
          "name": "roleId",
          "type": "uint256"
        }
      ],
      "name": "renounceMembership",
      "outputs": [],
      "stateMutability": "nonpayable",
      "type": "function"
    },
    {
      "inputs": [
        {
          "internalType": "uint256",
          "name": "roleId",
          "type": "uint256"
        },
        {
          "internalType": "address",
          "name": "newMember",
          "type": "address"
        }
      ],
      "name": "resetMember",
      "outputs": [],
      "stateMutability": "nonpayable",
      "type": "function"
    },
    {
      "inputs": [],
      "name": "symbol",
      "outputs": [
        {
          "internalType": "string",
          "name": "",
          "type": "string"
        }
      ],
      "stateMutability": "view",
      "type": "function"
    },
    {
      "inputs": [],
      "name": "totalSupply",
      "outputs": [
        {
          "internalType": "uint256",
          "name": "",
          "type": "uint256"
        }
      ],
      "stateMutability": "view",
      "type": "function"
    },
    {
      "inputs": [
        {
          "internalType": "address",
          "name": "recipient",
          "type": "address"
        },
        {
          "internalType": "uint256",
          "name": "amount",
          "type": "uint256"
        }
      ],
      "name": "transfer",
      "outputs": [
        {
          "internalType": "bool",
          "name": "",
          "type": "bool"
        }
      ],
      "stateMutability": "nonpayable",
      "type": "function"
    },
    {
      "inputs": [
        {
          "internalType": "address",
          "name": "sender",
          "type": "address"
        },
        {
          "internalType": "address",
          "name": "recipient",
          "type": "address"
        },
        {
          "internalType": "uint256",
          "name": "amount",
          "type": "uint256"
        }
      ],
      "name": "transferFrom",
      "outputs": [
        {
          "internalType": "bool",
          "name": "",
          "type": "bool"
        }
      ],
      "stateMutability": "nonpayable",
      "type": "function"
    },
    {
      "inputs": [],
      "name": "decimals",
      "outputs": [
        {
          "internalType": "uint8",
          "name": "",
          "type": "uint8"
        }
      ],
      "stateMutability": "view",
      "type": "function"
    },
    {
      "inputs": [
        {
          "internalType": "address",
          "name": "recipient",
          "type": "address"
        },
        {
          "internalType": "uint256",
          "name": "value",
          "type": "uint256"
        }
      ],
      "name": "mint",
      "outputs": [
        {
          "internalType": "bool",
          "name": "",
          "type": "bool"
        }
      ],
      "stateMutability": "nonpayable",
      "type": "function"
    },
    {
      "inputs": [
        {
          "internalType": "uint256",
          "name": "value",
          "type": "uint256"
        }
      ],
      "name": "burn",
      "outputs": [],
      "stateMutability": "nonpayable",
      "type": "function"
    },
    {
      "inputs": [
        {
          "internalType": "address",
          "name": "account",
          "type": "address"
        }
      ],
      "name": "addMinter",
      "outputs": [],
      "stateMutability": "nonpayable",
      "type": "function"
    },
    {
      "inputs": [
        {
          "internalType": "address",
          "name": "account",
          "type": "address"
        }
      ],
      "name": "addBurner",
      "outputs": [],
      "stateMutability": "nonpayable",
      "type": "function"
    },
    {
      "inputs": [
        {
          "internalType": "address",
          "name": "account",
          "type": "address"
        }
      ],
      "name": "resetOwner",
      "outputs": [],
      "stateMutability": "nonpayable",
      "type": "function"
    }
  ],
  "bytecode": "0x60806040523480156200001157600080fd5b5060405162001c6038038062001c60833981016040819052620000349162000645565b8251839083906200004d906003906020850190620004ec565b50805162000063906004906020840190620004ec565b50506006805460ff191660ff8416179055506200008360008033620000b5565b620000a060015b604080516000808252602082019092526200021e565b620000ac60026200008a565b50505062000741565b826000808281526005602052604090206001015460ff166002811115620000ec57634e487b7160e01b600052602160045260246000fd5b146200013f5760405162461bcd60e51b815260206004820152601e60248201527f43616e6e6f74207573652061207072652d6578697374696e6720726f6c65000060448201526064015b60405180910390fd5b60008481526005602052604090206001808201805460ff1916828002179055508381556200017d60028201846200037d602090811b62000afe17901c565b60008481526005602052604081206001015460ff166002811115620001b257634e487b7160e01b600052602160045260246000fd5b1415620002175760405162461bcd60e51b815260206004820152603c602482015260008051602062001c4083398151915260448201527f20746f206d616e61676520616e206578636c757369766520726f6c6500000000606482015260840162000136565b5050505050565b826000808281526005602052604090206001015460ff1660028111156200025557634e487b7160e01b600052602160045260246000fd5b14620002a45760405162461bcd60e51b815260206004820152601e60248201527f43616e6e6f74207573652061207072652d6578697374696e6720726f6c650000604482015260640162000136565b600084815260056020908152604090912060018101805460ff1916600217905584815590620002e3906003830190859062000b086200038d821b17901c565b60008481526005602052604081206001015460ff1660028111156200031857634e487b7160e01b600052602160045260246000fd5b1415620002175760405162461bcd60e51b8152602060048201526038602482015260008051602062001c4083398151915260448201527f20746f206d616e61676520612073686172656420726f6c650000000000000000606482015260840162000136565b620003898282620003ee565b5050565b60005b8151811015620003e957620003d483838381518110620003c057634e487b7160e01b600052603260045260246000fd5b60200260200101516200046f60201b60201c565b80620003e08162000703565b91505062000390565b505050565b6001600160a01b038116620004525760405162461bcd60e51b815260206004820152602360248201527f43616e6e6f742073657420616e206578636c757369766520726f6c6520746f2060448201526203078360ec1b606482015260840162000136565b81546001600160a01b0319166001600160a01b0391909116179055565b6001600160a01b038116620004c75760405162461bcd60e51b815260206004820152601f60248201527f43616e6e6f74206164642030783020746f20612073686172656420726f6c6500604482015260640162000136565b6001600160a01b0316600090815260209190915260409020805460ff19166001179055565b828054620004fa90620006c6565b90600052602060002090601f0160209004810192826200051e576000855562000569565b82601f106200053957805160ff191683800117855562000569565b8280016001018555821562000569579182015b82811115620005695782518255916020019190600101906200054c565b50620005779291506200057b565b5090565b5b808211156200057757600081556001016200057c565b600082601f830112620005a3578081fd5b81516001600160401b0380821115620005c057620005c06200072b565b604051601f8301601f19908116603f01168101908282118183101715620005eb57620005eb6200072b565b8160405283815260209250868385880101111562000607578485fd5b8491505b838210156200062a57858201830151818301840152908201906200060b565b838211156200063b57848385830101525b9695505050505050565b6000806000606084860312156200065a578283fd5b83516001600160401b038082111562000671578485fd5b6200067f8783880162000592565b9450602086015191508082111562000695578384fd5b50620006a48682870162000592565b925050604084015160ff81168114620006bb578182fd5b809150509250925092565b600181811c90821680620006db57607f821691505b60208210811415620006fd57634e487b7160e01b600052602260045260246000fd5b50919050565b60006000198214156200072457634e487b7160e01b81526011600452602481fd5b5060010190565b634e487b7160e01b600052604160045260246000fd5b6114ef80620007516000396000f3fe608060405234801561001057600080fd5b50600436106101425760003560e01c806374d0a676116100b8578063a9059cbb1161007c578063a9059cbb146102a0578063aaa14ca3146102b3578063ab3545e5146102c6578063d97c05be146102f1578063dd62ed3e14610304578063f44637ba1461033d57600080fd5b806374d0a6761461024c5780637cdc1cb91461025f57806395d89b4114610272578063983b2d561461027a578063a457c2d71461028d57600080fd5b8063395093511161010a57806339509351146101c257806340c10f19146101d557806342966c68146101e85780636be7658b146101fd57806370a082311461021057806373cc802a1461023957600080fd5b806306fdde0314610147578063095ea7b31461016557806318160ddd1461018857806323b872dd1461019a578063313ce567146101ad575b600080fd5b61014f610350565b60405161015c91906112b0565b60405180910390f35b61017861017336600461124d565b6103e2565b604051901515815260200161015c565b6002545b60405190815260200161015c565b6101786101a8366004611212565b6103f9565b60065460405160ff909116815260200161015c565b6101786101d036600461124d565b6104af565b6101786101e336600461124d565b6104e6565b6101fb6101f6366004611276565b610524565b005b6101fb61020b36600461128e565b61055a565b61018c61021e3660046111bf565b6001600160a01b031660009081526020819052604090205490565b6101fb6102473660046111bf565b61063e565b6101fb61025a36600461128e565b61064c565b61017861026d36600461128e565b610730565b61014f610813565b6101fb6102883660046111bf565b610822565b61017861029b36600461124d565b61082e565b6101786102ae36600461124d565b6108bf565b6101fb6102c1366004611276565b6108cc565b6102d96102d4366004611276565b610996565b6040516001600160a01b03909116815260200161015c565b6101fb6102ff36600461128e565b610a10565b61018c6103123660046111e0565b6001600160a01b03918216600090815260016020908152604080832093909416825291909152205490565b6101fb61034b3660046111bf565b610af4565b60606003805461035f90611453565b80601f016020809104026020016040519081016040528092919081815260200182805461038b90611453565b80156103d85780601f106103ad576101008083540402835291602001916103d8565b820191906000526020600020905b8154815290600101906020018083116103bb57829003601f168201915b5050505050905090565b60006103ef338484610b5c565b5060015b92915050565b6000610406848484610c81565b6001600160a01b0384166000908152600160209081526040808320338452909152902054828110156104905760405162461bcd60e51b815260206004820152602860248201527f45524332303a207472616e7366657220616d6f756e74206578636565647320616044820152676c6c6f77616e636560c01b60648201526084015b60405180910390fd5b6104a4853361049f868561143c565b610b5c565b506001949350505050565b3360008181526001602090815260408083206001600160a01b038716845290915281205490916103ef91859061049f908690611424565b600060016104f48133610730565b6105105760405162461bcd60e51b81526004016104879061139e565b61051a8484610e59565b5060019392505050565b60026105308133610730565b61054c5760405162461bcd60e51b81526004016104879061139e565b6105563383610f38565b5050565b81600260008281526005602052604090206001015460ff16600281111561059157634e487b7160e01b600052602160045260246000fd5b146105ae5760405162461bcd60e51b815260040161048790611352565b60008381526005602052604090205483906105c99033610730565b6105e55760405162461bcd60e51b8152600401610487906113e0565b60008481526005602052604090206106009060030184611087565b60405133906001600160a01b0385169086907feb3e33034c392e69263b04ec0fa376dc12784a41b6676c7f31b936cbc0fbb5af90600090a450505050565b610649600082610a10565b50565b81600260008281526005602052604090206001015460ff16600281111561068357634e487b7160e01b600052602160045260246000fd5b146106a05760405162461bcd60e51b815260040161048790611352565b60008381526005602052604090205483906106bb9033610730565b6106d75760405162461bcd60e51b8152600401610487906113e0565b60008481526005602052604090206106f290600301846110a9565b60405133906001600160a01b0385169086907f63502af7324ff6db91ab38f8236a648727d9385ea6c782073dd4882d8a61a48f90600090a450505050565b600082815260056020526040812060018082015460ff16600281111561076657634e487b7160e01b600052602160045260246000fd5b14156107885760028101546001600160a01b038481169116145b9150506103f3565b6002600182015460ff1660028111156107b157634e487b7160e01b600052602160045260246000fd5b14156107da576001600160a01b038316600090815260038201602052604090205460ff16610780565b60405162461bcd60e51b815260206004820152600e60248201526d125b9d985b1a59081c9bdb19525960921b6044820152606401610487565b60606004805461035f90611453565b61064960015b8261064c565b3360009081526001602090815260408083206001600160a01b0386168452909152812054828110156108b05760405162461bcd60e51b815260206004820152602560248201527f45524332303a2064656372656173656420616c6c6f77616e63652062656c6f77604482015264207a65726f60d81b6064820152608401610487565b61051a338561049f868561143c565b60006103ef338484610c81565b80600260008281526005602052604090206001015460ff16600281111561090357634e487b7160e01b600052602160045260246000fd5b146109205760405162461bcd60e51b815260040161048790611352565b8161092b8133610730565b6109475760405162461bcd60e51b81526004016104879061139e565b60008381526005602052604090206109629060030133611087565b6040513390819085907feb3e33034c392e69263b04ec0fa376dc12784a41b6676c7f31b936cbc0fbb5af90600090a4505050565b600081600160008281526005602052604090206001015460ff1660028111156109cf57634e487b7160e01b600052602160045260246000fd5b146109ec5760405162461bcd60e51b815260040161048790611303565b6000838152600560205260409020600201546001600160a01b031691505b50919050565b81600160008281526005602052604090206001015460ff166002811115610a4757634e487b7160e01b600052602160045260246000fd5b14610a645760405162461bcd60e51b815260040161048790611303565b6000838152600560205260409020548390610a7f9033610730565b610a9b5760405162461bcd60e51b8152600401610487906113e0565b6000848152600560205260409020610ab69060020184611124565b60405133906001600160a01b0385169086907f3b855c56b409b671c7112789d022675eb639d0bcb8896f1b6197c132f799e74690600090a450505050565b6106496002610828565b6105568282611124565b60005b8151811015610b5757610b4583838381518110610b3857634e487b7160e01b600052603260045260246000fd5b60200260200101516110a9565b80610b4f81611488565b915050610b0b565b505050565b6001600160a01b038316610bbe5760405162461bcd60e51b8152602060048201526024808201527f45524332303a20617070726f76652066726f6d20746865207a65726f206164646044820152637265737360e01b6064820152608401610487565b6001600160a01b038216610c1f5760405162461bcd60e51b815260206004820152602260248201527f45524332303a20617070726f766520746f20746865207a65726f206164647265604482015261737360f01b6064820152608401610487565b6001600160a01b0383811660008181526001602090815260408083209487168084529482529182902085905590518481527f8c5be1e5ebec7d5bd14f71427d1e84f3dd0314c0f7b2291e5b200ac8c7c3b92591015b60405180910390a3505050565b6001600160a01b038316610ce55760405162461bcd60e51b815260206004820152602560248201527f45524332303a207472616e736665722066726f6d20746865207a65726f206164604482015264647265737360d81b6064820152608401610487565b6001600160a01b038216610d475760405162461bcd60e51b815260206004820152602360248201527f45524332303a207472616e7366657220746f20746865207a65726f206164647260448201526265737360e81b6064820152608401610487565b6001600160a01b03831660009081526020819052604090205481811015610dbf5760405162461bcd60e51b815260206004820152602660248201527f45524332303a207472616e7366657220616d6f756e7420657863656564732062604482015265616c616e636560d01b6064820152608401610487565b610dc9828261143c565b6001600160a01b038086166000908152602081905260408082209390935590851681529081208054849290610dff908490611424565b92505081905550826001600160a01b0316846001600160a01b03167fddf252ad1be2c89b69c2b068fc378daa952ba7f163c4a11628f55a4df523b3ef84604051610e4b91815260200190565b60405180910390a350505050565b6001600160a01b038216610eaf5760405162461bcd60e51b815260206004820152601f60248201527f45524332303a206d696e7420746f20746865207a65726f2061646472657373006044820152606401610487565b8060026000828254610ec19190611424565b90915550506001600160a01b03821660009081526020819052604081208054839290610eee908490611424565b90915550506040518181526001600160a01b038316906000907fddf252ad1be2c89b69c2b068fc378daa952ba7f163c4a11628f55a4df523b3ef9060200160405180910390a35050565b6001600160a01b038216610f985760405162461bcd60e51b815260206004820152602160248201527f45524332303a206275726e2066726f6d20746865207a65726f206164647265736044820152607360f81b6064820152608401610487565b6001600160a01b0382166000908152602081905260409020548181101561100c5760405162461bcd60e51b815260206004820152602260248201527f45524332303a206275726e20616d6f756e7420657863656564732062616c616e604482015261636560f01b6064820152608401610487565b611016828261143c565b6001600160a01b0384166000908152602081905260408120919091556002805484929061104490849061143c565b90915550506040518281526000906001600160a01b038516907fddf252ad1be2c89b69c2b068fc378daa952ba7f163c4a11628f55a4df523b3ef90602001610c74565b6001600160a01b0316600090815260209190915260409020805460ff19169055565b6001600160a01b0381166110ff5760405162461bcd60e51b815260206004820152601f60248201527f43616e6e6f74206164642030783020746f20612073686172656420726f6c65006044820152606401610487565b6001600160a01b0316600090815260209190915260409020805460ff19166001179055565b6001600160a01b0381166111865760405162461bcd60e51b815260206004820152602360248201527f43616e6e6f742073657420616e206578636c757369766520726f6c6520746f2060448201526203078360ec1b6064820152608401610487565b81546001600160a01b0319166001600160a01b0391909116179055565b80356001600160a01b03811681146111ba57600080fd5b919050565b6000602082840312156111d0578081fd5b6111d9826111a3565b9392505050565b600080604083850312156111f2578081fd5b6111fb836111a3565b9150611209602084016111a3565b90509250929050565b600080600060608486031215611226578081fd5b61122f846111a3565b925061123d602085016111a3565b9150604084013590509250925092565b6000806040838503121561125f578182fd5b611268836111a3565b946020939093013593505050565b600060208284031215611287578081fd5b5035919050565b600080604083850312156112a0578182fd5b82359150611209602084016111a3565b6000602080835283518082850152825b818110156112dc578581018301518582016040015282016112c0565b818111156112ed5783604083870101525b50601f01601f1916929092016040019392505050565b6020808252602f908201527f4d7573742062652063616c6c6564206f6e20616e20696e697469616c697a656460408201526e204578636c757369766520726f6c6560881b606082015260800190565b6020808252602c908201527f4d7573742062652063616c6c6564206f6e20616e20696e697469616c697a656460408201526b2053686172656420726f6c6560a01b606082015260800190565b60208082526022908201527f53656e64657220646f6573206e6f7420686f6c6420726571756972656420726f6040820152616c6560f01b606082015260800190565b60208082526024908201527f43616e206f6e6c792062652063616c6c6564206279206120726f6c65206d616e60408201526330b3b2b960e11b606082015260800190565b60008219821115611437576114376114a3565b500190565b60008282101561144e5761144e6114a3565b500390565b600181811c9082168061146757607f821691505b60208210811415610a0a57634e487b7160e01b600052602260045260246000fd5b600060001982141561149c5761149c6114a3565b5060010190565b634e487b7160e01b600052601160045260246000fdfea2646970667358221220dd608ef14fa52cd8fac6c575dc054ad21de49df0bf8b3c2f24dd999dfb0f938464736f6c63430008040033417474656d7074656420746f2075736520616e20696e76616c696420726f6c65",
  "immutableReferences": {},
  "source": "// SPDX-License-Identifier: AGPL-3.0-only\npragma solidity ^0.8.0;\n\nimport \"@openzeppelin/contracts/token/ERC20/ERC20.sol\";\nimport \"./MultiRole.sol\";\nimport \"../interfaces/ExpandedIERC20.sol\";\n\n/**\n * @title An ERC20 with permissioned burning and minting. The contract deployer will initially\n * be the owner who is capable of adding new roles.\n */\ncontract ExpandedERC20 is ExpandedIERC20, ERC20, MultiRole {\n    enum Roles {\n        // Can set the minter and burner.\n        Owner,\n        // Addresses that can mint new tokens.\n        Minter,\n        // Addresses that can burn tokens that address owns.\n        Burner\n    }\n\n    uint8 _decimals;\n\n    /**\n     * @notice Constructs the ExpandedERC20.\n     * @param _tokenName The name which describes the new token.\n     * @param _tokenSymbol The ticker abbreviation of the name. Ideally < 5 chars.\n     * @param _tokenDecimals The number of decimals to define token precision.\n     */\n    constructor(\n        string memory _tokenName,\n        string memory _tokenSymbol,\n        uint8 _tokenDecimals\n    ) ERC20(_tokenName, _tokenSymbol) {\n        _decimals = _tokenDecimals;\n        _createExclusiveRole(uint256(Roles.Owner), uint256(Roles.Owner), msg.sender);\n        _createSharedRole(uint256(Roles.Minter), uint256(Roles.Owner), new address[](0));\n        _createSharedRole(uint256(Roles.Burner), uint256(Roles.Owner), new address[](0));\n    }\n\n    function decimals() public view virtual override(ERC20) returns (uint8) {\n        return _decimals;\n    }\n\n    /**\n     * @dev Mints `value` tokens to `recipient`, returning true on success.\n     * @param recipient address to mint to.\n     * @param value amount of tokens to mint.\n     * @return True if the mint succeeded, or False.\n     */\n    function mint(address recipient, uint256 value)\n        external\n        override\n        onlyRoleHolder(uint256(Roles.Minter))\n        returns (bool)\n    {\n        _mint(recipient, value);\n        return true;\n    }\n\n    /**\n     * @dev Burns `value` tokens owned by `msg.sender`.\n     * @param value amount of tokens to burn.\n     */\n    function burn(uint256 value) external override onlyRoleHolder(uint256(Roles.Burner)) {\n        _burn(msg.sender, value);\n    }\n\n    /**\n     * @notice Add Minter role to account.\n     * @dev The caller must have the Owner role.\n     * @param account The address to which the Minter role is added.\n     */\n    function addMinter(address account) external virtual override {\n        addMember(uint256(Roles.Minter), account);\n    }\n\n    /**\n     * @notice Add Burner role to account.\n     * @dev The caller must have the Owner role.\n     * @param account The address to which the Burner role is added.\n     */\n    function addBurner(address account) external virtual override {\n        addMember(uint256(Roles.Burner), account);\n    }\n\n    /**\n     * @notice Reset Owner role to account.\n     * @dev The caller must have the Owner role.\n     * @param account The new holder of the Owner role.\n     */\n    function resetOwner(address account) external virtual override {\n        resetMember(uint256(Roles.Owner), account);\n    }\n}\n",
  "sourcePath": "/home/kamto/code/protocol/packages/core/contracts/common/implementation/ExpandedERC20.sol",
  "compiler": {
    "name": "solc",
    "version": "0.8.4+commit.c7e474f2.Emscripten.clang"
  },
  "schemaVersion": "3.3.4",
  "updatedAt": "2021-05-07T15:46:50.091Z",
  "devdoc": {
    "kind": "dev",
    "methods": {
      "addBurner(address)": {
        "details": "The caller must have the Owner role.",
        "params": {
          "account": "The address to which the Burner role is added."
        }
      },
      "addMember(uint256,address)": {
        "details": "Reverts if `roleId` does not represent an initialized, SharedRole or if the caller is not a member of the managing role for `roleId`.",
        "params": {
          "newMember": "the new SharedRole member.",
          "roleId": "the SharedRole membership to modify."
        }
      },
      "addMinter(address)": {
        "details": "The caller must have the Owner role.",
        "params": {
          "account": "The address to which the Minter role is added."
        }
      },
      "allowance(address,address)": {
        "details": "See {IERC20-allowance}."
      },
      "approve(address,uint256)": {
        "details": "See {IERC20-approve}. Requirements: - `spender` cannot be the zero address."
      },
      "balanceOf(address)": {
        "details": "See {IERC20-balanceOf}."
      },
      "burn(uint256)": {
        "details": "Burns `value` tokens owned by `msg.sender`.",
        "params": {
          "value": "amount of tokens to burn."
        }
      },
      "constructor": {
        "params": {
          "_tokenDecimals": "The number of decimals to define token precision.",
          "_tokenName": "The name which describes the new token.",
          "_tokenSymbol": "The ticker abbreviation of the name. Ideally < 5 chars."
        }
      },
      "decimals()": {
        "details": "Returns the number of decimals used to get its user representation. For example, if `decimals` equals `2`, a balance of `505` tokens should be displayed to a user as `5,05` (`505 / 10 ** 2`). Tokens usually opt for a value of 18, imitating the relationship between Ether and Wei. This is the value {ERC20} uses, unless this function is overridden; NOTE: This information is only used for _display_ purposes: it in no way affects any of the arithmetic of the contract, including {IERC20-balanceOf} and {IERC20-transfer}."
      },
      "decreaseAllowance(address,uint256)": {
        "details": "Atomically decreases the allowance granted to `spender` by the caller. This is an alternative to {approve} that can be used as a mitigation for problems described in {IERC20-approve}. Emits an {Approval} event indicating the updated allowance. Requirements: - `spender` cannot be the zero address. - `spender` must have allowance for the caller of at least `subtractedValue`."
      },
      "getMember(uint256)": {
        "details": "Reverts if `roleId` does not represent an initialized, exclusive role.",
        "params": {
          "roleId": "the ExclusiveRole membership to check."
        },
        "returns": {
          "_0": "the address of the current ExclusiveRole member."
        }
      },
      "holdsRole(uint256,address)": {
        "details": "Reverts if roleId does not correspond to an initialized role.",
        "params": {
          "memberToCheck": "the address to check.",
          "roleId": "the Role to check."
        },
        "returns": {
          "_0": "True if `memberToCheck` is a member of `roleId`."
        }
      },
      "increaseAllowance(address,uint256)": {
        "details": "Atomically increases the allowance granted to `spender` by the caller. This is an alternative to {approve} that can be used as a mitigation for problems described in {IERC20-approve}. Emits an {Approval} event indicating the updated allowance. Requirements: - `spender` cannot be the zero address."
      },
      "mint(address,uint256)": {
        "details": "Mints `value` tokens to `recipient`, returning true on success.",
        "params": {
          "recipient": "address to mint to.",
          "value": "amount of tokens to mint."
        },
        "returns": {
          "_0": "True if the mint succeeded, or False."
        }
      },
      "name()": {
        "details": "Returns the name of the token."
      },
      "removeMember(uint256,address)": {
        "details": "Reverts if `roleId` does not represent an initialized, SharedRole or if the caller is not a member of the managing role for `roleId`.",
        "params": {
          "memberToRemove": "the current SharedRole member to remove.",
          "roleId": "the SharedRole membership to modify."
        }
      },
      "renounceMembership(uint256)": {
        "details": "Reverts if the caller is not a member of the role for `roleId` or if `roleId` is not an initialized, SharedRole.",
        "params": {
          "roleId": "the SharedRole membership to modify."
        }
      },
      "resetMember(uint256,address)": {
        "details": "Reverts if the caller is not a member of the managing role for `roleId` or if `roleId` is not an initialized, ExclusiveRole.",
        "params": {
          "newMember": "the new ExclusiveRole member.",
          "roleId": "the ExclusiveRole membership to modify."
        }
      },
      "resetOwner(address)": {
        "details": "The caller must have the Owner role.",
        "params": {
          "account": "The new holder of the Owner role."
        }
      },
      "symbol()": {
        "details": "Returns the symbol of the token, usually a shorter version of the name."
      },
      "totalSupply()": {
        "details": "See {IERC20-totalSupply}."
      },
      "transfer(address,uint256)": {
        "details": "See {IERC20-transfer}. Requirements: - `recipient` cannot be the zero address. - the caller must have a balance of at least `amount`."
      },
      "transferFrom(address,address,uint256)": {
        "details": "See {IERC20-transferFrom}. Emits an {Approval} event indicating the updated allowance. This is not required by the EIP. See the note at the beginning of {ERC20}. Requirements: - `sender` and `recipient` cannot be the zero address. - `sender` must have a balance of at least `amount`. - the caller must have allowance for ``sender``'s tokens of at least `amount`."
      }
    },
    "title": "An ERC20 with permissioned burning and minting. The contract deployer will initially be the owner who is capable of adding new roles.",
    "version": 1
  },
  "userdoc": {
    "kind": "user",
    "methods": {
      "addBurner(address)": {
        "notice": "Add Burner role to account."
      },
      "addMember(uint256,address)": {
        "notice": "Adds `newMember` to the shared role, `roleId`."
      },
      "addMinter(address)": {
        "notice": "Add Minter role to account."
      },
      "constructor": {
        "notice": "Constructs the ExpandedERC20."
      },
      "getMember(uint256)": {
        "notice": "Gets the current holder of the exclusive role, `roleId`."
      },
      "holdsRole(uint256,address)": {
        "notice": "Whether `memberToCheck` is a member of roleId."
      },
      "removeMember(uint256,address)": {
        "notice": "Removes `memberToRemove` from the shared role, `roleId`."
      },
      "renounceMembership(uint256)": {
        "notice": "Removes caller from the role, `roleId`."
      },
      "resetMember(uint256,address)": {
        "notice": "Changes the exclusive role holder of `roleId` to `newMember`."
      },
      "resetOwner(address)": {
        "notice": "Reset Owner role to account."
      }
    },
    "version": 1
  }
}