{
  "contractName": "ExpiringMultiPartyMock",
  "abi": [
    {
      "inputs": [
        {
          "internalType": "address",
          "name": "_financialProductLibraryAddress",
          "type": "address"
        },
        {
          "internalType": "uint256",
          "name": "_expirationTimestamp",
          "type": "uint256"
        },
        {
          "components": [
            {
              "internalType": "uint256",
              "name": "rawValue",
              "type": "uint256"
            }
          ],
          "internalType": "struct FixedPoint.Unsigned",
          "name": "_collateralRequirement",
          "type": "tuple"
        },
        {
          "internalType": "bytes32",
          "name": "_priceIdentifier",
          "type": "bytes32"
        },
        {
          "internalType": "address",
          "name": "_timerAddress",
          "type": "address"
        }
      ],
      "stateMutability": "nonpayable",
      "type": "constructor"
    },
    {
      "inputs": [],
      "name": "collateralRequirement",
      "outputs": [
        {
          "internalType": "uint256",
          "name": "rawValue",
          "type": "uint256"
        }
      ],
      "stateMutability": "view",
      "type": "function"
    },
    {
      "inputs": [],
      "name": "expirationTimestamp",
      "outputs": [
        {
          "internalType": "uint256",
          "name": "",
          "type": "uint256"
        }
      ],
      "stateMutability": "view",
      "type": "function"
    },
    {
      "inputs": [],
      "name": "financialProductLibrary",
      "outputs": [
        {
          "internalType": "contract FinancialProductLibrary",
          "name": "",
          "type": "address"
        }
      ],
      "stateMutability": "view",
      "type": "function"
    },
    {
      "inputs": [],
      "name": "getCurrentTime",
      "outputs": [
        {
          "internalType": "uint256",
          "name": "",
          "type": "uint256"
        }
      ],
      "stateMutability": "view",
      "type": "function"
    },
    {
      "inputs": [],
      "name": "priceIdentifier",
      "outputs": [
        {
          "internalType": "bytes32",
          "name": "",
          "type": "bytes32"
        }
      ],
      "stateMutability": "view",
      "type": "function"
    },
    {
      "inputs": [
        {
          "internalType": "uint256",
          "name": "time",
          "type": "uint256"
        }
      ],
      "name": "setCurrentTime",
      "outputs": [],
      "stateMutability": "nonpayable",
      "type": "function"
    },
    {
      "inputs": [],
      "name": "timerAddress",
      "outputs": [
        {
          "internalType": "address",
          "name": "",
          "type": "address"
        }
      ],
      "stateMutability": "view",
      "type": "function"
    },
    {
      "inputs": [
        {
          "components": [
            {
              "internalType": "uint256",
              "name": "rawValue",
              "type": "uint256"
            }
          ],
          "internalType": "struct FixedPoint.Unsigned",
          "name": "price",
          "type": "tuple"
        },
        {
          "internalType": "uint256",
          "name": "requestTime",
          "type": "uint256"
        }
      ],
      "name": "transformPrice",
      "outputs": [
        {
          "components": [
            {
              "internalType": "uint256",
              "name": "rawValue",
              "type": "uint256"
            }
          ],
          "internalType": "struct FixedPoint.Unsigned",
          "name": "",
          "type": "tuple"
        }
      ],
      "stateMutability": "view",
      "type": "function"
    },
    {
      "inputs": [
        {
          "components": [
            {
              "internalType": "uint256",
              "name": "rawValue",
              "type": "uint256"
            }
          ],
          "internalType": "struct FixedPoint.Unsigned",
          "name": "price",
          "type": "tuple"
        }
      ],
      "name": "transformCollateralRequirement",
      "outputs": [
        {
          "components": [
            {
              "internalType": "uint256",
              "name": "rawValue",
              "type": "uint256"
            }
          ],
          "internalType": "struct FixedPoint.Unsigned",
          "name": "",
          "type": "tuple"
        }
      ],
      "stateMutability": "view",
      "type": "function"
    },
    {
      "inputs": [
        {
          "internalType": "uint256",
          "name": "requestTime",
          "type": "uint256"
        }
      ],
      "name": "transformPriceIdentifier",
      "outputs": [
        {
          "internalType": "bytes32",
          "name": "",
          "type": "bytes32"
        }
      ],
      "stateMutability": "view",
      "type": "function"
    }
  ],
  "bytecode": "0x608060405234801561001057600080fd5b5060405161072a38038061072a83398101604081905261002f9161008e565b600080546001600160a01b03199081166001600160a01b039384161790915560029490945591516003556001805490931693909116929092179055600455610124565b80516001600160a01b038116811461008957600080fd5b919050565b600080600080600085870360a08112156100a6578182fd5b6100af87610072565b9550602087015194506020603f19820112156100c9578182fd5b50604051602081016001600160401b03811182821017156100f857634e487b7160e01b83526041600452602483fd5b604090815287015181526060870151909350915061011860808701610072565b90509295509295909350565b6105f7806101336000396000f3fe608060405234801561001057600080fd5b506004361061009e5760003560e01c806348e30c3f1161006657806348e30c3f1461013357806362b5f7f51461013d5780639375f0e91461015057806397523661146101635780639f43ddd21461016c57600080fd5b80630ff49b90146100a3578063197f7848146100ca5780631c39c38d146100dd57806322f8e5661461010857806329cb924d1461011d575b600080fd5b6100b66100b136600461057f565b610175565b604051905181526020015b60405180910390f35b6100b66100d8366004610510565b610229565b6000546100f0906001600160a01b031681565b6040516001600160a01b0390911681526020016100c1565b61011b6101163660046105a9565b6102f2565b005b610125610368565b6040519081526020016100c1565b6003546101259081565b61012561014b3660046105a9565b610408565b6001546100f0906001600160a01b031681565b61012560045481565b61012560025481565b6040805160208101909152600081526001546001600160a01b031661019b575081610223565b60015460405162ff49b960e41b815284516004820152602481018490526001600160a01b0390911690630ff49b909060440160206040518083038186803b1580156101e557600080fd5b505afa925050508015610215575060408051601f3d908101601f1916820190925261021291810190610532565b60015b610220575081610223565b90505b92915050565b6040805160208101909152600081526001546001600160a01b031661025d5750506040805160208101909152600354815290565b600154604051632a31263760e01b81528351600482015260035460248201526001600160a01b0390911690632a3126379060440160206040518083038186803b1580156102a957600080fd5b505afa9250505080156102d9575060408051601f3d908101601f191682019092526102d691810190610532565b60015b6102235750506040805160208101909152600354815290565b6000546001600160a01b031661030757600080fd5b60005460405163117c72b360e11b8152600481018390526001600160a01b03909116906322f8e56690602401600060405180830381600087803b15801561034d57600080fd5b505af1158015610361573d6000803e3d6000fd5b5050505050565b600080546001600160a01b0316156104035760008054906101000a90046001600160a01b03166001600160a01b03166329cb924d6040518163ffffffff1660e01b815260040160206040518083038186803b1580156103c657600080fd5b505afa1580156103da573d6000803e3d6000fd5b505050506040513d601f19601f820116820180604052508101906103fe91906104f8565b905090565b504290565b6001546000906001600160a01b031661042357505060045490565b6001546004805460405163f19371b760e01b815291820152602481018490526001600160a01b039091169063f19371b79060440160206040518083038186803b15801561046f57600080fd5b505afa92505050801561049f575060408051601f3d908101601f1916820190925261049c918101906104f8565b60015b61022357505060045490565b6000602082840312156104bc578081fd5b6040516020810181811067ffffffffffffffff821117156104eb57634e487b7160e01b83526041600452602483fd5b6040529135825250919050565b600060208284031215610509578081fd5b5051919050565b600060208284031215610521578081fd5b61052b83836104ab565b9392505050565b600060208284031215610543578081fd5b6040516020810181811067ffffffffffffffff8211171561057257634e487b7160e01b83526041600452602483fd5b6040529151825250919050565b60008060408385031215610591578081fd5b61059b84846104ab565b946020939093013593505050565b6000602082840312156105ba578081fd5b503591905056fea264697066735822122031b0b8e90355988ad563ebb3fcb4761a0127eb62f739bb634891252d7b575bee64736f6c63430008040033",
  "immutableReferences": {},
  "source": "// SPDX-License-Identifier: AGPL-3.0-only\npragma solidity ^0.8.0;\npragma abicoder v2;\n\nimport \"../../common/implementation/Testable.sol\";\nimport \"../../common/implementation/FixedPoint.sol\";\nimport \"../common/financial-product-libraries/FinancialProductLibrary.sol\";\n\ncontract ExpiringMultiPartyMock is Testable {\n    using FixedPoint for FixedPoint.Unsigned;\n\n    FinancialProductLibrary public financialProductLibrary;\n    uint256 public expirationTimestamp;\n    FixedPoint.Unsigned public collateralRequirement;\n    bytes32 public priceIdentifier;\n\n    constructor(\n        address _financialProductLibraryAddress,\n        uint256 _expirationTimestamp,\n        FixedPoint.Unsigned memory _collateralRequirement,\n        bytes32 _priceIdentifier,\n        address _timerAddress\n    ) Testable(_timerAddress) {\n        expirationTimestamp = _expirationTimestamp;\n        collateralRequirement = _collateralRequirement;\n        financialProductLibrary = FinancialProductLibrary(_financialProductLibraryAddress);\n        priceIdentifier = _priceIdentifier;\n    }\n\n    function transformPrice(FixedPoint.Unsigned memory price, uint256 requestTime)\n        public\n        view\n        returns (FixedPoint.Unsigned memory)\n    {\n        if (address(financialProductLibrary) == address(0)) return price;\n        try financialProductLibrary.transformPrice(price, requestTime) returns (\n            FixedPoint.Unsigned memory transformedPrice\n        ) {\n            return transformedPrice;\n        } catch {\n            return price;\n        }\n    }\n\n    function transformCollateralRequirement(FixedPoint.Unsigned memory price)\n        public\n        view\n        returns (FixedPoint.Unsigned memory)\n    {\n        if (address(financialProductLibrary) == address(0)) return collateralRequirement;\n        try financialProductLibrary.transformCollateralRequirement(price, collateralRequirement) returns (\n            FixedPoint.Unsigned memory transformedCollateralRequirement\n        ) {\n            return transformedCollateralRequirement;\n        } catch {\n            return collateralRequirement;\n        }\n    }\n\n    function transformPriceIdentifier(uint256 requestTime) public view returns (bytes32) {\n        if (address(financialProductLibrary) == address(0)) return priceIdentifier;\n        try financialProductLibrary.transformPriceIdentifier(priceIdentifier, requestTime) returns (\n            bytes32 transformedIdentifier\n        ) {\n            return transformedIdentifier;\n        } catch {\n            return priceIdentifier;\n        }\n    }\n}\n",
  "sourcePath": "/home/kamto/code/protocol/packages/core/contracts/financial-templates/test/ExpiringMultiPartyMock.sol",
  "compiler": {
    "name": "solc",
    "version": "0.8.4+commit.c7e474f2.Emscripten.clang"
  },
  "schemaVersion": "3.3.4",
  "updatedAt": "2021-05-07T15:46:50.343Z",
  "devdoc": {
    "kind": "dev",
    "methods": {
      "getCurrentTime()": {
        "returns": {
          "_0": "uint for the current Testable timestamp."
        }
      },
      "setCurrentTime(uint256)": {
        "details": "Will revert if not running in test mode.",
        "params": {
          "time": "timestamp to set current Testable time to."
        }
      }
    },
    "version": 1
  },
  "userdoc": {
    "kind": "user",
    "methods": {
      "getCurrentTime()": {
        "notice": "Gets the current time. Will return the last time set in `setCurrentTime` if running in test mode. Otherwise, it will return the block timestamp."
      },
      "setCurrentTime(uint256)": {
        "notice": "Sets the current time."
      }
    },
    "version": 1
  }
}