{
  "contractName": "FeePool",
  "abi": [
    {
      "inputs": [
        {
          "internalType": "uint256",
          "name": "_amount",
          "type": "uint256"
        }
      ],
      "name": "invest",
      "outputs": [],
      "stateMutability": "nonpayable",
      "type": "function"
    },
    {
      "inputs": [
        {
          "internalType": "uint256",
          "name": "_amount",
          "type": "uint256"
        }
      ],
      "name": "retract",
      "outputs": [],
      "stateMutability": "nonpayable",
      "type": "function"
    },
    {
      "inputs": [],
      "name": "getPool",
      "outputs": [
        {
          "internalType": "uint256",
          "name": "",
          "type": "uint256"
        }
      ],
      "stateMutability": "nonpayable",
      "type": "function"
    }
  ],
  "bytecode": "0x608060405234801561001057600080fd5b506101ba806100206000396000f3fe608060405234801561001057600080fd5b50600436106100415760003560e01c8063026b1d5f146100465780632afcf480146100645780639fab665614610092575b600080fd5b61004e6100c0565b6040518082815260200191505060405180910390f35b6100906004803603602081101561007a57600080fd5b81019080803590602001909291905050506100c9565b005b6100be600480360360208110156100a857600080fd5b81019080803590602001909291905050506100cc565b005b60008054905090565b50565b80600160003373ffffffffffffffffffffffffffffffffffffffff1673ffffffffffffffffffffffffffffffffffffffff168152602001908152602001600020541015610181576040517f08c379a00000000000000000000000000000000000000000000000000000000081526004018080602001828103825260148152602001807f576974686472617720697320746f6f206869676800000000000000000000000081525060200191505060405180910390fd5b5056fea26469706673582212207e0cb0df688cdc5f08596dde46f7143a479d3d8133a8d4f8b31317ada5c30df964736f6c63430007060033",
  "immutableReferences": {},
  "source": "pragma solidity >=0.6.0;\r\n\r\n\r\n// SPDX-License-Identifier: MIT\r\n\r\ncontract FeePool {\r\n    // The Pool - The number of coins in it (not dollar value)\r\n    uint256 private _feePool;\r\n\r\n    // Owners Stake in the Pool\r\n    mapping(address => uint256) ownersStake;\r\n\r\n    /// @dev invest into the pool, updating each owners stake and the pool\r\n    /// @param _amount owner invests into the pool\r\n    function invest(uint256 _amount) external {\r\n        //get coins from owner (call AEStaking.enter())?\r\n        // Update the owners stake with the new amount\r\n        // ownersStake[msg.sender] = ownersStake[msg.sender].add(_amount);\r\n        // Update the fee pool\r\n        // _feePool = _feePool.add(_amount);\r\n    }\r\n\r\n    /// @dev transfers coins to owner\r\n    function retract(uint256 _amount) external {\r\n        require(ownersStake[msg.sender] >= _amount, \"Withdraw is too high\");\r\n\r\n        //// ? update owners account (call AEStaking.leave()) ?\r\n\r\n        // Update the owners stake with the new amount\r\n        // ownersStake[msg.sender] = ownersStake[msg.sender].add(_amount);\r\n\r\n        //Update the fee pool\r\n        // _feePool = _feePool.sub(_amount);\r\n    }\r\n\r\n    /// @dev get the amount in feePool\r\n    function getPool() external returns (uint256) {\r\n        //is this a VIEW function?\r\n        return _feePool;\r\n    }\r\n\r\n    //// My own notes :)\r\n\r\n    // Create our own coin\r\n    // People invest into it\r\n    // Tie fees into a pool\r\n\r\n    // People buy coins and that goes into a pool\r\n    // We set the initial value\r\n    // Where is it set and where can the growth be seen\r\n\r\n    // FeePool is the area where we have all the pooled in values\r\n\r\n    /*\r\n        FeePool acesses ERC20 totalSupply and figure out how much to leave with\r\n\r\n        More people, worth more\r\n\r\n        Tie together coin and athletes:\r\n            Athlete's value is based off in game preformance\r\n\r\n        Flywheel Pattern,\r\n            2 types of coin: ERC20 business value (AE coin), \r\n\r\n\r\n        FeePool is not dealing with changing price, rather just acessing current price and totalBalance \r\n\r\n        Make feePool for AE coin\r\n    */\r\n\r\n    // Access to the totalSupply\r\n    // Enter FeePool / Leave FeePool\r\n}\r\n",
  "sourcePath": "C:/Users/kamto/code/contracts/contracts/FeePool.sol",
  "compiler": {
    "name": "solc",
    "version": "0.7.6+commit.7338295f.Emscripten.clang"
  },
  "schemaVersion": "3.3.4",
  "updatedAt": "2021-05-21T19:33:13.378Z",
  "devdoc": {
    "kind": "dev",
    "methods": {
      "getPool()": {
        "details": "get the amount in feePool"
      },
      "invest(uint256)": {
        "details": "invest into the pool, updating each owners stake and the pool",
        "params": {
          "_amount": "owner invests into the pool"
        }
      },
      "retract(uint256)": {
        "details": "transfers coins to owner"
      }
    },
    "version": 1
  },
  "userdoc": {
    "kind": "user",
    "methods": {},
    "version": 1
  }
}