{
  "contractName": "FinancialContractsAdmin",
  "abi": [
    {
      "anonymous": false,
      "inputs": [
        {
          "indexed": true,
          "internalType": "address",
          "name": "previousOwner",
          "type": "address"
        },
        {
          "indexed": true,
          "internalType": "address",
          "name": "newOwner",
          "type": "address"
        }
      ],
      "name": "OwnershipTransferred",
      "type": "event"
    },
    {
      "inputs": [],
      "name": "owner",
      "outputs": [
        {
          "internalType": "address",
          "name": "",
          "type": "address"
        }
      ],
      "stateMutability": "view",
      "type": "function",
      "constant": true
    },
    {
      "inputs": [],
      "name": "renounceOwnership",
      "outputs": [],
      "stateMutability": "nonpayable",
      "type": "function"
    },
    {
      "inputs": [
        {
          "internalType": "address",
          "name": "newOwner",
          "type": "address"
        }
      ],
      "name": "transferOwnership",
      "outputs": [],
      "stateMutability": "nonpayable",
      "type": "function"
    },
    {
      "inputs": [
        {
          "internalType": "address",
          "name": "financialContract",
          "type": "address"
        }
      ],
      "name": "callEmergencyShutdown",
      "outputs": [],
      "stateMutability": "nonpayable",
      "type": "function"
    },
    {
      "inputs": [
        {
          "internalType": "address",
          "name": "financialContract",
          "type": "address"
        }
      ],
      "name": "callRemargin",
      "outputs": [],
      "stateMutability": "nonpayable",
      "type": "function"
    }
  ],
  "bytecode": "0x608060405234801561001057600080fd5b50600080546001600160a01b031916339081178255604051909182917f8be0079c531659141344cd1fd0a4f28419497f9722a3daafe3b4186f6b6457e0908290a3506103ae806100616000396000f3fe608060405234801561001057600080fd5b50600436106100575760003560e01c80630caf41211461005c578063547e1c4014610071578063715018a6146100845780638da5cb5b1461008c578063f2fde38b146100ab575b600080fd5b61006f61006a366004610315565b6100be565b005b61006f61007f366004610315565b61014d565b61006f6101b7565b600054604080516001600160a01b039092168252519081900360200190f35b61006f6100b9366004610315565b61022b565b6000546001600160a01b031633146100f15760405162461bcd60e51b81526004016100e890610343565b60405180910390fd5b6000819050806001600160a01b0316633403c2fc6040518163ffffffff1660e01b8152600401600060405180830381600087803b15801561013157600080fd5b505af1158015610145573d6000803e3d6000fd5b505050505050565b6000546001600160a01b031633146101775760405162461bcd60e51b81526004016100e890610343565b6000819050806001600160a01b031663bda02e776040518163ffffffff1660e01b8152600401600060405180830381600087803b15801561013157600080fd5b6000546001600160a01b031633146101e15760405162461bcd60e51b81526004016100e890610343565b600080546040516001600160a01b03909116907f8be0079c531659141344cd1fd0a4f28419497f9722a3daafe3b4186f6b6457e0908390a3600080546001600160a01b0319169055565b6000546001600160a01b031633146102555760405162461bcd60e51b81526004016100e890610343565b6001600160a01b0381166102ba5760405162461bcd60e51b815260206004820152602660248201527f4f776e61626c653a206e6577206f776e657220697320746865207a65726f206160448201526564647265737360d01b60648201526084016100e8565b600080546040516001600160a01b03808516939216917f8be0079c531659141344cd1fd0a4f28419497f9722a3daafe3b4186f6b6457e091a3600080546001600160a01b0319166001600160a01b0392909216919091179055565b600060208284031215610326578081fd5b81356001600160a01b038116811461033c578182fd5b9392505050565b6020808252818101527f4f776e61626c653a2063616c6c6572206973206e6f7420746865206f776e657260408201526060019056fea264697066735822122054529b300ada08dbbc0e8d0b7021d739c1766134ba441ab6624d196d1d85589d64736f6c63430008040033",
  "immutableReferences": {},
  "source": "// SPDX-License-Identifier: AGPL-3.0-only\npragma solidity ^0.8.0;\n\nimport \"../interfaces/AdministrateeInterface.sol\";\nimport \"@openzeppelin/contracts/access/Ownable.sol\";\n\n/**\n * @title Admin for financial contracts in the UMA system.\n * @dev Allows appropriately permissioned admin roles to interact with financial contracts.\n */\ncontract FinancialContractsAdmin is Ownable {\n    /**\n     * @notice Calls emergency shutdown on the provided financial contract.\n     * @param financialContract address of the FinancialContract to be shut down.\n     */\n    function callEmergencyShutdown(address financialContract) external onlyOwner {\n        AdministrateeInterface administratee = AdministrateeInterface(financialContract);\n        administratee.emergencyShutdown();\n    }\n\n    /**\n     * @notice Calls remargin on the provided financial contract.\n     * @param financialContract address of the FinancialContract to be remargined.\n     */\n    function callRemargin(address financialContract) external onlyOwner {\n        AdministrateeInterface administratee = AdministrateeInterface(financialContract);\n        administratee.remargin();\n    }\n}\n",
  "sourcePath": "/home/kamto/code/protocol/packages/core/contracts/oracle/implementation/FinancialContractsAdmin.sol",
  "compiler": {
    "name": "solc",
    "version": "0.8.4+commit.c7e474f2.Emscripten.clang"
  },
  "schemaVersion": "3.3.4",
  "updatedAt": "2021-05-07T21:32:53.109Z",
  "networkType": "ethereum",
  "devdoc": {
    "details": "Allows appropriately permissioned admin roles to interact with financial contracts.",
    "kind": "dev",
    "methods": {
      "callEmergencyShutdown(address)": {
        "params": {
          "financialContract": "address of the FinancialContract to be shut down."
        }
      },
      "callRemargin(address)": {
        "params": {
          "financialContract": "address of the FinancialContract to be remargined."
        }
      },
      "owner()": {
        "details": "Returns the address of the current owner."
      },
      "renounceOwnership()": {
        "details": "Leaves the contract without owner. It will not be possible to call `onlyOwner` functions anymore. Can only be called by the current owner. NOTE: Renouncing ownership will leave the contract without an owner, thereby removing any functionality that is only available to the owner."
      },
      "transferOwnership(address)": {
        "details": "Transfers ownership of the contract to a new account (`newOwner`). Can only be called by the current owner."
      }
    },
    "title": "Admin for financial contracts in the UMA system.",
    "version": 1
  },
  "userdoc": {
    "kind": "user",
    "methods": {
      "callEmergencyShutdown(address)": {
        "notice": "Calls emergency shutdown on the provided financial contract."
      },
      "callRemargin(address)": {
        "notice": "Calls remargin on the provided financial contract."
      }
    },
    "version": 1
  }
}