{
  "contractName": "Finder",
  "abi": [
    {
      "anonymous": false,
      "inputs": [
        {
          "indexed": true,
          "internalType": "bytes32",
          "name": "interfaceName",
          "type": "bytes32"
        },
        {
          "indexed": true,
          "internalType": "address",
          "name": "newImplementationAddress",
          "type": "address"
        }
      ],
      "name": "InterfaceImplementationChanged",
      "type": "event"
    },
    {
      "anonymous": false,
      "inputs": [
        {
          "indexed": true,
          "internalType": "address",
          "name": "previousOwner",
          "type": "address"
        },
        {
          "indexed": true,
          "internalType": "address",
          "name": "newOwner",
          "type": "address"
        }
      ],
      "name": "OwnershipTransferred",
      "type": "event"
    },
    {
      "inputs": [
        {
          "internalType": "bytes32",
          "name": "",
          "type": "bytes32"
        }
      ],
      "name": "interfacesImplemented",
      "outputs": [
        {
          "internalType": "address",
          "name": "",
          "type": "address"
        }
      ],
      "stateMutability": "view",
      "type": "function",
      "constant": true
    },
    {
      "inputs": [],
      "name": "owner",
      "outputs": [
        {
          "internalType": "address",
          "name": "",
          "type": "address"
        }
      ],
      "stateMutability": "view",
      "type": "function",
      "constant": true
    },
    {
      "inputs": [],
      "name": "renounceOwnership",
      "outputs": [],
      "stateMutability": "nonpayable",
      "type": "function"
    },
    {
      "inputs": [
        {
          "internalType": "address",
          "name": "newOwner",
          "type": "address"
        }
      ],
      "name": "transferOwnership",
      "outputs": [],
      "stateMutability": "nonpayable",
      "type": "function"
    },
    {
      "inputs": [
        {
          "internalType": "bytes32",
          "name": "interfaceName",
          "type": "bytes32"
        },
        {
          "internalType": "address",
          "name": "implementationAddress",
          "type": "address"
        }
      ],
      "name": "changeImplementationAddress",
      "outputs": [],
      "stateMutability": "nonpayable",
      "type": "function"
    },
    {
      "inputs": [
        {
          "internalType": "bytes32",
          "name": "interfaceName",
          "type": "bytes32"
        }
      ],
      "name": "getImplementationAddress",
      "outputs": [
        {
          "internalType": "address",
          "name": "",
          "type": "address"
        }
      ],
      "stateMutability": "view",
      "type": "function",
      "constant": true
    }
  ],
  "bytecode": "0x608060405234801561001057600080fd5b50600080546001600160a01b031916339081178255604051909182917f8be0079c531659141344cd1fd0a4f28419497f9722a3daafe3b4186f6b6457e0908290a35061043c806100616000396000f3fe608060405234801561001057600080fd5b50600436106100625760003560e01c806331f9665e14610067578063715018a61461007c5780638da5cb5b14610084578063aafd5e40146100ad578063cc48f4db146100c0578063f2fde38b146100e9575b600080fd5b61007a6100753660046103a6565b6100fc565b005b61007a610188565b6000546001600160a01b03165b6040516001600160a01b03909116815260200160405180910390f35b6100916100bb36600461038e565b6101fc565b6100916100ce36600461038e565b6001602052600090815260409020546001600160a01b031681565b61007a6100f736600461036d565b610267565b6000546001600160a01b0316331461012f5760405162461bcd60e51b8152600401610126906103d1565b60405180910390fd5b60008281526001602052604080822080546001600160a01b0319166001600160a01b0385169081179091559051909184917fb29aa13e555039289e0513962835b00fcc6e4a265ae8f99e68e5b90d5406fe489190a35050565b6000546001600160a01b031633146101b25760405162461bcd60e51b8152600401610126906103d1565b600080546040516001600160a01b03909116907f8be0079c531659141344cd1fd0a4f28419497f9722a3daafe3b4186f6b6457e0908390a3600080546001600160a01b0319169055565b6000818152600160205260408120546001600160a01b0316806102615760405162461bcd60e51b815260206004820152601860248201527f496d706c656d656e746174696f6e206e6f7420666f756e6400000000000000006044820152606401610126565b92915050565b6000546001600160a01b031633146102915760405162461bcd60e51b8152600401610126906103d1565b6001600160a01b0381166102f65760405162461bcd60e51b815260206004820152602660248201527f4f776e61626c653a206e6577206f776e657220697320746865207a65726f206160448201526564647265737360d01b6064820152608401610126565b600080546040516001600160a01b03808516939216917f8be0079c531659141344cd1fd0a4f28419497f9722a3daafe3b4186f6b6457e091a3600080546001600160a01b0319166001600160a01b0392909216919091179055565b80356001600160a01b038116811461036857600080fd5b919050565b60006020828403121561037e578081fd5b61038782610351565b9392505050565b60006020828403121561039f578081fd5b5035919050565b600080604083850312156103b8578081fd5b823591506103c860208401610351565b90509250929050565b6020808252818101527f4f776e61626c653a2063616c6c6572206973206e6f7420746865206f776e657260408201526060019056fea2646970667358221220dc0956a66b3169dc5c044f5ee7bfeb330c0703092f26f0534d5d8c5b4f89d65464736f6c63430008040033",
  "immutableReferences": {},
  "source": "// SPDX-License-Identifier: AGPL-3.0-only\npragma solidity ^0.8.0;\n\nimport \"@openzeppelin/contracts/access/Ownable.sol\";\nimport \"../interfaces/FinderInterface.sol\";\n\n/**\n * @title Provides addresses of the live contracts implementing certain interfaces.\n * @dev Examples of interfaces with implementations that Finder locates are the Oracle and Store interfaces.\n */\ncontract Finder is FinderInterface, Ownable {\n    mapping(bytes32 => address) public interfacesImplemented;\n\n    event InterfaceImplementationChanged(bytes32 indexed interfaceName, address indexed newImplementationAddress);\n\n    /**\n     * @notice Updates the address of the contract that implements `interfaceName`.\n     * @param interfaceName bytes32 of the interface name that is either changed or registered.\n     * @param implementationAddress address of the implementation contract.\n     */\n    function changeImplementationAddress(bytes32 interfaceName, address implementationAddress)\n        external\n        override\n        onlyOwner\n    {\n        interfacesImplemented[interfaceName] = implementationAddress;\n\n        emit InterfaceImplementationChanged(interfaceName, implementationAddress);\n    }\n\n    /**\n     * @notice Gets the address of the contract that implements the given `interfaceName`.\n     * @param interfaceName queried interface.\n     * @return implementationAddress address of the defined interface.\n     */\n    function getImplementationAddress(bytes32 interfaceName) external view override returns (address) {\n        address implementationAddress = interfacesImplemented[interfaceName];\n        require(implementationAddress != address(0x0), \"Implementation not found\");\n        return implementationAddress;\n    }\n}\n",
  "sourcePath": "/home/kamto/code/protocol/packages/core/contracts/oracle/implementation/Finder.sol",
  "compiler": {
    "name": "solc",
    "version": "0.8.4+commit.c7e474f2.Emscripten.clang"
  },
  "schemaVersion": "3.3.4",
  "updatedAt": "2021-05-07T22:22:58.971Z",
  "networkType": "ethereum",
  "devdoc": {
    "details": "Examples of interfaces with implementations that Finder locates are the Oracle and Store interfaces.",
    "kind": "dev",
    "methods": {
      "changeImplementationAddress(bytes32,address)": {
        "params": {
          "implementationAddress": "address of the implementation contract.",
          "interfaceName": "bytes32 of the interface name that is either changed or registered."
        }
      },
      "getImplementationAddress(bytes32)": {
        "params": {
          "interfaceName": "queried interface."
        },
        "returns": {
          "_0": "implementationAddress address of the defined interface."
        }
      },
      "owner()": {
        "details": "Returns the address of the current owner."
      },
      "renounceOwnership()": {
        "details": "Leaves the contract without owner. It will not be possible to call `onlyOwner` functions anymore. Can only be called by the current owner. NOTE: Renouncing ownership will leave the contract without an owner, thereby removing any functionality that is only available to the owner."
      },
      "transferOwnership(address)": {
        "details": "Transfers ownership of the contract to a new account (`newOwner`). Can only be called by the current owner."
      }
    },
    "title": "Provides addresses of the live contracts implementing certain interfaces.",
    "version": 1
  },
  "userdoc": {
    "kind": "user",
    "methods": {
      "changeImplementationAddress(bytes32,address)": {
        "notice": "Updates the address of the contract that implements `interfaceName`."
      },
      "getImplementationAddress(bytes32)": {
        "notice": "Gets the address of the contract that implements the given `interfaceName`."
      }
    },
    "version": 1
  }
}