{
  "contractName": "FundingRateApplierTest",
  "abi": [
    {
      "inputs": [
        {
          "internalType": "bytes32",
          "name": "_fundingRateIdentifier",
          "type": "bytes32"
        },
        {
          "internalType": "address",
          "name": "_collateralAddress",
          "type": "address"
        },
        {
          "internalType": "address",
          "name": "_finderAddress",
          "type": "address"
        },
        {
          "internalType": "address",
          "name": "_configStoreAddress",
          "type": "address"
        },
        {
          "components": [
            {
              "internalType": "uint256",
              "name": "rawValue",
              "type": "uint256"
            }
          ],
          "internalType": "struct FixedPoint.Unsigned",
          "name": "_tokenScaling",
          "type": "tuple"
        },
        {
          "internalType": "address",
          "name": "_timerAddress",
          "type": "address"
        }
      ],
      "stateMutability": "nonpayable",
      "type": "constructor"
    },
    {
      "anonymous": false,
      "inputs": [
        {
          "indexed": true,
          "internalType": "uint256",
          "name": "amount",
          "type": "uint256"
        }
      ],
      "name": "FinalFeesPaid",
      "type": "event"
    },
    {
      "anonymous": false,
      "inputs": [
        {
          "indexed": false,
          "internalType": "int256",
          "name": "newFundingRate",
          "type": "int256"
        },
        {
          "indexed": true,
          "internalType": "uint256",
          "name": "updateTime",
          "type": "uint256"
        },
        {
          "indexed": false,
          "internalType": "uint256",
          "name": "reward",
          "type": "uint256"
        }
      ],
      "name": "FundingRateUpdated",
      "type": "event"
    },
    {
      "anonymous": false,
      "inputs": [
        {
          "indexed": true,
          "internalType": "uint256",
          "name": "regularFee",
          "type": "uint256"
        },
        {
          "indexed": true,
          "internalType": "uint256",
          "name": "lateFee",
          "type": "uint256"
        }
      ],
      "name": "RegularFeesPaid",
      "type": "event"
    },
    {
      "inputs": [],
      "name": "applyFundingRate",
      "outputs": [],
      "stateMutability": "nonpayable",
      "type": "function"
    },
    {
      "inputs": [],
      "name": "collateralCurrency",
      "outputs": [
        {
          "internalType": "contract IERC20",
          "name": "",
          "type": "address"
        }
      ],
      "stateMutability": "view",
      "type": "function"
    },
    {
      "inputs": [],
      "name": "configStore",
      "outputs": [
        {
          "internalType": "contract ConfigStoreInterface",
          "name": "",
          "type": "address"
        }
      ],
      "stateMutability": "view",
      "type": "function"
    },
    {
      "inputs": [],
      "name": "cumulativeFeeMultiplier",
      "outputs": [
        {
          "internalType": "uint256",
          "name": "rawValue",
          "type": "uint256"
        }
      ],
      "stateMutability": "view",
      "type": "function"
    },
    {
      "inputs": [],
      "name": "emergencyShutdownTimestamp",
      "outputs": [
        {
          "internalType": "uint256",
          "name": "",
          "type": "uint256"
        }
      ],
      "stateMutability": "view",
      "type": "function"
    },
    {
      "inputs": [],
      "name": "finder",
      "outputs": [
        {
          "internalType": "contract FinderInterface",
          "name": "",
          "type": "address"
        }
      ],
      "stateMutability": "view",
      "type": "function"
    },
    {
      "inputs": [],
      "name": "fundingRate",
      "outputs": [
        {
          "components": [
            {
              "internalType": "int256",
              "name": "rawValue",
              "type": "int256"
            }
          ],
          "internalType": "struct FixedPoint.Signed",
          "name": "rate",
          "type": "tuple"
        },
        {
          "internalType": "bytes32",
          "name": "identifier",
          "type": "bytes32"
        },
        {
          "components": [
            {
              "internalType": "uint256",
              "name": "rawValue",
              "type": "uint256"
            }
          ],
          "internalType": "struct FixedPoint.Unsigned",
          "name": "cumulativeMultiplier",
          "type": "tuple"
        },
        {
          "internalType": "uint256",
          "name": "updateTime",
          "type": "uint256"
        },
        {
          "internalType": "uint256",
          "name": "applicationTime",
          "type": "uint256"
        },
        {
          "internalType": "uint256",
          "name": "proposalTime",
          "type": "uint256"
        }
      ],
      "stateMutability": "view",
      "type": "function"
    },
    {
      "inputs": [],
      "name": "getCurrentTime",
      "outputs": [
        {
          "internalType": "uint256",
          "name": "",
          "type": "uint256"
        }
      ],
      "stateMutability": "view",
      "type": "function"
    },
    {
      "inputs": [
        {
          "internalType": "uint256",
          "name": "time",
          "type": "uint256"
        }
      ],
      "name": "getOutstandingRegularFees",
      "outputs": [
        {
          "components": [
            {
              "internalType": "uint256",
              "name": "rawValue",
              "type": "uint256"
            }
          ],
          "internalType": "struct FixedPoint.Unsigned",
          "name": "regularFee",
          "type": "tuple"
        },
        {
          "components": [
            {
              "internalType": "uint256",
              "name": "rawValue",
              "type": "uint256"
            }
          ],
          "internalType": "struct FixedPoint.Unsigned",
          "name": "latePenalty",
          "type": "tuple"
        },
        {
          "components": [
            {
              "internalType": "uint256",
              "name": "rawValue",
              "type": "uint256"
            }
          ],
          "internalType": "struct FixedPoint.Unsigned",
          "name": "totalPaid",
          "type": "tuple"
        }
      ],
      "stateMutability": "view",
      "type": "function"
    },
    {
      "inputs": [],
      "name": "gulp",
      "outputs": [],
      "stateMutability": "nonpayable",
      "type": "function"
    },
    {
      "inputs": [],
      "name": "payRegularFees",
      "outputs": [
        {
          "components": [
            {
              "internalType": "uint256",
              "name": "rawValue",
              "type": "uint256"
            }
          ],
          "internalType": "struct FixedPoint.Unsigned",
          "name": "",
          "type": "tuple"
        }
      ],
      "stateMutability": "nonpayable",
      "type": "function"
    },
    {
      "inputs": [],
      "name": "pfc",
      "outputs": [
        {
          "components": [
            {
              "internalType": "uint256",
              "name": "rawValue",
              "type": "uint256"
            }
          ],
          "internalType": "struct FixedPoint.Unsigned",
          "name": "",
          "type": "tuple"
        }
      ],
      "stateMutability": "view",
      "type": "function"
    },
    {
      "inputs": [
        {
          "components": [
            {
              "internalType": "int256",
              "name": "rawValue",
              "type": "int256"
            }
          ],
          "internalType": "struct FixedPoint.Signed",
          "name": "rate",
          "type": "tuple"
        },
        {
          "internalType": "uint256",
          "name": "timestamp",
          "type": "uint256"
        }
      ],
      "name": "proposeFundingRate",
      "outputs": [
        {
          "components": [
            {
              "internalType": "uint256",
              "name": "rawValue",
              "type": "uint256"
            }
          ],
          "internalType": "struct FixedPoint.Unsigned",
          "name": "totalBond",
          "type": "tuple"
        }
      ],
      "stateMutability": "nonpayable",
      "type": "function"
    },
    {
      "inputs": [
        {
          "internalType": "uint256",
          "name": "time",
          "type": "uint256"
        }
      ],
      "name": "setCurrentTime",
      "outputs": [],
      "stateMutability": "nonpayable",
      "type": "function"
    },
    {
      "inputs": [],
      "name": "timerAddress",
      "outputs": [
        {
          "internalType": "address",
          "name": "",
          "type": "address"
        }
      ],
      "stateMutability": "view",
      "type": "function"
    },
    {
      "inputs": [
        {
          "internalType": "uint256",
          "name": "paymentPeriodSeconds",
          "type": "uint256"
        },
        {
          "components": [
            {
              "internalType": "int256",
              "name": "rawValue",
              "type": "int256"
            }
          ],
          "internalType": "struct FixedPoint.Signed",
          "name": "fundingRatePerSecond",
          "type": "tuple"
        },
        {
          "components": [
            {
              "internalType": "uint256",
              "name": "rawValue",
              "type": "uint256"
            }
          ],
          "internalType": "struct FixedPoint.Unsigned",
          "name": "currentCumulativeFundingRateMultiplier",
          "type": "tuple"
        }
      ],
      "name": "calculateEffectiveFundingRate",
      "outputs": [
        {
          "components": [
            {
              "internalType": "uint256",
              "name": "rawValue",
              "type": "uint256"
            }
          ],
          "internalType": "struct FixedPoint.Unsigned",
          "name": "",
          "type": "tuple"
        }
      ],
      "stateMutability": "pure",
      "type": "function"
    },
    {
      "inputs": [],
      "name": "emergencyShutdown",
      "outputs": [],
      "stateMutability": "nonpayable",
      "type": "function"
    },
    {
      "inputs": [],
      "name": "remargin",
      "outputs": [],
      "stateMutability": "nonpayable",
      "type": "function"
    }
  ],
  "bytecode": "0x60806040523480156200001157600080fd5b506040516200246d3803806200246d83398101604081905262000034916200022c565b60008055600180546001600160a81b0319166001600160a01b0380841691909117600160a01b17909155600280548288166001600160a01b0319918216179091556003805492871692909116919091179055858585858585848482620000996200010d565b600481905550620000b66001620001b660201b62000aad1760201c565b516005555060009150620000cb90506200010d565b6009819055600a555050516008556007939093555050600c80546001600160a01b0319166001600160a01b039092169190911790555062000327945050505050565b6001546000906001600160a01b031615620001b157600160009054906101000a90046001600160a01b03166001600160a01b03166329cb924d6040518163ffffffff1660e01b815260040160206040518083038186803b1580156200017157600080fd5b505afa15801562000186573d6000803e3d6000fd5b505050506040513d601f19601f82011682018060405250810190620001ac9190620002e2565b905090565b504290565b6040805160208101909152600081526040518060200160405280620001f2670de0b6b3a764000085620001fa60201b62000ae21790919060201c565b905292915050565b6000620002088284620002fb565b9392505050565b80516001600160a01b03811681146200022757600080fd5b919050565b60008060008060008086880360c081121562000246578283fd5b8751965062000258602089016200020f565b955062000268604089016200020f565b945062000278606089016200020f565b93506020607f19820112156200028c578283fd5b50604051602081016001600160401b0381118282101715620002bc57634e487b7160e01b84526041600452602484fd5b604052608088015181529150620002d660a088016200020f565b90509295509295509295565b600060208284031215620002f4578081fd5b5051919050565b60008160001904831182151516156200032257634e487b7160e01b81526011600452602481fd5b500290565b61213680620003376000396000f3fe608060405234801561001057600080fd5b50600436106101165760003560e01c806371f3c1b7116100a25780639e4efaa0116100715780639e4efaa01461024e578063b9a3c84c1461027d578063bda02e7714610171578063c8aa07bd14610290578063dd0eef3d146102a357600080fd5b806371f3c1b71461022357806381a10ae11461022b57806394909e62146102335780639d69dc4e1461023b57600080fd5b80633403c2fc116100e95780633403c2fc1461017157806334c49556146101895780633cb6ce83146101ab57806341d3c84c146101b35780636cf1be291461021a57600080fd5b80630de15fd91461011b5780631c39c38d1461014b57806322f8e5661461015e57806329cb924d14610173575b600080fd5b60025461012e906001600160a01b031681565b6040516001600160a01b0390911681526020015b60405180910390f35b60015461012e906001600160a01b031681565b61017161016c366004611ce8565b6102ad565b005b61017b610323565b604051908152602001610142565b61019c610197366004611c8a565b6103cc565b60405190518152602001610142565b61019c610713565b6040805160208082018352600654825260075483519182019093526008548152600954600a54600b546101e7959392919086565b604080519651875260208701959095529251938501939093526060840152608083019190915260a082015260c001610142565b61017b60005481565b61017161089b565b61019c6108ce565b6101716108ed565b600c5461012e906001600160a01b031681565b61026161025c366004611ce8565b61090f565b6040805193518452915160208401525190820152606001610142565b60035461012e906001600160a01b031681565b61019c61029e366004611d00565b610a89565b60055461017b9081565b6001546001600160a01b03166102c257600080fd5b60015460405163117c72b360e11b8152600481018390526001600160a01b03909116906322f8e56690602401600060405180830381600087803b15801561030857600080fd5b505af115801561031c573d6000803e3d6000fd5b5050505050565b6001546000906001600160a01b0316156103c257600160009054906101000a90046001600160a01b03166001600160a01b03166329cb924d6040518163ffffffff1660e01b815260040160206040518083038186803b15801561038557600080fd5b505afa158015610399573d6000803e3d6000fd5b505050506040513d601f19601f820116820180604052508101906103bd9190611b13565b905090565b504290565b90565b565b6040805160208101909152600081526103e361089b565b6103eb610aee565b6103fd6001805460ff60a01b19169055565b600b54156104495760405162461bcd60e51b815260206004820152601460248201527350726f706f73616c20696e2070726f677265737360601b60448201526064015b60405180910390fd5b61045283610b47565b600061045c610323565b60095490915080841180156104865750610482610477610b88565b60a001518390610c18565b8410155b6104ca5760405162461bcd60e51b8152602060048201526015602482015274496e76616c69642070726f706f73616c2074696d6560581b6044820152606401610440565b600b84905560006104d9610c24565b60075490915060006104e9610cb4565b6002546040516311df92f160e01b81529192506001600160a01b03808616926311df92f1926105259287928d9288921690600090600401611e71565b602060405180830381600087803b15801561053f57600080fd5b505af1158015610553573d6000803e3d6000fd5b505050506040513d601f19601f820116820180604052508101906105779190611b13565b506040518060200160405280846001600160a01b031663ad5a755a858b866105b26105a0610b88565b604001516105ac610d04565b90610d9f565b516040516001600160e01b031960e087901b1681526105d79493929190600401611ead565b602060405180830381600087803b1580156105f157600080fd5b505af1158015610605573d6000803e3d6000fd5b505050506040513d601f19601f820116820180604052508101906106299190611b13565b90529550610638866000610de5565b1561067757855160025461065b916001600160a01b039091169033903090610dfc565b8551600254610677916001600160a01b03909116908590610e6d565b8751604051637c82288f60e01b81526001600160a01b03851691637c82288f916106ad913391309188918e918991600401611dc5565b602060405180830381600087803b1580156106c757600080fd5b505af11580156106db573d6000803e3d6000fd5b505050506040513d601f19601f820116820180604052508101906106ff9190611b13565b50505050505061070d610f2e565b92915050565b60408051602081019091526000815261072a610aee565b61073c6001805460ff60a01b19169055565b6000610746610323565b90506000610752610d04565b905060008060006107628561090f565b600488905591945092509050610779816000610f43565b1561078a5794506108939350505050565b815183516040517f19b92e73d08d517d71ec46136266e4f5d526a8cd4f8501d73713cebfe4f335ef90600090a36107c18185610f5a565b6107cc836000610de5565b156108605760006107db610f9e565b84516002549192506107f8916001600160a01b0316908390610e6d565b60025460405163432ce91960e11b81526001600160a01b0391821660048201528551602482015290821690638659d23290604401600060405180830381600087803b15801561084657600080fd5b505af115801561085a573d6000803e3d6000fd5b50505050505b61086b826000610de5565b1561088c57815160025461088c916001600160a01b03909116903390610fd7565b9450505050505b6103c7610f2e565b6108a3610713565b506108ac610aee565b6108be6001805460ff60a01b19169055565b6108c661100c565b6103ca610f2e565b6040805160208101909152600081526108e5610aee565b6103bd610d04565b6108f5610aee565b6109076001805460ff60a01b19169055565b6108c6611071565b6040805160208101909152600081526040805160208101909152600081526040805160208101909152600081526000610946610f9e565b90506000610952610d04565b905061095f816000610f43565b8061096b575085600454145b15610977575050610a82565b600480546040516374201feb60e01b81529182015260248101879052815160448201526001600160a01b038316906374201feb90606401604080518083038186803b1580156109c557600080fd5b505afa1580156109d9573d6000803e3d6000fd5b505050506040513d601f19601f820116820180604052508101906109fd9190611cb4565b9095509350610a0c8585611131565b9250610a19836000610f43565b15610a25575050610a82565b805183511115610a7f576000610a3b848361115b565b90506000610a498683611185565b9050610a55868261115b565b9550610a61828261115b565b9150610a77610a708884611185565b889061115b565b965082945050505b50505b9193909250565b604080516020810190915260008152610aa38484846111aa565b90505b9392505050565b604080516020810190915260008152604080516020810190915280610ada84670de0b6b3a7640000610ae2565b905292915050565b6000610aa68284612049565b600154600160a01b900460ff166103ca5760405162461bcd60e51b815260206004820152601f60248201527f5265656e7472616e637947756172643a207265656e7472616e742063616c6c006044820152606401610440565b610b5e610b52610b88565b60600151518251131590565b8015610b7c5750610b7c610b70610b88565b60800151518251121590565b610b8557600080fd5b50565b610b906119f1565b600c60009054906101000a90046001600160a01b03166001600160a01b031663145701f86040518163ffffffff1660e01b815260040160c060405180830381600087803b158015610be057600080fd5b505af1158015610bf4573d6000803e3d6000fd5b505050506040513d601f19601f820116820180604052508101906103bd9190611b2b565b6000610aa68284612068565b6003546040516302abf57960e61b81526f4f7074696d69737469634f7261636c6560801b60048201526000916001600160a01b03169063aafd5e40906024015b60206040518083038186803b158015610c7c57600080fd5b505afa158015610c90573d6000803e3d6000fd5b505050506040513d601f19601f820116820180604052508101906103bd9190611add565b6060610cc86002546001600160a01b031690565b604051602001610cf0919060609190911b6bffffffffffffffffffffffff1916815260140190565b604051602081830303815290604052905090565b6040805160208101909152600081526040805160208101918290526002546370a0823160e01b9092523060248201529081906001600160a01b03166370a082316044830160206040518083038186803b158015610d6057600080fd5b505afa158015610d74573d6000803e3d6000fd5b505050506040513d601f19601f82011682018060405250810190610d989190611b13565b9052919050565b6040805160208101909152600081526040805160208101909152825184518291670de0b6b3a764000091610dd291610ae2565b610ddc9190611fb2565b90529392505050565b6000610df082610aad565b51835111905092915050565b6040516001600160a01b0380851660248301528316604482015260648101829052610e679085906323b872dd60e01b906084015b60408051601f198184030181529190526020810180516001600160e01b03166001600160e01b031990931692909217909152611221565b50505050565b604051636eb1769f60e11b81523060048201526001600160a01b038381166024830152600091839186169063dd62ed3e9060440160206040518083038186803b158015610eb957600080fd5b505afa158015610ecd573d6000803e3d6000fd5b505050506040513d601f19601f82011682018060405250810190610ef19190611b13565b610efb9190611f9a565b6040516001600160a01b038516602482015260448101829052909150610e6790859063095ea7b360e01b90606401610e30565b6001805460ff60a01b1916600160a01b179055565b6000610f4e82610aad565b51835114905092915050565b6000610f6683836112f3565b9050610f95610f7f82610f796001610aad565b9061115b565b6040805160208101909152600554815290610d9f565b51600555505050565b6003546040516302abf57960e61b81526453746f726560d81b60048201526000916001600160a01b03169063aafd5e4090602401610c64565b6040516001600160a01b03831660248201526044810182905261100790849063a9059cbb60e01b90606401610e30565b505050565b6000541561101657565b6000611020610323565b600a54909150600090611034908390610c18565b905061103e611382565b6040805160208082018352600654825282519081019092526008548252611067918391906111aa565b5160085550600a55565b600061107b610d04565b6040805160208101918290526002546370a0823160e01b9092523060248201529192506000919081906001600160a01b03166370a082316044830160206040518083038186803b1580156110ce57600080fd5b505afa1580156110e2573d6000803e3d6000fd5b505050506040513d601f19601f820116820180604052508101906111069190611b13565b9052905061111682825190511090565b1561112d57611128610f7f828461166c565b516005555b5050565b6040805160208101909152600081526040805160208101909152825184518291610ddc91906116a8565b6040805160208101909152600081526040805160208101909152825184518291610ddc9190610c18565b60408051602081019091526000815281518351106111a35781610aa6565b5090919050565b60408051602081019091526000815260006111c560016116b4565b905060006111dc6111d5876116e1565b869061174b565b905060006111ea8383611773565b90506000611209611204836111ff60006116b4565b61179d565b6117bb565b90506112158682610d9f565b98975050505050505050565b6000611276826040518060400160405280602081526020017f5361666545524332303a206c6f772d6c6576656c2063616c6c206661696c6564815250856001600160a01b03166118299092919063ffffffff16565b80519091501561100757808060200190518101906112949190611af9565b6110075760405162461bcd60e51b815260206004820152602a60248201527f5361666545524332303a204552433230206f7065726174696f6e20646964206e6044820152691bdd081cdd58d8d9595960b21b6064820152608401610440565b60408051602081019091526000808252835161131790670de0b6b3a7640000610ae2565b835190915060009061132a908390611838565b845190915060009061133d908490611844565b905080156113695760408051602081019091528061135c8460016116a8565b815250935050505061070d565b604051806020016040528083815250935050505061070d565b600b548015610b85576000611395610c24565b60075490915060006113a5610cb4565b6040516353b5923960e01b81529091506001600160a01b038416906353b59239906113d890859088908690600401611e49565b602060405180830381600087803b1580156113f257600080fd5b505af1925050508015611422575060408051601f3d908101601f1916820190925261141f91810190611b13565b60015b6114e35760405163a9904f9b60e01b81526000906001600160a01b0385169063a9904f9b9061145b90309087908a908890600401611e12565b6101806040518083038186803b15801561147457600080fd5b505afa158015611488573d6000803e3d6000fd5b505050506040513d601f19601f820116820180604052508101906114ac9190611bce565b60208101519091506001600160a01b03161515806114d2575080516001600160a01b0316155b156114dd576000600b555b50610e67565b60095480861061165f57604080516020810190915282905260068290556009869055600061151081610aad565b90506000866001600160a01b031663a9904f9b30888b896040518563ffffffff1660e01b81526004016115469493929190611e12565b6101806040518083038186803b15801561155f57600080fd5b505afa158015611573573d6000803e3d6000fd5b505050506040513d601f19601f820116820180604052508101906115979190611bce565b60208101519091506001600160a01b0316611615576115d66115b98985610c18565b6115d06115c4610b88565b602001516105ac610d04565b90611850565b91506115e3826000610de5565b15611615576115f9826115f4610d04565b610f5a565b80518251600254611615926001600160a01b0390911691610fd7565b60095460065483516040517fee568d08fdf25d8d2f01948f7ba3dc157176924ef7312d148584409333f0d8cd9261165492908252602082015260400190565b60405180910390a250505b50506000600b5550505050565b6040805160208101909152600081526040805160208101909152825184518291610ddc916116a290670de0b6b3a7640000610ae2565b90611838565b6000610aa68284611f9a565b604080516020810190915260008152604080516020810190915280610ada84670de0b6b3a7640000611878565b6000600160ff1b82106117475760405162461bcd60e51b815260206004820152602860248201527f53616665436173743a2076616c756520646f65736e27742066697420696e2061604482015267371034b73a191a9b60c11b6064820152608401610440565b5090565b604080516020810190915260008152604080516020810190915283518190610ddc9085611878565b6040805160208101909152600081526040805160208101909152825184518291610ddc9190611884565b60408051602081019091526000815281518351136111a35781610aa6565b6040805160208101909152600081528151600013156118165760405162461bcd60e51b8152602060048201526017602482015276139959d85d1a5d99481d985b1d59481c1c9bdd9a591959604a1b6044820152606401610440565b5060408051602081019091529051815290565b6060610aa38484600085611890565b6000610aa68284611fb2565b6000610aa682846120ab565b604080516020810190915260008152604080516020810190915283518190610ddc9085610ae2565b6000610aa68284611fc6565b6000610aa68284611f59565b6060824710156118f15760405162461bcd60e51b815260206004820152602660248201527f416464726573733a20696e73756666696369656e742062616c616e636520666f6044820152651c8818d85b1b60d21b6064820152608401610440565b843b61193f5760405162461bcd60e51b815260206004820152601d60248201527f416464726573733a2063616c6c20746f206e6f6e2d636f6e74726163740000006044820152606401610440565b600080866001600160a01b0316858760405161195b9190611da9565b60006040518083038185875af1925050503d8060008114611998576040519150601f19603f3d011682016040523d82523d6000602084013e61199d565b606091505b50915091506119ad8282866119b8565b979650505050505050565b606083156119c7575081610aa6565b8251156119d75782518084602001fd5b8160405162461bcd60e51b81526004016104409190611edd565b6040518060c0016040528060008152602001611a196040518060200160405280600081525090565b8152602001611a346040518060200160405280600081525090565b8152602001611a4f6040518060200160405280600081525090565b8152602001611a6a6040518060200160405280600081525090565b8152602001600081525090565b8051611a82816120eb565b919050565b80518015158114611a8257600080fd5b600060208284031215611aa8578081fd5b611ab0611ef0565b9135825250919050565b600060208284031215611acb578081fd5b611ad3611ef0565b9151825250919050565b600060208284031215611aee578081fd5b8151610aa6816120eb565b600060208284031215611b0a578081fd5b610aa682611a87565b600060208284031215611b24578081fd5b5051919050565b600060c08284031215611b3c578081fd5b60405160c0810181811067ffffffffffffffff82111715611b6b57634e487b7160e01b83526041600452602483fd5b60405282518152611b7f8460208501611aba565b6020820152611b918460408501611aba565b6040820152611ba38460608501611aba565b6060820152611bb58460808501611aba565b608082015260a083015160a08201528091505092915050565b60006101808284031215611be0578081fd5b611be8611f27565b611bf183611a77565b8152611bff60208401611a77565b6020820152611c1060408401611a77565b6040820152611c2160608401611a87565b6060820152611c3260808401611a87565b608082015260a0838101519082015260c0808401519082015260e08084015190820152610100808401519082015261012080840151908201526101408084015190820152610160928301519281019290925250919050565b60008060408385031215611c9c578081fd5b611ca68484611a97565b946020939093013593505050565b60008060408385031215611cc6578182fd5b611cd08484611aba565b9150611cdf8460208501611aba565b90509250929050565b600060208284031215611cf9578081fd5b5035919050565b60008060008385036060811215611d15578182fd5b84359350611d268660208701611a97565b92506020603f1982011215611d39578182fd5b506040516020810181811067ffffffffffffffff82111715611d6957634e487b7160e01b83526041600452602483fd5b604090815294909401358452509093909250565b60008151808452611d9581602086016020860161207f565b601f01601f19169290920160200192915050565b60008251611dbb81846020870161207f565b9190910192915050565b6001600160a01b03878116825286166020820152604081018590526060810184905260c060808201819052600090611dff90830185611d7d565b90508260a0830152979650505050505050565b60018060a01b0385168152836020820152826040820152608060608201526000611e3f6080830184611d7d565b9695505050505050565b838152826020820152606060408201526000611e686060830184611d7d565b95945050505050565b85815284602082015260a060408201526000611e9060a0830186611d7d565b6001600160a01b0394909416606083015250608001529392505050565b848152836020820152608060408201526000611ecc6080830185611d7d565b905082606083015295945050505050565b602081526000610aa66020830184611d7d565b6040516020810167ffffffffffffffff81118282101715611f2157634e487b7160e01b600052604160045260246000fd5b60405290565b604051610180810167ffffffffffffffff81118282101715611f2157634e487b7160e01b600052604160045260246000fd5b600080821280156001600160ff1b0384900385131615611f7b57611f7b6120bf565b600160ff1b8390038412811615611f9457611f946120bf565b50500190565b60008219821115611fad57611fad6120bf565b500190565b600082611fc157611fc16120d5565b500490565b60006001600160ff1b0381841382841380821686840486111615611fec57611fec6120bf565b600160ff1b8487128281168783058912161561200a5761200a6120bf565b858712925087820587128484161615612025576120256120bf565b8785058712818416161561203b5761203b6120bf565b505050929093029392505050565b6000816000190483118215151615612063576120636120bf565b500290565b60008282101561207a5761207a6120bf565b500390565b60005b8381101561209a578181015183820152602001612082565b83811115610e675750506000910152565b6000826120ba576120ba6120d5565b500690565b634e487b7160e01b600052601160045260246000fd5b634e487b7160e01b600052601260045260246000fd5b6001600160a01b0381168114610b8557600080fdfea26469706673582212203a5233c8b8b8cbd8632b56164ebed5cb68a33fd526ff03beee044fb6426709d964736f6c63430008040033",
  "immutableReferences": {},
  "source": "// SPDX-License-Identifier: AGPL-3.0-only\npragma solidity ^0.8.0;\n\npragma abicoder v2;\n\nimport \"../common/FundingRateApplier.sol\";\nimport \"../../common/implementation/FixedPoint.sol\";\n\n// Implements FundingRateApplier internal methods to enable unit testing.\ncontract FundingRateApplierTest is FundingRateApplier {\n    constructor(\n        bytes32 _fundingRateIdentifier,\n        address _collateralAddress,\n        address _finderAddress,\n        address _configStoreAddress,\n        FixedPoint.Unsigned memory _tokenScaling,\n        address _timerAddress\n    )\n        FundingRateApplier(\n            _fundingRateIdentifier,\n            _collateralAddress,\n            _finderAddress,\n            _configStoreAddress,\n            _tokenScaling,\n            _timerAddress\n        )\n    {}\n\n    function calculateEffectiveFundingRate(\n        uint256 paymentPeriodSeconds,\n        FixedPoint.Signed memory fundingRatePerSecond,\n        FixedPoint.Unsigned memory currentCumulativeFundingRateMultiplier\n    ) public pure returns (FixedPoint.Unsigned memory) {\n        return\n            _calculateEffectiveFundingRate(\n                paymentPeriodSeconds,\n                fundingRatePerSecond,\n                currentCumulativeFundingRateMultiplier\n            );\n    }\n\n    // Required overrides.\n    function _pfc() internal view virtual override returns (FixedPoint.Unsigned memory currentPfc) {\n        return FixedPoint.Unsigned(collateralCurrency.balanceOf(address(this)));\n    }\n\n    function emergencyShutdown() external override {}\n\n    function remargin() external override {}\n\n    function _getTokenAddress() internal view override returns (address) {\n        return address(collateralCurrency);\n    }\n}\n",
  "sourcePath": "/home/kamto/code/protocol/packages/core/contracts/financial-templates/test/FundingRateApplierTest.sol",
  "compiler": {
    "name": "solc",
    "version": "0.8.4+commit.c7e474f2.Emscripten.clang"
  },
  "schemaVersion": "3.3.4",
  "updatedAt": "2021-05-07T15:46:50.348Z",
  "devdoc": {
    "kind": "dev",
    "methods": {
      "getCurrentTime()": {
        "returns": {
          "_0": "uint for the current Testable timestamp."
        }
      },
      "getOutstandingRegularFees(uint256)": {
        "details": "This returns 0 and exit early if there is no pfc, fees were already paid during the current block, or the fee rate is 0.",
        "returns": {
          "latePenalty": "outstanding unpaid late fee for being late in previous fee payments.",
          "regularFee": "outstanding unpaid regular fee.",
          "totalPaid": "Amount of collateral that the contract paid (sum of the amount paid to the Store and caller)."
        }
      },
      "gulp()": {
        "details": "Multiplying the `cumulativeFeeMultiplier` by the ratio of non-PfC-collateral :: PfC-collateral effectively pays all sponsors a pro-rata portion of the excess collateral.This will revert if PfC is 0 and this contract's collateral balance > 0."
      },
      "payRegularFees()": {
        "details": "These must be paid periodically for the life of the contract. If the contract has not paid its regular fee in a week or more then a late penalty is applied which is sent to the caller. If the amount of fees owed are greater than the pfc, then this will pay as much as possible from the available collateral. An event is only fired if the fees charged are greater than 0.",
        "returns": {
          "_0": "totalPaid Amount of collateral that the contract paid (sum of the amount paid to the Store and caller). This returns 0 and exit early if there is no pfc, fees were already paid during the current block, or the fee rate is 0."
        }
      },
      "pfc()": {
        "details": "This is equivalent to the collateral pool available from which to pay fees. Therefore, derived contracts are expected to implement this so that pay-fee methods can correctly compute the owed fees as a % of PfC.",
        "returns": {
          "_0": "pfc value for equal to the current profit from corruption denominated in collateral currency."
        }
      },
      "proposeFundingRate((int256),uint256)": {
        "params": {
          "rate": "funding rate being proposed.",
          "timestamp": "time at which the funding rate was computed."
        }
      },
      "remargin()": {
        "details": "It pays fees and moves money between margin accounts to make sure they reflect the NAV of the contract."
      },
      "setCurrentTime(uint256)": {
        "details": "Will revert if not running in test mode.",
        "params": {
          "time": "timestamp to set current Testable time to."
        }
      }
    },
    "version": 1
  },
  "userdoc": {
    "kind": "user",
    "methods": {
      "applyFundingRate()": {
        "notice": "This method takes 3 distinct actions: 1. Pays out regular fees. 2. If possible, resolves the outstanding funding rate proposal, pulling the result in and paying out the rewards. 3. Applies the prevailing funding rate over the most recent period."
      },
      "emergencyShutdown()": {
        "notice": "Initiates the shutdown process, in case of an emergency."
      },
      "getCurrentTime()": {
        "notice": "Gets the current time. Will return the last time set in `setCurrentTime` if running in test mode. Otherwise, it will return the block timestamp."
      },
      "getOutstandingRegularFees(uint256)": {
        "notice": "Fetch any regular fees that the contract has pending but has not yet paid. If the fees to be paid are more than the total collateral within the contract then the totalPaid returned is full contract collateral amount."
      },
      "gulp()": {
        "notice": "Removes excess collateral balance not counted in the PfC by distributing it out pro-rata to all sponsors."
      },
      "payRegularFees()": {
        "notice": "Pays UMA DVM regular fees (as a % of the collateral pool) to the Store contract."
      },
      "pfc()": {
        "notice": "Gets the current profit from corruption for this contract in terms of the collateral currency."
      },
      "proposeFundingRate((int256),uint256)": {
        "notice": "Proposes a new funding rate. Proposer receives a reward if correct."
      },
      "remargin()": {
        "notice": "A core contract method called independently or as a part of other financial contract transactions."
      },
      "setCurrentTime(uint256)": {
        "notice": "Sets the current time."
      }
    },
    "version": 1
  }
}