{
  "contractName": "LiquidationWithdrawer",
  "abi": [
    {
      "inputs": [
        {
          "internalType": "address",
          "name": "financialContractAddress",
          "type": "address"
        },
        {
          "internalType": "uint256",
          "name": "liquidationId",
          "type": "uint256"
        },
        {
          "internalType": "address",
          "name": "sponsor",
          "type": "address"
        }
      ],
      "name": "withdrawLiquidation",
      "outputs": [
        {
          "components": [
            {
              "internalType": "uint256",
              "name": "rawValue",
              "type": "uint256"
            }
          ],
          "internalType": "struct FixedPoint.Unsigned",
          "name": "",
          "type": "tuple"
        }
      ],
      "stateMutability": "nonpayable",
      "type": "function"
    }
  ],
  "bytecode": "0x608060405234801561001057600080fd5b506101c7806100206000396000f3fe608060405234801561001057600080fd5b506004361061002b5760003560e01c80631c9eb97b14610030575b600080fd5b61004361003e366004610109565b610056565b6040519051815260200160405180910390f35b6040805160208101825260008152905163360598e160e01b8152600481018490526001600160a01b03838116602483015285169063360598e190604401602060405180830381600087803b1580156100ad57600080fd5b505af11580156100c1573d6000803e3d6000fd5b505050506040513d601f19601f820116820180604052508101906100e59190610144565b949350505050565b80356001600160a01b038116811461010457600080fd5b919050565b60008060006060848603121561011d578283fd5b610126846100ed565b92506020840135915061013b604085016100ed565b90509250925092565b600060208284031215610155578081fd5b6040516020810181811067ffffffffffffffff8211171561018457634e487b7160e01b83526041600452602483fd5b604052915182525091905056fea2646970667358221220292e373ed1319f35d7358e777c13102e9b948314a8d23cdc50ae417b17d247ba64736f6c63430008040033",
  "immutableReferences": {},
  "source": "// SPDX-License-Identifier: AGPL-3.0-only\npragma solidity ^0.8.0;\npragma abicoder v2;\n\nimport \"../../common/implementation/FixedPoint.sol\";\n\n// Simple contract used to withdraw liquidations using a DSProxy from legacy contracts (1.2.2 and below).\ncontract LiquidationWithdrawer {\n    function withdrawLiquidation(\n        address financialContractAddress,\n        uint256 liquidationId,\n        address sponsor\n    ) public returns (FixedPoint.Unsigned memory) {\n        return IFinancialContract(financialContractAddress).withdrawLiquidation(liquidationId, sponsor);\n    }\n}\n\ninterface IFinancialContract {\n    function withdrawLiquidation(uint256 liquidationId, address sponsor)\n        external\n        returns (FixedPoint.Unsigned memory amountWithdrawn);\n}\n",
  "sourcePath": "/home/kamto/code/protocol/packages/core/contracts/bot-helpers/action-wrappers/LiquidationWithdrawer.sol",
  "compiler": {
    "name": "solc",
    "version": "0.8.4+commit.c7e474f2.Emscripten.clang"
  },
  "schemaVersion": "3.3.4",
  "updatedAt": "2021-05-07T15:46:49.937Z",
  "devdoc": {
    "kind": "dev",
    "methods": {},
    "version": 1
  },
  "userdoc": {
    "kind": "user",
    "methods": {},
    "version": 1
  }
}