{
  "contractName": "MerkleDistributor",
  "abi": [
    {
      "anonymous": false,
      "inputs": [
        {
          "indexed": true,
          "internalType": "address",
          "name": "caller",
          "type": "address"
        },
        {
          "indexed": false,
          "internalType": "uint256",
          "name": "windowIndex",
          "type": "uint256"
        },
        {
          "indexed": true,
          "internalType": "address",
          "name": "account",
          "type": "address"
        },
        {
          "indexed": false,
          "internalType": "uint256",
          "name": "accountIndex",
          "type": "uint256"
        },
        {
          "indexed": false,
          "internalType": "uint256",
          "name": "amount",
          "type": "uint256"
        },
        {
          "indexed": true,
          "internalType": "address",
          "name": "rewardToken",
          "type": "address"
        }
      ],
      "name": "Claimed",
      "type": "event"
    },
    {
      "anonymous": false,
      "inputs": [
        {
          "indexed": true,
          "internalType": "uint256",
          "name": "windowIndex",
          "type": "uint256"
        },
        {
          "indexed": false,
          "internalType": "uint256",
          "name": "rewardsDeposited",
          "type": "uint256"
        },
        {
          "indexed": true,
          "internalType": "address",
          "name": "rewardToken",
          "type": "address"
        },
        {
          "indexed": false,
          "internalType": "address",
          "name": "owner",
          "type": "address"
        }
      ],
      "name": "CreatedWindow",
      "type": "event"
    },
    {
      "anonymous": false,
      "inputs": [
        {
          "indexed": true,
          "internalType": "uint256",
          "name": "windowIndex",
          "type": "uint256"
        },
        {
          "indexed": false,
          "internalType": "address",
          "name": "owner",
          "type": "address"
        }
      ],
      "name": "DeleteWindow",
      "type": "event"
    },
    {
      "anonymous": false,
      "inputs": [
        {
          "indexed": true,
          "internalType": "address",
          "name": "previousOwner",
          "type": "address"
        },
        {
          "indexed": true,
          "internalType": "address",
          "name": "newOwner",
          "type": "address"
        }
      ],
      "name": "OwnershipTransferred",
      "type": "event"
    },
    {
      "anonymous": false,
      "inputs": [
        {
          "indexed": true,
          "internalType": "address",
          "name": "owner",
          "type": "address"
        },
        {
          "indexed": false,
          "internalType": "uint256",
          "name": "amount",
          "type": "uint256"
        },
        {
          "indexed": true,
          "internalType": "address",
          "name": "currency",
          "type": "address"
        }
      ],
      "name": "WithdrawRewards",
      "type": "event"
    },
    {
      "inputs": [
        {
          "internalType": "uint256",
          "name": "",
          "type": "uint256"
        }
      ],
      "name": "merkleWindows",
      "outputs": [
        {
          "internalType": "bytes32",
          "name": "merkleRoot",
          "type": "bytes32"
        },
        {
          "internalType": "contract IERC20",
          "name": "rewardToken",
          "type": "address"
        },
        {
          "internalType": "string",
          "name": "ipfsHash",
          "type": "string"
        }
      ],
      "stateMutability": "view",
      "type": "function"
    },
    {
      "inputs": [],
      "name": "nextCreatedIndex",
      "outputs": [
        {
          "internalType": "uint256",
          "name": "",
          "type": "uint256"
        }
      ],
      "stateMutability": "view",
      "type": "function"
    },
    {
      "inputs": [],
      "name": "owner",
      "outputs": [
        {
          "internalType": "address",
          "name": "",
          "type": "address"
        }
      ],
      "stateMutability": "view",
      "type": "function"
    },
    {
      "inputs": [],
      "name": "renounceOwnership",
      "outputs": [],
      "stateMutability": "nonpayable",
      "type": "function"
    },
    {
      "inputs": [
        {
          "internalType": "address",
          "name": "newOwner",
          "type": "address"
        }
      ],
      "name": "transferOwnership",
      "outputs": [],
      "stateMutability": "nonpayable",
      "type": "function"
    },
    {
      "inputs": [
        {
          "internalType": "uint256",
          "name": "rewardsToDeposit",
          "type": "uint256"
        },
        {
          "internalType": "address",
          "name": "rewardToken",
          "type": "address"
        },
        {
          "internalType": "bytes32",
          "name": "merkleRoot",
          "type": "bytes32"
        },
        {
          "internalType": "string",
          "name": "ipfsHash",
          "type": "string"
        }
      ],
      "name": "setWindow",
      "outputs": [],
      "stateMutability": "nonpayable",
      "type": "function"
    },
    {
      "inputs": [
        {
          "internalType": "uint256",
          "name": "windowIndex",
          "type": "uint256"
        }
      ],
      "name": "deleteWindow",
      "outputs": [],
      "stateMutability": "nonpayable",
      "type": "function"
    },
    {
      "inputs": [
        {
          "internalType": "address",
          "name": "rewardCurrency",
          "type": "address"
        },
        {
          "internalType": "uint256",
          "name": "amount",
          "type": "uint256"
        }
      ],
      "name": "withdrawRewards",
      "outputs": [],
      "stateMutability": "nonpayable",
      "type": "function"
    },
    {
      "inputs": [
        {
          "components": [
            {
              "internalType": "uint256",
              "name": "windowIndex",
              "type": "uint256"
            },
            {
              "internalType": "uint256",
              "name": "amount",
              "type": "uint256"
            },
            {
              "internalType": "uint256",
              "name": "accountIndex",
              "type": "uint256"
            },
            {
              "internalType": "address",
              "name": "account",
              "type": "address"
            },
            {
              "internalType": "bytes32[]",
              "name": "merkleProof",
              "type": "bytes32[]"
            }
          ],
          "internalType": "struct MerkleDistributor.Claim[]",
          "name": "claims",
          "type": "tuple[]"
        }
      ],
      "name": "claimMulti",
      "outputs": [],
      "stateMutability": "nonpayable",
      "type": "function"
    },
    {
      "inputs": [
        {
          "components": [
            {
              "internalType": "uint256",
              "name": "windowIndex",
              "type": "uint256"
            },
            {
              "internalType": "uint256",
              "name": "amount",
              "type": "uint256"
            },
            {
              "internalType": "uint256",
              "name": "accountIndex",
              "type": "uint256"
            },
            {
              "internalType": "address",
              "name": "account",
              "type": "address"
            },
            {
              "internalType": "bytes32[]",
              "name": "merkleProof",
              "type": "bytes32[]"
            }
          ],
          "internalType": "struct MerkleDistributor.Claim",
          "name": "_claim",
          "type": "tuple"
        }
      ],
      "name": "claim",
      "outputs": [],
      "stateMutability": "nonpayable",
      "type": "function"
    },
    {
      "inputs": [
        {
          "internalType": "uint256",
          "name": "windowIndex",
          "type": "uint256"
        },
        {
          "internalType": "uint256",
          "name": "accountIndex",
          "type": "uint256"
        }
      ],
      "name": "isClaimed",
      "outputs": [
        {
          "internalType": "bool",
          "name": "",
          "type": "bool"
        }
      ],
      "stateMutability": "view",
      "type": "function"
    },
    {
      "inputs": [
        {
          "components": [
            {
              "internalType": "uint256",
              "name": "windowIndex",
              "type": "uint256"
            },
            {
              "internalType": "uint256",
              "name": "amount",
              "type": "uint256"
            },
            {
              "internalType": "uint256",
              "name": "accountIndex",
              "type": "uint256"
            },
            {
              "internalType": "address",
              "name": "account",
              "type": "address"
            },
            {
              "internalType": "bytes32[]",
              "name": "merkleProof",
              "type": "bytes32[]"
            }
          ],
          "internalType": "struct MerkleDistributor.Claim",
          "name": "_claim",
          "type": "tuple"
        }
      ],
      "name": "verifyClaim",
      "outputs": [
        {
          "internalType": "bool",
          "name": "valid",
          "type": "bool"
        }
      ],
      "stateMutability": "view",
      "type": "function"
    }
  ],
  "bytecode": "0x608060405234801561001057600080fd5b50600080546001600160a01b031916339081178255604051909182917f8be0079c531659141344cd1fd0a4f28419497f9722a3daafe3b4186f6b6457e0908290a350611437806100616000396000f3fe608060405234801561001057600080fd5b50600436106100b45760003560e01c8063a198496c11610071578063a198496c1461014e578063d451186814610161578063d6ef7af014610174578063e2e441a314610187578063f2fde38b1461019e578063f364c90c146101b157600080fd5b80634f512151146100b95780636be65179146100e1578063715018a6146100f6578063891b0d71146100fe5780638da5cb5b146101205780639f5a96721461013b575b600080fd5b6100cc6100c736600461109f565b6101c4565b60405190151581526020015b60405180910390f35b6100f46100ef366004610fce565b61024f565b005b6100f46103c1565b61011161010c3660046110d2565b61043e565b6040516100d893929190611204565b6000546040516001600160a01b0390911681526020016100d8565b6100f46101493660046110d2565b6104f4565b6100f461015c36600461109f565b61058a565b6100f461016f3660046110ea565b6105cb565b6100f4610182366004610fa5565b61061a565b61019060025481565b6040519081526020016100d8565b6100f46101ac366004610f8b565b61069c565b6100cc6101bf36600461119b565b610786565b60008082606001518360200151846040015160405160200161020d9392919060609390931b6bffffffffffffffffffffffff191683526014830191909152603482015260540190565b60408051601f1981840301815291815281516020928301206080860151865160009081526001909452919092205491925061024891836107d1565b9392505050565b8051600090815b818110156103bb57600084828151811061028057634e487b7160e01b600052603260045260246000fd5b602002602001015190506102938161088e565b60208101516102a39085906109da565b935060006102b28360016112fd565b8251600090815260016020819052604090912001549091506001600160a01b031684821480610322575082606001516001600160a01b031687838151811061030a57634e487b7160e01b600052603260045260246000fd5b6020026020010151606001516001600160a01b031614155b806103815750806001600160a01b03166001600089858151811061035657634e487b7160e01b600052603260045260246000fd5b602090810291909101810151518252810191909152604001600020600101546001600160a01b031614155b156103a55760608301516103a0906001600160a01b03831690886109e6565b600095505b50505080806103b390611390565b915050610256565b50505050565b6000546001600160a01b031633146103f45760405162461bcd60e51b81526004016103eb9061124a565b60405180910390fd5b600080546040516001600160a01b03909116907f8be0079c531659141344cd1fd0a4f28419497f9722a3daafe3b4186f6b6457e0908390a3600080546001600160a01b0319169055565b60016020819052600091825260409091208054918101546002820180546001600160a01b03909216929161047190611355565b80601f016020809104026020016040519081016040528092919081815260200182805461049d90611355565b80156104ea5780601f106104bf576101008083540402835291602001916104ea565b820191906000526020600020905b8154815290600101906020018083116104cd57829003601f168201915b5050505050905083565b6000546001600160a01b0316331461051e5760405162461bcd60e51b81526004016103eb9061124a565b6000818152600160208190526040822082815590810180546001600160a01b0319169055906105506002830182610dc6565b505060405133815281907f8fea52000ecb40f2262c672496dfadccc9d6290439bac487e084de8c57682d669060200160405180910390a250565b6105938161088e565b60608101516020808301518351600090815260019283905260409020909101546105c8926001600160a01b03909116916109e6565b50565b6000546001600160a01b031633146105f55760405162461bcd60e51b81526004016103eb9061124a565b6002546106038160016109da565b6002556106138186868686610a4e565b5050505050565b6000546001600160a01b031633146106445760405162461bcd60e51b81526004016103eb9061124a565b6106586001600160a01b03831633836109e6565b6040518181526001600160a01b0383169033907ffb0872526787ac1be379aa37eaa9913b47d6d50c3f5fe5ec67ffe4282493670e9060200160405180910390a35050565b6000546001600160a01b031633146106c65760405162461bcd60e51b81526004016103eb9061124a565b6001600160a01b03811661072b5760405162461bcd60e51b815260206004820152602660248201527f4f776e61626c653a206e6577206f776e657220697320746865207a65726f206160448201526564647265737360d01b60648201526084016103eb565b600080546040516001600160a01b03808516939216917f8be0079c531659141344cd1fd0a4f28419497f9722a3daafe3b4186f6b6457e091a3600080546001600160a01b0319166001600160a01b0392909216919091179055565b60008061079561010084611315565b905060006107a5610100856113ab565b60009586526003602090815260408088209488529390529190942054600190911b908116149392505050565b600081815b855181101561088357600086828151811061080157634e487b7160e01b600052603260045260246000fd5b60200260200101519050808311610843576040805160208101859052908101829052606001604051602081830303815290604052805190602001209250610870565b60408051602081018390529081018490526060016040516020818303038152906040528051906020012092505b508061087b81611390565b9150506107d6565b509092149392505050565b610897816101c4565b6108dc5760405162461bcd60e51b815260206004820152601660248201527524b731b7b93932b1ba1036b2b935b63290383937b7b360511b60448201526064016103eb565b6108ee81600001518260400151610786565b1561094f5760405162461bcd60e51b815260206004820152602b60248201527f4163636f756e742068617320616c726561647920636c61696d656420666f722060448201526a746869732077696e646f7760a81b60648201526084016103eb565b61096181600001518260400151610afb565b80516000908152600160208181526040928390209091015460608085015185518587015185880151875192835295820152948501939093526001600160a01b0391821693919092169133917f18bdb6adb84039f917775d1fb8e7b7e7737ad5915d12eef0e4654b85e18d07b4910160405180910390a450565b600061024882846112fd565b6040516001600160a01b038316602482015260448101829052610a4990849063a9059cbb60e01b906064015b60408051601f198184030181529190526020810180516001600160e01b03166001600160e01b031990931692909217909152610b44565b505050565b600085815260016020818152604090922084815590810180546001600160a01b0319166001600160a01b03871617905582519091610a93916002840191850190610e00565b50604080518681523360208201526001600160a01b0386169188917f521fe5bce65ac6af752c1083ec77facc5b6c13f40693e96eeca3747726fee9ad910160405180910390a36001810154610af3906001600160a01b0316333088610c16565b505050505050565b6000610b0961010083611315565b90506000610b19610100846113ab565b6000948552600360209081526040808720948752939052919093208054600190921b90911790555050565b6000610b99826040518060400160405280602081526020017f5361666545524332303a206c6f772d6c6576656c2063616c6c206661696c6564815250856001600160a01b0316610c4e9092919063ffffffff16565b805190915015610a495780806020019051810190610bb7919061107f565b610a495760405162461bcd60e51b815260206004820152602a60248201527f5361666545524332303a204552433230206f7065726174696f6e20646964206e6044820152691bdd081cdd58d8d9595960b21b60648201526084016103eb565b6040516001600160a01b03808516602483015283166044820152606481018290526103bb9085906323b872dd60e01b90608401610a12565b6060610c5d8484600085610c65565b949350505050565b606082471015610cc65760405162461bcd60e51b815260206004820152602660248201527f416464726573733a20696e73756666696369656e742062616c616e636520666f6044820152651c8818d85b1b60d21b60648201526084016103eb565b843b610d145760405162461bcd60e51b815260206004820152601d60248201527f416464726573733a2063616c6c20746f206e6f6e2d636f6e747261637400000060448201526064016103eb565b600080866001600160a01b03168587604051610d3091906111e8565b60006040518083038185875af1925050503d8060008114610d6d576040519150601f19603f3d011682016040523d82523d6000602084013e610d72565b606091505b5091509150610d82828286610d8d565b979650505050505050565b60608315610d9c575081610248565b825115610dac5782518084602001fd5b8160405162461bcd60e51b81526004016103eb9190611237565b508054610dd290611355565b6000825580601f10610de2575050565b601f0160209004906000526020600020908101906105c89190610e84565b828054610e0c90611355565b90600052602060002090601f016020900481019282610e2e5760008555610e74565b82601f10610e4757805160ff1916838001178555610e74565b82800160010185558215610e74579182015b82811115610e74578251825591602001919060010190610e59565b50610e80929150610e84565b5090565b5b80821115610e805760008155600101610e85565b80356001600160a01b0381168114610eb057600080fd5b919050565b600060a08284031215610ec6578081fd5b610ece61127f565b9050813581526020808301358183015260408301356040830152610ef460608401610e99565b6060830152608083013567ffffffffffffffff811115610f1357600080fd5b8301601f81018513610f2457600080fd5b8035610f37610f32826112d9565b6112a8565b80828252848201915084840188868560051b8701011115610f5757600080fd5b600094505b83851015610f7a578035835260019490940193918501918501610f5c565b506080860152509295945050505050565b600060208284031215610f9c578081fd5b61024882610e99565b60008060408385031215610fb7578081fd5b610fc083610e99565b946020939093013593505050565b60006020808385031215610fe0578182fd5b823567ffffffffffffffff80821115610ff7578384fd5b818501915085601f83011261100a578384fd5b8135611018610f32826112d9565b80828252858201915085850189878560051b8801011115611037578788fd5b875b848110156110705781358681111561104f57898afd5b61105d8c8a838b0101610eb5565b8552509287019290870190600101611039565b50909998505050505050505050565b600060208284031215611090578081fd5b81518015158114610248578182fd5b6000602082840312156110b0578081fd5b813567ffffffffffffffff8111156110c6578182fd5b610c5d84828501610eb5565b6000602082840312156110e3578081fd5b5035919050565b600080600080608085870312156110ff578182fd5b843593506020611110818701610e99565b935060408601359250606086013567ffffffffffffffff80821115611133578384fd5b818801915088601f830112611146578384fd5b813581811115611158576111586113eb565b61116a601f8201601f191685016112a8565b9150808252898482850101111561117f578485fd5b8084840185840137810190920192909252939692955090935050565b600080604083850312156111ad578182fd5b50508035926020909101359150565b600081518084526111d4816020860160208601611329565b601f01601f19169290920160200192915050565b600082516111fa818460208701611329565b9190910192915050565b8381526001600160a01b038316602082015260606040820181905260009061122e908301846111bc565b95945050505050565b60208152600061024860208301846111bc565b6020808252818101527f4f776e61626c653a2063616c6c6572206973206e6f7420746865206f776e6572604082015260600190565b60405160a0810167ffffffffffffffff811182821017156112a2576112a26113eb565b60405290565b604051601f8201601f1916810167ffffffffffffffff811182821017156112d1576112d16113eb565b604052919050565b600067ffffffffffffffff8211156112f3576112f36113eb565b5060051b60200190565b60008219821115611310576113106113bf565b500190565b600082611324576113246113d5565b500490565b60005b8381101561134457818101518382015260200161132c565b838111156103bb5750506000910152565b600181811c9082168061136957607f821691505b6020821081141561138a57634e487b7160e01b600052602260045260246000fd5b50919050565b60006000198214156113a4576113a46113bf565b5060010190565b6000826113ba576113ba6113d5565b500690565b634e487b7160e01b600052601160045260246000fd5b634e487b7160e01b600052601260045260246000fd5b634e487b7160e01b600052604160045260246000fdfea2646970667358221220ddf3f86290f3f51dc775616557a81a4e2d196b62c7314659db1b6800c093cedd64736f6c63430008040033",
  "immutableReferences": {},
  "source": "// SPDX-License-Identifier: AGPL-3.0-only\npragma solidity ^0.8.0;\npragma abicoder v2;\n\nimport \"@openzeppelin/contracts/utils/math/SafeMath.sol\";\nimport \"@openzeppelin/contracts/token/ERC20/utils/SafeERC20.sol\";\nimport \"@openzeppelin/contracts/utils/cryptography/MerkleProof.sol\";\nimport \"@openzeppelin/contracts/access/Ownable.sol\";\nimport \"@openzeppelin/contracts/token/ERC20/IERC20.sol\";\n\n/**\n * Inspired by:\n * - https://github.com/pie-dao/vested-token-migration-app\n * - https://github.com/Uniswap/merkle-distributor\n * - https://github.com/balancer-labs/erc20-redeemable\n *\n * @title  MerkleDistributor contract.\n * @notice Allows an owner to distribute any reward ERC20 to claimants according to Merkle roots. The owner can specify\n *         multiple Merkle roots distributions with customized reward currencies.\n * @dev    The Merkle trees are not validated in any way, so the system assumes the contract owner behaves honestly.\n */\ncontract MerkleDistributor is Ownable {\n    using SafeMath for uint256;\n    using SafeERC20 for IERC20;\n\n    // A Window maps a Merkle root to a reward token address.\n    struct Window {\n        // Merkle root describing the distribution.\n        bytes32 merkleRoot;\n        // Currency in which reward is processed.\n        IERC20 rewardToken;\n        // IPFS hash of the merkle tree. Can be used to independently fetch recipient proofs and tree. Note that the canonical\n        // data type for storing an IPFS hash is a multihash which is the concatenation of  <varint hash function code>\n        // <varint digest size in bytes><hash function output>. We opted to store this in a string type to make it easier\n        // for users to query the ipfs data without needing to reconstruct the multihash. to view the IPFS data simply\n        // go to https://cloudflare-ipfs.com/ipfs/<IPFS-HASH>.\n        string ipfsHash;\n    }\n\n    // Represents an account's claim for `amount` within the Merkle root located at the `windowIndex`.\n    struct Claim {\n        uint256 windowIndex;\n        uint256 amount;\n        uint256 accountIndex; // Used only for bitmap. Assumed to be unique for each claim.\n        address account;\n        bytes32[] merkleProof;\n    }\n\n    // Windows are mapped to arbitrary indices.\n    mapping(uint256 => Window) public merkleWindows;\n\n    // Index of next created Merkle root.\n    uint256 public nextCreatedIndex;\n\n    // Track which accounts have claimed for each window index.\n    // Note: uses a packed array of bools for gas optimization on tracking certain claims. Copied from Uniswap's contract.\n    mapping(uint256 => mapping(uint256 => uint256)) private claimedBitMap;\n\n    /****************************************\n     *                EVENTS\n     ****************************************/\n    event Claimed(\n        address indexed caller,\n        uint256 windowIndex,\n        address indexed account,\n        uint256 accountIndex,\n        uint256 amount,\n        address indexed rewardToken\n    );\n    event CreatedWindow(\n        uint256 indexed windowIndex,\n        uint256 rewardsDeposited,\n        address indexed rewardToken,\n        address owner\n    );\n    event WithdrawRewards(address indexed owner, uint256 amount, address indexed currency);\n    event DeleteWindow(uint256 indexed windowIndex, address owner);\n\n    /****************************\n     *      ADMIN FUNCTIONS\n     ****************************/\n\n    /**\n     * @notice Set merkle root for the next available window index and seed allocations.\n     * @notice Callable only by owner of this contract. Caller must have approved this contract to transfer\n     *      `rewardsToDeposit` amount of `rewardToken` or this call will fail. Importantly, we assume that the\n     *      owner of this contract correctly chooses an amount `rewardsToDeposit` that is sufficient to cover all\n     *      claims within the `merkleRoot`. Otherwise, a race condition can be created. This situation can occur\n     *      because we do not segregate reward balances by window, for code simplicity purposes.\n     *      (If `rewardsToDeposit` is purposefully insufficient to payout all claims, then the admin must\n     *      subsequently transfer in rewards or the following situation can occur).\n     *      Example race situation:\n     *          - Window 1 Tree: Owner sets `rewardsToDeposit=100` and insert proofs that give claimant A 50 tokens and\n     *            claimant B 51 tokens. The owner has made an error by not setting the `rewardsToDeposit` correctly to 101.\n     *          - Window 2 Tree: Owner sets `rewardsToDeposit=1` and insert proofs that give claimant A 1 token. The owner\n     *            correctly set `rewardsToDeposit` this time.\n     *          - At this point contract owns 100 + 1 = 101 tokens. Now, imagine the following sequence:\n     *              (1) Claimant A claims 50 tokens for Window 1, contract now has 101 - 50 = 51 tokens.\n     *              (2) Claimant B claims 51 tokens for Window 1, contract now has 51 - 51 = 0 tokens.\n     *              (3) Claimant A tries to claim 1 token for Window 2 but fails because contract has 0 tokens.\n     *          - In summary, the contract owner created a race for step(2) and step(3) in which the first claim would\n     *            succeed and the second claim would fail, even though both claimants would expect their claims to succeed.\n     * @param rewardsToDeposit amount of rewards to deposit to seed this allocation.\n     * @param rewardToken ERC20 reward token.\n     * @param merkleRoot merkle root describing allocation.\n     * @param ipfsHash hash of IPFS object, conveniently stored for clients\n     */\n    function setWindow(\n        uint256 rewardsToDeposit,\n        address rewardToken,\n        bytes32 merkleRoot,\n        string memory ipfsHash\n    ) external onlyOwner {\n        uint256 indexToSet = nextCreatedIndex;\n        nextCreatedIndex = indexToSet.add(1);\n\n        _setWindow(indexToSet, rewardsToDeposit, rewardToken, merkleRoot, ipfsHash);\n    }\n\n    /**\n     * @notice Delete merkle root at window index.\n     * @dev Callable only by owner. Likely to be followed by a withdrawRewards call to clear contract state.\n     * @param windowIndex merkle root index to delete.\n     */\n    function deleteWindow(uint256 windowIndex) external onlyOwner {\n        delete merkleWindows[windowIndex];\n        emit DeleteWindow(windowIndex, msg.sender);\n    }\n\n    /**\n     * @notice Emergency method that transfers rewards out of the contract if the contract was configured improperly.\n     * @dev Callable only by owner.\n     * @param rewardCurrency rewards to withdraw from contract.\n     * @param amount amount of rewards to withdraw.\n     */\n    function withdrawRewards(address rewardCurrency, uint256 amount) external onlyOwner {\n        IERC20(rewardCurrency).safeTransfer(msg.sender, amount);\n        emit WithdrawRewards(msg.sender, amount, rewardCurrency);\n    }\n\n    /****************************\n     *    NON-ADMIN FUNCTIONS\n     ****************************/\n\n    /**\n     * @notice Batch claims to reduce gas versus individual submitting all claims. Method will fail\n     *         if any individual claims within the batch would fail.\n     * @dev    Optimistically tries to batch together consecutive claims for the same account and same\n     *         reward token to reduce gas. Therefore, the most gas-cost-optimal way to use this method\n     *         is to pass in an array of claims sorted by account and reward currency.\n     * @param claims array of claims to claim.\n     */\n    function claimMulti(Claim[] memory claims) external {\n        uint256 batchedAmount = 0;\n        uint256 claimCount = claims.length;\n        for (uint256 i = 0; i < claimCount; i++) {\n            Claim memory _claim = claims[i];\n            _verifyAndMarkClaimed(_claim);\n            batchedAmount = batchedAmount.add(_claim.amount);\n\n            // If the next claim is NOT the same account or the same token (or this claim is the last one),\n            // then disburse the `batchedAmount` to the current claim's account for the current claim's reward token.\n            uint256 nextI = i + 1;\n            address currentRewardToken = address(merkleWindows[_claim.windowIndex].rewardToken);\n            if (\n                nextI == claimCount ||\n                // This claim is last claim.\n                claims[nextI].account != _claim.account ||\n                // Next claim account is different than current one.\n                address(merkleWindows[claims[nextI].windowIndex].rewardToken) != currentRewardToken\n                // Next claim reward token is different than current one.\n            ) {\n                IERC20(currentRewardToken).safeTransfer(_claim.account, batchedAmount);\n                batchedAmount = 0;\n            }\n        }\n    }\n\n    /**\n     * @notice Claim amount of reward tokens for account, as described by Claim input object.\n     * @dev    If the `_claim`'s `amount`, `accountIndex`, and `account` do not exactly match the\n     *         values stored in the merkle root for the `_claim`'s `windowIndex` this method\n     *         will revert.\n     * @param _claim claim object describing amount, accountIndex, account, window index, and merkle proof.\n     */\n    function claim(Claim memory _claim) public {\n        _verifyAndMarkClaimed(_claim);\n        merkleWindows[_claim.windowIndex].rewardToken.safeTransfer(_claim.account, _claim.amount);\n    }\n\n    /**\n     * @notice Returns True if the claim for `accountIndex` has already been completed for the Merkle root at\n     *         `windowIndex`.\n     * @dev    This method will only work as intended if all `accountIndex`'s are unique for a given `windowIndex`.\n     *         The onus is on the Owner of this contract to submit only valid Merkle roots.\n     * @param windowIndex merkle root to check.\n     * @param accountIndex account index to check within window index.\n     * @return True if claim has been executed already, False otherwise.\n     */\n    function isClaimed(uint256 windowIndex, uint256 accountIndex) public view returns (bool) {\n        uint256 claimedWordIndex = accountIndex / 256;\n        uint256 claimedBitIndex = accountIndex % 256;\n        uint256 claimedWord = claimedBitMap[windowIndex][claimedWordIndex];\n        uint256 mask = (1 << claimedBitIndex);\n        return claimedWord & mask == mask;\n    }\n\n    /**\n     * @notice Returns True if leaf described by {account, amount, accountIndex} is stored in Merkle root at given\n     *         window index.\n     * @param _claim claim object describing amount, accountIndex, account, window index, and merkle proof.\n     * @return valid True if leaf exists.\n     */\n    function verifyClaim(Claim memory _claim) public view returns (bool valid) {\n        bytes32 leaf = keccak256(abi.encodePacked(_claim.account, _claim.amount, _claim.accountIndex));\n        return MerkleProof.verify(_claim.merkleProof, merkleWindows[_claim.windowIndex].merkleRoot, leaf);\n    }\n\n    /****************************\n     *     PRIVATE FUNCTIONS\n     ****************************/\n\n    // Mark claim as completed for `accountIndex` for Merkle root at `windowIndex`.\n    function _setClaimed(uint256 windowIndex, uint256 accountIndex) private {\n        uint256 claimedWordIndex = accountIndex / 256;\n        uint256 claimedBitIndex = accountIndex % 256;\n        claimedBitMap[windowIndex][claimedWordIndex] =\n            claimedBitMap[windowIndex][claimedWordIndex] |\n            (1 << claimedBitIndex);\n    }\n\n    // Store new Merkle root at `windowindex`. Pull `rewardsDeposited` from caller to seed distribution for this root.\n    function _setWindow(\n        uint256 windowIndex,\n        uint256 rewardsDeposited,\n        address rewardToken,\n        bytes32 merkleRoot,\n        string memory ipfsHash\n    ) private {\n        Window storage window = merkleWindows[windowIndex];\n        window.merkleRoot = merkleRoot;\n        window.rewardToken = IERC20(rewardToken);\n        window.ipfsHash = ipfsHash;\n\n        emit CreatedWindow(windowIndex, rewardsDeposited, rewardToken, msg.sender);\n\n        window.rewardToken.safeTransferFrom(msg.sender, address(this), rewardsDeposited);\n    }\n\n    // Verify claim is valid and mark it as completed in this contract.\n    function _verifyAndMarkClaimed(Claim memory _claim) private {\n        // Check claimed proof against merkle window at given index.\n        require(verifyClaim(_claim), \"Incorrect merkle proof\");\n        // Check the account has not yet claimed for this window.\n        require(!isClaimed(_claim.windowIndex, _claim.accountIndex), \"Account has already claimed for this window\");\n\n        // Proof is correct and claim has not occurred yet, mark claimed complete.\n        _setClaimed(_claim.windowIndex, _claim.accountIndex);\n        emit Claimed(\n            msg.sender,\n            _claim.windowIndex,\n            _claim.account,\n            _claim.accountIndex,\n            _claim.amount,\n            address(merkleWindows[_claim.windowIndex].rewardToken)\n        );\n    }\n}\n",
  "sourcePath": "/home/kamto/code/protocol/packages/core/contracts/merkle-distributor/implementation/MerkleDistributor.sol",
  "compiler": {
    "name": "solc",
    "version": "0.8.4+commit.c7e474f2.Emscripten.clang"
  },
  "schemaVersion": "3.3.4",
  "updatedAt": "2021-05-07T15:46:50.354Z",
  "devdoc": {
    "details": "The Merkle trees are not validated in any way, so the system assumes the contract owner behaves honestly.",
    "kind": "dev",
    "methods": {
      "claim((uint256,uint256,uint256,address,bytes32[]))": {
        "details": "If the `_claim`'s `amount`, `accountIndex`, and `account` do not exactly match the         values stored in the merkle root for the `_claim`'s `windowIndex` this method         will revert.",
        "params": {
          "_claim": "claim object describing amount, accountIndex, account, window index, and merkle proof."
        }
      },
      "claimMulti((uint256,uint256,uint256,address,bytes32[])[])": {
        "details": "Optimistically tries to batch together consecutive claims for the same account and same         reward token to reduce gas. Therefore, the most gas-cost-optimal way to use this method         is to pass in an array of claims sorted by account and reward currency.",
        "params": {
          "claims": "array of claims to claim."
        }
      },
      "deleteWindow(uint256)": {
        "details": "Callable only by owner. Likely to be followed by a withdrawRewards call to clear contract state.",
        "params": {
          "windowIndex": "merkle root index to delete."
        }
      },
      "isClaimed(uint256,uint256)": {
        "details": "This method will only work as intended if all `accountIndex`'s are unique for a given `windowIndex`.         The onus is on the Owner of this contract to submit only valid Merkle roots.",
        "params": {
          "accountIndex": "account index to check within window index.",
          "windowIndex": "merkle root to check."
        },
        "returns": {
          "_0": "True if claim has been executed already, False otherwise."
        }
      },
      "owner()": {
        "details": "Returns the address of the current owner."
      },
      "renounceOwnership()": {
        "details": "Leaves the contract without owner. It will not be possible to call `onlyOwner` functions anymore. Can only be called by the current owner. NOTE: Renouncing ownership will leave the contract without an owner, thereby removing any functionality that is only available to the owner."
      },
      "setWindow(uint256,address,bytes32,string)": {
        "params": {
          "ipfsHash": "hash of IPFS object, conveniently stored for clients",
          "merkleRoot": "merkle root describing allocation.",
          "rewardToken": "ERC20 reward token.",
          "rewardsToDeposit": "amount of rewards to deposit to seed this allocation."
        }
      },
      "transferOwnership(address)": {
        "details": "Transfers ownership of the contract to a new account (`newOwner`). Can only be called by the current owner."
      },
      "verifyClaim((uint256,uint256,uint256,address,bytes32[]))": {
        "params": {
          "_claim": "claim object describing amount, accountIndex, account, window index, and merkle proof."
        },
        "returns": {
          "valid": "True if leaf exists."
        }
      },
      "withdrawRewards(address,uint256)": {
        "details": "Callable only by owner.",
        "params": {
          "amount": "amount of rewards to withdraw.",
          "rewardCurrency": "rewards to withdraw from contract."
        }
      }
    },
    "title": "MerkleDistributor contract.",
    "version": 1
  },
  "userdoc": {
    "kind": "user",
    "methods": {
      "claim((uint256,uint256,uint256,address,bytes32[]))": {
        "notice": "Claim amount of reward tokens for account, as described by Claim input object."
      },
      "claimMulti((uint256,uint256,uint256,address,bytes32[])[])": {
        "notice": "Batch claims to reduce gas versus individual submitting all claims. Method will fail         if any individual claims within the batch would fail."
      },
      "deleteWindow(uint256)": {
        "notice": "Delete merkle root at window index."
      },
      "isClaimed(uint256,uint256)": {
        "notice": "Returns True if the claim for `accountIndex` has already been completed for the Merkle root at         `windowIndex`."
      },
      "setWindow(uint256,address,bytes32,string)": {
        "notice": "Set merkle root for the next available window index and seed allocations.Callable only by owner of this contract. Caller must have approved this contract to transfer      `rewardsToDeposit` amount of `rewardToken` or this call will fail. Importantly, we assume that the      owner of this contract correctly chooses an amount `rewardsToDeposit` that is sufficient to cover all      claims within the `merkleRoot`. Otherwise, a race condition can be created. This situation can occur      because we do not segregate reward balances by window, for code simplicity purposes.      (If `rewardsToDeposit` is purposefully insufficient to payout all claims, then the admin must      subsequently transfer in rewards or the following situation can occur).      Example race situation:          - Window 1 Tree: Owner sets `rewardsToDeposit=100` and insert proofs that give claimant A 50 tokens and            claimant B 51 tokens. The owner has made an error by not setting the `rewardsToDeposit` correctly to 101.          - Window 2 Tree: Owner sets `rewardsToDeposit=1` and insert proofs that give claimant A 1 token. The owner            correctly set `rewardsToDeposit` this time.          - At this point contract owns 100 + 1 = 101 tokens. Now, imagine the following sequence:              (1) Claimant A claims 50 tokens for Window 1, contract now has 101 - 50 = 51 tokens.              (2) Claimant B claims 51 tokens for Window 1, contract now has 51 - 51 = 0 tokens.              (3) Claimant A tries to claim 1 token for Window 2 but fails because contract has 0 tokens.          - In summary, the contract owner created a race for step(2) and step(3) in which the first claim would            succeed and the second claim would fail, even though both claimants would expect their claims to succeed."
      },
      "verifyClaim((uint256,uint256,uint256,address,bytes32[]))": {
        "notice": "Returns True if leaf described by {account, amount, accountIndex} is stored in Merkle root at given         window index."
      },
      "withdrawRewards(address,uint256)": {
        "notice": "Emergency method that transfers rewards out of the contract if the contract was configured improperly."
      }
    },
    "notice": "Inspired by: - https://github.com/pie-dao/vested-token-migration-app - https://github.com/Uniswap/merkle-distributor - https://github.com/balancer-labs/erc20-redeemableAllows an owner to distribute any reward ERC20 to claimants according to Merkle roots. The owner can specify         multiple Merkle roots distributions with customized reward currencies.",
    "version": 1
  }
}