{
  "contractName": "MulticallMock",
  "abi": [
    {
      "inputs": [
        {
          "components": [
            {
              "internalType": "address",
              "name": "target",
              "type": "address"
            },
            {
              "internalType": "bytes",
              "name": "callData",
              "type": "bytes"
            }
          ],
          "internalType": "struct MulticallMock.Call[]",
          "name": "calls",
          "type": "tuple[]"
        }
      ],
      "name": "aggregate",
      "outputs": [
        {
          "internalType": "uint256",
          "name": "blockNumber",
          "type": "uint256"
        },
        {
          "internalType": "bytes[]",
          "name": "returnData",
          "type": "bytes[]"
        }
      ],
      "stateMutability": "nonpayable",
      "type": "function"
    }
  ],
  "bytecode": "0x608060405234801561001057600080fd5b506104ea806100206000396000f3fe608060405234801561001057600080fd5b506004361061002b5760003560e01c8063252dba4214610030575b600080fd5b61004361003e36600461028e565b61005a565b60405161005192919061036c565b60405180910390f35b8051439060609067ffffffffffffffff81111561008757634e487b7160e01b600052604160045260246000fd5b6040519080825280602002602001820160405280156100ba57816020015b60608152602001906001900390816100a55790505b50905060005b83518110156101cc576000808583815181106100ec57634e487b7160e01b600052603260045260246000fd5b6020026020010151600001516001600160a01b031686848151811061012157634e487b7160e01b600052603260045260246000fd5b60200260200101516020015160405161013a9190610350565b6000604051808303816000865af19150503d8060008114610177576040519150601f19603f3d011682016040523d82523d6000602084013e61017c565b606091505b50915091508161018b57600080fd5b808484815181106101ac57634e487b7160e01b600052603260045260246000fd5b6020026020010181905250505080806101c490610477565b9150506100c0565b50915091565b6000604082840312156101e3578081fd5b6101eb6103ed565b905081356001600160a01b038116811461020457600080fd5b815260208281013567ffffffffffffffff8082111561022257600080fd5b818501915085601f83011261023657600080fd5b8135818111156102485761024861049e565b61025a601f8201601f19168501610416565b9150808252868482850101111561027057600080fd5b80848401858401376000908201840152918301919091525092915050565b600060208083850312156102a0578182fd5b823567ffffffffffffffff808211156102b7578384fd5b818501915085601f8301126102ca578384fd5b8135818111156102dc576102dc61049e565b8060051b6102eb858201610416565b8281528581019085870183870188018b1015610305578889fd5b8893505b848410156103425780358681111561031f57898afd5b61032d8c8a838b01016101d2565b84525060019390930192918701918701610309565b509998505050505050505050565b60008251610362818460208701610447565b9190910192915050565b600060408201848352602060408185015281855180845260608601915060608160051b8701019350828701855b828110156103df57878603605f19018452815180518088526103c081888a01898501610447565b601f01601f191696909601850195509284019290840190600101610399565b509398975050505050505050565b6040805190810167ffffffffffffffff811182821017156104105761041061049e565b60405290565b604051601f8201601f1916810167ffffffffffffffff8111828210171561043f5761043f61049e565b604052919050565b60005b8381101561046257818101518382015260200161044a565b83811115610471576000848401525b50505050565b600060001982141561049757634e487b7160e01b81526011600452602481fd5b5060010190565b634e487b7160e01b600052604160045260246000fdfea2646970667358221220a9c800d205fd5bd117df4782e67928c551200c3dfbff6dac89db5ed8f80f27b164736f6c63430008040033",
  "immutableReferences": {},
  "source": "pragma solidity >=0.5.0;\npragma abicoder v2;\n\n/// @title Multicall - Aggregate results from multiple read-only function calls\n/// @author Michael Elliot <mike@makerdao.com>\n/// @author Joshua Levine <joshua@makerdao.com>\n/// @author Nick Johnson <arachnid@notdot.net>\n\ncontract MulticallMock {\n    struct Call {\n        address target;\n        bytes callData;\n    }\n\n    function aggregate(Call[] memory calls) public returns (uint256 blockNumber, bytes[] memory returnData) {\n        blockNumber = block.number;\n        returnData = new bytes[](calls.length);\n        for (uint256 i = 0; i < calls.length; i++) {\n            (bool success, bytes memory ret) = calls[i].target.call(calls[i].callData);\n            require(success);\n            returnData[i] = ret;\n        }\n    }\n}\n",
  "sourcePath": "/home/kamto/code/protocol/packages/core/contracts/common/test/MulticallMock.sol",
  "compiler": {
    "name": "solc",
    "version": "0.8.4+commit.c7e474f2.Emscripten.clang"
  },
  "schemaVersion": "3.3.4",
  "updatedAt": "2021-05-07T15:46:50.142Z",
  "devdoc": {
    "author": "Michael Elliot <mike@makerdao.com>Joshua Levine <joshua@makerdao.com>Nick Johnson <arachnid@notdot.net>",
    "kind": "dev",
    "methods": {},
    "title": "Multicall - Aggregate results from multiple read-only function calls",
    "version": 1
  },
  "userdoc": {
    "kind": "user",
    "methods": {},
    "version": 1
  }
}