{
  "contractName": "Multicall",
  "abi": [
    {
      "inputs": [
        {
          "components": [
            {
              "internalType": "address",
              "name": "target",
              "type": "address"
            },
            {
              "internalType": "bytes",
              "name": "callData",
              "type": "bytes"
            }
          ],
          "internalType": "struct Multicall.Call[]",
          "name": "calls",
          "type": "tuple[]"
        }
      ],
      "name": "aggregate",
      "outputs": [
        {
          "internalType": "uint256",
          "name": "blockNumber",
          "type": "uint256"
        },
        {
          "internalType": "bytes[]",
          "name": "returnData",
          "type": "bytes[]"
        }
      ],
      "stateMutability": "nonpayable",
      "type": "function"
    }
  ],
  "bytecode": "0x608060405234801561001057600080fd5b50610322806100206000396000f3fe608060405234801561001057600080fd5b506004361061002b5760003560e01c8063252dba4214610030575b600080fd5b61004761003e36600461011a565b60006060915091565b6040516100559291906101dc565b60405180910390f35b60006040828403121561006f578081fd5b61007761027c565b905081356001600160a01b038116811461009057600080fd5b815260208281013567ffffffffffffffff808211156100ae57600080fd5b818501915085601f8301126100c257600080fd5b8135818111156100d4576100d46102d6565b6100e6601f8201601f191685016102a5565b915080825286848285010111156100fc57600080fd5b80848401858401376000908201840152918301919091525092915050565b6000602080838503121561012c578182fd5b823567ffffffffffffffff80821115610143578384fd5b818501915085601f830112610156578384fd5b813581811115610168576101686102d6565b8060051b6101778582016102a5565b8281528581019085870183870188018b1015610191578889fd5b8893505b848410156101ce578035868111156101ab57898afd5b6101b98c8a838b010161005e565b84525060019390930192918701918701610195565b509998505050505050505050565b600060408201848352602060408185015281855180845260608601915060608160051b8701019350828701855b8281101561026e57878603605f1901845281518051808852885b8181101561023e578281018801518982018901528701610223565b8181111561024e578988838b0101525b50601f01601f191696909601850195509284019290840190600101610209565b509398975050505050505050565b6040805190810167ffffffffffffffff8111828210171561029f5761029f6102d6565b60405290565b604051601f8201601f1916810167ffffffffffffffff811182821017156102ce576102ce6102d6565b604052919050565b634e487b7160e01b600052604160045260246000fdfea264697066735822122002eac00d1f36822f96c0e1d0a1ee02536b29d140f00345399d426004d5b01f5464736f6c63430008040033",
  "immutableReferences": {},
  "source": "// SPDX-License-Identifier: AGPL-3.0-only\npragma solidity >=0.5.0;\npragma abicoder v2;\n\n/**\n * @title interface for MakerDao's Multicall contract.\n * @dev This only contains the methods/events that we use in our contracts or offchain infrastructure.\n */\ncontract Multicall {\n    struct Call {\n        address target;\n        bytes callData;\n    }\n\n    function aggregate(Call[] memory calls) public virtual returns (uint256 blockNumber, bytes[] memory returnData) {}\n}\n",
  "sourcePath": "/home/kamto/code/protocol/packages/core/contracts/common/interfaces/Multicall.sol",
  "compiler": {
    "name": "solc",
    "version": "0.8.4+commit.c7e474f2.Emscripten.clang"
  },
  "schemaVersion": "3.3.4",
  "updatedAt": "2021-05-07T15:46:50.134Z",
  "devdoc": {
    "details": "This only contains the methods/events that we use in our contracts or offchain infrastructure.",
    "kind": "dev",
    "methods": {},
    "title": "interface for MakerDao's Multicall contract.",
    "version": 1
  },
  "userdoc": {
    "kind": "user",
    "methods": {},
    "version": 1
  }
}