{
  "contractName": "OptimisticOracle",
  "abi": [
    {
      "inputs": [
        {
          "internalType": "uint256",
          "name": "_liveness",
          "type": "uint256"
        },
        {
          "internalType": "address",
          "name": "_finderAddress",
          "type": "address"
        },
        {
          "internalType": "address",
          "name": "_timerAddress",
          "type": "address"
        }
      ],
      "stateMutability": "nonpayable",
      "type": "constructor"
    },
    {
      "anonymous": false,
      "inputs": [
        {
          "indexed": true,
          "internalType": "address",
          "name": "requester",
          "type": "address"
        },
        {
          "indexed": true,
          "internalType": "address",
          "name": "proposer",
          "type": "address"
        },
        {
          "indexed": true,
          "internalType": "address",
          "name": "disputer",
          "type": "address"
        },
        {
          "indexed": false,
          "internalType": "bytes32",
          "name": "identifier",
          "type": "bytes32"
        },
        {
          "indexed": false,
          "internalType": "uint256",
          "name": "timestamp",
          "type": "uint256"
        },
        {
          "indexed": false,
          "internalType": "bytes",
          "name": "ancillaryData",
          "type": "bytes"
        },
        {
          "indexed": false,
          "internalType": "int256",
          "name": "proposedPrice",
          "type": "int256"
        }
      ],
      "name": "DisputePrice",
      "type": "event"
    },
    {
      "anonymous": false,
      "inputs": [
        {
          "indexed": true,
          "internalType": "address",
          "name": "requester",
          "type": "address"
        },
        {
          "indexed": true,
          "internalType": "address",
          "name": "proposer",
          "type": "address"
        },
        {
          "indexed": false,
          "internalType": "bytes32",
          "name": "identifier",
          "type": "bytes32"
        },
        {
          "indexed": false,
          "internalType": "uint256",
          "name": "timestamp",
          "type": "uint256"
        },
        {
          "indexed": false,
          "internalType": "bytes",
          "name": "ancillaryData",
          "type": "bytes"
        },
        {
          "indexed": false,
          "internalType": "int256",
          "name": "proposedPrice",
          "type": "int256"
        },
        {
          "indexed": false,
          "internalType": "uint256",
          "name": "expirationTimestamp",
          "type": "uint256"
        },
        {
          "indexed": false,
          "internalType": "address",
          "name": "currency",
          "type": "address"
        }
      ],
      "name": "ProposePrice",
      "type": "event"
    },
    {
      "anonymous": false,
      "inputs": [
        {
          "indexed": true,
          "internalType": "address",
          "name": "requester",
          "type": "address"
        },
        {
          "indexed": false,
          "internalType": "bytes32",
          "name": "identifier",
          "type": "bytes32"
        },
        {
          "indexed": false,
          "internalType": "uint256",
          "name": "timestamp",
          "type": "uint256"
        },
        {
          "indexed": false,
          "internalType": "bytes",
          "name": "ancillaryData",
          "type": "bytes"
        },
        {
          "indexed": false,
          "internalType": "address",
          "name": "currency",
          "type": "address"
        },
        {
          "indexed": false,
          "internalType": "uint256",
          "name": "reward",
          "type": "uint256"
        },
        {
          "indexed": false,
          "internalType": "uint256",
          "name": "finalFee",
          "type": "uint256"
        }
      ],
      "name": "RequestPrice",
      "type": "event"
    },
    {
      "anonymous": false,
      "inputs": [
        {
          "indexed": true,
          "internalType": "address",
          "name": "requester",
          "type": "address"
        },
        {
          "indexed": true,
          "internalType": "address",
          "name": "proposer",
          "type": "address"
        },
        {
          "indexed": true,
          "internalType": "address",
          "name": "disputer",
          "type": "address"
        },
        {
          "indexed": false,
          "internalType": "bytes32",
          "name": "identifier",
          "type": "bytes32"
        },
        {
          "indexed": false,
          "internalType": "uint256",
          "name": "timestamp",
          "type": "uint256"
        },
        {
          "indexed": false,
          "internalType": "bytes",
          "name": "ancillaryData",
          "type": "bytes"
        },
        {
          "indexed": false,
          "internalType": "int256",
          "name": "price",
          "type": "int256"
        },
        {
          "indexed": false,
          "internalType": "uint256",
          "name": "payout",
          "type": "uint256"
        }
      ],
      "name": "Settle",
      "type": "event"
    },
    {
      "inputs": [],
      "name": "ancillaryBytesLimit",
      "outputs": [
        {
          "internalType": "uint256",
          "name": "",
          "type": "uint256"
        }
      ],
      "stateMutability": "view",
      "type": "function",
      "constant": true
    },
    {
      "inputs": [],
      "name": "defaultLiveness",
      "outputs": [
        {
          "internalType": "uint256",
          "name": "",
          "type": "uint256"
        }
      ],
      "stateMutability": "view",
      "type": "function",
      "constant": true
    },
    {
      "inputs": [],
      "name": "finder",
      "outputs": [
        {
          "internalType": "contract FinderInterface",
          "name": "",
          "type": "address"
        }
      ],
      "stateMutability": "view",
      "type": "function",
      "constant": true
    },
    {
      "inputs": [],
      "name": "getCurrentTime",
      "outputs": [
        {
          "internalType": "uint256",
          "name": "",
          "type": "uint256"
        }
      ],
      "stateMutability": "view",
      "type": "function",
      "constant": true
    },
    {
      "inputs": [
        {
          "internalType": "bytes32",
          "name": "",
          "type": "bytes32"
        }
      ],
      "name": "requests",
      "outputs": [
        {
          "internalType": "address",
          "name": "proposer",
          "type": "address"
        },
        {
          "internalType": "address",
          "name": "disputer",
          "type": "address"
        },
        {
          "internalType": "contract IERC20",
          "name": "currency",
          "type": "address"
        },
        {
          "internalType": "bool",
          "name": "settled",
          "type": "bool"
        },
        {
          "internalType": "bool",
          "name": "refundOnDispute",
          "type": "bool"
        },
        {
          "internalType": "int256",
          "name": "proposedPrice",
          "type": "int256"
        },
        {
          "internalType": "int256",
          "name": "resolvedPrice",
          "type": "int256"
        },
        {
          "internalType": "uint256",
          "name": "expirationTime",
          "type": "uint256"
        },
        {
          "internalType": "uint256",
          "name": "reward",
          "type": "uint256"
        },
        {
          "internalType": "uint256",
          "name": "finalFee",
          "type": "uint256"
        },
        {
          "internalType": "uint256",
          "name": "bond",
          "type": "uint256"
        },
        {
          "internalType": "uint256",
          "name": "customLiveness",
          "type": "uint256"
        }
      ],
      "stateMutability": "view",
      "type": "function",
      "constant": true
    },
    {
      "inputs": [
        {
          "internalType": "uint256",
          "name": "time",
          "type": "uint256"
        }
      ],
      "name": "setCurrentTime",
      "outputs": [],
      "stateMutability": "nonpayable",
      "type": "function"
    },
    {
      "inputs": [],
      "name": "timerAddress",
      "outputs": [
        {
          "internalType": "address",
          "name": "",
          "type": "address"
        }
      ],
      "stateMutability": "view",
      "type": "function",
      "constant": true
    },
    {
      "inputs": [
        {
          "internalType": "bytes32",
          "name": "identifier",
          "type": "bytes32"
        },
        {
          "internalType": "uint256",
          "name": "timestamp",
          "type": "uint256"
        },
        {
          "internalType": "bytes",
          "name": "ancillaryData",
          "type": "bytes"
        },
        {
          "internalType": "contract IERC20",
          "name": "currency",
          "type": "address"
        },
        {
          "internalType": "uint256",
          "name": "reward",
          "type": "uint256"
        }
      ],
      "name": "requestPrice",
      "outputs": [
        {
          "internalType": "uint256",
          "name": "totalBond",
          "type": "uint256"
        }
      ],
      "stateMutability": "nonpayable",
      "type": "function"
    },
    {
      "inputs": [
        {
          "internalType": "bytes32",
          "name": "identifier",
          "type": "bytes32"
        },
        {
          "internalType": "uint256",
          "name": "timestamp",
          "type": "uint256"
        },
        {
          "internalType": "bytes",
          "name": "ancillaryData",
          "type": "bytes"
        },
        {
          "internalType": "uint256",
          "name": "bond",
          "type": "uint256"
        }
      ],
      "name": "setBond",
      "outputs": [
        {
          "internalType": "uint256",
          "name": "totalBond",
          "type": "uint256"
        }
      ],
      "stateMutability": "nonpayable",
      "type": "function"
    },
    {
      "inputs": [
        {
          "internalType": "bytes32",
          "name": "identifier",
          "type": "bytes32"
        },
        {
          "internalType": "uint256",
          "name": "timestamp",
          "type": "uint256"
        },
        {
          "internalType": "bytes",
          "name": "ancillaryData",
          "type": "bytes"
        }
      ],
      "name": "setRefundOnDispute",
      "outputs": [],
      "stateMutability": "nonpayable",
      "type": "function"
    },
    {
      "inputs": [
        {
          "internalType": "bytes32",
          "name": "identifier",
          "type": "bytes32"
        },
        {
          "internalType": "uint256",
          "name": "timestamp",
          "type": "uint256"
        },
        {
          "internalType": "bytes",
          "name": "ancillaryData",
          "type": "bytes"
        },
        {
          "internalType": "uint256",
          "name": "customLiveness",
          "type": "uint256"
        }
      ],
      "name": "setCustomLiveness",
      "outputs": [],
      "stateMutability": "nonpayable",
      "type": "function"
    },
    {
      "inputs": [
        {
          "internalType": "address",
          "name": "proposer",
          "type": "address"
        },
        {
          "internalType": "address",
          "name": "requester",
          "type": "address"
        },
        {
          "internalType": "bytes32",
          "name": "identifier",
          "type": "bytes32"
        },
        {
          "internalType": "uint256",
          "name": "timestamp",
          "type": "uint256"
        },
        {
          "internalType": "bytes",
          "name": "ancillaryData",
          "type": "bytes"
        },
        {
          "internalType": "int256",
          "name": "proposedPrice",
          "type": "int256"
        }
      ],
      "name": "proposePriceFor",
      "outputs": [
        {
          "internalType": "uint256",
          "name": "totalBond",
          "type": "uint256"
        }
      ],
      "stateMutability": "nonpayable",
      "type": "function"
    },
    {
      "inputs": [
        {
          "internalType": "address",
          "name": "requester",
          "type": "address"
        },
        {
          "internalType": "bytes32",
          "name": "identifier",
          "type": "bytes32"
        },
        {
          "internalType": "uint256",
          "name": "timestamp",
          "type": "uint256"
        },
        {
          "internalType": "bytes",
          "name": "ancillaryData",
          "type": "bytes"
        },
        {
          "internalType": "int256",
          "name": "proposedPrice",
          "type": "int256"
        }
      ],
      "name": "proposePrice",
      "outputs": [
        {
          "internalType": "uint256",
          "name": "totalBond",
          "type": "uint256"
        }
      ],
      "stateMutability": "nonpayable",
      "type": "function"
    },
    {
      "inputs": [
        {
          "internalType": "address",
          "name": "disputer",
          "type": "address"
        },
        {
          "internalType": "address",
          "name": "requester",
          "type": "address"
        },
        {
          "internalType": "bytes32",
          "name": "identifier",
          "type": "bytes32"
        },
        {
          "internalType": "uint256",
          "name": "timestamp",
          "type": "uint256"
        },
        {
          "internalType": "bytes",
          "name": "ancillaryData",
          "type": "bytes"
        }
      ],
      "name": "disputePriceFor",
      "outputs": [
        {
          "internalType": "uint256",
          "name": "totalBond",
          "type": "uint256"
        }
      ],
      "stateMutability": "nonpayable",
      "type": "function"
    },
    {
      "inputs": [
        {
          "internalType": "address",
          "name": "requester",
          "type": "address"
        },
        {
          "internalType": "bytes32",
          "name": "identifier",
          "type": "bytes32"
        },
        {
          "internalType": "uint256",
          "name": "timestamp",
          "type": "uint256"
        },
        {
          "internalType": "bytes",
          "name": "ancillaryData",
          "type": "bytes"
        }
      ],
      "name": "disputePrice",
      "outputs": [
        {
          "internalType": "uint256",
          "name": "totalBond",
          "type": "uint256"
        }
      ],
      "stateMutability": "nonpayable",
      "type": "function"
    },
    {
      "inputs": [
        {
          "internalType": "bytes32",
          "name": "identifier",
          "type": "bytes32"
        },
        {
          "internalType": "uint256",
          "name": "timestamp",
          "type": "uint256"
        },
        {
          "internalType": "bytes",
          "name": "ancillaryData",
          "type": "bytes"
        }
      ],
      "name": "settleAndGetPrice",
      "outputs": [
        {
          "internalType": "int256",
          "name": "",
          "type": "int256"
        }
      ],
      "stateMutability": "nonpayable",
      "type": "function"
    },
    {
      "inputs": [
        {
          "internalType": "address",
          "name": "requester",
          "type": "address"
        },
        {
          "internalType": "bytes32",
          "name": "identifier",
          "type": "bytes32"
        },
        {
          "internalType": "uint256",
          "name": "timestamp",
          "type": "uint256"
        },
        {
          "internalType": "bytes",
          "name": "ancillaryData",
          "type": "bytes"
        }
      ],
      "name": "settle",
      "outputs": [
        {
          "internalType": "uint256",
          "name": "payout",
          "type": "uint256"
        }
      ],
      "stateMutability": "nonpayable",
      "type": "function"
    },
    {
      "inputs": [
        {
          "internalType": "address",
          "name": "requester",
          "type": "address"
        },
        {
          "internalType": "bytes32",
          "name": "identifier",
          "type": "bytes32"
        },
        {
          "internalType": "uint256",
          "name": "timestamp",
          "type": "uint256"
        },
        {
          "internalType": "bytes",
          "name": "ancillaryData",
          "type": "bytes"
        }
      ],
      "name": "getRequest",
      "outputs": [
        {
          "components": [
            {
              "internalType": "address",
              "name": "proposer",
              "type": "address"
            },
            {
              "internalType": "address",
              "name": "disputer",
              "type": "address"
            },
            {
              "internalType": "contract IERC20",
              "name": "currency",
              "type": "address"
            },
            {
              "internalType": "bool",
              "name": "settled",
              "type": "bool"
            },
            {
              "internalType": "bool",
              "name": "refundOnDispute",
              "type": "bool"
            },
            {
              "internalType": "int256",
              "name": "proposedPrice",
              "type": "int256"
            },
            {
              "internalType": "int256",
              "name": "resolvedPrice",
              "type": "int256"
            },
            {
              "internalType": "uint256",
              "name": "expirationTime",
              "type": "uint256"
            },
            {
              "internalType": "uint256",
              "name": "reward",
              "type": "uint256"
            },
            {
              "internalType": "uint256",
              "name": "finalFee",
              "type": "uint256"
            },
            {
              "internalType": "uint256",
              "name": "bond",
              "type": "uint256"
            },
            {
              "internalType": "uint256",
              "name": "customLiveness",
              "type": "uint256"
            }
          ],
          "internalType": "struct OptimisticOracleInterface.Request",
          "name": "",
          "type": "tuple"
        }
      ],
      "stateMutability": "view",
      "type": "function",
      "constant": true
    },
    {
      "inputs": [
        {
          "internalType": "address",
          "name": "requester",
          "type": "address"
        },
        {
          "internalType": "bytes32",
          "name": "identifier",
          "type": "bytes32"
        },
        {
          "internalType": "uint256",
          "name": "timestamp",
          "type": "uint256"
        },
        {
          "internalType": "bytes",
          "name": "ancillaryData",
          "type": "bytes"
        }
      ],
      "name": "getState",
      "outputs": [
        {
          "internalType": "enum OptimisticOracleInterface.State",
          "name": "",
          "type": "uint8"
        }
      ],
      "stateMutability": "view",
      "type": "function",
      "constant": true
    },
    {
      "inputs": [
        {
          "internalType": "address",
          "name": "requester",
          "type": "address"
        },
        {
          "internalType": "bytes32",
          "name": "identifier",
          "type": "bytes32"
        },
        {
          "internalType": "uint256",
          "name": "timestamp",
          "type": "uint256"
        },
        {
          "internalType": "bytes",
          "name": "ancillaryData",
          "type": "bytes"
        }
      ],
      "name": "hasPrice",
      "outputs": [
        {
          "internalType": "bool",
          "name": "",
          "type": "bool"
        }
      ],
      "stateMutability": "view",
      "type": "function",
      "constant": true
    },
    {
      "inputs": [
        {
          "internalType": "bytes",
          "name": "ancillaryData",
          "type": "bytes"
        },
        {
          "internalType": "address",
          "name": "requester",
          "type": "address"
        }
      ],
      "name": "stampAncillaryData",
      "outputs": [
        {
          "internalType": "bytes",
          "name": "",
          "type": "bytes"
        }
      ],
      "stateMutability": "pure",
      "type": "function",
      "constant": true
    }
  ],
  "bytecode": "0x60806040523480156200001157600080fd5b506040516200297938038062002979833981016040819052620000349162000149565b60008054600160a01b6001600160a01b038481166001600160a81b03199093169290921717909155600280546001600160a01b0319169184169190911790556200007e8362000089565b505060035562000189565b63bb7448008110620000d75760405162461bcd60e51b81526020600482015260126024820152714c6976656e65737320746f6f206c6172676560701b60448201526064015b60405180910390fd5b60008111620001295760405162461bcd60e51b815260206004820152601460248201527f4c6976656e6573732063616e6e6f7420626520300000000000000000000000006044820152606401620000ce565b50565b80516001600160a01b03811681146200014457600080fd5b919050565b6000806000606084860312156200015e578283fd5b8351925062000170602085016200012c565b915062000180604085016200012c565b90509250925092565b6127e080620001996000396000f3fe608060405234801561001057600080fd5b50600436106101375760003560e01c80639d866985116100b8578063b9a3c84c1161007c578063b9a3c84c1461036b578063ba4b930c1461037e578063bc58ccaa1461039e578063c371dda7146103c1578063fba7f1e3146103ca578063fe4e1983146103dd57600080fd5b80639d8669851461021c578063a9904f9b14610305578063ad5a755a14610325578063af5d2f3914610338578063b8b4f9081461035857600080fd5b806353b59239116100ff57806353b59239146101bd5780635e9a79a9146101d057806376c7823f146101e35780637c82288f146101f657806391f58dcb1461020957600080fd5b806311df92f11461013c5780631c39c38d1461016257806322f8e5661461018d57806329cb924d146101a2578063473c45fe146101aa575b600080fd5b61014f61014a36600461227e565b6103e6565b6040519081526020015b60405180910390f35b600054610175906001600160a01b031681565b6040516001600160a01b039091168152602001610159565b6101a061019b366004612218565b61090e565b005b61014f610984565b6101a06101b83660046122e7565b610a24565b61014f6101cb366004612230565b610ad6565b61014f6101de36600461212e565b610b49565b61014f6101f136600461203e565b610b79565b61014f6102043660046120b2565b610f13565b6101a0610217366004612230565b611165565b61029b61022a366004612218565b600160208190526000918252604090912080549181015460028201546003830154600484015460058501546006860154600787015460088801546009909801546001600160a01b03998a1699978816989787169760ff600160a01b8904811698600160a81b9004169695949392918c565b604080516001600160a01b039d8e1681529b8d1660208d015299909b16988a01989098529515156060890152931515608088015260a087019290925260c086015260e085015261010084015261012083015261014082015261016081019190915261018001610159565b61031861031336600461212e565b611227565b604051610159919061260b565b61014f6103333660046122e7565b611364565b61034b61034636600461233d565b611418565b60405161015991906125d0565b61014f61036636600461218f565b611424565b600254610175906001600160a01b031681565b61039161038c36600461212e565b611434565b60405161015991906125e3565b6103b16103ac36600461212e565b611577565b6040519015158152602001610159565b61014f61200081565b61014f6103d836600461212e565b611608565b61014f60035481565b60006103f0611617565b6103f8611672565b600061040633888888611434565b600681111561042557634e487b7160e01b600052602160045260246000fd5b1461046f5760405162461bcd60e51b81526020600482015260156024820152741c995c5d595cdd141c9a58d94e88125b9d985b1a59605a1b60448201526064015b60405180910390fd5b610477611681565b6001600160a01b03166390978d1b876040518263ffffffff1660e01b81526004016104a491815260200190565b60206040518083038186803b1580156104bc57600080fd5b505afa1580156104d0573d6000803e3d6000fd5b505050506040513d601f19601f820116820180604052508101906104f491906121f8565b6105395760405162461bcd60e51b81526020600482015260166024820152752ab739bab83837b93a32b21034b232b73a34b334b2b960511b6044820152606401610466565b610541611714565b604051631d1d5b3960e11b81526001600160a01b0385811660048301529190911690633a3ab6729060240160206040518083038186803b15801561058457600080fd5b505afa158015610598573d6000803e3d6000fd5b505050506040513d601f19601f820116820180604052508101906105bc91906121f8565b6105ff5760405162461bcd60e51b8152602060048201526014602482015273556e737570706f727465642063757272656e637960601b6044820152606401610466565b610607610984565b85111561064c5760405162461bcd60e51b815260206004820152601360248201527254696d657374616d7020696e2066757475726560681b6044820152606401610466565b612000845111156106985760405162461bcd60e51b8152602060048201526016602482015275496e76616c696420616e63696c6c617279206461746160501b6044820152606401610466565b60006106a261175b565b604051635b97aadd60e01b81526001600160a01b0386811660048301529190911690635b97aadd9060240160206040518083038186803b1580156106e557600080fd5b505afa1580156106f9573d6000803e3d6000fd5b505050506040513d601f19601f8201168201806040525081019061071d91906123a5565b60000151905060405180610180016040528060006001600160a01b0316815260200160006001600160a01b03168152602001856001600160a01b031681526020016000151581526020016000151581526020016000815260200160008152602001600081526020018481526020018281526020018281526020016000815250600160006107ac338b8b8b611794565b81526020808201929092526040908101600020835181546001600160a01b039182166001600160a01b031991821617835593850151600183018054918316919095161790935590830151600282018054606086015160808701511515600160a81b0260ff60a81b19911515600160a01b026001600160a81b0319909316949096169390931717919091169290921790915560a0820151600382015560c0820151600482015560e082015160058201556101008201516006820155610120820151600782015561014082015160088201556101609091015160099091015582156108a4576108a46001600160a01b0385163330866117cd565b336001600160a01b03167ff1679315ff325c257a944e0ca1bfe7b26616039e9511f9610d4ba3eca851027b8888888888876040516108e7969594939291906124e1565b60405180910390a26108fa816002611838565b915050610905611844565b95945050505050565b6000546001600160a01b031661092357600080fd5b60005460405163117c72b360e11b8152600481018390526001600160a01b03909116906322f8e56690602401600060405180830381600087803b15801561096957600080fd5b505af115801561097d573d6000803e3d6000fd5b5050505050565b600080546001600160a01b031615610a1f5760008054906101000a90046001600160a01b03166001600160a01b03166329cb924d6040518163ffffffff1660e01b815260040160206040518083038186803b1580156109e257600080fd5b505afa1580156109f6573d6000803e3d6000fd5b505050506040513d601f19601f82011682018060405250810190610a1a919061238d565b905090565b504290565b610a2c611617565b610a34611672565b6001610a4233868686611434565b6006811115610a6157634e487b7160e01b600052602160045260246000fd5b14610aae5760405162461bcd60e51b815260206004820152601c60248201527f736574437573746f6d4c6976656e6573733a20526571756573746564000000006044820152606401610466565b610ab781611859565b80610ac4338686866118eb565b60090155610ad0611844565b50505050565b6000610ae0611617565b610ae8611672565b6006610af633868686611434565b6006811115610b1557634e487b7160e01b600052602160045260246000fd5b14610b2857610b2633858585611915565b505b610b34338585856118eb565b600401549050610b42611844565b9392505050565b6000610b53611617565b610b5b611672565b610b6785858585611915565b9050610b71611844565b949350505050565b6000610b83611617565b610b8b611672565b6001600160a01b038616610be15760405162461bcd60e51b815260206004820152601e60248201527f64697370757465722061646472657373206d757374206265206e6f6e203000006044820152606401610466565b6002610bef86868686611434565b6006811115610c0e57634e487b7160e01b600052602160045260246000fd5b14610c5b5760405162461bcd60e51b815260206004820152601960248201527f646973707574655072696365466f723a2050726f706f736564000000000000006044820152606401610466565b6000610c69868686866118eb565b6001810180546001600160a01b0319166001600160a01b038a161790556007810154600882015491925090610c9e8183611c2a565b93508315610cc0576002830154610cc0906001600160a01b03163330876117cd565b6000610cca61175b565b90506000610cd785611c36565b90506000610ce58583611c2a565b90508015610d82576002860154610d06906001600160a01b03168483611c4f565b610d0e61175b565b600287015460408051602081018252848152905163432ce91960e11b81526001600160a01b03928316600482015290516024820152911690638659d23290604401600060405180830381600087803b158015610d6957600080fd5b505af1158015610d7d573d6000803e3d6000fd5b505050505b5050610d8c611d10565b6001600160a01b031663216666a48989610da68a8e611d4a565b6040518463ffffffff1660e01b8152600401610dc4939291906124c2565b600060405180830381600087803b158015610dde57600080fd5b505af1158015610df2573d6000803e3d6000fd5b505050506000808560060154118015610e1657506002850154600160a81b900460ff165b15610e40575060068401805460009091556002850154610e40906001600160a01b03168b83611d76565b845460038601546040516001600160a01b03808f1693811692908e16917f5165909c3d1c01c5d1e121ac6f6d01dda1ba24bc9e1f975b5a375339c15be7f391610e8f918f918f918f9190612527565b60405180910390a46001600160a01b038a163b15610f06576040516306c791b960e11b81526001600160a01b038b1690630d8f237290610ed9908c908c908c908790600401612527565b600060405180830381600087803b158015610ef357600080fd5b505af1925050508015610f04575060015b505b5050505050610905611844565b6000610f1d611617565b610f25611672565b6001600160a01b038716610f7b5760405162461bcd60e51b815260206004820152601e60248201527f70726f706f7365722061646472657373206d757374206265206e6f6e203000006044820152606401610466565b6001610f8987878787611434565b6006811115610fa857634e487b7160e01b600052602160045260246000fd5b14610ff55760405162461bcd60e51b815260206004820152601a60248201527f70726f706f73655072696365466f723a205265717565737465640000000000006044820152606401610466565b6000611003878787876118eb565b80546001600160a01b0319166001600160a01b038a1617815560038101849055600981015490915061104f9061103b57600354611041565b81600901545b611049610984565b90611c2a565b60058201556007810154600882015461106791611c2a565b91508115611089576002810154611089906001600160a01b03163330856117cd565b600581015460028201546040516001600160a01b038b8116938b8216937f6e51dd00371aabffa82cd401592f76ed51e98a9ea4b58751c70463a2c78b5ca1936110dd938d938d938d938d939091169061258a565b60405180910390a36001600160a01b0387163b1561115257604051639c2fd1df60e01b81526001600160a01b03881690639c2fd1df90611125908990899089906004016124c2565b600060405180830381600087803b15801561113f57600080fd5b505af1925050508015611150575060015b505b5061115b611844565b9695505050505050565b61116d611617565b611175611672565b600161118333858585611434565b60068111156111a257634e487b7160e01b600052602160045260246000fd5b146111ef5760405162461bcd60e51b815260206004820152601d60248201527f736574526566756e644f6e446973707574653a205265717565737465640000006044820152606401610466565b60016111fd338585856118eb565b6002018054911515600160a81b0260ff60a81b19909216919091179055611222611844565b505050565b6112aa60405180610180016040528060006001600160a01b0316815260200160006001600160a01b0316815260200160006001600160a01b03168152602001600015158152602001600015158152602001600081526020016000815260200160008152602001600081526020016000815260200160008152602001600081525090565b6112b6858585856118eb565b604080516101808101825282546001600160a01b03908116825260018401548116602083015260028401549081169282019290925260ff600160a01b8304811615156060830152600160a81b90920490911615156080820152600382015460a0820152600482015460c0820152600582015460e08201526006820154610100820152600782015461012082015260088201546101408201526009909101546101608201529050949350505050565b600061136e611617565b611376611672565b600161138433878787611434565b60068111156113a357634e487b7160e01b600052602160045260246000fd5b146113e55760405162461bcd60e51b81526020600482015260126024820152711cd95d109bdb990e8814995c5d595cdd195960721b6044820152606401610466565b60006113f3338787876118eb565b60088101849055600781015490915061140d908490611c2a565b915050610b71611844565b6060610b428383611d4a565b600061115b338787878787610f13565b600080611443868686866118eb565b60028101549091506001600160a01b0316611462576000915050610b71565b80546001600160a01b031661147b576001915050610b71565b6002810154600160a01b900460ff1615611499576006915050610b71565b60018101546001600160a01b03166114d0576114b3610984565b816005015411156114c55760026114c8565b60035b915050610b71565b6114d8611d10565b6001600160a01b031663b551cd5086866114f2878b611d4a565b6040518463ffffffff1660e01b8152600401611510939291906124c2565b60206040518083038186803b15801561152857600080fd5b505afa15801561153c573d6000803e3d6000fd5b505050506040513d601f19601f8201168201806040525081019061156091906121f8565b61156b57600461115b565b60059695505050505050565b60008061158686868686611434565b905060068160068111156115aa57634e487b7160e01b600052602160045260246000fd5b14806115d5575060058160068111156115d357634e487b7160e01b600052602160045260246000fd5b145b8061115b575060038160068111156115fd57634e487b7160e01b600052602160045260246000fd5b149695505050505050565b60006109053386868686610b79565b600054600160a01b900460ff166116705760405162461bcd60e51b815260206004820152601f60248201527f5265656e7472616e637947756172643a207265656e7472616e742063616c6c006044820152606401610466565b565b6000805460ff60a01b19169055565b6002546040516302abf57960e61b8152721259195b9d1a599a595c95da1a5d195b1a5cdd606a1b60048201526000916001600160a01b03169063aafd5e40906024015b60206040518083038186803b1580156116dc57600080fd5b505afa1580156116f0573d6000803e3d6000fd5b505050506040513d601f19601f82011682018060405250810190610a1a9190612022565b6002546040516302abf57960e61b81527210dbdb1b185d195c985b15da1a5d195b1a5cdd606a1b60048201526000916001600160a01b03169063aafd5e40906024016116c4565b6002546040516302abf57960e61b81526453746f726560d81b60048201526000916001600160a01b03169063aafd5e40906024016116c4565b6000848484846040516020016117ad9493929190612412565b604051602081830303815290604052805190602001209050949350505050565b6040516001600160a01b0380851660248301528316604482015260648101829052610ad09085906323b872dd60e01b906084015b60408051601f198184030181529190526020810180516001600160e01b03166001600160e01b031990931692909217909152611da6565b6000610b428284612707565b6000805460ff60a01b1916600160a01b179055565b63bb74480081106118a15760405162461bcd60e51b81526020600482015260126024820152714c6976656e65737320746f6f206c6172676560701b6044820152606401610466565b600081116118e85760405162461bcd60e51b815260206004820152601460248201527304c6976656e6573732063616e6e6f7420626520360641b6044820152606401610466565b50565b6000600160006118fd87878787611794565b81526020019081526020016000209050949350505050565b60008061192486868686611434565b90506000611934878787876118eb565b60028101805460ff60a01b1916600160a01b1790559050600382600681111561196d57634e487b7160e01b600052602160045260246000fd5b14156119c1576003810154600482015560068101546007820154600883015461199b92916110499190611c2a565b815460028301549194506119bc916001600160a01b03908116911685611d76565b611b50565b60058260068111156119e357634e487b7160e01b600052602160045260246000fd5b1415611b0e576119f1611d10565b6001600160a01b031663719c6d568787611a0b888c611d4a565b6040518463ffffffff1660e01b8152600401611a29939291906124c2565b60206040518083038186803b158015611a4157600080fd5b505afa158015611a55573d6000803e3d6000fd5b505050506040513d601f19601f82011682018060405250810190611a79919061238d565b6004820181905560038201546008830154911415906000611aa3611a9c85611c36565b8390611e78565b9050611ac8846006015461104986600701546110498587611c2a90919063ffffffff16565b9550611b0683611ae25784546001600160a01b0316611af1565b60018501546001600160a01b03165b60028601546001600160a01b03169088611d76565b505050611b50565b60405162461bcd60e51b81526020600482015260176024820152765f736574746c653a206e6f7420736574746c6561626c6560481b6044820152606401610466565b6001810154815460048301546040516001600160a01b0393841693928316928b16917f3f384afb4bd9f0aef0298c80399950011420eb33b0e1a750b20966270247b9a091611ba5918c918c918c918c90612557565b60405180910390a46001600160a01b0387163b15611c20576004808201546040516304cc1fd560e01b81526001600160a01b038a16926304cc1fd592611bf3928b928b928b92909101612527565b600060405180830381600087803b158015611c0d57600080fd5b505af1925050508015611c1e575060015b505b5050949350505050565b6000610b4282846126cf565b6008810154600090611c49906002611e84565b92915050565b604051636eb1769f60e11b81523060048201526001600160a01b038381166024830152600091839186169063dd62ed3e9060440160206040518083038186803b158015611c9b57600080fd5b505afa158015611caf573d6000803e3d6000fd5b505050506040513d601f19601f82011682018060405250810190611cd3919061238d565b611cdd91906126cf565b6040516001600160a01b038516602482015260448101829052909150610ad090859063095ea7b360e01b90606401611801565b6002546040516302abf57960e61b8152654f7261636c6560d01b60048201526000916001600160a01b03169063aafd5e40906024016116c4565b60608282604051602001611d5f929190612474565b604051602081830303815290604052905092915050565b6040516001600160a01b03831660248201526044810182905261122290849063a9059cbb60e01b90606401611801565b6000611dfb826040518060400160405280602081526020017f5361666545524332303a206c6f772d6c6576656c2063616c6c206661696c6564815250856001600160a01b0316611e909092919063ffffffff16565b8051909150156112225780806020019051810190611e1991906121f8565b6112225760405162461bcd60e51b815260206004820152602a60248201527f5361666545524332303a204552433230206f7065726174696f6e20646964206e6044820152691bdd081cdd58d8d9595960b21b6064820152608401610466565b6000610b428284612726565b6000610b4282846126e7565b6060610b71848460008585843b611ee95760405162461bcd60e51b815260206004820152601d60248201527f416464726573733a2063616c6c20746f206e6f6e2d636f6e74726163740000006044820152606401610466565b600080866001600160a01b03168587604051611f059190612458565b60006040518083038185875af1925050503d8060008114611f42576040519150601f19603f3d011682016040523d82523d6000602084013e611f47565b606091505b5091509150611f57828286611f62565b979650505050505050565b60608315611f71575081610b42565b825115611f815782518084602001fd5b8160405162461bcd60e51b815260040161046691906125d0565b600082601f830112611fab578081fd5b813567ffffffffffffffff80821115611fc657611fc661277f565b604051601f8301601f19908116603f01168101908282118183101715611fee57611fee61277f565b81604052838152866020858801011115612006578485fd5b8360208701602083013792830160200193909352509392505050565b600060208284031215612033578081fd5b8151610b4281612795565b600080600080600060a08688031215612055578081fd5b853561206081612795565b9450602086013561207081612795565b93506040860135925060608601359150608086013567ffffffffffffffff811115612099578182fd5b6120a588828901611f9b565b9150509295509295909350565b60008060008060008060c087890312156120ca578081fd5b86356120d581612795565b955060208701356120e581612795565b94506040870135935060608701359250608087013567ffffffffffffffff81111561210e578182fd5b61211a89828a01611f9b565b92505060a087013590509295509295509295565b60008060008060808587031215612143578384fd5b843561214e81612795565b93506020850135925060408501359150606085013567ffffffffffffffff811115612177578182fd5b61218387828801611f9b565b91505092959194509250565b600080600080600060a086880312156121a6578081fd5b85356121b181612795565b94506020860135935060408601359250606086013567ffffffffffffffff8111156121da578182fd5b6121e688828901611f9b565b95989497509295608001359392505050565b600060208284031215612209578081fd5b81518015158114610b42578182fd5b600060208284031215612229578081fd5b5035919050565b600080600060608486031215612244578283fd5b8335925060208401359150604084013567ffffffffffffffff811115612268578182fd5b61227486828701611f9b565b9150509250925092565b600080600080600060a08688031215612295578081fd5b8535945060208601359350604086013567ffffffffffffffff8111156122b9578182fd5b6122c588828901611f9b565b93505060608601356122d681612795565b949793965091946080013592915050565b600080600080608085870312156122fc578182fd5b8435935060208501359250604085013567ffffffffffffffff811115612320578283fd5b61232c87828801611f9b565b949793965093946060013593505050565b6000806040838503121561234f578182fd5b823567ffffffffffffffff811115612365578283fd5b61237185828601611f9b565b925050602083013561238281612795565b809150509250929050565b60006020828403121561239e578081fd5b5051919050565b6000602082840312156123b6578081fd5b6040516020810181811067ffffffffffffffff821117156123d9576123d961277f565b6040529151825250919050565b600081518084526123fe81602086016020860161273d565b601f01601f19169290920160200192915050565b6bffffffffffffffffffffffff198560601b1681528360148201528260348201526000825161244881605485016020870161273d565b9190910160540195945050505050565b6000825161246a81846020870161273d565b9190910192915050565b6000835161248681846020880161273d565b6f4f7074696d69737469634f7261636c6560801b92019182525060609190911b6bffffffffffffffffffffffff19166010820152602401919050565b83815282602082015260606040820152600061090560608301846123e6565b86815285602082015260c06040820152600061250060c08301876123e6565b6001600160a01b0395909516606083015250608081019290925260a0909101529392505050565b84815283602082015260806040820152600061254660808301856123e6565b905082606083015295945050505050565b85815284602082015260a06040820152600061257660a08301866123e6565b606083019490945250608001529392505050565b86815285602082015260c0604082015260006125a960c08301876123e6565b60608301959095525060808101929092526001600160a01b031660a0909101529392505050565b602081526000610b4260208301846123e6565b602081016007831061260557634e487b7160e01b600052602160045260246000fd5b91905290565b81516001600160a01b031681526101808101602083015161263760208401826001600160a01b03169052565b50604083015161265260408401826001600160a01b03169052565b506060830151612666606084018215159052565b50608083015161267a608084018215159052565b5060a083015160a083015260c083015160c083015260e083015160e083015261010080840151818401525061012080840151818401525061014080840151818401525061016080840151818401525092915050565b600082198211156126e2576126e2612769565b500190565b60008261270257634e487b7160e01b81526012600452602481fd5b500490565b600081600019048311821515161561272157612721612769565b500290565b60008282101561273857612738612769565b500390565b60005b83811015612758578181015183820152602001612740565b83811115610ad05750506000910152565b634e487b7160e01b600052601160045260246000fd5b634e487b7160e01b600052604160045260246000fd5b6001600160a01b03811681146118e857600080fdfea26469706673582212202b5cfd972ffbddda01f558a0fed610babcfc5c289807673f753ee5b16192139664736f6c63430008040033",
  "immutableReferences": {},
  "source": "// SPDX-License-Identifier: AGPL-3.0-only\npragma solidity ^0.8.0;\npragma abicoder v2;\n\nimport \"@openzeppelin/contracts/token/ERC20/IERC20.sol\";\nimport \"@openzeppelin/contracts/token/ERC20/utils/SafeERC20.sol\";\nimport \"@openzeppelin/contracts/utils/math/SafeMath.sol\";\nimport \"@openzeppelin/contracts/utils/Address.sol\";\n\nimport \"../interfaces/StoreInterface.sol\";\nimport \"../interfaces/OracleAncillaryInterface.sol\";\nimport \"../interfaces/FinderInterface.sol\";\nimport \"../interfaces/IdentifierWhitelistInterface.sol\";\nimport \"../interfaces/OptimisticOracleInterface.sol\";\nimport \"./Constants.sol\";\n\nimport \"../../common/implementation/Testable.sol\";\nimport \"../../common/implementation/Lockable.sol\";\nimport \"../../common/implementation/FixedPoint.sol\";\nimport \"../../common/implementation/AddressWhitelist.sol\";\n\n/**\n * @title Optimistic Requester.\n * @notice Optional interface that requesters can implement to receive callbacks.\n * @dev this contract does _not_ work with ERC777 collateral currencies or any others that call into the receiver on\n * transfer(). Using an ERC777 token would allow a user to maliciously grief other participants (while also losing\n * money themselves).\n */\ninterface OptimisticRequester {\n    /**\n     * @notice Callback for proposals.\n     * @param identifier price identifier being requested.\n     * @param timestamp timestamp of the price being requested.\n     * @param ancillaryData ancillary data of the price being requested.\n     */\n    function priceProposed(\n        bytes32 identifier,\n        uint256 timestamp,\n        bytes memory ancillaryData\n    ) external;\n\n    /**\n     * @notice Callback for disputes.\n     * @param identifier price identifier being requested.\n     * @param timestamp timestamp of the price being requested.\n     * @param ancillaryData ancillary data of the price being requested.\n     * @param refund refund received in the case that refundOnDispute was enabled.\n     */\n    function priceDisputed(\n        bytes32 identifier,\n        uint256 timestamp,\n        bytes memory ancillaryData,\n        uint256 refund\n    ) external;\n\n    /**\n     * @notice Callback for settlement.\n     * @param identifier price identifier being requested.\n     * @param timestamp timestamp of the price being requested.\n     * @param ancillaryData ancillary data of the price being requested.\n     * @param price price that was resolved by the escalation process.\n     */\n    function priceSettled(\n        bytes32 identifier,\n        uint256 timestamp,\n        bytes memory ancillaryData,\n        int256 price\n    ) external;\n}\n\n/**\n * @title Optimistic Oracle.\n * @notice Pre-DVM escalation contract that allows faster settlement.\n */\ncontract OptimisticOracle is OptimisticOracleInterface, Testable, Lockable {\n    using SafeMath for uint256;\n    using SafeERC20 for IERC20;\n    using Address for address;\n\n    event RequestPrice(\n        address indexed requester,\n        bytes32 identifier,\n        uint256 timestamp,\n        bytes ancillaryData,\n        address currency,\n        uint256 reward,\n        uint256 finalFee\n    );\n    event ProposePrice(\n        address indexed requester,\n        address indexed proposer,\n        bytes32 identifier,\n        uint256 timestamp,\n        bytes ancillaryData,\n        int256 proposedPrice,\n        uint256 expirationTimestamp,\n        address currency\n    );\n    event DisputePrice(\n        address indexed requester,\n        address indexed proposer,\n        address indexed disputer,\n        bytes32 identifier,\n        uint256 timestamp,\n        bytes ancillaryData,\n        int256 proposedPrice\n    );\n    event Settle(\n        address indexed requester,\n        address indexed proposer,\n        address indexed disputer,\n        bytes32 identifier,\n        uint256 timestamp,\n        bytes ancillaryData,\n        int256 price,\n        uint256 payout\n    );\n\n    mapping(bytes32 => Request) public requests;\n\n    // Finder to provide addresses for DVM contracts.\n    FinderInterface public finder;\n\n    // Default liveness value for all price requests.\n    uint256 public defaultLiveness;\n\n    /**\n     * @notice Constructor.\n     * @param _liveness default liveness applied to each price request.\n     * @param _finderAddress finder to use to get addresses of DVM contracts.\n     * @param _timerAddress address of the timer contract. Should be 0x0 in prod.\n     */\n    constructor(\n        uint256 _liveness,\n        address _finderAddress,\n        address _timerAddress\n    ) Testable(_timerAddress) {\n        finder = FinderInterface(_finderAddress);\n        _validateLiveness(_liveness);\n        defaultLiveness = _liveness;\n    }\n\n    /**\n     * @notice Requests a new price.\n     * @param identifier price identifier being requested.\n     * @param timestamp timestamp of the price being requested.\n     * @param ancillaryData ancillary data representing additional args being passed with the price request.\n     * @param currency ERC20 token used for payment of rewards and fees. Must be approved for use with the DVM.\n     * @param reward reward offered to a successful proposer. Will be pulled from the caller. Note: this can be 0,\n     *               which could make sense if the contract requests and proposes the value in the same call or\n     *               provides its own reward system.\n     * @return totalBond default bond (final fee) + final fee that the proposer and disputer will be required to pay.\n     * This can be changed with a subsequent call to setBond().\n     */\n    function requestPrice(\n        bytes32 identifier,\n        uint256 timestamp,\n        bytes memory ancillaryData,\n        IERC20 currency,\n        uint256 reward\n    ) external override nonReentrant() returns (uint256 totalBond) {\n        require(getState(msg.sender, identifier, timestamp, ancillaryData) == State.Invalid, \"requestPrice: Invalid\");\n        require(_getIdentifierWhitelist().isIdentifierSupported(identifier), \"Unsupported identifier\");\n        require(_getCollateralWhitelist().isOnWhitelist(address(currency)), \"Unsupported currency\");\n        require(timestamp <= getCurrentTime(), \"Timestamp in future\");\n        require(ancillaryData.length <= ancillaryBytesLimit, \"Invalid ancillary data\");\n        uint256 finalFee = _getStore().computeFinalFee(address(currency)).rawValue;\n        requests[_getId(msg.sender, identifier, timestamp, ancillaryData)] = Request({\n            proposer: address(0),\n            disputer: address(0),\n            currency: currency,\n            settled: false,\n            refundOnDispute: false,\n            proposedPrice: 0,\n            resolvedPrice: 0,\n            expirationTime: 0,\n            reward: reward,\n            finalFee: finalFee,\n            bond: finalFee,\n            customLiveness: 0\n        });\n\n        if (reward > 0) {\n            currency.safeTransferFrom(msg.sender, address(this), reward);\n        }\n\n        emit RequestPrice(msg.sender, identifier, timestamp, ancillaryData, address(currency), reward, finalFee);\n\n        // This function returns the initial proposal bond for this request, which can be customized by calling\n        // setBond() with the same identifier and timestamp.\n        return finalFee.mul(2);\n    }\n\n    /**\n     * @notice Set the proposal bond associated with a price request.\n     * @param identifier price identifier to identify the existing request.\n     * @param timestamp timestamp to identify the existing request.\n     * @param ancillaryData ancillary data of the price being requested.\n     * @param bond custom bond amount to set.\n     * @return totalBond new bond + final fee that the proposer and disputer will be required to pay. This can be\n     * changed again with a subsequent call to setBond().\n     */\n    function setBond(\n        bytes32 identifier,\n        uint256 timestamp,\n        bytes memory ancillaryData,\n        uint256 bond\n    ) external override nonReentrant() returns (uint256 totalBond) {\n        require(getState(msg.sender, identifier, timestamp, ancillaryData) == State.Requested, \"setBond: Requested\");\n        Request storage request = _getRequest(msg.sender, identifier, timestamp, ancillaryData);\n        request.bond = bond;\n\n        // Total bond is the final fee + the newly set bond.\n        return bond.add(request.finalFee);\n    }\n\n    /**\n     * @notice Sets the request to refund the reward if the proposal is disputed. This can help to \"hedge\" the caller\n     * in the event of a dispute-caused delay. Note: in the event of a dispute, the winner still receives the other's\n     * bond, so there is still profit to be made even if the reward is refunded.\n     * @param identifier price identifier to identify the existing request.\n     * @param timestamp timestamp to identify the existing request.\n     * @param ancillaryData ancillary data of the price being requested.\n     */\n    function setRefundOnDispute(\n        bytes32 identifier,\n        uint256 timestamp,\n        bytes memory ancillaryData\n    ) external override nonReentrant() {\n        require(\n            getState(msg.sender, identifier, timestamp, ancillaryData) == State.Requested,\n            \"setRefundOnDispute: Requested\"\n        );\n        _getRequest(msg.sender, identifier, timestamp, ancillaryData).refundOnDispute = true;\n    }\n\n    /**\n     * @notice Sets a custom liveness value for the request. Liveness is the amount of time a proposal must wait before\n     * being auto-resolved.\n     * @param identifier price identifier to identify the existing request.\n     * @param timestamp timestamp to identify the existing request.\n     * @param ancillaryData ancillary data of the price being requested.\n     * @param customLiveness new custom liveness.\n     */\n    function setCustomLiveness(\n        bytes32 identifier,\n        uint256 timestamp,\n        bytes memory ancillaryData,\n        uint256 customLiveness\n    ) external override nonReentrant() {\n        require(\n            getState(msg.sender, identifier, timestamp, ancillaryData) == State.Requested,\n            \"setCustomLiveness: Requested\"\n        );\n        _validateLiveness(customLiveness);\n        _getRequest(msg.sender, identifier, timestamp, ancillaryData).customLiveness = customLiveness;\n    }\n\n    /**\n     * @notice Proposes a price value on another address' behalf. Note: this address will receive any rewards that come\n     * from this proposal. However, any bonds are pulled from the caller.\n     * @param proposer address to set as the proposer.\n     * @param requester sender of the initial price request.\n     * @param identifier price identifier to identify the existing request.\n     * @param timestamp timestamp to identify the existing request.\n     * @param ancillaryData ancillary data of the price being requested.\n     * @param proposedPrice price being proposed.\n     * @return totalBond the amount that's pulled from the caller's wallet as a bond. The bond will be returned to\n     * the proposer once settled if the proposal is correct.\n     */\n    function proposePriceFor(\n        address proposer,\n        address requester,\n        bytes32 identifier,\n        uint256 timestamp,\n        bytes memory ancillaryData,\n        int256 proposedPrice\n    ) public override nonReentrant() returns (uint256 totalBond) {\n        require(proposer != address(0), \"proposer address must be non 0\");\n        require(\n            getState(requester, identifier, timestamp, ancillaryData) == State.Requested,\n            \"proposePriceFor: Requested\"\n        );\n        Request storage request = _getRequest(requester, identifier, timestamp, ancillaryData);\n        request.proposer = proposer;\n        request.proposedPrice = proposedPrice;\n\n        // If a custom liveness has been set, use it instead of the default.\n        request.expirationTime = getCurrentTime().add(\n            request.customLiveness != 0 ? request.customLiveness : defaultLiveness\n        );\n\n        totalBond = request.bond.add(request.finalFee);\n        if (totalBond > 0) {\n            request.currency.safeTransferFrom(msg.sender, address(this), totalBond);\n        }\n\n        emit ProposePrice(\n            requester,\n            proposer,\n            identifier,\n            timestamp,\n            ancillaryData,\n            proposedPrice,\n            request.expirationTime,\n            address(request.currency)\n        );\n\n        // Callback.\n        if (address(requester).isContract())\n            try OptimisticRequester(requester).priceProposed(identifier, timestamp, ancillaryData) {} catch {}\n    }\n\n    /**\n     * @notice Proposes a price value for an existing price request.\n     * @param requester sender of the initial price request.\n     * @param identifier price identifier to identify the existing request.\n     * @param timestamp timestamp to identify the existing request.\n     * @param ancillaryData ancillary data of the price being requested.\n     * @param proposedPrice price being proposed.\n     * @return totalBond the amount that's pulled from the proposer's wallet as a bond. The bond will be returned to\n     * the proposer once settled if the proposal is correct.\n     */\n    function proposePrice(\n        address requester,\n        bytes32 identifier,\n        uint256 timestamp,\n        bytes memory ancillaryData,\n        int256 proposedPrice\n    ) external override returns (uint256 totalBond) {\n        // Note: re-entrancy guard is done in the inner call.\n        return proposePriceFor(msg.sender, requester, identifier, timestamp, ancillaryData, proposedPrice);\n    }\n\n    /**\n     * @notice Disputes a price request with an active proposal on another address' behalf. Note: this address will\n     * receive any rewards that come from this dispute. However, any bonds are pulled from the caller.\n     * @param disputer address to set as the disputer.\n     * @param requester sender of the initial price request.\n     * @param identifier price identifier to identify the existing request.\n     * @param timestamp timestamp to identify the existing request.\n     * @param ancillaryData ancillary data of the price being requested.\n     * @return totalBond the amount that's pulled from the caller's wallet as a bond. The bond will be returned to\n     * the disputer once settled if the dispute was valid (the proposal was incorrect).\n     */\n    function disputePriceFor(\n        address disputer,\n        address requester,\n        bytes32 identifier,\n        uint256 timestamp,\n        bytes memory ancillaryData\n    ) public override nonReentrant() returns (uint256 totalBond) {\n        require(disputer != address(0), \"disputer address must be non 0\");\n        require(\n            getState(requester, identifier, timestamp, ancillaryData) == State.Proposed,\n            \"disputePriceFor: Proposed\"\n        );\n        Request storage request = _getRequest(requester, identifier, timestamp, ancillaryData);\n        request.disputer = disputer;\n\n        uint256 finalFee = request.finalFee;\n        uint256 bond = request.bond;\n        totalBond = bond.add(finalFee);\n        if (totalBond > 0) {\n            request.currency.safeTransferFrom(msg.sender, address(this), totalBond);\n        }\n\n        StoreInterface store = _getStore();\n\n        // Avoids stack too deep compilation error.\n        {\n            // Along with the final fee, \"burn\" part of the loser's bond to ensure that a larger bond always makes it\n            // proportionally more expensive to delay the resolution even if the proposer and disputer are the same\n            // party.\n            uint256 burnedBond = _computeBurnedBond(request);\n\n            // The total fee is the burned bond and the final fee added together.\n            uint256 totalFee = finalFee.add(burnedBond);\n\n            if (totalFee > 0) {\n                request.currency.safeIncreaseAllowance(address(store), totalFee);\n                _getStore().payOracleFeesErc20(address(request.currency), FixedPoint.Unsigned(totalFee));\n            }\n        }\n\n        _getOracle().requestPrice(identifier, timestamp, _stampAncillaryData(ancillaryData, requester));\n\n        // Compute refund.\n        uint256 refund = 0;\n        if (request.reward > 0 && request.refundOnDispute) {\n            refund = request.reward;\n            request.reward = 0;\n            request.currency.safeTransfer(requester, refund);\n        }\n\n        emit DisputePrice(\n            requester,\n            request.proposer,\n            disputer,\n            identifier,\n            timestamp,\n            ancillaryData,\n            request.proposedPrice\n        );\n\n        // Callback.\n        if (address(requester).isContract())\n            try OptimisticRequester(requester).priceDisputed(identifier, timestamp, ancillaryData, refund) {} catch {}\n    }\n\n    /**\n     * @notice Disputes a price value for an existing price request with an active proposal.\n     * @param requester sender of the initial price request.\n     * @param identifier price identifier to identify the existing request.\n     * @param timestamp timestamp to identify the existing request.\n     * @param ancillaryData ancillary data of the price being requested.\n     * @return totalBond the amount that's pulled from the disputer's wallet as a bond. The bond will be returned to\n     * the disputer once settled if the dispute was valid (the proposal was incorrect).\n     */\n    function disputePrice(\n        address requester,\n        bytes32 identifier,\n        uint256 timestamp,\n        bytes memory ancillaryData\n    ) external override returns (uint256 totalBond) {\n        // Note: re-entrancy guard is done in the inner call.\n        return disputePriceFor(msg.sender, requester, identifier, timestamp, ancillaryData);\n    }\n\n    /**\n     * @notice Retrieves a price that was previously requested by a caller. Reverts if the request is not settled\n     * or settleable. Note: this method is not view so that this call may actually settle the price request if it\n     * hasn't been settled.\n     * @param identifier price identifier to identify the existing request.\n     * @param timestamp timestamp to identify the existing request.\n     * @param ancillaryData ancillary data of the price being requested.\n     * @return resolved price.\n     */\n    function settleAndGetPrice(\n        bytes32 identifier,\n        uint256 timestamp,\n        bytes memory ancillaryData\n    ) external override nonReentrant() returns (int256) {\n        if (getState(msg.sender, identifier, timestamp, ancillaryData) != State.Settled) {\n            _settle(msg.sender, identifier, timestamp, ancillaryData);\n        }\n\n        return _getRequest(msg.sender, identifier, timestamp, ancillaryData).resolvedPrice;\n    }\n\n    /**\n     * @notice Attempts to settle an outstanding price request. Will revert if it isn't settleable.\n     * @param requester sender of the initial price request.\n     * @param identifier price identifier to identify the existing request.\n     * @param timestamp timestamp to identify the existing request.\n     * @param ancillaryData ancillary data of the price being requested.\n     * @return payout the amount that the \"winner\" (proposer or disputer) receives on settlement. This amount includes\n     * the returned bonds as well as additional rewards.\n     */\n    function settle(\n        address requester,\n        bytes32 identifier,\n        uint256 timestamp,\n        bytes memory ancillaryData\n    ) external override nonReentrant() returns (uint256 payout) {\n        return _settle(requester, identifier, timestamp, ancillaryData);\n    }\n\n    /**\n     * @notice Gets the current data structure containing all information about a price request.\n     * @param requester sender of the initial price request.\n     * @param identifier price identifier to identify the existing request.\n     * @param timestamp timestamp to identify the existing request.\n     * @param ancillaryData ancillary data of the price being requested.\n     * @return the Request data structure.\n     */\n    function getRequest(\n        address requester,\n        bytes32 identifier,\n        uint256 timestamp,\n        bytes memory ancillaryData\n    ) public view override returns (Request memory) {\n        return _getRequest(requester, identifier, timestamp, ancillaryData);\n    }\n\n    /**\n     * @notice Computes the current state of a price request. See the State enum for more details.\n     * @param requester sender of the initial price request.\n     * @param identifier price identifier to identify the existing request.\n     * @param timestamp timestamp to identify the existing request.\n     * @param ancillaryData ancillary data of the price being requested.\n     * @return the State.\n     */\n    function getState(\n        address requester,\n        bytes32 identifier,\n        uint256 timestamp,\n        bytes memory ancillaryData\n    ) public view override returns (State) {\n        Request storage request = _getRequest(requester, identifier, timestamp, ancillaryData);\n\n        if (address(request.currency) == address(0)) {\n            return State.Invalid;\n        }\n\n        if (request.proposer == address(0)) {\n            return State.Requested;\n        }\n\n        if (request.settled) {\n            return State.Settled;\n        }\n\n        if (request.disputer == address(0)) {\n            return request.expirationTime <= getCurrentTime() ? State.Expired : State.Proposed;\n        }\n\n        return\n            _getOracle().hasPrice(identifier, timestamp, _stampAncillaryData(ancillaryData, requester))\n                ? State.Resolved\n                : State.Disputed;\n    }\n\n    /**\n     * @notice Checks if a given request has resolved, expired or been settled (i.e the optimistic oracle has a price).\n     * @param requester sender of the initial price request.\n     * @param identifier price identifier to identify the existing request.\n     * @param timestamp timestamp to identify the existing request.\n     * @param ancillaryData ancillary data of the price being requested.\n     * @return boolean indicating true if price exists and false if not.\n     */\n    function hasPrice(\n        address requester,\n        bytes32 identifier,\n        uint256 timestamp,\n        bytes memory ancillaryData\n    ) public view override returns (bool) {\n        State state = getState(requester, identifier, timestamp, ancillaryData);\n        return state == State.Settled || state == State.Resolved || state == State.Expired;\n    }\n\n    /**\n     * @notice Generates stamped ancillary data in the format that it would be used in the case of a price dispute.\n     * @param ancillaryData ancillary data of the price being requested.\n     * @param requester sender of the initial price request.\n     * @return the stampped ancillary bytes.\n     */\n    function stampAncillaryData(bytes memory ancillaryData, address requester) public pure returns (bytes memory) {\n        return _stampAncillaryData(ancillaryData, requester);\n    }\n\n    function _getId(\n        address requester,\n        bytes32 identifier,\n        uint256 timestamp,\n        bytes memory ancillaryData\n    ) private pure returns (bytes32) {\n        return keccak256(abi.encodePacked(requester, identifier, timestamp, ancillaryData));\n    }\n\n    function _settle(\n        address requester,\n        bytes32 identifier,\n        uint256 timestamp,\n        bytes memory ancillaryData\n    ) private returns (uint256 payout) {\n        State state = getState(requester, identifier, timestamp, ancillaryData);\n\n        // Set it to settled so this function can never be entered again.\n        Request storage request = _getRequest(requester, identifier, timestamp, ancillaryData);\n        request.settled = true;\n\n        if (state == State.Expired) {\n            // In the expiry case, just pay back the proposer's bond and final fee along with the reward.\n            request.resolvedPrice = request.proposedPrice;\n            payout = request.bond.add(request.finalFee).add(request.reward);\n            request.currency.safeTransfer(request.proposer, payout);\n        } else if (state == State.Resolved) {\n            // In the Resolved case, pay either the disputer or the proposer the entire payout (+ bond and reward).\n            request.resolvedPrice = _getOracle().getPrice(\n                identifier,\n                timestamp,\n                _stampAncillaryData(ancillaryData, requester)\n            );\n            bool disputeSuccess = request.resolvedPrice != request.proposedPrice;\n            uint256 bond = request.bond;\n\n            // Unburned portion of the loser's bond = 1 - burned bond.\n            uint256 unburnedBond = bond.sub(_computeBurnedBond(request));\n\n            // Winner gets:\n            // - Their bond back.\n            // - The unburned portion of the loser's bond.\n            // - Their final fee back.\n            // - The request reward (if not already refunded -- if refunded, it will be set to 0).\n            payout = bond.add(unburnedBond).add(request.finalFee).add(request.reward);\n            request.currency.safeTransfer(disputeSuccess ? request.disputer : request.proposer, payout);\n        } else {\n            revert(\"_settle: not settleable\");\n        }\n\n        emit Settle(\n            requester,\n            request.proposer,\n            request.disputer,\n            identifier,\n            timestamp,\n            ancillaryData,\n            request.resolvedPrice,\n            payout\n        );\n\n        // Callback.\n        if (address(requester).isContract())\n            try\n                OptimisticRequester(requester).priceSettled(identifier, timestamp, ancillaryData, request.resolvedPrice)\n            {} catch {}\n    }\n\n    function _getRequest(\n        address requester,\n        bytes32 identifier,\n        uint256 timestamp,\n        bytes memory ancillaryData\n    ) private view returns (Request storage) {\n        return requests[_getId(requester, identifier, timestamp, ancillaryData)];\n    }\n\n    function _computeBurnedBond(Request storage request) private view returns (uint256) {\n        // burnedBond = floor(bond / 2)\n        return request.bond.div(2);\n    }\n\n    function _validateLiveness(uint256 _liveness) private pure {\n        require(_liveness < 5200 weeks, \"Liveness too large\");\n        require(_liveness > 0, \"Liveness cannot be 0\");\n    }\n\n    function _getOracle() internal view returns (OracleAncillaryInterface) {\n        return OracleAncillaryInterface(finder.getImplementationAddress(OracleInterfaces.Oracle));\n    }\n\n    function _getCollateralWhitelist() internal view returns (AddressWhitelist) {\n        return AddressWhitelist(finder.getImplementationAddress(OracleInterfaces.CollateralWhitelist));\n    }\n\n    function _getStore() internal view returns (StoreInterface) {\n        return StoreInterface(finder.getImplementationAddress(OracleInterfaces.Store));\n    }\n\n    function _getIdentifierWhitelist() internal view returns (IdentifierWhitelistInterface) {\n        return IdentifierWhitelistInterface(finder.getImplementationAddress(OracleInterfaces.IdentifierWhitelist));\n    }\n\n    // Stamps the ancillary data blob with the optimistic oracle tag denoting what contract requested it.\n    function _stampAncillaryData(bytes memory ancillaryData, address requester) internal pure returns (bytes memory) {\n        return abi.encodePacked(ancillaryData, \"OptimisticOracle\", requester);\n    }\n}\n",
  "sourcePath": "/home/kamto/code/protocol/packages/core/contracts/oracle/implementation/OptimisticOracle.sol",
  "compiler": {
    "name": "solc",
    "version": "0.8.4+commit.c7e474f2.Emscripten.clang"
  },
  "schemaVersion": "3.3.4",
  "updatedAt": "2021-05-07T21:39:55.458Z",
  "networkType": "ethereum",
  "devdoc": {
    "kind": "dev",
    "methods": {
      "constructor": {
        "params": {
          "_finderAddress": "finder to use to get addresses of DVM contracts.",
          "_liveness": "default liveness applied to each price request.",
          "_timerAddress": "address of the timer contract. Should be 0x0 in prod."
        }
      },
      "disputePrice(address,bytes32,uint256,bytes)": {
        "params": {
          "ancillaryData": "ancillary data of the price being requested.",
          "identifier": "price identifier to identify the existing request.",
          "requester": "sender of the initial price request.",
          "timestamp": "timestamp to identify the existing request."
        },
        "returns": {
          "totalBond": "the amount that's pulled from the disputer's wallet as a bond. The bond will be returned to the disputer once settled if the dispute was valid (the proposal was incorrect)."
        }
      },
      "disputePriceFor(address,address,bytes32,uint256,bytes)": {
        "params": {
          "ancillaryData": "ancillary data of the price being requested.",
          "disputer": "address to set as the disputer.",
          "identifier": "price identifier to identify the existing request.",
          "requester": "sender of the initial price request.",
          "timestamp": "timestamp to identify the existing request."
        },
        "returns": {
          "totalBond": "the amount that's pulled from the caller's wallet as a bond. The bond will be returned to the disputer once settled if the dispute was valid (the proposal was incorrect)."
        }
      },
      "getCurrentTime()": {
        "returns": {
          "_0": "uint for the current Testable timestamp."
        }
      },
      "getRequest(address,bytes32,uint256,bytes)": {
        "params": {
          "ancillaryData": "ancillary data of the price being requested.",
          "identifier": "price identifier to identify the existing request.",
          "requester": "sender of the initial price request.",
          "timestamp": "timestamp to identify the existing request."
        },
        "returns": {
          "_0": "the Request data structure."
        }
      },
      "getState(address,bytes32,uint256,bytes)": {
        "params": {
          "ancillaryData": "ancillary data of the price being requested.",
          "identifier": "price identifier to identify the existing request.",
          "requester": "sender of the initial price request.",
          "timestamp": "timestamp to identify the existing request."
        },
        "returns": {
          "_0": "the State."
        }
      },
      "hasPrice(address,bytes32,uint256,bytes)": {
        "params": {
          "ancillaryData": "ancillary data of the price being requested.",
          "identifier": "price identifier to identify the existing request.",
          "requester": "sender of the initial price request.",
          "timestamp": "timestamp to identify the existing request."
        },
        "returns": {
          "_0": "boolean indicating true if price exists and false if not."
        }
      },
      "proposePrice(address,bytes32,uint256,bytes,int256)": {
        "params": {
          "ancillaryData": "ancillary data of the price being requested.",
          "identifier": "price identifier to identify the existing request.",
          "proposedPrice": "price being proposed.",
          "requester": "sender of the initial price request.",
          "timestamp": "timestamp to identify the existing request."
        },
        "returns": {
          "totalBond": "the amount that's pulled from the proposer's wallet as a bond. The bond will be returned to the proposer once settled if the proposal is correct."
        }
      },
      "proposePriceFor(address,address,bytes32,uint256,bytes,int256)": {
        "params": {
          "ancillaryData": "ancillary data of the price being requested.",
          "identifier": "price identifier to identify the existing request.",
          "proposedPrice": "price being proposed.",
          "proposer": "address to set as the proposer.",
          "requester": "sender of the initial price request.",
          "timestamp": "timestamp to identify the existing request."
        },
        "returns": {
          "totalBond": "the amount that's pulled from the caller's wallet as a bond. The bond will be returned to the proposer once settled if the proposal is correct."
        }
      },
      "requestPrice(bytes32,uint256,bytes,address,uint256)": {
        "params": {
          "ancillaryData": "ancillary data representing additional args being passed with the price request.",
          "currency": "ERC20 token used for payment of rewards and fees. Must be approved for use with the DVM.",
          "identifier": "price identifier being requested.",
          "reward": "reward offered to a successful proposer. Will be pulled from the caller. Note: this can be 0,               which could make sense if the contract requests and proposes the value in the same call or               provides its own reward system.",
          "timestamp": "timestamp of the price being requested."
        },
        "returns": {
          "totalBond": "default bond (final fee) + final fee that the proposer and disputer will be required to pay. This can be changed with a subsequent call to setBond()."
        }
      },
      "setBond(bytes32,uint256,bytes,uint256)": {
        "params": {
          "ancillaryData": "ancillary data of the price being requested.",
          "bond": "custom bond amount to set.",
          "identifier": "price identifier to identify the existing request.",
          "timestamp": "timestamp to identify the existing request."
        },
        "returns": {
          "totalBond": "new bond + final fee that the proposer and disputer will be required to pay. This can be changed again with a subsequent call to setBond()."
        }
      },
      "setCurrentTime(uint256)": {
        "details": "Will revert if not running in test mode.",
        "params": {
          "time": "timestamp to set current Testable time to."
        }
      },
      "setCustomLiveness(bytes32,uint256,bytes,uint256)": {
        "params": {
          "ancillaryData": "ancillary data of the price being requested.",
          "customLiveness": "new custom liveness.",
          "identifier": "price identifier to identify the existing request.",
          "timestamp": "timestamp to identify the existing request."
        }
      },
      "setRefundOnDispute(bytes32,uint256,bytes)": {
        "params": {
          "ancillaryData": "ancillary data of the price being requested.",
          "identifier": "price identifier to identify the existing request.",
          "timestamp": "timestamp to identify the existing request."
        }
      },
      "settle(address,bytes32,uint256,bytes)": {
        "params": {
          "ancillaryData": "ancillary data of the price being requested.",
          "identifier": "price identifier to identify the existing request.",
          "requester": "sender of the initial price request.",
          "timestamp": "timestamp to identify the existing request."
        },
        "returns": {
          "payout": "the amount that the \"winner\" (proposer or disputer) receives on settlement. This amount includes the returned bonds as well as additional rewards."
        }
      },
      "settleAndGetPrice(bytes32,uint256,bytes)": {
        "params": {
          "ancillaryData": "ancillary data of the price being requested.",
          "identifier": "price identifier to identify the existing request.",
          "timestamp": "timestamp to identify the existing request."
        },
        "returns": {
          "_0": "resolved price."
        }
      },
      "stampAncillaryData(bytes,address)": {
        "params": {
          "ancillaryData": "ancillary data of the price being requested.",
          "requester": "sender of the initial price request."
        },
        "returns": {
          "_0": "the stampped ancillary bytes."
        }
      }
    },
    "title": "Optimistic Oracle.",
    "version": 1
  },
  "userdoc": {
    "kind": "user",
    "methods": {
      "constructor": {
        "notice": "Constructor."
      },
      "disputePrice(address,bytes32,uint256,bytes)": {
        "notice": "Disputes a price value for an existing price request with an active proposal."
      },
      "disputePriceFor(address,address,bytes32,uint256,bytes)": {
        "notice": "Disputes a price request with an active proposal on another address' behalf. Note: this address will receive any rewards that come from this dispute. However, any bonds are pulled from the caller."
      },
      "getCurrentTime()": {
        "notice": "Gets the current time. Will return the last time set in `setCurrentTime` if running in test mode. Otherwise, it will return the block timestamp."
      },
      "getRequest(address,bytes32,uint256,bytes)": {
        "notice": "Gets the current data structure containing all information about a price request."
      },
      "getState(address,bytes32,uint256,bytes)": {
        "notice": "Computes the current state of a price request. See the State enum for more details."
      },
      "hasPrice(address,bytes32,uint256,bytes)": {
        "notice": "Checks if a given request has resolved, expired or been settled (i.e the optimistic oracle has a price)."
      },
      "proposePrice(address,bytes32,uint256,bytes,int256)": {
        "notice": "Proposes a price value for an existing price request."
      },
      "proposePriceFor(address,address,bytes32,uint256,bytes,int256)": {
        "notice": "Proposes a price value on another address' behalf. Note: this address will receive any rewards that come from this proposal. However, any bonds are pulled from the caller."
      },
      "requestPrice(bytes32,uint256,bytes,address,uint256)": {
        "notice": "Requests a new price."
      },
      "setBond(bytes32,uint256,bytes,uint256)": {
        "notice": "Set the proposal bond associated with a price request."
      },
      "setCurrentTime(uint256)": {
        "notice": "Sets the current time."
      },
      "setCustomLiveness(bytes32,uint256,bytes,uint256)": {
        "notice": "Sets a custom liveness value for the request. Liveness is the amount of time a proposal must wait before being auto-resolved."
      },
      "setRefundOnDispute(bytes32,uint256,bytes)": {
        "notice": "Sets the request to refund the reward if the proposal is disputed. This can help to \"hedge\" the caller in the event of a dispute-caused delay. Note: in the event of a dispute, the winner still receives the other's bond, so there is still profit to be made even if the reward is refunded."
      },
      "settle(address,bytes32,uint256,bytes)": {
        "notice": "Attempts to settle an outstanding price request. Will revert if it isn't settleable."
      },
      "settleAndGetPrice(bytes32,uint256,bytes)": {
        "notice": "Retrieves a price that was previously requested by a caller. Reverts if the request is not settled or settleable. Note: this method is not view so that this call may actually settle the price request if it hasn't been settled."
      },
      "stampAncillaryData(bytes,address)": {
        "notice": "Generates stamped ancillary data in the format that it would be used in the case of a price dispute."
      }
    },
    "notice": "Pre-DVM escalation contract that allows faster settlement.",
    "version": 1
  }
}