{
  "contractName": "OracleInterfaces",
  "abi": [
    {
      "inputs": [],
      "name": "Bridge",
      "outputs": [
        {
          "internalType": "bytes32",
          "name": "",
          "type": "bytes32"
        }
      ],
      "stateMutability": "view",
      "type": "function"
    },
    {
      "inputs": [],
      "name": "CollateralWhitelist",
      "outputs": [
        {
          "internalType": "bytes32",
          "name": "",
          "type": "bytes32"
        }
      ],
      "stateMutability": "view",
      "type": "function"
    },
    {
      "inputs": [],
      "name": "FinancialContractsAdmin",
      "outputs": [
        {
          "internalType": "bytes32",
          "name": "",
          "type": "bytes32"
        }
      ],
      "stateMutability": "view",
      "type": "function"
    },
    {
      "inputs": [],
      "name": "GenericHandler",
      "outputs": [
        {
          "internalType": "bytes32",
          "name": "",
          "type": "bytes32"
        }
      ],
      "stateMutability": "view",
      "type": "function"
    },
    {
      "inputs": [],
      "name": "IdentifierWhitelist",
      "outputs": [
        {
          "internalType": "bytes32",
          "name": "",
          "type": "bytes32"
        }
      ],
      "stateMutability": "view",
      "type": "function"
    },
    {
      "inputs": [],
      "name": "OptimisticOracle",
      "outputs": [
        {
          "internalType": "bytes32",
          "name": "",
          "type": "bytes32"
        }
      ],
      "stateMutability": "view",
      "type": "function"
    },
    {
      "inputs": [],
      "name": "Oracle",
      "outputs": [
        {
          "internalType": "bytes32",
          "name": "",
          "type": "bytes32"
        }
      ],
      "stateMutability": "view",
      "type": "function"
    },
    {
      "inputs": [],
      "name": "Registry",
      "outputs": [
        {
          "internalType": "bytes32",
          "name": "",
          "type": "bytes32"
        }
      ],
      "stateMutability": "view",
      "type": "function"
    },
    {
      "inputs": [],
      "name": "Store",
      "outputs": [
        {
          "internalType": "bytes32",
          "name": "",
          "type": "bytes32"
        }
      ],
      "stateMutability": "view",
      "type": "function"
    }
  ],
  "bytecode": "0x6101b861003a600b82828239805160001a60731461002d57634e487b7160e01b600052600060045260246000fd5b30600052607381538281f3fe730000000000000000000000000000000000000000301460806040526004361061009d5760003560e01c80634f4a180b116100705780634f4a180b14610116578063598dd097146101335780635fa2ef10146101505780637db9743b14610160578063f24a534e1461017257600080fd5b8063079b6c63146100a25780631a4dbd1c146100cc5780632a71e5b3146100e657806342e90c3314610107575b600080fd5b6100ba6d23b2b732b934b1a430b7323632b960911b81565b60405190815260200160405180910390f35b6100ba6f4f7074696d69737469634f7261636c6560801b81565b6100ba762334b730b731b4b0b621b7b73a3930b1ba39a0b236b4b760491b81565b6100ba6453746f726560d81b81565b6100ba721259195b9d1a599a595c95da1a5d195b1a5cdd606a1b81565b6100ba7210dbdb1b185d195c985b15da1a5d195b1a5cdd606a1b81565b6100ba6542726964676560d01b81565b6100ba67526567697374727960c01b81565b6100ba654f7261636c6560d01b8156fea26469706673582212202cf7cd9614cfbe02c66590585a1252f276efb7fec8760f32e8b748b348cadfd664736f6c63430008040033",
  "immutableReferences": {},
  "source": "// SPDX-License-Identifier: AGPL-3.0-only\npragma solidity ^0.8.0;\n\n/**\n * @title Stores common interface names used throughout the DVM by registration in the Finder.\n */\nlibrary OracleInterfaces {\n    bytes32 public constant Oracle = \"Oracle\";\n    bytes32 public constant IdentifierWhitelist = \"IdentifierWhitelist\";\n    bytes32 public constant Store = \"Store\";\n    bytes32 public constant FinancialContractsAdmin = \"FinancialContractsAdmin\";\n    bytes32 public constant Registry = \"Registry\";\n    bytes32 public constant CollateralWhitelist = \"CollateralWhitelist\";\n    bytes32 public constant OptimisticOracle = \"OptimisticOracle\";\n    bytes32 public constant Bridge = \"Bridge\";\n    bytes32 public constant GenericHandler = \"GenericHandler\";\n}\n",
  "sourcePath": "/home/kamto/code/protocol/packages/core/contracts/oracle/implementation/Constants.sol",
  "compiler": {
    "name": "solc",
    "version": "0.8.4+commit.c7e474f2.Emscripten.clang"
  },
  "schemaVersion": "3.3.4",
  "updatedAt": "2021-05-07T15:46:50.362Z",
  "devdoc": {
    "kind": "dev",
    "methods": {},
    "title": "Stores common interface names used throughout the DVM by registration in the Finder.",
    "version": 1
  },
  "userdoc": {
    "kind": "user",
    "methods": {},
    "version": 1
  }
}