{
  "contractName": "Perpetual",
  "abi": [
    {
      "inputs": [
        {
          "components": [
            {
              "internalType": "uint256",
              "name": "withdrawalLiveness",
              "type": "uint256"
            },
            {
              "internalType": "address",
              "name": "configStoreAddress",
              "type": "address"
            },
            {
              "internalType": "address",
              "name": "collateralAddress",
              "type": "address"
            },
            {
              "internalType": "address",
              "name": "tokenAddress",
              "type": "address"
            },
            {
              "internalType": "address",
              "name": "finderAddress",
              "type": "address"
            },
            {
              "internalType": "address",
              "name": "timerAddress",
              "type": "address"
            },
            {
              "internalType": "bytes32",
              "name": "priceFeedIdentifier",
              "type": "bytes32"
            },
            {
              "internalType": "bytes32",
              "name": "fundingRateIdentifier",
              "type": "bytes32"
            },
            {
              "components": [
                {
                  "internalType": "uint256",
                  "name": "rawValue",
                  "type": "uint256"
                }
              ],
              "internalType": "struct FixedPoint.Unsigned",
              "name": "minSponsorTokens",
              "type": "tuple"
            },
            {
              "components": [
                {
                  "internalType": "uint256",
                  "name": "rawValue",
                  "type": "uint256"
                }
              ],
              "internalType": "struct FixedPoint.Unsigned",
              "name": "tokenScaling",
              "type": "tuple"
            },
            {
              "internalType": "uint256",
              "name": "liquidationLiveness",
              "type": "uint256"
            },
            {
              "components": [
                {
                  "internalType": "uint256",
                  "name": "rawValue",
                  "type": "uint256"
                }
              ],
              "internalType": "struct FixedPoint.Unsigned",
              "name": "collateralRequirement",
              "type": "tuple"
            },
            {
              "components": [
                {
                  "internalType": "uint256",
                  "name": "rawValue",
                  "type": "uint256"
                }
              ],
              "internalType": "struct FixedPoint.Unsigned",
              "name": "disputeBondPercentage",
              "type": "tuple"
            },
            {
              "components": [
                {
                  "internalType": "uint256",
                  "name": "rawValue",
                  "type": "uint256"
                }
              ],
              "internalType": "struct FixedPoint.Unsigned",
              "name": "sponsorDisputeRewardPercentage",
              "type": "tuple"
            },
            {
              "components": [
                {
                  "internalType": "uint256",
                  "name": "rawValue",
                  "type": "uint256"
                }
              ],
              "internalType": "struct FixedPoint.Unsigned",
              "name": "disputerDisputeRewardPercentage",
              "type": "tuple"
            }
          ],
          "internalType": "struct PerpetualLiquidatable.ConstructorParams",
          "name": "params",
          "type": "tuple"
        }
      ],
      "stateMutability": "nonpayable",
      "type": "constructor"
    },
    {
      "anonymous": false,
      "inputs": [
        {
          "indexed": true,
          "internalType": "address",
          "name": "sponsor",
          "type": "address"
        },
        {
          "indexed": true,
          "internalType": "uint256",
          "name": "collateralAmount",
          "type": "uint256"
        }
      ],
      "name": "Deposit",
      "type": "event"
    },
    {
      "anonymous": false,
      "inputs": [
        {
          "indexed": true,
          "internalType": "address",
          "name": "caller",
          "type": "address"
        },
        {
          "indexed": true,
          "internalType": "address",
          "name": "sponsor",
          "type": "address"
        },
        {
          "indexed": true,
          "internalType": "address",
          "name": "liquidator",
          "type": "address"
        },
        {
          "indexed": false,
          "internalType": "address",
          "name": "disputer",
          "type": "address"
        },
        {
          "indexed": false,
          "internalType": "uint256",
          "name": "liquidationId",
          "type": "uint256"
        },
        {
          "indexed": false,
          "internalType": "bool",
          "name": "disputeSucceeded",
          "type": "bool"
        }
      ],
      "name": "DisputeSettled",
      "type": "event"
    },
    {
      "anonymous": false,
      "inputs": [
        {
          "indexed": true,
          "internalType": "address",
          "name": "caller",
          "type": "address"
        },
        {
          "indexed": false,
          "internalType": "uint256",
          "name": "shutdownTimestamp",
          "type": "uint256"
        }
      ],
      "name": "EmergencyShutdown",
      "type": "event"
    },
    {
      "anonymous": false,
      "inputs": [
        {
          "indexed": true,
          "internalType": "address",
          "name": "sponsor",
          "type": "address"
        }
      ],
      "name": "EndedSponsorPosition",
      "type": "event"
    },
    {
      "anonymous": false,
      "inputs": [
        {
          "indexed": true,
          "internalType": "uint256",
          "name": "amount",
          "type": "uint256"
        }
      ],
      "name": "FinalFeesPaid",
      "type": "event"
    },
    {
      "anonymous": false,
      "inputs": [
        {
          "indexed": false,
          "internalType": "int256",
          "name": "newFundingRate",
          "type": "int256"
        },
        {
          "indexed": true,
          "internalType": "uint256",
          "name": "updateTime",
          "type": "uint256"
        },
        {
          "indexed": false,
          "internalType": "uint256",
          "name": "reward",
          "type": "uint256"
        }
      ],
      "name": "FundingRateUpdated",
      "type": "event"
    },
    {
      "anonymous": false,
      "inputs": [
        {
          "indexed": true,
          "internalType": "address",
          "name": "sponsor",
          "type": "address"
        },
        {
          "indexed": true,
          "internalType": "address",
          "name": "liquidator",
          "type": "address"
        },
        {
          "indexed": true,
          "internalType": "uint256",
          "name": "liquidationId",
          "type": "uint256"
        },
        {
          "indexed": false,
          "internalType": "uint256",
          "name": "tokensOutstanding",
          "type": "uint256"
        },
        {
          "indexed": false,
          "internalType": "uint256",
          "name": "lockedCollateral",
          "type": "uint256"
        },
        {
          "indexed": false,
          "internalType": "uint256",
          "name": "liquidatedCollateral",
          "type": "uint256"
        },
        {
          "indexed": false,
          "internalType": "uint256",
          "name": "liquidationTime",
          "type": "uint256"
        }
      ],
      "name": "LiquidationCreated",
      "type": "event"
    },
    {
      "anonymous": false,
      "inputs": [
        {
          "indexed": true,
          "internalType": "address",
          "name": "sponsor",
          "type": "address"
        },
        {
          "indexed": true,
          "internalType": "address",
          "name": "liquidator",
          "type": "address"
        },
        {
          "indexed": true,
          "internalType": "address",
          "name": "disputer",
          "type": "address"
        },
        {
          "indexed": false,
          "internalType": "uint256",
          "name": "liquidationId",
          "type": "uint256"
        },
        {
          "indexed": false,
          "internalType": "uint256",
          "name": "disputeBondAmount",
          "type": "uint256"
        }
      ],
      "name": "LiquidationDisputed",
      "type": "event"
    },
    {
      "anonymous": false,
      "inputs": [
        {
          "indexed": true,
          "internalType": "address",
          "name": "caller",
          "type": "address"
        },
        {
          "indexed": false,
          "internalType": "uint256",
          "name": "paidToLiquidator",
          "type": "uint256"
        },
        {
          "indexed": false,
          "internalType": "uint256",
          "name": "paidToDisputer",
          "type": "uint256"
        },
        {
          "indexed": false,
          "internalType": "uint256",
          "name": "paidToSponsor",
          "type": "uint256"
        },
        {
          "indexed": true,
          "internalType": "enum PerpetualLiquidatable.Status",
          "name": "liquidationStatus",
          "type": "uint8"
        },
        {
          "indexed": false,
          "internalType": "uint256",
          "name": "settlementPrice",
          "type": "uint256"
        }
      ],
      "name": "LiquidationWithdrawn",
      "type": "event"
    },
    {
      "anonymous": false,
      "inputs": [
        {
          "indexed": true,
          "internalType": "address",
          "name": "sponsor",
          "type": "address"
        }
      ],
      "name": "NewSponsor",
      "type": "event"
    },
    {
      "anonymous": false,
      "inputs": [
        {
          "indexed": true,
          "internalType": "address",
          "name": "sponsor",
          "type": "address"
        },
        {
          "indexed": true,
          "internalType": "uint256",
          "name": "collateralAmount",
          "type": "uint256"
        },
        {
          "indexed": true,
          "internalType": "uint256",
          "name": "tokenAmount",
          "type": "uint256"
        }
      ],
      "name": "PositionCreated",
      "type": "event"
    },
    {
      "anonymous": false,
      "inputs": [
        {
          "indexed": true,
          "internalType": "address",
          "name": "sponsor",
          "type": "address"
        },
        {
          "indexed": true,
          "internalType": "uint256",
          "name": "collateralAmount",
          "type": "uint256"
        },
        {
          "indexed": true,
          "internalType": "uint256",
          "name": "tokenAmount",
          "type": "uint256"
        }
      ],
      "name": "Redeem",
      "type": "event"
    },
    {
      "anonymous": false,
      "inputs": [
        {
          "indexed": true,
          "internalType": "uint256",
          "name": "regularFee",
          "type": "uint256"
        },
        {
          "indexed": true,
          "internalType": "uint256",
          "name": "lateFee",
          "type": "uint256"
        }
      ],
      "name": "RegularFeesPaid",
      "type": "event"
    },
    {
      "anonymous": false,
      "inputs": [
        {
          "indexed": true,
          "internalType": "address",
          "name": "sponsor",
          "type": "address"
        },
        {
          "indexed": true,
          "internalType": "uint256",
          "name": "numTokensRepaid",
          "type": "uint256"
        },
        {
          "indexed": true,
          "internalType": "uint256",
          "name": "newTokenCount",
          "type": "uint256"
        }
      ],
      "name": "Repay",
      "type": "event"
    },
    {
      "anonymous": false,
      "inputs": [
        {
          "indexed": true,
          "internalType": "address",
          "name": "sponsor",
          "type": "address"
        },
        {
          "indexed": true,
          "internalType": "uint256",
          "name": "collateralAmount",
          "type": "uint256"
        }
      ],
      "name": "RequestWithdrawal",
      "type": "event"
    },
    {
      "anonymous": false,
      "inputs": [
        {
          "indexed": true,
          "internalType": "address",
          "name": "sponsor",
          "type": "address"
        },
        {
          "indexed": true,
          "internalType": "uint256",
          "name": "collateralAmount",
          "type": "uint256"
        }
      ],
      "name": "RequestWithdrawalCanceled",
      "type": "event"
    },
    {
      "anonymous": false,
      "inputs": [
        {
          "indexed": true,
          "internalType": "address",
          "name": "sponsor",
          "type": "address"
        },
        {
          "indexed": true,
          "internalType": "uint256",
          "name": "collateralAmount",
          "type": "uint256"
        }
      ],
      "name": "RequestWithdrawalExecuted",
      "type": "event"
    },
    {
      "anonymous": false,
      "inputs": [
        {
          "indexed": true,
          "internalType": "address",
          "name": "caller",
          "type": "address"
        },
        {
          "indexed": true,
          "internalType": "uint256",
          "name": "collateralReturned",
          "type": "uint256"
        },
        {
          "indexed": true,
          "internalType": "uint256",
          "name": "tokensBurned",
          "type": "uint256"
        }
      ],
      "name": "SettleEmergencyShutdown",
      "type": "event"
    },
    {
      "anonymous": false,
      "inputs": [
        {
          "indexed": true,
          "internalType": "address",
          "name": "sponsor",
          "type": "address"
        },
        {
          "indexed": true,
          "internalType": "uint256",
          "name": "collateralAmount",
          "type": "uint256"
        }
      ],
      "name": "Withdrawal",
      "type": "event"
    },
    {
      "inputs": [],
      "name": "applyFundingRate",
      "outputs": [],
      "stateMutability": "nonpayable",
      "type": "function"
    },
    {
      "inputs": [],
      "name": "cancelWithdrawal",
      "outputs": [],
      "stateMutability": "nonpayable",
      "type": "function"
    },
    {
      "inputs": [],
      "name": "collateralCurrency",
      "outputs": [
        {
          "internalType": "contract IERC20",
          "name": "",
          "type": "address"
        }
      ],
      "stateMutability": "view",
      "type": "function"
    },
    {
      "inputs": [],
      "name": "collateralRequirement",
      "outputs": [
        {
          "internalType": "uint256",
          "name": "rawValue",
          "type": "uint256"
        }
      ],
      "stateMutability": "view",
      "type": "function"
    },
    {
      "inputs": [],
      "name": "configStore",
      "outputs": [
        {
          "internalType": "contract ConfigStoreInterface",
          "name": "",
          "type": "address"
        }
      ],
      "stateMutability": "view",
      "type": "function"
    },
    {
      "inputs": [
        {
          "components": [
            {
              "internalType": "uint256",
              "name": "rawValue",
              "type": "uint256"
            }
          ],
          "internalType": "struct FixedPoint.Unsigned",
          "name": "collateralAmount",
          "type": "tuple"
        },
        {
          "components": [
            {
              "internalType": "uint256",
              "name": "rawValue",
              "type": "uint256"
            }
          ],
          "internalType": "struct FixedPoint.Unsigned",
          "name": "numTokens",
          "type": "tuple"
        }
      ],
      "name": "create",
      "outputs": [],
      "stateMutability": "nonpayable",
      "type": "function"
    },
    {
      "inputs": [
        {
          "internalType": "address",
          "name": "sponsor",
          "type": "address"
        },
        {
          "components": [
            {
              "internalType": "uint256",
              "name": "rawValue",
              "type": "uint256"
            }
          ],
          "internalType": "struct FixedPoint.Unsigned",
          "name": "minCollateralPerToken",
          "type": "tuple"
        },
        {
          "components": [
            {
              "internalType": "uint256",
              "name": "rawValue",
              "type": "uint256"
            }
          ],
          "internalType": "struct FixedPoint.Unsigned",
          "name": "maxCollateralPerToken",
          "type": "tuple"
        },
        {
          "components": [
            {
              "internalType": "uint256",
              "name": "rawValue",
              "type": "uint256"
            }
          ],
          "internalType": "struct FixedPoint.Unsigned",
          "name": "maxTokensToLiquidate",
          "type": "tuple"
        },
        {
          "internalType": "uint256",
          "name": "deadline",
          "type": "uint256"
        }
      ],
      "name": "createLiquidation",
      "outputs": [
        {
          "internalType": "uint256",
          "name": "liquidationId",
          "type": "uint256"
        },
        {
          "components": [
            {
              "internalType": "uint256",
              "name": "rawValue",
              "type": "uint256"
            }
          ],
          "internalType": "struct FixedPoint.Unsigned",
          "name": "tokensLiquidated",
          "type": "tuple"
        },
        {
          "components": [
            {
              "internalType": "uint256",
              "name": "rawValue",
              "type": "uint256"
            }
          ],
          "internalType": "struct FixedPoint.Unsigned",
          "name": "finalFeeBond",
          "type": "tuple"
        }
      ],
      "stateMutability": "nonpayable",
      "type": "function"
    },
    {
      "inputs": [],
      "name": "cumulativeFeeMultiplier",
      "outputs": [
        {
          "internalType": "uint256",
          "name": "rawValue",
          "type": "uint256"
        }
      ],
      "stateMutability": "view",
      "type": "function"
    },
    {
      "inputs": [
        {
          "components": [
            {
              "internalType": "uint256",
              "name": "rawValue",
              "type": "uint256"
            }
          ],
          "internalType": "struct FixedPoint.Unsigned",
          "name": "collateralAmount",
          "type": "tuple"
        }
      ],
      "name": "deposit",
      "outputs": [],
      "stateMutability": "nonpayable",
      "type": "function"
    },
    {
      "inputs": [
        {
          "internalType": "address",
          "name": "sponsor",
          "type": "address"
        },
        {
          "components": [
            {
              "internalType": "uint256",
              "name": "rawValue",
              "type": "uint256"
            }
          ],
          "internalType": "struct FixedPoint.Unsigned",
          "name": "collateralAmount",
          "type": "tuple"
        }
      ],
      "name": "depositTo",
      "outputs": [],
      "stateMutability": "nonpayable",
      "type": "function"
    },
    {
      "inputs": [
        {
          "internalType": "uint256",
          "name": "liquidationId",
          "type": "uint256"
        },
        {
          "internalType": "address",
          "name": "sponsor",
          "type": "address"
        }
      ],
      "name": "dispute",
      "outputs": [
        {
          "components": [
            {
              "internalType": "uint256",
              "name": "rawValue",
              "type": "uint256"
            }
          ],
          "internalType": "struct FixedPoint.Unsigned",
          "name": "totalPaid",
          "type": "tuple"
        }
      ],
      "stateMutability": "nonpayable",
      "type": "function"
    },
    {
      "inputs": [],
      "name": "disputeBondPercentage",
      "outputs": [
        {
          "internalType": "uint256",
          "name": "rawValue",
          "type": "uint256"
        }
      ],
      "stateMutability": "view",
      "type": "function"
    },
    {
      "inputs": [],
      "name": "disputerDisputeRewardPercentage",
      "outputs": [
        {
          "internalType": "uint256",
          "name": "rawValue",
          "type": "uint256"
        }
      ],
      "stateMutability": "view",
      "type": "function"
    },
    {
      "inputs": [],
      "name": "emergencyShutdown",
      "outputs": [],
      "stateMutability": "nonpayable",
      "type": "function"
    },
    {
      "inputs": [],
      "name": "emergencyShutdownPrice",
      "outputs": [
        {
          "internalType": "uint256",
          "name": "rawValue",
          "type": "uint256"
        }
      ],
      "stateMutability": "view",
      "type": "function"
    },
    {
      "inputs": [],
      "name": "emergencyShutdownTimestamp",
      "outputs": [
        {
          "internalType": "uint256",
          "name": "",
          "type": "uint256"
        }
      ],
      "stateMutability": "view",
      "type": "function"
    },
    {
      "inputs": [],
      "name": "finder",
      "outputs": [
        {
          "internalType": "contract FinderInterface",
          "name": "",
          "type": "address"
        }
      ],
      "stateMutability": "view",
      "type": "function"
    },
    {
      "inputs": [],
      "name": "fundingRate",
      "outputs": [
        {
          "components": [
            {
              "internalType": "int256",
              "name": "rawValue",
              "type": "int256"
            }
          ],
          "internalType": "struct FixedPoint.Signed",
          "name": "rate",
          "type": "tuple"
        },
        {
          "internalType": "bytes32",
          "name": "identifier",
          "type": "bytes32"
        },
        {
          "components": [
            {
              "internalType": "uint256",
              "name": "rawValue",
              "type": "uint256"
            }
          ],
          "internalType": "struct FixedPoint.Unsigned",
          "name": "cumulativeMultiplier",
          "type": "tuple"
        },
        {
          "internalType": "uint256",
          "name": "updateTime",
          "type": "uint256"
        },
        {
          "internalType": "uint256",
          "name": "applicationTime",
          "type": "uint256"
        },
        {
          "internalType": "uint256",
          "name": "proposalTime",
          "type": "uint256"
        }
      ],
      "stateMutability": "view",
      "type": "function"
    },
    {
      "inputs": [
        {
          "internalType": "address",
          "name": "sponsor",
          "type": "address"
        }
      ],
      "name": "getCollateral",
      "outputs": [
        {
          "components": [
            {
              "internalType": "uint256",
              "name": "rawValue",
              "type": "uint256"
            }
          ],
          "internalType": "struct FixedPoint.Unsigned",
          "name": "collateralAmount",
          "type": "tuple"
        }
      ],
      "stateMutability": "view",
      "type": "function"
    },
    {
      "inputs": [],
      "name": "getCurrentTime",
      "outputs": [
        {
          "internalType": "uint256",
          "name": "",
          "type": "uint256"
        }
      ],
      "stateMutability": "view",
      "type": "function"
    },
    {
      "inputs": [
        {
          "components": [
            {
              "internalType": "uint256",
              "name": "rawValue",
              "type": "uint256"
            }
          ],
          "internalType": "struct FixedPoint.Unsigned",
          "name": "rawTokenDebt",
          "type": "tuple"
        }
      ],
      "name": "getFundingRateAppliedTokenDebt",
      "outputs": [
        {
          "components": [
            {
              "internalType": "uint256",
              "name": "rawValue",
              "type": "uint256"
            }
          ],
          "internalType": "struct FixedPoint.Unsigned",
          "name": "totalCollateral",
          "type": "tuple"
        }
      ],
      "stateMutability": "view",
      "type": "function"
    },
    {
      "inputs": [
        {
          "internalType": "address",
          "name": "sponsor",
          "type": "address"
        }
      ],
      "name": "getLiquidations",
      "outputs": [
        {
          "components": [
            {
              "internalType": "address",
              "name": "sponsor",
              "type": "address"
            },
            {
              "internalType": "address",
              "name": "liquidator",
              "type": "address"
            },
            {
              "internalType": "enum PerpetualLiquidatable.Status",
              "name": "state",
              "type": "uint8"
            },
            {
              "internalType": "uint256",
              "name": "liquidationTime",
              "type": "uint256"
            },
            {
              "components": [
                {
                  "internalType": "uint256",
                  "name": "rawValue",
                  "type": "uint256"
                }
              ],
              "internalType": "struct FixedPoint.Unsigned",
              "name": "tokensOutstanding",
              "type": "tuple"
            },
            {
              "components": [
                {
                  "internalType": "uint256",
                  "name": "rawValue",
                  "type": "uint256"
                }
              ],
              "internalType": "struct FixedPoint.Unsigned",
              "name": "lockedCollateral",
              "type": "tuple"
            },
            {
              "components": [
                {
                  "internalType": "uint256",
                  "name": "rawValue",
                  "type": "uint256"
                }
              ],
              "internalType": "struct FixedPoint.Unsigned",
              "name": "liquidatedCollateral",
              "type": "tuple"
            },
            {
              "components": [
                {
                  "internalType": "uint256",
                  "name": "rawValue",
                  "type": "uint256"
                }
              ],
              "internalType": "struct FixedPoint.Unsigned",
              "name": "rawUnitCollateral",
              "type": "tuple"
            },
            {
              "internalType": "address",
              "name": "disputer",
              "type": "address"
            },
            {
              "components": [
                {
                  "internalType": "uint256",
                  "name": "rawValue",
                  "type": "uint256"
                }
              ],
              "internalType": "struct FixedPoint.Unsigned",
              "name": "settlementPrice",
              "type": "tuple"
            },
            {
              "components": [
                {
                  "internalType": "uint256",
                  "name": "rawValue",
                  "type": "uint256"
                }
              ],
              "internalType": "struct FixedPoint.Unsigned",
              "name": "finalFee",
              "type": "tuple"
            }
          ],
          "internalType": "struct PerpetualLiquidatable.LiquidationData[]",
          "name": "liquidationData",
          "type": "tuple[]"
        }
      ],
      "stateMutability": "view",
      "type": "function"
    },
    {
      "inputs": [
        {
          "internalType": "uint256",
          "name": "time",
          "type": "uint256"
        }
      ],
      "name": "getOutstandingRegularFees",
      "outputs": [
        {
          "components": [
            {
              "internalType": "uint256",
              "name": "rawValue",
              "type": "uint256"
            }
          ],
          "internalType": "struct FixedPoint.Unsigned",
          "name": "regularFee",
          "type": "tuple"
        },
        {
          "components": [
            {
              "internalType": "uint256",
              "name": "rawValue",
              "type": "uint256"
            }
          ],
          "internalType": "struct FixedPoint.Unsigned",
          "name": "latePenalty",
          "type": "tuple"
        },
        {
          "components": [
            {
              "internalType": "uint256",
              "name": "rawValue",
              "type": "uint256"
            }
          ],
          "internalType": "struct FixedPoint.Unsigned",
          "name": "totalPaid",
          "type": "tuple"
        }
      ],
      "stateMutability": "view",
      "type": "function"
    },
    {
      "inputs": [],
      "name": "gulp",
      "outputs": [],
      "stateMutability": "nonpayable",
      "type": "function"
    },
    {
      "inputs": [],
      "name": "liquidationLiveness",
      "outputs": [
        {
          "internalType": "uint256",
          "name": "",
          "type": "uint256"
        }
      ],
      "stateMutability": "view",
      "type": "function"
    },
    {
      "inputs": [
        {
          "internalType": "address",
          "name": "",
          "type": "address"
        },
        {
          "internalType": "uint256",
          "name": "",
          "type": "uint256"
        }
      ],
      "name": "liquidations",
      "outputs": [
        {
          "internalType": "address",
          "name": "sponsor",
          "type": "address"
        },
        {
          "internalType": "address",
          "name": "liquidator",
          "type": "address"
        },
        {
          "internalType": "enum PerpetualLiquidatable.Status",
          "name": "state",
          "type": "uint8"
        },
        {
          "internalType": "uint256",
          "name": "liquidationTime",
          "type": "uint256"
        },
        {
          "components": [
            {
              "internalType": "uint256",
              "name": "rawValue",
              "type": "uint256"
            }
          ],
          "internalType": "struct FixedPoint.Unsigned",
          "name": "tokensOutstanding",
          "type": "tuple"
        },
        {
          "components": [
            {
              "internalType": "uint256",
              "name": "rawValue",
              "type": "uint256"
            }
          ],
          "internalType": "struct FixedPoint.Unsigned",
          "name": "lockedCollateral",
          "type": "tuple"
        },
        {
          "components": [
            {
              "internalType": "uint256",
              "name": "rawValue",
              "type": "uint256"
            }
          ],
          "internalType": "struct FixedPoint.Unsigned",
          "name": "liquidatedCollateral",
          "type": "tuple"
        },
        {
          "components": [
            {
              "internalType": "uint256",
              "name": "rawValue",
              "type": "uint256"
            }
          ],
          "internalType": "struct FixedPoint.Unsigned",
          "name": "rawUnitCollateral",
          "type": "tuple"
        },
        {
          "internalType": "address",
          "name": "disputer",
          "type": "address"
        },
        {
          "components": [
            {
              "internalType": "uint256",
              "name": "rawValue",
              "type": "uint256"
            }
          ],
          "internalType": "struct FixedPoint.Unsigned",
          "name": "settlementPrice",
          "type": "tuple"
        },
        {
          "components": [
            {
              "internalType": "uint256",
              "name": "rawValue",
              "type": "uint256"
            }
          ],
          "internalType": "struct FixedPoint.Unsigned",
          "name": "finalFee",
          "type": "tuple"
        }
      ],
      "stateMutability": "view",
      "type": "function"
    },
    {
      "inputs": [],
      "name": "minSponsorTokens",
      "outputs": [
        {
          "internalType": "uint256",
          "name": "rawValue",
          "type": "uint256"
        }
      ],
      "stateMutability": "view",
      "type": "function"
    },
    {
      "inputs": [],
      "name": "payRegularFees",
      "outputs": [
        {
          "components": [
            {
              "internalType": "uint256",
              "name": "rawValue",
              "type": "uint256"
            }
          ],
          "internalType": "struct FixedPoint.Unsigned",
          "name": "",
          "type": "tuple"
        }
      ],
      "stateMutability": "nonpayable",
      "type": "function"
    },
    {
      "inputs": [],
      "name": "pfc",
      "outputs": [
        {
          "components": [
            {
              "internalType": "uint256",
              "name": "rawValue",
              "type": "uint256"
            }
          ],
          "internalType": "struct FixedPoint.Unsigned",
          "name": "",
          "type": "tuple"
        }
      ],
      "stateMutability": "view",
      "type": "function"
    },
    {
      "inputs": [
        {
          "internalType": "address",
          "name": "",
          "type": "address"
        }
      ],
      "name": "positions",
      "outputs": [
        {
          "components": [
            {
              "internalType": "uint256",
              "name": "rawValue",
              "type": "uint256"
            }
          ],
          "internalType": "struct FixedPoint.Unsigned",
          "name": "tokensOutstanding",
          "type": "tuple"
        },
        {
          "internalType": "uint256",
          "name": "withdrawalRequestPassTimestamp",
          "type": "uint256"
        },
        {
          "components": [
            {
              "internalType": "uint256",
              "name": "rawValue",
              "type": "uint256"
            }
          ],
          "internalType": "struct FixedPoint.Unsigned",
          "name": "withdrawalRequestAmount",
          "type": "tuple"
        },
        {
          "components": [
            {
              "internalType": "uint256",
              "name": "rawValue",
              "type": "uint256"
            }
          ],
          "internalType": "struct FixedPoint.Unsigned",
          "name": "rawCollateral",
          "type": "tuple"
        }
      ],
      "stateMutability": "view",
      "type": "function"
    },
    {
      "inputs": [],
      "name": "priceIdentifier",
      "outputs": [
        {
          "internalType": "bytes32",
          "name": "",
          "type": "bytes32"
        }
      ],
      "stateMutability": "view",
      "type": "function"
    },
    {
      "inputs": [
        {
          "components": [
            {
              "internalType": "int256",
              "name": "rawValue",
              "type": "int256"
            }
          ],
          "internalType": "struct FixedPoint.Signed",
          "name": "rate",
          "type": "tuple"
        },
        {
          "internalType": "uint256",
          "name": "timestamp",
          "type": "uint256"
        }
      ],
      "name": "proposeFundingRate",
      "outputs": [
        {
          "components": [
            {
              "internalType": "uint256",
              "name": "rawValue",
              "type": "uint256"
            }
          ],
          "internalType": "struct FixedPoint.Unsigned",
          "name": "totalBond",
          "type": "tuple"
        }
      ],
      "stateMutability": "nonpayable",
      "type": "function"
    },
    {
      "inputs": [],
      "name": "rawLiquidationCollateral",
      "outputs": [
        {
          "internalType": "uint256",
          "name": "rawValue",
          "type": "uint256"
        }
      ],
      "stateMutability": "view",
      "type": "function"
    },
    {
      "inputs": [],
      "name": "rawTotalPositionCollateral",
      "outputs": [
        {
          "internalType": "uint256",
          "name": "rawValue",
          "type": "uint256"
        }
      ],
      "stateMutability": "view",
      "type": "function"
    },
    {
      "inputs": [
        {
          "components": [
            {
              "internalType": "uint256",
              "name": "rawValue",
              "type": "uint256"
            }
          ],
          "internalType": "struct FixedPoint.Unsigned",
          "name": "numTokens",
          "type": "tuple"
        }
      ],
      "name": "redeem",
      "outputs": [
        {
          "components": [
            {
              "internalType": "uint256",
              "name": "rawValue",
              "type": "uint256"
            }
          ],
          "internalType": "struct FixedPoint.Unsigned",
          "name": "amountWithdrawn",
          "type": "tuple"
        }
      ],
      "stateMutability": "nonpayable",
      "type": "function"
    },
    {
      "inputs": [],
      "name": "remargin",
      "outputs": [],
      "stateMutability": "nonpayable",
      "type": "function"
    },
    {
      "inputs": [
        {
          "components": [
            {
              "internalType": "uint256",
              "name": "rawValue",
              "type": "uint256"
            }
          ],
          "internalType": "struct FixedPoint.Unsigned",
          "name": "numTokens",
          "type": "tuple"
        }
      ],
      "name": "repay",
      "outputs": [],
      "stateMutability": "nonpayable",
      "type": "function"
    },
    {
      "inputs": [
        {
          "components": [
            {
              "internalType": "uint256",
              "name": "rawValue",
              "type": "uint256"
            }
          ],
          "internalType": "struct FixedPoint.Unsigned",
          "name": "collateralAmount",
          "type": "tuple"
        }
      ],
      "name": "requestWithdrawal",
      "outputs": [],
      "stateMutability": "nonpayable",
      "type": "function"
    },
    {
      "inputs": [
        {
          "internalType": "uint256",
          "name": "time",
          "type": "uint256"
        }
      ],
      "name": "setCurrentTime",
      "outputs": [],
      "stateMutability": "nonpayable",
      "type": "function"
    },
    {
      "inputs": [],
      "name": "settleEmergencyShutdown",
      "outputs": [
        {
          "components": [
            {
              "internalType": "uint256",
              "name": "rawValue",
              "type": "uint256"
            }
          ],
          "internalType": "struct FixedPoint.Unsigned",
          "name": "amountWithdrawn",
          "type": "tuple"
        }
      ],
      "stateMutability": "nonpayable",
      "type": "function"
    },
    {
      "inputs": [],
      "name": "sponsorDisputeRewardPercentage",
      "outputs": [
        {
          "internalType": "uint256",
          "name": "rawValue",
          "type": "uint256"
        }
      ],
      "stateMutability": "view",
      "type": "function"
    },
    {
      "inputs": [],
      "name": "timerAddress",
      "outputs": [
        {
          "internalType": "address",
          "name": "",
          "type": "address"
        }
      ],
      "stateMutability": "view",
      "type": "function"
    },
    {
      "inputs": [],
      "name": "tokenCurrency",
      "outputs": [
        {
          "internalType": "contract ExpandedIERC20",
          "name": "",
          "type": "address"
        }
      ],
      "stateMutability": "view",
      "type": "function"
    },
    {
      "inputs": [],
      "name": "totalPositionCollateral",
      "outputs": [
        {
          "components": [
            {
              "internalType": "uint256",
              "name": "rawValue",
              "type": "uint256"
            }
          ],
          "internalType": "struct FixedPoint.Unsigned",
          "name": "totalCollateral",
          "type": "tuple"
        }
      ],
      "stateMutability": "view",
      "type": "function"
    },
    {
      "inputs": [],
      "name": "totalTokensOutstanding",
      "outputs": [
        {
          "internalType": "uint256",
          "name": "rawValue",
          "type": "uint256"
        }
      ],
      "stateMutability": "view",
      "type": "function"
    },
    {
      "inputs": [
        {
          "components": [
            {
              "internalType": "uint256",
              "name": "rawValue",
              "type": "uint256"
            }
          ],
          "internalType": "struct FixedPoint.Unsigned",
          "name": "collateralAmount",
          "type": "tuple"
        }
      ],
      "name": "withdraw",
      "outputs": [
        {
          "components": [
            {
              "internalType": "uint256",
              "name": "rawValue",
              "type": "uint256"
            }
          ],
          "internalType": "struct FixedPoint.Unsigned",
          "name": "amountWithdrawn",
          "type": "tuple"
        }
      ],
      "stateMutability": "nonpayable",
      "type": "function"
    },
    {
      "inputs": [
        {
          "internalType": "uint256",
          "name": "liquidationId",
          "type": "uint256"
        },
        {
          "internalType": "address",
          "name": "sponsor",
          "type": "address"
        }
      ],
      "name": "withdrawLiquidation",
      "outputs": [
        {
          "components": [
            {
              "components": [
                {
                  "internalType": "uint256",
                  "name": "rawValue",
                  "type": "uint256"
                }
              ],
              "internalType": "struct FixedPoint.Unsigned",
              "name": "payToSponsor",
              "type": "tuple"
            },
            {
              "components": [
                {
                  "internalType": "uint256",
                  "name": "rawValue",
                  "type": "uint256"
                }
              ],
              "internalType": "struct FixedPoint.Unsigned",
              "name": "payToLiquidator",
              "type": "tuple"
            },
            {
              "components": [
                {
                  "internalType": "uint256",
                  "name": "rawValue",
                  "type": "uint256"
                }
              ],
              "internalType": "struct FixedPoint.Unsigned",
              "name": "payToDisputer",
              "type": "tuple"
            },
            {
              "components": [
                {
                  "internalType": "uint256",
                  "name": "rawValue",
                  "type": "uint256"
                }
              ],
              "internalType": "struct FixedPoint.Unsigned",
              "name": "paidToSponsor",
              "type": "tuple"
            },
            {
              "components": [
                {
                  "internalType": "uint256",
                  "name": "rawValue",
                  "type": "uint256"
                }
              ],
              "internalType": "struct FixedPoint.Unsigned",
              "name": "paidToLiquidator",
              "type": "tuple"
            },
            {
              "components": [
                {
                  "internalType": "uint256",
                  "name": "rawValue",
                  "type": "uint256"
                }
              ],
              "internalType": "struct FixedPoint.Unsigned",
              "name": "paidToDisputer",
              "type": "tuple"
            }
          ],
          "internalType": "struct PerpetualLiquidatable.RewardsData",
          "name": "",
          "type": "tuple"
        }
      ],
      "stateMutability": "nonpayable",
      "type": "function"
    },
    {
      "inputs": [],
      "name": "withdrawPassedRequest",
      "outputs": [
        {
          "components": [
            {
              "internalType": "uint256",
              "name": "rawValue",
              "type": "uint256"
            }
          ],
          "internalType": "struct FixedPoint.Unsigned",
          "name": "amountWithdrawn",
          "type": "tuple"
        }
      ],
      "stateMutability": "nonpayable",
      "type": "function"
    },
    {
      "inputs": [],
      "name": "withdrawalLiveness",
      "outputs": [
        {
          "internalType": "uint256",
          "name": "",
          "type": "uint256"
        }
      ],
      "stateMutability": "view",
      "type": "function"
    }
  ],
  "bytecode": "0x60806040523480156200001157600080fd5b506040516200599e3803806200599e833981016040819052620000349162000580565b805160408201516060830151608084015160c085015160e0860151610100870151602088015161012089015160a08a015160008055600180546001600160a81b0319166001600160a01b0380841691909117600160a01b1790915560028054828c166001600160a01b03199182161790915560038054928a16929091169190911790558a99989796959493929190848988858585848482620000d5620002af565b600481905550620000f260016200035860201b62002bfd1760201c565b516005555060009150620001079050620002af565b6009819055600a555050516008556007939093555050600c80546001600160a01b0319166001600160a01b03909216919091179055620001466200039c565b6001600160a01b03166390978d1b876040518263ffffffff1660e01b81526004016200017491815260200190565b60206040518083038186803b1580156200018d57600080fd5b505afa158015620001a2573d6000803e3d6000fd5b505050506040513d601f19601f82011682018060405250810190620001c891906200055e565b620001d257600080fd5b50505060129690965550601080546001600160a01b0319166001600160a01b03949094169390931790925550915160135550601155610160810151620002269060016200043c602090811b62002c3217901c565b6200023057600080fd5b6200026e60016200025a836101c00151846101a001516200045560201b62002c491790919060201c565b6200049a60201b62002c7c1790919060201c565b6200027857600080fd5b61014081015160175561016081015151601855610180810151516019556101a081015151601a556101c0015151601b555062000748565b6001546000906001600160a01b0316156200035357600160009054906101000a90046001600160a01b03166001600160a01b03166329cb924d6040518163ffffffff1660e01b815260040160206040518083038186803b1580156200031357600080fd5b505afa15801562000328573d6000803e3d6000fd5b505050506040513d601f19601f820116820180604052508101906200034e9190620006a4565b905090565b504290565b604080516020810190915260008152604051806020016040528062000394670de0b6b3a764000085620004b360201b62002c931790919060201c565b905292915050565b6003546040516302abf57960e61b81527f4964656e74696669657257686974656c6973740000000000000000000000000060048201526000916001600160a01b03169063aafd5e409060240160206040518083038186803b1580156200040157600080fd5b505afa15801562000416573d6000803e3d6000fd5b505050506040513d601f19601f820116820180604052508101906200034e919062000541565b6000620004498262000358565b51835111905092915050565b60408051602081019091526000815260405180602001604052806200049184600001518660000151620004c860201b62002ca61790919060201c565b90529392505050565b6000620004a78262000358565b51835110905092915050565b6000620004c1828462000710565b9392505050565b6000620004c18284620006f5565b80516001600160a01b0381168114620004ee57600080fd5b919050565b60006020828403121562000505578081fd5b604051602081016001600160401b03811182821017156200053457634e487b7160e01b83526041600452602483fd5b6040529151825250919050565b60006020828403121562000553578081fd5b620004c182620004d6565b60006020828403121562000570578081fd5b81518015158114620004c1578182fd5b60006101e0828403121562000593578081fd5b6200059d620006bd565b82518152620005af60208401620004d6565b6020820152620005c260408401620004d6565b6040820152620005d560608401620004d6565b6060820152620005e860808401620004d6565b6080820152620005fb60a08401620004d6565b60a082015260c083015160c082015260e083015160e08201526101006200062585828601620004f3565b908201526101206200063a85858301620004f3565b9082015261014083810151908201526101606200065a85828601620004f3565b908201526101806200066f85858301620004f3565b908201526101a06200068485858301620004f3565b908201526101c06200069985858301620004f3565b908201529392505050565b600060208284031215620006b6578081fd5b5051919050565b6040516101e081016001600160401b0381118282101715620006ef57634e487b7160e01b600052604160045260246000fd5b60405290565b600082198211156200070b576200070b62000732565b500190565b60008160001904831182151516156200072d576200072d62000732565b500290565b634e487b7160e01b600052601160045260246000fd5b61524680620007586000396000f3fe608060405234801561001057600080fd5b50600436106102ba5760003560e01c80635aa266c91161018257806394909e62116100e9578063a1c4d1e7116100a2578063bc1216301161007c578063bc121630146106d4578063bda02e771461033b578063d1e92c11146106e7578063dd0eef3d146106fa57600080fd5b8063a1c4d1e71461068e578063a765fbea146106ae578063b9a3c84c146106c157600080fd5b806394909e621461061f57806397523661146106275780639b56d6c9146106305780639d69dc4e146106435780639e4efaa0146106565780639ff4dea81461068557600080fd5b80637b34ee7f1161013b5780637b34ee7f146105dc5780637e398c22146105e657806381a10ae1146105f05780638bbd9fb9146105f85780638c382eb21461060b57806392120aec1461061557600080fd5b80635aa266c91461057f5780635f1af1ca146105925780636ba2f992146105a55780636cf1be29146105b85780637048594b146105c157806371f3c1b7146105d457600080fd5b806333a46ca21161022657806341d3c84c116101df57806341d3c84c1461045757806343e4771b146104be57806348e30c3f146104c65780634f8c4847146104d057806350f49846146104fa57806355f575101461050457600080fd5b806333a46ca2146103b45780633403c2fc146103bc57806334c49556146103c4578063360598e1146103d75780633cb6ce831461043c5780633ee7a5ce1461044457600080fd5b80632261128011610278578063226112801461035057806322f8e5661461035857806325ed4dd81461036b57806329cb924d146103995780632d5436cf146103a15780632e154f2e146103aa57600080fd5b8062b9add7146102bf578063081b314e146102db5780630c9229ca146102f35780630de15fd9146102fd57806318928a0c146103285780631c39c38d1461033d575b600080fd5b6102c7610704565b604051905181526020015b60405180910390f35b601a546102e59081565b6040519081526020016102d2565b600e546102e59081565b600254610310906001600160a01b031681565b6040516001600160a01b0390911681526020016102d2565b61033b610336366004614a43565b610a6d565b005b600154610310906001600160a01b031681565b61033b610b25565b61033b610366366004614ceb565b610ba0565b61037e6103793660046149e3565b610c17565b604080519384529151602084015251908201526060016102d2565b6102e561121f565b6102e560175481565b6019546102e59081565b6102c76112c3565b61033b6113fc565b6102c76103d2366004614c34565b611497565b6103ea6103e5366004614d03565b6117c9565b6040516102d29190600060c0820190508251518252602083015151602083015260408301515160408301526060830151516060830152608083015151608083015260a08301515160a083015292915050565b6102c7611c88565b6102c7610452366004614c6e565b611e06565b6040805160208082018352600654825260075483519182019093526008548152600954600a54600b5461048b959392919086565b604080519651875260208701959095529251938501939093526060840152608083019190915260a082015260c0016102d2565b6102c7611ec6565b6018546102e59081565b6104e36104de366004614a78565b611eff565b6040516102d29b9a99989796959493929190614de9565b6016546102e59081565b6105586105123660046149ab565b600d602090815260009182526040918290208251808301845281548152600182015484518085018652600284015481528551948501909552600390920154835292909184565b604080519451855260208501939093529051918301919091525160608201526080016102d2565b61033b61058d366004614c6e565b611fc6565b6102c76105a0366004614c6e565b61213d565b61033b6105b3366004614ca4565b612360565b6102e560005481565b601054610310906001600160a01b031681565b61033b6125cd565b6014546102e59081565b601b546102e59081565b6102c76125f6565b6102c7610606366004614c6e565b612615565b600f546102e59081565b6013546102e59081565b61033b61263d565b6102e560115481565b6102c761063e3660046149ab565b612655565b600c54610310906001600160a01b031681565b610669610664366004614ceb565b6126a5565b60408051935184529151602084015251908201526060016102d2565b6102e560125481565b6106a161069c3660046149ab565b61281f565b6040516102d29190614e90565b6102c76106bc366004614d03565b6129a5565b600354610310906001600160a01b031681565b61033b6106e2366004614c6e565b612b2f565b61033b6106f5366004614c6e565b612bf0565b6005546102e59081565b60408051602081019091526000815261071b612cb2565b6107236125cd565b61072b612cbe565b610733612d17565b6107586107406000612bfd565b60408051602081019091526014548152905190511490565b1561076a57610765612d26565b516014555b6040805160208101918290526010546370a0823160e01b90925233602482015260009181906001600160a01b03166370a082316044830160206040518083038186803b1580156107b957600080fd5b505afa1580156107cd573d6000803e3d6000fd5b505050506040513d601f19601f820116820180604052508101906107f19190614abd565b90526040805160208101909152601454815290915060009061081c9061081684612d40565b90612d66565b336000908152600d60209081526040808320815192830190915260038101548252929350610854919061084e90612da3565b90612c32565b1561093b5760408051602080820183526014548252825190810190925282548252600091610886919061081690612d40565b6040805160208101909152600384015481529091506000906108a790612da3565b905060006108b783835190511090565b6108d057604051806020016040528060008152506108da565b6108da8284612dcd565b90506108e68582612c49565b336000818152600d602052604080822082815560018101839055600281018390556003018290555192975090917fcad20625296d189a6fc6e5b39d0d544e5bd99dbda0c8f2f0ecffef3e0fbcc2829190a25050505b6040805160208101909152600f5481526000906109619061095b90612da3565b84612df7565b905061096e600f82612e1c565b6040805160208101909152600e54815290955061098b9085612dcd565b51600e558351855160405133907f129c54fc6fd4bd937e4a04ede027ac4ad3f9397cd943d6d354649d9d968dacbe90600090a484516002546109da916001600160a01b03909116903390612e9e565b83516010546109f8916001600160a01b039091169033903090612f01565b6010548451604051630852cd8d60e31b81526001600160a01b03909216916342966c6891610a2c9160040190815260200190565b600060405180830381600087803b158015610a4657600080fd5b505af1158015610a5a573d6000803e3d6000fd5b5050505050505050610a6a612f3f565b90565b610a75612f54565b81610a7f81612f61565b610a876125cd565b610a8f612cbe565b610a97612d17565b610aa2826000612c32565b610aab57600080fd5b6000610ab684612f78565b9050610ac28184612fa0565b5082516040516001600160a01b038616907fe1fffcc4923d04b559f4d29a8bfc6cda04eb5b0d3c460751c2402c5c5cc9109c90600090a38251600254610b17916001600160a01b039091169033903090612f01565b50610b20612f3f565b505050565b610b2d612f54565b610b35612cbe565b610b3d612d17565b6000610b4833612f78565b9050806001015460001415610b5c57600080fd5b600281015460405133907f74d8a3658feb89d1a5c335229bbbfc3bbcfaf492769feb7aa4cd2d92efeaf69190600090a3610b9581612fc8565b50610b9e612f3f565b565b6001546001600160a01b0316610bb557600080fd5b60015460405163117c72b360e11b8152600481018390526001600160a01b03909116906322f8e566906024015b600060405180830381600087803b158015610bfc57600080fd5b505af1158015610c10573d6000803e3d6000fd5b5050505050565b6000610c2f6040518060200160405280600081525090565b604080516020810190915260008152610c46612f54565b610c4e6125cd565b610c56612cbe565b610c5e612d17565b83610c6761121f565b1115610cb15760405162461bcd60e51b81526020600482015260146024820152734d696e656420616674657220646561646c696e6560601b60448201526064015b60405180910390fd5b6000610cbc89612f78565b9050610ce4610cd036889003880188614c6e565b604080516020810190915283548152612df7565b9250610cf1836000612c32565b610cfa57600080fd5b604080516020810190915260038201548152600090610d1890612da3565b90506000610d266000612bfd565b6040805160208101909152600285015490819052835191925011610d6457604080516020810190915260028401548152610d61908390612dcd565b90505b604080516020810190915283548152610d9382610d8a83610816368f90038f018f614c6e565b90519051101590565b610ddf5760405162461bcd60e51b815260206004820152601e60248201527f4352206973206d6f7265207468616e206d6178206c69712e20707269636500006044820152606401610ca8565b610e0182610df8838e8036038101906108169190614c6e565b90519051111590565b610e4d5760405162461bcd60e51b815260206004820152601e60248201527f4352206973206c657373207468616e206d696e206c69712e20707269636500006044820152606401610ca8565b50610e56612fe2565b9350610e6e6040518060200160405280600081525090565b604080516020810190915260008152604080516020810190915285548152600090610e9a908990613080565b9050610ea68582612d66565b9250610eb28482612d66565b604080516020810190915260028801548152909250600090610ed49083612d66565b9050610ee28f8a86846130bc565b50610ef990506016610ef48489612c49565b6131ba565b506001600160a01b038d1660008181526015602090815260409182902080548351610160810185529485523392850192909252909a509190810160018152602001610f4261121f565b8152602001610f508a612d40565b8152602001848152602001838152602001610f73610f6e6001612bfd565b61322e565b815260200160006001600160a01b03168152602001610f926000612bfd565b815260209081018990528254600180820185556000948552938290208351600a9092020180546001600160a01b03199081166001600160a01b03938416178255928401519481018054938416959092169485178255604084015193949093926001600160a81b03191617600160a01b83600481111561102157634e487b7160e01b600052602160045260246000fd5b021790555060608201516002820155608082015151600382015560a082015151600482015560c082015151600582015560e08201515160068201556101008201516007820180546001600160a01b0319166001600160a01b039092169190911790556101208201515160088201556101409091015151600990910155604080516020810190915260135481526001860154158015906110ca57506110c361121f565b8660010154115b80156110d857508051885110155b156110f7576110f16012546110eb61121f565b90612ca6565b60018701555b88336001600160a01b03168f6001600160a01b03167f39b4371645b4132767fd76a1aad3108ff95c20d7b687b24d171555f5459a75976111368c612d40565b518751875161114361121f565b60408051948552602085019390935291830152606082015260800160405180910390a48751601054611184916001600160a01b039091169033903090612f01565b6010548851604051630852cd8d60e31b81526001600160a01b03909216916342966c68916111b89160040190815260200190565b600060405180830381600087803b1580156111d257600080fd5b505af11580156111e6573d6000803e3d6000fd5b5050885160025461120693506001600160a01b0316915033903090612f01565b505050505050611214612f3f565b955095509592505050565b6001546000906001600160a01b0316156112be57600160009054906101000a90046001600160a01b03166001600160a01b03166329cb924d6040518163ffffffff1660e01b815260040160206040518083038186803b15801561128157600080fd5b505afa158015611295573d6000803e3d6000fd5b505050506040513d601f19601f820116820180604052508101906112b99190614abd565b905090565b504290565b6040805160208101909152600081526112da612f54565b6112e26125cd565b6112ea612cbe565b6112f2612d17565b60006112fd33612f78565b9050806001015460001415801561131f575061131761121f565b816001015411155b61132857600080fd5b604080516020808201835260028401548252825190810190925260038301548252906113719061135790612da3565b604080516020810190915260028501548152905190511190565b156113945760408051602081019091526003830154815261139190612da3565b90505b61139e8282613258565b92506113a982612fc8565b82516002546113c5916001600160a01b03909116903390612e9e565b825160405133907fc86c3298cb79f486674dca87d9247e88b76146160e7d412cc59b26b14c358a6890600090a35050610a6a612f3f565b611404612f54565b61140c6125cd565b611414612cbe565b61141c612d17565b611424613280565b6001600160a01b0316336001600160a01b03161461144157600080fd5b61144961121f565b600081905561145790613317565b60005460405190815233907f077382e0341a6d8666d1f8ed15b8c933a01f5c1a3e6c5229e2db8c5dc1c06ae19060200160405180910390a2610b9e612f3f565b6040805160208101909152600081526114ae6125cd565b6114b6612cbe565b6114be612d17565b600b54156115055760405162461bcd60e51b815260206004820152601460248201527350726f706f73616c20696e2070726f677265737360601b6044820152606401610ca8565b61150e83613357565b600061151861121f565b6009549091508084118015611542575061153e611533613395565b60a001518390613425565b8410155b6115865760405162461bcd60e51b8152602060048201526015602482015274496e76616c69642070726f706f73616c2074696d6560581b6044820152606401610ca8565b600b8490556000611595613431565b60075490915060006115a5613475565b6002546040516311df92f160e01b81529192506001600160a01b03808616926311df92f1926115e19287928d9288921690600090600401614f81565b602060405180830381600087803b1580156115fb57600080fd5b505af115801561160f573d6000803e3d6000fd5b505050506040513d601f19601f820116820180604052508101906116339190614abd565b506040518060200160405280846001600160a01b031663ad5a755a858b8661166861165c613395565b604001516108166134c5565b516040516001600160e01b031960e087901b16815261168d9493929190600401614fbd565b602060405180830381600087803b1580156116a757600080fd5b505af11580156116bb573d6000803e3d6000fd5b505050506040513d601f19601f820116820180604052508101906116df9190614abd565b905295506116ee866000612c32565b1561172d578551600254611711916001600160a01b039091169033903090612f01565b855160025461172d916001600160a01b039091169085906134f9565b8751604051637c82288f60e01b81526001600160a01b03851691637c82288f91611763913391309188918e918991600401614d9c565b602060405180830381600087803b15801561177d57600080fd5b505af1158015611791573d6000803e3d6000fd5b505050506040513d601f19601f820116820180604052508101906117b59190614abd565b5050505050506117c3612f3f565b92915050565b6117d161484c565b82826117dd82826135ba565b6117e56125cd565b6117ed612cbe565b6117f5612d17565b60006118018587613649565b905061180d868661370f565b60408051602081019091526006820154815260009061182b90612da3565b6040805160208082018352600886015482528251908101909252600385015482529192506000906118629084906108169085612d66565b6040805160208101909152600486015481529091506000906118849085612d66565b6040805160208101909152601b5481529091506000906118a49084612d66565b6040805160208101909152601a5481529091506000906118c49085612d66565b604080516020810190915260195481529091506000906118e5908590612d66565b604080516020810190915260098a015481529091506000906119079089612d66565b905061191161484c565b600360018b0154600160a01b900460ff16600481111561194157634e487b7160e01b600052602160045260246000fd5b1415611a3d5761195b826119558786612c49565b90612c49565b604082015261197461196d8789612dcd565b8590612c49565b815261198a856119848987612dcd565b90612dcd565b6020820181905261199d90601690612e1c565b608082015280516119b090601690612e1c565b606082015260408101516119c690601690612e1c565b60a0820181905260078b015490516002546119ef926001600160a01b0391821692911690612e9e565b60018a0154608082015151600254611a15926001600160a01b0391821692911690612e9e565b8954606082015151600254611a38926001600160a01b0391821692911690612e9e565b611b38565b600460018b0154600160a01b900460ff166004811115611a6d57634e487b7160e01b600052602160045260246000fd5b1415611abd57611a81826119558886612c49565b60208201819052611a9490601690612e1c565b6080820181905260018b01549051600254611a38926001600160a01b0391821692911690612e9e565b6001808b0154600160a01b900460ff166004811115611aec57634e487b7160e01b600052602160045260246000fd5b1415611b3857611afc8683612c49565b60208201819052611b0f90601690612e1c565b6080820181905260018b01549051600254611b38926001600160a01b0391821692911690612e9e565b60018a0154600160a01b900460ff166004811115611b6657634e487b7160e01b600052602160045260246000fd5b6080828101515160a084015151606080860151518d516040805195865260208601949094529284015282015233917fb479588a37dc7f6bac1c91587fcfc539cac4949cf26bb536ad9c8d061f00f50d910160405180910390a3601560008f6001600160a01b03166001600160a01b031681526020019081526020016000208f81548110611c0357634e487b7160e01b600052603260045260246000fd5b600091825260208220600a9091020180546001600160a01b031990811682556001820180546001600160a81b03191690556002820183905560038201839055600482018390556005820183905560068201839055600782018054909116905560088101829055600901559b50505050505050505050611c80612f3f565b505092915050565b604080516020810190915260008152611c9f612cbe565b611ca7612d17565b6000611cb161121f565b90506000611cbd6134c5565b90506000806000611ccd856126a5565b600488905591945092509050611ce481600061387f565b15611cf5579450611dfe9350505050565b815183516040517f19b92e73d08d517d71ec46136266e4f5d526a8cd4f8501d73713cebfe4f335ef90600090a3611d2c8185613896565b611d37836000612c32565b15611dcb576000611d466138d4565b8451600254919250611d63916001600160a01b03169083906134f9565b60025460405163432ce91960e11b81526001600160a01b0391821660048201528551602482015290821690638659d23290604401600060405180830381600087803b158015611db157600080fd5b505af1158015611dc5573d6000803e3d6000fd5b50505050505b611dd6826000612c32565b15611df7578151600254611df7916001600160a01b03909116903390612e9e565b9450505050505b610a6a612f3f565b604080516020810190915260008152611e1d612f54565b33611e2781612f61565b611e2f6125cd565b611e37612cbe565b611e3f612d17565b611e4a836000612c32565b611e5357600080fd5b6000611e5e33612f78565b9050611e6a818561390d565b80516040519194509033907f7fcf532c15f0a6db0bd6d0e038bea71d30d808c7d98cb3bf7268a95bf5081b6590600090a38251600254611eb7916001600160a01b03909116903390612e9e565b50611ec0612f3f565b50919050565b604080516020810190915260008152611edd612cbe565b6040805160208101909152600f5481526112b990611efa90612da3565b613979565b60156020528160005260406000208181548110611f1b57600080fd5b6000918252602091829020600a919091020180546001820154600283015460408051808701825260038601548152815180880183526004870154815282518089018452600588015481528351808a0185526006890154815260078901548551808c01875260088b0154815286519b8c019096526009909901548a526001600160a01b039788169b508787169a50600160a01b90960460ff16989497929691959094909391909216918b565b611fce612f54565b33611fd881612f61565b611fe06125cd565b611fe8612cbe565b611ff0612d17565b6000611ffb33612f78565b60408051602081019091528154908190528451919250101561201c57600080fd5b6040805160208101909152815481526000906120389085612dcd565b6040805160208101909152601354908190528151919250111561205a57600080fd5b805182556040805160208101909152600e5481526120789085612dcd565b51600e558051845160405133907f77c6871227e5d2dec8dadd5354f78453203e22e669cd0ec4c19d9a8c5edb31d090600090a483516010546120c9916001600160a01b039091169033903090612f01565b6010548451604051630852cd8d60e31b81526001600160a01b03909216916342966c68916120fd9160040190815260200190565b600060405180830381600087803b15801561211757600080fd5b505af115801561212b573d6000803e3d6000fd5b505050505050612139612f3f565b5050565b604080516020810190915260008152612154612f54565b3361215e81612f61565b6121666125cd565b61216e612cbe565b612176612d17565b600061218133612f78565b6040805160208101909152815490819052855191925010156121a257600080fd5b6040805160208101909152815481526000906121bf908690613080565b6040805160208101909152600384015481529091506000906121eb906121e490612da3565b8390612d66565b60408051602081019091528454908190528751919250141561221757612210336139ef565b9450612286565b6122218382613258565b6040805160208101909152845481529095506000906122409088612dcd565b6040805160208101909152601354908190528151919250111561226257600080fd5b805184556040805160208101909152600e5481526122809088612dcd565b51600e55505b8551855160405133907fe5b754fb1abb7f01b499791d0b820ae3b6af3424ac1c59768edb53f4ec31a92990600090a484516002546122d1916001600160a01b03909116903390612e9e565b85516010546122ef916001600160a01b039091169033903090612f01565b6010548651604051630852cd8d60e31b81526001600160a01b03909216916342966c68916123239160040190815260200190565b600060405180830381600087803b15801561233d57600080fd5b505af1158015612351573d6000803e3d6000fd5b50505050505050611ec0612f3f565b612368612f54565b6123706125cd565b612378612cbe565b612380612d17565b336000908152600d60209081526040918290208251918201909252600382015481526123d3906123b590859061195590612da3565b6040805160208101909152835481526123ce9085612c49565b613afa565b806123e357506123e38383613afa565b6124295760405162461bcd60e51b8152602060048201526017602482015276125b9cdd59999a58da595b9d0818dbdb1b185d195c985b604a1b6044820152606401610ca8565b60018101541561243857600080fd5b60408051602081019091528154815261245290600061387f565b156124a2576040805160208101909152601354908190528251101561247657600080fd5b60405133907ff60993fa76f94c9e0a803526ee6e1314814ed4d2b0d223febf1436b36897fb3790600090a25b6124ac8184612fa0565b506040805160208101909152815481526124c69083612c49565b5181556040805160208101909152600e5481526124e39083612c49565b51600e558151835160405133907f4b82aa16e071a61de1a6b9aeec9edab0356331f8122c78683b469ac8e685dabc90600090a48251600254612534916001600160a01b039091169033903090612f01565b60105482516040516340c10f1960e01b815233600482015260248101919091526001600160a01b03909116906340c10f1990604401602060405180830381600087803b15801561258357600080fd5b505af1158015612597573d6000803e3d6000fd5b505050506040513d601f19601f820116820180604052508101906125bb9190614aa3565b6125c457600080fd5b50612139612f3f565b6125d5611c88565b506125de612cbe565b6125e6612d17565b6125ee613b57565b610b9e612f3f565b60408051602081019091526000815261260d612cbe565b6112b96134c5565b60408051602081019091526000815261262c612cbe565b61263582612d40565b90505b919050565b612645612cbe565b61264d612d17565b6125ee613bbc565b60408051602081019091526000815261266c612cbe565b6001600160a01b0382166000908152600d60209081526040918290208251918201909252600390910154815261263590611efa90612da3565b60408051602081019091526000815260408051602081019091526000815260408051602081019091526000815260006126dc6138d4565b905060006126e86134c5565b90506126f581600061387f565b80612701575085600454145b1561270d575050612818565b600480546040516374201feb60e01b81529182015260248101879052815160448201526001600160a01b038316906374201feb90606401604080518083038186803b15801561275b57600080fd5b505afa15801561276f573d6000803e3d6000fd5b505050506040513d601f19601f820116820180604052508101906127939190614cc0565b90955093506127a28585612c49565b92506127af83600061387f565b156127bb575050612818565b8051835111156128155760006127d18483612dcd565b905060006127df8683612df7565b90506127eb8682612dcd565b95506127f78282612dcd565b915061280d6128068884612df7565b8890612dcd565b965082945050505b50505b9193909250565b6060612829612cbe565b6001600160a01b038216600090815260156020908152604080832080548251818502810185019093528083529193909284015b8282101561299a5760008481526020908190206040805161016081018252600a860290920180546001600160a01b039081168452600182015490811694840194909452919290830190600160a01b900460ff1660048111156128ce57634e487b7160e01b600052602160045260246000fd5b60048111156128ed57634e487b7160e01b600052602160045260246000fd5b8152600282015460208083019190915260408051808301825260038501548152818401528051808301825260048501548152606084015280518083018252600585015481526080840152805180830182526006850154815260a084015260078401546001600160a01b031660c0840152805180830182526008850154815260e08401528051808301909152600990930154835261010090910191909152908252600192909201910161285c565b505050509050919050565b60408051602081019091526000815282826129c08282613c7b565b6129c86125cd565b6129d0612cbe565b6129d8612d17565b60006129e48587613649565b604080516020810190915260068201548152909150600090612a3290612a0990612da3565b604080516020808201835260195482528251908101909252600486015482526108169190612d66565b9050612a3f6016826131ba565b5060018201805460ff60a01b1916600160a11b1790556007820180546001600160a01b031916331790556002820154612a7790613317565b60018201548151604080518a8152602081019290925233926001600160a01b0390811692908a16917fcaca181ccad7979cf36ed4fc921e496001ab5264608f0fac7007ae1b43d36102910160405180910390a4604080516020810190915260098301548152612ae7908290612c49565b604080516020810190915260098401548152909550612b07903390613d1f565b8051600254612b25916001600160a01b039091169033903090612f01565b5050611c80612f3f565b612b37612f54565b33612b4181612f61565b612b49612cbe565b612b51612d17565b6000612b5c33612f78565b9050612b69836000612c32565b8015612b975750604080516020810190915260038201548152612b9790612b8f90612da3565b518451111590565b612ba057600080fd5b612bae6012546110eb61121f565b600182015582516002820181905560405133907fd33b726e11d2c5d38e6702b16613df0160a07f7ba5185455ee3c45d0494fab1190600090a350612139612f3f565b612bfa3382610a6d565b50565b604080516020810190915260008152604080516020810190915280612c2a84670de0b6b3a7640000612c93565b905292915050565b6000612c3d82612bfd565b51835111905092915050565b6040805160208101909152600081526040805160208101909152825184518291612c739190612ca6565b90529392505050565b6000612c8782612bfd565b51835110905092915050565b6000612c9f8284615159565b9392505050565b6000612c9f82846150aa565b600054610b9e57600080fd5b600154600160a01b900460ff16610b9e5760405162461bcd60e51b815260206004820152601f60248201527f5265656e7472616e637947756172643a207265656e7472616e742063616c6c006044820152606401610ca8565b6001805460ff60a01b19169055565b6040805160208101909152600081526112b9600054613e50565b604080516020810190915260008152604080516020810190915260085481526126359083905b6040805160208101909152600081526040805160208101909152825184518291670de0b6b3a764000091612d9991612c93565b612c7391906150c2565b60408051602081019091526000815260408051602081019091526005548152612635908390612d66565b6040805160208101909152600081526040805160208101909152825184518291612c739190613425565b6040805160208101909152600081528151835110612e155781612c9f565b5090919050565b604080516020810190915260008152604080516020810190915283548152600090612e4690612da3565b90506000612e538461322e565b604080516020810190915286548152909150612e6f9082612dcd565b518086556040805160208101909152908152612e9590612e8e90612da3565b8390612dcd565b95945050505050565b6040516001600160a01b038316602482015260448101829052610b2090849063a9059cbb60e01b906064015b60408051601f198184030181529190526020810180516001600160e01b03166001600160e01b031990931692909217909152613f14565b6040516001600160a01b0380851660248301528316604482015260648101829052612f399085906323b872dd60e01b90608401612eca565b50505050565b6001805460ff60a01b1916600160a01b179055565b60005415610b9e57600080fd5b612f6a81612f78565b6001015415612bfa57600080fd5b600081612f8481613fe6565b50506001600160a01b03166000908152600d6020526040902090565b604080516020810190915260008152612fbc83600301836131ba565b50612c9f600f836131ba565b612fd26000612bfd565b5160028201556000600190910155565b6040805160208101909152600081526000612ffb6138d4565b600254604051635b97aadd60e01b81526001600160a01b039182166004820152919250821690635b97aadd9060240160206040518083038186803b15801561304257600080fd5b505afa158015613056573d6000803e3d6000fd5b505050506040513d601f19601f8201168201806040525081019061307a9190614c89565b91505090565b6040805160208101909152600081526040805160208101909152825184518291612c73916130b690670de0b6b3a7640000612c93565b9061401d565b60006130c785612f78565b6040805160208101909152815490819052855191925014801561310e575060408051602081019091526003820154815261310e90849061310690612da3565b905190511490565b156131235761311c856139ef565b5050612f39565b61312d8184613258565b506040805160208101909152815481526131479085612dcd565b518082556040805160208082018352601354825282519081019092529082905251111561317357600080fd5b60408051602081019091526002820154815261318f9083612dcd565b5160028201556040805160208101909152600e5481526131af9085612dcd565b51600e555050505050565b6040805160208101909152600081526040805160208101909152835481526000906131e490612da3565b905060006131f18461322e565b60408051602081019091528654815290915061320d9082612c49565b518086556040805160208101909152908152612e9590839061198490612da3565b60408051602081019091526000815260408051602081019091526005548152612635908390613080565b6040805160208101909152600081526132748360030183612e1c565b50612c9f600f83612e1c565b6003546040516302abf57960e61b8152762334b730b731b4b0b621b7b73a3930b1ba39a0b236b4b760491b60048201526000916001600160a01b03169063aafd5e40906024015b60206040518083038186803b1580156132df57600080fd5b505afa1580156132f3573d6000803e3d6000fd5b505050506040513d601f19601f820116820180604052508101906112b991906149c7565b61331f614029565b6001600160a01b03166368ad8ae3601154836040518363ffffffff1660e01b8152600401610be2929190918252602082015260400190565b61336e613362613395565b60600151518251131590565b801561338c575061338c613380613395565b60800151518251121590565b612bfa57600080fd5b61339d6148b3565b600c60009054906101000a90046001600160a01b03166001600160a01b031663145701f86040518163ffffffff1660e01b815260040160c060405180830381600087803b1580156133ed57600080fd5b505af1158015613401573d6000803e3d6000fd5b505050506040513d601f19601f820116820180604052508101906112b99190614ad5565b6000612c9f8284615178565b6003546040516302abf57960e61b81526f4f7074696d69737469634f7261636c6560801b60048201526000916001600160a01b03169063aafd5e40906024016132c7565b60606134896010546001600160a01b031690565b6040516020016134b1919060609190911b6bffffffffffffffffffffffff1916815260140190565b604051602081830303815290604052905090565b604080516020810190915260008152604080516020810190915260165481526112b9906134f190612da3565b611955614063565b604051636eb1769f60e11b81523060048201526001600160a01b038381166024830152600091839186169063dd62ed3e9060440160206040518083038186803b15801561354557600080fd5b505afa158015613559573d6000803e3d6000fd5b505050506040513d601f19601f8201168201806040525081019061357d9190614abd565b61358791906150aa565b6040516001600160a01b038516602482015260448101829052909150612f3990859063095ea7b360e01b90606401612eca565b60006135c68284613649565b600181810154919250600160a01b90910460ff16908160048111156135fb57634e487b7160e01b600052602160045260246000fd5b1180613640575061360a61121f565b6136138361408b565b111580156136405750600181600481111561363e57634e487b7160e01b600052602160045260246000fd5b145b612f3957600080fd5b6001600160a01b03821660009081526015602052604081208054831080156136cf5750600081848154811061368e57634e487b7160e01b600052603260045260246000fd5b90600052602060002090600a020160010160149054906101000a900460ff1660048111156136cc57634e487b7160e01b600052602160045260246000fd5b14155b6136d857600080fd5b8083815481106136f857634e487b7160e01b600052603260045260246000fd5b90600052602060002090600a020191505092915050565b600061371b8284613649565b905060026001820154600160a01b900460ff16600481111561374d57634e487b7160e01b600052602160045260246000fd5b1461375757505050565b6137648160020154613e50565b5160088201819055604080516020808201835292815281519283019091526003830154825260009161379591612d66565b604080516020810190915260185481529091506000906137b6908390612d66565b604080516020810190915260058501549081905281519192501015806137dd5760046137e0565b60035b60018501805460ff60a01b1916600160a01b83600481111561381257634e487b7160e01b600052602160045260246000fd5b021790555060018401546007850154604080516001600160a01b039283168152602081018a9052841515818301529051928216929188169133917f6c5582199868fabbe697f9ea10abe481bacf53ac78c02a965b34dff82fd20e3b919081900360600190a4505050505050565b600061388a82612bfd565b51835114905092915050565b60006138a283836140a6565b90506138cb6138b5826119846001612bfd565b6040805160208101909152600554815290612d66565b51600555505050565b6003546040516302abf57960e61b81526453746f726560d81b60048201526000916001600160a01b03169063aafd5e40906024016132c7565b6040805160208101909152600081526139298360030183612e1c565b5061393383614135565b61396e5760405162461bcd60e51b815260206004820152600c60248201526b21a9103132b637bb9023a1a960a11b6044820152606401610ca8565b612c9f600f83612e1c565b604080516020810190915260008152600061399561066461121f565b925050506139ad6139a66000612bfd565b5182511490565b156139b9575090919050565b60006139cd6139c66134c5565b83906140a6565b90506139e76139e0826119846001612bfd565b8590612d66565b949350505050565b6040805160208101909152600081526000613a0983612f78565b6040805160208101909152600f548152909150600090613a2890612da3565b6040805160208082018352600386015482528251908101909252600f548252919250613a5391612dcd565b51600f556040805160208082018352845482528251908101909252600e548252613a7d9190612dcd565b51600e556001600160a01b0384166000818152600d60205260408082208281556001810183905560028101839055600301829055517fcad20625296d189a6fc6e5b39d0d544e5bd99dbda0c8f2f0ecffef3e0fbcc2829190a26040805160208101909152600f5481526139e790613af390612da3565b8290612dcd565b6040805160208101909152600f5481526000908190613b3190613b1c90612da3565b6040805160208101909152600e54815261416b565b90506000613b3f858561416b565b9050613b4d82825190511190565b1595945050505050565b60005415613b6157565b6000613b6b61121f565b600a54909150600090613b7f908390613425565b9050613b896141a2565b6040805160208082018352600654825282519081019092526008548252613bb29183919061448c565b5160085550600a55565b6000613bc66134c5565b6040805160208101918290526002546370a0823160e01b9092523060248201529192506000919081906001600160a01b03166370a082316044830160206040518083038186803b158015613c1957600080fd5b505afa158015613c2d573d6000803e3d6000fd5b505050506040513d601f19601f82011682018060405250810190613c519190614abd565b90529050613c6182825190511090565b1561213957613c736138b58284613080565b516005555050565b6000613c878284613649565b9050613c928161408b565b613c9a61121f565b108015613cd35750600180820154600160a01b900460ff166004811115613cd157634e487b7160e01b600052602160045260246000fd5b145b610b205760405162461bcd60e51b815260206004820152601a60248201527f4c69717569646174696f6e206e6f742064697370757461626c650000000000006044820152606401610ca8565b613d2a81600061387f565b15613d33575050565b6001600160a01b0382163014613d66578051600254613d61916001600160a01b039091169084903090612f01565b613d93565b6000613d706134c5565b9050613d7e81835190511190565b613d8757600080fd5b613d918282613896565b505b80516040517f4f9bf7e8cd0f2456f9c43d2597bedcf1446c9c64544053f1ece6423ae9a07e5290600090a26000613dc86138d4565b8251600254919250613de5916001600160a01b03169083906134f9565b60025460405163432ce91960e11b81526001600160a01b0391821660048201528351602482015290821690638659d23290604401600060405180830381600087803b158015613e3357600080fd5b505af1158015613e47573d6000803e3d6000fd5b50505050505050565b6040805160208101909152600081526000613e69614029565b6001600160a01b031663c9280f06601154856040518363ffffffff1660e01b8152600401613ea1929190918252602082015260400190565b60206040518083038186803b158015613eb957600080fd5b505afa158015613ecd573d6000803e3d6000fd5b505050506040513d601f19601f82011682018060405250810190613ef19190614abd565b90506000811215613f00575060005b604080516020810190915290815292915050565b6000613f69826040518060400160405280602081526020017f5361666545524332303a206c6f772d6c6576656c2063616c6c206661696c6564815250856001600160a01b03166145039092919063ffffffff16565b805190915015610b205780806020019051810190613f879190614aa3565b610b205760405162461bcd60e51b815260206004820152602a60248201527f5361666545524332303a204552433230206f7065726174696f6e20646964206e6044820152691bdd081cdd58d8d9595960b21b6064820152608401610ca8565b6001600160a01b0381166000908152600d60209081526040808320815192830190915260030154815261338c919061084e90612da3565b6000612c9f82846150c2565b6003546040516302abf57960e61b8152654f7261636c6560d01b60048201526000916001600160a01b03169063aafd5e40906024016132c7565b6040805160208101909152600081526040805160208101909152600f5481526112b990612da3565b60006126356017548360020154612ca690919063ffffffff16565b6040805160208101909152600080825283516140ca90670de0b6b3a7640000612c93565b83519091506000906140dd90839061401d565b84519091506000906140f0908490614512565b9050801561411c5760408051602081019091528061410f846001612ca6565b81525093505050506117c3565b60405180602001604052808381525093505050506117c3565b6040805160208101909152600382015481526000906126359061415790612da3565b604080516020810190915284548152613afa565b60408051602081019091526000815261418582600061451e565b614198576141938383613080565b612c9f565b612c9f6000612bfd565b600b548015612bfa5760006141b5613431565b60075490915060006141c5613475565b6040516353b5923960e01b81529091506001600160a01b038416906353b59239906141f890859088908690600401614f62565b602060405180830381600087803b15801561421257600080fd5b505af1925050508015614242575060408051601f3d908101601f1916820190925261423f91810190614abd565b60015b6143035760405163a9904f9b60e01b81526000906001600160a01b0385169063a9904f9b9061427b90309087908a908890600401614e59565b6101806040518083038186803b15801561429457600080fd5b505afa1580156142a8573d6000803e3d6000fd5b505050506040513d601f19601f820116820180604052508101906142cc9190614b78565b60208101519091506001600160a01b03161515806142f2575080516001600160a01b0316155b156142fd576000600b555b50612f39565b60095480861061447f57604080516020810190915282905260068290556009869055600061433081612bfd565b90506000866001600160a01b031663a9904f9b30888b896040518563ffffffff1660e01b81526004016143669493929190614e59565b6101806040518083038186803b15801561437f57600080fd5b505afa158015614393573d6000803e3d6000fd5b505050506040513d601f19601f820116820180604052508101906143b79190614b78565b60208101519091506001600160a01b0316614435576143f66143d98985613425565b6143f06143e4613395565b602001516108166134c5565b90614536565b9150614403826000612c32565b1561443557614419826144146134c5565b613896565b80518251600254614435926001600160a01b0390911691612e9e565b60095460065483516040517fee568d08fdf25d8d2f01948f7ba3dc157176924ef7312d148584409333f0d8cd9261447492908252602082015260400190565b60405180910390a250505b50506000600b5550505050565b60408051602081019091526000815260006144a7600161455e565b905060006144be6144b78761458b565b86906145f5565b905060006144cc838361461d565b905060006144eb6144e6836144e1600061455e565b614647565b614665565b90506144f78682612d66565b98975050505050505050565b60606139e784846000856146d3565b6000612c9f82846151bb565b600061452982612bfd565b5183511115905092915050565b604080516020810190915260008152604080516020810190915283518190612c739085612c93565b604080516020810190915260008152604080516020810190915280612c2a84670de0b6b3a76400006147fb565b6000600160ff1b82106145f15760405162461bcd60e51b815260206004820152602860248201527f53616665436173743a2076616c756520646f65736e27742066697420696e2061604482015267371034b73a191a9b60c11b6064820152608401610ca8565b5090565b604080516020810190915260008152604080516020810190915283518190612c7390856147fb565b6040805160208101909152600081526040805160208101909152825184518291612c739190614807565b6040805160208101909152600081528151835113612e155781612c9f565b6040805160208101909152600081528151600013156146c05760405162461bcd60e51b8152602060048201526017602482015276139959d85d1a5d99481d985b1d59481c1c9bdd9a591959604a1b6044820152606401610ca8565b5060408051602081019091529051815290565b6060824710156147345760405162461bcd60e51b815260206004820152602660248201527f416464726573733a20696e73756666696369656e742062616c616e636520666f6044820152651c8818d85b1b60d21b6064820152608401610ca8565b843b6147825760405162461bcd60e51b815260206004820152601d60248201527f416464726573733a2063616c6c20746f206e6f6e2d636f6e74726163740000006044820152606401610ca8565b600080866001600160a01b0316858760405161479e9190614d80565b60006040518083038185875af1925050503d80600081146147db576040519150601f19603f3d011682016040523d82523d6000602084013e6147e0565b606091505b50915091506147f0828286614813565b979650505050505050565b6000612c9f82846150d6565b6000612c9f8284615069565b60608315614822575081612c9f565b8251156148325782518084602001fd5b8160405162461bcd60e51b8152600401610ca89190614fed565b6040805160e081018252600060c082018181528252825160208082018552828252808401919091528351808201855282815283850152835180820185528281526060840152835180820185528281526080840152835190810190935282529060a082015290565b6040518060c00160405280600081526020016148db6040518060200160405280600081525090565b81526020016148f66040518060200160405280600081525090565b81526020016149116040518060200160405280600081525090565b815260200161492c6040518060200160405280600081525090565b8152602001600081525090565b8051612638816151fb565b8051801515811461263857600080fd5b600060208284031215614965578081fd5b61496d615000565b9151825250919050565b600060208284031215611ec0578081fd5b600060208284031215614999578081fd5b6149a1615000565b9135825250919050565b6000602082840312156149bc578081fd5b8135612c9f816151fb565b6000602082840312156149d8578081fd5b8151612c9f816151fb565b600080600080600060a086880312156149fa578081fd5b8535614a05816151fb565b9450614a148760208801614977565b9350614a238760408801614977565b9250614a328760608801614977565b949793965091946080013592915050565b60008060408385031215614a55578182fd5b8235614a60816151fb565b9150614a6f8460208501614988565b90509250929050565b60008060408385031215614a8a578182fd5b8235614a95816151fb565b946020939093013593505050565b600060208284031215614ab4578081fd5b612c9f82614944565b600060208284031215614ace578081fd5b5051919050565b600060c08284031215614ae6578081fd5b60405160c0810181811067ffffffffffffffff82111715614b1557634e487b7160e01b83526041600452602483fd5b60405282518152614b298460208501614954565b6020820152614b3b8460408501614954565b6040820152614b4d8460608501614954565b6060820152614b5f8460808501614954565b608082015260a083015160a08201528091505092915050565b60006101808284031215614b8a578081fd5b614b92615037565b614b9b83614939565b8152614ba960208401614939565b6020820152614bba60408401614939565b6040820152614bcb60608401614944565b6060820152614bdc60808401614944565b608082015260a0838101519082015260c0808401519082015260e08084015190820152610100808401519082015261012080840151908201526101408084015190820152610160928301519281019290925250919050565b6000808284036040811215614c47578283fd5b6020811215614c54578283fd5b50614c5d615000565b833581529460209093013593505050565b600060208284031215614c7f578081fd5b612c9f8383614988565b600060208284031215614c9a578081fd5b612c9f8383614954565b60008060408385031215614cb6578182fd5b614a608484614988565b60008060408385031215614cd2578182fd5b614cdc8484614954565b9150614a6f8460208501614954565b600060208284031215614cfc578081fd5b5035919050565b60008060408385031215614d15578182fd5b823591506020830135614d27816151fb565b809150509250929050565b60008151808452614d4a81602086016020860161518f565b601f01601f19169290920160200192915050565b60058110614d7c57634e487b7160e01b600052602160045260246000fd5b9052565b60008251614d9281846020870161518f565b9190910192915050565b6001600160a01b03878116825286166020820152604081018590526060810184905260c060808201819052600090614dd690830185614d32565b90508260a0830152979650505050505050565b6001600160a01b038c811682528b81166020830152610160820190614e11604084018d614d5e565b606083019a909a5297516080820152955160a0870152935160c0860152915160e085015290941661010083015292516101208201529151610140909201919091529392505050565b60018060a01b0385168152836020820152826040820152608060608201526000614e866080830184614d32565b9695505050505050565b602080825282518282018190526000919060409081850190868401855b82811015614f5557815180516001600160a01b03908116865287820151168786015285810151614edf87870182614d5e565b5060608181015190860152608080820151519086015260a080820151519086015260c080820151519086015260e0808201515190860152610100808201516001600160a01b0316908601526101208082015151908601526101409081015151908501526101609093019290850190600101614ead565b5091979650505050505050565b838152826020820152606060408201526000612e956060830184614d32565b85815284602082015260a060408201526000614fa060a0830186614d32565b6001600160a01b0394909416606083015250608001529392505050565b848152836020820152608060408201526000614fdc6080830185614d32565b905082606083015295945050505050565b602081526000612c9f6020830184614d32565b6040516020810167ffffffffffffffff8111828210171561503157634e487b7160e01b600052604160045260246000fd5b60405290565b604051610180810167ffffffffffffffff8111828210171561503157634e487b7160e01b600052604160045260246000fd5b600080821280156001600160ff1b038490038513161561508b5761508b6151cf565b600160ff1b83900384128116156150a4576150a46151cf565b50500190565b600082198211156150bd576150bd6151cf565b500190565b6000826150d1576150d16151e5565b500490565b60006001600160ff1b03818413828413808216868404861116156150fc576150fc6151cf565b600160ff1b8487128281168783058912161561511a5761511a6151cf565b858712925087820587128484161615615135576151356151cf565b8785058712818416161561514b5761514b6151cf565b505050929093029392505050565b6000816000190483118215151615615173576151736151cf565b500290565b60008282101561518a5761518a6151cf565b500390565b60005b838110156151aa578181015183820152602001615192565b83811115612f395750506000910152565b6000826151ca576151ca6151e5565b500690565b634e487b7160e01b600052601160045260246000fd5b634e487b7160e01b600052601260045260246000fd5b6001600160a01b0381168114612bfa57600080fdfea26469706673582212207d38099395723a43493edfce12b70fa9c479812b302e969a6344b259f2e43a1e64736f6c63430008040033",
  "immutableReferences": {},
  "source": "// SPDX-License-Identifier: AGPL-3.0-only\npragma solidity ^0.8.0;\npragma abicoder v2;\n\nimport \"./PerpetualLiquidatable.sol\";\n\n/**\n * @title Perpetual Multiparty Contract.\n * @notice Convenient wrapper for Liquidatable.\n */\ncontract Perpetual is PerpetualLiquidatable {\n    /**\n     * @notice Constructs the Perpetual contract.\n     * @param params struct to define input parameters for construction of Liquidatable. Some params\n     * are fed directly into the PositionManager's constructor within the inheritance tree.\n     */\n    constructor(ConstructorParams memory params)\n        PerpetualLiquidatable(params)\n    // Note: since there is no logic here, there is no need to add a re-entrancy guard.\n    {\n\n    }\n}\n",
  "sourcePath": "/home/kamto/code/protocol/packages/core/contracts/financial-templates/perpetual-multiparty/Perpetual.sol",
  "compiler": {
    "name": "solc",
    "version": "0.8.4+commit.c7e474f2.Emscripten.clang"
  },
  "schemaVersion": "3.3.4",
  "updatedAt": "2021-05-07T15:46:50.286Z",
  "devdoc": {
    "kind": "dev",
    "methods": {
      "constructor": {
        "params": {
          "params": "struct to define input parameters for construction of Liquidatable. Some params are fed directly into the PositionManager's constructor within the inheritance tree."
        }
      },
      "create((uint256),(uint256))": {
        "details": "This contract must have the Minter role for the `tokenCurrency`.Reverts if minting these tokens would put the position's collateralization ratio below the global collateralization ratio. This contract must be approved to spend at least `collateralAmount` of `collateralCurrency`.",
        "params": {
          "collateralAmount": "is the number of collateral tokens to collateralize the position with",
          "numTokens": "is the number of tokens to mint from the position."
        }
      },
      "createLiquidation(address,(uint256),(uint256),(uint256),uint256)": {
        "details": "This method generates an ID that will uniquely identify liquidation for the sponsor. This contract must be approved to spend at least `tokensLiquidated` of `tokenCurrency` and at least `finalFeeBond` of `collateralCurrency`.This contract must have the Burner role for the `tokenCurrency`.",
        "params": {
          "deadline": "abort the liquidation if the transaction is mined after this timestamp.",
          "maxCollateralPerToken": "abort the liquidation if the position's collateral per token exceeds this value.",
          "maxTokensToLiquidate": "max number of tokens to liquidate.",
          "minCollateralPerToken": "abort the liquidation if the position's collateral per token is below this value.",
          "sponsor": "address of the sponsor to liquidate."
        },
        "returns": {
          "finalFeeBond": "amount of collateral to be posted by liquidator and returned if not disputed successfully.",
          "liquidationId": "ID of the newly created liquidation.",
          "tokensLiquidated": "amount of synthetic tokens removed and liquidated from the `sponsor`'s position."
        }
      },
      "deposit((uint256))": {
        "details": "Increases the collateralization level of a position after creation. This contract must be approved to spend at least `collateralAmount` of `collateralCurrency`.",
        "params": {
          "collateralAmount": "total amount of collateral tokens to be sent to the sponsor's position."
        }
      },
      "depositTo(address,(uint256))": {
        "details": "Increases the collateralization level of a position after creation. This contract must be approved to spend at least `collateralAmount` of `collateralCurrency`.",
        "params": {
          "collateralAmount": "total amount of collateral tokens to be sent to the sponsor's position.",
          "sponsor": "the sponsor to credit the deposit to."
        }
      },
      "dispute(uint256,address)": {
        "details": "Can only dispute a liquidation before the liquidation expires and if there are no other pending disputes. This contract must be approved to spend at least the dispute bond amount of `collateralCurrency`. This dispute bond amount is calculated from `disputeBondPercentage` times the collateral in the liquidation.",
        "params": {
          "liquidationId": "of the disputed liquidation.",
          "sponsor": "the address of the sponsor whose liquidation is being disputed."
        },
        "returns": {
          "totalPaid": "amount of collateral charged to disputer (i.e. final fee bond + dispute bond)."
        }
      },
      "emergencyShutdown()": {
        "details": "Only the governor can call this function as they are permissioned within the `FinancialContractAdmin`. Upon emergency shutdown, the contract settlement time is set to the shutdown time. This enables withdrawal to occur via the `settleEmergencyShutdown` function."
      },
      "getCollateral(address)": {
        "details": "This is necessary because the struct returned by the positions() method shows rawCollateral, which isn't a user-readable value.This method accounts for pending regular fees that have not yet been withdrawn from this contract, for example if the `lastPaymentTime != currentTime`.",
        "params": {
          "sponsor": "address whose collateral amount is retrieved."
        },
        "returns": {
          "collateralAmount": "amount of collateral within a sponsors position."
        }
      },
      "getCurrentTime()": {
        "returns": {
          "_0": "uint for the current Testable timestamp."
        }
      },
      "getLiquidations(address)": {
        "params": {
          "sponsor": "address of the position sponsor."
        },
        "returns": {
          "liquidationData": "array of all liquidation information for the given sponsor address."
        }
      },
      "getOutstandingRegularFees(uint256)": {
        "details": "This returns 0 and exit early if there is no pfc, fees were already paid during the current block, or the fee rate is 0.",
        "returns": {
          "latePenalty": "outstanding unpaid late fee for being late in previous fee payments.",
          "regularFee": "outstanding unpaid regular fee.",
          "totalPaid": "Amount of collateral that the contract paid (sum of the amount paid to the Store and caller)."
        }
      },
      "gulp()": {
        "details": "Multiplying the `cumulativeFeeMultiplier` by the ratio of non-PfC-collateral :: PfC-collateral effectively pays all sponsors a pro-rata portion of the excess collateral.This will revert if PfC is 0 and this contract's collateral balance > 0."
      },
      "payRegularFees()": {
        "details": "These must be paid periodically for the life of the contract. If the contract has not paid its regular fee in a week or more then a late penalty is applied which is sent to the caller. If the amount of fees owed are greater than the pfc, then this will pay as much as possible from the available collateral. An event is only fired if the fees charged are greater than 0.",
        "returns": {
          "_0": "totalPaid Amount of collateral that the contract paid (sum of the amount paid to the Store and caller). This returns 0 and exit early if there is no pfc, fees were already paid during the current block, or the fee rate is 0."
        }
      },
      "pfc()": {
        "details": "This is equivalent to the collateral pool available from which to pay fees. Therefore, derived contracts are expected to implement this so that pay-fee methods can correctly compute the owed fees as a % of PfC.",
        "returns": {
          "_0": "pfc value for equal to the current profit from corruption denominated in collateral currency."
        }
      },
      "proposeFundingRate((int256),uint256)": {
        "params": {
          "rate": "funding rate being proposed.",
          "timestamp": "time at which the funding rate was computed."
        }
      },
      "redeem((uint256))": {
        "details": "Can only be called by a token sponsor. Might not redeem the full proportional amount of collateral in order to account for precision loss. This contract must be approved to spend at least `numTokens` of `tokenCurrency`.This contract must have the Burner role for the `tokenCurrency`.",
        "params": {
          "numTokens": "is the number of tokens to be burnt for a commensurate amount of collateral."
        },
        "returns": {
          "amountWithdrawn": "The actual amount of collateral withdrawn."
        }
      },
      "remargin()": {
        "details": "This is supposed to be implemented by any contract that inherits `AdministrateeInterface` and callable only by the Governor contract. This method is therefore minimally implemented in this contract and does nothing."
      },
      "repay((uint256))": {
        "details": "Can only be called by token sponsor. This contract must be approved to spend `numTokens` of `tokenCurrency`.This contract must have the Burner role for the `tokenCurrency`.",
        "params": {
          "numTokens": "is the number of tokens to be burnt from the sponsor's debt position."
        }
      },
      "requestWithdrawal((uint256))": {
        "details": "The request will be pending for `withdrawalLiveness`, during which the position can be liquidated.",
        "params": {
          "collateralAmount": "the amount of collateral requested to withdraw"
        }
      },
      "setCurrentTime(uint256)": {
        "details": "Will revert if not running in test mode.",
        "params": {
          "time": "timestamp to set current Testable time to."
        }
      },
      "settleEmergencyShutdown()": {
        "details": "This burns all tokens from the caller of `tokenCurrency` and sends back the resolved settlement value of `collateralCurrency`. Might not redeem the full proportional amount of collateral in order to account for precision loss. This contract must be approved to spend `tokenCurrency` at least up to the caller's full balance.This contract must have the Burner role for the `tokenCurrency`.Note that this function does not call the updateFundingRate modifier to update the funding rate as this function is only called after an emergency shutdown & there should be no funding rate updates after the shutdown.",
        "returns": {
          "amountWithdrawn": "The actual amount of collateral withdrawn."
        }
      },
      "totalPositionCollateral()": {
        "returns": {
          "totalCollateral": "amount of all collateral within the position manager."
        }
      },
      "withdraw((uint256))": {
        "details": "Reverts if the withdrawal puts this position's collateralization ratio below the global collateralization ratio. In that case, use `requestWithdrawal`. Might not withdraw the full requested amount to account for precision loss.",
        "params": {
          "collateralAmount": "is the amount of collateral to withdraw."
        },
        "returns": {
          "amountWithdrawn": "The actual amount of collateral withdrawn."
        }
      },
      "withdrawLiquidation(uint256,address)": {
        "details": "If the dispute SUCCEEDED: the sponsor, liquidator, and disputer are eligible for payment. If the dispute FAILED: only the liquidator receives payment. This method deletes the liquidation data. This method will revert if rewards have already been dispersed.",
        "params": {
          "liquidationId": "uniquely identifies the sponsor's liquidation.",
          "sponsor": "address of the sponsor associated with the liquidation."
        },
        "returns": {
          "_0": "data about rewards paid out."
        }
      },
      "withdrawPassedRequest()": {
        "details": "Might not withdraw the full requested amount in order to account for precision loss or if the full requested amount exceeds the collateral in the position (due to paying fees).",
        "returns": {
          "amountWithdrawn": "The actual amount of collateral withdrawn."
        }
      }
    },
    "title": "Perpetual Multiparty Contract.",
    "version": 1
  },
  "userdoc": {
    "kind": "user",
    "methods": {
      "applyFundingRate()": {
        "notice": "This method takes 3 distinct actions: 1. Pays out regular fees. 2. If possible, resolves the outstanding funding rate proposal, pulling the result in and paying out the rewards. 3. Applies the prevailing funding rate over the most recent period."
      },
      "cancelWithdrawal()": {
        "notice": "Cancels a pending withdrawal request."
      },
      "constructor": {
        "notice": "Constructs the Perpetual contract."
      },
      "create((uint256),(uint256))": {
        "notice": "Creates tokens by creating a new position or by augmenting an existing position. Pulls `collateralAmount ` into the sponsor's position and mints `numTokens` of `tokenCurrency`."
      },
      "createLiquidation(address,(uint256),(uint256),(uint256),uint256)": {
        "notice": "Liquidates the sponsor's position if the caller has enough synthetic tokens to retire the position's outstanding tokens. Liquidations above a minimum size also reset an ongoing \"slow withdrawal\"'s liveness."
      },
      "deposit((uint256))": {
        "notice": "Transfers `collateralAmount` of `collateralCurrency` into the caller's position."
      },
      "depositTo(address,(uint256))": {
        "notice": "Transfers `collateralAmount` of `collateralCurrency` into the specified sponsor's position."
      },
      "dispute(uint256,address)": {
        "notice": "Disputes a liquidation, if the caller has enough collateral to post a dispute bond and pay a fixed final fee charged on each price request."
      },
      "emergencyShutdown()": {
        "notice": "Premature contract settlement under emergency circumstances."
      },
      "getCollateral(address)": {
        "notice": "Accessor method for a sponsor's collateral."
      },
      "getCurrentTime()": {
        "notice": "Gets the current time. Will return the last time set in `setCurrentTime` if running in test mode. Otherwise, it will return the block timestamp."
      },
      "getLiquidations(address)": {
        "notice": "Gets all liquidation information for a given sponsor address."
      },
      "getOutstandingRegularFees(uint256)": {
        "notice": "Fetch any regular fees that the contract has pending but has not yet paid. If the fees to be paid are more than the total collateral within the contract then the totalPaid returned is full contract collateral amount."
      },
      "gulp()": {
        "notice": "Removes excess collateral balance not counted in the PfC by distributing it out pro-rata to all sponsors."
      },
      "payRegularFees()": {
        "notice": "Pays UMA DVM regular fees (as a % of the collateral pool) to the Store contract."
      },
      "pfc()": {
        "notice": "Gets the current profit from corruption for this contract in terms of the collateral currency."
      },
      "proposeFundingRate((int256),uint256)": {
        "notice": "Proposes a new funding rate. Proposer receives a reward if correct."
      },
      "redeem((uint256))": {
        "notice": "Burns `numTokens` of `tokenCurrency` and sends back the proportional amount of `collateralCurrency`."
      },
      "remargin()": {
        "notice": "Theoretically supposed to pay fees and move money between margin accounts to make sure they reflect the NAV of the contract. However, this functionality doesn't apply to this contract."
      },
      "repay((uint256))": {
        "notice": "Burns `numTokens` of `tokenCurrency` to decrease sponsors position size, without sending back `collateralCurrency`. This is done by a sponsor to increase position CR. Resulting size is bounded by minSponsorTokens."
      },
      "requestWithdrawal((uint256))": {
        "notice": "Starts a withdrawal request that, if passed, allows the sponsor to withdraw from their position."
      },
      "setCurrentTime(uint256)": {
        "notice": "Sets the current time."
      },
      "settleEmergencyShutdown()": {
        "notice": "If the contract is emergency shutdown then all token holders and sponsors can redeem their tokens or remaining collateral for underlying at the prevailing price defined by a DVM vote."
      },
      "totalPositionCollateral()": {
        "notice": "Accessor method for the total collateral stored within the PerpetualPositionManager."
      },
      "withdraw((uint256))": {
        "notice": "Transfers `collateralAmount` of `collateralCurrency` from the sponsor's position to the sponsor."
      },
      "withdrawLiquidation(uint256,address)": {
        "notice": "After a dispute has settled or after a non-disputed liquidation has expired, anyone can call this method to disperse payments to the sponsor, liquidator, and disputer."
      },
      "withdrawPassedRequest()": {
        "notice": "After a passed withdrawal request (i.e., by a call to `requestWithdrawal` and waiting `withdrawalLiveness`), withdraws `positionData.withdrawalRequestAmount` of collateral currency."
      }
    },
    "notice": "Convenient wrapper for Liquidatable.",
    "version": 1
  }
}