{
  "contractName": "PreExpirationIdentifierTransformationFinancialProductLibrary",
  "abi": [
    {
      "inputs": [
        {
          "components": [
            {
              "internalType": "uint256",
              "name": "rawValue",
              "type": "uint256"
            }
          ],
          "internalType": "struct FixedPoint.Unsigned",
          "name": "oraclePrice",
          "type": "tuple"
        },
        {
          "components": [
            {
              "internalType": "uint256",
              "name": "rawValue",
              "type": "uint256"
            }
          ],
          "internalType": "struct FixedPoint.Unsigned",
          "name": "collateralRequirement",
          "type": "tuple"
        }
      ],
      "name": "transformCollateralRequirement",
      "outputs": [
        {
          "components": [
            {
              "internalType": "uint256",
              "name": "rawValue",
              "type": "uint256"
            }
          ],
          "internalType": "struct FixedPoint.Unsigned",
          "name": "",
          "type": "tuple"
        }
      ],
      "stateMutability": "view",
      "type": "function"
    },
    {
      "inputs": [
        {
          "components": [
            {
              "internalType": "uint256",
              "name": "rawValue",
              "type": "uint256"
            }
          ],
          "internalType": "struct FixedPoint.Unsigned",
          "name": "oraclePrice",
          "type": "tuple"
        },
        {
          "internalType": "uint256",
          "name": "requestTime",
          "type": "uint256"
        }
      ],
      "name": "transformPrice",
      "outputs": [
        {
          "components": [
            {
              "internalType": "uint256",
              "name": "rawValue",
              "type": "uint256"
            }
          ],
          "internalType": "struct FixedPoint.Unsigned",
          "name": "",
          "type": "tuple"
        }
      ],
      "stateMutability": "view",
      "type": "function"
    },
    {
      "inputs": [
        {
          "internalType": "address",
          "name": "financialProduct",
          "type": "address"
        },
        {
          "internalType": "bytes32",
          "name": "transformedIdentifier",
          "type": "bytes32"
        }
      ],
      "name": "setFinancialProductTransformedIdentifier",
      "outputs": [],
      "stateMutability": "nonpayable",
      "type": "function"
    },
    {
      "inputs": [
        {
          "internalType": "address",
          "name": "financialProduct",
          "type": "address"
        }
      ],
      "name": "getTransformedIdentifierForFinancialProduct",
      "outputs": [
        {
          "internalType": "bytes32",
          "name": "",
          "type": "bytes32"
        }
      ],
      "stateMutability": "view",
      "type": "function"
    },
    {
      "inputs": [
        {
          "internalType": "bytes32",
          "name": "identifier",
          "type": "bytes32"
        },
        {
          "internalType": "uint256",
          "name": "requestTime",
          "type": "uint256"
        }
      ],
      "name": "transformPriceIdentifier",
      "outputs": [
        {
          "internalType": "bytes32",
          "name": "",
          "type": "bytes32"
        }
      ],
      "stateMutability": "view",
      "type": "function"
    }
  ],
  "bytecode": "0x608060405234801561001057600080fd5b506000805460ff1916600117905561059f8061002d6000396000f3fe608060405234801561001057600080fd5b50600436106100575760003560e01c80630ff49b901461005c57806316bed30e146100835780632a31263714610098578063bc2ac858146100ba578063f19371b7146100db575b600080fd5b61006f61006a366004610535565b6100ee565b604051905181526020015b60405180910390f35b6100966100913660046104b7565b610105565b005b61006f6100a6366004610501565b604080516020810190915260009052919050565b6100cd6100c8366004610496565b6102b9565b60405190815260200161007a565b6100cd6100e93660046104e0565b6102e3565b604080516020810190915260009052815b92915050565b61010d6103de565b61011c6000805460ff19169055565b8061016e5760405162461bcd60e51b815260206004820181905260248201527f43616e742073657420746f20656d707479207472616e73666f726d6174696f6e60448201526064015b60405180910390fd5b6001600160a01b038216600090815260016020526040902054156101d45760405162461bcd60e51b815260206004820152601a60248201527f5472616e73666f726d6174696f6e20616c7265616479207365740000000000006044820152606401610165565b816001600160a01b0316639f43ddd26040518163ffffffff1660e01b815260040160206040518083038186803b15801561020d57600080fd5b505afa158015610221573d6000803e3d6000fd5b505050506040513d601f19601f820116820180604052508101906102459190610551565b6102885760405162461bcd60e51b8152602060048201526014602482015273125b9d985b1a59081153540818dbdb9d1c9858dd60621b6044820152606401610165565b6001600160a01b03821660009081526001602052604090208190556102b56000805460ff19166001179055565b5050565b60006102c36103de565b506001600160a01b0381166000908152600160205260409020545b919050565b60006102ed6103de565b336000908152600160205260409020546103495760405162461bcd60e51b815260206004820152601c60248201527f43616c6c657220686173206e6f207472616e73666f726d6174696f6e000000006044820152606401610165565b336001600160a01b0316639f43ddd26040518163ffffffff1660e01b815260040160206040518083038186803b15801561038257600080fd5b505afa158015610396573d6000803e3d6000fd5b505050506040513d601f19601f820116820180604052508101906103ba9190610551565b8210156103d75750336000908152600160205260409020546100ff565b50816100ff565b60005460ff166104305760405162461bcd60e51b815260206004820152601f60248201527f5265656e7472616e637947756172643a207265656e7472616e742063616c6c006044820152606401610165565b565b80356001600160a01b03811681146102de57600080fd5b60006020828403121561045a578081fd5b6040516020810181811067ffffffffffffffff8211171561048957634e487b7160e01b83526041600452602483fd5b6040529135825250919050565b6000602082840312156104a7578081fd5b6104b082610432565b9392505050565b600080604083850312156104c9578081fd5b6104d283610432565b946020939093013593505050565b600080604083850312156104f2578182fd5b50508035926020909101359150565b60008060408385031215610513578182fd5b61051d8484610449565b915061052c8460208501610449565b90509250929050565b60008060408385031215610547578182fd5b6104d28484610449565b600060208284031215610562578081fd5b505191905056fea2646970667358221220c46b2ebdfeb7f676e57669b087f0d15f092b96ae7dc84e82b73bd056b4912f7a64736f6c63430008040033",
  "immutableReferences": {},
  "source": "// SPDX-License-Identifier: AGPL-3.0-only\npragma solidity ^0.8.0;\npragma abicoder v2;\nimport \"./FinancialProductLibrary.sol\";\nimport \"../../../common/implementation/Lockable.sol\";\n\n/**\n * @title Pre-Expiration Identifier Transformation Financial Product Library\n * @notice Adds custom identifier transformation to enable a financial contract to use two different identifiers, depending\n * on when a price request is made. If the request is made before expiration then a transformation is made to the identifier\n * & if it is at or after expiration then the original identifier is returned. This library enables self referential\n * TWAP identifier to be used on synthetics pre-expiration, in conjunction with a separate identifier at expiration.\n */\ncontract PreExpirationIdentifierTransformationFinancialProductLibrary is FinancialProductLibrary, Lockable {\n    mapping(address => bytes32) financialProductTransformedIdentifiers;\n\n    /**\n     * @notice Enables the deployer of the library to set the transformed identifier for an associated financial product.\n     * @param financialProduct address of the financial product.\n     * @param transformedIdentifier the identifier for the financial product to be used if the contract is pre expiration.\n     * @dev Note: a) Any address can set identifier transformations b) The identifier can't be set to blank. c) A\n     * transformed price can only be set once to prevent the deployer from changing it after the fact. d) financialProduct\n     * must expose an expirationTimestamp method.\n     */\n    function setFinancialProductTransformedIdentifier(address financialProduct, bytes32 transformedIdentifier)\n        public\n        nonReentrant()\n    {\n        require(transformedIdentifier != \"\", \"Cant set to empty transformation\");\n        require(financialProductTransformedIdentifiers[financialProduct] == \"\", \"Transformation already set\");\n        require(ExpiringContractInterface(financialProduct).expirationTimestamp() != 0, \"Invalid EMP contract\");\n        financialProductTransformedIdentifiers[financialProduct] = transformedIdentifier;\n    }\n\n    /**\n     * @notice Returns the transformed identifier associated with a given financial product address.\n     * @param financialProduct address of the financial product.\n     * @return transformed identifier for the associated financial product.\n     */\n    function getTransformedIdentifierForFinancialProduct(address financialProduct)\n        public\n        view\n        nonReentrantView()\n        returns (bytes32)\n    {\n        return financialProductTransformedIdentifiers[financialProduct];\n    }\n\n    /**\n     * @notice Returns a transformed price identifier if the contract is pre-expiration and no transformation if post.\n     * @param identifier input price identifier to be transformed.\n     * @param requestTime timestamp the identifier is to be used at.\n     * @return transformedPriceIdentifier the input price identifier with the transformation logic applied to it.\n     */\n    function transformPriceIdentifier(bytes32 identifier, uint256 requestTime)\n        public\n        view\n        override\n        nonReentrantView()\n        returns (bytes32)\n    {\n        require(financialProductTransformedIdentifiers[msg.sender] != \"\", \"Caller has no transformation\");\n        // If the request time is before contract expiration then return the transformed identifier. Else, return the\n        // original price identifier.\n        if (requestTime < ExpiringContractInterface(msg.sender).expirationTimestamp()) {\n            return financialProductTransformedIdentifiers[msg.sender];\n        } else {\n            return identifier;\n        }\n    }\n}\n",
  "sourcePath": "/home/kamto/code/protocol/packages/core/contracts/financial-templates/common/financial-product-libraries/PreExpirationIdentifierTransformationFinancialProductLibrary.sol",
  "compiler": {
    "name": "solc",
    "version": "0.8.4+commit.c7e474f2.Emscripten.clang"
  },
  "schemaVersion": "3.3.4",
  "updatedAt": "2021-05-07T15:46:50.207Z",
  "devdoc": {
    "kind": "dev",
    "methods": {
      "getTransformedIdentifierForFinancialProduct(address)": {
        "params": {
          "financialProduct": "address of the financial product."
        },
        "returns": {
          "_0": "transformed identifier for the associated financial product."
        }
      },
      "setFinancialProductTransformedIdentifier(address,bytes32)": {
        "details": "Note: a) Any address can set identifier transformations b) The identifier can't be set to blank. c) A transformed price can only be set once to prevent the deployer from changing it after the fact. d) financialProduct must expose an expirationTimestamp method.",
        "params": {
          "financialProduct": "address of the financial product.",
          "transformedIdentifier": "the identifier for the financial product to be used if the contract is pre expiration."
        }
      },
      "transformCollateralRequirement((uint256),(uint256))": {
        "params": {
          "collateralRequirement": "input collateral requirement to be transformed.",
          "oraclePrice": "input price returned by DVM used to transform the collateral requirement."
        },
        "returns": {
          "_0": "transformedCollateralRequirement input collateral requirement with the transformation function applied."
        }
      },
      "transformPrice((uint256),uint256)": {
        "params": {
          "oraclePrice": "input price returned by the DVM to be transformed.",
          "requestTime": "timestamp the oraclePrice was requested at."
        },
        "returns": {
          "_0": "transformedOraclePrice input oraclePrice with the transformation function applied."
        }
      },
      "transformPriceIdentifier(bytes32,uint256)": {
        "params": {
          "identifier": "input price identifier to be transformed.",
          "requestTime": "timestamp the identifier is to be used at."
        },
        "returns": {
          "_0": "transformedPriceIdentifier the input price identifier with the transformation logic applied to it."
        }
      }
    },
    "title": "Pre-Expiration Identifier Transformation Financial Product Library",
    "version": 1
  },
  "userdoc": {
    "kind": "user",
    "methods": {
      "getTransformedIdentifierForFinancialProduct(address)": {
        "notice": "Returns the transformed identifier associated with a given financial product address."
      },
      "setFinancialProductTransformedIdentifier(address,bytes32)": {
        "notice": "Enables the deployer of the library to set the transformed identifier for an associated financial product."
      },
      "transformCollateralRequirement((uint256),(uint256))": {
        "notice": "Transforms a given collateral requirement using the financial product libraries transformation logic."
      },
      "transformPrice((uint256),uint256)": {
        "notice": "Transforms a given oracle price using the financial product libraries transformation logic."
      },
      "transformPriceIdentifier(bytes32,uint256)": {
        "notice": "Returns a transformed price identifier if the contract is pre-expiration and no transformation if post."
      }
    },
    "notice": "Adds custom identifier transformation to enable a financial contract to use two different identifiers, depending on when a price request is made. If the request is made before expiration then a transformation is made to the identifier & if it is at or after expiration then the original identifier is returned. This library enables self referential TWAP identifier to be used on synthetics pre-expiration, in conjunction with a separate identifier at expiration.",
    "version": 1
  }
}