{
  "contractName": "ReserveCurrencyLiquidator",
  "abi": [
    {
      "inputs": [
        {
          "internalType": "address",
          "name": "uniswapRouter",
          "type": "address"
        },
        {
          "internalType": "address",
          "name": "financialContract",
          "type": "address"
        },
        {
          "internalType": "address",
          "name": "reserveCurrency",
          "type": "address"
        },
        {
          "internalType": "address",
          "name": "liquidatedSponsor",
          "type": "address"
        },
        {
          "components": [
            {
              "internalType": "uint256",
              "name": "rawValue",
              "type": "uint256"
            }
          ],
          "internalType": "struct FixedPoint.Unsigned",
          "name": "maxReserveTokenSpent",
          "type": "tuple"
        },
        {
          "components": [
            {
              "internalType": "uint256",
              "name": "rawValue",
              "type": "uint256"
            }
          ],
          "internalType": "struct FixedPoint.Unsigned",
          "name": "minCollateralPerTokenLiquidated",
          "type": "tuple"
        },
        {
          "components": [
            {
              "internalType": "uint256",
              "name": "rawValue",
              "type": "uint256"
            }
          ],
          "internalType": "struct FixedPoint.Unsigned",
          "name": "maxCollateralPerTokenLiquidated",
          "type": "tuple"
        },
        {
          "components": [
            {
              "internalType": "uint256",
              "name": "rawValue",
              "type": "uint256"
            }
          ],
          "internalType": "struct FixedPoint.Unsigned",
          "name": "maxTokensToLiquidate",
          "type": "tuple"
        },
        {
          "internalType": "uint256",
          "name": "deadline",
          "type": "uint256"
        }
      ],
      "name": "swapMintLiquidate",
      "outputs": [],
      "stateMutability": "nonpayable",
      "type": "function"
    }
  ],
  "bytecode": "0x608060405234801561001057600080fd5b5061119b806100206000396000f3fe608060405234801561001057600080fd5b506004361061002b5760003560e01c806334e282ab14610030575b600080fd5b61004361003e366004610d96565b610045565b005b87600061006861005a36869003860186610f0a565b6100638461069c565b6107aa565b9050600061015b836001600160a01b0316630c9229ca6040518163ffffffff1660e01b8152600401602060405180830381600087803b1580156100aa57600080fd5b505af11580156100be573d6000803e3d6000fd5b505050506040513d601f19601f820116820180604052508101906100e29190610f4b565b846001600160a01b03166381a10ae16040518163ffffffff1660e01b8152600401602060405180830381600087803b15801561011d57600080fd5b505af1158015610131573d6000803e3d6000fd5b505050506040513d601f19601f820116820180604052508101906101559190610f4b565b906107e5565b905060006101698383610874565b905060006101808261017a876108bd565b90610aba565b905060006101918261006388610aed565b905061019e816000610b42565b801561022e5750856001600160a01b0316630de15fd96040518163ffffffff1660e01b8152600401602060405180830381600087803b1580156101e057600080fd5b505af11580156101f4573d6000803e3d6000fd5b505050506040513d601f19601f820116820180604052508101906102189190610d73565b6001600160a01b03168d6001600160a01b031614155b156103f4578e60006002604051908082528060200260200182016040528015610261578160200160208202803683370190505b5090508e8160008151811061028657634e487b7160e01b600052603260045260246000fd5b60200260200101906001600160a01b031690816001600160a01b031681525050876001600160a01b0316630de15fd96040518163ffffffff1660e01b8152600401602060405180830381600087803b1580156102e157600080fd5b505af11580156102f5573d6000803e3d6000fd5b505050506040513d601f19601f820116820180604052508101906103199190610d73565b8160018151811061033a57634e487b7160e01b600052603260045260246000fd5b6001600160a01b039092166020928302919091019091015261035e8f838f35610b59565b816001600160a01b0316638803dbee84600001518f6000013584308e6040518663ffffffff1660e01b815260040161039a959493929190610ff4565b600060405180830381600087803b1580156103b457600080fd5b505af11580156103c8573d6000803e3d6000fd5b505050506040513d6000823e601f3d908101601f191682016040526103f09190810190610e42565b5050505b61040761040087610aed565b5183511190565b156104395761041586610aed565b915061042a610423876108bd565b8390610c8c565b925061043683856107e5565b94505b6104b8866001600160a01b0316630de15fd96040518163ffffffff1660e01b8152600401602060405180830381600087803b15801561047757600080fd5b505af115801561048b573d6000803e3d6000fd5b505050506040513d601f19601f820116820180604052508101906104af9190610d73565b83518890610b59565b6104c3856000610b42565b1561052a576040516335d17cc960e11b815283516004820152855160248201526001600160a01b03871690636ba2f99290604401600060405180830381600087803b15801561051157600080fd5b505af1158015610525573d6000803e3d6000fd5b505050505b600061053b368a90038a018a610f0a565b90506105606105498861069c565b610558368c90038c018c610f0a565b905190511190565b156105715761056e8761069c565b90505b6105f0876001600160a01b0316637048594b6040518163ffffffff1660e01b8152600401602060405180830381600087803b1580156105af57600080fd5b505af11580156105c3573d6000803e3d6000fd5b505050506040513d601f19601f820116820180604052508101906105e79190610d73565b82518990610b59565b6040516304bda9bb60e31b81526001600160a01b038e811660048301528c3560248301528b35604483015282516064830152608482018a90528816906325ed4dd89060a401606060405180830381600087803b15801561064f57600080fd5b505af1158015610663573d6000803e3d6000fd5b505050506040513d601f19601f820116820180604052508101906106879190610f7e565b50505050505050505050505050505050505050565b6040805160208101909152600081526040518060200160405280836001600160a01b0316637048594b6040518163ffffffff1660e01b8152600401602060405180830381600087803b1580156106f157600080fd5b505af1158015610705573d6000803e3d6000fd5b505050506040513d601f19601f820116820180604052508101906107299190610d73565b6040516370a0823160e01b81523060048201526001600160a01b0391909116906370a082319060240160206040518083038186803b15801561076a57600080fd5b505afa15801561077e573d6000803e3d6000fd5b505050506040513d601f19601f820116820180604052508101906107a29190610f66565b905292915050565b6040805160208101909152600081528251825110156107d2576107cd8383610c8c565b6107dc565b6107dc6000610cb6565b90505b92915050565b60408051602081019091526000808252835161080990670de0b6b3a7640000610cdf565b835190915060009061081c908390610ceb565b845190915060009061082f908490610cf7565b9050801561085b5760408051602081019091528061084e846001610d03565b81525093505050506107df565b60405180602001604052808381525093505050506107df565b604080516020810190915260008082528251845161089191610cdf565b905060006108a7670de0b6b3a7640000836110ad565b9050600061082f83670de0b6b3a7640000610cf7565b604080516020810190915260008152816001600160a01b031663b9a3c84c6040518163ffffffff1660e01b8152600401602060405180830381600087803b15801561090757600080fd5b505af115801561091b573d6000803e3d6000fd5b505050506040513d601f19601f8201168201806040525081019061093f9190610d73565b6040516302abf57960e61b81526453746f726560d81b60048201526001600160a01b03919091169063aafd5e409060240160206040518083038186803b15801561098857600080fd5b505afa15801561099c573d6000803e3d6000fd5b505050506040513d601f19601f820116820180604052508101906109c09190610d73565b6001600160a01b0316635b97aadd836001600160a01b0316630de15fd96040518163ffffffff1660e01b8152600401602060405180830381600087803b158015610a0957600080fd5b505af1158015610a1d573d6000803e3d6000fd5b505050506040513d601f19601f82011682018060405250810190610a419190610d73565b6040516001600160e01b031960e084901b1681526001600160a01b039091166004820152602401602060405180830381600087803b158015610a8257600080fd5b505af1158015610a96573d6000803e3d6000fd5b505050506040513d601f19601f820116820180604052508101906107df9190610f4b565b6040805160208101909152600081526040805160208101909152825184518291610ae49190610d03565b90529392505050565b6040805160208101909152600081526040518060200160405280836001600160a01b0316630de15fd96040518163ffffffff1660e01b8152600401602060405180830381600087803b1580156106f157600080fd5b6000610b4d82610cb6565b51835111905092915050565b604080516001600160a01b038481166024830152604480830185905283518084039091018152606490920183526020820180516001600160e01b031663095ea7b360e01b1790529151600092839290871691610bb59190610fbb565b6000604051808303816000865af19150503d8060008114610bf2576040519150601f19603f3d011682016040523d82523d6000602084013e610bf7565b606091505b5091509150818015610c21575080511580610c21575080806020019051810190610c219190610eea565b610c855760405162461bcd60e51b815260206004820152602b60248201527f5472616e7366657248656c7065723a3a73616665417070726f76653a2061707060448201526a1c9bdd994819985a5b195960aa1b606482015260840160405180910390fd5b5050505050565b6040805160208101909152600081526040805160208101909152825184518291610ae49190610d0f565b6040805160208101909152600081526040805160208101909152806107a284670de0b6b3a76400005b60006107dc82846110c1565b60006107dc82846110ad565b60006107dc82846110f7565b60006107dc8284611095565b60006107dc82846110e0565b600060208284031215610d2c578081fd5b50919050565b600060208284031215610d43578081fd5b6040516020810181811067ffffffffffffffff82111715610d6657610d66611137565b6040529151825250919050565b600060208284031215610d84578081fd5b8151610d8f8161114d565b9392505050565b60008060008060008060008060006101208a8c031215610db4578485fd5b8935610dbf8161114d565b985060208a0135610dcf8161114d565b975060408a0135610ddf8161114d565b965060608a0135610def8161114d565b9550610dfe8b60808c01610d1b565b9450610e0d8b60a08c01610d1b565b9350610e1c8b60c08c01610d1b565b9250610e2b8b60e08c01610d1b565b91506101008a013590509295985092959850929598565b60006020808385031215610e54578182fd5b825167ffffffffffffffff80821115610e6b578384fd5b818501915085601f830112610e7e578384fd5b815181811115610e9057610e90611137565b8060051b9150610ea1848301611064565b8181528481019084860184860187018a1015610ebb578788fd5b8795505b83861015610edd578051835260019590950194918601918601610ebf565b5098975050505050505050565b600060208284031215610efb578081fd5b81518015158114610d8f578182fd5b600060208284031215610f1b578081fd5b6040516020810181811067ffffffffffffffff82111715610f3e57610f3e611137565b6040529135825250919050565b600060208284031215610f5c578081fd5b6107dc8383610d32565b600060208284031215610f77578081fd5b5051919050565b600080600060608486031215610f92578283fd5b83519250610fa38560208601610d32565b9150610fb28560408601610d32565b90509250925092565b60008251815b81811015610fdb5760208186018101518583015201610fc1565b81811115610fe95782828501525b509190910192915050565b600060a082018783526020878185015260a0604085015281875180845260c0860191508289019350845b818110156110435784516001600160a01b03168352938301939183019160010161101e565b50506001600160a01b03969096166060850152505050608001529392505050565b604051601f8201601f1916810167ffffffffffffffff8111828210171561108d5761108d611137565b604052919050565b600082198211156110a8576110a861110b565b500190565b6000826110bc576110bc611121565b500490565b60008160001904831182151516156110db576110db61110b565b500290565b6000828210156110f2576110f261110b565b500390565b60008261110657611106611121565b500690565b634e487b7160e01b600052601160045260246000fd5b634e487b7160e01b600052601260045260246000fd5b634e487b7160e01b600052604160045260246000fd5b6001600160a01b038116811461116257600080fd5b5056fea264697066735822122004c10f8416cef557e38e9b28db41f1c0b026d0627cace18155fc92de53d888f864736f6c63430008040033",
  "immutableReferences": {},
  "source": "// SPDX-License-Identifier: AGPL-3.0-only\npragma solidity ^0.8.0;\npragma abicoder v2;\n\nimport \"@openzeppelin/contracts/utils/math/SafeMath.sol\";\nimport \"@openzeppelin/contracts/token/ERC20/IERC20.sol\";\n\nimport \"@uniswap/lib/contracts/libraries/TransferHelper.sol\";\nimport \"@uniswap/v2-periphery/contracts/interfaces/IUniswapV2Router01.sol\";\n\nimport \"../../common/implementation/FixedPoint.sol\";\n\n/**\n * @title ReserveCurrencyLiquidator\n * @notice Helper contract to enable a liquidator to hold one reserver currency and liquidate against any number of\n * financial contracts. Is assumed to be called by a DSProxy which holds reserve currency.\n */\n\ncontract ReserveCurrencyLiquidator {\n    using SafeMath for uint256;\n    using FixedPoint for FixedPoint.Unsigned;\n\n    /**\n     * @notice Swaps required amount of reserve currency to collateral currency which is then used to mint tokens to\n     * liquidate a position within one transaction.\n     * @dev After the liquidation is done the DSProxy that called this method will have an open position AND pending\n     * liquidation within the financial contract. The bot using the DSProxy should withdraw the liquidation once it has\n     * passed liveness. At this point the position can be manually unwound.\n     * @dev Any synthetics & collateral that the DSProxy already has are considered in the amount swapped and minted.\n     * These existing tokens will be used first before any swaps or mints are done.\n     * @dev If there is a token shortfall (either from not enough reserve to buy sufficient collateral or not enough\n     * collateral to begins with or due to slippage) the script will liquidate as much as possible given the reserves.\n     * @param uniswapRouter address of the uniswap router used to facilitate trades.\n     * @param financialContract address of the financial contract on which the liquidation is occurring.\n     * @param reserveCurrency address of the token to swap for collateral. THis is the common currency held by the DSProxy.\n     * @param liquidatedSponsor address of the sponsor to be liquidated.\n     * @param maxReserveTokenSpent maximum number of reserve tokens to spend in the trade. Bounds slippage.\n     * @param minCollateralPerTokenLiquidated abort the liquidation if the position's collateral per token is below this value.\n     * @param maxCollateralPerTokenLiquidated abort the liquidation if the position's collateral per token exceeds this value.\n     * @param maxTokensToLiquidate max number of tokens to liquidate. For a full liquidation this is the full position debt.\n     * @param deadline abort the trade and liquidation if the transaction is mined after this timestamp.\n     **/\n    function swapMintLiquidate(\n        address uniswapRouter,\n        address financialContract,\n        address reserveCurrency,\n        address liquidatedSponsor,\n        FixedPoint.Unsigned calldata maxReserveTokenSpent,\n        FixedPoint.Unsigned calldata minCollateralPerTokenLiquidated,\n        FixedPoint.Unsigned calldata maxCollateralPerTokenLiquidated,\n        FixedPoint.Unsigned calldata maxTokensToLiquidate,\n        uint256 deadline\n    ) public {\n        IFinancialContract fc = IFinancialContract(financialContract);\n\n        // 1. Calculate the token shortfall. This is the synthetics to liquidate minus any synthetics the DSProxy already\n        // has. If this number is negative(balance large than synthetics to liquidate) the return 0 (no shortfall).\n        FixedPoint.Unsigned memory tokenShortfall = subOrZero(maxTokensToLiquidate, getSyntheticBalance(fc));\n\n        // 2. Calculate how much collateral is needed to make up the token shortfall from minting new synthetics.\n        FixedPoint.Unsigned memory gcr = fc.pfc().divCeil(fc.totalTokensOutstanding());\n        FixedPoint.Unsigned memory collateralToMintShortfall = tokenShortfall.mulCeil(gcr);\n\n        // 3. Calculate the total collateral required. This considers the final fee for the given collateral type + any\n        // collateral needed to mint the token short fall.\n\n        FixedPoint.Unsigned memory totalCollateralRequired = getFinalFee(fc).add(collateralToMintShortfall);\n\n        // 4.a. Calculate how much collateral needs to be purchased. If the DSProxy already has some collateral then this\n        // will factor this in. If the DSProxy has more collateral than the total amount required the purchased = 0.\n        FixedPoint.Unsigned memory collateralToBePurchased =\n            subOrZero(totalCollateralRequired, getCollateralBalance(fc));\n\n        // 4.b. If there is some collateral to be purchased, execute a trade on uniswap to meet the shortfall.\n        // Note the path assumes a direct route from the reserve currency to the collateral currency.\n        if (collateralToBePurchased.isGreaterThan(0) && reserveCurrency != fc.collateralCurrency()) {\n            IUniswapV2Router01 router = IUniswapV2Router01(uniswapRouter);\n            address[] memory path = new address[](2);\n            path[0] = reserveCurrency;\n            path[1] = fc.collateralCurrency();\n\n            TransferHelper.safeApprove(reserveCurrency, address(router), maxReserveTokenSpent.rawValue);\n            router.swapTokensForExactTokens(\n                collateralToBePurchased.rawValue,\n                maxReserveTokenSpent.rawValue,\n                path,\n                address(this),\n                deadline\n            );\n        }\n\n        // 4.c. If at this point we were not able to get the required amount of collateral (due to insufficient reserve\n        // or not enough collateral in the contract) the script should try to liquidate as much as it can regardless.\n        // Update the values of total collateral to the current collateral balance and re-compute the tokenShortfall\n        // as the maximum tokens that could be liquidated at the current GCR.\n        if (totalCollateralRequired.isGreaterThan(getCollateralBalance(fc))) {\n            totalCollateralRequired = getCollateralBalance(fc);\n            collateralToMintShortfall = totalCollateralRequired.sub(getFinalFee(fc));\n            tokenShortfall = collateralToMintShortfall.divCeil(gcr);\n        }\n        // 5. Mint the shortfall synthetics with collateral. Note we are minting at the GCR.\n        // If the DSProxy already has enough tokens (tokenShortfall = 0) we still preform the approval on the collateral\n        // currency as this is needed to pay the final fee in the liquidation tx.\n        TransferHelper.safeApprove(fc.collateralCurrency(), address(fc), totalCollateralRequired.rawValue);\n        if (tokenShortfall.isGreaterThan(0)) fc.create(collateralToMintShortfall, tokenShortfall);\n\n        // The liquidatableTokens is either the maxTokensToLiquidate (if we were able to buy/mint enough) or the full\n        // token token balance at this point if there was a shortfall.\n        FixedPoint.Unsigned memory liquidatableTokens = maxTokensToLiquidate;\n        if (maxTokensToLiquidate.isGreaterThan(getSyntheticBalance(fc))) liquidatableTokens = getSyntheticBalance(fc);\n\n        // 6. Liquidate position with newly minted synthetics.\n        TransferHelper.safeApprove(fc.tokenCurrency(), address(fc), liquidatableTokens.rawValue);\n        fc.createLiquidation(\n            liquidatedSponsor,\n            minCollateralPerTokenLiquidated,\n            maxCollateralPerTokenLiquidated,\n            liquidatableTokens,\n            deadline\n        );\n    }\n\n    // Helper method to work around subtraction overflow in the case of: a - b with b > a.\n    function subOrZero(FixedPoint.Unsigned memory a, FixedPoint.Unsigned memory b)\n        internal\n        pure\n        returns (FixedPoint.Unsigned memory)\n    {\n        return b.isGreaterThanOrEqual(a) ? FixedPoint.fromUnscaledUint(0) : a.sub(b);\n    }\n\n    // Helper method to return the current final fee for a given financial contract instance.\n    function getFinalFee(IFinancialContract fc) internal returns (FixedPoint.Unsigned memory) {\n        return IStore(IFinder(fc.finder()).getImplementationAddress(\"Store\")).computeFinalFee(fc.collateralCurrency());\n    }\n\n    // Helper method to return the collateral balance of this contract.\n    function getCollateralBalance(IFinancialContract fc) internal returns (FixedPoint.Unsigned memory) {\n        return FixedPoint.Unsigned(IERC20(fc.collateralCurrency()).balanceOf(address(this)));\n    }\n\n    // Helper method to return the synthetic balance of this contract.\n    function getSyntheticBalance(IFinancialContract fc) internal returns (FixedPoint.Unsigned memory) {\n        return FixedPoint.Unsigned(IERC20(fc.tokenCurrency()).balanceOf(address(this)));\n    }\n}\n\n// Define some simple interfaces for dealing with UMA contracts.\ninterface IFinancialContract {\n    struct PositionData {\n        FixedPoint.Unsigned tokensOutstanding;\n        uint256 withdrawalRequestPassTimestamp;\n        FixedPoint.Unsigned withdrawalRequestAmount;\n        FixedPoint.Unsigned rawCollateral;\n        uint256 transferPositionRequestPassTimestamp;\n    }\n\n    function positions(address sponsor) external returns (PositionData memory);\n\n    function collateralCurrency() external returns (address);\n\n    function tokenCurrency() external returns (address);\n\n    function finder() external returns (address);\n\n    function pfc() external returns (FixedPoint.Unsigned memory);\n\n    function totalTokensOutstanding() external returns (FixedPoint.Unsigned memory);\n\n    function create(FixedPoint.Unsigned memory collateralAmount, FixedPoint.Unsigned memory numTokens) external;\n\n    function createLiquidation(\n        address sponsor,\n        FixedPoint.Unsigned calldata minCollateralPerToken,\n        FixedPoint.Unsigned calldata maxCollateralPerToken,\n        FixedPoint.Unsigned calldata maxTokensToLiquidate,\n        uint256 deadline\n    )\n        external\n        returns (\n            uint256 liquidationId,\n            FixedPoint.Unsigned memory tokensLiquidated,\n            FixedPoint.Unsigned memory finalFeeBond\n        );\n}\n\ninterface IStore {\n    function computeFinalFee(address currency) external returns (FixedPoint.Unsigned memory);\n}\n\ninterface IFinder {\n    function getImplementationAddress(bytes32 interfaceName) external view returns (address);\n}\n",
  "sourcePath": "/home/kamto/code/protocol/packages/core/contracts/bot-helpers/atomic-liquidator/ReserveCurrencyLiquidator.sol",
  "compiler": {
    "name": "solc",
    "version": "0.8.4+commit.c7e474f2.Emscripten.clang"
  },
  "schemaVersion": "3.3.4",
  "updatedAt": "2021-05-07T15:46:49.973Z",
  "devdoc": {
    "kind": "dev",
    "methods": {
      "swapMintLiquidate(address,address,address,address,(uint256),(uint256),(uint256),(uint256),uint256)": {
        "details": "After the liquidation is done the DSProxy that called this method will have an open position AND pending liquidation within the financial contract. The bot using the DSProxy should withdraw the liquidation once it has passed liveness. At this point the position can be manually unwound.Any synthetics & collateral that the DSProxy already has are considered in the amount swapped and minted. These existing tokens will be used first before any swaps or mints are done.If there is a token shortfall (either from not enough reserve to buy sufficient collateral or not enough collateral to begins with or due to slippage) the script will liquidate as much as possible given the reserves.",
        "params": {
          "deadline": "abort the trade and liquidation if the transaction is mined after this timestamp.*",
          "financialContract": "address of the financial contract on which the liquidation is occurring.",
          "liquidatedSponsor": "address of the sponsor to be liquidated.",
          "maxCollateralPerTokenLiquidated": "abort the liquidation if the position's collateral per token exceeds this value.",
          "maxReserveTokenSpent": "maximum number of reserve tokens to spend in the trade. Bounds slippage.",
          "maxTokensToLiquidate": "max number of tokens to liquidate. For a full liquidation this is the full position debt.",
          "minCollateralPerTokenLiquidated": "abort the liquidation if the position's collateral per token is below this value.",
          "reserveCurrency": "address of the token to swap for collateral. THis is the common currency held by the DSProxy.",
          "uniswapRouter": "address of the uniswap router used to facilitate trades."
        }
      }
    },
    "title": "ReserveCurrencyLiquidator",
    "version": 1
  },
  "userdoc": {
    "kind": "user",
    "methods": {
      "swapMintLiquidate(address,address,address,address,(uint256),(uint256),(uint256),(uint256),uint256)": {
        "notice": "Swaps required amount of reserve currency to collateral currency which is then used to mint tokens to liquidate a position within one transaction."
      }
    },
    "notice": "Helper contract to enable a liquidator to hold one reserver currency and liquidate against any number of financial contracts. Is assumed to be called by a DSProxy which holds reserve currency.",
    "version": 1
  }
}