{
  "contractName": "SignedFixedPointTest",
  "abi": [
    {
      "inputs": [
        {
          "internalType": "int256",
          "name": "a",
          "type": "int256"
        }
      ],
      "name": "wrapFromSigned",
      "outputs": [
        {
          "internalType": "uint256",
          "name": "",
          "type": "uint256"
        }
      ],
      "stateMutability": "pure",
      "type": "function"
    },
    {
      "inputs": [
        {
          "internalType": "uint256",
          "name": "a",
          "type": "uint256"
        }
      ],
      "name": "wrapFromUnsigned",
      "outputs": [
        {
          "internalType": "int256",
          "name": "",
          "type": "int256"
        }
      ],
      "stateMutability": "pure",
      "type": "function"
    },
    {
      "inputs": [
        {
          "internalType": "int256",
          "name": "a",
          "type": "int256"
        }
      ],
      "name": "wrapFromUnscaledInt",
      "outputs": [
        {
          "internalType": "int256",
          "name": "",
          "type": "int256"
        }
      ],
      "stateMutability": "pure",
      "type": "function"
    },
    {
      "inputs": [
        {
          "internalType": "int256",
          "name": "a",
          "type": "int256"
        },
        {
          "internalType": "int256",
          "name": "b",
          "type": "int256"
        }
      ],
      "name": "wrapIsEqual",
      "outputs": [
        {
          "internalType": "bool",
          "name": "",
          "type": "bool"
        }
      ],
      "stateMutability": "pure",
      "type": "function"
    },
    {
      "inputs": [
        {
          "internalType": "int256",
          "name": "a",
          "type": "int256"
        },
        {
          "internalType": "int256",
          "name": "b",
          "type": "int256"
        }
      ],
      "name": "wrapMixedIsEqual",
      "outputs": [
        {
          "internalType": "bool",
          "name": "",
          "type": "bool"
        }
      ],
      "stateMutability": "pure",
      "type": "function"
    },
    {
      "inputs": [
        {
          "internalType": "int256",
          "name": "a",
          "type": "int256"
        },
        {
          "internalType": "int256",
          "name": "b",
          "type": "int256"
        }
      ],
      "name": "wrapIsGreaterThan",
      "outputs": [
        {
          "internalType": "bool",
          "name": "",
          "type": "bool"
        }
      ],
      "stateMutability": "pure",
      "type": "function"
    },
    {
      "inputs": [
        {
          "internalType": "int256",
          "name": "a",
          "type": "int256"
        },
        {
          "internalType": "int256",
          "name": "b",
          "type": "int256"
        }
      ],
      "name": "wrapIsGreaterThanOrEqual",
      "outputs": [
        {
          "internalType": "bool",
          "name": "",
          "type": "bool"
        }
      ],
      "stateMutability": "pure",
      "type": "function"
    },
    {
      "inputs": [
        {
          "internalType": "int256",
          "name": "a",
          "type": "int256"
        },
        {
          "internalType": "int256",
          "name": "b",
          "type": "int256"
        }
      ],
      "name": "wrapMixedIsGreaterThan",
      "outputs": [
        {
          "internalType": "bool",
          "name": "",
          "type": "bool"
        }
      ],
      "stateMutability": "pure",
      "type": "function"
    },
    {
      "inputs": [
        {
          "internalType": "int256",
          "name": "a",
          "type": "int256"
        },
        {
          "internalType": "int256",
          "name": "b",
          "type": "int256"
        }
      ],
      "name": "wrapMixedIsGreaterThanOrEqual",
      "outputs": [
        {
          "internalType": "bool",
          "name": "",
          "type": "bool"
        }
      ],
      "stateMutability": "pure",
      "type": "function"
    },
    {
      "inputs": [
        {
          "internalType": "int256",
          "name": "a",
          "type": "int256"
        },
        {
          "internalType": "int256",
          "name": "b",
          "type": "int256"
        }
      ],
      "name": "wrapMixedIsGreaterThanOpposite",
      "outputs": [
        {
          "internalType": "bool",
          "name": "",
          "type": "bool"
        }
      ],
      "stateMutability": "pure",
      "type": "function"
    },
    {
      "inputs": [
        {
          "internalType": "int256",
          "name": "a",
          "type": "int256"
        },
        {
          "internalType": "int256",
          "name": "b",
          "type": "int256"
        }
      ],
      "name": "wrapMixedIsGreaterThanOrEqualOpposite",
      "outputs": [
        {
          "internalType": "bool",
          "name": "",
          "type": "bool"
        }
      ],
      "stateMutability": "pure",
      "type": "function"
    },
    {
      "inputs": [
        {
          "internalType": "int256",
          "name": "a",
          "type": "int256"
        },
        {
          "internalType": "int256",
          "name": "b",
          "type": "int256"
        }
      ],
      "name": "wrapIsLessThan",
      "outputs": [
        {
          "internalType": "bool",
          "name": "",
          "type": "bool"
        }
      ],
      "stateMutability": "pure",
      "type": "function"
    },
    {
      "inputs": [
        {
          "internalType": "int256",
          "name": "a",
          "type": "int256"
        },
        {
          "internalType": "int256",
          "name": "b",
          "type": "int256"
        }
      ],
      "name": "wrapIsLessThanOrEqual",
      "outputs": [
        {
          "internalType": "bool",
          "name": "",
          "type": "bool"
        }
      ],
      "stateMutability": "pure",
      "type": "function"
    },
    {
      "inputs": [
        {
          "internalType": "int256",
          "name": "a",
          "type": "int256"
        },
        {
          "internalType": "int256",
          "name": "b",
          "type": "int256"
        }
      ],
      "name": "wrapMixedIsLessThan",
      "outputs": [
        {
          "internalType": "bool",
          "name": "",
          "type": "bool"
        }
      ],
      "stateMutability": "pure",
      "type": "function"
    },
    {
      "inputs": [
        {
          "internalType": "int256",
          "name": "a",
          "type": "int256"
        },
        {
          "internalType": "int256",
          "name": "b",
          "type": "int256"
        }
      ],
      "name": "wrapMixedIsLessThanOrEqual",
      "outputs": [
        {
          "internalType": "bool",
          "name": "",
          "type": "bool"
        }
      ],
      "stateMutability": "pure",
      "type": "function"
    },
    {
      "inputs": [
        {
          "internalType": "int256",
          "name": "a",
          "type": "int256"
        },
        {
          "internalType": "int256",
          "name": "b",
          "type": "int256"
        }
      ],
      "name": "wrapMixedIsLessThanOpposite",
      "outputs": [
        {
          "internalType": "bool",
          "name": "",
          "type": "bool"
        }
      ],
      "stateMutability": "pure",
      "type": "function"
    },
    {
      "inputs": [
        {
          "internalType": "int256",
          "name": "a",
          "type": "int256"
        },
        {
          "internalType": "int256",
          "name": "b",
          "type": "int256"
        }
      ],
      "name": "wrapMixedIsLessThanOrEqualOpposite",
      "outputs": [
        {
          "internalType": "bool",
          "name": "",
          "type": "bool"
        }
      ],
      "stateMutability": "pure",
      "type": "function"
    },
    {
      "inputs": [
        {
          "internalType": "int256",
          "name": "a",
          "type": "int256"
        },
        {
          "internalType": "int256",
          "name": "b",
          "type": "int256"
        }
      ],
      "name": "wrapMin",
      "outputs": [
        {
          "internalType": "int256",
          "name": "",
          "type": "int256"
        }
      ],
      "stateMutability": "pure",
      "type": "function"
    },
    {
      "inputs": [
        {
          "internalType": "int256",
          "name": "a",
          "type": "int256"
        },
        {
          "internalType": "int256",
          "name": "b",
          "type": "int256"
        }
      ],
      "name": "wrapMax",
      "outputs": [
        {
          "internalType": "int256",
          "name": "",
          "type": "int256"
        }
      ],
      "stateMutability": "pure",
      "type": "function"
    },
    {
      "inputs": [
        {
          "internalType": "int256",
          "name": "a",
          "type": "int256"
        },
        {
          "internalType": "int256",
          "name": "b",
          "type": "int256"
        }
      ],
      "name": "wrapAdd",
      "outputs": [
        {
          "internalType": "int256",
          "name": "",
          "type": "int256"
        }
      ],
      "stateMutability": "pure",
      "type": "function"
    },
    {
      "inputs": [
        {
          "internalType": "int256",
          "name": "a",
          "type": "int256"
        },
        {
          "internalType": "int256",
          "name": "b",
          "type": "int256"
        }
      ],
      "name": "wrapMixedAdd",
      "outputs": [
        {
          "internalType": "int256",
          "name": "",
          "type": "int256"
        }
      ],
      "stateMutability": "pure",
      "type": "function"
    },
    {
      "inputs": [
        {
          "internalType": "int256",
          "name": "a",
          "type": "int256"
        },
        {
          "internalType": "int256",
          "name": "b",
          "type": "int256"
        }
      ],
      "name": "wrapSub",
      "outputs": [
        {
          "internalType": "int256",
          "name": "",
          "type": "int256"
        }
      ],
      "stateMutability": "pure",
      "type": "function"
    },
    {
      "inputs": [
        {
          "internalType": "int256",
          "name": "a",
          "type": "int256"
        },
        {
          "internalType": "int256",
          "name": "b",
          "type": "int256"
        }
      ],
      "name": "wrapMixedSub",
      "outputs": [
        {
          "internalType": "int256",
          "name": "",
          "type": "int256"
        }
      ],
      "stateMutability": "pure",
      "type": "function"
    },
    {
      "inputs": [
        {
          "internalType": "int256",
          "name": "a",
          "type": "int256"
        },
        {
          "internalType": "int256",
          "name": "b",
          "type": "int256"
        }
      ],
      "name": "wrapMixedSubOpposite",
      "outputs": [
        {
          "internalType": "int256",
          "name": "",
          "type": "int256"
        }
      ],
      "stateMutability": "pure",
      "type": "function"
    },
    {
      "inputs": [
        {
          "internalType": "int256",
          "name": "a",
          "type": "int256"
        },
        {
          "internalType": "int256",
          "name": "b",
          "type": "int256"
        }
      ],
      "name": "wrapMul",
      "outputs": [
        {
          "internalType": "int256",
          "name": "",
          "type": "int256"
        }
      ],
      "stateMutability": "pure",
      "type": "function"
    },
    {
      "inputs": [
        {
          "internalType": "int256",
          "name": "a",
          "type": "int256"
        },
        {
          "internalType": "int256",
          "name": "b",
          "type": "int256"
        }
      ],
      "name": "wrapMulAwayFromZero",
      "outputs": [
        {
          "internalType": "int256",
          "name": "",
          "type": "int256"
        }
      ],
      "stateMutability": "pure",
      "type": "function"
    },
    {
      "inputs": [
        {
          "internalType": "int256",
          "name": "a",
          "type": "int256"
        },
        {
          "internalType": "int256",
          "name": "b",
          "type": "int256"
        }
      ],
      "name": "wrapMixedMul",
      "outputs": [
        {
          "internalType": "int256",
          "name": "",
          "type": "int256"
        }
      ],
      "stateMutability": "pure",
      "type": "function"
    },
    {
      "inputs": [
        {
          "internalType": "int256",
          "name": "a",
          "type": "int256"
        },
        {
          "internalType": "int256",
          "name": "b",
          "type": "int256"
        }
      ],
      "name": "wrapMixedMulAwayFromZero",
      "outputs": [
        {
          "internalType": "int256",
          "name": "",
          "type": "int256"
        }
      ],
      "stateMutability": "pure",
      "type": "function"
    },
    {
      "inputs": [
        {
          "internalType": "int256",
          "name": "a",
          "type": "int256"
        },
        {
          "internalType": "int256",
          "name": "b",
          "type": "int256"
        }
      ],
      "name": "wrapDiv",
      "outputs": [
        {
          "internalType": "int256",
          "name": "",
          "type": "int256"
        }
      ],
      "stateMutability": "pure",
      "type": "function"
    },
    {
      "inputs": [
        {
          "internalType": "int256",
          "name": "a",
          "type": "int256"
        },
        {
          "internalType": "int256",
          "name": "b",
          "type": "int256"
        }
      ],
      "name": "wrapDivAwayFromZero",
      "outputs": [
        {
          "internalType": "int256",
          "name": "",
          "type": "int256"
        }
      ],
      "stateMutability": "pure",
      "type": "function"
    },
    {
      "inputs": [
        {
          "internalType": "int256",
          "name": "a",
          "type": "int256"
        },
        {
          "internalType": "int256",
          "name": "b",
          "type": "int256"
        }
      ],
      "name": "wrapMixedDiv",
      "outputs": [
        {
          "internalType": "int256",
          "name": "",
          "type": "int256"
        }
      ],
      "stateMutability": "pure",
      "type": "function"
    },
    {
      "inputs": [
        {
          "internalType": "int256",
          "name": "a",
          "type": "int256"
        },
        {
          "internalType": "int256",
          "name": "b",
          "type": "int256"
        }
      ],
      "name": "wrapMixedDivAwayFromZero",
      "outputs": [
        {
          "internalType": "int256",
          "name": "",
          "type": "int256"
        }
      ],
      "stateMutability": "pure",
      "type": "function"
    },
    {
      "inputs": [
        {
          "internalType": "int256",
          "name": "a",
          "type": "int256"
        },
        {
          "internalType": "int256",
          "name": "b",
          "type": "int256"
        }
      ],
      "name": "wrapMixedDivOpposite",
      "outputs": [
        {
          "internalType": "int256",
          "name": "",
          "type": "int256"
        }
      ],
      "stateMutability": "pure",
      "type": "function"
    },
    {
      "inputs": [
        {
          "internalType": "int256",
          "name": "a",
          "type": "int256"
        },
        {
          "internalType": "uint256",
          "name": "b",
          "type": "uint256"
        }
      ],
      "name": "wrapPow",
      "outputs": [
        {
          "internalType": "int256",
          "name": "",
          "type": "int256"
        }
      ],
      "stateMutability": "pure",
      "type": "function"
    }
  ],
  "bytecode": "0x608060405234801561001057600080fd5b5061105d806100206000396000f3fe608060405234801561001057600080fd5b50600436106102065760003560e01c80637f5c23b31161011a578063af36574a116100ad578063c6e248731161007c578063c6e2487314610442578063d340bfd014610455578063ddc272a714610468578063ec5ce9cc1461047b578063fbd666221461048e57600080fd5b8063af36574a146103f6578063c097e8cc14610409578063c2ceb43a1461041c578063c47435b51461042f57600080fd5b80638bb43c01116100e95780638bb43c01146103aa5780639af0bcfe146103bd5780639b77a533146103d0578063a9db1561146103e357600080fd5b80637f5c23b31461035e57806383af6c391461037157806386ac5d131461038457806389d78f371461039757600080fd5b80632595e1961161019d578063440d18db1161016c578063440d18db146102ff57806362e2c0b514610312578063639361e5146103255780637264e41b14610338578063765a7da31461034b57600080fd5b80632595e196146102c65780632c5c730e1461020b57806336351a26146102d9578063434623eb146102ec57600080fd5b8063191285d9116101d9578063191285d91461027a57806319558f7b1461028d5780631db889ee146102a05780631f97f3f1146102b357600080fd5b80630350a4a01461020b57806304026a681461023157806304f8fe77146102545780630c2d8a9c14610267575b600080fd5b61021e610219366004610e6b565b6104a1565b6040519081526020015b60405180910390f35b61024461023f366004610e6b565b6104c6565b6040519015158152602001610228565b61021e610262366004610e53565b6104e8565b610244610275366004610e6b565b610508565b610244610288366004610e6b565b610523565b61021e61029b366004610e6b565b610548565b61021e6102ae366004610e6b565b610563565b6102446102c1366004610e6b565b610588565b61021e6102d4366004610e53565b6105a3565b61021e6102e7366004610e6b565b6105bc565b6102446102fa366004610e6b565b6105e1565b61021e61030d366004610e6b565b610607565b61021e610320366004610e6b565b61062c565b61021e610333366004610e6b565b61064f565b610244610346366004610e6b565b610674565b61021e610359366004610e6b565b610697565b61024461036c366004610e6b565b6106b2565b61024461037f366004610e6b565b6106cd565b61021e610392366004610e6b565b6106f3565b61021e6103a5366004610e6b565b610718565b61021e6103b8366004610e6b565b61073d565b6102446103cb366004610e6b565b610762565b6102446103de366004610e6b565b610785565b6102446103f1366004610e6b565b6107a8565b61021e610404366004610e8c565b6107cb565b61021e610417366004610e6b565b6107e6565b61024461042a366004610e6b565b610801565b61021e61043d366004610e6b565b610826565b610244610450366004610e6b565b610841565b61021e610463366004610e6b565b610866565b61021e610476366004610e53565b610889565b61021e610489366004610e6b565b610894565b61024461049c366004610e6b565b6108b9565b60408051602081019091528281526000906104bc90836108d4565b5190505b92915050565b60408051602081019091528281526000906104e19083610905565b9392505050565b600061050160405180602001604052808481525061091d565b5192915050565b60408051602081019091528281526000906104e19083610990565b60408051602080820183528382528251908101909252908390525160009083126104e1565b60408051602081019091528281526000906104bc90836109a7565b604080516020808201835283825282519081019092528382526000916104bc916109c8565b60408051602081019091528281526000906104e19083610a92565b6000610501604051806020016040528084815250610aa9565b604080516020808201835283825282519081019092528382526000916104bc91610b05565b6040805160208082018352838252825190810190925290839052516000908312156104e1565b604080516020808201835283825282519081019092528382526000916104bc91610b2a565b60006104bc60405180602001604052808481525084610b5490919063ffffffff16565b604080516020808201835283825282519081019092528382526000916104bc91610b75565b60006104e160405180602001604052808481525084610bbe90919063ffffffff16565b60408051602081019091528281526000906104bc9083610bd5565b60408051602081019091528281526000906104e19083610bf6565b6040805160208082018352838252825190810190925290839052516000908313156104e1565b604080516020808201835283825282519081019092528382526000916104bc91610c0d565b604080516020808201835283825282519081019092528382526000916104bc91610c37565b604080516020808201835283825282519081019092528382526000916104bc91610c55565b60006104e160405180602001604052808481525084610c9290919063ffffffff16565b60006104e160405180602001604052808481525084610ca990919063ffffffff16565b60006104e160405180602001604052808481525084610cc190919063ffffffff16565b60408051602081019091528281526000906104bc9083610cd9565b60408051602081019091528281526000906104bc9083610d24565b60408051602080820183528382528251908101909252908390525160009083146104e1565b60408051602081019091528281526000906104bc9083610d45565b60408051602080820183528382528251908101909252908390525160009083136104e1565b60006104bc60405180602001604052808481525084610d6d90919063ffffffff16565b600061050182610d8e565b604080516020808201835283825282519081019092528382526000916104bc91610dc3565b60408051602081019091528281526000906104e19083610dff565b6040805160208101909152600081526040805160208101909152835181906108fc9085610e17565b90529392505050565b600061091082610d8e565b5183511315905092915050565b60408051602081019091526000815281516000131561097d5760405162461bcd60e51b8152602060048201526017602482015276139959d85d1a5d99481d985b1d59481c1c9bdd9a591959604a1b60448201526064015b60405180910390fd5b5060408051602081019091529051815290565b600061099b82610d8e565b51835112905092915050565b6040805160208101909152600081526104e1836109c384610d8e565b610b75565b60408051602081019091526000808252825184516109e591610e17565b905060006109fb670de0b6b3a764000083610ef7565b90506000610a11670de0b6b3a764000084610fe7565b90508015610a79576000610a26866000610990565b1515610a33886000610990565b1515149050600081610a4757600019610a4a565b60015b90506040518060200160405280610a6a8387610e2390919063ffffffff16565b815250955050505050506104c0565b60405180602001604052808381525093505050506104c0565b6000610a9d82610d8e565b51835114905092915050565b60408051602081019091526000815281516001600160ff1b03101561097d5760405162461bcd60e51b8152602060048201526012602482015271556e7369676e656420746f6f206c6172676560701b6044820152606401610974565b6040805160208101909152600081528151835112610b2357816104e1565b5090919050565b60408051602081019091526000815260408051602081019091528251845182916108fc9190610e23565b6040805160208101909152600081526104e1610b6f84610d8e565b83610dc3565b604080516020810190915260008082528351610b9990670de0b6b3a7640000610e17565b8351909150600090610bac908390610e2f565b8451909150600090610a119084610fe7565b8051600090610bcc84610d8e565b51139392505050565b6040805160208101909152600081526104e183610bf184610d8e565b610c0d565b6000610c0182610d8e565b51835113905092915050565b60408051602081019091526000815260408051602081019091528251845182916108fc9190610e3b565b6040805160208101909152600081528151835113610b2357816104e1565b6040805160208101909152600081526040805160208101909152825184518291670de0b6b3a764000091610c8891610e17565b6108fc9190610ef7565b8051600090610ca084610d8e565b51129392505050565b8051600090610cb784610d8e565b5113159392505050565b8051600090610ccf84610d8e565b5112159392505050565b604080516020810190915260008152610cf26001610d8e565b905060005b82811015610d1d57610d098285610c55565b9150610d16816001610e47565b9050610cf7565b5092915050565b6040805160208101909152600081526104e183610d4084610d8e565b610b2a565b6040805160208101909152600081526040805160208101909152835181906108fc9085610e2f565b6040805160208101909152600081526104e1610d8884610d8e565b83610c0d565b604080516020810190915260008152604080516020810190915280610dbb84670de0b6b3a7640000610e17565b905292915050565b60408051602081019091526000815260408051602081019091528251845182916108fc91610df990670de0b6b3a7640000610e17565b90610e2f565b6000610e0a82610d8e565b5183511215905092915050565b60006104e18284610f25565b60006104e18284610e9e565b60006104e18284610ef7565b60006104e18284610fa8565b60006104e18284610edf565b600060208284031215610e64578081fd5b5035919050565b60008060408385031215610e7d578081fd5b50508035926020909101359150565b60008060408385031215610e7d578182fd5b600080821280156001600160ff1b0384900385131615610ec057610ec0610ffb565b600160ff1b8390038412811615610ed957610ed9610ffb565b50500190565b60008219821115610ef257610ef2610ffb565b500190565b600082610f0657610f06611011565b600160ff1b821460001984141615610f2057610f20610ffb565b500590565b60006001600160ff1b0381841382841380821686840486111615610f4b57610f4b610ffb565b600160ff1b84871282811687830589121615610f6957610f69610ffb565b858712925087820587128484161615610f8457610f84610ffb565b87850587128184161615610f9a57610f9a610ffb565b505050929093029392505050565b60008083128015600160ff1b850184121615610fc657610fc6610ffb565b6001600160ff1b0384018313811615610fe157610fe1610ffb565b50500390565b600082610ff657610ff6611011565b500790565b634e487b7160e01b600052601160045260246000fd5b634e487b7160e01b600052601260045260246000fdfea2646970667358221220bbbfe72a6a1bc17612f4c97284cdf5edfdc61f0f32abe04379d3c7ad14a52dd964736f6c63430008040033",
  "immutableReferences": {},
  "source": "// SPDX-License-Identifier: AGPL-3.0-only\npragma solidity ^0.8.0;\n\nimport \"../implementation/FixedPoint.sol\";\n\n// Wraps the FixedPoint library for testing purposes.\ncontract SignedFixedPointTest {\n    using FixedPoint for FixedPoint.Signed;\n    using FixedPoint for int256;\n    using SafeMath for int256;\n\n    function wrapFromSigned(int256 a) external pure returns (uint256) {\n        return FixedPoint.fromSigned(FixedPoint.Signed(a)).rawValue;\n    }\n\n    function wrapFromUnsigned(uint256 a) external pure returns (int256) {\n        return FixedPoint.fromUnsigned(FixedPoint.Unsigned(a)).rawValue;\n    }\n\n    function wrapFromUnscaledInt(int256 a) external pure returns (int256) {\n        return FixedPoint.fromUnscaledInt(a).rawValue;\n    }\n\n    function wrapIsEqual(int256 a, int256 b) external pure returns (bool) {\n        return FixedPoint.Signed(a).isEqual(FixedPoint.Signed(b));\n    }\n\n    function wrapMixedIsEqual(int256 a, int256 b) external pure returns (bool) {\n        return FixedPoint.Signed(a).isEqual(b);\n    }\n\n    function wrapIsGreaterThan(int256 a, int256 b) external pure returns (bool) {\n        return FixedPoint.Signed(a).isGreaterThan(FixedPoint.Signed(b));\n    }\n\n    function wrapIsGreaterThanOrEqual(int256 a, int256 b) external pure returns (bool) {\n        return FixedPoint.Signed(a).isGreaterThanOrEqual(FixedPoint.Signed(b));\n    }\n\n    function wrapMixedIsGreaterThan(int256 a, int256 b) external pure returns (bool) {\n        return FixedPoint.Signed(a).isGreaterThan(b);\n    }\n\n    function wrapMixedIsGreaterThanOrEqual(int256 a, int256 b) external pure returns (bool) {\n        return FixedPoint.Signed(a).isGreaterThanOrEqual(b);\n    }\n\n    function wrapMixedIsGreaterThanOpposite(int256 a, int256 b) external pure returns (bool) {\n        return a.isGreaterThan(FixedPoint.Signed(b));\n    }\n\n    function wrapMixedIsGreaterThanOrEqualOpposite(int256 a, int256 b) external pure returns (bool) {\n        return a.isGreaterThanOrEqual(FixedPoint.Signed(b));\n    }\n\n    function wrapIsLessThan(int256 a, int256 b) external pure returns (bool) {\n        return FixedPoint.Signed(a).isLessThan(FixedPoint.Signed(b));\n    }\n\n    function wrapIsLessThanOrEqual(int256 a, int256 b) external pure returns (bool) {\n        return FixedPoint.Signed(a).isLessThanOrEqual(FixedPoint.Signed(b));\n    }\n\n    function wrapMixedIsLessThan(int256 a, int256 b) external pure returns (bool) {\n        return FixedPoint.Signed(a).isLessThan(b);\n    }\n\n    function wrapMixedIsLessThanOrEqual(int256 a, int256 b) external pure returns (bool) {\n        return FixedPoint.Signed(a).isLessThanOrEqual(b);\n    }\n\n    function wrapMixedIsLessThanOpposite(int256 a, int256 b) external pure returns (bool) {\n        return a.isLessThan(FixedPoint.Signed(b));\n    }\n\n    function wrapMixedIsLessThanOrEqualOpposite(int256 a, int256 b) external pure returns (bool) {\n        return a.isLessThanOrEqual(FixedPoint.Signed(b));\n    }\n\n    function wrapMin(int256 a, int256 b) external pure returns (int256) {\n        return FixedPoint.Signed(a).min(FixedPoint.Signed(b)).rawValue;\n    }\n\n    function wrapMax(int256 a, int256 b) external pure returns (int256) {\n        return FixedPoint.Signed(a).max(FixedPoint.Signed(b)).rawValue;\n    }\n\n    function wrapAdd(int256 a, int256 b) external pure returns (int256) {\n        return FixedPoint.Signed(a).add(FixedPoint.Signed(b)).rawValue;\n    }\n\n    // The first int256 is interpreted with a scaling factor and is converted to an `Unsigned` directly.\n    function wrapMixedAdd(int256 a, int256 b) external pure returns (int256) {\n        return FixedPoint.Signed(a).add(b).rawValue;\n    }\n\n    function wrapSub(int256 a, int256 b) external pure returns (int256) {\n        return FixedPoint.Signed(a).sub(FixedPoint.Signed(b)).rawValue;\n    }\n\n    // The first int256 is interpreted with a scaling factor and is converted to an `Unsigned` directly.\n    function wrapMixedSub(int256 a, int256 b) external pure returns (int256) {\n        return FixedPoint.Signed(a).sub(b).rawValue;\n    }\n\n    // The second int256 is interpreted with a scaling factor and is converted to an `Unsigned` directly.\n    function wrapMixedSubOpposite(int256 a, int256 b) external pure returns (int256) {\n        return a.sub(FixedPoint.Signed(b)).rawValue;\n    }\n\n    function wrapMul(int256 a, int256 b) external pure returns (int256) {\n        return FixedPoint.Signed(a).mul(FixedPoint.Signed(b)).rawValue;\n    }\n\n    function wrapMulAwayFromZero(int256 a, int256 b) external pure returns (int256) {\n        return FixedPoint.Signed(a).mulAwayFromZero(FixedPoint.Signed(b)).rawValue;\n    }\n\n    // The first int256 is interpreted with a scaling factor and is converted to an `Unsigned` directly.\n    function wrapMixedMul(int256 a, int256 b) external pure returns (int256) {\n        return FixedPoint.Signed(a).mul(b).rawValue;\n    }\n\n    function wrapMixedMulAwayFromZero(int256 a, int256 b) external pure returns (int256) {\n        return FixedPoint.Signed(a).mulAwayFromZero(b).rawValue;\n    }\n\n    function wrapDiv(int256 a, int256 b) external pure returns (int256) {\n        return FixedPoint.Signed(a).div(FixedPoint.Signed(b)).rawValue;\n    }\n\n    function wrapDivAwayFromZero(int256 a, int256 b) external pure returns (int256) {\n        return FixedPoint.Signed(a).divAwayFromZero(FixedPoint.Signed(b)).rawValue;\n    }\n\n    // The first int256 is interpreted with a scaling factor and is converted to an `Unsigned` directly.\n    function wrapMixedDiv(int256 a, int256 b) external pure returns (int256) {\n        return FixedPoint.Signed(a).div(b).rawValue;\n    }\n\n    function wrapMixedDivAwayFromZero(int256 a, int256 b) external pure returns (int256) {\n        return FixedPoint.Signed(a).divAwayFromZero(b).rawValue;\n    }\n\n    // The second int256 is interpreted with a scaling factor and is converted to an `Unsigned` directly.\n    function wrapMixedDivOpposite(int256 a, int256 b) external pure returns (int256) {\n        return a.div(FixedPoint.Signed(b)).rawValue;\n    }\n\n    // The first int256 is interpreted with a scaling factor and is converted to an `Unsigned` directly.\n    function wrapPow(int256 a, uint256 b) external pure returns (int256) {\n        return FixedPoint.Signed(a).pow(b).rawValue;\n    }\n}\n",
  "sourcePath": "/home/kamto/code/protocol/packages/core/contracts/common/test/SignedFixedPointTest.sol",
  "compiler": {
    "name": "solc",
    "version": "0.8.4+commit.c7e474f2.Emscripten.clang"
  },
  "schemaVersion": "3.3.4",
  "updatedAt": "2021-05-07T15:46:50.151Z",
  "devdoc": {
    "kind": "dev",
    "methods": {},
    "version": 1
  },
  "userdoc": {
    "kind": "user",
    "methods": {},
    "version": 1
  }
}