{
  "contractName": "SourceOracle",
  "abi": [
    {
      "inputs": [
        {
          "internalType": "address",
          "name": "_finderAddress",
          "type": "address"
        },
        {
          "internalType": "uint8",
          "name": "_chainID",
          "type": "uint8"
        }
      ],
      "stateMutability": "nonpayable",
      "type": "constructor"
    },
    {
      "anonymous": false,
      "inputs": [
        {
          "indexed": true,
          "internalType": "address",
          "name": "requester",
          "type": "address"
        },
        {
          "indexed": true,
          "internalType": "uint8",
          "name": "chainID",
          "type": "uint8"
        },
        {
          "indexed": true,
          "internalType": "bytes32",
          "name": "identifier",
          "type": "bytes32"
        },
        {
          "indexed": false,
          "internalType": "uint256",
          "name": "time",
          "type": "uint256"
        },
        {
          "indexed": false,
          "internalType": "bytes",
          "name": "ancillaryData",
          "type": "bytes"
        }
      ],
      "name": "PriceRequestAdded",
      "type": "event"
    },
    {
      "anonymous": false,
      "inputs": [
        {
          "indexed": true,
          "internalType": "address",
          "name": "pusher",
          "type": "address"
        },
        {
          "indexed": true,
          "internalType": "uint8",
          "name": "chainID",
          "type": "uint8"
        },
        {
          "indexed": true,
          "internalType": "bytes32",
          "name": "identifier",
          "type": "bytes32"
        },
        {
          "indexed": false,
          "internalType": "uint256",
          "name": "time",
          "type": "uint256"
        },
        {
          "indexed": false,
          "internalType": "bytes",
          "name": "ancillaryData",
          "type": "bytes"
        },
        {
          "indexed": false,
          "internalType": "int256",
          "name": "price",
          "type": "int256"
        }
      ],
      "name": "PushedPrice",
      "type": "event"
    },
    {
      "inputs": [],
      "name": "currentChainID",
      "outputs": [
        {
          "internalType": "uint8",
          "name": "",
          "type": "uint8"
        }
      ],
      "stateMutability": "view",
      "type": "function"
    },
    {
      "inputs": [],
      "name": "finder",
      "outputs": [
        {
          "internalType": "contract FinderInterface",
          "name": "",
          "type": "address"
        }
      ],
      "stateMutability": "view",
      "type": "function"
    },
    {
      "inputs": [
        {
          "internalType": "uint8",
          "name": "sinkChainID",
          "type": "uint8"
        },
        {
          "internalType": "bytes32",
          "name": "identifier",
          "type": "bytes32"
        },
        {
          "internalType": "uint256",
          "name": "time",
          "type": "uint256"
        },
        {
          "internalType": "bytes",
          "name": "ancillaryData",
          "type": "bytes"
        }
      ],
      "name": "publishPrice",
      "outputs": [],
      "stateMutability": "nonpayable",
      "type": "function"
    },
    {
      "inputs": [
        {
          "internalType": "uint8",
          "name": "sinkChainID",
          "type": "uint8"
        },
        {
          "internalType": "bytes32",
          "name": "identifier",
          "type": "bytes32"
        },
        {
          "internalType": "uint256",
          "name": "time",
          "type": "uint256"
        },
        {
          "internalType": "bytes",
          "name": "ancillaryData",
          "type": "bytes"
        },
        {
          "internalType": "int256",
          "name": "price",
          "type": "int256"
        }
      ],
      "name": "validateDeposit",
      "outputs": [],
      "stateMutability": "view",
      "type": "function"
    },
    {
      "inputs": [
        {
          "internalType": "uint8",
          "name": "sinkChainID",
          "type": "uint8"
        },
        {
          "internalType": "bytes32",
          "name": "identifier",
          "type": "bytes32"
        },
        {
          "internalType": "uint256",
          "name": "time",
          "type": "uint256"
        },
        {
          "internalType": "bytes",
          "name": "ancillaryData",
          "type": "bytes"
        }
      ],
      "name": "executeRequestPrice",
      "outputs": [],
      "stateMutability": "nonpayable",
      "type": "function"
    },
    {
      "inputs": [],
      "name": "getResourceId",
      "outputs": [
        {
          "internalType": "bytes32",
          "name": "",
          "type": "bytes32"
        }
      ],
      "stateMutability": "view",
      "type": "function"
    },
    {
      "inputs": [
        {
          "internalType": "uint8",
          "name": "chainID",
          "type": "uint8"
        },
        {
          "internalType": "bytes32",
          "name": "identifier",
          "type": "bytes32"
        },
        {
          "internalType": "uint256",
          "name": "time",
          "type": "uint256"
        },
        {
          "internalType": "bytes",
          "name": "ancillaryData",
          "type": "bytes"
        },
        {
          "internalType": "int256",
          "name": "price",
          "type": "int256"
        }
      ],
      "name": "formatMetadata",
      "outputs": [
        {
          "internalType": "bytes",
          "name": "",
          "type": "bytes"
        }
      ],
      "stateMutability": "pure",
      "type": "function"
    }
  ],
  "bytecode": "0x608060405234801561001057600080fd5b50604051610d3d380380610d3d83398101604081905261002f91610068565b600280546001600160a01b0319166001600160a01b0393909316929092179091556000805460ff191660ff9092169190911790556100b1565b6000806040838503121561007a578182fd5b82516001600160a01b0381168114610090578283fd5b602084015190925060ff811681146100a6578182fd5b809150509250929050565b610c7d806100c06000396000f3fe608060405234801561001057600080fd5b506004361061007d5760003560e01c80637c1b84811161005b5780637c1b8481146100d2578063b179e1e7146100e5578063b9a3c84c14610104578063f7b7ee7e1461012f57600080fd5b80633bf5e3b4146100825780634df7f73d1461009d5780636cbaef3e146100bd575b600080fd5b61008a610142565b6040519081526020015b60405180910390f35b6100b06100ab366004610a35565b61018e565b6040516100949190610b16565b6100d06100cb3660046109d6565b6101eb565b005b6100d06100e0366004610a35565b610357565b6000546100f29060ff1681565b60405160ff9091168152602001610094565b600254610117906001600160a01b031681565b6040516001600160a01b039091168152602001610094565b6100d061013d3660046109d6565b610445565b60008054604080516020810182905260066060820152654f7261636c6560d01b608082015260ff9092169082015260a00160405160208183030381529060405280519060200120905090565b6060600086868686866040516020016101ab959493929190610bc7565b60405160208183030381529060405290508051816040516020016101d0929190610ac8565b60405160208183030381529060405291505095945050505050565b6002546040516302abf57960e61b81526d23b2b732b934b1a430b7323632b960911b60048201526001600160a01b039091169063aafd5e409060240160206040518083038186803b15801561023f57600080fd5b505afa158015610253573d6000803e3d6000fd5b505050506040513d601f19601f820116820180604052508101906102779190610970565b6001600160a01b0316336001600160a01b0316146102dc5760405162461bcd60e51b815260206004820152601d60248201527f43616c6c6572206d7573742062652047656e6572696348616e646c657200000060448201526064015b60405180910390fd5b6102e884848484610633565b6102f06106d3565b6001600160a01b031663216666a48484846040518463ffffffff1660e01b815260040161031f93929190610aee565b600060405180830381600087803b15801561033957600080fd5b505af115801561034d573d6000803e3d6000fd5b5050505050505050565b60006103658686868661075e565b60008181526001602052604090209091506002815460ff16600281111561039c57634e487b7160e01b600052602160045260246000fd5b146103e95760405162461bcd60e51b815260206004820152601c60248201527f507269636520686173206e6f74206265656e207075626c69736865640000000060448201526064016102d3565b8281600101541461043c5760405162461bcd60e51b815260206004820152601a60248201527f556e6578706563746564207072696365207075626c697368656400000000000060448201526064016102d3565b50505050505050565b61044d6106d3565b6001600160a01b031663b551cd508484846040518463ffffffff1660e01b815260040161047c93929190610aee565b60206040518083038186803b15801561049457600080fd5b505afa1580156104a8573d6000803e3d6000fd5b505050506040513d601f19601f820116820180604052508101906104cc919061099e565b6105185760405162461bcd60e51b815260206004820152601a60248201527f44564d20686173206e6f74207265736f6c76656420707269636500000000000060448201526064016102d3565b60006105226106d3565b6001600160a01b031663719c6d568585856040518463ffffffff1660e01b815260040161055193929190610aee565b60206040518083038186803b15801561056957600080fd5b505afa15801561057d573d6000803e3d6000fd5b505050506040513d601f19601f820116820180604052508101906105a191906109be565b90506105b08585858585610797565b6105b8610899565b6001600160a01b03166305e2ca17866105cf610142565b6105dc898989898961018e565b6040518463ffffffff1660e01b81526004016105fa93929190610b73565b600060405180830381600087803b15801561061457600080fd5b505af1158015610628573d6000803e3d6000fd5b505050505050505050565b60006106418585858561075e565b6000818152600160205260408120919250815460ff16600281111561067657634e487b7160e01b600052602160045260246000fd5b14156106cb57805460ff19166001178155604051859060ff88169033907fa03847f95776367eadb647c2616b06a8c30da972a64abe9fbe0ad1e54e1b1ead906106c29089908990610b29565b60405180910390a45b505050505050565b6002546040516302abf57960e61b8152654f7261636c6560d01b60048201526000916001600160a01b03169063aafd5e40906024015b60206040518083038186803b15801561072157600080fd5b505afa158015610735573d6000803e3d6000fd5b505050506040513d601f19601f820116820180604052508101906107599190610970565b905090565b6000848484846040516020016107779493929190610b95565b604051602081830303815290604052805190602001209050949350505050565b60006107a58686868661075e565b6000818152600160208190526040909120919250815460ff1660028111156107dd57634e487b7160e01b600052602160045260246000fd5b146108395760405162461bcd60e51b815260206004820152602660248201527f50726963652072657175657374206973206e6f742063757272656e746c792070604482015265656e64696e6760d01b60648201526084016102d3565b60018101839055805460ff19166002178155604051869060ff89169033907fa044919dd7388dc90883c27251dd419685261eb5c0810da1084addc60fc20d2790610888908a908a908a90610b4a565b60405180910390a450505050505050565b6002546040516302abf57960e61b81526542726964676560d01b60048201526000916001600160a01b03169063aafd5e4090602401610709565b600082601f8301126108e3578081fd5b813567ffffffffffffffff808211156108fe576108fe610c31565b604051601f8301601f19908116603f0116810190828211818310171561092657610926610c31565b8160405283815286602085880101111561093e578485fd5b8360208701602083013792830160200193909352509392505050565b803560ff8116811461096b57600080fd5b919050565b600060208284031215610981578081fd5b81516001600160a01b0381168114610997578182fd5b9392505050565b6000602082840312156109af578081fd5b81518015158114610997578182fd5b6000602082840312156109cf578081fd5b5051919050565b600080600080608085870312156109eb578283fd5b6109f48561095a565b93506020850135925060408501359150606085013567ffffffffffffffff811115610a1d578182fd5b610a29878288016108d3565b91505092959194509250565b600080600080600060a08688031215610a4c578081fd5b610a558661095a565b94506020860135935060408601359250606086013567ffffffffffffffff811115610a7e578182fd5b610a8a888289016108d3565b95989497509295608001359392505050565b60008151808452610ab4816020860160208601610c01565b601f01601f19169290920160200192915050565b82815260008251610ae0816020850160208701610c01565b919091016020019392505050565b838152826020820152606060408201526000610b0d6060830184610a9c565b95945050505050565b6020815260006109976020830184610a9c565b828152604060208201526000610b426040830184610a9c565b949350505050565b838152606060208201526000610b636060830185610a9c565b9050826040830152949350505050565b60ff84168152826020820152606060408201526000610b0d6060830184610a9c565b60ff85168152836020820152826040820152608060608201526000610bbd6080830184610a9c565b9695505050505050565b60ff8616815284602082015283604082015260a060608201526000610bef60a0830185610a9c565b90508260808301529695505050505050565b60005b83811015610c1c578181015183820152602001610c04565b83811115610c2b576000848401525b50505050565b634e487b7160e01b600052604160045260246000fdfea2646970667358221220cdf45d146f6edc383a58087d238960ba3cf265f2277dfed9d999b7b50cb44c5564736f6c63430008040033",
  "immutableReferences": {},
  "source": "// SPDX-License-Identifier: AGPL-3.0-only\npragma solidity ^0.8.0;\n\nimport \"./BeaconOracle.sol\";\nimport \"../oracle/interfaces/OracleAncillaryInterface.sol\";\n\n/**\n * @title Extension of BeaconOracle that is intended to be deployed on Mainnet to give financial\n * contracts on non-Mainnet networks the ability to trigger cross-chain price requests to the Mainnet DVM. This contract\n * is responsible for triggering price requests originating from non-Mainnet, and broadcasting resolved price data\n * back to those networks. Technically, this contract is more of a Proxy than an Oracle, because it does not implement\n * the full Oracle interface including the getPrice and requestPrice methods. It's goal is to shuttle price request\n * functionality between L2 and L1.\n * @dev The intended client of this contract is some off-chain bot watching for resolved price events on the DVM. Once\n * that bot sees a price has resolved, it can call `publishPrice()` on this contract which will call the local Bridge\n * contract to signal to an off-chain relayer to bridge a price request to another network.\n * @dev This contract must be a registered financial contract in order to call DVM methods.\n */\ncontract SourceOracle is BeaconOracle {\n    constructor(address _finderAddress, uint8 _chainID) BeaconOracle(_finderAddress, _chainID) {}\n\n    /***************************************************************\n     * Publishing Price Request Data to L2:\n     ***************************************************************/\n\n    /**\n     * @notice This is the first method that should be called in order to publish a price request to another network\n     * marked by `sinkChainID`.\n     * @dev Publishes the DVM resolved price for the price request, or reverts if not resolved yet. Will call the\n     * local Bridge's deposit() method which will emit a Deposit event in order to signal to an off-chain\n     * relayer to begin the cross-chain process.\n     */\n    function publishPrice(\n        uint8 sinkChainID,\n        bytes32 identifier,\n        uint256 time,\n        bytes memory ancillaryData\n    ) public {\n        require(_getOracle().hasPrice(identifier, time, ancillaryData), \"DVM has not resolved price\");\n        int256 price = _getOracle().getPrice(identifier, time, ancillaryData);\n        _publishPrice(sinkChainID, identifier, time, ancillaryData, price);\n\n        // Call Bridge.deposit() to initiate cross-chain publishing of price request.\n        _getBridge().deposit(\n            sinkChainID,\n            getResourceId(),\n            formatMetadata(sinkChainID, identifier, time, ancillaryData, price)\n        );\n    }\n\n    /**\n     * @notice This method will ultimately be called after `publishPrice` calls `Bridge.deposit()`, which will call\n     * `GenericHandler.deposit()` and ultimately this method.\n     * @dev This method should basically check that the `Bridge.deposit()` was triggered by a valid publish event.\n     */\n    function validateDeposit(\n        uint8 sinkChainID,\n        bytes32 identifier,\n        uint256 time,\n        bytes memory ancillaryData,\n        int256 price\n    ) public view {\n        bytes32 priceRequestId = _encodePriceRequest(sinkChainID, identifier, time, ancillaryData);\n        Price storage lookup = prices[priceRequestId];\n        require(lookup.state == RequestState.Resolved, \"Price has not been published\");\n        require(lookup.price == price, \"Unexpected price published\");\n    }\n\n    /***************************************************************\n     * Responding to a Price Request from L2:\n     ***************************************************************/\n\n    /**\n     * @notice This method will ultimately be called after a `requestPrice` has been bridged cross-chain from\n     * non-Mainnet to this network via an off-chain relayer. The relayer will call `Bridge.executeProposal` on this\n     * local network, which call `GenericHandler.executeProposal()` and ultimately this method.\n     * @dev This method should prepare this oracle to receive a published price and then forward the price request\n     * to the DVM. Can only be called by the `GenericHandler`.\n     */\n\n    function executeRequestPrice(\n        uint8 sinkChainID,\n        bytes32 identifier,\n        uint256 time,\n        bytes memory ancillaryData\n    ) public onlyGenericHandlerContract() {\n        _requestPrice(sinkChainID, identifier, time, ancillaryData);\n        _getOracle().requestPrice(identifier, time, ancillaryData);\n    }\n\n    /**\n     * @notice Convenience method to get cross-chain Bridge resource ID linking this contract with its SinkOracles.\n     * @dev More details about Resource ID's here: https://chainbridge.chainsafe.io/spec/#resource-id\n     * @return bytes32 Hash containing this stored chain ID.\n     */\n    function getResourceId() public view returns (bytes32) {\n        return keccak256(abi.encode(\"Oracle\", currentChainID));\n    }\n\n    /**\n     * @notice Return DVM for this network.\n     */\n    function _getOracle() internal view returns (OracleAncillaryInterface) {\n        return OracleAncillaryInterface(finder.getImplementationAddress(OracleInterfaces.Oracle));\n    }\n\n    /**\n     * @notice This helper method is useful for calling Bridge.deposit().\n     * @dev GenericHandler.deposit() expects data to be formatted as:\n     *     len(data)                              uint256     bytes  0  - 64\n     *     data                                   bytes       bytes  64 - END\n     */\n    function formatMetadata(\n        uint8 chainID,\n        bytes32 identifier,\n        uint256 time,\n        bytes memory ancillaryData,\n        int256 price\n    ) public pure returns (bytes memory) {\n        bytes memory metadata = abi.encode(chainID, identifier, time, ancillaryData, price);\n        return abi.encodePacked(metadata.length, metadata);\n    }\n}\n",
  "sourcePath": "/home/kamto/code/protocol/packages/core/contracts/chainbridge/SourceOracle.sol",
  "compiler": {
    "name": "solc",
    "version": "0.8.4+commit.c7e474f2.Emscripten.clang"
  },
  "schemaVersion": "3.3.4",
  "updatedAt": "2021-05-07T15:46:50.049Z",
  "devdoc": {
    "details": "The intended client of this contract is some off-chain bot watching for resolved price events on the DVM. Once that bot sees a price has resolved, it can call `publishPrice()` on this contract which will call the local Bridge contract to signal to an off-chain relayer to bridge a price request to another network.This contract must be a registered financial contract in order to call DVM methods.",
    "kind": "dev",
    "methods": {
      "executeRequestPrice(uint8,bytes32,uint256,bytes)": {
        "details": "This method should prepare this oracle to receive a published price and then forward the price request to the DVM. Can only be called by the `GenericHandler`."
      },
      "formatMetadata(uint8,bytes32,uint256,bytes,int256)": {
        "details": "GenericHandler.deposit() expects data to be formatted as:     len(data)                              uint256     bytes  0  - 64     data                                   bytes       bytes  64 - END"
      },
      "getResourceId()": {
        "details": "More details about Resource ID's here: https://chainbridge.chainsafe.io/spec/#resource-id",
        "returns": {
          "_0": "bytes32 Hash containing this stored chain ID."
        }
      },
      "publishPrice(uint8,bytes32,uint256,bytes)": {
        "details": "Publishes the DVM resolved price for the price request, or reverts if not resolved yet. Will call the local Bridge's deposit() method which will emit a Deposit event in order to signal to an off-chain relayer to begin the cross-chain process."
      },
      "validateDeposit(uint8,bytes32,uint256,bytes,int256)": {
        "details": "This method should basically check that the `Bridge.deposit()` was triggered by a valid publish event."
      }
    },
    "title": "Extension of BeaconOracle that is intended to be deployed on Mainnet to give financial contracts on non-Mainnet networks the ability to trigger cross-chain price requests to the Mainnet DVM. This contract is responsible for triggering price requests originating from non-Mainnet, and broadcasting resolved price data back to those networks. Technically, this contract is more of a Proxy than an Oracle, because it does not implement the full Oracle interface including the getPrice and requestPrice methods. It's goal is to shuttle price request functionality between L2 and L1.",
    "version": 1
  },
  "userdoc": {
    "kind": "user",
    "methods": {
      "executeRequestPrice(uint8,bytes32,uint256,bytes)": {
        "notice": "This method will ultimately be called after a `requestPrice` has been bridged cross-chain from non-Mainnet to this network via an off-chain relayer. The relayer will call `Bridge.executeProposal` on this local network, which call `GenericHandler.executeProposal()` and ultimately this method."
      },
      "formatMetadata(uint8,bytes32,uint256,bytes,int256)": {
        "notice": "This helper method is useful for calling Bridge.deposit()."
      },
      "getResourceId()": {
        "notice": "Convenience method to get cross-chain Bridge resource ID linking this contract with its SinkOracles."
      },
      "publishPrice(uint8,bytes32,uint256,bytes)": {
        "notice": "This is the first method that should be called in order to publish a price request to another network marked by `sinkChainID`."
      },
      "validateDeposit(uint8,bytes32,uint256,bytes,int256)": {
        "notice": "This method will ultimately be called after `publishPrice` calls `Bridge.deposit()`, which will call `GenericHandler.deposit()` and ultimately this method."
      }
    },
    "version": 1
  }
}