{
  "contractName": "Store",
  "abi": [
    {
      "inputs": [
        {
          "components": [
            {
              "internalType": "uint256",
              "name": "rawValue",
              "type": "uint256"
            }
          ],
          "internalType": "struct FixedPoint.Unsigned",
          "name": "_fixedOracleFeePerSecondPerPfc",
          "type": "tuple"
        },
        {
          "components": [
            {
              "internalType": "uint256",
              "name": "rawValue",
              "type": "uint256"
            }
          ],
          "internalType": "struct FixedPoint.Unsigned",
          "name": "_weeklyDelayFeePerSecondPerPfc",
          "type": "tuple"
        },
        {
          "internalType": "address",
          "name": "_timerAddress",
          "type": "address"
        }
      ],
      "stateMutability": "nonpayable",
      "type": "constructor"
    },
    {
      "anonymous": false,
      "inputs": [
        {
          "indexed": true,
          "internalType": "uint256",
          "name": "roleId",
          "type": "uint256"
        },
        {
          "indexed": true,
          "internalType": "address",
          "name": "newMember",
          "type": "address"
        },
        {
          "indexed": true,
          "internalType": "address",
          "name": "manager",
          "type": "address"
        }
      ],
      "name": "AddedSharedMember",
      "type": "event"
    },
    {
      "anonymous": false,
      "inputs": [
        {
          "components": [
            {
              "internalType": "uint256",
              "name": "rawValue",
              "type": "uint256"
            }
          ],
          "indexed": false,
          "internalType": "struct FixedPoint.Unsigned",
          "name": "newFinalFee",
          "type": "tuple"
        }
      ],
      "name": "NewFinalFee",
      "type": "event"
    },
    {
      "anonymous": false,
      "inputs": [
        {
          "components": [
            {
              "internalType": "uint256",
              "name": "rawValue",
              "type": "uint256"
            }
          ],
          "indexed": false,
          "internalType": "struct FixedPoint.Unsigned",
          "name": "newOracleFee",
          "type": "tuple"
        }
      ],
      "name": "NewFixedOracleFeePerSecondPerPfc",
      "type": "event"
    },
    {
      "anonymous": false,
      "inputs": [
        {
          "components": [
            {
              "internalType": "uint256",
              "name": "rawValue",
              "type": "uint256"
            }
          ],
          "indexed": false,
          "internalType": "struct FixedPoint.Unsigned",
          "name": "newWeeklyDelayFeePerSecondPerPfc",
          "type": "tuple"
        }
      ],
      "name": "NewWeeklyDelayFeePerSecondPerPfc",
      "type": "event"
    },
    {
      "anonymous": false,
      "inputs": [
        {
          "indexed": true,
          "internalType": "uint256",
          "name": "roleId",
          "type": "uint256"
        },
        {
          "indexed": true,
          "internalType": "address",
          "name": "oldMember",
          "type": "address"
        },
        {
          "indexed": true,
          "internalType": "address",
          "name": "manager",
          "type": "address"
        }
      ],
      "name": "RemovedSharedMember",
      "type": "event"
    },
    {
      "anonymous": false,
      "inputs": [
        {
          "indexed": true,
          "internalType": "uint256",
          "name": "roleId",
          "type": "uint256"
        },
        {
          "indexed": true,
          "internalType": "address",
          "name": "newMember",
          "type": "address"
        },
        {
          "indexed": true,
          "internalType": "address",
          "name": "manager",
          "type": "address"
        }
      ],
      "name": "ResetExclusiveMember",
      "type": "event"
    },
    {
      "inputs": [],
      "name": "SECONDS_PER_WEEK",
      "outputs": [
        {
          "internalType": "uint256",
          "name": "",
          "type": "uint256"
        }
      ],
      "stateMutability": "view",
      "type": "function",
      "constant": true
    },
    {
      "inputs": [
        {
          "internalType": "uint256",
          "name": "roleId",
          "type": "uint256"
        },
        {
          "internalType": "address",
          "name": "newMember",
          "type": "address"
        }
      ],
      "name": "addMember",
      "outputs": [],
      "stateMutability": "nonpayable",
      "type": "function"
    },
    {
      "inputs": [
        {
          "internalType": "address",
          "name": "",
          "type": "address"
        }
      ],
      "name": "finalFees",
      "outputs": [
        {
          "internalType": "uint256",
          "name": "rawValue",
          "type": "uint256"
        }
      ],
      "stateMutability": "view",
      "type": "function",
      "constant": true
    },
    {
      "inputs": [],
      "name": "fixedOracleFeePerSecondPerPfc",
      "outputs": [
        {
          "internalType": "uint256",
          "name": "rawValue",
          "type": "uint256"
        }
      ],
      "stateMutability": "view",
      "type": "function",
      "constant": true
    },
    {
      "inputs": [],
      "name": "getCurrentTime",
      "outputs": [
        {
          "internalType": "uint256",
          "name": "",
          "type": "uint256"
        }
      ],
      "stateMutability": "view",
      "type": "function",
      "constant": true
    },
    {
      "inputs": [
        {
          "internalType": "uint256",
          "name": "roleId",
          "type": "uint256"
        }
      ],
      "name": "getMember",
      "outputs": [
        {
          "internalType": "address",
          "name": "",
          "type": "address"
        }
      ],
      "stateMutability": "view",
      "type": "function",
      "constant": true
    },
    {
      "inputs": [
        {
          "internalType": "uint256",
          "name": "roleId",
          "type": "uint256"
        },
        {
          "internalType": "address",
          "name": "memberToCheck",
          "type": "address"
        }
      ],
      "name": "holdsRole",
      "outputs": [
        {
          "internalType": "bool",
          "name": "",
          "type": "bool"
        }
      ],
      "stateMutability": "view",
      "type": "function",
      "constant": true
    },
    {
      "inputs": [
        {
          "internalType": "uint256",
          "name": "roleId",
          "type": "uint256"
        },
        {
          "internalType": "address",
          "name": "memberToRemove",
          "type": "address"
        }
      ],
      "name": "removeMember",
      "outputs": [],
      "stateMutability": "nonpayable",
      "type": "function"
    },
    {
      "inputs": [
        {
          "internalType": "uint256",
          "name": "roleId",
          "type": "uint256"
        }
      ],
      "name": "renounceMembership",
      "outputs": [],
      "stateMutability": "nonpayable",
      "type": "function"
    },
    {
      "inputs": [
        {
          "internalType": "uint256",
          "name": "roleId",
          "type": "uint256"
        },
        {
          "internalType": "address",
          "name": "newMember",
          "type": "address"
        }
      ],
      "name": "resetMember",
      "outputs": [],
      "stateMutability": "nonpayable",
      "type": "function"
    },
    {
      "inputs": [
        {
          "internalType": "uint256",
          "name": "time",
          "type": "uint256"
        }
      ],
      "name": "setCurrentTime",
      "outputs": [],
      "stateMutability": "nonpayable",
      "type": "function"
    },
    {
      "inputs": [],
      "name": "timerAddress",
      "outputs": [
        {
          "internalType": "address",
          "name": "",
          "type": "address"
        }
      ],
      "stateMutability": "view",
      "type": "function",
      "constant": true
    },
    {
      "inputs": [],
      "name": "weeklyDelayFeePerSecondPerPfc",
      "outputs": [
        {
          "internalType": "uint256",
          "name": "rawValue",
          "type": "uint256"
        }
      ],
      "stateMutability": "view",
      "type": "function",
      "constant": true
    },
    {
      "inputs": [
        {
          "internalType": "uint256",
          "name": "amount",
          "type": "uint256"
        }
      ],
      "name": "withdraw",
      "outputs": [],
      "stateMutability": "nonpayable",
      "type": "function"
    },
    {
      "inputs": [
        {
          "internalType": "address",
          "name": "erc20Address",
          "type": "address"
        },
        {
          "internalType": "uint256",
          "name": "amount",
          "type": "uint256"
        }
      ],
      "name": "withdrawErc20",
      "outputs": [],
      "stateMutability": "nonpayable",
      "type": "function"
    },
    {
      "inputs": [],
      "name": "payOracleFees",
      "outputs": [],
      "stateMutability": "payable",
      "type": "function",
      "payable": true
    },
    {
      "inputs": [
        {
          "internalType": "address",
          "name": "erc20Address",
          "type": "address"
        },
        {
          "components": [
            {
              "internalType": "uint256",
              "name": "rawValue",
              "type": "uint256"
            }
          ],
          "internalType": "struct FixedPoint.Unsigned",
          "name": "amount",
          "type": "tuple"
        }
      ],
      "name": "payOracleFeesErc20",
      "outputs": [],
      "stateMutability": "nonpayable",
      "type": "function"
    },
    {
      "inputs": [
        {
          "internalType": "uint256",
          "name": "startTime",
          "type": "uint256"
        },
        {
          "internalType": "uint256",
          "name": "endTime",
          "type": "uint256"
        },
        {
          "components": [
            {
              "internalType": "uint256",
              "name": "rawValue",
              "type": "uint256"
            }
          ],
          "internalType": "struct FixedPoint.Unsigned",
          "name": "pfc",
          "type": "tuple"
        }
      ],
      "name": "computeRegularFee",
      "outputs": [
        {
          "components": [
            {
              "internalType": "uint256",
              "name": "rawValue",
              "type": "uint256"
            }
          ],
          "internalType": "struct FixedPoint.Unsigned",
          "name": "regularFee",
          "type": "tuple"
        },
        {
          "components": [
            {
              "internalType": "uint256",
              "name": "rawValue",
              "type": "uint256"
            }
          ],
          "internalType": "struct FixedPoint.Unsigned",
          "name": "latePenalty",
          "type": "tuple"
        }
      ],
      "stateMutability": "view",
      "type": "function",
      "constant": true
    },
    {
      "inputs": [
        {
          "internalType": "address",
          "name": "currency",
          "type": "address"
        }
      ],
      "name": "computeFinalFee",
      "outputs": [
        {
          "components": [
            {
              "internalType": "uint256",
              "name": "rawValue",
              "type": "uint256"
            }
          ],
          "internalType": "struct FixedPoint.Unsigned",
          "name": "",
          "type": "tuple"
        }
      ],
      "stateMutability": "view",
      "type": "function",
      "constant": true
    },
    {
      "inputs": [
        {
          "components": [
            {
              "internalType": "uint256",
              "name": "rawValue",
              "type": "uint256"
            }
          ],
          "internalType": "struct FixedPoint.Unsigned",
          "name": "newFixedOracleFeePerSecondPerPfc",
          "type": "tuple"
        }
      ],
      "name": "setFixedOracleFeePerSecondPerPfc",
      "outputs": [],
      "stateMutability": "nonpayable",
      "type": "function"
    },
    {
      "inputs": [
        {
          "components": [
            {
              "internalType": "uint256",
              "name": "rawValue",
              "type": "uint256"
            }
          ],
          "internalType": "struct FixedPoint.Unsigned",
          "name": "newWeeklyDelayFeePerSecondPerPfc",
          "type": "tuple"
        }
      ],
      "name": "setWeeklyDelayFeePerSecondPerPfc",
      "outputs": [],
      "stateMutability": "nonpayable",
      "type": "function"
    },
    {
      "inputs": [
        {
          "internalType": "address",
          "name": "currency",
          "type": "address"
        },
        {
          "components": [
            {
              "internalType": "uint256",
              "name": "rawValue",
              "type": "uint256"
            }
          ],
          "internalType": "struct FixedPoint.Unsigned",
          "name": "newFinalFee",
          "type": "tuple"
        }
      ],
      "name": "setFinalFee",
      "outputs": [],
      "stateMutability": "nonpayable",
      "type": "function"
    }
  ],
  "bytecode": "0x60806040523480156200001157600080fd5b5060405162001ff038038062001ff0833981016040819052620000349162000685565b600280546001600160a01b0319166001600160a01b0383161790556200005d600080336200008b565b6200006c600160003362000205565b62000077836200021c565b620000828262000319565b5050506200070b565b826000808281526020819052604090206001015460ff166002811115620000c257634e487b7160e01b600052602160045260246000fd5b14620001155760405162461bcd60e51b815260206004820152601e60248201527f43616e6e6f74207573652061207072652d6578697374696e6720726f6c65000060448201526064015b60405180910390fd5b60008481526020819052604090206001808201805460ff19168280021790555083815562000153600282018462000410602090811b62000e4a17901c565b60008481526020819052604081206001015460ff1660028111156200018857634e487b7160e01b600052602160045260246000fd5b1415620001fe5760405162461bcd60e51b815260206004820152603c60248201527f417474656d7074656420746f2075736520616e20696e76616c696420726f6c6560448201527f20746f206d616e61676520616e206578636c757369766520726f6c650000000060648201526084016200010c565b5050505050565b6001839055620002178383836200008b565b505050565b60006200022a813362000420565b620002725760405162461bcd60e51b8152602060048201526022602482015260008051602062001fd08339815191526044820152616c6560f01b60648201526084016200010c565b6200028d6001836200051260201b62000e541790919060201c565b620002db5760405162461bcd60e51b815260206004820152601e60248201527f466565206d757374206265203c203130302520706572207365636f6e642e000060448201526064016200010c565b815160038190556040519081527e41cf46cedaae9927def5c0647b190fd958c8ab8cde4219dad74319bc05d3d9906020015b60405180910390a15050565b600062000327813362000420565b6200036f5760405162461bcd60e51b8152602060048201526022602482015260008051602062001fd08339815191526044820152616c6560f01b60648201526084016200010c565b6200038a6001836200051260201b62000e541790919060201c565b620003d85760405162461bcd60e51b815260206004820152601f60248201527f7765656b6c792064656c617920666565206d757374206265203c20313030250060448201526064016200010c565b815160048190556040519081527f2e6cd3e6f7808568620c647ac0e652b0e95bef2494692adbc118fbbd02a8e82e906020016200030d565b6200041c82826200052b565b5050565b600082815260208190526040812060018082015460ff1660028111156200045757634e487b7160e01b600052602160045260246000fd5b141562000484576200047b8382600201620005ac60201b62000e6b1790919060201c565b9150506200050c565b6002600182015460ff166002811115620004ae57634e487b7160e01b600052602160045260246000fd5b1415620004d2576200047b8382600301620005bf60201b62000e7e1790919060201c565b60405162461bcd60e51b815260206004820152600e60248201526d125b9d985b1a59081c9bdb19525960921b60448201526064016200010c565b92915050565b60006200051f82620005de565b51835110905092915050565b6001600160a01b0381166200058f5760405162461bcd60e51b815260206004820152602360248201527f43616e6e6f742073657420616e206578636c757369766520726f6c6520746f2060448201526203078360ec1b60648201526084016200010c565b81546001600160a01b0319166001600160a01b0391909116179055565b90546001600160a01b0391821691161490565b6001600160a01b03166000908152602091909152604090205460ff1690565b60408051602081019091526000815260405180602001604052806200061a670de0b6b3a7640000856200062260201b62000e9d1790919060201c565b905292915050565b6000620006308284620006df565b9392505050565b60006020828403121562000649578081fd5b604051602081016001600160401b03811182821017156200067857634e487b7160e01b83526041600452602483fd5b6040529151825250919050565b6000806000606084860312156200069a578283fd5b620006a6858562000637565b9250620006b7856020860162000637565b60408501519092506001600160a01b0381168114620006d4578182fd5b809150509250925092565b60008160001904831182151516156200070657634e487b7160e01b81526011600452602481fd5b500290565b6118b5806200071b6000396000f3fe6080604052600436106101355760003560e01c80637d69dfdb116100ab578063ab3545e51161006f578063ab3545e5146103b1578063acb6f6cb146103d1578063b187487d146103f1578063bd1f4b5214610411578063cd3a9b2414610431578063d97c05be1461043957600080fd5b80637d69dfdb146103235780637e7e591d1461033a57806384ae2a741461035a5780638659d23214610371578063aaa14ca31461039157600080fd5b80635b97aadd116100fd5780635b97aadd146101f35780636be7658b146102515780636f356f4a1461027157806374201feb1461029e57806374d0a676146102d35780637cdc1cb9146102f357600080fd5b80631c39c38d1461013a57806322f8e5661461017757806329cb924d146101995780632e1a7d4d146101bc5780632fee2098146101dc575b600080fd5b34801561014657600080fd5b5060025461015a906001600160a01b031681565b6040516001600160a01b0390911681526020015b60405180910390f35b34801561018357600080fd5b506101976101923660046115f0565b610459565b005b3480156101a557600080fd5b506101ae6104cf565b60405190815260200161016e565b3480156101c857600080fd5b506101976101d73660046115f0565b610573565b3480156101e857600080fd5b506003546101ae9081565b3480156101ff57600080fd5b5061024261020e366004611515565b60408051602080820183526000918290526001600160a01b0393909316815260058352819020815192830190915254815290565b6040519051815260200161016e565b34801561025d57600080fd5b5061019761026c366004611620565b6105b3565b34801561027d57600080fd5b506101ae61028c366004611515565b60056020526000908152604090205481565b3480156102aa57600080fd5b506102be6102b9366004611642565b610697565b6040805192518352905160208301520161016e565b3480156102df57600080fd5b506101976102ee366004611620565b61075d565b3480156102ff57600080fd5b5061031361030e366004611620565b610841565b604051901515815260200161016e565b34801561032f57600080fd5b506004546101ae9081565b34801561034657600080fd5b50610197610355366004611562565b610914565b34801561036657600080fd5b506101ae62093a8081565b34801561037d57600080fd5b5061019761038c36600461152f565b610998565b34801561039d57600080fd5b506101976103ac3660046115f0565b610a1a565b3480156103bd57600080fd5b5061015a6103cc3660046115f0565b610ae4565b3480156103dd57600080fd5b506101976103ec3660046115d5565b610b5d565b3480156103fd57600080fd5b5061019761040c3660046115d5565b610c1a565b34801561041d57600080fd5b5061019761042c36600461158c565b610cd0565b610197610d14565b34801561044557600080fd5b50610197610454366004611620565b610d66565b6002546001600160a01b031661046e57600080fd5b60025460405163117c72b360e11b8152600481018390526001600160a01b03909116906322f8e56690602401600060405180830381600087803b1580156104b457600080fd5b505af11580156104c8573d6000803e3d6000fd5b5050505050565b6002546000906001600160a01b03161561056e57600260009054906101000a90046001600160a01b03166001600160a01b03166329cb924d6040518163ffffffff1660e01b815260040160206040518083038186803b15801561053157600080fd5b505afa158015610545573d6000803e3d6000fd5b505050506040513d601f19601f820116820180604052508101906105699190611608565b905090565b504290565b6001546105808133610841565b6105a55760405162461bcd60e51b815260040161059c90611761565b60405180910390fd5b6105af3383610ea9565b5050565b81600260008281526020819052604090206001015460ff1660028111156105ea57634e487b7160e01b600052602160045260246000fd5b146106075760405162461bcd60e51b815260040161059c90611715565b60008381526020819052604090205483906106229033610841565b61063e5760405162461bcd60e51b815260040161059c906117a3565b60008481526020819052604090206106599060030184610fc2565b60405133906001600160a01b0385169086907feb3e33034c392e69263b04ec0fa376dc12784a41b6676c7f31b936cbc0fbb5af90600090a450505050565b60408051602081019091526000815260408051602081019091526000815260006106c18587610fe4565b604080516020810190915260035481529091506106f7906106f1836106eb368990038901896115d5565b90610ff0565b90611021565b9250600061070d876107076104cf565b90610fe4565b905060006107376107218362093a8061105e565b6040805160208101909152600454815290610ff0565b9050610750816106f1856106eb368b90038b018b6115d5565b9350505050935093915050565b81600260008281526020819052604090206001015460ff16600281111561079457634e487b7160e01b600052602160045260246000fd5b146107b15760405162461bcd60e51b815260040161059c90611715565b60008381526020819052604090205483906107cc9033610841565b6107e85760405162461bcd60e51b815260040161059c906117a3565b6000848152602081905260409020610803906003018461106a565b60405133906001600160a01b0385169086907f63502af7324ff6db91ab38f8236a648727d9385ea6c782073dd4882d8a61a48f90600090a450505050565b600082815260208190526040812060018082015460ff16600281111561087757634e487b7160e01b600052602160045260246000fd5b14156108995760028101546001600160a01b038481169116145b91505061090e565b6002600182015460ff1660028111156108c257634e487b7160e01b600052602160045260246000fd5b14156108d5576108916003820184610e7e565b60405162461bcd60e51b815260206004820152600e60248201526d125b9d985b1a59081c9bdb19525960921b604482015260640161059c565b92915050565b60006109208133610841565b61093c5760405162461bcd60e51b815260040161059c90611761565b6001600160a01b0383166000908152600560205260409081902083519055517f98c807f575ae6584ff8200eaf3205f3f20abf9c954fff030c152f5e7c5446d6e9061098b908451815260200190565b60405180910390a1505050565b816109b360006109ad368590038501856115d5565b906110e5565b6109ff5760405162461bcd60e51b815260206004820152601960248201527f416d6f756e742073656e742063616e2774206265207a65726f00000000000000604482015260640161059c565b610a156001600160a01b038216333085356110fc565b505050565b80600260008281526020819052604090206001015460ff166002811115610a5157634e487b7160e01b600052602160045260246000fd5b14610a6e5760405162461bcd60e51b815260040161059c90611715565b81610a798133610841565b610a955760405162461bcd60e51b815260040161059c90611761565b6000838152602081905260409020610ab09060030133610fc2565b6040513390819085907feb3e33034c392e69263b04ec0fa376dc12784a41b6676c7f31b936cbc0fbb5af90600090a4505050565b600081600160008281526020819052604090206001015460ff166002811115610b1d57634e487b7160e01b600052602160045260246000fd5b14610b3a5760405162461bcd60e51b815260040161059c906116c6565b6000838152602081905260409020600201546001600160a01b03165b9392505050565b6000610b698133610841565b610b855760405162461bcd60e51b815260040161059c90611761565b610b90826001610e54565b610bdc5760405162461bcd60e51b815260206004820152601e60248201527f466565206d757374206265203c203130302520706572207365636f6e642e0000604482015260640161059c565b815160038190556040519081527e41cf46cedaae9927def5c0647b190fd958c8ab8cde4219dad74319bc05d3d9906020015b60405180910390a15050565b6000610c268133610841565b610c425760405162461bcd60e51b815260040161059c90611761565b610c4d826001610e54565b610c995760405162461bcd60e51b815260206004820152601f60248201527f7765656b6c792064656c617920666565206d757374206265203c203130302500604482015260640161059c565b815160048190556040519081527f2e6cd3e6f7808568620c647ac0e652b0e95bef2494692adbc118fbbd02a8e82e90602001610c0e565b600154610cdd8133610841565b610cf95760405162461bcd60e51b815260040161059c90611761565b82610d0e6001600160a01b0382163385611167565b50505050565b60003411610d645760405162461bcd60e51b815260206004820152601860248201527f56616c75652073656e742063616e2774206265207a65726f0000000000000000604482015260640161059c565b565b81600160008281526020819052604090206001015460ff166002811115610d9d57634e487b7160e01b600052602160045260246000fd5b14610dba5760405162461bcd60e51b815260040161059c906116c6565b6000838152602081905260409020548390610dd59033610841565b610df15760405162461bcd60e51b815260040161059c906117a3565b6000848152602081905260409020610e0c9060020184611197565b60405133906001600160a01b0385169086907f3b855c56b409b671c7112789d022675eb639d0bcb8896f1b6197c132f799e74690600090a450505050565b6105af8282611197565b6000610e5f82611216565b51835110905092915050565b90546001600160a01b0391821691161490565b6001600160a01b03166000908152602091909152604090205460ff1690565b6000610b568284611807565b80471015610ef95760405162461bcd60e51b815260206004820152601d60248201527f416464726573733a20696e73756666696369656e742062616c616e6365000000604482015260640161059c565b6000826001600160a01b03168260405160006040518083038185875af1925050503d8060008114610f46576040519150601f19603f3d011682016040523d82523d6000602084013e610f4b565b606091505b5050905080610a155760405162461bcd60e51b815260206004820152603a60248201527f416464726573733a20756e61626c6520746f2073656e642076616c75652c207260448201527f6563697069656e74206d61792068617665207265766572746564000000000000606482015260840161059c565b6001600160a01b0316600090815260209190915260409020805460ff19169055565b6000610b568284611826565b6040805160208101909152600081526040805160208101909152835181906110189085610e9d565b90529392505050565b6040805160208101909152600081526040805160208101909152825184518291670de0b6b3a76400009161105491610e9d565b61101891906117e7565b6000610b5682846117e7565b6001600160a01b0381166110c05760405162461bcd60e51b815260206004820152601f60248201527f43616e6e6f74206164642030783020746f20612073686172656420726f6c6500604482015260640161059c565b6001600160a01b0316600090815260209190915260409020805460ff19166001179055565b60006110f082611216565b51835111905092915050565b6040516001600160a01b0380851660248301528316604482015260648101829052610d0e9085906323b872dd60e01b906084015b60408051601f198184030181529190526020810180516001600160e01b03166001600160e01b03199093169290921790915261124b565b6040516001600160a01b038316602482015260448101829052610a1590849063a9059cbb60e01b90606401611130565b6001600160a01b0381166111f95760405162461bcd60e51b815260206004820152602360248201527f43616e6e6f742073657420616e206578636c757369766520726f6c6520746f2060448201526203078360ec1b606482015260840161059c565b81546001600160a01b0319166001600160a01b0391909116179055565b60408051602081019091526000815260408051602081019091528061124384670de0b6b3a7640000610e9d565b905292915050565b60006112a0826040518060400160405280602081526020017f5361666545524332303a206c6f772d6c6576656c2063616c6c206661696c6564815250856001600160a01b031661131d9092919063ffffffff16565b805190915015610a1557808060200190518101906112be91906115b5565b610a155760405162461bcd60e51b815260206004820152602a60248201527f5361666545524332303a204552433230206f7065726174696f6e20646964206e6044820152691bdd081cdd58d8d9595960b21b606482015260840161059c565b606061132c8484600085611334565b949350505050565b6060824710156113955760405162461bcd60e51b815260206004820152602660248201527f416464726573733a20696e73756666696369656e742062616c616e636520666f6044820152651c8818d85b1b60d21b606482015260840161059c565b843b6113e35760405162461bcd60e51b815260206004820152601d60248201527f416464726573733a2063616c6c20746f206e6f6e2d636f6e7472616374000000604482015260640161059c565b600080866001600160a01b031685876040516113ff9190611677565b60006040518083038185875af1925050503d806000811461143c576040519150601f19603f3d011682016040523d82523d6000602084013e611441565b606091505b509150915061145182828661145c565b979650505050505050565b6060831561146b575081610b56565b82511561147b5782518084602001fd5b8160405162461bcd60e51b815260040161059c9190611693565b80356001600160a01b03811681146114ac57600080fd5b919050565b6000602082840312156114c2578081fd5b50919050565b6000602082840312156114d9578081fd5b6040516020810181811067ffffffffffffffff8211171561150857634e487b7160e01b83526041600452602483fd5b6040529135825250919050565b600060208284031215611526578081fd5b610b5682611495565b60008060408385031215611541578081fd5b61154a83611495565b915061155984602085016114b1565b90509250929050565b60008060408385031215611574578182fd5b61157d83611495565b915061155984602085016114c8565b6000806040838503121561159e578182fd5b6115a783611495565b946020939093013593505050565b6000602082840312156115c6578081fd5b81518015158114610b56578182fd5b6000602082840312156115e6578081fd5b610b5683836114c8565b600060208284031215611601578081fd5b5035919050565b600060208284031215611619578081fd5b5051919050565b60008060408385031215611632578182fd5b8235915061155960208401611495565b600080600060608486031215611656578081fd5b833592506020840135915061166e85604086016114b1565b90509250925092565b6000825161168981846020870161183d565b9190910192915050565b60208152600082518060208401526116b281604085016020870161183d565b601f01601f19169190910160400192915050565b6020808252602f908201527f4d7573742062652063616c6c6564206f6e20616e20696e697469616c697a656460408201526e204578636c757369766520726f6c6560881b606082015260800190565b6020808252602c908201527f4d7573742062652063616c6c6564206f6e20616e20696e697469616c697a656460408201526b2053686172656420726f6c6560a01b606082015260800190565b60208082526022908201527f53656e64657220646f6573206e6f7420686f6c6420726571756972656420726f6040820152616c6560f01b606082015260800190565b60208082526024908201527f43616e206f6e6c792062652063616c6c6564206279206120726f6c65206d616e60408201526330b3b2b960e11b606082015260800190565b60008261180257634e487b7160e01b81526012600452602481fd5b500490565b600081600019048311821515161561182157611821611869565b500290565b60008282101561183857611838611869565b500390565b60005b83811015611858578181015183820152602001611840565b83811115610d0e5750506000910152565b634e487b7160e01b600052601160045260246000fdfea2646970667358221220e711ac86787edbb28807efa3ee1c639a06f37129f0bd531743f1d33b561f122b64736f6c6343000804003353656e64657220646f6573206e6f7420686f6c6420726571756972656420726f",
  "immutableReferences": {},
  "source": "// SPDX-License-Identifier: AGPL-3.0-only\npragma solidity ^0.8.0;\npragma abicoder v2;\n\nimport \"@openzeppelin/contracts/utils/math/SafeMath.sol\";\nimport \"@openzeppelin/contracts/token/ERC20/IERC20.sol\";\nimport \"@openzeppelin/contracts/token/ERC20/utils/SafeERC20.sol\";\nimport \"../../common/implementation/FixedPoint.sol\";\nimport \"../../common/implementation/MultiRole.sol\";\nimport \"../../common/implementation/Withdrawable.sol\";\nimport \"../../common/implementation/Testable.sol\";\nimport \"../interfaces/StoreInterface.sol\";\n\n/**\n * @title An implementation of Store that can accept Oracle fees in ETH or any arbitrary ERC20 token.\n */\ncontract Store is StoreInterface, Withdrawable, Testable {\n    using SafeMath for uint256;\n    using FixedPoint for FixedPoint.Unsigned;\n    using FixedPoint for uint256;\n    using SafeERC20 for IERC20;\n\n    /****************************************\n     *    INTERNAL VARIABLES AND STORAGE    *\n     ****************************************/\n\n    enum Roles { Owner, Withdrawer }\n\n    FixedPoint.Unsigned public fixedOracleFeePerSecondPerPfc; // Percentage of 1 E.g., .1 is 10% Oracle fee.\n    FixedPoint.Unsigned public weeklyDelayFeePerSecondPerPfc; // Percentage of 1 E.g., .1 is 10% weekly delay fee.\n\n    mapping(address => FixedPoint.Unsigned) public finalFees;\n    uint256 public constant SECONDS_PER_WEEK = 604800;\n\n    /****************************************\n     *                EVENTS                *\n     ****************************************/\n\n    event NewFixedOracleFeePerSecondPerPfc(FixedPoint.Unsigned newOracleFee);\n    event NewWeeklyDelayFeePerSecondPerPfc(FixedPoint.Unsigned newWeeklyDelayFeePerSecondPerPfc);\n    event NewFinalFee(FixedPoint.Unsigned newFinalFee);\n\n    /**\n     * @notice Construct the Store contract.\n     */\n    constructor(\n        FixedPoint.Unsigned memory _fixedOracleFeePerSecondPerPfc,\n        FixedPoint.Unsigned memory _weeklyDelayFeePerSecondPerPfc,\n        address _timerAddress\n    ) Testable(_timerAddress) {\n        _createExclusiveRole(uint256(Roles.Owner), uint256(Roles.Owner), msg.sender);\n        _createWithdrawRole(uint256(Roles.Withdrawer), uint256(Roles.Owner), msg.sender);\n        setFixedOracleFeePerSecondPerPfc(_fixedOracleFeePerSecondPerPfc);\n        setWeeklyDelayFeePerSecondPerPfc(_weeklyDelayFeePerSecondPerPfc);\n    }\n\n    /****************************************\n     *  ORACLE FEE CALCULATION AND PAYMENT  *\n     ****************************************/\n\n    /**\n     * @notice Pays Oracle fees in ETH to the store.\n     * @dev To be used by contracts whose margin currency is ETH.\n     */\n    function payOracleFees() external payable override {\n        require(msg.value > 0, \"Value sent can't be zero\");\n    }\n\n    /**\n     * @notice Pays oracle fees in the margin currency, erc20Address, to the store.\n     * @dev To be used if the margin currency is an ERC20 token rather than ETH.\n     * @param erc20Address address of the ERC20 token used to pay the fee.\n     * @param amount number of tokens to transfer. An approval for at least this amount must exist.\n     */\n    function payOracleFeesErc20(address erc20Address, FixedPoint.Unsigned calldata amount) external override {\n        IERC20 erc20 = IERC20(erc20Address);\n        require(amount.isGreaterThan(0), \"Amount sent can't be zero\");\n        erc20.safeTransferFrom(msg.sender, address(this), amount.rawValue);\n    }\n\n    /**\n     * @notice Computes the regular oracle fees that a contract should pay for a period.\n     * @dev The late penalty is similar to the regular fee in that is is charged per second over the period between\n     * startTime and endTime.\n     *\n     * The late penalty percentage increases over time as follows:\n     *\n     * - 0-1 week since startTime: no late penalty\n     *\n     * - 1-2 weeks since startTime: 1x late penalty percentage is applied\n     *\n     * - 2-3 weeks since startTime: 2x late penalty percentage is applied\n     *\n     * - ...\n     *\n     * @param startTime defines the beginning time from which the fee is paid.\n     * @param endTime end time until which the fee is paid.\n     * @param pfc \"profit from corruption\", or the maximum amount of margin currency that a\n     * token sponsor could extract from the contract through corrupting the price feed in their favor.\n     * @return regularFee amount owed for the duration from start to end time for the given pfc.\n     * @return latePenalty penalty percentage, if any, for paying the fee after the deadline.\n     */\n    function computeRegularFee(\n        uint256 startTime,\n        uint256 endTime,\n        FixedPoint.Unsigned calldata pfc\n    ) external view override returns (FixedPoint.Unsigned memory regularFee, FixedPoint.Unsigned memory latePenalty) {\n        uint256 timeDiff = endTime.sub(startTime);\n\n        // Multiply by the unscaled `timeDiff` first, to get more accurate results.\n        regularFee = pfc.mul(timeDiff).mul(fixedOracleFeePerSecondPerPfc);\n\n        // Compute how long ago the start time was to compute the delay penalty.\n        uint256 paymentDelay = getCurrentTime().sub(startTime);\n\n        // Compute the additional percentage (per second) that will be charged because of the penalty.\n        // Note: if less than a week has gone by since the startTime, paymentDelay / SECONDS_PER_WEEK will truncate to\n        // 0, causing no penalty to be charged.\n        FixedPoint.Unsigned memory penaltyPercentagePerSecond =\n            weeklyDelayFeePerSecondPerPfc.mul(paymentDelay.div(SECONDS_PER_WEEK));\n\n        // Apply the penaltyPercentagePerSecond to the payment period.\n        latePenalty = pfc.mul(timeDiff).mul(penaltyPercentagePerSecond);\n    }\n\n    /**\n     * @notice Computes the final oracle fees that a contract should pay at settlement.\n     * @param currency token used to pay the final fee.\n     * @return finalFee amount due denominated in units of `currency`.\n     */\n    function computeFinalFee(address currency) external view override returns (FixedPoint.Unsigned memory) {\n        return finalFees[currency];\n    }\n\n    /****************************************\n     *   ADMIN STATE MODIFYING FUNCTIONS    *\n     ****************************************/\n\n    /**\n     * @notice Sets a new oracle fee per second.\n     * @param newFixedOracleFeePerSecondPerPfc new fee per second charged to use the oracle.\n     */\n    function setFixedOracleFeePerSecondPerPfc(FixedPoint.Unsigned memory newFixedOracleFeePerSecondPerPfc)\n        public\n        onlyRoleHolder(uint256(Roles.Owner))\n    {\n        // Oracle fees at or over 100% don't make sense.\n        require(newFixedOracleFeePerSecondPerPfc.isLessThan(1), \"Fee must be < 100% per second.\");\n        fixedOracleFeePerSecondPerPfc = newFixedOracleFeePerSecondPerPfc;\n        emit NewFixedOracleFeePerSecondPerPfc(newFixedOracleFeePerSecondPerPfc);\n    }\n\n    /**\n     * @notice Sets a new weekly delay fee.\n     * @param newWeeklyDelayFeePerSecondPerPfc fee escalation per week of late fee payment.\n     */\n    function setWeeklyDelayFeePerSecondPerPfc(FixedPoint.Unsigned memory newWeeklyDelayFeePerSecondPerPfc)\n        public\n        onlyRoleHolder(uint256(Roles.Owner))\n    {\n        require(newWeeklyDelayFeePerSecondPerPfc.isLessThan(1), \"weekly delay fee must be < 100%\");\n        weeklyDelayFeePerSecondPerPfc = newWeeklyDelayFeePerSecondPerPfc;\n        emit NewWeeklyDelayFeePerSecondPerPfc(newWeeklyDelayFeePerSecondPerPfc);\n    }\n\n    /**\n     * @notice Sets a new final fee for a particular currency.\n     * @param currency defines the token currency used to pay the final fee.\n     * @param newFinalFee final fee amount.\n     */\n    function setFinalFee(address currency, FixedPoint.Unsigned memory newFinalFee)\n        public\n        onlyRoleHolder(uint256(Roles.Owner))\n    {\n        finalFees[currency] = newFinalFee;\n        emit NewFinalFee(newFinalFee);\n    }\n}\n",
  "sourcePath": "/home/kamto/code/protocol/packages/core/contracts/oracle/implementation/Store.sol",
  "compiler": {
    "name": "solc",
    "version": "0.8.4+commit.c7e474f2.Emscripten.clang"
  },
  "schemaVersion": "3.3.4",
  "updatedAt": "2021-05-07T21:34:08.544Z",
  "networkType": "ethereum",
  "devdoc": {
    "kind": "dev",
    "methods": {
      "addMember(uint256,address)": {
        "details": "Reverts if `roleId` does not represent an initialized, SharedRole or if the caller is not a member of the managing role for `roleId`.",
        "params": {
          "newMember": "the new SharedRole member.",
          "roleId": "the SharedRole membership to modify."
        }
      },
      "computeFinalFee(address)": {
        "params": {
          "currency": "token used to pay the final fee."
        },
        "returns": {
          "_0": "finalFee amount due denominated in units of `currency`."
        }
      },
      "computeRegularFee(uint256,uint256,(uint256))": {
        "details": "The late penalty is similar to the regular fee in that is is charged per second over the period between startTime and endTime. The late penalty percentage increases over time as follows: - 0-1 week since startTime: no late penalty - 1-2 weeks since startTime: 1x late penalty percentage is applied - 2-3 weeks since startTime: 2x late penalty percentage is applied - ...",
        "params": {
          "endTime": "end time until which the fee is paid.",
          "pfc": "\"profit from corruption\", or the maximum amount of margin currency that a token sponsor could extract from the contract through corrupting the price feed in their favor.",
          "startTime": "defines the beginning time from which the fee is paid."
        },
        "returns": {
          "latePenalty": "penalty percentage, if any, for paying the fee after the deadline.",
          "regularFee": "amount owed for the duration from start to end time for the given pfc."
        }
      },
      "getCurrentTime()": {
        "returns": {
          "_0": "uint for the current Testable timestamp."
        }
      },
      "getMember(uint256)": {
        "details": "Reverts if `roleId` does not represent an initialized, exclusive role.",
        "params": {
          "roleId": "the ExclusiveRole membership to check."
        },
        "returns": {
          "_0": "the address of the current ExclusiveRole member."
        }
      },
      "holdsRole(uint256,address)": {
        "details": "Reverts if roleId does not correspond to an initialized role.",
        "params": {
          "memberToCheck": "the address to check.",
          "roleId": "the Role to check."
        },
        "returns": {
          "_0": "True if `memberToCheck` is a member of `roleId`."
        }
      },
      "payOracleFees()": {
        "details": "To be used by contracts whose margin currency is ETH."
      },
      "payOracleFeesErc20(address,(uint256))": {
        "details": "To be used if the margin currency is an ERC20 token rather than ETH.",
        "params": {
          "amount": "number of tokens to transfer. An approval for at least this amount must exist.",
          "erc20Address": "address of the ERC20 token used to pay the fee."
        }
      },
      "removeMember(uint256,address)": {
        "details": "Reverts if `roleId` does not represent an initialized, SharedRole or if the caller is not a member of the managing role for `roleId`.",
        "params": {
          "memberToRemove": "the current SharedRole member to remove.",
          "roleId": "the SharedRole membership to modify."
        }
      },
      "renounceMembership(uint256)": {
        "details": "Reverts if the caller is not a member of the role for `roleId` or if `roleId` is not an initialized, SharedRole.",
        "params": {
          "roleId": "the SharedRole membership to modify."
        }
      },
      "resetMember(uint256,address)": {
        "details": "Reverts if the caller is not a member of the managing role for `roleId` or if `roleId` is not an initialized, ExclusiveRole.",
        "params": {
          "newMember": "the new ExclusiveRole member.",
          "roleId": "the ExclusiveRole membership to modify."
        }
      },
      "setCurrentTime(uint256)": {
        "details": "Will revert if not running in test mode.",
        "params": {
          "time": "timestamp to set current Testable time to."
        }
      },
      "setFinalFee(address,(uint256))": {
        "params": {
          "currency": "defines the token currency used to pay the final fee.",
          "newFinalFee": "final fee amount."
        }
      },
      "setFixedOracleFeePerSecondPerPfc((uint256))": {
        "params": {
          "newFixedOracleFeePerSecondPerPfc": "new fee per second charged to use the oracle."
        }
      },
      "setWeeklyDelayFeePerSecondPerPfc((uint256))": {
        "params": {
          "newWeeklyDelayFeePerSecondPerPfc": "fee escalation per week of late fee payment."
        }
      },
      "withdrawErc20(address,uint256)": {
        "params": {
          "amount": "amount of tokens to withdraw.",
          "erc20Address": "ERC20 token to withdraw."
        }
      }
    },
    "title": "An implementation of Store that can accept Oracle fees in ETH or any arbitrary ERC20 token.",
    "version": 1
  },
  "userdoc": {
    "kind": "user",
    "methods": {
      "addMember(uint256,address)": {
        "notice": "Adds `newMember` to the shared role, `roleId`."
      },
      "computeFinalFee(address)": {
        "notice": "Computes the final oracle fees that a contract should pay at settlement."
      },
      "computeRegularFee(uint256,uint256,(uint256))": {
        "notice": "Computes the regular oracle fees that a contract should pay for a period."
      },
      "constructor": {
        "notice": "Construct the Store contract."
      },
      "getCurrentTime()": {
        "notice": "Gets the current time. Will return the last time set in `setCurrentTime` if running in test mode. Otherwise, it will return the block timestamp."
      },
      "getMember(uint256)": {
        "notice": "Gets the current holder of the exclusive role, `roleId`."
      },
      "holdsRole(uint256,address)": {
        "notice": "Whether `memberToCheck` is a member of roleId."
      },
      "payOracleFees()": {
        "notice": "Pays Oracle fees in ETH to the store."
      },
      "payOracleFeesErc20(address,(uint256))": {
        "notice": "Pays oracle fees in the margin currency, erc20Address, to the store."
      },
      "removeMember(uint256,address)": {
        "notice": "Removes `memberToRemove` from the shared role, `roleId`."
      },
      "renounceMembership(uint256)": {
        "notice": "Removes caller from the role, `roleId`."
      },
      "resetMember(uint256,address)": {
        "notice": "Changes the exclusive role holder of `roleId` to `newMember`."
      },
      "setCurrentTime(uint256)": {
        "notice": "Sets the current time."
      },
      "setFinalFee(address,(uint256))": {
        "notice": "Sets a new final fee for a particular currency."
      },
      "setFixedOracleFeePerSecondPerPfc((uint256))": {
        "notice": "Sets a new oracle fee per second."
      },
      "setWeeklyDelayFeePerSecondPerPfc((uint256))": {
        "notice": "Sets a new weekly delay fee."
      },
      "withdraw(uint256)": {
        "notice": "Withdraws ETH from the contract."
      },
      "withdrawErc20(address,uint256)": {
        "notice": "Withdraws ERC20 tokens from the contract."
      }
    },
    "version": 1
  }
}