{
  "contractName": "TestnetERC20",
  "abi": [
    {
      "inputs": [
        {
          "internalType": "string",
          "name": "_name",
          "type": "string"
        },
        {
          "internalType": "string",
          "name": "_symbol",
          "type": "string"
        },
        {
          "internalType": "uint8",
          "name": "_tokenDecimals",
          "type": "uint8"
        }
      ],
      "stateMutability": "nonpayable",
      "type": "constructor"
    },
    {
      "anonymous": false,
      "inputs": [
        {
          "indexed": true,
          "internalType": "address",
          "name": "owner",
          "type": "address"
        },
        {
          "indexed": true,
          "internalType": "address",
          "name": "spender",
          "type": "address"
        },
        {
          "indexed": false,
          "internalType": "uint256",
          "name": "value",
          "type": "uint256"
        }
      ],
      "name": "Approval",
      "type": "event"
    },
    {
      "anonymous": false,
      "inputs": [
        {
          "indexed": true,
          "internalType": "address",
          "name": "from",
          "type": "address"
        },
        {
          "indexed": true,
          "internalType": "address",
          "name": "to",
          "type": "address"
        },
        {
          "indexed": false,
          "internalType": "uint256",
          "name": "value",
          "type": "uint256"
        }
      ],
      "name": "Transfer",
      "type": "event"
    },
    {
      "inputs": [
        {
          "internalType": "address",
          "name": "owner",
          "type": "address"
        },
        {
          "internalType": "address",
          "name": "spender",
          "type": "address"
        }
      ],
      "name": "allowance",
      "outputs": [
        {
          "internalType": "uint256",
          "name": "",
          "type": "uint256"
        }
      ],
      "stateMutability": "view",
      "type": "function",
      "constant": true
    },
    {
      "inputs": [
        {
          "internalType": "address",
          "name": "spender",
          "type": "address"
        },
        {
          "internalType": "uint256",
          "name": "amount",
          "type": "uint256"
        }
      ],
      "name": "approve",
      "outputs": [
        {
          "internalType": "bool",
          "name": "",
          "type": "bool"
        }
      ],
      "stateMutability": "nonpayable",
      "type": "function"
    },
    {
      "inputs": [
        {
          "internalType": "address",
          "name": "account",
          "type": "address"
        }
      ],
      "name": "balanceOf",
      "outputs": [
        {
          "internalType": "uint256",
          "name": "",
          "type": "uint256"
        }
      ],
      "stateMutability": "view",
      "type": "function",
      "constant": true
    },
    {
      "inputs": [
        {
          "internalType": "address",
          "name": "spender",
          "type": "address"
        },
        {
          "internalType": "uint256",
          "name": "subtractedValue",
          "type": "uint256"
        }
      ],
      "name": "decreaseAllowance",
      "outputs": [
        {
          "internalType": "bool",
          "name": "",
          "type": "bool"
        }
      ],
      "stateMutability": "nonpayable",
      "type": "function"
    },
    {
      "inputs": [
        {
          "internalType": "address",
          "name": "spender",
          "type": "address"
        },
        {
          "internalType": "uint256",
          "name": "addedValue",
          "type": "uint256"
        }
      ],
      "name": "increaseAllowance",
      "outputs": [
        {
          "internalType": "bool",
          "name": "",
          "type": "bool"
        }
      ],
      "stateMutability": "nonpayable",
      "type": "function"
    },
    {
      "inputs": [],
      "name": "name",
      "outputs": [
        {
          "internalType": "string",
          "name": "",
          "type": "string"
        }
      ],
      "stateMutability": "view",
      "type": "function",
      "constant": true
    },
    {
      "inputs": [],
      "name": "symbol",
      "outputs": [
        {
          "internalType": "string",
          "name": "",
          "type": "string"
        }
      ],
      "stateMutability": "view",
      "type": "function",
      "constant": true
    },
    {
      "inputs": [],
      "name": "totalSupply",
      "outputs": [
        {
          "internalType": "uint256",
          "name": "",
          "type": "uint256"
        }
      ],
      "stateMutability": "view",
      "type": "function",
      "constant": true
    },
    {
      "inputs": [
        {
          "internalType": "address",
          "name": "recipient",
          "type": "address"
        },
        {
          "internalType": "uint256",
          "name": "amount",
          "type": "uint256"
        }
      ],
      "name": "transfer",
      "outputs": [
        {
          "internalType": "bool",
          "name": "",
          "type": "bool"
        }
      ],
      "stateMutability": "nonpayable",
      "type": "function"
    },
    {
      "inputs": [
        {
          "internalType": "address",
          "name": "sender",
          "type": "address"
        },
        {
          "internalType": "address",
          "name": "recipient",
          "type": "address"
        },
        {
          "internalType": "uint256",
          "name": "amount",
          "type": "uint256"
        }
      ],
      "name": "transferFrom",
      "outputs": [
        {
          "internalType": "bool",
          "name": "",
          "type": "bool"
        }
      ],
      "stateMutability": "nonpayable",
      "type": "function"
    },
    {
      "inputs": [],
      "name": "decimals",
      "outputs": [
        {
          "internalType": "uint8",
          "name": "",
          "type": "uint8"
        }
      ],
      "stateMutability": "view",
      "type": "function",
      "constant": true
    },
    {
      "inputs": [
        {
          "internalType": "address",
          "name": "ownerAddress",
          "type": "address"
        },
        {
          "internalType": "uint256",
          "name": "value",
          "type": "uint256"
        }
      ],
      "name": "allocateTo",
      "outputs": [],
      "stateMutability": "nonpayable",
      "type": "function"
    }
  ],
  "bytecode": "0x60806040523480156200001157600080fd5b5060405162000cbe38038062000cbe8339810160408190526200003491620001dd565b8251839083906200004d90600390602085019062000084565b5080516200006390600490602084019062000084565b50506005805460ff191660ff939093169290921790915550620002b1915050565b82805462000092906200025e565b90600052602060002090601f016020900481019282620000b6576000855562000101565b82601f10620000d157805160ff191683800117855562000101565b8280016001018555821562000101579182015b8281111562000101578251825591602001919060010190620000e4565b506200010f92915062000113565b5090565b5b808211156200010f576000815560010162000114565b600082601f8301126200013b578081fd5b81516001600160401b03808211156200015857620001586200029b565b604051601f8301601f19908116603f011681019082821181831017156200018357620001836200029b565b816040528381526020925086838588010111156200019f578485fd5b8491505b83821015620001c25785820183015181830184015290820190620001a3565b83821115620001d357848385830101525b9695505050505050565b600080600060608486031215620001f2578283fd5b83516001600160401b038082111562000209578485fd5b62000217878388016200012a565b945060208601519150808211156200022d578384fd5b506200023c868287016200012a565b925050604084015160ff8116811462000253578182fd5b809150509250925092565b600181811c908216806200027357607f821691505b602082108114156200029557634e487b7160e01b600052602260045260246000fd5b50919050565b634e487b7160e01b600052604160045260246000fd5b6109fd80620002c16000396000f3fe608060405234801561001057600080fd5b50600436106100b45760003560e01c80633950935111610071578063395093511461014957806370a082311461015c57806395d89b4114610185578063a457c2d71461018d578063a9059cbb146101a0578063dd62ed3e146101b357600080fd5b806306fdde03146100b957806308bca566146100d7578063095ea7b3146100ec57806318160ddd1461010f57806323b872dd14610121578063313ce56714610134575b600080fd5b6100c16101ec565b6040516100ce91906108f4565b60405180910390f35b6100ea6100e53660046108cb565b61027e565b005b6100ff6100fa3660046108cb565b61028c565b60405190151581526020016100ce565b6002545b6040519081526020016100ce565b6100ff61012f366004610890565b6102a2565b60055460405160ff90911681526020016100ce565b6100ff6101573660046108cb565b610358565b61011361016a36600461083d565b6001600160a01b031660009081526020819052604090205490565b6100c161038f565b6100ff61019b3660046108cb565b61039e565b6100ff6101ae3660046108cb565b610439565b6101136101c136600461085e565b6001600160a01b03918216600090815260016020908152604080832093909416825291909152205490565b6060600380546101fb90610976565b80601f016020809104026020016040519081016040528092919081815260200182805461022790610976565b80156102745780601f1061024957610100808354040283529160200191610274565b820191906000526020600020905b81548152906001019060200180831161025757829003601f168201915b5050505050905090565b6102888282610446565b5050565b6000610299338484610525565b50600192915050565b60006102af848484610649565b6001600160a01b0384166000908152600160209081526040808320338452909152902054828110156103395760405162461bcd60e51b815260206004820152602860248201527f45524332303a207472616e7366657220616d6f756e74206578636565647320616044820152676c6c6f77616e636560c01b60648201526084015b60405180910390fd5b61034d8533610348868561095f565b610525565b506001949350505050565b3360008181526001602090815260408083206001600160a01b03871684529091528120549091610299918590610348908690610947565b6060600480546101fb90610976565b3360009081526001602090815260408083206001600160a01b0386168452909152812054828110156104205760405162461bcd60e51b815260206004820152602560248201527f45524332303a2064656372656173656420616c6c6f77616e63652062656c6f77604482015264207a65726f60d81b6064820152608401610330565b61042f3385610348868561095f565b5060019392505050565b6000610299338484610649565b6001600160a01b03821661049c5760405162461bcd60e51b815260206004820152601f60248201527f45524332303a206d696e7420746f20746865207a65726f2061646472657373006044820152606401610330565b80600260008282546104ae9190610947565b90915550506001600160a01b038216600090815260208190526040812080548392906104db908490610947565b90915550506040518181526001600160a01b038316906000907fddf252ad1be2c89b69c2b068fc378daa952ba7f163c4a11628f55a4df523b3ef9060200160405180910390a35050565b6001600160a01b0383166105875760405162461bcd60e51b8152602060048201526024808201527f45524332303a20617070726f76652066726f6d20746865207a65726f206164646044820152637265737360e01b6064820152608401610330565b6001600160a01b0382166105e85760405162461bcd60e51b815260206004820152602260248201527f45524332303a20617070726f766520746f20746865207a65726f206164647265604482015261737360f01b6064820152608401610330565b6001600160a01b0383811660008181526001602090815260408083209487168084529482529182902085905590518481527f8c5be1e5ebec7d5bd14f71427d1e84f3dd0314c0f7b2291e5b200ac8c7c3b925910160405180910390a3505050565b6001600160a01b0383166106ad5760405162461bcd60e51b815260206004820152602560248201527f45524332303a207472616e736665722066726f6d20746865207a65726f206164604482015264647265737360d81b6064820152608401610330565b6001600160a01b03821661070f5760405162461bcd60e51b815260206004820152602360248201527f45524332303a207472616e7366657220746f20746865207a65726f206164647260448201526265737360e81b6064820152608401610330565b6001600160a01b038316600090815260208190526040902054818110156107875760405162461bcd60e51b815260206004820152602660248201527f45524332303a207472616e7366657220616d6f756e7420657863656564732062604482015265616c616e636560d01b6064820152608401610330565b610791828261095f565b6001600160a01b0380861660009081526020819052604080822093909355908516815290812080548492906107c7908490610947565b92505081905550826001600160a01b0316846001600160a01b03167fddf252ad1be2c89b69c2b068fc378daa952ba7f163c4a11628f55a4df523b3ef8460405161081391815260200190565b60405180910390a350505050565b80356001600160a01b038116811461083857600080fd5b919050565b60006020828403121561084e578081fd5b61085782610821565b9392505050565b60008060408385031215610870578081fd5b61087983610821565b915061088760208401610821565b90509250929050565b6000806000606084860312156108a4578081fd5b6108ad84610821565b92506108bb60208501610821565b9150604084013590509250925092565b600080604083850312156108dd578182fd5b6108e683610821565b946020939093013593505050565b6000602080835283518082850152825b8181101561092057858101830151858201604001528201610904565b818111156109315783604083870101525b50601f01601f1916929092016040019392505050565b6000821982111561095a5761095a6109b1565b500190565b600082821015610971576109716109b1565b500390565b600181811c9082168061098a57607f821691505b602082108114156109ab57634e487b7160e01b600052602260045260246000fd5b50919050565b634e487b7160e01b600052601160045260246000fdfea2646970667358221220728da3a393c362cc22aaf839ae584858f7638819d0bb680b4abd3844bf93db1764736f6c63430008040033",
  "immutableReferences": {},
  "source": "// SPDX-License-Identifier: AGPL-3.0-only\npragma solidity ^0.8.0;\n\nimport \"@openzeppelin/contracts/token/ERC20/ERC20.sol\";\n\n/**\n * @title An implementation of ERC20 with the same interface as the Compound project's testnet tokens (mainly DAI)\n * @dev This contract can be deployed or the interface can be used to communicate with Compound's ERC20 tokens.  Note:\n * this token should never be used to store real value since it allows permissionless minting.\n */\n\ncontract TestnetERC20 is ERC20 {\n    uint8 _decimals;\n\n    /**\n     * @notice Constructs the TestnetERC20.\n     * @param _name The name which describes the new token.\n     * @param _symbol The ticker abbreviation of the name. Ideally < 5 chars.\n     * @param _tokenDecimals The number of decimals to define token precision.\n     */\n    constructor(\n        string memory _name,\n        string memory _symbol,\n        uint8 _tokenDecimals\n    ) ERC20(_name, _symbol) {\n        _decimals = _tokenDecimals;\n    }\n\n    function decimals() public view virtual override(ERC20) returns (uint8) {\n        return _decimals;\n    }\n\n    // Sample token information.\n\n    /**\n     * @notice Mints value tokens to the owner address.\n     * @param ownerAddress the address to mint to.\n     * @param value the amount of tokens to mint.\n     */\n    function allocateTo(address ownerAddress, uint256 value) external {\n        _mint(ownerAddress, value);\n    }\n}\n",
  "sourcePath": "/home/kamto/code/protocol/packages/core/contracts/common/implementation/TestnetERC20.sol",
  "compiler": {
    "name": "solc",
    "version": "0.8.4+commit.c7e474f2.Emscripten.clang"
  },
  "schemaVersion": "3.3.4",
  "updatedAt": "2021-05-07T22:19:34.881Z",
  "networkType": "ethereum",
  "devdoc": {
    "details": "This contract can be deployed or the interface can be used to communicate with Compound's ERC20 tokens.  Note: this token should never be used to store real value since it allows permissionless minting.",
    "kind": "dev",
    "methods": {
      "allocateTo(address,uint256)": {
        "params": {
          "ownerAddress": "the address to mint to.",
          "value": "the amount of tokens to mint."
        }
      },
      "allowance(address,address)": {
        "details": "See {IERC20-allowance}."
      },
      "approve(address,uint256)": {
        "details": "See {IERC20-approve}. Requirements: - `spender` cannot be the zero address."
      },
      "balanceOf(address)": {
        "details": "See {IERC20-balanceOf}."
      },
      "constructor": {
        "params": {
          "_name": "The name which describes the new token.",
          "_symbol": "The ticker abbreviation of the name. Ideally < 5 chars.",
          "_tokenDecimals": "The number of decimals to define token precision."
        }
      },
      "decimals()": {
        "details": "Returns the number of decimals used to get its user representation. For example, if `decimals` equals `2`, a balance of `505` tokens should be displayed to a user as `5,05` (`505 / 10 ** 2`). Tokens usually opt for a value of 18, imitating the relationship between Ether and Wei. This is the value {ERC20} uses, unless this function is overridden; NOTE: This information is only used for _display_ purposes: it in no way affects any of the arithmetic of the contract, including {IERC20-balanceOf} and {IERC20-transfer}."
      },
      "decreaseAllowance(address,uint256)": {
        "details": "Atomically decreases the allowance granted to `spender` by the caller. This is an alternative to {approve} that can be used as a mitigation for problems described in {IERC20-approve}. Emits an {Approval} event indicating the updated allowance. Requirements: - `spender` cannot be the zero address. - `spender` must have allowance for the caller of at least `subtractedValue`."
      },
      "increaseAllowance(address,uint256)": {
        "details": "Atomically increases the allowance granted to `spender` by the caller. This is an alternative to {approve} that can be used as a mitigation for problems described in {IERC20-approve}. Emits an {Approval} event indicating the updated allowance. Requirements: - `spender` cannot be the zero address."
      },
      "name()": {
        "details": "Returns the name of the token."
      },
      "symbol()": {
        "details": "Returns the symbol of the token, usually a shorter version of the name."
      },
      "totalSupply()": {
        "details": "See {IERC20-totalSupply}."
      },
      "transfer(address,uint256)": {
        "details": "See {IERC20-transfer}. Requirements: - `recipient` cannot be the zero address. - the caller must have a balance of at least `amount`."
      },
      "transferFrom(address,address,uint256)": {
        "details": "See {IERC20-transferFrom}. Emits an {Approval} event indicating the updated allowance. This is not required by the EIP. See the note at the beginning of {ERC20}. Requirements: - `sender` and `recipient` cannot be the zero address. - `sender` must have a balance of at least `amount`. - the caller must have allowance for ``sender``'s tokens of at least `amount`."
      }
    },
    "title": "An implementation of ERC20 with the same interface as the Compound project's testnet tokens (mainly DAI)",
    "version": 1
  },
  "userdoc": {
    "kind": "user",
    "methods": {
      "allocateTo(address,uint256)": {
        "notice": "Mints value tokens to the owner address."
      },
      "constructor": {
        "notice": "Constructs the TestnetERC20."
      }
    },
    "version": 1
  }
}