{
  "contractName": "TokenSender",
  "abi": [
    {
      "inputs": [
        {
          "internalType": "address",
          "name": "tokenAddress",
          "type": "address"
        },
        {
          "internalType": "address",
          "name": "recipientAddress",
          "type": "address"
        },
        {
          "internalType": "uint256",
          "name": "amount",
          "type": "uint256"
        }
      ],
      "name": "transferERC20",
      "outputs": [
        {
          "internalType": "bool",
          "name": "",
          "type": "bool"
        }
      ],
      "stateMutability": "nonpayable",
      "type": "function"
    }
  ],
  "bytecode": "0x608060405234801561001057600080fd5b5061019e806100206000396000f3fe608060405234801561001057600080fd5b506004361061002b5760003560e01c80639db5dbe414610030575b600080fd5b61004361003e366004610106565b610057565b604051901515815260200160405180910390f35b60405163a9059cbb60e01b81526001600160a01b03838116600483015260248201839052600091859182169063a9059cbb90604401602060405180830381600087803b1580156100a657600080fd5b505af11580156100ba573d6000803e3d6000fd5b505050506040513d601f19601f820116820180604052508101906100de9190610141565b50600195945050505050565b80356001600160a01b038116811461010157600080fd5b919050565b60008060006060848603121561011a578283fd5b610123846100ea565b9250610131602085016100ea565b9150604084013590509250925092565b600060208284031215610152578081fd5b81518015158114610161578182fd5b939250505056fea2646970667358221220ca92cc3d0f240453113d98e1c4dabbf575c725cc04ee51eb7e9f40b9a1e6161e64736f6c63430008040033",
  "immutableReferences": {},
  "source": "// SPDX-License-Identifier: AGPL-3.0-only\npragma solidity ^0.8.0;\npragma abicoder v2;\n\nimport \"../../common/implementation/ExpandedERC20.sol\";\n\ncontract TokenSender {\n    function transferERC20(\n        address tokenAddress,\n        address recipientAddress,\n        uint256 amount\n    ) public returns (bool) {\n        IERC20 token = IERC20(tokenAddress);\n        token.transfer(recipientAddress, amount);\n        return true;\n    }\n}\n",
  "sourcePath": "/home/kamto/code/protocol/packages/core/contracts/bot-helpers/action-wrappers/TokenSender.sol",
  "compiler": {
    "name": "solc",
    "version": "0.8.4+commit.c7e474f2.Emscripten.clang"
  },
  "schemaVersion": "3.3.4",
  "updatedAt": "2021-05-07T15:46:49.943Z",
  "devdoc": {
    "kind": "dev",
    "methods": {},
    "version": 1
  },
  "userdoc": {
    "kind": "user",
    "methods": {},
    "version": 1
  }
}