{
  "contractName": "TokenFactory",
  "abi": [
    {
      "inputs": [
        {
          "internalType": "string",
          "name": "tokenName",
          "type": "string"
        },
        {
          "internalType": "string",
          "name": "tokenSymbol",
          "type": "string"
        },
        {
          "internalType": "uint8",
          "name": "tokenDecimals",
          "type": "uint8"
        }
      ],
      "name": "createToken",
      "outputs": [
        {
          "internalType": "contract ExpandedIERC20",
          "name": "newToken",
          "type": "address"
        }
      ],
      "stateMutability": "nonpayable",
      "type": "function"
    }
  ],
  "bytecode": "0x608060405234801561001057600080fd5b506000805460ff191660011790556122998061002d6000396000f3fe60806040523480156200001157600080fd5b50600436106200002e5760003560e01c8063e8a0aed31462000033575b600080fd5b6200004a62000044366004620002aa565b62000066565b6040516001600160a01b03909116815260200160405180910390f35b600062000072620001f9565b620000826000805460ff19169055565b60008686868686604051620000979062000252565b620000a795949392919062000361565b604051809103906000f080158015620000c4573d6000803e3d6000fd5b50604051634c1d96ab60e11b81523360048201529091506001600160a01b0382169063983b2d5690602401600060405180830381600087803b1580156200010a57600080fd5b505af11580156200011f573d6000803e3d6000fd5b5050604051637a231bdd60e11b81523360048201526001600160a01b038416925063f44637ba9150602401600060405180830381600087803b1580156200016557600080fd5b505af11580156200017a573d6000803e3d6000fd5b50506040516339e6401560e11b81523360048201526001600160a01b03841692506373cc802a9150602401600060405180830381600087803b158015620001c057600080fd5b505af1158015620001d5573d6000803e3d6000fd5b5050505080915050620001f06000805460ff19166001179055565b95945050505050565b60005460ff16620002505760405162461bcd60e51b815260206004820152601f60248201527f5265656e7472616e637947756172643a207265656e7472616e742063616c6c00604482015260640160405180910390fd5b565b611ec180620003a383390190565b60008083601f84011262000272578182fd5b50813567ffffffffffffffff8111156200028a578182fd5b602083019150836020828501011115620002a357600080fd5b9250929050565b600080600080600060608688031215620002c2578081fd5b853567ffffffffffffffff80821115620002da578283fd5b620002e889838a0162000260565b9097509550602088013591508082111562000301578283fd5b50620003108882890162000260565b909450925050604086013560ff811681146200032a578182fd5b809150509295509295909350565b81835281816020850137506000828201602090810191909152601f909101601f19169091010190565b6060815260006200037760608301878962000338565b82810360208401526200038c81868862000338565b91505060ff83166040830152969550505050505056fe60806040523480156200001157600080fd5b5060405162001ec138038062001ec18339810160408190526200003491620006e6565b82828282828160039080519060200190620000519291906200058d565b508051620000679060049060208401906200058d565b50506006805460ff191660ff8416179055506200008760008033620000fb565b620000a460015b6040805160008082526020820190925262000264565b620000b060026200008e565b50506006805461ff00191661010017905550620000cc620003c3565b620000dd6006805461ff0019169055565b620000f26006805461ff001916610100179055565b505050620007e2565b826000808281526005602052604090206001015460ff1660028111156200013257634e487b7160e01b600052602160045260246000fd5b14620001855760405162461bcd60e51b815260206004820152601e60248201527f43616e6e6f74207573652061207072652d6578697374696e6720726f6c65000060448201526064015b60405180910390fd5b60008481526005602052604090206001808201805460ff191682800217905550838155620001c360028201846200041e602090811b62000c6a17901c565b60008481526005602052604081206001015460ff166002811115620001f857634e487b7160e01b600052602160045260246000fd5b14156200025d5760405162461bcd60e51b815260206004820152603c602482015260008051602062001ea183398151915260448201527f20746f206d616e61676520616e206578636c757369766520726f6c650000000060648201526084016200017c565b5050505050565b826000808281526005602052604090206001015460ff1660028111156200029b57634e487b7160e01b600052602160045260246000fd5b14620002ea5760405162461bcd60e51b815260206004820152601e60248201527f43616e6e6f74207573652061207072652d6578697374696e6720726f6c65000060448201526064016200017c565b600084815260056020908152604090912060018101805460ff191660021790558481559062000329906003830190859062000c746200042e821b17901c565b60008481526005602052604081206001015460ff1660028111156200035e57634e487b7160e01b600052602160045260246000fd5b14156200025d5760405162461bcd60e51b8152602060048201526038602482015260008051602062001ea183398151915260448201527f20746f206d616e61676520612073686172656420726f6c65000000000000000060648201526084016200017c565b600654610100900460ff166200041c5760405162461bcd60e51b815260206004820152601f60248201527f5265656e7472616e637947756172643a207265656e7472616e742063616c6c0060448201526064016200017c565b565b6200042a82826200048f565b5050565b60005b81518110156200048a5762000475838383815181106200046157634e487b7160e01b600052603260045260246000fd5b60200260200101516200051060201b60201c565b806200048181620007a4565b91505062000431565b505050565b6001600160a01b038116620004f35760405162461bcd60e51b815260206004820152602360248201527f43616e6e6f742073657420616e206578636c757369766520726f6c6520746f2060448201526203078360ec1b60648201526084016200017c565b81546001600160a01b0319166001600160a01b0391909116179055565b6001600160a01b038116620005685760405162461bcd60e51b815260206004820152601f60248201527f43616e6e6f74206164642030783020746f20612073686172656420726f6c650060448201526064016200017c565b6001600160a01b0316600090815260209190915260409020805460ff19166001179055565b8280546200059b9062000767565b90600052602060002090601f016020900481019282620005bf57600085556200060a565b82601f10620005da57805160ff19168380011785556200060a565b828001600101855582156200060a579182015b828111156200060a578251825591602001919060010190620005ed565b50620006189291506200061c565b5090565b5b808211156200061857600081556001016200061d565b600082601f83011262000644578081fd5b81516001600160401b0380821115620006615762000661620007cc565b604051601f8301601f19908116603f011681019082821181831017156200068c576200068c620007cc565b81604052838152602092508683858801011115620006a8578485fd5b8491505b83821015620006cb5785820183015181830184015290820190620006ac565b83821115620006dc57848385830101525b9695505050505050565b600080600060608486031215620006fb578283fd5b83516001600160401b038082111562000712578485fd5b620007208783880162000633565b9450602086015191508082111562000736578384fd5b50620007458682870162000633565b925050604084015160ff811681146200075c578182fd5b809150509250925092565b600181811c908216806200077c57607f821691505b602082108114156200079e57634e487b7160e01b600052602260045260246000fd5b50919050565b6000600019821415620007c557634e487b7160e01b81526011600452602481fd5b5060010190565b634e487b7160e01b600052604160045260246000fd5b6116af80620007f26000396000f3fe608060405234801561001057600080fd5b506004361061018e5760003560e01c806373cc802a116100de578063a9059cbb11610097578063ab3545e511610071578063ab3545e51461035e578063d97c05be14610389578063dd62ed3e1461039c578063f44637ba146103d557600080fd5b8063a9059cbb14610325578063aa271e1a14610338578063aaa14ca31461034b57600080fd5b806373cc802a146102be57806374d0a676146102d15780637cdc1cb9146102e457806395d89b41146102f7578063983b2d56146102ff578063a457c2d71461031257600080fd5b8063313ce5671161014b57806342966c681161012557806342966c681461025c5780634334614a1461026f5780636be7658b1461028257806370a082311461029557600080fd5b8063313ce56714610221578063395093511461023657806340c10f191461024957600080fd5b8063028468581461019357806306fdde03146101a8578063095ea7b3146101c657806318160ddd146101e957806323b872dd146101fb5780633092afd51461020e575b600080fd5b6101a66101a136600461137f565b6103e8565b005b6101b0610423565b6040516101bd9190611470565b60405180910390f35b6101d96101d436600461140d565b6104b5565b60405190151581526020016101bd565b6002545b6040519081526020016101bd565b6101d96102093660046113d2565b6104cc565b6101a661021c36600461137f565b610582565b60065460405160ff90911681526020016101bd565b6101d961024436600461140d565b6105a4565b6101d961025736600461140d565b6105db565b6101a661026a366004611436565b610619565b6101d961027d36600461137f565b61064f565b6101a661029036600461144e565b61066d565b6101ed6102a336600461137f565b6001600160a01b031660009081526020819052604090205490565b6101a66102cc36600461137f565b610751565b6101a66102df36600461144e565b610774565b6101d96102f236600461144e565b610858565b6101b061093b565b6101a661030d36600461137f565b61094a565b6101d961032036600461140d565b61096e565b6101d961033336600461140d565b6109ff565b6101d961034636600461137f565b610a0c565b6101a6610359366004611436565b610a20565b61037161036c366004611436565b610aea565b6040516001600160a01b0390911681526020016101bd565b6101a661039736600461144e565b610b64565b6101ed6103aa3660046113a0565b6001600160a01b03918216600090815260016020908152604080832093909416825291909152205490565b6101a66103e336600461137f565b610c48565b6103f0610cc8565b6104006006805461ff0019169055565b61040c60025b8261066d565b6104206006805461ff001916610100179055565b50565b60606003805461043290611613565b80601f016020809104026020016040519081016040528092919081815260200182805461045e90611613565b80156104ab5780601f10610480576101008083540402835291602001916104ab565b820191906000526020600020905b81548152906001019060200180831161048e57829003601f168201915b5050505050905090565b60006104c2338484610d21565b5060015b92915050565b60006104d9848484610e46565b6001600160a01b0384166000908152600160209081526040808320338452909152902054828110156105635760405162461bcd60e51b815260206004820152602860248201527f45524332303a207472616e7366657220616d6f756e74206578636565647320616044820152676c6c6f77616e636560c01b60648201526084015b60405180910390fd5b610577853361057286856115fc565b610d21565b506001949350505050565b61058a610cc8565b61059a6006805461ff0019169055565b61040c6001610406565b3360008181526001602090815260408083206001600160a01b038716845290915281205490916104c29185906105729086906115e4565b600060016105e98133610858565b6106055760405162461bcd60e51b815260040161055a9061155e565b61060f848461101e565b5060019392505050565b60026106258133610858565b6106415760405162461bcd60e51b815260040161055a9061155e565b61064b33836110fd565b5050565b6000610659610cc8565b61066560025b83610858565b90505b919050565b81600260008281526005602052604090206001015460ff1660028111156106a457634e487b7160e01b600052602160045260246000fd5b146106c15760405162461bcd60e51b815260040161055a90611512565b60008381526005602052604090205483906106dc9033610858565b6106f85760405162461bcd60e51b815260040161055a906115a0565b6000848152600560205260409020610713906003018461124c565b60405133906001600160a01b0385169086907feb3e33034c392e69263b04ec0fa376dc12784a41b6676c7f31b936cbc0fbb5af90600090a450505050565b610759610cc8565b6107696006805461ff0019169055565b61040c600082610b64565b81600260008281526005602052604090206001015460ff1660028111156107ab57634e487b7160e01b600052602160045260246000fd5b146107c85760405162461bcd60e51b815260040161055a90611512565b60008381526005602052604090205483906107e39033610858565b6107ff5760405162461bcd60e51b815260040161055a906115a0565b600084815260056020526040902061081a906003018461126e565b60405133906001600160a01b0385169086907f63502af7324ff6db91ab38f8236a648727d9385ea6c782073dd4882d8a61a48f90600090a450505050565b600082815260056020526040812060018082015460ff16600281111561088e57634e487b7160e01b600052602160045260246000fd5b14156108b05760028101546001600160a01b038481169116145b9150506104c6565b6002600182015460ff1660028111156108d957634e487b7160e01b600052602160045260246000fd5b1415610902576001600160a01b038316600090815260038201602052604090205460ff166108a8565b60405162461bcd60e51b815260206004820152600e60248201526d125b9d985b1a59081c9bdb19525960921b604482015260640161055a565b60606004805461043290611613565b610952610cc8565b6109626006805461ff0019169055565b61040c60015b82610774565b3360009081526001602090815260408083206001600160a01b0386168452909152812054828110156109f05760405162461bcd60e51b815260206004820152602560248201527f45524332303a2064656372656173656420616c6c6f77616e63652062656c6f77604482015264207a65726f60d81b606482015260840161055a565b61060f338561057286856115fc565b60006104c2338484610e46565b6000610a16610cc8565b610665600161065f565b80600260008281526005602052604090206001015460ff166002811115610a5757634e487b7160e01b600052602160045260246000fd5b14610a745760405162461bcd60e51b815260040161055a90611512565b81610a7f8133610858565b610a9b5760405162461bcd60e51b815260040161055a9061155e565b6000838152600560205260409020610ab6906003013361124c565b6040513390819085907feb3e33034c392e69263b04ec0fa376dc12784a41b6676c7f31b936cbc0fbb5af90600090a4505050565b600081600160008281526005602052604090206001015460ff166002811115610b2357634e487b7160e01b600052602160045260246000fd5b14610b405760405162461bcd60e51b815260040161055a906114c3565b6000838152600560205260409020600201546001600160a01b031691505b50919050565b81600160008281526005602052604090206001015460ff166002811115610b9b57634e487b7160e01b600052602160045260246000fd5b14610bb85760405162461bcd60e51b815260040161055a906114c3565b6000838152600560205260409020548390610bd39033610858565b610bef5760405162461bcd60e51b815260040161055a906115a0565b6000848152600560205260409020610c0a90600201846112e9565b60405133906001600160a01b0385169086907f3b855c56b409b671c7112789d022675eb639d0bcb8896f1b6197c132f799e74690600090a450505050565b610c50610cc8565b610c606006805461ff0019169055565b61040c6002610968565b61064b82826112e9565b60005b8151811015610cc357610cb183838381518110610ca457634e487b7160e01b600052603260045260246000fd5b602002602001015161126e565b80610cbb81611648565b915050610c77565b505050565b600654610100900460ff16610d1f5760405162461bcd60e51b815260206004820152601f60248201527f5265656e7472616e637947756172643a207265656e7472616e742063616c6c00604482015260640161055a565b565b6001600160a01b038316610d835760405162461bcd60e51b8152602060048201526024808201527f45524332303a20617070726f76652066726f6d20746865207a65726f206164646044820152637265737360e01b606482015260840161055a565b6001600160a01b038216610de45760405162461bcd60e51b815260206004820152602260248201527f45524332303a20617070726f766520746f20746865207a65726f206164647265604482015261737360f01b606482015260840161055a565b6001600160a01b0383811660008181526001602090815260408083209487168084529482529182902085905590518481527f8c5be1e5ebec7d5bd14f71427d1e84f3dd0314c0f7b2291e5b200ac8c7c3b92591015b60405180910390a3505050565b6001600160a01b038316610eaa5760405162461bcd60e51b815260206004820152602560248201527f45524332303a207472616e736665722066726f6d20746865207a65726f206164604482015264647265737360d81b606482015260840161055a565b6001600160a01b038216610f0c5760405162461bcd60e51b815260206004820152602360248201527f45524332303a207472616e7366657220746f20746865207a65726f206164647260448201526265737360e81b606482015260840161055a565b6001600160a01b03831660009081526020819052604090205481811015610f845760405162461bcd60e51b815260206004820152602660248201527f45524332303a207472616e7366657220616d6f756e7420657863656564732062604482015265616c616e636560d01b606482015260840161055a565b610f8e82826115fc565b6001600160a01b038086166000908152602081905260408082209390935590851681529081208054849290610fc49084906115e4565b92505081905550826001600160a01b0316846001600160a01b03167fddf252ad1be2c89b69c2b068fc378daa952ba7f163c4a11628f55a4df523b3ef8460405161101091815260200190565b60405180910390a350505050565b6001600160a01b0382166110745760405162461bcd60e51b815260206004820152601f60248201527f45524332303a206d696e7420746f20746865207a65726f206164647265737300604482015260640161055a565b806002600082825461108691906115e4565b90915550506001600160a01b038216600090815260208190526040812080548392906110b39084906115e4565b90915550506040518181526001600160a01b038316906000907fddf252ad1be2c89b69c2b068fc378daa952ba7f163c4a11628f55a4df523b3ef9060200160405180910390a35050565b6001600160a01b03821661115d5760405162461bcd60e51b815260206004820152602160248201527f45524332303a206275726e2066726f6d20746865207a65726f206164647265736044820152607360f81b606482015260840161055a565b6001600160a01b038216600090815260208190526040902054818110156111d15760405162461bcd60e51b815260206004820152602260248201527f45524332303a206275726e20616d6f756e7420657863656564732062616c616e604482015261636560f01b606482015260840161055a565b6111db82826115fc565b6001600160a01b038416600090815260208190526040812091909155600280548492906112099084906115fc565b90915550506040518281526000906001600160a01b038516907fddf252ad1be2c89b69c2b068fc378daa952ba7f163c4a11628f55a4df523b3ef90602001610e39565b6001600160a01b0316600090815260209190915260409020805460ff19169055565b6001600160a01b0381166112c45760405162461bcd60e51b815260206004820152601f60248201527f43616e6e6f74206164642030783020746f20612073686172656420726f6c6500604482015260640161055a565b6001600160a01b0316600090815260209190915260409020805460ff19166001179055565b6001600160a01b03811661134b5760405162461bcd60e51b815260206004820152602360248201527f43616e6e6f742073657420616e206578636c757369766520726f6c6520746f2060448201526203078360ec1b606482015260840161055a565b81546001600160a01b0319166001600160a01b0391909116179055565b80356001600160a01b038116811461066857600080fd5b600060208284031215611390578081fd5b61139982611368565b9392505050565b600080604083850312156113b2578081fd5b6113bb83611368565b91506113c960208401611368565b90509250929050565b6000806000606084860312156113e6578081fd5b6113ef84611368565b92506113fd60208501611368565b9150604084013590509250925092565b6000806040838503121561141f578182fd5b61142883611368565b946020939093013593505050565b600060208284031215611447578081fd5b5035919050565b60008060408385031215611460578182fd5b823591506113c960208401611368565b6000602080835283518082850152825b8181101561149c57858101830151858201604001528201611480565b818111156114ad5783604083870101525b50601f01601f1916929092016040019392505050565b6020808252602f908201527f4d7573742062652063616c6c6564206f6e20616e20696e697469616c697a656460408201526e204578636c757369766520726f6c6560881b606082015260800190565b6020808252602c908201527f4d7573742062652063616c6c6564206f6e20616e20696e697469616c697a656460408201526b2053686172656420726f6c6560a01b606082015260800190565b60208082526022908201527f53656e64657220646f6573206e6f7420686f6c6420726571756972656420726f6040820152616c6560f01b606082015260800190565b60208082526024908201527f43616e206f6e6c792062652063616c6c6564206279206120726f6c65206d616e60408201526330b3b2b960e11b606082015260800190565b600082198211156115f7576115f7611663565b500190565b60008282101561160e5761160e611663565b500390565b600181811c9082168061162757607f821691505b60208210811415610b5e57634e487b7160e01b600052602260045260246000fd5b600060001982141561165c5761165c611663565b5060010190565b634e487b7160e01b600052601160045260246000fdfea264697066735822122051df4642e724b838b110da179be1afd717daa1a2021873a02fbeb57c99296bab64736f6c63430008040033417474656d7074656420746f2075736520616e20696e76616c696420726f6c65a26469706673582212204bee195dfb0b224d21bfed43022fdfb092282d607d9df834e3da77026a83a64f64736f6c63430008040033",
  "immutableReferences": {},
  "source": "// SPDX-License-Identifier: AGPL-3.0-only\npragma solidity ^0.8.0;\n\nimport \"./SyntheticToken.sol\";\nimport \"../../common/interfaces/ExpandedIERC20.sol\";\nimport \"../../common/implementation/Lockable.sol\";\n\n/**\n * @title Factory for creating new mintable and burnable tokens.\n */\n\ncontract TokenFactory is Lockable {\n    /**\n     * @notice Create a new token and return it to the caller.\n     * @dev The caller will become the only minter and burner and the new owner capable of assigning the roles.\n     * @param tokenName used to describe the new token.\n     * @param tokenSymbol short ticker abbreviation of the name. Ideally < 5 chars.\n     * @param tokenDecimals used to define the precision used in the token's numerical representation.\n     * @return newToken an instance of the newly created token interface.\n     */\n    function createToken(\n        string calldata tokenName,\n        string calldata tokenSymbol,\n        uint8 tokenDecimals\n    ) external nonReentrant() returns (ExpandedIERC20 newToken) {\n        SyntheticToken mintableToken = new SyntheticToken(tokenName, tokenSymbol, tokenDecimals);\n        mintableToken.addMinter(msg.sender);\n        mintableToken.addBurner(msg.sender);\n        mintableToken.resetOwner(msg.sender);\n        newToken = ExpandedIERC20(address(mintableToken));\n    }\n}\n",
  "sourcePath": "/home/kamto/code/protocol/packages/core/contracts/financial-templates/common/TokenFactory.sol",
  "compiler": {
    "name": "solc",
    "version": "0.8.4+commit.c7e474f2.Emscripten.clang"
  },
  "schemaVersion": "3.3.4",
  "updatedAt": "2021-05-07T22:22:59.007Z",
  "networkType": "ethereum",
  "devdoc": {
    "kind": "dev",
    "methods": {
      "createToken(string,string,uint8)": {
        "details": "The caller will become the only minter and burner and the new owner capable of assigning the roles.",
        "params": {
          "tokenDecimals": "used to define the precision used in the token's numerical representation.",
          "tokenName": "used to describe the new token.",
          "tokenSymbol": "short ticker abbreviation of the name. Ideally < 5 chars."
        },
        "returns": {
          "newToken": "an instance of the newly created token interface."
        }
      }
    },
    "title": "Factory for creating new mintable and burnable tokens.",
    "version": 1
  },
  "userdoc": {
    "kind": "user",
    "methods": {
      "createToken(string,string,uint8)": {
        "notice": "Create a new token and return it to the caller."
      }
    },
    "version": 1
  }
}