{
  "contractName": "UniswapV3Mock",
  "abi": [
    {
      "anonymous": false,
      "inputs": [
        {
          "indexed": true,
          "internalType": "address",
          "name": "sender",
          "type": "address"
        },
        {
          "indexed": true,
          "internalType": "address",
          "name": "recipient",
          "type": "address"
        },
        {
          "indexed": false,
          "internalType": "int256",
          "name": "amount0",
          "type": "int256"
        },
        {
          "indexed": false,
          "internalType": "int256",
          "name": "amount1",
          "type": "int256"
        },
        {
          "indexed": false,
          "internalType": "uint160",
          "name": "sqrtPriceX96",
          "type": "uint160"
        },
        {
          "indexed": false,
          "internalType": "int24",
          "name": "tick",
          "type": "int24"
        }
      ],
      "name": "Swap",
      "type": "event"
    },
    {
      "inputs": [],
      "name": "token0",
      "outputs": [
        {
          "internalType": "address",
          "name": "",
          "type": "address"
        }
      ],
      "stateMutability": "view",
      "type": "function"
    },
    {
      "inputs": [],
      "name": "token1",
      "outputs": [
        {
          "internalType": "address",
          "name": "",
          "type": "address"
        }
      ],
      "stateMutability": "view",
      "type": "function"
    },
    {
      "inputs": [
        {
          "internalType": "address",
          "name": "_token0",
          "type": "address"
        },
        {
          "internalType": "address",
          "name": "_token1",
          "type": "address"
        }
      ],
      "name": "setTokens",
      "outputs": [],
      "stateMutability": "nonpayable",
      "type": "function"
    },
    {
      "inputs": [
        {
          "internalType": "address",
          "name": "sender",
          "type": "address"
        },
        {
          "internalType": "address",
          "name": "recipient",
          "type": "address"
        },
        {
          "internalType": "int256",
          "name": "amount0",
          "type": "int256"
        },
        {
          "internalType": "int256",
          "name": "amount1",
          "type": "int256"
        },
        {
          "internalType": "uint160",
          "name": "sqrtPriceX96",
          "type": "uint160"
        },
        {
          "internalType": "int24",
          "name": "tick",
          "type": "int24"
        }
      ],
      "name": "setPrice",
      "outputs": [],
      "stateMutability": "nonpayable",
      "type": "function"
    }
  ],
  "bytecode": "0x608060405234801561001057600080fd5b50610242806100206000396000f3fe608060405234801561001057600080fd5b506004361061004c5760003560e01c80630dfe168114610051578063b4dec85514610080578063cbc7854e14610095578063d21220a7146100d1575b600080fd5b600054610064906001600160a01b031681565b6040516001600160a01b03909116815260200160405180910390f35b61009361008e36600461017f565b6100e4565b005b6100936100a3366004610147565b600080546001600160a01b039384166001600160a01b03199182161790915560018054929093169116179055565b600154610064906001600160a01b031681565b60408051858152602081018590526001600160a01b0384811682840152600284900b60608301529151878316928916917f41e82c9c8c68651be91e14fa6bb6d577822b5f6b66fda7d7f365faed56e2855e919081900360800190a3505050505050565b60008060408385031215610159578182fd5b8235610164816101f4565b91506020830135610174816101f4565b809150509250929050565b60008060008060008060c08789031215610197578182fd5b86356101a2816101f4565b955060208701356101b2816101f4565b9450604087013593506060870135925060808701356101d0816101f4565b915060a0870135600281900b81146101e6578182fd5b809150509295509295509295565b6001600160a01b038116811461020957600080fd5b5056fea26469706673582212207793dee10ee1462e312bb5a5669867c8423f9d6c204170d28aeaa22b9b74b1a064736f6c63430008040033",
  "immutableReferences": {},
  "source": "// SPDX-License-Identifier: AGPL-3.0-only\npragma solidity ^0.8.0;\n\nimport \"../interfaces/UniswapV3.sol\";\n\n/**\n * @title Uniswap v3 Mock that allows manual price injection.\n */\ncontract UniswapV3Mock is UniswapV3 {\n    function setTokens(address _token0, address _token1) external {\n        token0 = _token0;\n        token1 = _token1;\n    }\n\n    function setPrice(\n        address sender,\n        address recipient,\n        int256 amount0,\n        int256 amount1,\n        uint160 sqrtPriceX96,\n        int24 tick\n    ) external {\n        emit Swap(sender, recipient, amount0, amount1, sqrtPriceX96, tick);\n    }\n}\n",
  "sourcePath": "/home/kamto/code/protocol/packages/core/contracts/common/test/UniswapV3Mock.sol",
  "compiler": {
    "name": "solc",
    "version": "0.8.4+commit.c7e474f2.Emscripten.clang"
  },
  "schemaVersion": "3.3.4",
  "updatedAt": "2021-05-07T15:46:50.161Z",
  "devdoc": {
    "kind": "dev",
    "methods": {},
    "title": "Uniswap v3 Mock that allows manual price injection.",
    "version": 1
  },
  "userdoc": {
    "kind": "user",
    "methods": {},
    "version": 1
  }
}