{
  "contractName": "VotingToken",
  "abi": [
    {
      "inputs": [],
      "stateMutability": "nonpayable",
      "type": "constructor"
    },
    {
      "anonymous": false,
      "inputs": [
        {
          "indexed": true,
          "internalType": "uint256",
          "name": "roleId",
          "type": "uint256"
        },
        {
          "indexed": true,
          "internalType": "address",
          "name": "newMember",
          "type": "address"
        },
        {
          "indexed": true,
          "internalType": "address",
          "name": "manager",
          "type": "address"
        }
      ],
      "name": "AddedSharedMember",
      "type": "event"
    },
    {
      "anonymous": false,
      "inputs": [
        {
          "indexed": true,
          "internalType": "address",
          "name": "owner",
          "type": "address"
        },
        {
          "indexed": true,
          "internalType": "address",
          "name": "spender",
          "type": "address"
        },
        {
          "indexed": false,
          "internalType": "uint256",
          "name": "value",
          "type": "uint256"
        }
      ],
      "name": "Approval",
      "type": "event"
    },
    {
      "anonymous": false,
      "inputs": [
        {
          "indexed": true,
          "internalType": "uint256",
          "name": "roleId",
          "type": "uint256"
        },
        {
          "indexed": true,
          "internalType": "address",
          "name": "oldMember",
          "type": "address"
        },
        {
          "indexed": true,
          "internalType": "address",
          "name": "manager",
          "type": "address"
        }
      ],
      "name": "RemovedSharedMember",
      "type": "event"
    },
    {
      "anonymous": false,
      "inputs": [
        {
          "indexed": true,
          "internalType": "uint256",
          "name": "roleId",
          "type": "uint256"
        },
        {
          "indexed": true,
          "internalType": "address",
          "name": "newMember",
          "type": "address"
        },
        {
          "indexed": true,
          "internalType": "address",
          "name": "manager",
          "type": "address"
        }
      ],
      "name": "ResetExclusiveMember",
      "type": "event"
    },
    {
      "anonymous": false,
      "inputs": [
        {
          "indexed": false,
          "internalType": "uint256",
          "name": "id",
          "type": "uint256"
        }
      ],
      "name": "Snapshot",
      "type": "event"
    },
    {
      "anonymous": false,
      "inputs": [
        {
          "indexed": true,
          "internalType": "address",
          "name": "from",
          "type": "address"
        },
        {
          "indexed": true,
          "internalType": "address",
          "name": "to",
          "type": "address"
        },
        {
          "indexed": false,
          "internalType": "uint256",
          "name": "value",
          "type": "uint256"
        }
      ],
      "name": "Transfer",
      "type": "event"
    },
    {
      "inputs": [
        {
          "internalType": "address",
          "name": "account",
          "type": "address"
        }
      ],
      "name": "addBurner",
      "outputs": [],
      "stateMutability": "nonpayable",
      "type": "function"
    },
    {
      "inputs": [
        {
          "internalType": "uint256",
          "name": "roleId",
          "type": "uint256"
        },
        {
          "internalType": "address",
          "name": "newMember",
          "type": "address"
        }
      ],
      "name": "addMember",
      "outputs": [],
      "stateMutability": "nonpayable",
      "type": "function"
    },
    {
      "inputs": [
        {
          "internalType": "address",
          "name": "account",
          "type": "address"
        }
      ],
      "name": "addMinter",
      "outputs": [],
      "stateMutability": "nonpayable",
      "type": "function"
    },
    {
      "inputs": [
        {
          "internalType": "address",
          "name": "owner",
          "type": "address"
        },
        {
          "internalType": "address",
          "name": "spender",
          "type": "address"
        }
      ],
      "name": "allowance",
      "outputs": [
        {
          "internalType": "uint256",
          "name": "",
          "type": "uint256"
        }
      ],
      "stateMutability": "view",
      "type": "function",
      "constant": true
    },
    {
      "inputs": [
        {
          "internalType": "address",
          "name": "spender",
          "type": "address"
        },
        {
          "internalType": "uint256",
          "name": "amount",
          "type": "uint256"
        }
      ],
      "name": "approve",
      "outputs": [
        {
          "internalType": "bool",
          "name": "",
          "type": "bool"
        }
      ],
      "stateMutability": "nonpayable",
      "type": "function"
    },
    {
      "inputs": [
        {
          "internalType": "address",
          "name": "account",
          "type": "address"
        }
      ],
      "name": "balanceOf",
      "outputs": [
        {
          "internalType": "uint256",
          "name": "",
          "type": "uint256"
        }
      ],
      "stateMutability": "view",
      "type": "function",
      "constant": true
    },
    {
      "inputs": [
        {
          "internalType": "address",
          "name": "account",
          "type": "address"
        },
        {
          "internalType": "uint256",
          "name": "snapshotId",
          "type": "uint256"
        }
      ],
      "name": "balanceOfAt",
      "outputs": [
        {
          "internalType": "uint256",
          "name": "",
          "type": "uint256"
        }
      ],
      "stateMutability": "view",
      "type": "function",
      "constant": true
    },
    {
      "inputs": [
        {
          "internalType": "uint256",
          "name": "value",
          "type": "uint256"
        }
      ],
      "name": "burn",
      "outputs": [],
      "stateMutability": "nonpayable",
      "type": "function"
    },
    {
      "inputs": [
        {
          "internalType": "address",
          "name": "spender",
          "type": "address"
        },
        {
          "internalType": "uint256",
          "name": "subtractedValue",
          "type": "uint256"
        }
      ],
      "name": "decreaseAllowance",
      "outputs": [
        {
          "internalType": "bool",
          "name": "",
          "type": "bool"
        }
      ],
      "stateMutability": "nonpayable",
      "type": "function"
    },
    {
      "inputs": [
        {
          "internalType": "uint256",
          "name": "roleId",
          "type": "uint256"
        }
      ],
      "name": "getMember",
      "outputs": [
        {
          "internalType": "address",
          "name": "",
          "type": "address"
        }
      ],
      "stateMutability": "view",
      "type": "function",
      "constant": true
    },
    {
      "inputs": [
        {
          "internalType": "uint256",
          "name": "roleId",
          "type": "uint256"
        },
        {
          "internalType": "address",
          "name": "memberToCheck",
          "type": "address"
        }
      ],
      "name": "holdsRole",
      "outputs": [
        {
          "internalType": "bool",
          "name": "",
          "type": "bool"
        }
      ],
      "stateMutability": "view",
      "type": "function",
      "constant": true
    },
    {
      "inputs": [
        {
          "internalType": "address",
          "name": "spender",
          "type": "address"
        },
        {
          "internalType": "uint256",
          "name": "addedValue",
          "type": "uint256"
        }
      ],
      "name": "increaseAllowance",
      "outputs": [
        {
          "internalType": "bool",
          "name": "",
          "type": "bool"
        }
      ],
      "stateMutability": "nonpayable",
      "type": "function"
    },
    {
      "inputs": [
        {
          "internalType": "address",
          "name": "recipient",
          "type": "address"
        },
        {
          "internalType": "uint256",
          "name": "value",
          "type": "uint256"
        }
      ],
      "name": "mint",
      "outputs": [
        {
          "internalType": "bool",
          "name": "",
          "type": "bool"
        }
      ],
      "stateMutability": "nonpayable",
      "type": "function"
    },
    {
      "inputs": [],
      "name": "name",
      "outputs": [
        {
          "internalType": "string",
          "name": "",
          "type": "string"
        }
      ],
      "stateMutability": "view",
      "type": "function",
      "constant": true
    },
    {
      "inputs": [
        {
          "internalType": "uint256",
          "name": "roleId",
          "type": "uint256"
        },
        {
          "internalType": "address",
          "name": "memberToRemove",
          "type": "address"
        }
      ],
      "name": "removeMember",
      "outputs": [],
      "stateMutability": "nonpayable",
      "type": "function"
    },
    {
      "inputs": [
        {
          "internalType": "uint256",
          "name": "roleId",
          "type": "uint256"
        }
      ],
      "name": "renounceMembership",
      "outputs": [],
      "stateMutability": "nonpayable",
      "type": "function"
    },
    {
      "inputs": [
        {
          "internalType": "uint256",
          "name": "roleId",
          "type": "uint256"
        },
        {
          "internalType": "address",
          "name": "newMember",
          "type": "address"
        }
      ],
      "name": "resetMember",
      "outputs": [],
      "stateMutability": "nonpayable",
      "type": "function"
    },
    {
      "inputs": [
        {
          "internalType": "address",
          "name": "account",
          "type": "address"
        }
      ],
      "name": "resetOwner",
      "outputs": [],
      "stateMutability": "nonpayable",
      "type": "function"
    },
    {
      "inputs": [],
      "name": "symbol",
      "outputs": [
        {
          "internalType": "string",
          "name": "",
          "type": "string"
        }
      ],
      "stateMutability": "view",
      "type": "function",
      "constant": true
    },
    {
      "inputs": [],
      "name": "totalSupply",
      "outputs": [
        {
          "internalType": "uint256",
          "name": "",
          "type": "uint256"
        }
      ],
      "stateMutability": "view",
      "type": "function",
      "constant": true
    },
    {
      "inputs": [
        {
          "internalType": "uint256",
          "name": "snapshotId",
          "type": "uint256"
        }
      ],
      "name": "totalSupplyAt",
      "outputs": [
        {
          "internalType": "uint256",
          "name": "",
          "type": "uint256"
        }
      ],
      "stateMutability": "view",
      "type": "function",
      "constant": true
    },
    {
      "inputs": [
        {
          "internalType": "address",
          "name": "recipient",
          "type": "address"
        },
        {
          "internalType": "uint256",
          "name": "amount",
          "type": "uint256"
        }
      ],
      "name": "transfer",
      "outputs": [
        {
          "internalType": "bool",
          "name": "",
          "type": "bool"
        }
      ],
      "stateMutability": "nonpayable",
      "type": "function"
    },
    {
      "inputs": [
        {
          "internalType": "address",
          "name": "sender",
          "type": "address"
        },
        {
          "internalType": "address",
          "name": "recipient",
          "type": "address"
        },
        {
          "internalType": "uint256",
          "name": "amount",
          "type": "uint256"
        }
      ],
      "name": "transferFrom",
      "outputs": [
        {
          "internalType": "bool",
          "name": "",
          "type": "bool"
        }
      ],
      "stateMutability": "nonpayable",
      "type": "function"
    },
    {
      "inputs": [],
      "name": "decimals",
      "outputs": [
        {
          "internalType": "uint8",
          "name": "",
          "type": "uint8"
        }
      ],
      "stateMutability": "view",
      "type": "function",
      "constant": true
    },
    {
      "inputs": [],
      "name": "snapshot",
      "outputs": [
        {
          "internalType": "uint256",
          "name": "",
          "type": "uint256"
        }
      ],
      "stateMutability": "nonpayable",
      "type": "function"
    }
  ],
  "bytecode": "0x60806040523480156200001157600080fd5b506040518060400160405280601381526020017f554d4120566f74696e6720546f6b656e2076310000000000000000000000000081525060405180604001604052806003815260200162554d4160e81b815250601282828160039080519060200190620000809291906200051f565b508051620000969060049060208401906200051f565b50506006805460ff191660ff841617905550620000b660008033620000e8565b620000d360015b6040805160008082526020820190925262000251565b620000df6002620000bd565b5050506200062a565b826000808281526005602052604090206001015460ff1660028111156200011f57634e487b7160e01b600052602160045260246000fd5b14620001725760405162461bcd60e51b815260206004820152601e60248201527f43616e6e6f74207573652061207072652d6578697374696e6720726f6c65000060448201526064015b60405180910390fd5b60008481526005602052604090206001808201805460ff191682800217905550838155620001b06002820184620003b0602090811b62000c0317901c565b60008481526005602052604081206001015460ff166002811115620001e557634e487b7160e01b600052602160045260246000fd5b14156200024a5760405162461bcd60e51b815260206004820152603c60248201526000805160206200206c83398151915260448201527f20746f206d616e61676520616e206578636c757369766520726f6c6500000000606482015260840162000169565b5050505050565b826000808281526005602052604090206001015460ff1660028111156200028857634e487b7160e01b600052602160045260246000fd5b14620002d75760405162461bcd60e51b815260206004820152601e60248201527f43616e6e6f74207573652061207072652d6578697374696e6720726f6c650000604482015260640162000169565b600084815260056020908152604090912060018101805460ff191660021790558481559062000316906003830190859062000c0d620003c0821b17901c565b60008481526005602052604081206001015460ff1660028111156200034b57634e487b7160e01b600052602160045260246000fd5b14156200024a5760405162461bcd60e51b815260206004820152603860248201526000805160206200206c83398151915260448201527f20746f206d616e61676520612073686172656420726f6c650000000000000000606482015260840162000169565b620003bc828262000421565b5050565b60005b81518110156200041c576200040783838381518110620003f357634e487b7160e01b600052603260045260246000fd5b6020026020010151620004a260201b60201c565b80620004138162000602565b915050620003c3565b505050565b6001600160a01b038116620004855760405162461bcd60e51b815260206004820152602360248201527f43616e6e6f742073657420616e206578636c757369766520726f6c6520746f2060448201526203078360ec1b606482015260840162000169565b81546001600160a01b0319166001600160a01b0391909116179055565b6001600160a01b038116620004fa5760405162461bcd60e51b815260206004820152601f60248201527f43616e6e6f74206164642030783020746f20612073686172656420726f6c6500604482015260640162000169565b6001600160a01b0316600090815260209190915260409020805460ff19166001179055565b8280546200052d90620005c5565b90600052602060002090601f0160209004810192826200055157600085556200059c565b82601f106200056c57805160ff19168380011785556200059c565b828001600101855582156200059c579182015b828111156200059c5782518255916020019190600101906200057f565b50620005aa929150620005ae565b5090565b5b80821115620005aa5760008155600101620005af565b600181811c90821680620005da57607f821691505b60208210811415620005fc57634e487b7160e01b600052602260045260246000fd5b50919050565b60006000198214156200062357634e487b7160e01b81526011600452602481fd5b5060010190565b611a32806200063a6000396000f3fe608060405234801561001057600080fd5b50600436106101735760003560e01c806374d0a676116100de578063a457c2d711610097578063ab3545e511610071578063ab3545e51461032a578063d97c05be14610355578063dd62ed3e14610368578063f44637ba146103a157600080fd5b8063a457c2d7146102f1578063a9059cbb14610304578063aaa14ca31461031757600080fd5b806374d0a676146102955780637cdc1cb9146102a857806395d89b41146102bb5780639711715a146102c3578063981b24d0146102cb578063983b2d56146102de57600080fd5b806340c10f191161013057806340c10f191461020b57806342966c681461021e5780634ee2cd7e146102335780636be7658b1461024657806370a082311461025957806373cc802a1461028257600080fd5b806306fdde0314610178578063095ea7b31461019657806318160ddd146101b957806323b872dd146101cb578063313ce567146101de57806339509351146101f8575b600080fd5b6101806103b4565b60405161018d91906117b5565b60405180910390f35b6101a96101a4366004611752565b610446565b604051901515815260200161018d565b6002545b60405190815260200161018d565b6101a96101d9366004611717565b61045d565b6101e6610513565b60405160ff909116815260200161018d565b6101a9610206366004611752565b610526565b6101a9610219366004611752565b61055d565b61023161022c36600461177b565b61059b565b005b6101bd610241366004611752565b6105d1565b610231610254366004611793565b61062a565b6101bd6102673660046116cb565b6001600160a01b031660009081526020819052604090205490565b6102316102903660046116cb565b61070e565b6102316102a3366004611793565b61071c565b6101a96102b6366004611793565b610800565b6101806108e3565b6101bd6108f2565b6101bd6102d936600461177b565b6108fc565b6102316102ec3660046116cb565b610927565b6101a96102ff366004611752565b610933565b6101a9610312366004611752565b6109c4565b61023161032536600461177b565b6109d1565b61033d61033836600461177b565b610a9b565b6040516001600160a01b03909116815260200161018d565b610231610363366004611793565b610b15565b6101bd6103763660046116e5565b6001600160a01b03918216600090815260016020908152604080832093909416825291909152205490565b6102316103af3660046116cb565b610bf9565b6060600380546103c39061196c565b80601f01602080910402602001604051908101604052809291908181526020018280546103ef9061196c565b801561043c5780601f106104115761010080835404028352916020019161043c565b820191906000526020600020905b81548152906001019060200180831161041f57829003601f168201915b5050505050905090565b6000610453338484610c61565b5060015b92915050565b600061046a848484610d86565b6001600160a01b0384166000908152600160209081526040808320338452909152902054828110156104f45760405162461bcd60e51b815260206004820152602860248201527f45524332303a207472616e7366657220616d6f756e74206578636565647320616044820152676c6c6f77616e636560c01b60648201526084015b60405180910390fd5b61050885336105038685611955565b610c61565b506001949350505050565b600061052160065460ff1690565b905090565b3360008181526001602090815260408083206001600160a01b03871684529091528120549091610453918590610503908690611929565b6000600161056b8133610800565b6105875760405162461bcd60e51b81526004016104eb906118a3565b6105918484610d91565b5060019392505050565b60026105a78133610800565b6105c35760405162461bcd60e51b81526004016104eb906118a3565b6105cd3383610d9b565b5050565b6001600160a01b0382166000908152600760205260408120819081906105f8908590610da5565b915091508161061f576001600160a01b038516600090815260208190526040902054610621565b805b95945050505050565b81600260008281526005602052604090206001015460ff16600281111561066157634e487b7160e01b600052602160045260246000fd5b1461067e5760405162461bcd60e51b81526004016104eb90611857565b60008381526005602052604090205483906106999033610800565b6106b55760405162461bcd60e51b81526004016104eb906118e5565b60008481526005602052604090206106d09060030184610ea5565b60405133906001600160a01b0385169086907feb3e33034c392e69263b04ec0fa376dc12784a41b6676c7f31b936cbc0fbb5af90600090a450505050565b610719600082610b15565b50565b81600260008281526005602052604090206001015460ff16600281111561075357634e487b7160e01b600052602160045260246000fd5b146107705760405162461bcd60e51b81526004016104eb90611857565b600083815260056020526040902054839061078b9033610800565b6107a75760405162461bcd60e51b81526004016104eb906118e5565b60008481526005602052604090206107c29060030184610ec7565b60405133906001600160a01b0385169086907f63502af7324ff6db91ab38f8236a648727d9385ea6c782073dd4882d8a61a48f90600090a450505050565b600082815260056020526040812060018082015460ff16600281111561083657634e487b7160e01b600052602160045260246000fd5b14156108585760028101546001600160a01b038481169116145b915050610457565b6002600182015460ff16600281111561088157634e487b7160e01b600052602160045260246000fd5b14156108aa576001600160a01b038316600090815260038201602052604090205460ff16610850565b60405162461bcd60e51b815260206004820152600e60248201526d125b9d985b1a59081c9bdb19525960921b60448201526064016104eb565b6060600480546103c39061196c565b6000610521610f42565b600080600061090c846008610da5565b915091508161091d5760025461091f565b805b949350505050565b61071960015b8261071c565b3360009081526001602090815260408083206001600160a01b0386168452909152812054828110156109b55760405162461bcd60e51b815260206004820152602560248201527f45524332303a2064656372656173656420616c6c6f77616e63652062656c6f77604482015264207a65726f60d81b60648201526084016104eb565b61059133856105038685611955565b6000610453338484610d86565b80600260008281526005602052604090206001015460ff166002811115610a0857634e487b7160e01b600052602160045260246000fd5b14610a255760405162461bcd60e51b81526004016104eb90611857565b81610a308133610800565b610a4c5760405162461bcd60e51b81526004016104eb906118a3565b6000838152600560205260409020610a679060030133610ea5565b6040513390819085907feb3e33034c392e69263b04ec0fa376dc12784a41b6676c7f31b936cbc0fbb5af90600090a4505050565b600081600160008281526005602052604090206001015460ff166002811115610ad457634e487b7160e01b600052602160045260246000fd5b14610af15760405162461bcd60e51b81526004016104eb90611808565b6000838152600560205260409020600201546001600160a01b031691505b50919050565b81600160008281526005602052604090206001015460ff166002811115610b4c57634e487b7160e01b600052602160045260246000fd5b14610b695760405162461bcd60e51b81526004016104eb90611808565b6000838152600560205260409020548390610b849033610800565b610ba05760405162461bcd60e51b81526004016104eb906118e5565b6000848152600560205260409020610bbb9060020184610f9d565b60405133906001600160a01b0385169086907f3b855c56b409b671c7112789d022675eb639d0bcb8896f1b6197c132f799e74690600090a450505050565b610719600261092d565b6105cd8282610f9d565b60005b8151811015610c5c57610c4a83838381518110610c3d57634e487b7160e01b600052603260045260246000fd5b6020026020010151610ec7565b80610c54816119a1565b915050610c10565b505050565b6001600160a01b038316610cc35760405162461bcd60e51b8152602060048201526024808201527f45524332303a20617070726f76652066726f6d20746865207a65726f206164646044820152637265737360e01b60648201526084016104eb565b6001600160a01b038216610d245760405162461bcd60e51b815260206004820152602260248201527f45524332303a20617070726f766520746f20746865207a65726f206164647265604482015261737360f01b60648201526084016104eb565b6001600160a01b0383811660008181526001602090815260408083209487168084529482529182902085905590518481527f8c5be1e5ebec7d5bd14f71427d1e84f3dd0314c0f7b2291e5b200ac8c7c3b92591015b60405180910390a3505050565b610c5c83838361101c565b6105cd82826111ff565b6105cd82826112ea565b60008060008411610df15760405162461bcd60e51b815260206004820152601660248201527504552433230536e617073686f743a20696420697320360541b60448201526064016104eb565b600a54841115610e435760405162461bcd60e51b815260206004820152601d60248201527f4552433230536e617073686f743a206e6f6e6578697374656e7420696400000060448201526064016104eb565b6000610e4f8486611445565b8454909150811415610e68576000809250925050610e9e565b6001846001018281548110610e8d57634e487b7160e01b600052603260045260246000fd5b906000526020600020015492509250505b9250929050565b6001600160a01b0316600090815260209190915260409020805460ff19169055565b6001600160a01b038116610f1d5760405162461bcd60e51b815260206004820152601f60248201527f43616e6e6f74206164642030783020746f20612073686172656420726f6c650060448201526064016104eb565b6001600160a01b0316600090815260209190915260409020805460ff19166001179055565b6000610f52600a80546001019055565b6000610f5d600a5490565b90507f8030e83b04d87bef53480e26263266d6ca66863aa8506aca6f2559d18aa1cb6781604051610f9091815260200190565b60405180910390a1919050565b6001600160a01b038116610fff5760405162461bcd60e51b815260206004820152602360248201527f43616e6e6f742073657420616e206578636c757369766520726f6c6520746f2060448201526203078360ec1b60648201526084016104eb565b81546001600160a01b0319166001600160a01b0391909116179055565b6001600160a01b0383166110805760405162461bcd60e51b815260206004820152602560248201527f45524332303a207472616e736665722066726f6d20746865207a65726f206164604482015264647265737360d81b60648201526084016104eb565b6001600160a01b0382166110e25760405162461bcd60e51b815260206004820152602360248201527f45524332303a207472616e7366657220746f20746865207a65726f206164647260448201526265737360e81b60648201526084016104eb565b6110ed838383611524565b6001600160a01b038316600090815260208190526040902054818110156111655760405162461bcd60e51b815260206004820152602660248201527f45524332303a207472616e7366657220616d6f756e7420657863656564732062604482015265616c616e636560d01b60648201526084016104eb565b61116f8282611955565b6001600160a01b0380861660009081526020819052604080822093909355908516815290812080548492906111a5908490611929565b92505081905550826001600160a01b0316846001600160a01b03167fddf252ad1be2c89b69c2b068fc378daa952ba7f163c4a11628f55a4df523b3ef846040516111f191815260200190565b60405180910390a350505050565b6001600160a01b0382166112555760405162461bcd60e51b815260206004820152601f60248201527f45524332303a206d696e7420746f20746865207a65726f20616464726573730060448201526064016104eb565b61126160008383611524565b80600260008282546112739190611929565b90915550506001600160a01b038216600090815260208190526040812080548392906112a0908490611929565b90915550506040518181526001600160a01b038316906000907fddf252ad1be2c89b69c2b068fc378daa952ba7f163c4a11628f55a4df523b3ef9060200160405180910390a35050565b6001600160a01b03821661134a5760405162461bcd60e51b815260206004820152602160248201527f45524332303a206275726e2066726f6d20746865207a65726f206164647265736044820152607360f81b60648201526084016104eb565b61135682600083611524565b6001600160a01b038216600090815260208190526040902054818110156113ca5760405162461bcd60e51b815260206004820152602260248201527f45524332303a206275726e20616d6f756e7420657863656564732062616c616e604482015261636560f01b60648201526084016104eb565b6113d48282611955565b6001600160a01b03841660009081526020819052604081209190915560028054849290611402908490611955565b90915550506040518281526000906001600160a01b038516907fddf252ad1be2c89b69c2b068fc378daa952ba7f163c4a11628f55a4df523b3ef90602001610d79565b815460009061145657506000610457565b82546000905b808210156114c0576000611470838361152f565b90508486828154811061149357634e487b7160e01b600052603260045260246000fd5b906000526020600020015411156114ac578091506114ba565b6114b7816001611929565b92505b5061145c565b600082118015611503575083856114d8600185611955565b815481106114f657634e487b7160e01b600052603260045260246000fd5b9060005260206000200154145b1561151c57611513600183611955565b92505050610457565b509050610457565b610c5c83838361158d565b6000600261153d81846119bc565b6115486002866119bc565b6115529190611929565b61155c9190611941565b611567600284611941565b611572600286611941565b61157c9190611929565b6115869190611929565b9392505050565b6001600160a01b0383166115ac576115a4826115d1565b610c5c611603565b6001600160a01b0382166115c3576115a4836115d1565b6115cc836115d1565b610c5c825b6001600160a01b038116600090815260076020908152604080832091839052909120546107199190611613565b611613565b61161160086115fe60025490565b565b600061161e600a5490565b90508061162a8461165e565b1015610c5c578254600180820185556000858152602080822090930193909355938401805494850181558252902090910155565b805460009061166f57506000919050565b8154829061167f90600190611955565b8154811061169d57634e487b7160e01b600052603260045260246000fd5b90600052602060002001549050919050565b919050565b80356001600160a01b03811681146116af57600080fd5b6000602082840312156116dc578081fd5b611586826116b4565b600080604083850312156116f7578081fd5b611700836116b4565b915061170e602084016116b4565b90509250929050565b60008060006060848603121561172b578081fd5b611734846116b4565b9250611742602085016116b4565b9150604084013590509250925092565b60008060408385031215611764578182fd5b61176d836116b4565b946020939093013593505050565b60006020828403121561178c578081fd5b5035919050565b600080604083850312156117a5578182fd5b8235915061170e602084016116b4565b6000602080835283518082850152825b818110156117e1578581018301518582016040015282016117c5565b818111156117f25783604083870101525b50601f01601f1916929092016040019392505050565b6020808252602f908201527f4d7573742062652063616c6c6564206f6e20616e20696e697469616c697a656460408201526e204578636c757369766520726f6c6560881b606082015260800190565b6020808252602c908201527f4d7573742062652063616c6c6564206f6e20616e20696e697469616c697a656460408201526b2053686172656420726f6c6560a01b606082015260800190565b60208082526022908201527f53656e64657220646f6573206e6f7420686f6c6420726571756972656420726f6040820152616c6560f01b606082015260800190565b60208082526024908201527f43616e206f6e6c792062652063616c6c6564206279206120726f6c65206d616e60408201526330b3b2b960e11b606082015260800190565b6000821982111561193c5761193c6119d0565b500190565b600082611950576119506119e6565b500490565b600082821015611967576119676119d0565b500390565b600181811c9082168061198057607f821691505b60208210811415610b0f57634e487b7160e01b600052602260045260246000fd5b60006000198214156119b5576119b56119d0565b5060010190565b6000826119cb576119cb6119e6565b500690565b634e487b7160e01b600052601160045260246000fd5b634e487b7160e01b600052601260045260246000fdfea2646970667358221220eab64aa29e029c1229f12a3b55043291f0f6dc8728904a647abc6769ba3e76ae64736f6c63430008040033417474656d7074656420746f2075736520616e20696e76616c696420726f6c65",
  "immutableReferences": {},
  "source": "// SPDX-License-Identifier: AGPL-3.0-only\npragma solidity ^0.8.0;\n\nimport \"../../common/implementation/ExpandedERC20.sol\";\nimport \"@openzeppelin/contracts/token/ERC20/extensions/ERC20Snapshot.sol\";\n\n/**\n * @title Ownership of this token allows a voter to respond to price requests.\n * @dev Supports snapshotting and allows the Oracle to mint new tokens as rewards.\n */\ncontract VotingToken is ExpandedERC20, ERC20Snapshot {\n    /**\n     * @notice Constructs the VotingToken.\n     */\n    constructor() ExpandedERC20(\"UMA Voting Token v1\", \"UMA\", 18) ERC20Snapshot() {}\n\n    function decimals() public view virtual override(ERC20, ExpandedERC20) returns (uint8) {\n        return super.decimals();\n    }\n\n    /**\n     * @notice Creates a new snapshot ID.\n     * @return uint256 Thew new snapshot ID.\n     */\n    function snapshot() external returns (uint256) {\n        return _snapshot();\n    }\n\n    // _transfer, _mint and _burn are ERC20 internal methods that are overridden by ERC20Snapshot,\n    // therefore the compiler will complain that VotingToken must override these methods\n    // because the two base classes (ERC20 and ERC20Snapshot) both define the same functions\n\n    function _transfer(\n        address from,\n        address to,\n        uint256 value\n    ) internal override(ERC20) {\n        super._transfer(from, to, value);\n    }\n\n    function _mint(address account, uint256 value) internal virtual override(ERC20) {\n        super._mint(account, value);\n    }\n\n    function _burn(address account, uint256 value) internal virtual override(ERC20) {\n        super._burn(account, value);\n    }\n\n    function _beforeTokenTransfer(\n        address from,\n        address to,\n        uint256 amount\n    ) internal virtual override(ERC20, ERC20Snapshot) {\n        super._beforeTokenTransfer(from, to, amount);\n    }\n}\n",
  "sourcePath": "/home/kamto/code/protocol/packages/core/contracts/oracle/implementation/VotingToken.sol",
  "compiler": {
    "name": "solc",
    "version": "0.8.4+commit.c7e474f2.Emscripten.clang"
  },
  "schemaVersion": "3.3.4",
  "updatedAt": "2021-05-07T21:30:29.709Z",
  "networkType": "ethereum",
  "devdoc": {
    "details": "Supports snapshotting and allows the Oracle to mint new tokens as rewards.",
    "kind": "dev",
    "methods": {
      "addBurner(address)": {
        "details": "The caller must have the Owner role.",
        "params": {
          "account": "The address to which the Burner role is added."
        }
      },
      "addMember(uint256,address)": {
        "details": "Reverts if `roleId` does not represent an initialized, SharedRole or if the caller is not a member of the managing role for `roleId`.",
        "params": {
          "newMember": "the new SharedRole member.",
          "roleId": "the SharedRole membership to modify."
        }
      },
      "addMinter(address)": {
        "details": "The caller must have the Owner role.",
        "params": {
          "account": "The address to which the Minter role is added."
        }
      },
      "allowance(address,address)": {
        "details": "See {IERC20-allowance}."
      },
      "approve(address,uint256)": {
        "details": "See {IERC20-approve}. Requirements: - `spender` cannot be the zero address."
      },
      "balanceOf(address)": {
        "details": "See {IERC20-balanceOf}."
      },
      "balanceOfAt(address,uint256)": {
        "details": "Retrieves the balance of `account` at the time `snapshotId` was created."
      },
      "burn(uint256)": {
        "details": "Burns `value` tokens owned by `msg.sender`.",
        "params": {
          "value": "amount of tokens to burn."
        }
      },
      "decreaseAllowance(address,uint256)": {
        "details": "Atomically decreases the allowance granted to `spender` by the caller. This is an alternative to {approve} that can be used as a mitigation for problems described in {IERC20-approve}. Emits an {Approval} event indicating the updated allowance. Requirements: - `spender` cannot be the zero address. - `spender` must have allowance for the caller of at least `subtractedValue`."
      },
      "getMember(uint256)": {
        "details": "Reverts if `roleId` does not represent an initialized, exclusive role.",
        "params": {
          "roleId": "the ExclusiveRole membership to check."
        },
        "returns": {
          "_0": "the address of the current ExclusiveRole member."
        }
      },
      "holdsRole(uint256,address)": {
        "details": "Reverts if roleId does not correspond to an initialized role.",
        "params": {
          "memberToCheck": "the address to check.",
          "roleId": "the Role to check."
        },
        "returns": {
          "_0": "True if `memberToCheck` is a member of `roleId`."
        }
      },
      "increaseAllowance(address,uint256)": {
        "details": "Atomically increases the allowance granted to `spender` by the caller. This is an alternative to {approve} that can be used as a mitigation for problems described in {IERC20-approve}. Emits an {Approval} event indicating the updated allowance. Requirements: - `spender` cannot be the zero address."
      },
      "mint(address,uint256)": {
        "details": "Mints `value` tokens to `recipient`, returning true on success.",
        "params": {
          "recipient": "address to mint to.",
          "value": "amount of tokens to mint."
        },
        "returns": {
          "_0": "True if the mint succeeded, or False."
        }
      },
      "name()": {
        "details": "Returns the name of the token."
      },
      "removeMember(uint256,address)": {
        "details": "Reverts if `roleId` does not represent an initialized, SharedRole or if the caller is not a member of the managing role for `roleId`.",
        "params": {
          "memberToRemove": "the current SharedRole member to remove.",
          "roleId": "the SharedRole membership to modify."
        }
      },
      "renounceMembership(uint256)": {
        "details": "Reverts if the caller is not a member of the role for `roleId` or if `roleId` is not an initialized, SharedRole.",
        "params": {
          "roleId": "the SharedRole membership to modify."
        }
      },
      "resetMember(uint256,address)": {
        "details": "Reverts if the caller is not a member of the managing role for `roleId` or if `roleId` is not an initialized, ExclusiveRole.",
        "params": {
          "newMember": "the new ExclusiveRole member.",
          "roleId": "the ExclusiveRole membership to modify."
        }
      },
      "resetOwner(address)": {
        "details": "The caller must have the Owner role.",
        "params": {
          "account": "The new holder of the Owner role."
        }
      },
      "snapshot()": {
        "returns": {
          "_0": "uint256 Thew new snapshot ID."
        }
      },
      "symbol()": {
        "details": "Returns the symbol of the token, usually a shorter version of the name."
      },
      "totalSupply()": {
        "details": "See {IERC20-totalSupply}."
      },
      "totalSupplyAt(uint256)": {
        "details": "Retrieves the total supply at the time `snapshotId` was created."
      },
      "transfer(address,uint256)": {
        "details": "See {IERC20-transfer}. Requirements: - `recipient` cannot be the zero address. - the caller must have a balance of at least `amount`."
      },
      "transferFrom(address,address,uint256)": {
        "details": "See {IERC20-transferFrom}. Emits an {Approval} event indicating the updated allowance. This is not required by the EIP. See the note at the beginning of {ERC20}. Requirements: - `sender` and `recipient` cannot be the zero address. - `sender` must have a balance of at least `amount`. - the caller must have allowance for ``sender``'s tokens of at least `amount`."
      }
    },
    "title": "Ownership of this token allows a voter to respond to price requests.",
    "version": 1
  },
  "userdoc": {
    "kind": "user",
    "methods": {
      "addBurner(address)": {
        "notice": "Add Burner role to account."
      },
      "addMember(uint256,address)": {
        "notice": "Adds `newMember` to the shared role, `roleId`."
      },
      "addMinter(address)": {
        "notice": "Add Minter role to account."
      },
      "constructor": {
        "notice": "Constructs the VotingToken."
      },
      "getMember(uint256)": {
        "notice": "Gets the current holder of the exclusive role, `roleId`."
      },
      "holdsRole(uint256,address)": {
        "notice": "Whether `memberToCheck` is a member of roleId."
      },
      "removeMember(uint256,address)": {
        "notice": "Removes `memberToRemove` from the shared role, `roleId`."
      },
      "renounceMembership(uint256)": {
        "notice": "Removes caller from the role, `roleId`."
      },
      "resetMember(uint256,address)": {
        "notice": "Changes the exclusive role holder of `roleId` to `newMember`."
      },
      "resetOwner(address)": {
        "notice": "Reset Owner role to account."
      },
      "snapshot()": {
        "notice": "Creates a new snapshot ID."
      }
    },
    "version": 1
  }
}