{
  "contractName": "WithdrawableTest",
  "abi": [
    {
      "inputs": [],
      "stateMutability": "nonpayable",
      "type": "constructor"
    },
    {
      "anonymous": false,
      "inputs": [
        {
          "indexed": true,
          "internalType": "uint256",
          "name": "roleId",
          "type": "uint256"
        },
        {
          "indexed": true,
          "internalType": "address",
          "name": "newMember",
          "type": "address"
        },
        {
          "indexed": true,
          "internalType": "address",
          "name": "manager",
          "type": "address"
        }
      ],
      "name": "AddedSharedMember",
      "type": "event"
    },
    {
      "anonymous": false,
      "inputs": [
        {
          "indexed": true,
          "internalType": "uint256",
          "name": "roleId",
          "type": "uint256"
        },
        {
          "indexed": true,
          "internalType": "address",
          "name": "oldMember",
          "type": "address"
        },
        {
          "indexed": true,
          "internalType": "address",
          "name": "manager",
          "type": "address"
        }
      ],
      "name": "RemovedSharedMember",
      "type": "event"
    },
    {
      "anonymous": false,
      "inputs": [
        {
          "indexed": true,
          "internalType": "uint256",
          "name": "roleId",
          "type": "uint256"
        },
        {
          "indexed": true,
          "internalType": "address",
          "name": "newMember",
          "type": "address"
        },
        {
          "indexed": true,
          "internalType": "address",
          "name": "manager",
          "type": "address"
        }
      ],
      "name": "ResetExclusiveMember",
      "type": "event"
    },
    {
      "inputs": [
        {
          "internalType": "uint256",
          "name": "roleId",
          "type": "uint256"
        },
        {
          "internalType": "address",
          "name": "newMember",
          "type": "address"
        }
      ],
      "name": "addMember",
      "outputs": [],
      "stateMutability": "nonpayable",
      "type": "function"
    },
    {
      "inputs": [
        {
          "internalType": "uint256",
          "name": "roleId",
          "type": "uint256"
        }
      ],
      "name": "getMember",
      "outputs": [
        {
          "internalType": "address",
          "name": "",
          "type": "address"
        }
      ],
      "stateMutability": "view",
      "type": "function"
    },
    {
      "inputs": [
        {
          "internalType": "uint256",
          "name": "roleId",
          "type": "uint256"
        },
        {
          "internalType": "address",
          "name": "memberToCheck",
          "type": "address"
        }
      ],
      "name": "holdsRole",
      "outputs": [
        {
          "internalType": "bool",
          "name": "",
          "type": "bool"
        }
      ],
      "stateMutability": "view",
      "type": "function"
    },
    {
      "inputs": [
        {
          "internalType": "uint256",
          "name": "roleId",
          "type": "uint256"
        },
        {
          "internalType": "address",
          "name": "memberToRemove",
          "type": "address"
        }
      ],
      "name": "removeMember",
      "outputs": [],
      "stateMutability": "nonpayable",
      "type": "function"
    },
    {
      "inputs": [
        {
          "internalType": "uint256",
          "name": "roleId",
          "type": "uint256"
        }
      ],
      "name": "renounceMembership",
      "outputs": [],
      "stateMutability": "nonpayable",
      "type": "function"
    },
    {
      "inputs": [
        {
          "internalType": "uint256",
          "name": "roleId",
          "type": "uint256"
        },
        {
          "internalType": "address",
          "name": "newMember",
          "type": "address"
        }
      ],
      "name": "resetMember",
      "outputs": [],
      "stateMutability": "nonpayable",
      "type": "function"
    },
    {
      "inputs": [
        {
          "internalType": "uint256",
          "name": "amount",
          "type": "uint256"
        }
      ],
      "name": "withdraw",
      "outputs": [],
      "stateMutability": "nonpayable",
      "type": "function"
    },
    {
      "inputs": [
        {
          "internalType": "address",
          "name": "erc20Address",
          "type": "address"
        },
        {
          "internalType": "uint256",
          "name": "amount",
          "type": "uint256"
        }
      ],
      "name": "withdrawErc20",
      "outputs": [],
      "stateMutability": "nonpayable",
      "type": "function"
    },
    {
      "inputs": [],
      "name": "pay",
      "outputs": [],
      "stateMutability": "payable",
      "type": "function"
    },
    {
      "inputs": [
        {
          "internalType": "uint256",
          "name": "setRoleId",
          "type": "uint256"
        }
      ],
      "name": "setInternalWithdrawRole",
      "outputs": [],
      "stateMutability": "nonpayable",
      "type": "function"
    }
  ],
  "bytecode": "0x60806040523480156200001157600080fd5b50620000206000803362000035565b6200002f6001600033620001af565b62000257565b826000808281526020819052604090206001015460ff1660028111156200006c57634e487b7160e01b600052602160045260246000fd5b14620000bf5760405162461bcd60e51b815260206004820152601e60248201527f43616e6e6f74207573652061207072652d6578697374696e6720726f6c65000060448201526064015b60405180910390fd5b60008481526020819052604090206001808201805460ff191682800217905550838155620000fd6002820184620001c6602090811b6200076417901c565b60008481526020819052604081206001015460ff1660028111156200013257634e487b7160e01b600052602160045260246000fd5b1415620001a85760405162461bcd60e51b815260206004820152603c60248201527f417474656d7074656420746f2075736520616e20696e76616c696420726f6c6560448201527f20746f206d616e61676520616e206578636c757369766520726f6c65000000006064820152608401620000b6565b5050505050565b6001839055620001c183838362000035565b505050565b620001d28282620001d6565b5050565b6001600160a01b0381166200023a5760405162461bcd60e51b815260206004820152602360248201527f43616e6e6f742073657420616e206578636c757369766520726f6c6520746f2060448201526203078360ec1b6064820152608401620000b6565b81546001600160a01b0319166001600160a01b0391909116179055565b610f5380620002676000396000f3fe6080604052600436106100915760003560e01c80637cdc1cb9116100595780637cdc1cb914610120578063aaa14ca314610155578063ab3545e514610175578063bd1f4b52146101ad578063d97c05be146101cd57600080fd5b80631b9265b8146100965780632e1a7d4d146100a05780636b85f1b0146100c05780636be7658b146100e057806374d0a67614610100575b600080fd5b61009e6101ed565b005b3480156100ac57600080fd5b5061009e6100bb366004610d3e565b6101fc565b3480156100cc57600080fd5b5061009e6100db366004610d3e565b61023c565b3480156100ec57600080fd5b5061009e6100fb366004610d56565b610248565b34801561010c57600080fd5b5061009e61011b366004610d56565b61032c565b34801561012c57600080fd5b5061014061013b366004610d56565b610410565b60405190151581526020015b60405180910390f35b34801561016157600080fd5b5061009e610170366004610d3e565b6104f9565b34801561018157600080fd5b50610195610190366004610d3e565b6105c3565b6040516001600160a01b03909116815260200161014c565b3480156101b957600080fd5b5061009e6101c8366004610cf5565b61063c565b3480156101d957600080fd5b5061009e6101e8366004610d56565b610680565b600034116101fa57600080fd5b565b6001546102098133610410565b61022e5760405162461bcd60e51b815260040161022590610e6b565b60405180910390fd5b610238338361076e565b5050565b6102458161088c565b50565b81600260008281526020819052604090206001015460ff16600281111561027f57634e487b7160e01b600052602160045260246000fd5b1461029c5760405162461bcd60e51b815260040161022590610e1f565b60008381526020819052604090205483906102b79033610410565b6102d35760405162461bcd60e51b815260040161022590610ead565b60008481526020819052604090206102ee9060030184610921565b60405133906001600160a01b0385169086907feb3e33034c392e69263b04ec0fa376dc12784a41b6676c7f31b936cbc0fbb5af90600090a450505050565b81600260008281526020819052604090206001015460ff16600281111561036357634e487b7160e01b600052602160045260246000fd5b146103805760405162461bcd60e51b815260040161022590610e1f565b600083815260208190526040902054839061039b9033610410565b6103b75760405162461bcd60e51b815260040161022590610ead565b60008481526020819052604090206103d29060030184610943565b60405133906001600160a01b0385169086907f63502af7324ff6db91ab38f8236a648727d9385ea6c782073dd4882d8a61a48f90600090a450505050565b600082815260208190526040812060018082015460ff16600281111561044657634e487b7160e01b600052602160045260246000fd5b14156104685760028101546001600160a01b038481169116145b9150506104f3565b6002600182015460ff16600281111561049157634e487b7160e01b600052602160045260246000fd5b14156104ba576001600160a01b038316600090815260038201602052604090205460ff16610460565b60405162461bcd60e51b815260206004820152600e60248201526d125b9d985b1a59081c9bdb19525960921b6044820152606401610225565b92915050565b80600260008281526020819052604090206001015460ff16600281111561053057634e487b7160e01b600052602160045260246000fd5b1461054d5760405162461bcd60e51b815260040161022590610e1f565b816105588133610410565b6105745760405162461bcd60e51b815260040161022590610e6b565b600083815260208190526040902061058f9060030133610921565b6040513390819085907feb3e33034c392e69263b04ec0fa376dc12784a41b6676c7f31b936cbc0fbb5af90600090a4505050565b600081600160008281526020819052604090206001015460ff1660028111156105fc57634e487b7160e01b600052602160045260246000fd5b146106195760405162461bcd60e51b815260040161022590610dd0565b6000838152602081905260409020600201546001600160a01b03165b9392505050565b6001546106498133610410565b6106655760405162461bcd60e51b815260040161022590610e6b565b8261067a6001600160a01b03821633856109be565b50505050565b81600160008281526020819052604090206001015460ff1660028111156106b757634e487b7160e01b600052602160045260246000fd5b146106d45760405162461bcd60e51b815260040161022590610dd0565b60008381526020819052604090205483906106ef9033610410565b61070b5760405162461bcd60e51b815260040161022590610ead565b60008481526020819052604090206107269060020184610a10565b60405133906001600160a01b0385169086907f3b855c56b409b671c7112789d022675eb639d0bcb8896f1b6197c132f799e74690600090a450505050565b6102388282610a10565b804710156107be5760405162461bcd60e51b815260206004820152601d60248201527f416464726573733a20696e73756666696369656e742062616c616e63650000006044820152606401610225565b6000826001600160a01b03168260405160006040518083038185875af1925050503d806000811461080b576040519150601f19603f3d011682016040523d82523d6000602084013e610810565b606091505b50509050806108875760405162461bcd60e51b815260206004820152603a60248201527f416464726573733a20756e61626c6520746f2073656e642076616c75652c207260448201527f6563697069656e74206d617920686176652072657665727465640000000000006064820152608401610225565b505050565b806000808281526020819052604090206001015460ff1660028111156108c257634e487b7160e01b600052602160045260246000fd5b141561091b5760405162461bcd60e51b815260206004820152602260248201527f417474656d7074656420746f2075736520616e20696e76616c696420726f6c65604482015261125960f21b6064820152608401610225565b50600155565b6001600160a01b0316600090815260209190915260409020805460ff19169055565b6001600160a01b0381166109995760405162461bcd60e51b815260206004820152601f60248201527f43616e6e6f74206164642030783020746f20612073686172656420726f6c65006044820152606401610225565b6001600160a01b0316600090815260209190915260409020805460ff19166001179055565b604080516001600160a01b038416602482015260448082018490528251808303909101815260649091019091526020810180516001600160e01b031663a9059cbb60e01b179052610887908490610a8f565b6001600160a01b038116610a725760405162461bcd60e51b815260206004820152602360248201527f43616e6e6f742073657420616e206578636c757369766520726f6c6520746f2060448201526203078360ec1b6064820152608401610225565b81546001600160a01b0319166001600160a01b0391909116179055565b6000610ae4826040518060400160405280602081526020017f5361666545524332303a206c6f772d6c6576656c2063616c6c206661696c6564815250856001600160a01b0316610b619092919063ffffffff16565b8051909150156108875780806020019051810190610b029190610d1e565b6108875760405162461bcd60e51b815260206004820152602a60248201527f5361666545524332303a204552433230206f7065726174696f6e20646964206e6044820152691bdd081cdd58d8d9595960b21b6064820152608401610225565b6060610b708484600085610b78565b949350505050565b606082471015610bd95760405162461bcd60e51b815260206004820152602660248201527f416464726573733a20696e73756666696369656e742062616c616e636520666f6044820152651c8818d85b1b60d21b6064820152608401610225565b843b610c275760405162461bcd60e51b815260206004820152601d60248201527f416464726573733a2063616c6c20746f206e6f6e2d636f6e74726163740000006044820152606401610225565b600080866001600160a01b03168587604051610c439190610d81565b60006040518083038185875af1925050503d8060008114610c80576040519150601f19603f3d011682016040523d82523d6000602084013e610c85565b606091505b5091509150610c95828286610ca0565b979650505050505050565b60608315610caf575081610635565b825115610cbf5782518084602001fd5b8160405162461bcd60e51b81526004016102259190610d9d565b80356001600160a01b0381168114610cf057600080fd5b919050565b60008060408385031215610d07578182fd5b610d1083610cd9565b946020939093013593505050565b600060208284031215610d2f578081fd5b81518015158114610635578182fd5b600060208284031215610d4f578081fd5b5035919050565b60008060408385031215610d68578182fd5b82359150610d7860208401610cd9565b90509250929050565b60008251610d93818460208701610ef1565b9190910192915050565b6020815260008251806020840152610dbc816040850160208701610ef1565b601f01601f19169190910160400192915050565b6020808252602f908201527f4d7573742062652063616c6c6564206f6e20616e20696e697469616c697a656460408201526e204578636c757369766520726f6c6560881b606082015260800190565b6020808252602c908201527f4d7573742062652063616c6c6564206f6e20616e20696e697469616c697a656460408201526b2053686172656420726f6c6560a01b606082015260800190565b60208082526022908201527f53656e64657220646f6573206e6f7420686f6c6420726571756972656420726f6040820152616c6560f01b606082015260800190565b60208082526024908201527f43616e206f6e6c792062652063616c6c6564206279206120726f6c65206d616e60408201526330b3b2b960e11b606082015260800190565b60005b83811015610f0c578181015183820152602001610ef4565b8381111561067a575050600091015256fea2646970667358221220581c2e7cb4c2d9bbdfd030144e0c0c1e4406ab8f84ca48a917bc3ea763aade5964736f6c63430008040033",
  "immutableReferences": {},
  "source": "// SPDX-License-Identifier: AGPL-3.0-only\npragma solidity ^0.8.0;\n\nimport \"../implementation/Withdrawable.sol\";\n\n// WithdrawableTest is derived from the abstract contract Withdrawable for testing purposes.\ncontract WithdrawableTest is Withdrawable {\n    enum Roles { Governance, Withdraw }\n\n    // solhint-disable-next-line no-empty-blocks\n    constructor() {\n        _createExclusiveRole(uint256(Roles.Governance), uint256(Roles.Governance), msg.sender);\n        _createWithdrawRole(uint256(Roles.Withdraw), uint256(Roles.Governance), msg.sender);\n    }\n\n    function pay() external payable {\n        require(msg.value > 0);\n    }\n\n    function setInternalWithdrawRole(uint256 setRoleId) public {\n        _setWithdrawRole(setRoleId);\n    }\n}\n",
  "sourcePath": "/home/kamto/code/protocol/packages/core/contracts/common/test/WithdrawableTest.sol",
  "compiler": {
    "name": "solc",
    "version": "0.8.4+commit.c7e474f2.Emscripten.clang"
  },
  "schemaVersion": "3.3.4",
  "updatedAt": "2021-05-07T15:46:50.171Z",
  "devdoc": {
    "kind": "dev",
    "methods": {
      "addMember(uint256,address)": {
        "details": "Reverts if `roleId` does not represent an initialized, SharedRole or if the caller is not a member of the managing role for `roleId`.",
        "params": {
          "newMember": "the new SharedRole member.",
          "roleId": "the SharedRole membership to modify."
        }
      },
      "getMember(uint256)": {
        "details": "Reverts if `roleId` does not represent an initialized, exclusive role.",
        "params": {
          "roleId": "the ExclusiveRole membership to check."
        },
        "returns": {
          "_0": "the address of the current ExclusiveRole member."
        }
      },
      "holdsRole(uint256,address)": {
        "details": "Reverts if roleId does not correspond to an initialized role.",
        "params": {
          "memberToCheck": "the address to check.",
          "roleId": "the Role to check."
        },
        "returns": {
          "_0": "True if `memberToCheck` is a member of `roleId`."
        }
      },
      "removeMember(uint256,address)": {
        "details": "Reverts if `roleId` does not represent an initialized, SharedRole or if the caller is not a member of the managing role for `roleId`.",
        "params": {
          "memberToRemove": "the current SharedRole member to remove.",
          "roleId": "the SharedRole membership to modify."
        }
      },
      "renounceMembership(uint256)": {
        "details": "Reverts if the caller is not a member of the role for `roleId` or if `roleId` is not an initialized, SharedRole.",
        "params": {
          "roleId": "the SharedRole membership to modify."
        }
      },
      "resetMember(uint256,address)": {
        "details": "Reverts if the caller is not a member of the managing role for `roleId` or if `roleId` is not an initialized, ExclusiveRole.",
        "params": {
          "newMember": "the new ExclusiveRole member.",
          "roleId": "the ExclusiveRole membership to modify."
        }
      },
      "withdrawErc20(address,uint256)": {
        "params": {
          "amount": "amount of tokens to withdraw.",
          "erc20Address": "ERC20 token to withdraw."
        }
      }
    },
    "version": 1
  },
  "userdoc": {
    "kind": "user",
    "methods": {
      "addMember(uint256,address)": {
        "notice": "Adds `newMember` to the shared role, `roleId`."
      },
      "getMember(uint256)": {
        "notice": "Gets the current holder of the exclusive role, `roleId`."
      },
      "holdsRole(uint256,address)": {
        "notice": "Whether `memberToCheck` is a member of roleId."
      },
      "removeMember(uint256,address)": {
        "notice": "Removes `memberToRemove` from the shared role, `roleId`."
      },
      "renounceMembership(uint256)": {
        "notice": "Removes caller from the role, `roleId`."
      },
      "resetMember(uint256,address)": {
        "notice": "Changes the exclusive role holder of `roleId` to `newMember`."
      },
      "withdraw(uint256)": {
        "notice": "Withdraws ETH from the contract."
      },
      "withdrawErc20(address,uint256)": {
        "notice": "Withdraws ERC20 tokens from the contract."
      }
    },
    "version": 1
  }
}